:1000000088C10000A5C10000A3C10000A1C100007B
:100010009FC100009DC100009BC1000099C100006C
:1000200097C1000095C100000C94C41C91C1000050
:100030008FC100008DC100000C941F1789C1000002
:1000400087C1000085C1000083C1000081C100009C
:100050000C94631C7DC100007BC1000079C10000CD
:1000600077C1000075C1000073C1000071C10000BC
:100070006FC100006DC100006BC1000069C10000CC
:1000800067C1000065C1000063C1000061C10000DC
:100090005FC100005DC100005BC1000059C10000EC
:1000A00057C1000055C1000053C1000051C10000FC
:1000B0004FC100004DC100004BC1000049C100000C
:1000C00047C1000045C1000043C1000041C100001C
:1000D0003FC100003DC100003BC1000039C100002C
:1000E00037C1000035C1000033C1000031C100003C
:1000F0002FC100002DC100002BC1000029C100004C
:1001000027C1000025C100000C94831C21C1000000
:100110001FC100001DC100001BC1000019C100006B
:1001200017C1000015C1000013C1000011C100007B
:100130000FC100000DC100000BC1000009C100008B
:1001400007C1000005C1000003C1000001C100009B
:10015000FFC00000FDC00000FBC00000F9C00000AF
:10016000BFC20000F5C00000F3C00000F1C00000F5
:10017000EFC00000EDC00000EBC00000E9C00000CF
:10018000E7C00000E5C00000E3C00000E1C00000DF
:10019000DFC00000DDC00000DBC00000D9C00000EF
:1001A000D7C00000D5C00000D3C00000D1C00000FF
:1001B000CFC00000CDC00000CBC00000C9C000000F
:1001C000C7C00000C5C00000C3C00000C1C000001F
:1001D000BFC00000BDC00000BBC00000B9C000002F
:1001E000B7C00000B5C00000B3C00000B1C000003F
:1001F000AFC00000ADC00000ABC000009E15A5154B
:10020000F8161616F816F816F816F016F816F81668
:10021000F816F816F816F816F816F816F816F8166E
:10022000F816F816F816F816F816F816F816F8165E
:10023000F816F816F816F816F816F816F816F8164E
:10024000F816F816F816F816F816F816F816F8163E
:10025000F816F816F816F816F816F816F816F8162E
:10026000A216A816B916CA16DE16261A201A201AC1
:10027000201A201A201A201A201A201A201A201AAE
:10028000201A201A261A201A201A201A201A201A98
:10029000201A201A201A201A201A201A201A201A8E
:1002A000201A201A201A201A201A201A201A201A7E
:1002B000201A201A201A201A201A201A201A201A6E
:1002C000201A201A201A201A201A201A201A201A5E
:1002D000201A201A201A201A201A201A201A261A48
:1002E000201A201A201A201A201A261A201A201A38
:1002F000201A261A201A201A201A201A201A201A28
:10030000201A261A201A201A201A261A201A261A0B
:10031000DA1911241FBECFEFCDBFDFE2DEBF11E23D
:10032000A0E0B0E2E8E3FEE300E00BBF02C007900C
:100330000D92A63FB107D9F72EE2A6EFB1E201C0B8
:100340001D92AB3AB207E1F70E94021C0C941A1FEF
:1003500057CEE0E5F0E0808182608083818181FF7B
:10036000FDCF88ED84BF81E08093400008951F9306
:10037000CF93DF931092F7211092F82188ECE5E0FB
:10038000F2E2DF011D928A95E9F783E190E20E9493
:10039000E41EBFEFEFE4F3ECB150E040F040E1F7D2
:1003A00000C000001092F7211092F82188ECE5E0DF
:1003B000F2E2DF011D928A95E9F78DE490E20E9456
:1003C000E41EBFEFE7EAF1E6B150E040F040E1F7AC
:1003D00000C0000065E371E285E092E20E94CA1E5F
:1003E000892B09F45DC11092F7211092F82188EC55
:1003F000E5E0F2E2DF011D928A95E9F78AE590E2F5
:100400000E94E41EBFEFE7EAF1E6B150E040F040A1
:10041000E1F700C0000065E371E285E092E20E942E
:10042000CA1E892B09F43EC11092F7211092F821BF
:1004300088ECE5E0F2E2DF011D928A95E9F786E6B5
:1004400090E20E94E41EBFEFE7EAF1E6B150E0401F
:10045000F040E1F700C00000C3E3D3E284E6DE0130
:100460001D928A95E9F7DE010D900020E9F71197BA
:100470008BE0E2E7F0E201900D928A95E1F7DE0170
:100480000D900020E9F711978AE0EDE7F0E2019086
:100490000D928A95E1F7FE0101900020E9F731976E
:1004A00082E29CE2A2E2B0E080839183A283B383E4
:1004B000DE010D900020E9F711978BE0E7E8F0E20C
:1004C00001900D928A95E1F709900020E9F72197B4
:1004D00082E290E0888399831092F7211092F821AC
:1004E00088ECE5E0F2E2DF011D928A95E9F783E30B
:1004F00093E20E94E41EBAEAE6EEF6E921E0B1508A
:10050000E040F0402040D9F700001092F72110920F
:10051000F82188ECE5E0F2E2DF011D928A95E9F727
:1005200082E990E20E94E41EBAEAE6EEF6E921E0F2
:10053000B150E040F0402040D9F70000C3E3D3E2DF
:1005400084E6DE011D928A95E9F7DE010D90002018
:10055000E9F7119784E1EDE9F0E201900D928A95B7
:10056000E1F7DE010D900020E9F7119783E1E1EB5F
:10057000F0E201900D928A95E1F709900020E9F7E9
:10058000DE01119785E0E4ECF0E201900D928A958E
:10059000E1F71092F7211092F82188ECE5E0F2E201
:1005A000DF011D928A95E9F783E393E20E94E41E3E
:1005B000BFEFEFE4F3ECB150E040F040E1F700C0F2
:1005C000000089EC90E20E94E41EC3E3D3E284E6DB
:1005D000DE011D928A95E9F7DE010D900020E9F712
:1005E000119785E0E9EDF0E201900D928A95E1F72F
:1005F000DE010D900020E9F7119788E4EEEDF0E2BE
:1006000001900D928A95E1F709900020E9F7DE014B
:1006100011978AE0E6E2F1E201900D928A95E1F706
:100620001092F7211092F82188ECE5E0F2E2DF0168
:100630001D928A95E9F783E393E20E94E41EBFEFDF
:10064000EFE4F3ECB150E040F040E1F700C000000F
:10065000CAE2D0E018EC1BC01092F7211092F821EA
:10066000E5E0F2E2DF01212F1D922A95E9F780E50E
:1006700091E20E94E41E3FEF89E698E1315080400C
:100680009040E1F700C000002197209769F060E3F7
:1006900071E285E092E20E94CA1E892BE9F205C050
:1006A00080E003C080E001C081E0DF91CF911F9125
:1006B0000895E0E6F6E080E2818385832FEF33E260
:1006C00084EF90E02150304080409040D9F700C046
:1006D00000000895E0E6F6E0868180638683089551
:1006E0001F920F920FB60F9211240BB60F922F93F9
:1006F0003F938F939F93EF93FF938091F721909176
:10070000F8219C012F5F3F4F2093F7213093F82170
:100710002091A009FC01EB5FFD4D208381E08093D7
:10072000F621FF91EF919F918F913F912F910F9023
:100730000BBE0F900FBE0F901F9018950F931F9335
:10074000CF93DF9342305105C0F0EB01FC019A01D9
:1007500009911991019311932250310922303105E9
:10076000B8F79A01225031092E7F2E5F3F4F820F3A
:10077000931F620F731F417055274115510549F0B2
:10078000DB01FC01840F951F2D912193E817F907D8
:10079000D9F7DF91CF911F910F9108954115510520
:1007A00039F0FC01840F951F6193E817F907E1F711
:1007B00008950F931F93DC01FB01628D738D80E020
:1007C00090E02C91233059F40489158920E030E021
:1007D000980111270027602B712B822B932B1F91DF
:1007E0000F910895CF93DF93EC01A881B981109701
:1007F00029F14C91413258F04A3349F1FD013196CB
:100800009F019191913228F09A33D1F704C0942F2F
:100810009D019A3379F4CD0101962817390789F49F
:10082000842F90E0C0978230910570F41296A883CF
:10083000B9830FC08091F92190E00BC08FEF9FEF3B
:1008400008C08FEF9FEF05C08FEF9FEF02C09D01A3
:10085000E2CFDF91CF9108958F929F92AF92BF9296
:10086000CF92DF92EF92FF920F931F93CF93DF937C
:10087000EC018C81882309F444C0CEA4DFA4E8A84D
:10088000F9A85E0182E3A80EB11C01E010E0A70107
:100890009601B50189810E941115811134C01C8215
:1008A0008AA19BA1ACA1BDA1B701A601481B590B10
:1008B0006A0B7B0B8A8D9B8DAC8DBD8D48175907BC
:1008C0006A077B0710F58B80912C82E088169104D3
:1008D000F0F08A8D9B8DAC8DBD8DC80ED91EEA1EA1
:1008E000FB1E01E010E0A7019601B50189810E947D
:1008F000111581E0881A910881E08816910449F762
:1009000008C080E007C081E005C080E003C080E04F
:1009100001C080E0DF91CF911F910F91FF90EF9088
:10092000DF90CF90BF90AF909F908F900895BF922F
:10093000CF92DF92EF92FF920F931F93CF93DF93AB
:10094000EC016A017B018EA59FA5A8A9B9A984170E
:100950009507A607B707E1F0CE017EDFB82E81111B
:1009600018C001E010E0A7019601BE016E5C7F4F48
:1009700089810E94BD14882331F0BB24B394CC2418
:10098000CA94DC2C7601CEA6DFA6E8AAF9AA01C09B
:10099000B12C8B2DDF91CF911F910F91FF90EF9094
:1009A000DF90CF90BF9008950F931F93CF93DF9365
:1009B000EC011C820FEF1FEF98010EA71FA728ABB9
:1009C00039ABB5DF811123C0FE01E05DFD4F8081B1
:1009D000918185359A4AE9F4E85CF1404081518182
:1009E000628173817727463451446445710599F0DB
:1009F000CC57DF4F488159816A817B81772781E01D
:100A0000463451446445710539F480E005C083E003
:100A100003C082E001C080E0DF91CF911F910F9170
:100A200008950097C9F0DC01ED91FC911197309782
:100A3000A9F020812223A1F02681378112968D9181
:100A40009C9113972817390769F481810E94B61485
:100A500080FF0AC083E0089589E0089589E0089541
:100A600089E0089589E0089580E008952F923F92EB
:100A70004F925F926F927F928F929F92AF92BF92AE
:100A8000CF92DF92EF92FF920F931F93CF93DF935A
:100A9000CDB7DEB76D97CDBFDEBF6C01CB01B42EF5
:100AA000D6011D921C929EDE7C0199230CF42BC270
:100AB000FC01EE0FFF1FE450FE4D00811181011576
:100AC000110509F422C2F60100831183D8018C912B
:100AD000882369F011968C910E94B61480FD07C09E
:100AE000BB2009F414C282FD14C280E05DC2F8018B
:100AF0001082E1828E2D0E94F91380FD0CC2BB2072
:100B000011F082FD0AC240E050E0BA01C8014CDF9A
:100B1000813009F03FC0F801EC50FE4F7E0121E129
:100B2000E20EF11C9E012F5F3F4FAF01DA018C9165
:100B3000882339F014968D919D910D90BC91A02D34
:100B400003C080E090E0DC01F90181939193A193CF
:100B5000B1939F01405F5F4FEE15FF0539F79E018E
:100B60002F5F3F4F6901D6014D905D906D907D9054
:100B70006D01411451046104710439F0B301A20103
:100B8000C80112DF811102C008C082E0CE14DF0468
:100B900051F703C0412C512C3201833009F4BFC1FD
:100BA0008111BFC1F80185AD96AD8115924009F064
:100BB000BAC1F801E85BFF4FC080D180E12CF12C75
:100BC000C114D104E104F10429F43E96C080D1801F
:100BD000E280F380D8015A96CD92DD92ED92FC929C
:100BE0005D97F801EE5BFF4FA081F801A3838FEFC3
:100BF0008A0F823008F099C1F7ADF98B2F2FF801D9
:100C00002283222309F493C1822F90E09C0121507A
:100C1000310982239323892B09F08BC1ED5BFF4FB0
:100C200020803180F80120863186C1018F7099279C
:100C3000892B09F080C1EB5BFF4F80809180A12C54
:100C4000B12C81149104A104B10429F43D96808053
:100C50009180A280B380F801E05CFF4F0190F081A9
:100C6000E02D309709F469C1B0E0A70196010E9418
:100C7000A41E6A8F7B8F8C8F9D8F9F0140E050E078
:100C80002E8B3F8B488F598FC101929582958F7023
:100C900089279F708927280F391F411D511DDA01AF
:100CA000C9012A8D3B8D4C8D5D8D280F391F4A1F40
:100CB0005B1F2A8B3B8B4C8B5D8B82169306A406A5
:100CC000B50608F43CC1C501B401621B730B840B6B
:100CD000950BE9892E2F30E040E050E00E946D1E18
:100CE000DA01C901211531054105510509F429C170
:100CF000263FFFE03F074105510518F461E0698B8D
:100D000002C0E2E0E98B863F9F4FA105B10508F0E4
:100D100020C149015A0162E0860E911CA11CB11C40
:100D2000D80156968D929D92AD92BC925997F8013A
:100D3000468E578E60A271A28E899F89A88DB98D2B
:100D4000840D951DA61DB71D82A393A3A4A3B5A3CF
:100D50004A895B896C897D89440D551D661D771D07
:100D600042A753A764A775A7F989F330C1F42328D4
:100D700009F0E9C0F801E25AFF4F80819181A28118
:100D8000B381F80186A397A3A0A7B1A7880C991CEB
:100D9000AA1CBB1C880C991CAA1CBB1C2DC0232898
:100DA00009F4D3C02A8D3B8D4C8D5D8D820F931F2E
:100DB000A41FB51FF80186A397A3A0A7B1A7F9891F
:100DC000F23029F4880C991CAA1CBB1C15C0A3E0A6
:100DD000B0E0A50194010E94A41EDC01CB01B695F0
:100DE000A7959795879521E082229924AA24BB2470
:100DF000880E991EAA1EBB1E3FEF830E31E0931E84
:100E0000A11CB11C072E79E0B694A79497948794FF
:100E10007A95D1F7702DC814D904EA04FB0408F4BC
:100E200096C08FEF9FEFDC01F80186879787A08B34
:100E3000B18B82879387A487B58780E88583F989FA
:100E4000F33009F048C0F801EE59FF4F80819181DD
:100E5000019709F040C0B301A2014F5F5F4F6F4F90
:100E60007F4FC80164DD811136C0D80115961C92F0
:100E7000F801E05DFD4F8081918185359A4A59F5F1
:100E8000F80182A993A9A4A9B5A982359245A146E2
:100E9000B14409F5F801EA5EFD4F80819181A2819C
:100EA000B38182379247A144B146A9F43496808138
:100EB0009181A281B381F80186879787A08BB18B3E
:100EC000E25EFD4F80819181A281B381F80182872A
:100ED0009387A487B587E989D801EC938091FA219B
:100EE0009091FB2101968093FA219093FB21169615
:100EF0008D939C93179752961D921D921D921C9252
:100F0000559780E051C08BE04FC08CE04DC080E031
:100F10004BC08AE049C083E047C08AE045C081E019
:100F200043C08DE041C08DE03FC08DE03DC08DE00D
:100F30003BC08DE039C08DE037C08DE035C08DE01D
:100F400033C08DE031C08DE02FC08DE02DC08DE02D
:100F50002BC049015A01B2E08B0E911CA11CB11C9F
:100F6000F801868A978AA08EB18E468E578E60A22F
:100F700071A28E899F89A88DB98D840D951DA61D9E
:100F8000B71D82A393A3A4A3B5A38A899B89AC8927
:100F9000BD89840D951DA61DB71D82A793A7A4A783
:100FA000B5A7F3E0F98BE3CE6D96CDBFDEBFDF9141
:100FB000CF911F910F91FF90EF90DF90CF90BF9056
:100FC000AF909F908F907F906F905F904F903F90E9
:100FD0002F900895EF92FF920F931F93CF93DF937B
:100FE000EC013ADC982F81115BC08881833009F0D5
:100FF0004DC08D81813009F049C040E052E060E091
:1010000070E07E0182E3E80EF11CC701C7DB85E5D5
:101010009AEAFE01E05DFD4F8083918382E592E5CF
:10102000A1E6B1E48AAB9BABACABBDAB82E792E788
:10103000A1E4B1E67A9780839183A283B3838E85FE
:101040009F85A889B989349680839183A283B383CD
:101050008A859B85AC85BD85349680839183A283E8
:10106000B3838E8D9F8DA8A1B9A19C01AD012F5F87
:101070003F4F4F4F5F4F2EA73FA748AB59AB01E003
:1010800010E0B70189810E9411151D8240E050E0F7
:1010900060E089810E94811591E0811101C090E09A
:1010A000892FDF91CF911F910F91FF90EF900895BD
:1010B000CF92DF92EF92FF92FC019A01AB01225096
:1010C000310941095109C688D788E08CF18C82E04A
:1010D000C81AD108E108F1082C153D054E055F0539
:1010E00068F4A281B0E00E94A41EC2A4D3A4E4A428
:1010F000F5A46C0D7D1D8E1D9F1D03C060E070E08A
:10110000CB01FF90EF90DF90CF900895AF92BF9208
:10111000CF92DF92EF92FF920F931F93CF93DF93C3
:10112000EC016A017B01423051056105710508F44B
:10113000AAC04E895F89688D798DC416D506E606EA
:10114000F70608F0A5C08881823009F44BC08330CF
:1011500009F46AC0813009F0A0C086011695079590
:101160000C0D1D1DC801892F992786954AA15BA1E9
:101170006CA17DA1480F591F611D711DCE01D7DBE8
:10118000811190C058018FEFA81AB80A1170FE01A2
:10119000E00FF11F12A9C501892F992786954AA151
:1011A0005BA16CA17DA1480F591F611D711DCE016E
:1011B000BEDB81117BC081E0B822CA0DDB1D8AA98C
:1011C000612F70E0782BC0FE09C0729562956F7038
:1011D00067277F70672780E090E073C07F7080E0B2
:1011E00090E06FC077276F2D5E2D4D2D0AA11BA1BA
:1011F0002CA13DA1400F511F621F731FCE0197DB31
:10120000811158C0CC0CDD1CEE1CFF1CE894C0F80A
:1012100081E0D822EE24FF24FE01EC0DFD1D62A921
:1012200073A980E090E04DC04AA15BA16CA17DA1B3
:1012300097018601689416F83695279517950795B6
:101240001694D1F7400F511F621F731FCE016FDB41
:10125000811134C0CC0CDD1CEE1CFF1CCC0CDD1C41
:10126000EE1CFF1C8CEFC82281E0D822EE24FF2464
:10127000FE01EC0DFD1D82A993A9A4A9B5A9BC018D
:10128000CD019F701EC061E070E080E090E019C069
:1012900061E070E080E090E014C061E070E080E028
:1012A00090E00FC06FEF7FEFCB010BC06FEF7FEFD0
:1012B000CB0107C06FEF7FEFCB0103C06FEF7FEF74
:1012C000CB01DF91CF911F910F91FF90EF90DF90B5
:1012D000CF90BF90AF900895AF92BF92CF92DF9220
:1012E000EF92FF920F931F93CF93DF93EC018B014B
:1012F0006C837D83CE80DF80E884F98481E0C8162A
:10130000D104E104F10409F48AC0E881F9818689F5
:101310009789A08DB18DC816D906EA06FB0608F09C
:1013200080C0C114D104E104F104C1F48081833090
:1013300041F486A197A1A0A5B1A50097A105B1058B
:1013400059F4808591850817190708F06CC066A1CB
:1013500077A180A591A535C06C017D01A28080E1B7
:10136000A89E500111240A151B0530F1B701A601F2
:1013700088819981CBDE6B017C018FEFC816D8067E
:10138000E806F80609F451C082E0C816D104E10469
:10139000F10408F44CC0E881F98186899789A08D11
:1013A000B18DC816D906EA06FB0608F042C00A1934
:1013B0001B090A151B05D0F6B701A6018881998182
:1013C00077DECA86DB86EC86FD86611571058105B0
:1013D000910589F19801329522952F7023273F704E
:1013E0002327DC01CB01820F931FA11DB11D8E8726
:1013F0009F87A88BB98B0F701127C801880F991F81
:1014000082959295907F9827807F9827C296288111
:101410003981820F931F8A8B9B8B80E00DC082E005
:101420000BC082E009C082E007C081E005C082E015
:1014300003C082E001C082E0DF91CF911F910F9144
:10144000FF90EF90DF90CF90BF90AF9008954F92B4
:101450005F926F927F928F929F92AF92BF92CF9244
:10146000DF92EF92FF920F931F93CF93DF93EC01E4
:101470006A017B012801390142305105610571057E
:1014800008F4D7C08E899F89A88DB98D4817590750
:101490006A077B0708F0CFC08881823009F469C0F1
:1014A000833009F48BC0813009F0C7C05A01B6946B
:1014B000A794A40EB51EC501892F992786954AA128
:1014C0005BA16CA17DA1480F591F611D711DCE014B
:1014D0002EDA8111B3C085010F5F1F4FC5019170D6
:1014E0004601570151E085229924AA24BB24C0FE5D
:1014F0000BC0FE01E80FF91F42A94F7050E1459E55
:1015000090011124242B01C0242DFE01E80FF91FA6
:1015100022AB81E08C834AA15BA16CA17DA1C801B3
:10152000892F99278695480F591F611D711DCE017E
:10153000FED9811183C0117089288A288B2849F02F
:10154000689413F876946794579447941694D1F757
:1015500009C0FE01E00FF11F22A9207F952D9F7089
:10156000422E492AFE01E00FF11F42AA91E09C831E
:1015700065C0452F562F672F77278AA19BA1ACA165
:10158000BDA1480F591F6A1F7B1FCE01D0D9811101
:1015900055C0CC0CDD1CEE1CFF1CE894C0F891E09B
:1015A000D922EE24FF2422E3C20ED11CFE01EC0D51
:1015B000FD1D4082518291E09C8340C08AA19BA185
:1015C000ACA1BDA1689416F8769567955795479597
:1015D0001694D1F7480F591F6A1F7B1FCE01A7D958
:1015E00081112CC0CC0CDD1CEE1CFF1CCC0CDD1CB6
:1015F000EE1CFF1C5CEFC52251E0D522EE24FF2437
:1016000092E3C90ED11CFE01EC0DFD1D40815181FC
:1016100062817381442755276627707F442A552AA3
:10162000662A772A408251826282738291E09C838B
:1016300005C082E003C082E001C082E0DF91CF916B
:101640001F910F91FF90EF90DF90CF90BF90AF90E0
:101650009F908F907F906F905F904F9008954F92E2
:101660005F926F927F928F929F92AF92BF92CF9232
:10167000DF92EF92FF920F931F93CF93DF93EC01D2
:101680002A013B01411551056105710599F48A84D0
:101690009B84AC84BD8481149104A104B10429F11C
:1016A0008E899F89A88DB98D88169906AA06BB06D2
:1016B00008F524C02BDD623071058105910508F421
:1016C00096C06F3F2FEF72078207920709F494C00C
:1016D000CE88DF88E88CF98C6C157D058E059F051A
:1016E00008F48EC05301420109C0812C912C540191
:1016F000839404C0812C912C54018394750164015E
:101700008FEFC81AD80AE80AF80A8E899F89A88D2F
:10171000B98DC816D906EA06FB0660F022E08216EB
:101720009104A104B10408F46FC0C12CD12C76013E
:101730006894C1F8B701A601CE01E8DC6115710516
:101740008105910599F06F3F2FEF7207820792078D
:1017500009F45FC0613071058105910509F45DC030
:10176000C814D904EA04FB0459F65BC08C2C9D2CE8
:10177000AE2CBF2C0FEF1FEF2FEF3FE0B701A601FC
:10178000CE0165DE81112CC0411451046104710445
:1017900051F00C2D1D2D2E2D3F2DB301A201CE0198
:1017A00056DE81111DC08A869B86AC86BD868E85DD
:1017B0009F85A889B9898F3F2FEF9207A207B207AB
:1017C000A9F10197A109B1098E879F87A88BB98BD1
:1017D0008D8181608D834C2D3D2D2E2D9F2D2FC011
:1017E000813049F54FEF3FEF2FEF9FEF28C041E0E9
:1017F00030E020E090E023C0462F372F282F1FC075
:10180000462F372F282F1BC040E030E020E090E02B
:1018100016C0462F372F282F12C0462F372F282FBC
:101820000EC040E030E020E090E009C04C2D3D2D9E
:101830002E2D9F2D04C041E030E020E090E0642F89
:10184000732F822FDF91CF911F910F91FF90EF9017
:10185000DF90CF90BF90AF909F908F907F906F90D0
:101860005F904F9008957F928F929F92AF92BF9218
:10187000CF92DF92EF92FF920F931F93CF93DF935C
:10188000EC017B010C811D810F5F1F4F01151105BC
:1018900009F4E4C08E859F85A889B9890097A105C0
:1018A000B10509F4DDC068012FE0C222DD24C114B6
:1018B000D10409F0BCC00196A11DB11D8E879F8780
:1018C000A88BB98B4A855B856C857D854115510553
:1018D0006105710549F4E881F981808591850817D2
:1018E000190708F0BFC0A3C0E881F981828190E0A8
:1018F00001979801329522952F7023273F70232757
:1019000082239323892B09F092C0CF01FFDB4B0187
:101910005C0182E088169104A104B10408F4A4C01B
:10192000EFEF8E169E06AE06BE0609F49FC0E88154
:10193000F98186899789A08DB18D88169906AA06A6
:10194000BB0608F467C0EF2809F492C04A855B859E
:101950006C857D85CF0183DE4B015C0161157105CE
:101960008105910509F486C06130710581059105F5
:1019700009F482C06F3F2FEF72078207920709F4C4
:101980007DC0888199810E942C04811179C0888151
:10199000998140E052E060E070E0C2960E94CE0380
:1019A000E880F980B501A401C70182DBF70166A7D1
:1019B00077A780AB91ABE12CF12C7724739417C0FF
:1019C0007482888199810E942C0481115BC0E88116
:1019D000F98186A597A5A0A9B1A90196A11DB11D60
:1019E00086A797A7A0ABB1ABFFEFEF1AFF0AE8817C
:1019F000F981828190E0E816F90610F386A597A593
:101A0000A0A9B1A98E199F09A109B10986A797A715
:101A1000A0ABB1AB8A869B86AC86BD86B501A4011E
:101A20008881998145DB6E877F87888B998B0C83B2
:101A30001D83CC0CDD1CCC0CDD1CCC0CDD1CCC0CBB
:101A4000DD1CCC0CDD1C22E3C20ED11C88819981E7
:101A5000C80ED91ECA8ADB8A80E015C084E013C094
:101A600084E011C084E00FC082E00DC081E00BC0B3
:101A700084E009C087E007C082E005C081E003C0C0
:101A800081E001C081E0DF91CF911F910F91FF9024
:101A9000EF90DF90CF90BF90AF909F908F907F900E
:101AA00008956F927F928F92AF92BF92CF92DF9202
:101AB000EF92FF920F931F93CF93DF93EC018B0173
:101AC000FB0180818F3211F08C3539F40F5F1F4F8D
:101AD0001E821F82188619860AC0E881F9818289D0
:101AE0009389A489B5898E839F83A887B987F801D4
:101AF0008081803278F00F2EFEE2DF2EF02D0F2E47
:101B0000F5E08F2EF02D0F2EF1E6AF2EF1E2BF2E75
:101B1000F02D07C060E070E0CE01DEDB1A8A1B8A80
:101B20004CC1F8018F0181918F32E1F38C35D1F3F3
:101B3000EC88FD884BE050E060E270E0C7010E9455
:101B4000CE03F80180818E3241F020E030E060E089
:101B500070E088E090E0C12C1FC0F701D082F8014E
:101B600021812E3251F4F701D182F80122812E32E7
:101B700009F40BC183E090E002C082E090E02F32D4
:101B800009F4E7C02C3509F4E4C0213208F0FDC0A7
:101B9000E4C0F7018387FBC0AB014F5F5F4FF801E3
:101BA000E60FF71FB081B13208F4EAC0BF3209F482
:101BB000E2C0BC3509F4DFC0BE3209F4D2C0281738
:101BC000390708F0BEC008C0CC0CCC0CBA0128E024
:101BD00030E08BE090E0E0CFBB231CF4FC2DF36001
:101BE000CF2EEFE7EB0FEF3120F0E0E2EB0FED311E
:101BF00010F56E5F7F4FF801E40FF51FA08140ECF8
:101C00004A0F4F3328F040E84A0F4D3708F0BDC067
:101C1000AC01415051092417350708F0B6C0F7014F
:101C2000E20FF31FB083F9013196EE0DFF1D2E5F19
:101C30003F4FA083B1CF6B2E712C62E26616710408
:101C400009F4A3C0F5016191662309F48EC070E028
:101C500066167706C1F799C0EC2DE260CE2E08C05B
:101C60006FE96B0F6A3120F4FC2DF160CF2EB0527A
:101C7000F701E20FF31FB0832F5F3F4FBA018CCF04
:101C8000232B09F482C0F7012081253E09F48082CC
:101C9000089719F4C52ECC0CCC0C8C2D8370813098
:101CA00009F440618C2D8C70843009F44860F70190
:101CB00043876DC04E855F85688979898881998160
:101CC0000E94970481116AC06A897B89FB01908117
:101CD000992309F46AC0938593FD0FC04C895D89EF
:101CE000DA019B01255F3F4F04C0E217F30709F4B7
:101CF00060C0F1909D91F916C1F360E070E0CE01F3
:101D0000B2DD8823B9F24AC095FF0AC01E821F8245
:101D1000188619861A8A1B8A92FF03CF80E04DC06D
:101D200092FF11C084E049C0FB01838584FF0DC090
:101D3000888199810E94D9036E837F8388879987E0
:101D4000F0CE86E03AC085E038C085E036C086E057
:101D500034C0080F191F80E21CCF080F191F84E23E
:101D600018CF089709F430CFF2CF6FEB6B0F6A31C1
:101D700008F472CF75CF040F151F5C2D40E080CFA3
:101D8000040F151F5C2D44E07BCF86E016C060E099
:101D900070E0CE01A1DA882309F48CCFEC89FD89AB
:101DA0009385843009F4B0CF08C0EC89FD89938510
:101DB000ABCFFA01938592FFB7CFDF91CF911F91FF
:101DC0000F91FF90EF90DF90CF90BF90AF908F90EA
:101DD0007F906F900895EF92FF920F931F93CF9390
:101DE000DF93EC017B0160E070E076DA811121C0C5
:101DF00000E010E04E855F85688979898881998146
:101E00000E949704811115C0EA89FB899081953E53
:101E100011F0911106C00F5F1F4F0E151F0519F429
:101E20000BC000E010E061E070E0CE011CDD882313
:101E300009F3843009F487E0DF91CF911F910F916E
:101E4000FF90EF9008951F93CF93DF93EC0161E033
:101E500070E0C1DF182F81111FC04E855F85688932
:101E60007989888199810E949704182F811114C063
:101E700040E250E060E070E08A899B890E94CE03D6
:101E80006C897D894BE050E08A899B890E949E0382
:101E9000E881F98181E08483812FDF91CF911F91C7
:101EA00008958F929F92AF92BF92CF92DF92EF925E
:101EB000FF920F931F93CF93DF93EC014A015B01D5
:101EC000423051056105710508F44BC04E895F89A8
:101ED000688D798D84169506A606B70608F043C06E
:101EE000B501A401CE0112D96B017C016115710508
:101EF00081059105D1F191E0C916D104E104F10405
:101F0000B1F18FEFC816D806E806F80691F100E0A7
:101F100010E09801B501A401CE0199DA81112AC01F
:101F20004E855F85688979894F3F9FEF590769071B
:101F3000790759F04F5F5F4F6F4F7F4F4E875F8735
:101F4000688B798B9D8191609D834E895F89688DB7
:101F5000798DC416D506E606F70660F446015701EA
:101F6000BFCF82E007C082E005C080E003C082E00E
:101F700001C081E0DF91CF911F910F91FF90EF9011
:101F8000DF90CF90BF90AF909F908F9008951F9358
:101F9000CF93DF93CDB7DEB72697CDBFDEBF8B8360
:101FA0009C836D837E83142F69837A83CE0101968F
:101FB0000E94F203992334F1FC01EE0FFF1FE4505D
:101FC000FE4D0190F081E02D309709F01082EB81F9
:101FD000FC813097E9F010822B813C81FC01EE0FEF
:101FE000FF1FE450FE4D20833183232B69F0113015
:101FF00069F440E0BE016B5F7F4FCE0103960E9403
:1020000036050EC08BE00CC080E00AC080E008C03E
:10201000FC01EE0FFF1FE450FE4D1082118280E0A4
:102020002696CDBFDEBFDF91CF911F9108954F92CD
:102030005F926F927F92BF92CF92DF92EF92FF9268
:102040000F931F93CF93DF93CDB7DEB7A897CDBF84
:10205000DEBF8C016BA37CA3F42E009709F4D2C0E1
:10206000DC011D921C924E71BE016D5D7F4FCE0151
:1020700001960E9436058111D9C0BF2DBF71BB2EBC
:10208000CE0147968D8B9E8B6BA17CA1469709DD77
:10209000CB88DC888111BEC0C114D10409F0B4C062
:1020A000B8C0882371F0843009F0C0C0CE01019619
:1020B000CADEEB2DE860BE2ECB88DC88882349F091
:1020C000B5C0D6011B968C91817109F0A8C0F2FCB5
:1020D000A8C0B3FE55C080E090E0AFE4B5E4F601DF
:1020E00086879787A08BB18B1386148E158E168EDC
:1020F000178EE980FA80B601C7010E94D9032B012F
:102100003C01F601128E138E148A158A81E0D701E4
:1021100014968C931497411451046104710481F155
:102120009E968D919D910D90BC91A02D8DA39EA307
:10213000AFA3B8A7B301A201C701B3DE811176C076
:1021400089819A81B301A201415051096109710944
:10215000FC0142875387648775874DA15EA16FA1FB
:1021600078A50E9497040AC0D6011B968C9184FD25
:102170005AC0F1FE05C080FD58C002C0811156C092
:10218000B3FE03C0BB2DB062BB2EE980FA80F7011D
:1021900086A597A5A0A9B1A9F801828F938FA48FD6
:1021A000B58FC68ED78EB4821582B601C7010E9444
:1021B000D903D8011E966D937D938D939C9351976F
:1021C000F601448D558D668D778D1A964D935D93EE
:1021D0006D937C931D97F8011682178210861186E5
:1021E00056961D921D921D921C925997ED92FC924B
:1021F0001197F7018681978112968D939C9313977F
:1022000080E014C089E012C08F2D8C7109F059CF85
:10221000ABCF86E09F2D9C7109F043CFAFCF87E015
:1022200005C088E003C084E001C087E0A896CDBF68
:10223000DEBFDF91CF911F910F91FF90EF90DF9064
:10224000CF90BF907F906F905F904F9008952F92A6
:102250003F924F925F926F927F928F929F92AF9236
:10226000BF92CF92DF92EF92FF920F931F93CF9383
:10227000DF93EC015B017A016901F901108211829F
:102280000E94110581116AC18D81811167C18C8104
:1022900081FF63C18E819F81A885B985AC01BD0195
:1022A0004E0D5F1D611D711D481759076A077B0799
:1022B00008F43DC1E114F10409F439C18E819F8114
:1022C000A885B985AC01BD01517066277727452BDC
:1022D000462B472B09F0E5C0E881F98112811150A6
:1022E000AC01BD01032E39E076956795579547956A
:1022F0003A95D1F7302D142309F040C0892B8A2B51
:102300008B2B79F46E857F85888999896115710594
:102310008105910591F440E050E0BA01CF019FD9C9
:1023200006C04A895B896C897D89CF0198D961157E
:1023300071058105910509F4FAC0613071058105C7
:10234000910519F482E08D8309C16F3FFFEF7F078C
:102350008F079F0719F481E08D8300C16A8B7B8B07
:102360008C8B9D8B4E845F846888798845284628AD
:10237000472821F46E877F87888B998BE881F981C4
:1023800086A597A5A0A9B1A94E895F89688D798D89
:1023900084179507A607B70741F4CF010E942C04C4
:1023A000882319F081E08D83D9C0288039804A893B
:1023B0005B896C897D89C1010E945808611571058E
:1023C0008105910519F482E08D83C8C02B013C0181
:1023D000410E511C611C711C4701892C9924869463
:1023E0008114910409F43EC0F1014281242F30E0B0
:1023F000C401810F911D2817390718F44901811A6A
:1024000091088401A3019201B501F101818109D3F1
:10241000882319F081E08D83A1C0E881F98186A528
:1024200097A5A0A9B1A984199509A609B709A4017E
:1024300060E070E084179507A607B70778F4982F37
:102440008827990FB501680F791F40E052E0CF014E
:10245000C2960E949E03E881F9811482982C8824F8
:10246000990C4CC04E815F81688579858A859B85F2
:10247000AC85BD85481759076A077B0770F0C10115
:102480000E942C04882319F081E08D8367C0E881C5
:10249000F98146A657A660AA71AA4E8A5F8A688EFD
:1024A000798E8E819F81917020E032E0281B390B5C
:1024B00047012E153F0508F449014E895F89688D53
:1024C000798D888199810E949704882319F081E091
:1024D0008D8344C08E819F81A885B9859170AA277C
:1024E000BB27C29628813981A401B501820F931FB1
:1024F0000E949E03E881F98131E03483A80CB91C65
:102500008E819F81A885B985880D991DA11DB11D5A
:102510008E839F83A887B987F60180819181880D7A
:10252000991D80839183E818F90809F0C7CE8E8140
:102530009F81A885B9854A855B856C857D8548170F
:1025400059076A077B0720F48A879B87AC87BD877A
:102550008C8180628C8380E001C087E0DF91CF9125
:102560001F910F91FF90EF90DF90CF90BF90AF90B1
:102570009F908F907F906F905F904F903F902F90A3
:102580000895CF93DF93EC010E941105811137C0AC
:102590009C8195FF34C04A8D5B8D6C8D7D8D8881CB
:1025A00099810E94970481112AC0EE8DFF8D838549
:1025B000806283874A855B856C857D85448F558FD6
:1025C000668F778F4E855F8568897989428F538FB3
:1025D000648B758B40E050E06FE475E4468B578B5D
:1025E000608F718F128A138A8C818F7D8C83E88132
:1025F000F98181E08483888199810E94EA07DF91D3
:10260000CF910895CF93DF93EC01BBDF811107C019
:10261000CE010E941105811102C018821982DF913A
:10262000CF9108950C94201D089580E1E0E4F6E038
:1026300085838FEFF7CF089580E1E0E4F6E08683AD
:102640008FEFF0DF82E3809301228FEFEBDF8F3F8C
:1026500041F0809101228111F8CFE7DF80E090E026
:10266000089581E090E00895FF920F931F93CF9318
:10267000DF93C82FD42F152F062FF72E88234CF465
:1026800040E050E0BA0187E3EFDF823008F037C066
:10269000CF77CC3019F1C9DFCFDF892BE9F08C2F50
:1026A0008064C0DF8F2DBEDF802FBCDF812FBADFBB
:1026B0008D2FB8DFCC2301F1C830D9F081E0B2DF33
:1026C000CC3011F48FEFAEDFCAE08FEFABDF8823A1
:1026D000B4F4C150D1F713C08FEF11C08CE4A2DF66
:1026E0008F2DA0DF802F9EDF812F9CDF8D2F9ADF23
:1026F000E5CF87E897DFE8CF85E994DFE5CFDF9185
:10270000CF911F910F91FF900895EF92FF920F9339
:102710001F93CF93DF93E82EF92E8B0124E12093B2
:1027200002228FEF7FDF8F3F29F4209102222111B7
:10273000F8CF19C08E3FD1F4CE2DDF2D8FEF0E9440
:10274000201D88838FEF0E94201D8983025011096C
:1027500022960115110591F78FEF64DF8FEF62DF8D
:1027600081E090E005C080E090E002C080E090E071
:10277000DF91CF911F910F91FF90EF9008950F93EC
:102780001F93CF93DF938C01C62F92E39093012286
:102790008FEF48DF8F3F29F0909101229111F8CF00
:1027A0001EC08C2F3FDFCD3FE9F0E8011E5F88811E
:1027B0000E94201D89810E94201D2296C017D107EA
:1027C000B1F78FEF2FDF8FEF2DDF8FEF2BDF282F6C
:1027D0002F7181E090E0253039F080E005C080E085
:1027E00090E002C081E090E0DF91CF911F910F91C6
:1027F0000895EF92FF920F931F93CF93DF9300D032
:1028000000D0CDB7DEB781119CC00E94111D809110
:10281000042081FF03C0809104209EC00E94071DF8
:1028200082ED8093C0081AE08FEFFCDE1150E1F7D3
:1028300040E050E0BA0180E017DF813009F088C045
:1028400084E6809302224AEA51E060E070E088E08A
:102850000BDF813009F03FC07E0185E0E80EF11CFE
:102860008E010F5F1F4F8FEFDDDEF80181938F0127
:10287000EE15FF05C1F78B81813009F069C08C81AD
:102880008A3A09F065C080910222882341F040E035
:1028900050E060E070E489EAE7DE8111F4CF8091D6
:1028A0000222882309F454C040E050E0BA018AE3D0
:1028B000DBDE81114DC08E010F5F1F4F8FEFB2DE47
:1028C000F80181938F01EE16FF06C1F7898186FD1D
:1028D0003AC084E039C040E050E0BA0189EAC4DE81
:1028E000823018F402E019EA02C001E011E0909190
:1028F0000222992339F040E050E0BA01812FB4DE82
:102900008111F5CF80910222882311F140E052E03D
:1029100060E070E080E1A8DE81111AC0009300221F
:1029200084DE002349F0809104208E7F8093042070
:1029300080ED8093C00802C00E94111D8091042088
:102940000BC081E009C08CE0809300226EDEEBCFEB
:10295000109200226ADEF0CF2496CDBFDEBFDF9159
:10296000CF911F910F91FF90EF900895811103C0B7
:1029700080910420089581E00895FF920F931F93A2
:10298000CF93DF93EB01811141C00115110509F4CB
:102990003FC08091042080FD3DC08091002283FDD6
:1029A00009C0012E19E0220F331F441F551F1A952D
:1029B000D1F7102D0230110528F00F2EF2E1FF2E75
:1029C000F02D04C00F2EF1E1FF2EF02DBA01A90168
:1029D0008F2D4ADE811114C060E072E0CE0195DED9
:1029E000892B31F0DE5F0150110901151105A1F7A6
:1029F00082E1F81205C040E050E0BA018CE034DE1C
:102A000014DE81E0012B39F480E005C084E003C0CE
:102A100084E001C083E0DF91CF911F910F91FF907F
:102A20000895CF92DF92EF92FF920F931F93CF936F
:102A3000DF93EB0169017A01811153C00115110582
:102A400009F451C08091042080FD4FC08091042082
:102A500082FD4DC08091002283FD09C00B2EB9E09C
:102A6000CC0CDD1CEE1CFF1CBA95D1F7B02D01304B
:102A7000110589F4B701A60188E1F6DD81112BC0AB
:102A80006EEFCE017CDE31E020E0892B09F030E0F2
:102A9000032F122F20C0867029F0A80160E070E09B
:102AA00087E9E2DDB701A60189E1DEDD811113C00E
:102AB0006CEFCE0164DE892B31F0DE5F015011092D
:102AC00001151105A9F76DEF80E090E058DE892B24
:102AD00011F401E010E0A9DD81E0012B49F480E070
:102AE00007C084E005C084E003C083E001C082E049
:102AF000DF91CF911F910F91FF90EF90DF90CF90DA
:102B00000895EF92FF920F931F93CF93DF93CDB76A
:102B1000DEB76097CDBFDEBF7A01811183C180919E
:102B2000042080FD81C1062F10E00733110508F055
:102B30005FC1F801E250FF4F0C948F1E7DDD11E064
:102B4000892B09F46CC110E06AC140E050E0BA0181
:102B500089E08ADD81114EC160E170E0CE0101960D
:102B6000D4DD892B09F448C18981829586958695A3
:102B70008370813031F588858F7390E0A0E0B0E0FC
:102B8000DC01992788270196A11DB11D298530E018
:102B9000322F22274A85240F311D820F931FA11D3A
:102BA000B11D072E7AE0880F991FAA1FBB1F7A95C7
:102BB000D1F7702DF70180839183A283B38310E056
:102BC0002EC149854295469546954370888550E0CB
:102BD000F4E08F9F400D511D11244F5F5F4F8F8197
:102BE000837090E0982F8827990F990F480F591FED
:102BF00060E070E09E819F708B85881F8827881F0A
:102C0000980F8A858370880F890F87508A019B01EE
:102C100004C0000F111F221F331F8A95D2F7F7013E
:102C2000008311832283338310E0F9C08091002256
:102C300082FF2DC040E050E0BA018DE815DD811122
:102C4000DDC08FEFEFDC60E170E0CE0101965DDD6D
:102C5000892B09F4D5C010E38FEFE4DC1150E1F7C4
:102C60008B8582958F7040E150E060E070E08A01D2
:102C70009B0104C0000F111F221F331F8A95D2F73A
:102C8000F701008311832283338310E0C8C040E042
:102C900050E0BA0189E0E8DC8111B4C060E170E085
:102CA000CE01019632DD892B09F4AEC0809100225D
:102CB00081FF20C08C85881F8827881F90E001969F
:102CC0002B852F73820F911D820F911D2E852295CA
:102CD000269526952370215002C0880F991F2A95AA
:102CE000E2F7A0E0B0E0F70180839183A283B38391
:102CF00010E095C08C85982F93708295869587708B
:102D0000482F50E0F8E09F9F400D511D11244F5F68
:102D10005F4F2B852C7730E0359527953595279596
:102D20002F5F3F4F429FC001439F900D529F900DD8
:102D30001124A0E0B0E0F70180839183A283B383E4
:102D400010E06DC080910022FA01808310E067C01E
:102D500040E050E0BA0189E087DC811157C060E1B2
:102D600070E0C701D2DC11E0892B09F458C010E0F3
:102D700056C040E050E0BA018AE076DC811148C0DC
:102D800060E170E0C701C1DC11E0892B09F447C0A4
:102D900010E045C040E050E0BA018AE365DC8111F3
:102DA00039C08701F4E0EF0EF11C8FEF3BDCF80136
:102DB00081938F01EE15FF05C1F72EC040E050E072
:102DC000BA018DE851DC811129C08FEF2BDC60E462
:102DD00070E0C7019ADC11E0892B09F110E01FC0F7
:102DE00020D68091042081608093042010E017C0D9
:102DF00014E015C011E013C011E011C011E00FC0C4
:102E000011E00DC011E00BC011E009C011E007C0D6
:102E100011E005C011E003C010E001C011E005DCC5
:102E2000812F03C084E001C083E06096CDBFDEBF88
:102E3000DF91CF911F910F91FF90EF9008951F9216
:102E40000F920FB60F9211240BB60F922F933F9350
:102E50004F935F938F939F93AF93BF93EF93FF93A2
:102E6000E0911824F0911924309709F449C0468163
:102E700057812281338180859185DC01A20FB31FA8
:102E8000808191818130910569F018F0029799F065
:102E90001DC041155105A1F18C91415051092F5F81
:102EA0003F4F1DC04230510558F18C91425051099D
:102EB0002E5F3F4F14C04230510510F111968C9196
:102EC0008058425051092E5F3F4F09C04430510590
:102ED000B8F011968C91445051092C5F3F4F4683B6
:102EE000578342855385415051092423352322833A
:102EF000338390E0E0E2F3E0808F918F828F938FB5
:102F0000FF91EF91BF91AF919F918F915F914F9101
:102F10003F912F910F900BBE0F900FBE0F901F90FF
:102F20001895CF93DF9328E0E0E8F6E0218366234D
:102F3000C1F074E041E050E0A8E076832FEF260F67
:102F4000EA0102C0CC0FDD1F2A95E2F79E0128237B
:102F50003923232B11F0A58301C0A683758361500B
:102F600061F788E0E0E8F6E08683DF91CF9108958D
:102F70000F931F93CF93DF9381E0E0E8F6E0868321
:102F800063E085E090E0CDDF67E080E090E0C9DFBE
:102F9000CDE1D4E20DE314E2FE013197808190E0AF
:102FA000982F8827288160E1822BBBDF2296C017EB
:102FB000D10791F781E0E0E8F6E08583DF91CF91DA
:102FC0001F910F910895ECE1F4E28CE394E21192E9
:102FD000E817F907E1F7CCCF08951F93CF93DF935C
:102FE00090E09460C0E8D6E011E01E836CE0880FAA
:102FF000991F97DF1D83DF91CF911F910895CF9384
:10300000C82FE0E8F6E091E09183958394E0918306
:10301000958388E0818381E0E0DF83E0DEDF88E084
:10302000DCDF84E1DADF88E1D8DF8C2FD6DF81EACC
:10303000D4DFCF910895803108F08FE0806ACDCF42
:1030400008953F924F925F926F927F928F929F92DC
:10305000AF92BF92CF92DF92EF92FF920F931F93A6
:10306000CF93DF9300D000D0CDB7DEB78B839C83A6
:1030700029833A834801DC018D919C91841795073F
:1030800008F01DC3FB01E80FF91F1081112309F49B
:1030900019C3C12CD12CAA24AA94BA2C0F2EF3E068
:1030A0003F2EF02D1C3209F409C280F41D3009F4C2
:1030B000F4C228F41950123008F4EFC24CC2103296
:1030C00009F4EBC2123209F4F8C045C21D3509F407
:1030D00071C030F41A3309F4E5C11B3539F03BC235
:1030E0001B3721F01D3709F465C035C2BFEFCB1A7D
:1030F000DB0AE981FA81EF2B09F4CFC2AB81BC81F5
:1031000012968D919C9113978815990508F003C329
:10311000FC0131961296ED93FC931397FC01EE0F90
:10312000FF1FEE0FFF1FEE0FFF1FDF01A81BB90BE4
:10313000E981FA81AE0FBF1F1396AD92BC9214972E
:103140001196AD92BC92129715961D921C921697ED
:10315000109709F4E2C2EB81FC81848195818F3F55
:10316000FFEF9F0799F09C01220F331F220F331F9F
:10317000220F331F281B390B89819A81280F391F91
:10318000F901858196810196858396831B3711F419
:1031900081E001C082E08C93EB81FC818081918190
:1031A00011968D939C9312978281938101978483CA
:1031B000958373C229813A81232B09F46EC21D378E
:1031C00019F47724739403C06894772471F8AB8161
:1031D000BC8112960D911C911397F8013197FF2332
:1031E0000CF4A5C29801220F331F220F331F220FA8
:1031F000331F201B310B2901B7E04B1A51082981DD
:103200003A81420E531ED20111960D911C911297D4
:103210000F3F1F4FE9F0D20113960D911C911497A7
:103220000F3F1F4FA9F4D2012C91721278C2AB81CB
:10323000BC811496AD92BC9215970196D20113965B
:103240008D939C931497EF3FBFEFFB0741F469C246
:10325000319727E0421A5108FF23ACF668C2FF23DA
:103260000CF41BC2CF01880F991F880F991F880F7C
:10327000991F8C010E1B1F0B89819A81080F191F42
:10328000D80111968D919C911297019671F0D801F9
:1032900013968D919C911497019639F4AB81BC8162
:1032A0001496ED93FC931597F8C1319707501109C7
:1032B000EF3FBFEFFB0721F7F0C19C012F5F3F4FAE
:1032C000EB81FC81208331832417350708F0D1C0BE
:1032D000FB01E20FF31FE081EE2309F4CAC0E232E2
:1032E00009F04CC003C0E23209F048C029813A819C
:1032F000232B09F420C2AB81BC8112962D913C9105
:10330000139728153905D8F4F90131961296ED93E3
:10331000FC931397F901EE0FFF1FEE0FFF1FEE0F47
:10332000FF1FE21BF30B29813A81E20FF31FA382F7
:10333000B482A182B28215821682309731F4AB81B9
:10334000BC818D939C938FEFFAC1AB81BC812D9191
:103350003C9130820196818392832383348315824A
:103360001682BFEFCB1ADB0AEB81FC818481958149
:103370008F3FFFEF9F0709F082C08FC1EC3509F046
:1033800065C0F9013196E417F50708F05FC0AB811D
:10339000BC81ED93FC93E60FF71FE0804E2C512C7F
:1033A000D2019297A435B10508F04AC0AB5CBE4F7C
:1033B000FD01B5C4F9013296AB81BC81ED93FC935C
:1033C000E417F507A0F5E60FF71FF080FF2079F16D
:1033D000D90113968B010A0F1B1F3901E6E06E0E0F
:1033E000711C0F2EF0EDEF2EF02DEF0CF9E0FE1515
:1033F00070F42F2D2F7DF22E3FEBF30EE5E0EF154D
:1034000030F4AB81BC818D939C938EEF98C1EB819E
:10341000FC81A083B183A615B70549F0A417B507B1
:1034200031F0F801F1908F011196F110DACFAB81F4
:10343000BC81ED91FC9111973197ED93FC9306C0FF
:10344000EB81FC81808391838EEF79C1AB81BC815C
:10345000ED91FC9111979F012F5F3F4F2D933C936E
:103460002417350730F4FB01E20FF31FE081E1116F
:103470003ACFEB81FC81808391838DEF60C1FC01A9
:10348000EE0FFF1FEE0FFF1FEE0FFF1FE81BF90BE4
:1034900029813A81E20FF31F858196810196858308
:1034A0009683FBC0AB81BC8112968D919C91139742
:1034B000019714968D939C931597EFC0E981FA813B
:1034C000EF2B09F4EAC0AB81BC8114968D919C91DD
:1034D0001597FC01EE0FFF1FEE0FFF1FEE0FFF1FF2
:1034E000E81BF90B29813A81E20FF31F808181509B
:1034F000823008F4D2C012962D913C911397C901E5
:10350000019799230CF4C9C0F901EE0FFF1FEE0FCC
:10351000FF1FEE0FFF1FE21BF30B3797A981BA8144
:10352000EA0FFB1F10811150123080F401811281CB
:103530000F3F1F4F59F0A381B481119639F4AB812D
:10354000BC8114968D939C931597A7C001973797CC
:10355000992344F7A2C0AB81BC81ED91FC91E417A3
:10356000F507A8F5DB01AE0FBF1F1C91112379F100
:10357000DF0111969D01260F371F103241F138F4FB
:10358000193078F01B3018F11D3059F420C01A336F
:10359000F1F018F41C3229F41AC01D35C1F01D37A2
:1035A000B1F010521F3530F0EB81FC8180839183A4
:1035B0008EEFC5C03196AB81BC81ED93FC93E417CF
:1035C000F50728F4D9011D919D011111D6CF29814C
:1035D0003A81232B49F43197AB81BC81ED93FC9365
:1035E000BFEFCB1ADB0A59C0EB81FC81228133810A
:1035F00028153905E8F4F9013196AB81BC811296A2
:10360000ED93FC931397F901EE0FFF1FEE0FFF1FD1
:10361000EE0FFF1FE21BF30B29813A81E20FF31F2C
:10362000A382B482A182B28215821682309731F4CD
:10363000AB81BC818D939C938FEF81C0AB81BC81AA
:103640002D913C911197108281839283238334833F
:10365000158216828D919C91119701978D939C9361
:10366000BFEFCB1ADB0AEB81FC81848195818F3F10
:10367000FFEF9F0791F0FC01EE0FFF1FEE0FFF1F02
:10368000EE0FFF1FE81BF90B29813A81E20FF31FB0
:1036900085819681019685839683AB81BC818D91CE
:1036A0009C91119701968D939C938417950760F4D4
:1036B000FB01E80FF91F10811111F4CC05C0C12CDA
:1036C000D12C02C0C12CD12CEB81FC8142815381D1
:1036D000CA0101979923ECF0FA01EE0FFF1FEE0FDC
:1036E000FF1FEE0FFF1FE41BF50B29813A812E0F00
:1036F0003F1FF9013697208131812F3F3F4F29F03D
:10370000228133812F3F3F4F71F0019737979923E3
:1037100094F78C2D14C08FEF12C08FEF10C08EEF76
:103720000EC08EEF0CC08DEF0AC08EEF08C0319630
:1037300009F0B3CFFACFEFEFCE1ADE0AAECF249660
:10374000CDBFDEBFDF91CF911F910F91FF90EF9022
:10375000DF90CF90BF90AF909F908F907F906F90B1
:103760005F904F903F900895FC0110821182128269
:1037700013828FEF9FEF848395830895CF93DF9318
:1037800000D0CDB7DEB740E060E571E28CE494E2B2
:103790000E94C70F4AE062ED71E28EE79EE20E944E
:1037A000171081110FC09E012F5F3F4F4BE050E07B
:1037B0006FED71E28EE79EE20E9427118EE79EE296
:1037C0000E9402130F900F90DF91CF910895CF9335
:1037D000DF93EB01DFD2009791F0FE010190002012
:1037E000E9F73197BF016C1B7D0B680F791FFB0157
:1037F00001900020E9F7AF01461B570BAFD2DF91D4
:10380000CF910895CF93DF93CDB7DEB7C25CD2409E
:10381000CDBFDEBF0E94A90184E2F1DB80E00BDCBA
:10382000D2DB2CD287E0E0EAF0E0828313D162D0D1
:1038300091D0CE01019698DF85E090E28093A52E8D
:103840009093A62E8093A72E9093A82E97DF8AE5BB
:1038500090E0C2D178940E9459030E94B7012AEAED
:1038600036EE86E991E02150304080409040D9F713
:1038700000000E946A036BE770E085E092E27FD26D
:103880007C016DE770E07BD2BC016F5F7F4FC701A9
:103890009EDF8BEE91E298D2C70196D2F70101909C
:1038A0000020E9F73197AF014E195F0904E610E0F7
:1038B0009E01295F3F4FB701CE010196C2DB80EF29
:1038C00091E282D2FFCF1F920F920FB60F92112476
:1038D0008F939F938091032290910422019680936D
:1038E0000322909304229F918F910F900FBE0F900F
:1038F0001F90189580EEE0E0F6E0828381E0E0E240
:10390000F6E0828308951F920F920FB60F92112452
:103910000BB60F922F933F934F935F936F937F93C9
:103920008F939F93AF93BF93EF93FF934CDBFF91E4
:10393000EF91BF91AF919F918F917F916F915F9127
:103940004F913F912F910F900BBE0F900FBE0F9094
:103950001F90189588ED84BF8BE0E0E4F0E083834E
:10396000E0E0F4E0818180FDFDCFE0E0F4E084E67A
:1039700090E08287938782E0828310861186148686
:10398000158681E0808308951F920F920FB60F92E3
:1039900011240BB60F922F933F934F938F939F93C6
:1039A000AF93BF93EF93FF93AEE9BEE24C914F5FAD
:1039B00099E8499F312D1124329536953770EFE9FA
:1039C000FEE22081230F8CE3389F401911244C9391
:1039D000A0EABEE2299F912D1124929596959770A9
:1039E0003C91390F3C93989F201911242083FF911B
:1039F000EF91BF91AF919F918F914F913F912F91F7
:103A00000F900BBE0F900FBE0F901F901895E0E423
:103A1000F6E080EB818380E1858380ED8093C008B0
:103A20000895E0ECF8E080818F7B8083E0E4F6E0AD
:103A300080EB828388E1848B858B868B878B0895CE
:103A4000E0ECF8E0838382818823ECF7E0ECF8E097
:103A500083810895E0E8F4E081E0828392E3958336
:103A600098E0918384830895880FE0E8F4E08683EA
:103A7000848186FFFDCFE0E8F4E06783848186FFE0
:103A8000FDCFE0E8F4E04783848186FFFDCF83E04B
:103A9000E0E8F4E0838380E00895982F990FE0E850
:103AA000F4E09683948196FFFDCFE0E8F4E067832D
:103AB000948196FFFDCF880F8160E0E8F4E0868373
:103AC00084818823ECF7E0E8F4E0878193819460B7
:103AD0009383E9EFF0E03197F1F700C0000093E045
:103AE000E0E8F4E093830895DF92EF92FF920F9362
:103AF0001F93CF93DF93EC01D62E60E2B4D08C01FC
:103B0000992334F160E3CE01AED08130910581F18B
:103B10009923C4F739C060E2CE01A5D08017910780
:103B200051F199238CF18C01EDCF78014D2D68E195
:103B3000CE0195D09C01009769F4DD2069F060E228
:103B4000CE0191D08E159F0551F41123C4F70AC000
:103B5000912F1AC0932F18C080E090E015C080E02C
:103B600090E012C0802F912F0FC0822F932F0CC096
:103B7000D110D1CFDACF78014D2D68E1CE016FD0D1
:103B80009C010097E1F2F1CFDF91CF911F910F914E
:103B9000FF90EF90DF90089560E0A6CF0895CF9357
:103BA000DF93EC0160E2CE015ED0892B19F0CE01EB
:103BB000F3DFF8CF6BE0CE0197DF60E2CE0153D0A8
:103BC000892BD9F360E2CE014ED0019759F780E0FE
:103BD00090E0DF91CF9108950F931F93CF93DF93E0
:103BE000EC0140E068E03BD08C01CE01D8DF080F4B
:103BF000191F40E068E0CE0132D0080F191F40E0E5
:103C000064E0CE012CD0080F191F40E065E0CE0122
:103C100026D0080F191F40E066E0CE0120D0080F23
:103C2000191F40E063E0CE011AD0080F191F4FEFB3
:103C300061E2CE0114D0080F191F41E068E1CE0106
:103C40000ED0080F191F13D047E167E0CE0107D04F
:103C5000800F911FDF91CF911F910F9108958AE5F9
:103C600003DF90E008958AE518DF90E0089583EC83
:103C700099E00197F1F700C000000895E0E6F6E052
:103C800088E0818384E08283E0EAF9E080E2838354
:103C90008FEC868383E0858388E184830895E0EA5E
:103CA000F9E0918195FFFDCF8093A009089589EBFC
:103CB0009BE0E0EAF9E009C0AFE3BFE11197F1F75B
:103CC00000C000000197009731F021812223A4F762
:103CD0008091A009089583E00895A1E21A2EAA1BFD
:103CE000BB1BFD010DC0AA1FBB1FEE1FFF1FA217AC
:103CF000B307E407F50720F0A21BB30BE40BF50BA9
:103D0000661F771F881F991F1A9469F76095709531
:103D1000809590959B01AC01BD01CF010895EE0FF8
:103D2000FF1F0590F491E02D0994A29FB001B39F6D
:103D3000C001A39F700D811D1124911DB29F700DB4
:103D4000811D1124911D0895F0DFA59F900DB49F52
:103D5000900DA49F800D911D112408956817790777
:103D600068F4FB01DC01E40FF51FA40FB51F02C0CE
:103D700002900E9241505040D8F7089552C0FC0175
:103D80008191861721F08823D9F7992708953197D3
:103D9000CF010895FB0151915523A9F0BF01DC012A
:103DA0004D9145174111E1F759F4CD0101900020E3
:103DB00049F04D9140154111C9F3FB014111EFCF7D
:103DC00081E090E0019708950F931F93CF93DF93C5
:103DD000E091A72EF091A82E238121FF1BC0EC01BA
:103DE00000E010E089916091A72E7091A82EDB0170
:103DF0001896ED91FC911997882331F00995892B3C
:103E000089F30FEF1FEFEECF8AE00995892B11F4AC
:103E1000C80102C08FEF9FEFDF91CF911F910F91EB
:103E20000895FB01DC0102C001900D924150504009
:083E3000D8F70895F894FFCFC4
:103E3800010000000100000002000000004F1E57B2
:103E48001E000041542B5253540041542B43574DEC
:103E58004F44453D320041542B434946535200419B
:103E6800542B4349504D55583D310041542B43493B
:103E7800505345525645523D312C38300041542B51
:103E88004349504D4F44453D300041542B43495020
:103E98004D55583D300041542B43574D4F44453DF7
:103EA800310041542B43574A41503D2200496E741A
:103EB800656E6F5F36380041323641343131353600
:103EC800380041542B43574A41503D3F0041542B41
:103ED80043495053544152543D22544350222C22BA
:103EE800006170692E7468696E67737065616B2E06
:103EF800636F6D00222C38300041542B43495053D6
:103F0800454E443D3131300D00474554200068741A
:103F180074703A2F2F6170692E7468696E677370B8
:103F280065616B2E636F6D2F6368616E6E656C7370
:103F38002F32333634332F666565642E6A736F6E9D
:103F48003F6B65793D423438424542494E53584BA0
:103F5800524A52494E0020485454502F312E3000B6
:103F680053454E44204F4B0020485454502F312E77
:103F7800300D0A486F73743A20000D0A0D0A0D0AB5
:103F88000041542B43495053454E443D002564009D
:103F9800222A2B2C3A3B3C3D3E3F5B5D7C7F002236
:103FA8002A2B2C2E3A3B3C3D3E3F5B5D7C7F00EB51
:103FB800FE904D53444F53352E30004E4F204E4106
:103FC8004D45202020204641543332202020004EE9
:103FD8004F204E414D45202020204641542020208E
:103FE8002020006A6F686E332E776176002A2A2AAD
:103FF8002A2057415620504C41594552202A2A2AF6
:104008002A006E657766696C65612E74787400495C
:104018007420776F726B73210D0A00444F4E450070
:06402800646F6E650000EC
:00000001FF
