:1000000026C700005AC7000058C7000056C70000A6
:1000100054C7000052C700005FC700004EC7000071
:100020004CC700004AC700000C94B51346C7000037
:1000300044C7000042C700000C94381F3EC70000B0
:100040000C94D6373AC7000038C7000036C7000006
:100050000C94801732C7000030C700002EC7000084
:100060002CC700002AC7000028C7000026C70000D0
:1000700024C7000022C7000020C700001EC70000E0
:100080001CC700001AC700000C94681216C70000B5
:1000900014C7000012C7000010C700000EC7000000
:1000A0000CC700000AC7000008C7000006C7000010
:1000B00004C7000002C7000000C70000FEC6000021
:1000C000FCC60000FAC60000F8C60000F6C6000034
:1000D000F4C60000F2C60000F0C60000EEC6000044
:1000E000ECC60000EAC60000E8C60000E6C6000054
:1000F000E4C60000E2C60000E0C60000DEC6000064
:10010000DCC60000DAC600000C943F120C949F126B
:10011000D4C60000D2C60000D0C60000CEC6000083
:10012000CCC60000CAC60000C8C60000C6C6000093
:10013000C4C60000C2C60000C0C60000BEC60000A3
:10014000BCC60000BAC60000B8C60000B6C60000B3
:10015000B4C60000B2C60000B0C60000AEC60000C3
:100160000C94830CAAC60000A8C60000A6C6000016
:10017000A4C60000A2C60000A0C600009EC60000E3
:100180009CC600009AC6000098C6000096C60000F3
:1001900094C6000092C6000090C600008EC6000003
:1001A0008CC600008AC6000088C6000086C6000013
:1001B00084C6000082C6000080C600007EC6000023
:1001C0007CC600007AC6000078C6000076C6000033
:1001D00074C6000072C6000070C600006EC6000043
:1001E0006CC600006AC6000068C6000066C6000053
:1001F00064C6000062C6000060C60000B821B221DB
:10020000B221B221B221B221B221B221B221B22156
:10021000B221B221B221B821B221B221B221B22140
:10022000B221B221B221B221B221B221B221B22136
:10023000B221B221B221B221B221B221B221B22126
:10024000B221B221B221B221B221B221B221B22116
:10025000B221B221B221B221B221B221B221B22106
:10026000B221B221B221B221B221B221B221B221F6
:10027000B821B221B221B221B221B221B821B221DA
:10028000B221B221B821B221B221B221B221B221D0
:10029000B221B221B821B221B221B221B821B221BA
:1002A000B8216C2150365A364B3655365F36643697
:1002B00069369136BA368A369536BE36C436CB366E
:1002C000243727372A372D37303733373637173823
:1002D0001A3807380A380D381038133847384A3872
:1002E00028382B382E383138343837383A383D38BA
:1002F0004038433893388D3893389538933895384B
:100300009338933895389338953893380000000027
:1003100000002050705020002070507020000050CD
:10032000707020000020707020002070702070001D
:10033000202070207000000020000000F0F0D0F0BD
:10034000F0F0007050700000F080A080F0F00030FD
:1003500010606000205020702000203020206000BD
:1003600020305010200020705070200040607060DD
:10037000400010307030100020702070200050506D
:100380005000500070D0D0505000306050306000AD
:10039000000000007000207020702070207020206D
:1003A00020002020207020000020F02000000040CD
:1003B000F04000000000407000000050705000004D
:1003C000002070700000007070200000000000002D
:1003D000000020202000200050500000000050703D
:1003E00050705000203060306020401020401000DD
:1003F000205030507000604000000000204040401D
:10040000200040202020400050207020500000207C
:10041000702000000000000060400000700000003C
:1004200000000000200010102040400020505050DC
:1004300020002060202070006010204070006010BC
:1004400020106000105070101000704060106000AC
:10045000204060502000701030202000205020509C
:10046000200020503010200000002000200000005C
:10047000200060401020402010000000700070003C
:10048000402010204000601020002000705050409C
:10049000700020507050500060506050600030403C
:1004A000404030006050505060007040604070002C
:1004B000704060404000304050503000505070500C
:1004C000500070202020700010101050200050505C
:1004D00060505000404040407000507070505000DC
:1004E000605050505000705050507000605060404C
:1004F000400020505070300060506050500030403C
:10050000701060007020202020005050505070006B
:10051000505050502000505070705000505020509B
:10052000500050502020200070102040700060408B
:1005300040406000404020101000602020206000FB
:100540002050000000000000000000F060200000CB
:10055000000000003050700040406050600000001B
:10056000304030001010305030000000706030001B
:10057000102070202000000070501070404060502B
:10058000500020002020200020002020206040403B
:10059000506050002020202020000000707050008B
:1005A000000060505000000020502000000060500B
:1005B00060400000305030100000604040000000FB
:1005C000302060000020702030000000505070008B
:1005D00000005050200000005070700000005020BB
:1005E00050000000505020400000602030003020BB
:1005F000602030002020202020006020302060007B
:1006000050A00000000000205070000030404070FA
:1006100020405000505030001020706030002050BA
:10062000305070005000305070004020305070004A
:1006300020003050700000704070206020507060CA
:10064000300050007060300040207060300050007A
:1006500020202000205000202000402000202000EA
:1006600050205070500020205070500010207060BA
:1006700070000000307060003060706070002050CA
:10068000205020005000205020004020205020000A
:1006900020500050700040205050700050005050CA
:1006A00020405020505020005000505070002070CA
:1006B00040702000102070207000507020702000CA
:1006C000006060505000302030206000102030501A
:1006D00070001020002020001020705070001020AA
:1006E000005070007000705050007000507050004A
:1006F000305070007000205020007000200020401A
:10070000300000704040000000E020200000405019
:100710002050300040502070100020002020200089
:100720000050A050000000A050A000004010401059
:10073000401050A050A050A0B0E0B0E0B0E02020A9
:10074000202020202020E020202020E020E0202069
:100750005050D05050500000F050505000E020E079
:10076000202050D010D0505050505050505000F0D9
:1007700010D0505050D010F000005050F000000049
:1007800020E020E000000000E020202020203000B9
:1007900000002020F00000000000F0202020202099
:1007A000302020200000F00000002020F020202039
:1007B0002030203020205050505050505050407029
:1007C000000000704050505050D000F0000000F089
:1007D00000D0505050504050505000F000F00000F9
:1007E00050D000D0505020F000F000005050F000E9
:1007F000000000F000F020200000F0505050505059
:100800007000000020302030000000302030202018
:100810000000705050505050D050505020F000F018
:1008200020202020E0000000000030202020F0F0F8
:10083000F0F0F0F0000000F0F0F0C0C0C0C0C0C0A8
:10084000303030303030F0F0F000000000007060E8
:100850007000205060506040705040404000705028
:100860005050500070402040700000003050200078
:100870000000505070400010602020007020502078
:100880007000205070502000002050505000304028
:100890002050200000007050700020705070200028
:1008A00030407040300020505050500070007000B8
:1008B00070002070200070006010600070003040F8
:1008C0003000700000102020202020202020400038
:1008D0002000700020000050A050A00020502000F8
:1008E00000000020702000000000200000003020E8
:1008F0002060200070505000000060204060000028
:100900000000606000000000000000000000000027
:10091000003E5B4F5B3E3E6B4F6B3E1C3E7C3E1C85
:10092000183C7E3C181C577D571C1C5E7F5E1C00CB
:10093000183C1800FFE7C3E7FF0018241800FFE782
:10094000DBE7FF30483A060E2629792926407F0545
:100950000507407F05253F5A3CE73C5A7F3E1C1C5B
:1009600008081C1C3E7F14227F22145F5F005F5F1B
:1009700006097F017F006689956A60606060609407
:10098000A2FFA29408047E040810207E201008080C
:100990002A1C08081C2A08081E101010100C1E0C17
:1009A0001E0C30383E3830060E3E0E0600000000A9
:1009B0000000005F00000007000700147F147F1490
:1009C000242A7F2A122313086462364956205000D5
:1009D00008070300001C2241000041221C002A1CC1
:1009E0007F1C2A08083E08080080703000080808AC
:1009F0000808000060600020100804023E514945CC
:100A00003E00427F400072494949462141494D33E9
:100A10001814127F1027454545393C4A4949310190
:100A2000017109073649494936464949291E0000DE
:100A30001400000040340000000814224114141473
:100A40001414004122140802015909063E415D595F
:100A50004E7C1211127C7F494949363E4141412268
:100A60007F4141413E7F494949417F090909013E92
:100A7000414151737F0808087F00417F41002040B9
:100A8000413F017F081422417F404040407F021CCB
:100A9000027F7F0408107F3E4141413E7F090909E2
:100AA000063E4151215E7F091929462649494932AE
:100AB00003017F01033F4040403F1F2040201F3F74
:100AC0004038403F631408146303047804036159F9
:100AD000494D43007F41414102040810200041413B
:100AE000417F0402010204404040404000030708E7
:100AF0000020545478407F284444383844444428E3
:100B0000384444287F385454541800087E09021889
:100B1000A4A49C787F0804047800447D4000204011
:100B2000403D007F1028440000417F40007C047855
:100B300004787C080404783844444438FC1824249D
:100B40001818242418FC7C0804040848545454241D
:100B500004043F44243C4040207C1C2040201C3C9A
:100B60004030403C44281028444C9090907C446491
:100B7000544C440008364100000077000000413624
:100B8000080002010204023C2623263C1EA1A161AA
:100B9000123A4040207A38545455592155557941DC
:100BA0002154547841215554784020545579400CB3
:100BB0001E52721239555555593954545459395594
:100BC0005454580000457C410002457D42000145D7
:100BD0007C40F0292429F0F0282528F07C54554544
:100BE000002054547C547C0A097F493249494932D7
:100BF0003248484832324A4848303A4141217A3AEC
:100C000042402078009DA0A07D39444444393D40B5
:100C100040403D3C24FF2424487E4943662B2FFC62
:100C20002F2BFF0929F620C0887E09032054547910
:100C3000410000447D413048484A32384040227AE1
:100C4000007A0A0A727D0D19317D2629292F28265E
:100C50002929292630484D40203808080808080866
:100C60000808382F10C8ACBA2F102834FA00007BBF
:100C7000000008142A142222142A1408AA0055007D
:100C8000AAAA55AA55AA000000FF00101010FF00E4
:100C9000141414FF001010FF00FF1010F010F014D7
:100CA0001414FC001414F700FF0000FF00FF1414DC
:100CB000F404FC141417101F10101F101F14141428
:100CC0001F00101010F0000000001F101010101F67
:100CD00010101010F010000000FF10101010101075
:100CE000101010FF10000000FF140000FF00FF00B4
:100CF000001F10170000FC04F4141417101714142C
:100D0000F404F40000FF00F714141414141414F77E
:100D100000F7141414171410101F101F141414F4D7
:100D2000141010F010F000001F101F0000001F141E
:100D3000000000FC140000F010F01010FF10FF1471
:100D40001414FF141010101F00000000F010FFFF1B
:100D5000FFFFFFF0F0F0F0F0FFFFFF0000000000E9
:100D6000FFFF0F0F0F0F0F38444438447C2A2A3EF0
:100D7000147E02020606027E027E0263554941632A
:100D80003844443C04407E201E2006027E02029924
:100D9000A5E7A5991C2A492A1C4C7201724C304ABD
:100DA0004D4D303048784830BC625A463D3E494946
:100DB00049007E0101017E2A2A2A2A2A44445F44EE
:100DC0004440514A444040444A51400000FF01031E
:100DD000E080FF000008086B6B08361236243606E8
:100DE0000F090F0600001818000000101000304016
:100DF000FF0101001F01011E00191D1712003C3CDC
:100E00003C3C00000000004E414E494E49545949B7
:100E10004E46CDCCCC3D0AD7233C17B7D13877CC42
:100E20002B329595E6241FB14F0A000020410000A7
:100E3000C84200401C4620BCBE4CCA1B0E5AAEC560
:100E40009D746364696E6F70737578585B00ECEC29
:100E5000FBE2E370FF27E453F44D2FEF3FE22C7FDA
:100E6000E217F30758F48EED9DEAAEEBBFEE8193E7
:100E70009193A193B193E217F307C8F311241FBE16
:100E8000CFEFCDBFDFE2DEBF18E2A0E0B0E2E4E5E5
:100E9000F9E800E00BBF02C007900D92A838B10737
:100EA000D9F72BE2A8E8B8E201C01D92AC3CB2072A
:100EB000E1F70E9495230C94A844A2C8E0E5F0E075
:100EC000808182608083818181FFFDCF88ED84BF36
:100ED00081E08093400008951F920F920FB60F9209
:100EE00011240BB60F928F93EF93FF93E0E0F1E0A4
:100EF000818985FF06C081898062818B1092A12A39
:100F000008C0E0E0F1E081898061818B81E080931D
:100F1000A12A81E08093A22AFF91EF918F910F90F7
:100F20000BBE0F900FBE0F901F901895E0ECF1E0F4
:100F300087858823ECF30895F9DFE0ECF1E08785FD
:100F400081FF10C086E38287EF93FF930F932F9367
:100F5000EBECF1E008ED21E004BF20832F910F912D
:100F6000FF91EF9108951F93CF93DF93182FD62F02
:100F7000C42FE2DFE0ECF1E083E3828720E2129FFE
:100F8000C0011124DF718D2B8083892F8F718183A4
:100F90001282C48385E38287EF93FF930F932F938D
:100FA000EBECF1E008ED21E004BF20832F910F91DD
:100FB000FF91EF91DF91CF911F910895B7DF80E30B
:100FC000E0ECF1E08287EF93FF930F932F93EBEC2C
:100FD000F1E008ED21E004BF20832F910F91FF91F4
:100FE000EF910895AF92BF92CF92DF92EF92FF926E
:100FF0000F931F93CF93DF93CDB7DEB7C558D109B9
:10100000CDBFDEBF99DFE0ECF1E08485877F848788
:1010100085E8E8EBF9E29E012F5F3F4FD90101908F
:101020000D928A95E1F76901A12C7901E094F09481
:1010300017C0F80141918F016B2D8A2D94DF970124
:10104000200F311F2538310520F4B394F0E2BF1290
:10105000F0CF80E2C80ED11CA394E5E0AE1619F0E3
:101060008601B12CE6CF81E0CB57DF4FCDBFDEBF8D
:10107000DF91CF911F910F91FF90EF90DF90CF9074
:10108000BF90AF900895E0E6F6E080E2818385832B
:101090002FEF83EC99E0215080409040E1F700C0B1
:1010A0000000089580E2E0E6F6E086830895CF939D
:1010B00089E08093762B86ED90E20E94261F2FEF29
:1010C0008FE493EC215080409040E1F700C0000095
:1010D0008091762B8130D9F589E08093762B8DED48
:1010E00090E20E94261F2FEF81EE94E02150804075
:1010F0009040E1F700C000008091762B813039F5F7
:1011000089E08093762B8AEE90E20E94261F2FEFD3
:1011100081EE94E0215080409040E1F700C0000053
:10112000C091762BC13091F489E08093762B86EFC5
:1011300090E20E94261F2FEF81EE94E02150804024
:101140009040E1F700C000008C2F01C08C2FCF91A0
:101150000895EF92FF920F931F93CF93DF93CDB734
:10116000DEB7C456D109CDBFDEBF7B012BE0E8E17D
:10117000F1E28E010F5F1F4FD80101900D922A9569
:10118000E1F7BC01C8010E94FE3DF801019000207A
:10119000E9F7319742E25CE262E270E0408351831A
:1011A00062837383B701C8010E94FE3DF80101907C
:1011B0000020E9F7319782E290E08083918389E013
:1011C0008093762BC8010E94261F2FEF43EC89E005
:1011D000215040408040E1F700C0000028E930E0A5
:1011E00012C09FEF47E883E1915040408040E1F713
:1011F00000C00000215031092115310549F08091CE
:10120000762B882331F08091762B813051F701C005
:1012100083E0CC59DF4FCDBFDEBFDF91CF911F916F
:101220000F91FF90EF9008958F929F92BF92CF926F
:10123000DF92EF92FF920F931F93CF93DF93CDB77F
:10124000DEB7C659D109CDBFDEBF6B017A01B22E20
:1012500024E1E3E2F1E28E010F5F1F4FD80101901C
:101260000D922A95E1F7BC01C8010E94FE3DD8010C
:101270000D900020E9F7119785E0E7E3F1E2019096
:101280000D928A95E1F789E08093762BC8010E9440
:10129000261F2FEF83ED90E3215080409040E1F72F
:1012A00000C000008091762B813009F0C2C0F601A9
:1012B00001900020E9F7CF018C199D094AE050E028
:1012C000812C912CB40148960E94443E8CE0ECE3C2
:1012D000F1E2D80101900D928A95E1F7B401C801BD
:1012E0000E94FE3DF80101900020E9F731978DE062
:1012F00090E08083918389E08093762BC8010E94DF
:10130000261FAFEFB1EE24E0A150B0402040E1F73E
:1013100000C0000085E0E8E4F1E2D80101900D9200
:101320008A95E1F7B601C8010E94FE3DD8010D90F3
:101330000020E9F711978CE0EDE4F1E201900D92C5
:101340008A95E1F789E08093762BC8010E94261FD9
:101350008FEF91EEA4E081509040A040E1F700C0F3
:10136000000000E010E00F2EF9E0DF2EF02D19C094
:10137000D092762B89EB93E20E94261FBFEF29E6DD
:1013800088E1B15020408040E1F700C000000F5FCD
:101390001F4F023F110509F449C08091762B882325
:1013A000B9F08091762B813019F712C09FEFA9E632
:1013B000B8E19150A040B040E1F700C00000013F0B
:1013C0001105B0F50F5F1F4F8091762B882321F018
:1013D0008091762B863051F7809166298823A1F081
:1013E0004B2D50E068E878E2C7010E941B3E8CED6F
:1013F000E8E8F8E2DF011D928A95E9F71092662984
:10140000109264291092652989E08093762B89E5F2
:1014100091E20E94261FBFEF21EE84E0B1502040F0
:101420008040E1F700C0000081E003C083E001C01C
:1014300083E0CA56DF4FCDBFDEBFDF91CF911F9152
:101440000F91FF90EF90DF90CF90BF909F908F9083
:101450000895CF93DF93C82FD62F99E09093762BE2
:1014600085E691E20E94261F2FEF87EA91E6215040
:1014700080409040E1F700C000009091762B9130C1
:1014800009F08CC089E08093762B8DED90E20E946C
:10149000261F2FEF83EC99E0215080409040E1F728
:1014A00000C000008091762B813009F07AC0CC23F7
:1014B000B1F089E08093762B86EF90E20E94261FA0
:1014C0002FEF87E893E1215080409040E1F700C082
:1014D00000008091762B813009F063C019C0DD23B4
:1014E00009F45EC089E08093762B8DE691E20E943C
:1014F000261F2FEF87E893E1215080409040E1F7CD
:1015000000C000008091762B813009F04AC005C0F0
:1015100061E17AE285E29AE21CDE89E08093762B33
:1015200089E791E20E94261F2FEF83EC99E021507A
:1015300080409040E1F700C000008091762B813020
:1015400081F560E070E08FE29BE20E94562689E020
:101550008093762B82E891E20E94261F2FEF83EC86
:1015600099E0215080409040E1F700C00000809158
:10157000762B8130B1F489E08093762B8EE891E26E
:101580000E94261F2FEF83EC99E02150804090406D
:10159000E1F700C000008091762B03C0892F01C0C5
:1015A00080E0DF91CF910895AF92BF92CF92DF920A
:1015B000EF92FF920F931F93CF93DF93CDB7DEB7D8
:1015C000E797CDBFDEBF8091762B873009F09EC0B4
:1015D000109106204AE050E0BE016D5C7F4F87EB22
:1015E00091E00E94443E103351F48EE0E0EAF1E2D3
:1015F000DE01119601900D928A95E1F709C08EE007
:10160000EEEAF1E2DE01119601900D928A95E1F782
:10161000BE016D5C7F4F8E010F5F1F4FC8010E949E
:10162000FE3DF80101900020E9F731978DE090E050
:101630008083918389E08093762BC8010E94261FC6
:101640002FEF33EC49E0215030404040E1F700C03B
:101650000000809188288E3399F082E390E0E8E8DA
:10166000F8E2AFEFB3EC29E0A150B0402040E1F741
:1016700000C0000020812E3319F00197009789F7F0
:101680008CEB91E29F938F9384E793E29F938F93E8
:101690000E94713E3FEF43EC89E031504040804072
:1016A000E1F700C000009FEFA7EAB1E69150A0402B
:1016B000B040E1F700C00000809106200F900F902D
:1016C0000F900F90803389F489E08093762B8AEB1A
:1016D00093E20E94261FEFEFF3EC29E0E150F04087
:1016E0002040E1F700C00000FEC089E08093762B27
:1016F00089EC93E20E94261F3FEF43EC89E03150D2
:1017000040408040E1F700C00000EDC0883009F0A3
:10171000EAC00EE110E09FEFA3ECB9E09150A040C9
:10172000B040E1F700C0000068ED73E288E898E29D
:101730000E942A3E892B09F4D0C084E1E5E2FAE256
:10174000DF01282F1D922A95E9F7E1E1FAE2DF0196
:101750001D928A95E9F7E8E8F8E201900020E9F7A0
:1017600031979F0128583842790109F460C000E0A0
:1017700010E0B12C0F2EF4E1AF2EF02DCE0101962A
:101780006C01F801E857F74D80818D3309F049C0AD
:10179000B394D601EA2D1D92EA95E9F7C8010196A6
:1017A000FC01E857F74D2081263291F08E159F05F8
:1017B00089F0D601F801E657F74D8C012D930F5FA4
:1017C0001F4F2191263239F00E151F05B9F703C0BE
:1017D0008C0101C08C01F1E0BF120FC0F601019035
:1017E0000020E9F73197EC19FD097497D0F4B601A0
:1017F00085E29AE20E94143E14C022E0B21211C0A7
:10180000DE011196FD0101900020E9F73197EA1BF6
:10181000FB0B749760F4BD0181E19AE20E94143ED3
:1018200006C00F5F1F4F0E151F0508F4AACF809149
:101830000620803389F489E08093762B8AEB93E24B
:101840000E94261F3FEF43EC89E03150404080402A
:10185000E1F700C0000010C089E08093762B89EC8E
:1018600093E20E94261F9FEFA3ECB9E09150A040A5
:10187000B040E1F700C0000080E2E0E6F6E08683D9
:10188000EFEFF7EA21E6E150F0402040E1F700C039
:101890000000F9DB0CDC8093762B813039F060E0BE
:1018A00070E084EE93E20E9456261EC061E17AE267
:1018B00085E29AE24EDC8093762B813039F060E04D
:1018C00070E084EE93E20E9456260EC060E070E065
:1018D00086EF93E20E94562607C0015011090115B8
:1018E000110509F018CF01C083E0E796CDBFDEBF38
:1018F000DF91CF911F910F91FF90EF90DF90CF90EC
:10190000BF90AF9008951F920F920FB60F921124BF
:101910000BB60F922F933F934F935F936F937F93E9
:101920008F939F93AF93BF93EF93FF934091A00941
:101930004A3009F088C066E074E288E898E20E94C4
:101940002A3E892B41F469E074E288E898E20E941B
:101950002A3E892B21F081E08093762B5CC06FE0DA
:1019600074E288E898E20E942A3E892B41F465E1FE
:1019700074E288E898E20E942A3E892B19F01092BE
:10198000762B49C06AE174E288E898E20E942A3E18
:10199000892B21F084E08093762B3DC062E274E2D3
:1019A00088E898E20E942A3E892B21F086E0809305
:1019B000762B31C069E274E288E898E20E942A3E00
:1019C000892B41F080918D288093062087E08093B9
:1019D000762B21C06DE274E288E898E20E942A3EEC
:1019E000892B21F088E08093762B15C062E374E2A6
:1019F00088E898E20E942A3E892B69F062E270E052
:101A000088E898E20E94093E43E150E0BC018FE281
:101A10009BE20E941B3E6BE770E088E898E20E9420
:101A2000093E892B21F081E08093662926C010921F
:101A30006429109265298CEDE8E8F8E2DF011D9237
:101A40008A95E9F71AC080916429909165299C01D3
:101A50002F5F3F4F2093642930936529FC01E8579D
:101A6000F74D408380916429909165298C3D9105C3
:101A700021F41092642910926529FF91EF91BF9192
:101A8000AF919F918F917F916F915F914F913F9116
:101A90002F910F900BBE0F900FBE0F901F901895B7
:101AA000FC01F695E795F695E795F695E795E959E2
:101AB000F64D8770992721E030E0A90102C0440F5C
:101AC000551F8A95E2F7CA019081892B808308957A
:101AD000FC01F695E795F695E795F695E795E959B2
:101AE000F64D8770992721E030E0A90102C0440F2C
:101AF000551F8A95E2F7CA018095908189238083DA
:101B00000895E7E6F9E287E899E21192E817F90704
:101B1000E1F70C9462240895CF93DF9328E0E0E886
:101B2000F6E021836623C1F074E041E050E0A8E0D4
:101B300076832FEF260FEA0102C0CC0FDD1F2A9516
:101B4000E2F79E0128233923232B11F0A58301C03E
:101B5000A6837583615061F788E0E0E8F6E086834C
:101B6000DF91CF9108950F931F93CF93DF9381E07F
:101B7000E0E8F6E0868363E085E090E0CDDF67E0B3
:101B800080E090E0C9DFC8E6D9E208E819E2FE018A
:101B90003197808190E0982F8827288160E1822BFF
:101BA000BBDF2296C017D10791F781E0E0E8F6E0AD
:101BB0008583DF91CF911F910F9108951F93CF934C
:101BC000DF9390E09460C0E8D6E011E01E836CE003
:101BD000880F991FA1DF1D83DF91CF911F91089579
:101BE000CF93C82FE0E8F6E091E09183958394E0ED
:101BF0009183958388E0818381E0E0DF83E0DEDF0D
:101C000088E0DCDF84E1DADF88E1D8DF8C2FD6DF03
:101C100081EAD4DFCF91089588230CF480E08031ED
:101C20000CF08FE0806ACACF0895882319F089E00C
:101C3000C5CF089588E0C2CF0895CF93DF9332E0F7
:101C400020E0C5E7D9E2A8E6B9E202C02E5F3E5F18
:101C5000E22F2E3019F44C914883F8CF2E3129F41D
:101C6000809178298093852909C0FF27E7FDF095A9
:101C7000E959F64D428140833F3144F393E081E0DE
:101C8000A6E7B9E202C08E5F9E5FE82F8F3011F4A5
:101C90001C92F9CF8F3119F41092862909C0FF27C1
:101CA000E7FDF095E959F64D2281208390325CF3EF
:101CB0000E9462242FEF89EF90E0215080409040F5
:101CC000E1F700C00000DF91CF910895CF93DF933B
:101CD000E6E8F9E24DE128E739E2C5E8D9E209C0D2
:101CE000425032974F3F29F480917529809368299B
:101CF0000CC04F3021F45881D9015C93F1CFDF0142
:101D000012975C91508314165CF3E5E8F9E22CE13C
:101D1000C7E7D9E207C0225032972E3F19F410923C
:101D200067290AC02E3011F41882F5CFDF0112970F
:101D30003C91308322237CF70E946224BFEF29EF7D
:101D400080E0B15020408040E1F700C00000DF910A
:101D5000CF910895A7E6B9E2E7E7F9E226E839E28C
:101D60008C9190E0982F88274081842B880F991FB1
:101D70009D938193E217F30799F70E9462242FEF56
:101D800089EF90E0215080409040E1F700C00000D2
:101D90000895A7E6B9E2E7E7F9E226E839E28C918F
:101DA00090E0982F88274081842B969587959D9366
:101DB0008193E217F30799F70E9462242FEF89EFCE
:101DC00090E0215080409040E1F700C0000008956D
:101DD0008F929F92AF92BF92CF92DF92EF92FF923B
:101DE0000F931F93CF93DF93CDB7DEB7A097CDBFEF
:101DF000DEBF20E2CE010196DC01E22F1D92EA95C2
:101E0000E9F730E2E7E6F9E2DC0101900D923A955C
:101E1000E1F7E7E6F9E2DF011D922A95E9F78E0185
:101E2000005E1F4F5C014E01B0E18B0E911C6F01F3
:101E30000F2EF7E7EF2EF9E2FF2EF02DF801709745
:101E40008081F6018083D8018C91F70180833EDF89
:101E5000025011090815190589F713C00E94622460
:101E600029C034DFF80170978081D6018C93F80186
:101E70008081D7018C93025011090A151B0589F73F
:101E8000EDCF8F85809367298F8D809377298E0181
:101E9000035E1F4FBEE0AB0EB11C0F2EF7E6CF2E38
:101EA000F9E2DF2EF02D0F2EF7E7EF2EF9E2FF2EED
:101EB000F02DD7CFA096CDBFDEBFDF91CF911F9180
:101EC0000F91FF90EF90DF90CF90BF90AF909F90D9
:101ED0008F9008958F929F92AF92BF92CF92DF9290
:101EE000EF92FF920F931F93CF93DF93CDB7DEB79F
:101EF000A097CDBFDEBF20E2CE010196DC01E22F2C
:101F00001D92EA95E9F730E2E7E6F9E2DC0101909B
:101F10000D923A95E1F7E7E6F9E2DF011D922A9585
:101F2000E9F78E010F5E1F4F5C014E01B1E28B0E8F
:101F3000911C0F2EF6E7CF2EF9E2DF2EF02D0F2E9B
:101F4000F6E8EF2EF9E2FF2EF02D77DEF80170971C
:101F50008081F6018083D8018C91F70180830E5F28
:101F60001F4F0815190589F78E010E5E1F4FF1E20C
:101F7000AF0EB11C0F2EF6E7CF2EF9E2DF2EF02DBB
:101F80000F2EF6E8EF2EF9E2FF2EF02D56DEF801C7
:101F900070978081D6018C93F8018081D7018C9352
:101FA0000E5F1F4F0A151B0589F7A096CDBFDEBF38
:101FB000DF91CF911F910F91FF90EF90DF90CF9025
:101FC000BF90AF909F908F9008952F923F924F9225
:101FD0005F926F927F928F929F92AF92BF92CF92B9
:101FE000DF92EF92FF920F931F93CF93DF93CDB7C2
:101FF000DEB7A297CDBFDEBF80E2DE011196FD0104
:10200000982F11929A95E9F790E2E7E6F9E20190AC
:102010000D929A95E1F7E7E6F9E2DF011D928A95C4
:10202000E9F7E12CF12C6894882487F8912C0F2E85
:10203000F7E72F2EF9E23F2EF02D06E819E20F2EDA
:10204000FFE06F2E712CF02D0F2EF7E04F2E512C4C
:10205000F02D3AC0322F283090F489A19AA14097F0
:10206000DC018C9190E0862397230A2C02C0959581
:1020700087950A94E2F79081892B80830FC0A9A1EC
:10208000BAA18C9190E0842395230C2C02C09595E5
:1020900087950A94E2F79081892B8083319689A1F4
:1020A0009AA1019689A39AA3E017F10799F63F3008
:1020B00010F450DE02C00E9462249FEFE91AF90A70
:1020C000A0E1EA16F104F1F0B4010E2C02C07595FE
:1020D00067950A94E2F7A70148505109F40102C03C
:1020E000F595E7954A95E2F7AF01F101CE014196EA
:1020F00089A39AA32E2D6301CE18DF085201AE18D2
:10210000BF08A8CFA296CDBFDEBFDF91CF911F91B0
:102110000F91FF90EF90DF90CF90BF90AF909F9086
:102120008F907F906F905F904F903F902F90089589
:102130002F923F924F925F926F927F928F929F92D7
:10214000BF92CF92EF92FF920F931F93CF93DF93A3
:10215000CDB7DEB7A497CDBFDEBF80E2DE0111961A
:10216000FD01982F11929A95E9F790E2E7E6F9E2DE
:1021700001900D929A95E1F7E7E6F9E2DF011D92F1
:102180008A95E9F70F2EFFE0EF2EF12CF02D0F2EA0
:10219000FFE06F2E712CF02D88248394912C0F2E4C
:1021A000F7E04F2E512CF02D1F0106E719E237C042
:1021B000C22E283084F0ABA1BCA18C9190E0862384
:1021C000972309A002C0880F991F0A94E2F7908113
:1021D000892B808311C08BA19CA14097DC018C913D
:1021E00090E0842395230B2C02C0880F991F0A943A
:1021F000E2F79081892B808331968BA19CA1019677
:102200008BA39CA3E017F10799F61C1414F4C1DD0D
:1022100002C00E94622491E0E91AF10800F1B301C2
:102220006E197F09F40102C0EE0FFF1F6A95E2F7F5
:10223000BF01BE2CA2014E195F09C40102C0880F64
:10224000991F4A95E2F7AC01F101DE015196ABA36B
:10225000BCA32E2DC701089789A39AA3A9CFA49642
:10226000CDBFDEBFDF91CF911F910F91FF90EF9017
:10227000CF90BF909F908F907F906F905F904F9086
:102280003F902F900895AF92BF92CF92DF92EF923E
:10229000FF920F931F93CF93DF935B01611571053D
:1022A00091F1EC016C01C60ED71E0F2EF6E7EF2E52
:1022B000F9E2FF2EF02D06E819E2BFDCFE0189915C
:1022C000869586958695D7018C9380818295880F17
:1022D000807EF8018083FFEF2DEE82E0F1502040F8
:1022E0008040E1F700C00000CC15DD0531F79CE32C
:1022F000A916B10440F0B694A794B694A794A1147B
:10230000B10489F420C0CEE1D0E097DCAFEFBDEEA0
:10231000E2E0A150B040E040E1F700C000002197AA
:10232000209799F710C0C0E0D0E087DCFFEF2DEEDA
:1023300082E0F15020408040E1F700C0000021968B
:10234000CA15DB0591F7DF91CF911F910F91FF9097
:10235000EF90DF90CF90BF90AF900895E0E0F6E06F
:102360009281906E9283E0E2F6E092819160928396
:10237000882341F1E0E0F6E085898260858B8689DB
:102380008260868B87898260878BA0E2B6E0509658
:102390008C915097826050968C9350978285806E76
:1023A00082871A968C911A9781601A968C931A9745
:1023B00081858360818719968C911997836019961E
:1023C0008C930895E0E0F6E085898D7F858B868982
:1023D0008D7F868B87898D7F878BA0E2B6E05096B4
:1023E0008C9150978D7F50968C93509782858F71EA
:1023F00082871A968C911A978E7F1A968C931A97C9
:1024000081858C7F818719968C9119978C7F19967D
:102410008C930895E0E0F6E0828184608283828973
:102420008260828B83858460838781858C608187CD
:102430000895E0E0F6E082818B7F828382898D7F40
:10244000828B83858B7F83878185837F81870895B6
:10245000E0E0F6E0808585FB882780F991E0892718
:10246000908596FF8260E0E0F6E0908599230CF07D
:1024700083E0E0E2F6E0908590FF846008951F928B
:102480000F920FB60F9211240BB60F922F933F931A
:102490004F935F936F937F938F939F93AF93BF936C
:1024A000EF93FF93D5DF8093422BFF91EF91BF9184
:1024B000AF919F918F917F916F915F914F913F91DC
:1024C0002F910F900BBE0F900FBE0F901F9018957D
:1024D0001F920F920FB60F9211240BB60F922F93EB
:1024E0003F934F935F936F937F938F939F93AF939C
:1024F000BF93EF93FF93ACDF8093422B8091422BED
:102500001F928F9386E394E29F938F930E94713E74
:102510000F900F900F900F90FF91EF91BF91AF919F
:102520009F918F917F916F915F914F913F912F91EB
:102530000F900BBE0F900FBE0F901F9018951F921B
:102540000F920FB60F9211240BB60F92EF92FF92DB
:102550000F931F932F933F934F935F936F937F93AB
:102560008F939F93AF93BF93EF93FF93CF93DF939B
:1025700000D0CDB7DEB7EE24E394F12C8E010F5FCF
:102580001F4F21E230E042E350E06AE570E080E86E
:1025900094E00E94861E89818093752B89E394E2E2
:1025A0000E94823E0F900F90DF91CF91FF91EF91AB
:1025B000BF91AF919F918F917F916F915F914F915B
:1025C0003F912F911F910F91FF90EF900F900BBEB5
:1025D0000F900FBE0F901F90189588ED84BF8BE071
:1025E000E0E4F0E08383E0E0F4E0818180FDFDCF72
:1025F000E0E0F4E080E897E08287938782E08283DE
:10260000108611861486158687E0808308951092BF
:10261000072008954F925F926F927F92AF92BF9280
:10262000CF92DF92EF92FF920F931F93CF93DF939E
:1026300000D0CDB7DEB7B82EA62E70E080E090E0D7
:102640008E010F5F1F4F0F2EFAE04F2E512C612C81
:10265000712CF02D78012FEFE21AF20A6701A30125
:1026600092010E94C83A605DF8016083622F732F67
:10267000842F952F611571058105910511F0870152
:10268000E9CFCE010196C81AD90AC60101971816DA
:102690001906A4F4A1E0B0E0AC0FBD1FAC0DBD1D48
:1026A000FE01319620E030E040815E9151934C93E1
:1026B0002F5F3F4F019728173907B4F3F9E0FA1558
:1026C00020F0898190E399838A83B1100DC000E0E6
:1026D00010E028E030E040E150E060E070E080E0B1
:1026E00090E00E94DE240CC000E010E029E030E021
:1026F00040E150E067E070E080E090E00E94DE247E
:10270000EB2CF12C498150E001E010E021E030E0B9
:10271000B70182E090E00E948A254A8150E021E0E2
:1027200030E0B70189E090E00E948A250F900F9079
:10273000DF91CF911F910F91FF90EF90DF90CF909D
:10274000BF90AF907F906F905F904F9008951092E0
:10275000392A6091CF2980E05DDF6091D02989E03E
:1027600059DF81E08093072008951F920F920FB6E2
:102770000F9211240BB60F922F933F934F935F93B9
:102780006F937F938F939F93AF93BF93CF93EF9369
:10279000FF93EFECF9E260816F5F60836C3308F4C4
:1027A00061C01092CF2980910720882329F060E032
:1027B00080E030DF0E946224E0EDF9E260816F5F2B
:1027C0006083683108F443C08091D229873020F4B7
:1027D0008F5F8093D22908C081E08093D229E3EDF6
:1027E000F9E280818F5F8083E1EDF9E2C08181E0D1
:1027F0008C0F80836091D5297091D6298091D4293E
:102800000E948238C817B8F081E08093D129809166
:10281000D4298C3020F48F5F8093D4290CC081E0C0
:102820008093D4298093D329E5EDF9E280819181C9
:102830000196808391831092D0298091072088236C
:1028400071F060E089E0E6DE0E94622408C08091B9
:102850000720882321F089E0DDDE0E9462241092A7
:10286000CF2908C080910720882321F080E0D2DEA4
:102870000E946224FF91EF91CF91BF91AF919F9100
:102880008F917F916F915F914F913F912F910F9019
:102890000BBE0F900FBE0F901F901895DF92EF9216
:1028A000FF920F931F93CF93DF93EC01D62E60E23C
:1028B00045D68C01992334F160E3CE013FD68130B7
:1028C000910581F19923C4F739C060E2CE0136D673
:1028D0008017910751F199238CF18C01EDCF78018C
:1028E0004D2D68E1CE010DD69C01009769F4DD20E5
:1028F00069F060E2CE0122D68E159F0551F41123B6
:10290000C4F70AC0912F1AC0932F18C080E090E03E
:1029100015C080E090E012C0802F912F0FC0822F51
:10292000932F0CC0D110D1CFDACF78014D2D68E1B3
:10293000CE01E7D59C010097E1F2F1CFDF91CF9175
:102940001F910F91FF90EF90DF900895CF92DF924B
:10295000EF920F931F93CF93DF9300D0CDB7DEB7E5
:102960006C018091872990918829F6018283938355
:102970006894EE24E1F88E010F5F1F4F26E242E3D8
:102980006AE580E894E00E94861E8A8190E0982F94
:1029900088272981822BF6018287938728E242E3E8
:1029A0006AE580E894E00E94861E8A8190E0982F74
:1029B00088272981822BF601848795872AE242E3C2
:1029C0006AE580E894E00E94861E8A8190E0982F54
:1029D00088272981822BF6018687978724E242E3A4
:1029E0006AE580E894E00E94861E8A8190E0982F34
:1029F00088272981822BF6018087918722E242E392
:102A00006AE580E894E00E94861E8A8190E0982F13
:102A100088272981822BF6018683978380E00F9097
:102A20000F90DF91CF911F910F91EF90DF90CF909A
:102A3000089560E033CF08956DE030CF08956FE0E2
:102A40002DCF0895CF92DF92EF92FF920F931F93B5
:102A5000CF93DF9300D0CDB7DEB78C01D62EC42E36
:102A600060E3C8016BD58130910579F09923C4F7F3
:102A70001EC060E2C80162D58E159F05D1F31816FD
:102A80001906ACF480E090E012C060E2C80156D5AF
:102A90007C01C9828D2D8F7180568A839E012F5FA4
:102AA0003F4F42E067E1C80165D5009711F30F90F1
:102AB0000F90DF91CF911F910F91FF90EF90DF90DA
:102AC000CF900895CF93DF93EC0160E2CE0136D52D
:102AD000892B19F0CE01ADDFF8CF6BE0CE01DEDE41
:102AE00060E2CE012BD5892BD9F360E2CE0126D549
:102AF000019759F780E090E0DF91CF9108950F930F
:102B00001F93CF93DF93EC0140E068E0FAD48C018F
:102B1000CE01D8DF080F191F40E068E0CE01F1D4E4
:102B2000080F191F40E064E0CE01EBD4080F191F15
:102B300040E065E0CE01E5D4080F191F40E066E0F3
:102B4000CE01DFD4080F191F40E063E0CE01D9D4D5
:102B5000080F191F4FEF61E2CE01D3D4080F191FE0
:102B600041E068E1CE01CDD4080F191F13D547E12C
:102B700067E0CE01C6D4800F911FDF91CF911F91E6
:102B80000F9108950F931F93CF93DF93EC0140E0D3
:102B900068E0B7D48C0140E06AE0CE01B2D4080FFF
:102BA000191F40E069E0CE01ACD4080F191FCE0117
:102BB000A6DF080F191F4FE06FE0CE01A2D4080F67
:102BC000191F41E061E0CE013DDF080F191F43E00E
:102BD00063E0CE0196D4080F191F44E064E0CE01F3
:102BE00090D4080F191F40E365E0CE018AD4080F86
:102BF000191F43E067E0CE0125DF080F191F43E0EE
:102C00006EE0CE011FDF080F191F40E06BE0CE0120
:102C100019DF080F191F41E062E0CE0113DF080F32
:102C2000191F40E76AE0CE010DDF080F191F44E0CD
:102C30006CE0CE0107DF080F191F40E861E1CE010B
:102C400060D4080F191F4CE062E1CE015AD4080F7E
:102C5000191F44E968E0CE0154D4080F191F48E059
:102C60006AE0CE014ED4080F191FCE01E5DE800FB9
:102C7000911FDF91CF911F910F9108958AE590E008
:102C80003EDF2FEF81EE94E0215080409040E1F74D
:102C900000C000008AE590E075DFBCCB08950F937B
:102CA0001F93CF93DF93EC0140E068E02AD48C01BE
:102CB00040E06AE0CE0125D4080F191F40E069E02A
:102CC000CE011FD4080F191FCE0119DF080F191FDD
:102CD0004FEF6FE0CE0115D4080F191F40E060E1FF
:102CE000CE010FD4080F191F47E761E0CE01AADE1D
:102CF000080F191F41E063E0CE0103D4080F191F2C
:102D00004DE164E0CE01FDD3080F191F40E065E0FE
:102D1000CE01F7D3080F191F40E066E0CE01F1D3D2
:102D2000080F191F43E067E0CE018CDE080F191F62
:102D300043E068E0CE0186DE080F191F43E069E03A
:102D4000CE0180DE080F191F43E06EE0CE017ADE6F
:102D5000080F191F40E06BE0CE0174DE080F191F49
:102D600040E06EE1CE016EDE080F191F40E061E128
:102D7000CE0168DE080F191F41E262E0CE0162DE7B
:102D8000080F191F44E063E0CE015CDE080F191F35
:102D900040E76AE0CE0156DE080F191F40E76DE1FB
:102DA000CE0150DE080F191F40E760E1CE014ADE78
:102DB000080F191F44E06CE0CE0144DE080F191F14
:102DC00040E26FE1CE013EDE080F191F40E262E1F2
:102DD000CE0138DE080F191F44E968E0CE0191D317
:102DE000080F191F48E06AE0CE018BD3080F191FA6
:102DF00048E069E0CE0185D3080F191FCE011FDE20
:102E0000800F911FDF91CF911F910F910895E0E402
:102E1000F8E081E0808390E896A39CE097A3868306
:102E20008AE590E06CDE2FEF81EE94E02150804047
:102E30009040E1F700C000008AE590E030CF0895AF
:102E4000EF92FF920F931F93CF93DF93EC01DFDF9D
:102E500080E88093082060E070E082E594E20E94C0
:102E600056260F2EF2EFEF2EF4E2FF2EF02D01E0AA
:102E700010E021E030E048E550E065E070E085E0FA
:102E800090E00E948A250E946224CE015FDD8B853E
:102E90008F938A858F93FF92EF920E94713E8A856D
:102EA0009B850F900F900F900F9081382CE0920728
:102EB000F0F680930F2A9093102A8FEF97EA21E67D
:102EC000815090402040E1F700C0000000E810E091
:102ED00080918729909188298A839B83CE0136DD52
:102EE000BE018AE590E017D20150110901151105C4
:102EF00079F7DF91CF911F910F91FF90EF90089597
:102F00001F920F920FB60F9211248F939F9380916F
:102F10008729909188290196809387299093882901
:102F20009F918F910F900FBE0F901F901895CF9289
:102F3000DF92EF92FF920F931F9340919829509147
:102F4000992960919A2970919B29452B462B472BF3
:102F500071F4FC014085518560E070E04093982950
:102F60005093992960939A2970939B2907C0FC017B
:102F70002085318521383B4B08F053C0FC0140854A
:102F8000518560E070E08091982990919929A091F5
:102F90009A29B0919B298C019D013695279517950B
:102FA000079568017901C80ED91EEA1EFB1E4C1553
:102FB0005D056E057F0558F56C017D01C01AD10ACB
:102FC000E20AF30AC416D506E606F70600F58C01F8
:102FD0009D01000F111F221F331F800F911FA21F81
:102FE000B31F480F591F6A1F7B1F7695679557952A
:102FF00047957695679557954795409398295093AF
:10300000992960939A2970939B2981E00BC0409382
:1030100098295093992960939A2970939B2980E06D
:1030200001C080E01F910F91FF90EF90DF90CF9053
:1030300008950F931F93CF93DF93EB01813029F114
:1030400020F0823009F441C05FC00A851B85FA0177
:10305000A08188859985A80160E070E0480F591F1C
:10306000611D711D9A01AB01325041095109B0E057
:103070000E94FF3A20E137E240E050E00E94C83A67
:10308000200F311F2A873B873FC00C851D85FA0121
:10309000A18188859985A80160E070E0480F591FDB
:1030A000611D711D9A01AB01325041095109B0E017
:1030B0000E94FF3A20E137E240E050E00E94C83A27
:1030C000200F311F2C873D871FC00E851F85FA01F9
:1030D000A28188859985A80160E070E0480F591F9A
:1030E000611D711D9A01AB01325041095109B0E0D7
:1030F0000E94FF3A20E137E240E050E00E94C83AE7
:10310000200F311F2E873F87DF91CF911F910F91A5
:1031100008950F931F93CF93DF93813039F018F008
:10312000823039F009C0FB013A9625C0FB013C967C
:1031300022C0FB013E961FC0109292291092932943
:1031400010929429109295291092962910929729FD
:1031500010928C2910928D2910928E2910928F290D
:1031600010929029109291291092892910928A29FF
:1031700010928B29CBC090E0DC01AA0FBB1FAE568A
:10318000B64D2D913C91232BD9F460817181DC01E6
:10319000AA0FBB1FA456B64D2D913C916217730721
:1031A00040F4DC01AA0FBB1FAE56B64D6D937C9365
:1031B00007C0DC01AA0FBB1FAE56B64D2D933C9342
:1031C00060817181FC01EE0FFF1FE456F64D2081F6
:1031D00031816217730708F077C0FC01EE0FFF1F03
:1031E000EE56F64D0190F081E02DDF01AA0FBB1FD6
:1031F000AA0FBB1FAA0FBB1FAE1BBF0B8B0120E08A
:1032000030E00A0F1B1F211D311D689412F83695FE
:103210002795179507951694D1F7D8010024AA0F82
:10322000BB1F001CAA0FBB1F001CAB2FB02DED0154
:10323000C00FD11FCE17DF0708F43FC0E801CA1B3B
:10324000DB0BEC17FD07C8F1FC01EE0FFF1FE45785
:10325000F64D0190F081E02D309761F4FC01EE0F06
:10326000FF1FE457F64D60837183FC01E757F64D6D
:10327000108223C0E617F707A8F0DC01A757B64D68
:103280006C916F5F6C936134C0F0DC01AA0FBB1FBF
:10329000A457B64D3197ED93FC93FC01E757F64DDB
:1032A00010820BC0FC01EE0FFF1FE457F64D608348
:1032B0007183FC01E757F64D1082FC01EE0FFF1FF2
:1032C000EE56F64D00831183FC01EE0FFF1FE4570D
:1032D000F64D208131812115310551F0FC01EE0FB1
:1032E000FF1FE958F44D420F531F408351830EC016
:1032F000880F991FFC01E958F44DDC01AE56B64D1C
:103300008D919C91480F591F40835183DF91CF913C
:103310001F910F910895EF92FF920F931F93CF93F8
:10332000DF938C01EB0120919C2930919D29232B67
:10333000C9F480919E2990919F29892B99F48091BD
:10334000A0299091A129892B69F4809110208038BF
:1033500049F487E794E20E94823E60E070E081E0F9
:1033600090E0CED080911020882309F47FC0823075
:1033700048F18A859B8520919C2930919D292817A9
:10338000390720F480939C2990939D298C859D85F5
:1033900020919E2930919F292817390720F4809386
:1033A0009E2990939F298E859F852091A0293091F9
:1033B000A1292817390708F053C08093A0299093BA
:1033C000A1294EC0C0EAD9E289818F9388818F9369
:1033D0000EE919E2F80181818F9380818F930F2E7E
:1033E000FCE9EF2EF9E2FF2EF02DF70181818F939A
:1033F00080818F938BEB94E29F938F930E94713E19
:103400006FEF70E081E090E07BD080910E20909192
:103410000F20880F991FF70140815181480F591FD4
:1034200040835183F80120813181280F391F208387
:10343000318368817981860F971F888399834093B0
:10344000772B5093782B2093792B30937A2B809382
:103450007B2B90937C2B8DB79EB708968DBF9EBF1C
:103460008091102081508093102043C08A859B85D5
:1034700081389B4B50F48C859D8581389B4B28F47B
:103480008E859F8581389B4B28F087EF94E20E94C0
:10349000823E2FC0CE014BDD882359F149E050E236
:1034A000BE0180E0C6DD49E050E2BE0181E0C1DD41
:1034B00049E050E2BE0182E0BCDD40910E20509117
:1034C0000F20BE0180E025DE40910E2050910F209C
:1034D000BE0181E01EDE40910E2050910F20BE0102
:1034E00082E017DE40910C2050910D20BE01C801F2
:1034F0007DD1DF91CF911F910F91FF90EF900895B3
:103500000895EF920F931F93CF93DF931F92CDB740
:10351000DEB7262F4983EE24E3948E010F5F1F4F01
:1035200048EE6AE580E894E037D480E090E00F90C0
:10353000DF91CF911F910F91EF900895EF920F932C
:103540001F93CF93DF931F92CDB7DEB7262FEE24C4
:10355000E3948E010F5F1F4F48EE6AE580E894E028
:10356000D5D3898190E00F90DF91CF911F910F917A
:10357000EF900895EF920F931F938901E42E262F69
:1035800048EE6AE580E894E007D490E01F910F913F
:10359000EF9008952FEF89EF90E021508040904008
:1035A000E1F700C000000895EF92FF920F931F9380
:1035B000CF93DF93CDB7DEB7C25AD109CDBFDEBFFF
:1035C00042E1E4E2F0E2DE01119601900D924A95AB
:1035D000E1F742E1E6E3F0E2DE01539601900D925D
:1035E0004A95E1F742E1E8E4F0E2DE0195960190C8
:1035F0000D924A95E1F742E1EAE5F0E2DE01D79665
:1036000001900D924A95E1F742E1ECE6F0E2DE012D
:10361000A75BBF4F01900D924A95E1F742E1EEE7BB
:10362000F0E2DE01A55ABF4F01900D924A95E1F7F5
:1036300042E1EAE5F0E2DE01A359BF4F01900D92AD
:103640004A95E1F742E1ECE6F0E2DE01A158BF4F16
:1036500001900D924A95E1F742E1EEE7F0E2DE01DA
:10366000AF56BF4F01900D924A95E1F7613099F541
:103670004DA15EA14817590760F0DE01979661E001
:1036800070E0E62FAB01ED90FD90E816F906D8F456
:1036900003C040E050E0E0E0440F551F21E030E07F
:1036A0002C0F3D1F420F531FDA0152962D913C9172
:1036B0005397DC010E94F03ADA014D915C918A0146
:1036C000081B190B7DC0E1E0E60F6F5F7F4F69308B
:1036D0007105B9F675C06230B9F56D964EAD5FAD46
:1036E0006D974817590768F0DE01A35ABF4F61E094
:1036F00070E0E62FAB01ED90FD90E816F906E0F4DE
:1037000003C040E050E0E0E0440F551FA9E4B0E002
:10371000AC0FBD1FA40FB51F2D913C91DC010E9481
:10372000F03ADE01A40FB51FD7964D915C91D89762
:103730008A01081B190B44C0E1E0E60F6F5F7F4F61
:1037400069307105B1F63CC0633009F042C0CF5614
:10375000DF4F48815981C159D0404817590768F057
:10376000DE01AD56BF4F61E070E0E62FAB01ED909A
:10377000FD90E816F906E8F403C040E050E0E0E010
:10378000440F551FAFE7B0E0AC0FBD1FA40FB51F2E
:103790002D913C91DC010E94F03AADE6B0E0AC0F17
:1037A000BD1FA40FB51F4D915C918A01081B190B19
:1037B00007C0E1E0E60F6F5F7F4F69307105A9F642
:1037C0000B3F110510F4E93011F40AEF10E0C801C5
:1037D00002C08FEF9FEFCE55DF4FCDBFDEBFDF9131
:1037E000CF911F910F91FF90EF9008953F924F92CC
:1037F0005F926F927F928F929F92AF92BF92CF9281
:10380000DF92EF92FF920F931F93CF93DF93CDB789
:10381000DEB7AE97CDBFDEBF7B014A01DB0112965A
:103820002D913C911397ADECBCEC0E94F03A6C01E9
:10383000D694C794D694C794D694C79484E1E0E90B
:10384000F0E2DE01119601900D928A95E1F78AE08F
:10385000E4EAF0E2DE01559601900D928A95E1F7D7
:1038600088E0EEEAF0E2DE015F9601900D928A9523
:10387000E1F788E0E6EBF0E2DE01979601900D9229
:103880008A95E1F7F701828593852091772B309116
:10389000782B821B930B12F480E090E061E09C0196
:1038A000829EC001839E900D929E900D11247CDE1D
:1038B0008C01D7011C968D919C911D972091792B9D
:1038C00030917A2B821B930B12F480E090E061E040
:1038D000FC018E9EC0018F9E900D9E9E900D112426
:1038E00063DE4C019801D8010E94F03A2B013C01A3
:1038F000F8EE4F0EF0E85F1E611C711C9401D401BC
:103900000E94F03AA3019201261B370B480B590B7A
:103910001AF420E030E0A901CA01B9012CE330E03B
:1039200040E050E00E94C83A2E3464E0360710F0C0
:103930002DE434E0013F110520F481EF8816910455
:10394000C8F18091112081111EC08091B6299091FB
:10395000B7298093B4299093B5296091B2297091C9
:10396000B329F601E61BF70BF397E231F14068F457
:103970006B5B362E3C18A090B029B090B129A81AE4
:10398000B90AE1E003C0E0E001C0E0E081E080933B
:1039900011208091B4299091B5298732924018F076
:1039A0002DE434E002C020E030E0C092AE29D09295
:1039B000AF2913C080911120813041F42093B029A8
:1039C0003093B129C092B229D092B329109211201C
:1039D0002093B6293093B729E0E08901A1E7B0EE42
:1039E0000E94F03A9C010024220F331F001C220F7A
:1039F000331F001C232F302D8FE090E0821B930B90
:103A000022F4D70153961C920BC0803191052CF003
:103A10008FE0D70153968C9303C0D70153968C93B4
:103A2000E13009F051C0B7E9AB16B10414F1FE0161
:103A30007F96A5EAB9E2CE01879621912D93E817EA
:103A4000F907D9F788E08093AD29BF92AF921F9212
:103A50003F928DE095E29F938F9388E195E29F934B
:103A60008F930E94713E82E0F701828BCDBFDEBF53
:103A70002EC03AE6A3163FEFB3064CF5FE01B7960B
:103A8000A5EAB9E2CE018F9621912D93E817F907A7
:103A9000D9F788E08093AD29B194A194B108BF9281
:103AA000AF921F923F9280E495E29F938F9388E1BB
:103AB00095E29F938F930E94713E81E0D7015296C9
:103AC0008C93CDBFDEBF03C0D70152961C92898173
:103AD0009A8108171907A8F0FE01339621E0819119
:103AE00091910817190720F02F5F2A30C1F76EC097
:103AF0008091A429281306C0293021F0211106C085
:103B000001C020E0C092AE29D092AF292093A42911
:103B1000E091AD29EE23E1F08091A229BC2DB81BE4
:103B2000B73208F458C0C092A229D092A329E1501C
:103B3000E093AD29E770F0E0EB55F64D608170E061
:103B400081E090E0DDDCC092AE29D092AF2943C085
:103B50008091AE299091AF29F601E81BF90BCF01B6
:103B60008A389240C0F1C092A229D092A329FE01C6
:103B7000E20FF11D85899FEF9093A5299093A629C7
:103B80008093A7298093A8299093A9299093AA2983
:103B90008093AB298093AC2980E18093AD292F934A
:103BA0001F928CE495E29F938F9382E595E29F9319
:103BB0008F930E94713E83E0D70152968C930F90B1
:103BC0000F900F900F900F900F9005C08091A42937
:103BD000281398CF9BCFAE96CDBFDEBFDF91CF919C
:103BE0001F910F91FF90EF90DF90CF90BF90AF901B
:103BF0009F908F907F906F905F904F903F9008952F
:103C0000E0E8F4E0128289E0858388E0818381E046
:103C100084830895FC01668384E6489FA0011124F3
:103C20004115510509F18481982F9874983411F445
:103C300066830AC0982F9075903521F487E08383BE
:103C400084E00895807C71F48AE68A95F1F700C0DB
:103C5000415051094115510531F706C087E0838372
:103C600083E0089581E00895848185FDF7CF83E0A6
:103C70000895FC01478384E6689FB0011124848184
:103C800086FD0FC06115710561F08AE68A95F1F72E
:103C900000C061507109848186FD03C06115710502
:103CA000A1F7848186FF06C094819295917081E08E
:103CB0008927089580E00895FC0184818C708C3000
:103CC00019F184E6689FB0011124848188237CF077
:103CD0006115710561F0AAE6AA95F1F700C061507F
:103CE0007109848188231CF061157105A1F7878112
:103CF000DA018C93222321F087E0838381E0089509
:103D000082E0838381E0089580E00895BF92CF929E
:103D1000DF92EF92FF920F931F93CF93DF93EC010B
:103D2000D62EF42EC22E660F75DF813041F54C2D54
:103D30006F2DCE019EDF882321F16D2D660F61600E
:103D40004F2DCE0167DF8130B1F4BB24BA94BE0C95
:103D50000FC068018FEFC81AD80A21E0B11020E027
:103D6000A8016F2DCE01A8DFBA94882321F0860127
:103D70008FEFB812EECF87E08B838E2D03C08E2D90
:103D800001C086E0DF91CF911F910F91FF90EF90DE
:103D9000DF90CF90BF900895CF92DF92EF92FF9285
:103DA0000F931F93CF93DF93EC01F42ED22E660F67
:103DB00031DF8130E1F44D2D6F2DCE015ADF8823A4
:103DC000C1F0EA94C02ED12E0BC0F60141916F01D3
:103DD0006F2DCE014EDF9FEF9E0D882321F0E92E3F
:103DE000FFEFEF12F2CF87E08B838E2D03C08E2D75
:103DF00001C086E0DF91CF911F910F91FF90EF906E
:103E0000DF90CF900895E0E6F6E088E0818384E0DB
:103E10008283E0EAF9E080E283838EE2868388E9A8
:103E2000878383E0858388E184830895E0EAF9E06D
:103E3000918195FFFDCF8093A0090895E0EAF9E014
:103E400081818823ECF78091A0090895CF93DF93B7
:103E5000EC018881882329F02196E8DF899181117E
:103E6000FCCF8DE0E3DF8AE0E1DFDF91CF910895C1
:103E70001F920F920FB60F9211240BB60F922F9331
:103E80003F934F935F938F939F93AF93BF93EF9322
:103E9000FF93E091BE2BF091BF2B309709F451C0F6
:103EA000468157812281338180859185DC01A20F73
:103EB000B31F808191818130910569F018F00297DC
:103EC00099F01DC041155105E1F18C914150510906
:103ED0002F5F3F4F1DC04230510598F18C914250E9
:103EE00051092E5F3F4F14C04230510550F11196D9
:103EF0008C918058425051092E5F3F4F09C0443089
:103F00005105F8F011968C91445051092C5F3F4FA8
:103F100046835783428553854150510924233523D5
:103F200022833383869590E09C01385FE0E2F3E0E2
:103F3000208F318F20E038E0A901481B590B428FB8
:103F4000538FFF91EF91BF91AF919F918F915F91AF
:103F50004F913F912F910F900BBE0F900FBE0F907E
:103F60001F9018953F924F925F926F927F928F921F
:103F70009F92AF92BF92CF92DF92EF92FF920F93F8
:103F80001F93CF93DF9300D000D0CDB7DEB78B83E4
:103F90009C8329833A834801DC018D919C9184178D
:103FA000950708F01EC3FB01E80FF91F10811123CC
:103FB00009F41AC3C12CD12CAA24AA94BA2C0F2E0E
:103FC000F3E03F2EF02D1C3209F40AC280F41D30BC
:103FD00009F4F5C228F41950123008F4F0C24DC2A9
:103FE000103209F4ECC2123209F4F8C046C21D3591
:103FF00009F471C030F41A3309F4E6C11B3539F005
:104000003CC21B3721F01D3709F465C036C2BFEF33
:10401000CB1ADB0AE981FA81EF2B09F4D0C2AB811C
:10402000BC8112968D919C9113978815990508F083
:1040300004C3FC0131961296ED93FC931397FC0197
:10404000EE0FFF1FEE0FFF1FEE0FFF1FDF01A81B7C
:10405000B90BE981FA81AE0FBF1F1396AD92BC92E6
:1040600014971196AD92BC92129715961D921C92C0
:104070001697109709F4E3C2EB81FC818481958146
:104080008F3FFFEF9F0799F09C01220F331F220FF4
:10409000331F220F331F281B390B89819A81280F68
:1040A000391FF901858196810196858396831B3797
:1040B00011F481E001C082E08C93EB81FC8180816E
:1040C000918111968D939C93129782819381019790
:1040D0008483958374C229813A81232B09F46FC2AA
:1040E0001D3719F47724739403C06894772471F80A
:1040F000AB81BC8112960D911C911397F8013197F9
:10410000FF230CF4A6C29801220F331F220F331F86
:10411000220F331F201B310B2901B7E04B1A510826
:1041200029813A81420E531ED20111960D911C91A4
:1041300012970F3F1F4FE9F0D20113960D911C917A
:1041400014970F3F1F4FA9F4D2012C91721279C21C
:10415000AB81BC811496AD92BC9215970196D201A9
:1041600013968D939C931497EF3FBFEFFB0741F499
:104170006AC2319727E0421A5108FF23ACF669C2A0
:10418000FF230CF41CC2CF01880F991F880F991FC1
:10419000880F991F8C010E1B1F0B89819A81080FB4
:1041A000191FD80111968D919C911297019671F06B
:1041B000D80113968D919C911497019639F4AB8197
:1041C000BC811496ED93FC931597F9C13197075074
:1041D0001109EF3FBFEFFB0721F7F1C19C012F5FF2
:1041E0003F4FEB81FC81208331832417350708F092
:1041F000D2C0FB01E20FF31FE081EE2309F4CBC034
:10420000E23209F04CC003C0E23209F048C0298113
:104210003A81232B09F421C2AB81BC8112962D91E6
:104220003C91139728153905D8F4F9013196129667
:10423000ED93FC931397F901EE0FFF1FEE0FFF1F95
:10424000EE0FFF1FE21BF30B29813A81E20FF31FF0
:10425000A382B482A182B28215821682309731F491
:10426000AB81BC818D939C938FEFFBC1AB81BC81F3
:104270002D913C91308201968183928323833483F4
:1042800015821682BFEFCB1ADB0AEB81FC81848199
:1042900095818F3FFFEF9F0709F083C090C1EC35F8
:1042A00009F066C0F9013196E417F50708F060C01F
:1042B000AB81BC81ED93FC93E60FF71FE0804E2CA1
:1042C000512CD2019297A435B10508F04BC0A250F1
:1042D000BF4FFD010C94EA3AF9013296AB81BC81E3
:1042E000ED93FC93E417F507A0F5E60FF71FF080B8
:1042F000FF2079F1D90113968B010A0F1B1F390199
:10430000E6E06E0E711C0F2EF0EDEF2EF02DEF0C8F
:10431000F9E0FE1570F42F2D2F7DF22E3FEBF30EFA
:10432000E5E0EF1530F4AB81BC818D939C938EEF6B
:1043300098C1EB81FC81A083B183A615B70549F034
:10434000A417B50731F0F801F1908F011196F11023
:10435000DACFAB81BC81ED91FC9111973197ED9350
:10436000FC9306C0EB81FC81808391838EEF79C141
:10437000AB81BC81ED91FC9111979F012F5F3F4F65
:104380002D933C932417350730F4FB01E20FF31F04
:10439000E081E11139CFEB81FC81808391838DEF46
:1043A00060C1FC01EE0FFF1FEE0FFF1FEE0FFF1F9E
:1043B000E81BF90B29813A81E20FF31F8581968171
:1043C000019685839683FBC0AB81BC8112968D914B
:1043D0009C911397019714968D939C931597EFC01A
:1043E000E981FA81EF2B09F4EAC0AB81BC81149614
:1043F0008D919C911597FC01EE0FFF1FEE0FFF1F93
:10440000EE0FFF1FE81BF90B29813A81E20FF31F22
:1044100080818150823008F4D2C012962D913C9157
:104420001397C901019799230CF4C9C0F901EE0F44
:10443000FF1FEE0FFF1FEE0FFF1FE21BF30B37975F
:10444000A981BA81EA0FFB1F10811150123080F44C
:10445000018112810F3F1F4F59F0A381B481119642
:1044600039F4AB81BC8114968D939C931597A7C0AA
:1044700001973797992344F7A2C0AB81BC81ED9196
:10448000FC91E417F507A8F5DB01AE0FBF1F1C91E7
:10449000112379F1DF0111969D01260F371F10328C
:1044A00041F138F4193078F01B3018F11D3059F40F
:1044B00020C01A33F1F018F41C3229F41AC01D354B
:1044C000C1F01D37B1F010521F3530F0EB81FC8187
:1044D000808391838EEFC5C03196AB81BC81ED9313
:1044E000FC93E417F50728F4D9011D919D011111E2
:1044F000D6CF29813A81232B49F43197AB81BC81F6
:10450000ED93FC93BFEFCB1ADB0A59C0EB81FC8122
:104510002281338128153905E8F4F9013196AB8100
:10452000BC811296ED93FC931397F901EE0FFF1FD8
:10453000EE0FFF1FEE0FFF1FE21BF30B29813A81E5
:10454000E20FF31FA382B482A182B2821582168287
:10455000309731F4AB81BC818D939C938FEF81C0F8
:10456000AB81BC812D913C91119710828183928304
:1045700023833483158216828D919C911197019724
:104580008D939C93BFEFCB1ADB0AEB81FC81848176
:1045900095818F3FFFEF9F0791F0FC01EE0FFF1F0A
:1045A000EE0FFF1FEE0FFF1FE81BF90B29813A8169
:1045B000E20FF31F85819681019685839683AB81F7
:1045C000BC818D919C91119701968D939C9384173A
:1045D000950760F4FB01E80FF91F10811111F3CC6E
:1045E00005C0C12CD12C02C0C12CD12CEB81FC8187
:1045F00042815381CA0101979923ECF0FA01EE0F31
:10460000FF1FEE0FFF1FEE0FFF1FE41BF50B2981AD
:104610003A812E0F3F1FF9013697208131812F3FBC
:104620003F4F29F0228133812F3F3F4F71F0019797
:104630003797992394F78C2D14C08FEF12C08FEF0A
:1046400010C08EEF0EC08EEF0CC08DEF0AC08EEF43
:1046500008C0319609F0B3CFFACFEFEFCE1ADE0AD9
:10466000AECF2496CDBFDEBFDF91CF911F910F91CA
:10467000FF90EF90DF90CF90BF90AF909F908F9082
:104680007F906F905F904F903F900895FC01108253
:104690001182128213828FEF9FEF84839583089596
:1046A000AF92BF92CF92DF92EF92FF920F931F9340
:1046B000CF93DF93CDB7DEB76A01EDB6FEB6FC014E
:1046C00037E0039FE00DF11D1124A181B281038128
:1046D00014810A1B1B0BC80101964DB75EB7481B1E
:1046E000590B4DBF5EBF8DB79EB701965C0130E0A0
:1046F000021713076CF46A0F7B1FA8010E94EE3D9E
:10470000F501E00FF11F1082B501C6010E94143EB1
:10471000EDBEFEBEDF91CF911F910F91FF90EF9004
:10472000DF90CF90BF90AF900895CF93DF93CDB738
:10473000DEB76497CDBFDEBF0E945E07B4D00E9493
:10474000262E0E9452085FDB82E190E28093C42B08
:104750009093C52B8093C62B9093C72B8FEA95E23D
:104760000E94823E87E0E0EAF0E0828381E00E94DE
:10477000AE1180E894E044DAE8E4F0E080818660FD
:1047800080837894CE0101960E9420170E943E16E5
:104790000E94A71397D00E94ED120E94F2070F2EDD
:1047A000F9E3CF2EFAE2DF2EF02D0F2EFEE0AF2E32
:1047B000FAE2BF2EF02D0F2EF8E4EF2EF12CF02DA3
:1047C0008091752B843009F053C080E00E94AE11B7
:1047D0000E9419128FE079D087ED95E20E94823E07
:1047E000F60110820E940717FFEF23ED80E3F150DE
:1047F00020408040E1F700C0000000E010E0CE0162
:1048000001960E94A614BE016F5F7F4F8AE590E07B
:104810000E948B19CE0101960E94DD368B859C8506
:1048200080389C4038F40939FAE31F0730F40F5FF1
:104830001F4FE5CF00E010E0E2CF0E94F2078BEEC1
:1048400095E20E94823EF6018081882321F079D38F
:104850000E94A7135BD3F501808137D081E00E94CD
:10486000AE110E940A120E943E161092752B15C0BE
:104870008091752B823029F486EF95E20E94823E6A
:104880000CC08091422B853041F45BD3CE01019660
:104890000E9420170E94A71339D3F70180818160FD
:1048A000808388958DCF84E20E94F00D81E00E9484
:1048B0000C0E0E94810D83E00C94DE0D08950C9483
:1048C000810D08950C94B30D0895CF93DF93D82FE5
:1048D000C0912320C81780F48C2F0E940C0E2FEF5C
:1048E00086E791E0215080409040E1F700C0000051
:1048F000CF5FCD1788F311C08C1778F48C2F0E94EE
:104900000C0E2FEF86E791E0215080409040E1F7B8
:1049100000C00000C150DC1788F3D0932320DF9142
:10492000CF91089581E0D1DF8FE0CFDF81E0CDDF4F
:104930008FE0CBCF08959C0180319105F4F5603173
:104940007105DCF58FE090E0861B970B68E170E065
:104950000E94B53A8830910534F08031910534F4E5
:1049600067E870E005C067E070E002C067E071E0F2
:1049700087709078992324F40197886F9F6F019630
:10498000FB01E81BF90BCF01283031051CF4220F85
:10499000331F04C0220F331F2F503109220F331F42
:1049A000220F331F220F331F820F931F442319F04E
:1049B0000C94500D08950C94680D08958F929F9259
:1049C000AF92BF92CF92DF92EF92FF920F931F931D
:1049D000CF93DF93982EC82FD0E05E01A40EB11CB8
:1049E000CA15DB05E4F4C62ED12C7601E20EF11CCB
:1049F000862E0FC0402FCE019EDF1F5F612F70E01B
:104A00006E157F05BCF39394C92DD0E0CA15DB0564
:104A100034F4B601CE14DF04B4F7182DEBCFDF91D8
:104A2000CF911F910F91FF90EF90DF90CF90BF90AB
:104A3000AF909F908F9008950F9301E021E041E0A7
:104A40006091222080912120B9DF8091222087303F
:104A500040F090912120993021F4815080932220C0
:104A600025C0863041F490912120973030F091504C
:104A7000909321201BC0893040F4909121209630E2
:104A800021F48F5F8093222011C0893079F48091C6
:104A90002120893058F48F5F80932120893031F4B0
:104AA0009091202081E089278093202000E021E060
:104AB00041E0609122208091212080DF0E94B30D8F
:104AC0000F91089570E09B01220F331F220F331FB7
:104AD000620F731FFB01E45FF64FDA01A80FB91FE5
:104AE000CB018F5E964F34913295432F4373440F21
:104AF000440F232F2C7C26952695242B322F357599
:104B0000330F2A7A2695232B2D933196E817F90730
:104B100051F708952F923F924F925F926F927F923A
:104B20008F929F92AF92BF92CF92DF92EF92FF92BD
:104B30000F931F93CF93DF9300D01F92CDB7DEB7B3
:104B4000222E402E50E05A01AA0CBB1CAA0CBB1C02
:104B50004A0D5B1D9A01245F364F5901C82ED92E8C
:104B6000382E360135E0630E711C802F880F880FB8
:104B7000880F801B4B0196E0890E911C7B01E1E0C0
:104B8000EE1AF108860F8983F50114918A829B82BF
:104B9000598010FF11C0F1E04F1208C0DD2064F011
:104BA000422D6A817B81C601C6DE06C0022D242DFE
:104BB000442D652D832D02DF16952A813B812150DE
:104BC00031092A833B8354182E153F0511F73FEF17
:104BD000A31AB30A8FEFC81AD80A340CC614D70424
:104BE00099F62396CDBFDEBFDF91CF911F910F9134
:104BF000FF90EF90DF90CF90BF90AF909F908F90FD
:104C00007F906F905F904F903F902F900895CF923C
:104C1000DF92EF92FF920F931F93CF93DF93CDB765
:104C2000DEB72597CDBFDEBF70E0FB01EE0FFF1FA3
:104C30006E0F7F1FFB01EE0FFF1FE45FFC4F9E0115
:104C40002F5F3F4F690165E070E00396480F591FE1
:104C5000849182958F70D6018D936D01DA0123E0E6
:104C600030E0082F017010E07801062E02C0EE0C33
:104C7000FF1C0A94E2F79E91E92AEC928695215056
:104C800031092115310569F76150710931966115B6
:104C90007105F1F62596CDBFDEBFDF91CF911F9153
:104CA0000F91FF90EF90DF90CF9008959F92AF9279
:104CB000BF92CF92DF92EF92FF920F931F93CF9309
:104CC000DF93EC01962E662381F0FC010190002019
:104CD000E9F73197E81BF90B5F01AA0CBB1CEA0D41
:104CE000FB1D5F01AA0CBB1C0CC0FC010190002045
:104CF000E9F73197E81BF90B5F01AA0CBB1CAA0C62
:104D0000BB1C61E070E0C5010E941D3B6C017E018F
:104D100000E010E0C0E0D0E00CC0992021F0A60136
:104D2000CE01D0DE03C0A601C80171DF26960C5F5C
:104D30001F4FF70161917F016111EFCFB501C601EE
:104D40000E944311C6010E94CF3BDF91CF911F917A
:104D50000F91FF90EF90DF90CF90BF90AF909F901A
:104D600008952F923F924F925F926F927F928F920F
:104D70009F92AF92BF92CF92DF92EF92FF920F93EA
:104D80001F93CF93DF93CDB7DEB72597CDBFDEBF9F
:104D9000222E402E50E03A01660C771C460D571D1E
:104DA000440F551F362E202F220F220F220F201BBB
:104DB000C12CD12CFA01E45FFC4F3F014C01F5E01E
:104DC0008F0E911C7C0133E0E31AF108280F298330
:104DD000CB0103968A839B83F301EC0DFD1D149197
:104DE0008C829D825980AA80BB80AC18BD0810FFC0
:104DF00012C091E0491209C0EC81FD81FF235CF0F3
:104E0000422DB501CF0197DD06C0022D242D442D82
:104E1000632D852DD3DD16958C819D8101978C8323
:104E20009D8354188E159F0511F79FEFC91AD90A53
:104E30003418E6E0CE16D10479F62596CDBFDEBF54
:104E4000DF91CF911F910F91FF90EF90DF90CF9066
:104E5000BF90AF909F908F907F906F905F904F909A
:104E60003F902F9008950F93CF93DF93EC0101E0D3
:104E700021E030E0488167E070E081E090E071DFA0
:104E800021E030E0498167E070E085E090E069DF93
:104E900021E030E04A8167E070E089E090E061DF86
:104EA00021E030E04B8167E070E08DE090E059DF79
:104EB000DF91CF910F9108950F93CF93DF93EC0182
:104EC00001E021E030E0488167E070E083E090E0BD
:104ED00048DF21E030E0498167E070E087E090E062
:104EE00040DF21E030E04A8167E070E08BE090E055
:104EF00038DFDF91CF910F9108950C94E80E08955B
:104F00000C946A0F08950C94E50F08950C94981072
:104F10000895CF93CFE10E94660EC150E1F7CF9183
:104F20000895CF93CFE10E941D0EC150E1F7CF91BC
:104F30000895CF93CFE10E94AA0EC150E1F7CF911F
:104F40000895CF93CFE10E94C90EC150E1F7CF91F0
:104F5000089560913A2A6B3348F46F5F60933A2A60
:104F600070E085E090E00E940A1309C081E0809320
:104F70003A2A61E070E085E090E00E940A130C9408
:104F8000B30D089560913A2A662349F06150609309
:104F90003A2A70E085E090E00E940A1309C08AE393
:104FA00080933A2A6AE370E085E090E00E940A1359
:104FB0000C94B30D089560913B2A673148F46F5FFC
:104FC00060933B2A70E085E090E00E940A1309C0DC
:104FD00081E080933B2A61E070E085E090E00E94F0
:104FE0000A130C94B30D089560913B2A662349F08F
:104FF000615060933B2A70E085E090E00E940A13C4
:1050000009C086E180933B2A66E170E085E090E08C
:105010000E940A130C94B30D08956091D029673152
:1050200048F46F5F6093D02970E085E090E00E94C3
:105030000A1308C01092D02960E070E085E090E08B
:105040000E940A130C94B30D08956091D029662331
:1050500049F061506093D02970E085E090E00E94B3
:105060000A1309C087E18093D02967E170E085E0E9
:1050700090E00E940A130C94B30D08956091CF291B
:105080006B3348F46F5F6093CF2970E085E090E068
:105090000E940A1308C01092CF2960E070E085E0FA
:1050A00090E00E940A130C94B30D08956091CF29EB
:1050B000662349F061506093CF2970E085E090E06D
:1050C0000E940A1309C08BE38093CF296BE370E041
:1050D00085E090E00E940A130C94B30D089560914E
:1050E000CE296B3348F46F5F6093CE2970E085E082
:1050F00090E00E940A1308C01092CE2960E070E090
:1051000085E090E00E940A130C94B30D089560911D
:10511000CE29662349F061506093CE2970E085E086
:1051200090E00E940A1309C08BE38093CE296BE3C1
:1051300070E085E090E00E940A130C94B30D08958E
:105140008091D229883048F491E0980F9093D22929
:1051500090E00E94FE37B0DE08C081E08093D22943
:1051600081E090E00E94FE37A7DE0C94B30D089515
:105170008091D229823048F09FEF980F9093D229E6
:1051800090E00E94FE3798DE08C087E08093D22925
:1051900087E090E00E94FE378FDE0C94B30D0895F7
:1051A0008091D4298D3048F491E0980F9093D429C0
:1051B00090E00E941F3880DE08C081E08093D429EF
:1051C00081E090E00E941F3877DE0C94B30D0895C3
:1051D0008091D429823048F09FEF980F9093D42982
:1051E00090E00E941F3868DE08C08CE08093D429CC
:1051F0008CE090E00E941F385FDE0C94B30D0895A0
:105200008F929F92AF92BF92CF92DF92EF92FF92D6
:105210000F931F93CF93DF93E5EDF9E260817181E6
:10522000CB0101968083918380E090E030E020E024
:10523000A32EB22E032F122F0F2EFAE0CF2ED12C39
:10524000E12CF12CF02DE8012196A70196010E9496
:10525000C83A605DF8016083622F732F842F952F09
:10526000611571058105910511F08E01ECCFAC2F10
:10527000BD2FCD0101971816190674F4EA2DFB2DE8
:1052800020E030E040815E9151934C932F5F3F4F7F
:10529000019728173907B4F380E090E0E4DD0E941D
:1052A000B30DDF91CF911F910F91FF90EF90DF90A1
:1052B000CF90BF90AF909F908F9008958F929F92C4
:1052C000AF92BF92CF92DF92EF92FF920F931F9314
:1052D000CF93DF93E5EDF9E260817181CB01019716
:1052E0008083918380E090E030E020E0A32EB22E16
:1052F000032F122F0F2EFAE0CF2ED12CE12CF12C00
:10530000F02DE8012196A70196010E94C83A605D40
:10531000F8016083622F732F842F952F611571051B
:105320008105910511F08E01ECCFAC2FBD2FCD0181
:1053300001971816190674F4EA2DFB2D20E030E0D1
:1053400040815E9151934C932F5F3F4F01972817F7
:105350003907B4F380E090E086DD0E94B30DDF9161
:10536000CF911F910F91FF90EF90DF90CF90BF9062
:10537000AF909F908F900895A2DAE0E0F8E010A23D
:1053800011A285E39CE086A397A327E0208380A752
:1053900091A787818160878381818061818308955E
:1053A000109200088CCA0895CF92DF92EF92FF927C
:1053B0000F931F93CF93DF93CDB7DEB7C95DD14075
:1053C000CDBFDEBFC82ED62E0E9443080E945708CC
:1053D000813009F06DC161E17AE285E29AE20E94D2
:1053E000A908182F813041F0DBDF60E070E084EE27
:1053F00093E25CDC812F5CC12AEFAE014F5F5F4F0F
:1054000066E176E286E696E20E941409182F813062
:1054100041F0C6DF60E070E089E796E247DC812F6B
:1054200047C10E9452089E012F5F3F4F7901C90179
:105430000E94823ECE0185509F4F28D9F7010190EE
:105440000020E9F73197AF014E195F090FEA10E02C
:105450009E012F5F3E4FB701CE0185509F4F0E94A6
:10546000B21FCC2009F4BCC07E0130E5E31A3EEF48
:10547000F30A06E010E02EE130E0A701BE016F5F05
:105480007F4FCE018F5F9E4F0BD9CE0182539E4F2F
:105490009F938F9302969F938F9302969F938F93E0
:1054A00002969F938F9302969F938F9302969F935A
:1054B0008F9382E996E29F938F93FF92EF920E94DF
:1054C000AF3ECDBFDEBF069709F08AC0C852DE4F9F
:1054D00048815981C85DD1404093D5295093D62940
:1054E000CA52DE4F6881C65DD140C952DE4F788115
:1054F000C75DD1406093D429CC52DE4F8881C45D12
:10550000D140CB52DE4F9881C55DD1408093D129E7
:1055100000ED19E23091D729CE52DE4F2881C25DCD
:10552000D140320F2091D829230FF8012083C05396
:10553000DE4F2881C05DD1402093CF29C253DE4F7A
:105540002881CE5CD1402093CE290E949938809347
:10555000D229F80190819831A8F198519093D029DF
:10556000873020F48F5F8093D22903C081E080933D
:10557000D229E1EDF9E2108181E0810F8083609111
:10558000D5297091D6298091D42990E00E94823843
:10559000212F30E028173907ACF081E08093D12922
:1055A0008091D4298C3020F48F5F8093D4290AC055
:1055B00081E08093D429E5EDF9E280819181019623
:1055C000808391834091D5295091D6296091D42927
:1055D00070E08091D12990E00E940F398093D32907
:1055E000DD2009F464C006E110E02EE130E0AE01F8
:1055F00040555E4FBE016F5F7F4FCE018F5F9E4F64
:105600004FD8CE0180559E4F0E94823EC055DE4F3E
:105610008881C05BD140882309F444C090E00E9497
:10562000C63D892B09F03EC0BE0162537E4FCE01BC
:1056300080559E4F0E945E3CC253DE4FE881F98147
:10564000CE5CD140808181112DC07E01F0E5EF1A42
:10565000FEEFFF0AF70101900020E9F73197AF0153
:105660004E195F09B70189ED99E20E941B3E08E1DE
:1056700010E02EE130E0A701BE016F5F7F4FCE0149
:105680008F5F9E4F0DD8F70101900020E9F7319709
:10569000AF014E195F09B7018CED99E20E941B3EE4
:1056A00081E006C08DE28093D92980E001C081E0CD
:1056B000C752DE4FCDBFDEBFDF91CF911F910F915B
:1056C000FF90EF90DF90CF9008950F931F9301E02C
:1056D00010E021E030E044E550E06AE070E081E075
:1056E00090E03FDB21E030E045E450E06AE070E02C
:1056F00085E090E036DB21E030E04DE450E06AE008
:1057000070E089E090E02DDB21E030E040E550E002
:105710006AE070E08DE090E024DBE9EDF9E20190D1
:105720000020E9F7CF018A5D99420297A0F44091E9
:10573000D92950E021E030E063E070E085E090E0BE
:1057400010DB21E030E043E450E063E070E089E00A
:1057500090E007DB1FC04091D92950E001E010E044
:1057600021E030E063E070E083E090E0FADA40911D
:10577000DA2950E021E030E063E070E087E090E07B
:10578000F0DA21E030E043E450E063E070E08BE0E9
:1057900090E0E7DA1F910F9108954F925F926F9218
:1057A0007F929F92AF92BF92CF92DF92EF92FF9241
:1057B0000F931F93CF93DF9300D0CDB7DEB701E0F7
:1057C00010E021E030E044E450E06AE070E081E085
:1057D00090E0C7DA21E030E041E450E06AE070E0B8
:1057E00085E090E0BEDA21E030E044E550E06AE098
:1057F00070E089E090E0B5DA21E030E045E450E087
:105800006AE070E08DE090E0ACDAB090D1296B2DC9
:1058100070E080E090E08E010F5F1F4F0F2EFAE0E6
:105820004F2E512C612C712CF02D78012FEFE21AA4
:10583000F20A6701A30192010E94C83A605DF80173
:105840006083622F732F842F952F61157105810559
:10585000910511F08701E9CFCE010196C81AD90A46
:10586000C601019718161906A4F4A1E0B0E0AC0F28
:10587000BD1FAC0DBD1DFE01319620E030E0408122
:105880005E9151934C932F5F3F4F01972817390733
:10589000B4F3F9E0FB1520F0898190E399838A83C2
:1058A000498150E001E010E021E030E063E070E089
:1058B00081E090E056DA4A8150E021E030E063E098
:1058C00070E084E090E04DDA21E030E04EE250E01C
:1058D00063E070E087E090E044DA9090D429692D8D
:1058E00070E080E090E09E012F5F3F4F59018901F9
:1058F0000F2EFAE04F2E512C612C712CF02D7801D7
:105900003FEFE31AF30A6701A30192010E94C83A2C
:10591000605DF8016083622F732F842F952F6115CE
:1059200071058105910511F08701E9CFCA18DB08DF
:10593000C60101971816190684F4D501AC0DBD1DDA
:10594000F50120E030E040815E9151934C932F5F50
:105950003F4F019728173907B4F3F9E0F91520F004
:10596000898190E399838A83498150E001E010E0C6
:1059700021E030E063E070E08AE090E0F2D94A8113
:1059800050E021E030E063E070E08DE090E0E9D9A4
:105990000F900F90DF91CF911F910F91FF90EF909B
:1059A000DF90CF90BF90AF909F907F906F905F906F
:1059B0004F9008957F928F929F92AF92BF92CF9215
:1059C000DF92EF92FF920F931F93CF93DF9300D05C
:1059D000CDB7DEB701E010E021E030E047E550E070
:1059E0006AE070E081E090E0BCD921E030E045E47D
:1059F00050E06AE070E085E090E0B3D921E030E06B
:105A000045E450E06AE070E089E090E0AAD921E046
:105A100030E04BE450E06AE070E08DE090E0A1D926
:105A20007090D329672D70E080E090E08E010F5FC9
:105A30001F4F0F2EFAE08F2E912CA12CB12CF02DA0
:105A400078012FEFE21AF20A6701A50194010E9482
:105A5000C83A605DF8016083622F732F842F952F01
:105A6000611571058105910511F08701E9CFCE011E
:105A70000196C81AD90AC601019718161906A4F486
:105A8000A1E0B0E0AC0FBD1FAC0DBD1DFE01319615
:105A900020E030E040815E9151934C932F5F3F4F67
:105AA000019728173907B4F3F9E0F71520F0898139
:105AB00090E399838A83498150E001E010E021E07E
:105AC00030E063E070E085E090E04BD94A8150E03F
:105AD00021E030E063E070E089E090E042D90F908F
