:10000000BEC60000F2C60000F0C60000EEC600004A
:10001000ECC60000EAC60000F7C60000E6C6000015
:10002000E4C60000E2C600000C94EB10DEC600003F
:10003000DCC60000DAC600000C94792FD6C600009A
:100040000C9478300C94A030D0C60000CEC60000CE
:100050000C94AF14CAC60000C8C60000C6C6000093
:10006000C4C60000C2C60000C0C60000BEC6000074
:10007000BCC60000BAC60000B8C60000B6C6000084
:10008000B4C60000B2C600000C94890FAEC60000D2
:10009000ACC60000AAC60000A8C60000A6C60000A4
:1000A000A4C60000A2C60000A0C600009EC60000B4
:1000B0009CC600009AC6000098C6000096C60000C4
:1000C00094C6000092C6000090C600008EC60000D4
:1000D0008CC600008AC6000088C6000086C60000E4
:1000E00084C6000082C6000080C600007EC60000F4
:1000F0007CC600007AC6000078C6000076C6000004
:1001000074C6000072C600000C94600F0C94C00FFF
:100110006CC600006AC6000068C6000066C6000023
:1001200064C6000062C6000060C600005EC6000033
:100130005CC600005AC6000058C6000056C6000043
:1001400054C6000052C6000050C600004EC6000053
:100150004CC600004AC6000048C6000046C6000063
:100160000C94610A42C6000040C600003EC6000072
:100170003CC600003AC6000038C6000036C6000083
:1001800034C6000032C6000030C600002EC6000093
:100190002CC600002AC6000028C6000026C60000A3
:1001A00024C6000022C6000020C600001EC60000B3
:1001B0001CC600001AC6000018C6000016C60000C3
:1001C00014C6000012C6000010C600000EC60000D3
:1001D0000CC600000AC6000008C6000006C60000E3
:1001E00004C6000002C6000000C60000FEC50000F4
:1001F000FCC50000FAC50000F8C50000E110CD10F4
:10020000E110E310E110E310E110E110E310E11060
:10021000E310E110F72DFE2D522F6F2E522F522F8B
:10022000522F492F522F522F522F522F522F522FCF
:10023000522F522F522F522F522F522F522F522FB6
:10024000522F522F522F522F522F522F522F522FA6
:10025000522F522F522F522F522F522F522F522F96
:10026000522F522F522F522F522F522F522F522F86
:10027000522F522F522F522FFB2E012F122F232F8E
:10028000372F000000000000205070502000207028
:10029000507020000050707020000020707020000E
:1002A000207070207000202070207000000020005E
:1002B0000000F0F0D0F0F0F0007050700000F0801E
:1002C000A080F0F00030106060002050207020000E
:1002D000203020206000203050102000207050700E
:1002E00020004060706040001030703010002070BE
:1002F0002070200050505000500070D0D05050005E
:1003000030605030600000000000700020702070ED
:10031000207020702020200020202070200000204D
:10032000F02000000040F04000000000407000009D
:1003300000507050000000207070000000707020AD
:10034000000000000000000020202000200050508D
:10035000000000005070507050002030603060206D
:1003600040102040100020503050700060400000CD
:10037000000020404040200040202020400050202D
:10038000702050000020702000000000000060403D
:10039000000070000000000000002000101020404D
:1003A000400020505050200020602020700060103D
:1003B000204070006010201060001050701010007D
:1003C00070406010600020406050200070103020AD
:1003D000200020502050200020503010200000002D
:1003E000200020000000200060401020402010006D
:1003F00000007000700040201020400060102000BD
:1004000020007050504070002050705050006050DC
:1004100060506000304040403000605050506000FC
:10042000704060407000704060404000304050506C
:10043000300050507050500070202020700010107C
:10044000105020005050605050004040404070001C
:1004500050707050500060505050500070505050CC
:10046000700060506040400020505070300060507C
:10047000605050003040701060007020202020003C
:1004800050505050700050505050200050507070DC
:10049000500050502050500050502020200070102C
:1004A000204070006040404060004040201010003C
:1004B00060202020600020500000000000000000AC
:1004C00000F060200000000000003050700040404C
:1004D000605060000000304030001010305030009C
:1004E000000070603000102070202000000070506C
:1004F000107040406050500020002020200020005C
:10050000202020604040506050002020202020000B
:10051000000070705000000060505000000020503B
:10052000200000006050604000003050301000009B
:10053000604040000000302060000020702030004B
:10054000000050507000000050502000000050701B
:10055000700000005020500000005050204000006B
:10056000602030003020602030002020202020003B
:1005700060203020600050A000000000002050707B
:10058000000030404070204050005050300010209B
:1005900070603000205030507000500030507000BB
:1005A00040203050700020003050700000704070CB
:1005B000206020507060300050007060300040209B
:1005C00070603000500020202000205000202000CB
:1005D00040200020200050205070500020205070FB
:1005E00050001020706070000000307060003060BB
:1005F00070607000205020502000500020502000DB
:1006000040202050200020500050700040205050CA
:10061000700050005050204050205050200050009A
:10062000505070002070407020001020702070002A
:10063000507020702000006060505000302030204A
:10064000600010203050700010200020200010208A
:1006500070507000102000507000700070505000FA
:10066000700050705000305070007000205020001A
:10067000700020002040300000704040000000E08A
:1006800020200000405020503000405020701000CA
:100690002000202020000050A050000000A050A00A
:1006A000000040104010401050A050A050A0B0E0FA
:1006B000B0E0B0E02020202020202020E0202020DA
:1006C00020E020E020205050D05050500000F0504A
:1006D000505000E020E0202050D010D0505050501A
:1006E0005050505000F010D0505050D010F000003A
:1006F0005050F000000020E020E000000000E0206A
:1007000020202020300000002020F0000000000009
:10071000F02020202020302020200000F0000000C9
:100720002020F02020202030203020205050505019
:10073000505050504070000000704050505050D009
:1007400000F0000000F000D0505050504050505089
:1007500000F000F0000050D000D0505020F000F029
:1007600000005050F000000000F000F020200000D9
:10077000F0505050505070000000203020300000E9
:100780000030203020200000705050505050D05089
:10079000505020F000F020202020E0000000000059
:1007A00030202020F0F0F0F0F0F0000000F0F0F049
:1007B000C0C0C0C0C0C0303030303030F0F0F000C9
:1007C0000000000070607000205060506040705069
:1007D0004040400070505050500070402040700029
:1007E0000000305020000000505070400010602089
:1007F00020007020502070002050705020000020F9
:1008000050505000304020502000000070507000C8
:100810002070507020003040704030002050505008
:100820005000700070007000207020007000601098
:100830006000700030403000700000102020202048
:100840002020202040002000700020000050A050F8
:10085000A0002050200000000020702000000000B8
:100860002000000030202060200070505000000068
:100870006020406000000000606000000000000098
:10088000000000000000003E5B4F5B3E3E6B4F6B84
:100890003E1C3E7C3E1C183C7E3C181C577D571C61
:1008A0001C5E7F5E1C00183C1800FFE7C3E7FF00DA
:1008B00018241800FFE7DBE7FF30483A060E262928
:1008C000792926407F050507407F05253F5A3CE7EB
:1008D0003C5A7F3E1C1C08081C1C3E7F14227F22B1
:1008E000145F5F005F5F06097F017F006689956A7C
:1008F000606060606094A2FFA29408047E04081007
:10090000207E201008082A1C08081C2A08081E102F
:100910001010100C1E0C1E0C30383E3830060E3EE7
:100920000E06000000000000005F00000007000746
:1009300000147F147F14242A7F2A12231308646270
:1009400036495620500008070300001C22410000D1
:1009500041221C002A1C7F1C2A08083E080800802F
:1009600070300008080808080000606000201008C7
:1009700004023E5149453E00427F400072494949C8
:10098000462141494D331814127F102745454539FA
:100990003C4A4949314121110907364949493646FE
:1009A0004949291E000014000000403400000008DE
:1009B0001422411414141414004122140802015981
:1009C00009063E415D594E7C1211127C7F4949490E
:1009D000363E414141227F4141413E7F49494941A3
:1009E0007F090909013E414151737F0808087F00D2
:1009F000417F41002040413F017F081422417F4058
:100A00004040407F021C027F7F0408107F3E41412E
:100A1000413E7F090909063E4151215E7F0919299E
:100A200046264949493203017F01033F4040403F88
:100A30001F2040201F3F4038403F631408146303C9
:100A4000047804036159494D43007F414141020448
:100A5000081020004141417F04020102044040404F
:100A60004040000307080020545478407F28444445
:100A7000383844444428384444287F38545454185F
:100A800000087E090218A4A49C787F08040478005A
:100A9000447D40002040403D007F1028440000413C
:100AA0007F40007C047804787C080404783844444F
:100AB0004438FC1824241818242418FC7C08040446
:100AC00008485454542404043F44243C4040207CAF
:100AD0001C2040201C3C4030403C44281028444C02
:100AE0009090907C4464544C4400083641000000CF
:100AF000770000004136080002010204023C262370
:100B0000263C1EA1A161123A4040207A3854545527
:100B100059215555794121545478412155547840F3
:100B200020545579400C1E52721239555555593979
:100B30005454545939555454580000457C410002CE
:100B4000457D420001457C40F0292429F0F028250C
:100B500028F07C545545002054547C547C0A097F6D
:100B60004932494949323248484832324A48483085
:100B70003A4141217A3A42402078009DA0A07D3937
:100B8000444444393D4040403D3C24FF2424487EB9
:100B90004943662B2FFC2F2BFF0929F620C0887EA6
:100BA000090320545479410000447D413048484AAB
:100BB00032384040227A007A0A0A727D0D19317D5E
:100BC0002629292F28262929292630484D40203832
:100BD0000808080808080808382F10C8ACBA2F10F1
:100BE0002834FA00007B000008142A142222142A58
:100BF0001408AA005500AAAA55AA55AA000000FF89
:100C000000101010FF00141414FF001010FF00FF5C
:100C10001010F010F0141414FC001414F700FF006E
:100C200000FF00FF1414F404FC141417101F10101C
:100C30001F101F1414141F00101010F000000000EB
:100C40001F101010101F10101010F010000000FFE7
:100C5000101010101010101010FF10000000FF14E2
:100C60000000FF00FF00001F10170000FC04F41438
:100C7000141710171414F404F40000FF00F71414F0
:100C80001414141414F700F7141414171410101F6C
:100C9000101F141414F4141010F010F000001F10A2
:100CA0001F0000001F14000000FC140000F010F0F2
:100CB0001010FF10FF141414FF141010101F000068
:100CC0000000F010FFFFFFFFFFF0F0F0F0F0FFFF7B
:100CD000FF0000000000FFFF0F0F0F0F0F3844440C
:100CE00038447C2A2A3E147E02020606027E027ED8
:100CF0000263554941633844443C04407E201E2031
:100D000006027E020299A5E7A5991C2A492A1C4CD5
:100D10007201724C304A4D4D303048784830BC62D8
:100D20005A463D3E494949007E0101017E2A2A2A50
:100D30002A2A44445F444440514A444040444A5172
:100D4000400000FF0103E080FF000008086B6B0813
:100D50003612362436060F090F0600001818000058
:100D6000001010003040FF0101001F01011E00199A
:100D70001D1712003C3C3C3C000000000000E6E671
:100D8000F7E2E370FF27EA59F84D2FEF3FE22C7F9F
:100D9000E217F30758F48EED9DEAAEEBBFEE8193B8
:100DA0009193A193B193E217F307C8F311241FBEE7
:100DB000CFEFCDBFDFE2DEBF14E2A0E0B0E2EAE7B2
:100DC000FBE600E00BBF02C007900D92A434B10710
:100DD000D9F727E2A4E4B4E201C01D92A636B20717
:100DE000E1F70E94E92F0C94BB350AC9E0E5F0E079
:100DF000808182608083818181FFFDCF88ED84BF07
:100E000081E08093400008951F920F920FB60F92D9
:100E100011240BB60F928F93EF93FF93E0E0F1E074
:100E2000818985FF06C081898062818B109242266C
:100E300008C0E0E0F1E081898061818B81E08093EE
:100E4000422681E080934326FF91EF918F910F908E
:100E50000BBE0F900FBE0F901F901895E0ECF1E0C5
:100E600087858823ECF30895F9DFE0ECF1E08785CE
:100E700081FF10C086E38287EF93FF930F932F9338
:100E8000EBECF1E008ED21E004BF20832F910F91FE
:100E9000FF91EF9108951F93CF93DF93182FD62FD3
:100EA000C42FE2DFE0ECF1E083E3828720E2129FCF
:100EB000C0011124DF718D2B8083892F8F71818375
:100EC0001282C48385E38287EF93FF930F932F935E
:100ED000EBECF1E008ED21E004BF20832F910F91AE
:100EE000FF91EF91DF91CF911F910895B7DF80E3DC
:100EF000E0ECF1E08287EF93FF930F932F93EBECFD
:100F0000F1E008ED21E004BF20832F910F91FF91C4
:100F1000EF910895AF92BF92CF92DF92EF92FF923E
:100F20000F931F93CF93DF93CDB7DEB7CF55D10982
:100F3000CDBFDEBF99DFE0ECF1E08485877F848759
:100F40008FE5EFE7F5E29E012F5F3F4FD90101905A
:100F50000D928A95E1F76901A12C7901E094F09452
:100F600017C0F80141918F016B2D8A2D94DF9701F5
:100F7000200F311F2F35310520F4B394F0E2BF125A
:100F8000F0CF80E2C80ED11CA394E3E0AE1619F0B6
:100F90008601B12CE6CF81E0C15ADF4FCDBFDEBF65
:100FA000DF91CF911F910F91FF90EF90DF90CF9045
:100FB000BF90AF900895DF92EF92FF920F931F932F
:100FC000CF93DF93CDB7DEB7C455D640CDBFDEBFDC
:100FD0001092222540E061E074E2CE0101960E9469
:100FE0007E28FE01EB5AFD4F80E094E0DF019C017A
:100FF0001D9221503040E1F741E061EC70E2CE01FA
:101000008D5C9D4F0E94CE28811156C08E010B5AD7
:101010001D4F0F2EF7E0DF2EF02D0F2EFDEDEF2EE2
:10102000F0E2FF2EF02D9E012D5A3D4F40E054E09E
:10103000B801CE018D5C9D4F0E94DE29D09212270F
:101040008AEC90E20E94CD303FEF80E792E0315091
:1010500080409040E1F700C000001F930F93FF9283
:10106000EF920E94EF32AFEFB0E722E0A150B04024
:101070002040E1F700C000000F900F900F900F90FC
:10108000C75CDD4F488159816A817B81C953D24059
:10109000C35CDD4F88819981AA81BB81CD53D24049
:1010A000481759076A077B0709F0BDCFCE018D5C51
:1010B0009D4F0E945C2B04C080EE90E20E94CD30D8
:1010C00041E06CEF70E2CE018D5C9D4F0E94CE2816
:1010D00081114FC08E010B5A1D4F0F2EF7E0DF2EEE
:1010E000F02D0F2EFDEDEF2EF0E2FF2EF02D9E01E4
:1010F0002D5A3D4F40E054E0B801CE018D5C9D4F2C
:101100000E94DE29D09212278AEC90E20E94CD3014
:1011100080911227813009F0FFCFD09212271F93C0
:101120000F93FF92EF920E94EF320F900F900F906B
:101130000F9080911227813009F0FFCFC75CDD4FFF
:10114000488159816A817B81C953D240C35CDD4F9C
:1011500088819981AA81BB81CD53D2404817590714
:101160006A077B0721F6CE018D5C9D4F0E945C2BA8
:1011700004C080EE90E20E94CD30CC5AD94FCDBF52
:10118000DEBFDF91CF911F910F91FF90EF90DF9025
:101190000895E0E6F6E080E2818385832FEF83EC1B
:1011A00099E0215080409040E1F700C00000089590
:1011B00080E2E0E6F6E086830895EF92FF920F93D7
:1011C0001F93CF93DF93CDB7DEB7C456D109CDBF00
:1011D000DEBF7B012BE0EFE4F1E28E010F5F1F4FDA
:1011E000D80101900D922A95E1F7BC01C8010E9437
:1011F000B032F80101900020E9F7319742E25CE259
:1012000062E270E04083518362837383B701C80157
:101210000E94B032F80101900020E9F7319782E294
:1012200090E08083918387E080931227C8010E9419
:10123000CD302FEF43EC89E0215040408040E1F772
:1012400000C0000028E930E012C09FEF47E883E1CA
:10125000915040408040E1F700C00000215031092A
:1012600021153105D9F0809112278823C1F0809192
:101270001227813051F787E0809312278AE591E2A7
:101280000E94CD309FEF23EC49E091502040404038
:10129000E1F700C000008091122701C083E0CC5923
:1012A000DF4FCDBFDEBFDF91CF911F910F91FF9038
:1012B000EF900895CF93DF93C82FD62F97E09093A8
:1012C000122786EA91E20E94CD302FEF87EA91E65D
:1012D000215080409040E1F700C00000909112271B
:1012E000913009F0B1C0CC23B1F087E08093122790
:1012F0008EEA91E20E94CD302FEF83EC99E02150ED
:1013000080409040E1F700C00000C0911227C1303A
:1013100009F09CC05FC0DD2389F087E0809312272D
:101320008AEB91E20E94CD302FEF83EC99E02150BF
:1013300080409040E1F700C000008CC087E08093BF
:1013400012278DE291E20E94CD302FEF83EC99E0DD
:10135000215080409040E1F700C000007BC063EB6B
:1013600075E287EC95E229DF97E09093122786ECEF
:1013700091E20E94CD302FEF83EC99E02150804024
:101380009040E1F700C0000060E088EA96E28DD46A
:1013900097E0909312278FEC91E20E94CD302FEFCF
:1013A00083EC99E0215080409040E1F700C00000BC
:1013B00097E0909312278BED91E20E94CD302FEFB2
:1013C00083EC99E0215080409040E1F700C000009C
:1013D0008C2F45C087E08093122786EC91E20E9413
:1013E000CD302FEF83EC99E0215080409040E1F721
:1013F00000C0000060E088EA96E257D487E080935E
:1014000012278FEC91E20E94CD302FEF83EC99E010
:10141000215080409040E1F700C0000087E08093B9
:1014200012278DEE91E20E94CD302FEF83EC99E0F0
:10143000215080409040E1F700C0000060E081E072
:1014400092E233D48C2F0BC0892F09C08C2F07C098
:101450008C2F05C0C0911227C130D1F780CFDF910A
:10146000CF91089580912025909121258536910571
:1014700038F12FEF37EA81E6215030408040E1F724
:1014800000C0000098DD94E52DEC3DE283E0915032
:10149000204030408040D9F700C000C0000087E005
:1014A000809312278BE092E20E94CD309FEF23ECD5
:1014B00039E0915020403040E1F700C00000FFCFFC
:1014C00008951F920F920FB60F9211240BB60F9230
:1014D0002F933F934F935F936F937F938F939F933C
:1014E000AF93BF93EF93FF934091A0094A3009F067
:1014F00091C06AE172E284E494E20E94D532892BC1
:1015000041F46DE172E284E494E20E94D532892BC9
:1015100021F081E08093122765C063E272E284E4E7
:1015200094E20E94D532892B41F469E272E284E4AC
:1015300094E20E94D532892B19F01092122752C0E2
:101540006EE272E284E494E20E94D532892B21F0AB
:1015500084E08093122746C066E372E284E494E25A
:101560000E94D532892B21F086E0809312273AC061
:101570006DE372E284E494E20E94D532892B49F053
:1015800043E250E064E474E28FEE96E20E94C632D9
:1015900029C062E472E284E494E20E94D532892B8D
:1015A00071F062E270E084E494E20E94BB3243E1B5
:1015B00050E0BC0188EA96E20E94C63213C066E49D
:1015C00072E284E494E20E94D532892B59F081E0E2
:1015D0008093222542E350E064E474E28CEB96E2CF
:1015E0000E94C6326BE770E084E494E20E94BB3252
:1015F000892B21F081E08093232526C0109220259D
:10160000109221258CEDE4E4F4E2DF011D928A952D
:10161000E9F71AC080912025909121259C012F5F28
:101620003F4F2093202530932125FC01EC5BFB4D9F
:10163000408380912025909121258C3D910521F4B6
:101640001092202510922125FF91EF91BF91AF912B
:101650009F918F917F916F915F914F913F912F91CA
:101660000F900BBE0F900FBE0F901F9018959C010E
:10167000803191050CF06AC0603171050CF066C0D4
:101680008FE090E0861B970B68E170E00E940031CC
:101690008830910534F08031910534F467E870E0CA
:1016A00005C067E070E002C067E071E08770907885
:1016B000992324F40197886F9F6F0196FB01E81B23
:1016C000F90BCF01283031051CF4220F331F04C061
:1016D000220F331F2F503109220F331F220F331FC8
:1016E000220F331F280F391F4423C1F0F901F6954B
:1016F000E795F695E795F695E795EC5DFA4D277039
:10170000332781E090E0AC0102C0440F551F2A95B9
:10171000E2F79A018081282B20830895F901F6953C
:10172000E795F695E795F695E795EC5DFA4D277008
:10173000332781E090E0AC0102C0440F551F2A9589
:10174000E2F79A01209580812823208308958F92C3
:101750009F92AF92BF92CF92DF92EF92FF920F9340
:101760001F93CF93DF93982EC82FD0E05E01A40E75
:10177000B11CCA15DB05E4F4C62ED12C7601E20EAD
:10178000F11C862E0FC0402FCE0171DF1F5F612F2D
:1017900070E06E157F05BCF39394C92DD0E0CA1597
:1017A000DB0534F4B601CE14DF04B4F7182DEBCF0B
:1017B000DF91CF911F910F91FF90EF90DF90CF902D
:1017C000BF90AF909F908F900895CF93DF9328E0C4
:1017D000E0E8F6E021836623C1F074E041E050E0E8
:1017E000A8E076832FEF260FEA0102C0CC0FDD1FA1
:1017F0002A95E2F79E0128233923232B11F0A58394
:1018000001C0A6837583615061F788E0E0E8F6E0E7
:101810008683DF91CF9108950F931F93CF93DF932A
:1018200081E0E0E8F6E0868363E085E090E0CDDFEC
:1018300067E080E090E0C9DFC5E2D5E205E415E2AB
:10184000FE013197808190E0982F8827288160E100
:10185000822BBBDF2296C017D10791F781E0E0E829
:10186000F6E08583DF91CF911F910F910895E4E217
:10187000F5E284E495E21192E817F907E1F7CCCF9D
:1018800008951F93CF93DF9390E09460C0E8D6E073
:1018900011E01E836CE0880F991F97DF1D83DF9195
:1018A000CF911F910895CF93C82FE0E8F6E091E023
:1018B0009183958394E09183958388E0818381E08F
:1018C000E0DF83E0DEDF88E0DCDF84E1DADF88E18F
:1018D000D8DF8C2FD6DF81EAD4DFCF91089588231B
:1018E0000CF480E080310CF08FE0806ACACF08955C
:1018F00070E09B01220F331F220F331F620F731FF3
:10190000FB01EE57F74FDA01A80FB91FCB0189573A
:10191000974F34913295432F4373440F440F232F35
:101920002C7C26952695242B322F3575330F2A7A59
:101930002695232B2D933196E817F90751F7089533
:101940002F923F924F925F926F927F928F929F92CF
:10195000AF92BF92CF92DF92EF92FF920F931F93BD
:10196000CF93DF9300D01F92CDB7DEB7222E402E4B
:1019700050E05A01AA0CBB1CAA0CBB1C4A0D5B1DF3
:101980009A012E57374F5901C82ED92E382E3601BD
:1019900035E0630E711C802F880F880F880F801B25
:1019A0004B0196E0890E911C7B01E1E0EE1AF108F3
:1019B000860F8983F50114918A829B82598010FFDA
:1019C00011C0F1E04F1208C0DD2064F0422D6A81A1
:1019D0007B81C6014CDE06C0022D242D442D652DD1
:1019E000832DB5DE16952A813B81215031092A834A
:1019F0003B8354182E153F0511F73FEFA31AB30A86
:101A00008FEFC81AD80A340CC614D70499F6239657
:101A1000CDBFDEBFDF91CF911F910F91FF90EF906F
:101A2000DF90CF90BF90AF909F908F907F906F90FE
:101A30005F904F903F902F900895CF92DF92EF925A
:101A4000FF920F931F93CF93DF93CDB7DEB7259708
:101A5000CDBFDEBF70E0FB01EE0FFF1F6E0F7F1FDB
:101A6000FB01EE0FFF1FEE57FD4F9E012F5F3F4F13
:101A7000690165E070E00396480F591F84918295D3
:101A80008F70D6018D936D01DA0123E030E0082FCD
:101A9000017010E07801062E02C0EE0CFF1C0A94C3
:101AA000E2F79E91E92AEC928695215031092115A1
:101AB000310569F761507109319661157105F1F6CB
:101AC0002596CDBFDEBFDF91CF911F910F91FF9083
:101AD000EF90DF90CF9008950F93CF93DF93C09155
:101AE0000C20D0910B2001E021E041E06C2F8D2FE4
:101AF0002EDEC73030F0D93021F4C150C0930C2015
:101B00001FC0C63031F4D73030F0D150D0930B2005
:101B100017C0C93030F4D63021F4CF5FC0930C2009
:101B20000FC0C93069F4D93058F4DF5FD0930B206F
:101B3000D93031F490910A2081E0892780930A20DE
:101B400000E021E041E060910C2080910B20FFDD5E
:101B500063DEDF91CF910F910895CF93DF9332E051
:101B600020E0C2E3D5E2A5E2B5E202C02E5F3E5F0F
:101B7000E22F2E3019F44C914883F8CF2E3129F4FE
:101B8000809135258093422509C0FF27E7FDF09518
:101B9000EC5DFA4D428140833F3144F393E081E0B4
:101BA000A3E3B5E202C08E5F9E5FE82F8F3011F491
:101BB0001C92F9CF8F3119F41092432509C0FF27E9
:101BC000E7FDF095EC5DFA4D2281208390325CF3C5
:101BD00023DE2FEF89EF90E0215080409040E1F725
:101BE00000C00000DF91CF9108959F92AF92BF9205
:101BF000CF92DF92EF92FF920F931F93CF93DF93D9
:101C0000962EE62EF12CE114F10461F1C82FD92FA4
:101C100000E010E00F2EF3E3AF2EF5E2BF2EF02D23
:101C20000F2EF3E4CF2EF5E2DF2EF02D96DFFE012E
:101C30008991869586958695D5018C93808182952C
:101C4000880F807EF6018083FFEF2AE683E0F15063
:101C500020408040E1F700C000000F5F1F4F0E15CD
:101C60001F0520F396949694092D10E00115110597
:101C700081F0C0E0D0E071DF9FEFAAE6B3E09150C1
:101C8000A040B040E1F700C000002196C017D10786
:101C900090F3DF91CF911F910F91FF90EF90DF9024
:101CA000CF90BF90AF909F9008959F92AF92BF92B8
:101CB000CF92DF92EF92FF920F931F93CF93DF9318
:101CC000EC01962E662381F0FC0101900020E9F7DB
:101CD0003197E81BF90B5F01AA0CBB1CEA0DFB1D39
:101CE0005F01AA0CBB1C0CC0FC0101900020E9F7AD
:101CF0003197E81BF90B5F01AA0CBB1CAA0CBB1C9B
:101D000061E070E0C5010E9468316C017E0100E075
:101D100010E0C0E0D0E00CC0992021F0A601CE0177
:101D2000E7DD03C0A601C80188DE26960C5F1F4FC1
:101D3000F70161917F016111EFCF6A2DC60155DF77
:101D4000C6010E941A32DF91CF911F910F91FF902F
:101D5000EF90DF90CF90BF90AF909F900895E0E01C
:101D6000F6E09281906E9283E0E2F6E092819160DB
:101D70009283882341F1E0E0F6E085898260858BDB
:101D800086898260868B87898260878BA0E2B6E035
:101D900050968C915097826050968C935097828584
:101DA000806E82871A968C911A9781601A968C930E
:101DB0001A9781858360818719968C911997836022
:101DC00019968C930895E0E0F6E085898D7F858BE8
:101DD00086898D7F868B87898D7F878BA0E2B6E091
:101DE00050968C9150978D7F50968C93509782850A
:101DF0008F7182871A968C911A978E7F1A968C9380
:101E00001A9781858C7F818719968C9119978C7F81
:101E100019968C930895E0E0F6E0828184608283D5
:101E200082898260828B83858460838781858C60D0
:101E300081870895CF93DF93E0E0F6E0808585FD0C
:101E40000BC0C0E2D3E0898590E00E94DF30898535
:101E50008F5F898781E031C0E0E0F6E0808586FD14
:101E60000BC0C0E2D3E0898590E00E94DF30898515
:101E70008150898782E021C0E0E0F6E080858823F8
:101E80005CF0C0E2D3E0888590E00E94DF30888576
:101E90008F5F888783E011C0E0E2F6E0808580FDF7
:101EA0000BC0C0E2D3E0888590E00E94DF308885D7
:101EB0008150888784E001C080E0DF91CF91089550
:101EC0001F920F920FB60F9211240BB60F922F9301
:101ED0003F934F935F936F937F938F939F93AF93B2
:101EE000BF93EF93FF93A6DF8093BB26FF91EF9103
:101EF000BF91AF919F918F917F916F915F914F9122
:101F00003F912F910F900BBE0F900FBE0F901F901F
:101F100018951F920F920FB60F9211240BB60F92C5
:101F20002F933F934F935F936F937F938F939F93E1
:101F3000AF93BF93EF93FF937DDF8093BB26809198
:101F4000BB261F928F938BE492E29F938F930E9404
:101F5000EF320F900F900F900F90FF91EF91BF9184
:101F6000AF919F918F917F916F915F914F913F9131
:101F70002F910F900BBE0F900FBE0F901F901895D2
:101F80001F920F920FB60F9211240BB60F92EF9281
:101F9000FF920F931F932F933F934F935F936F93F2
:101FA0007F938F939F93AF93BF93EF93FF93CF93C1
:101FB000DF9300D0CDB7DEB7EE24E394F12C8E0191
:101FC0000F5F1F4F21E230E042E350E06AE570E02E
:101FD00080E894E00E94D81B89818093EE268EE4ED
:101FE00092E20E9400330F900F90DF91CF91FF910A
:101FF000EF91BF91AF919F918F917F916F915F9181
:102000004F913F912F911F910F91FF90EF900F9063
:102010000BBE0F900FBE0F901F90189588ED84BFD8
:102020008BE0E0E4F0E08383E0E0F4E0818180FD98
:10203000FDCFE0E0F4E080E897E08287938782E0DC
:102040008283108611861486158687E08083089522
:102050006F927F928F929F92AF92BF92CF92DF92B8
:10206000EF92FF920F931F93CF93DF9300D0CDB7E2
:10207000DEB7782E662E70E080E090E08E010F5F74
:102080001F4F0F2EFAE08F2E912CA12CB12CF02D8A
:1020900078012FEFE21AF20A6701A50194010E946C
:1020A0001331605DF8016083622F732F842F952FA9
:1020B000611571058105910511F08701E9CFCE0108
:1020C0000196C81AD90AC601019718161906A4F470
:1020D000A1E0B0E0AC0FBD1FAC0DBD1DFE013196FF
:1020E00020E030E040815E9151934C932F5F3F4F51
:1020F000019728173907B4F3F9E0F61520F0898124
:1021000090E399838A83711007C000E028E040E1E2
:1021100060E080E01CDB06C000E029E040E167E011
:1021200080E015DBE72CF12C01E021E030E0498173
:10213000B70181E090E004DC21E030E04A81B701A2
:1021400089E090E0FDDB0F900F90DF91CF911F9120
:102150000F91FF90EF90DF90CF90BF90AF909F9046
:102160008F907F906F9008951092DB2560918C2561
:1021700080E06EDF60918D2589E06ADF81E08093E9
:102180000D2008959B0190E0FC013197EC30F105A2
:10219000B8F4E250FF4F0C943531862F932FAB01EA
:1021A00043705527452B89F469E170E00E940031A6
:1021B000892B69F42F703327232B59F08CE1089574
:1021C00008958FE108958EE108958CE108958DE1E1
:1021D00008958DE108951F920F920FB60F9211246A
:1021E0000BB60F920F931F932F933F934F935F93D1
:1021F0006F937F938F939F93AF93BF93CF93DF930F
:10220000EF93FF93ECE8F5E260816F5F60836C33DE
:1022100009F05EC010928C2580910D20882321F05A
:1022200060E080E015DFF8DAEDE8F5E260816F5FED
:102230006083683109F042C080918F25863021F09B
:102240008F5F80938F250DC010928F2580919025F0
:10225000843321F08F5F8093902503C081E08093C9
:102260009025EEE8F5E2108181E0810F8083C09136
:102270009225D091932500919125BE01802F82DF78
:10228000181311C081E080938E250C3021F00F5F70
:102290000093912508C081E0809391252196C093F9
:1022A0009225D093932510928D2580910D2088231F
:1022B00061F060E089E0CCDEAFDA07C080910D20EC
:1022C000882319F089E0C4DEA7DA10928C2507C0B4
:1022D00080910D20882319F080E0BADE9DDAFF910D
:1022E000EF91DF91CF91BF91AF919F918F917F91AE
:1022F0006F915F914F913F912F911F910F910F908F
:102300000BBE0F900FBE0F901F901895DF92EF92AB
:10231000FF920F931F93CF93DF93EC01D62E60E2D1
:102320003CD68C01992334F160E3CE0136D681305E
:10233000910581F19923C4F739C060E2CE012DD611
:102340008017910751F199238CF18C01EDCF780121
:102350004D2D68E1CE0104D69C01009769F4DD2083
:1023600069F060E2CE0119D68E159F0551F4112354
:10237000C4F70AC0912F1AC0932F18C080E090E0D4
:1023800015C080E090E012C0802F912F0FC0822FE7
:10239000932F0CC0D110D1CFDACF78014D2D68E149
:1023A000CE01DED59C010097E1F2F1CFDF91CF9114
:1023B0001F910F91FF90EF90DF900895CF92DF92E1
:1023C000EF920F931F93CF93DF9300D0CDB7DEB77B
:1023D0006C018091442590914525F6018283938379
:1023E0006894EE24E1F88E010F5F1F4F26E242E36E
:1023F0006AE580E894E00E94D81B8A8190E0982FDB
:1024000088272981822BF6018287938728E242E37D
:102410006AE580E894E00E94D81B8A8190E0982FBA
:1024200088272981822BF601848795872AE242E357
:102430006AE580E894E00E94D81B8A8190E0982F9A
:1024400088272981822BF6018687978724E242E339
:102450006AE580E894E00E94D81B8A8190E0982F7A
:1024600088272981822BF6018087918722E242E327
:102470006AE580E894E00E94D81B8A8190E0982F5A
:1024800088272981822BF6018683978380E00F902D
:102490000F90DF91CF911F910F91EF90DF90CF9030
:1024A000089560E033CF08956DE030CF08956FE078
:1024B0002DCF0895CF92DF92EF92FF920F931F934B
:1024C000CF93DF9300D0CDB7DEB78C01D62EC42ECC
:1024D00060E3C80162D58130910579F09923C4F792
:1024E0001EC060E2C80159D58E159F05D1F318169C
:1024F0001906ACF480E090E012C060E2C8014DD54E
:102500007C01C9828D2D8F7180568A839E012F5F39
:102510003F4F42E067E1C8015CD5009711F30F908F
:102520000F90DF91CF911F910F91FF90EF90DF906F
:10253000CF900895CF93DF93EC0160E2CE012DD5CB
:10254000892B19F0CE01ADDFF8CF6BE0CE01DEDED6
:1025500060E2CE0122D5892BD9F360E2CE011DD5F0
:10256000019759F780E090E0DF91CF9108950F93A4
:102570001F93CF93DF93EC0140E068E0F1D48C012E
:10258000CE01D8DF080F191F40E068E0CE01E8D483
:10259000080F191F40E064E0CE01E2D4080F191FB4
:1025A00040E065E0CE01DCD4080F191F40E066E092
:1025B000CE01D6D4080F191F40E063E0CE01D0D47D
:1025C000080F191F4FEF61E2CE01CAD4080F191F7F
:1025D00041E068E1CE01C4D4080F191F0AD547E1D4
:1025E00067E0CE01BDD4800F911FDF91CF911F9185
:1025F0000F9108950F931F93CF93DF93EC0140E069
:1026000068E0AED48C0140E06AE0CE01A9D4080FA6
:10261000191F40E069E0CE01A3D4080F191FCE01B5
:10262000A6DF080F191F4FE06FE0CE0199D4080F05
:10263000191F41E061E0CE013DDF080F191F43E0A3
:1026400063E0CE018DD4080F191F44E064E0CE0191
:1026500087D4080F191F40E365E0CE0181D4080F2D
:10266000191F43E067E0CE0125DF080F191F43E083
:102670006EE0CE011FDF080F191F40E06BE0CE01B6
:1026800019DF080F191F41E062E0CE0113DF080FC8
:10269000191F40E76AE0CE010DDF080F191F44E063
:1026A0006CE0CE0107DF080F191F40E861E1CE01A1
:1026B00057D4080F191F4CE062E1CE0151D4080F26
:1026C000191F44E968E0CE014BD4080F191F48E0F8
:1026D0006AE0CE0145D4080F191FCE01E5DE800F58
:1026E000911FDF91CF911F910F9108958AE590E09E
:1026F0003EDF2FEF81EE94E0215080409040E1F7E3
:1027000000C000008AE590E075DF85CB08950F9347
:102710001F93CF93DF93EC0140E068E021D48C015C
:1027200040E06AE0CE011CD4080F191F40E069E0C8
:10273000CE0116D4080F191FCE0119DF080F191F7B
:102740004FEF6FE0CE010CD4080F191F40E060E19D
:10275000CE0106D4080F191F47E761E0CE01AADEBB
:10276000080F191F41E063E0CE01FAD3080F191FCB
:102770004DE164E0CE01F4D3080F191F40E065E09D
:10278000CE01EED3080F191F40E066E0CE01E8D37A
:10279000080F191F43E067E0CE018CDE080F191FF8
:1027A00043E068E0CE0186DE080F191F43E069E0D0
:1027B000CE0180DE080F191F43E06EE0CE017ADE05
:1027C000080F191F40E06BE0CE0174DE080F191FDF
:1027D00040E06EE1CE016EDE080F191F40E061E1BE
:1027E000CE0168DE080F191F41E262E0CE0162DE11
:1027F000080F191F44E063E0CE015CDE080F191FCB
:1028000040E76AE0CE0156DE080F191F40E76DE190
:10281000CE0150DE080F191F40E760E1CE014ADE0D
:10282000080F191F44E06CE0CE0144DE080F191FA9
:1028300040E26FE1CE013EDE080F191F40E262E187
:10284000CE0138DE080F191F44E968E0CE0188D3B5
:10285000080F191F48E06AE0CE0182D3080F191F44
:1028600048E069E0CE017CD3080F191FCE011FDEBE
:10287000800F911FDF91CF911F910F910895E0E498
:10288000F8E081E0808390E896A39CE097A386839C
:102890008AE590E06CDE2FEF81EE94E021508040DD
:1028A0009040E1F700C000008AE590E030CF089545
:1028B000EF92FF920F931F93CF93DF93EC01DFDF33
:1028C00080E880930E200F2EF2EEEF2EF2E2FF2E24
:1028D000F02D01E021E030E048E565E070E085E0C2
:1028E00090E02ED80E940C0CCE0168DD8B858F9372
:1028F0008A858F93FF92EF920E94EF328A859B85A3
:102900000F900F900F900F9081382CE0920708F7EE
:102910008093B1259093B2258FEF97EA21E68150FD
:1029200090402040E1F700C0000000E810E08091F6
:102930004425909145258A839B83CE013FDDBE01CE
:102940008AE590E017D2015011090115110579F7B8
:10295000DF91CF911F910F91FF90EF9008951F92FB
:102960000F920FB60F9211248F939F93809144255D
:1029700090914525019680934425909345259F91FC
:102980008F910F900FBE0F901F901895CF92DF92EE
:10299000EF92FF920F931F9340915525509156252A
:1029A0006091572570915825452B462B472B71F484
:1029B000FC014085518560E070E0409355255093BF
:1029C0005625609357257093582507C0FC01208534
:1029D000318521383B4B08F053C0FC0140855185BF
:1029E00060E070E08091552590915625A091572583
:1029F000B09158258C019D0136952795179507951F
:102A000068017901C80ED91EEA1EFB1E4C155D0532
:102A10006E057F0558F56C017D01C01AD10AE20AE6
:102A2000F30AC416D506E606F70600F58C019D01EB
:102A3000000F111F221F331F800F911FA21FB31FF2
:102A4000480F591F6A1F7B1F7695679557954795C5
:102A500076956795579547954093552550935625FC
:102A6000609357257093582581E00BC040935525FE
:102A700050935625609357257093582580E001C0E8
:102A800080E01F910F91FF90EF90DF90CF9008951D
:102A90000F931F93CF93DF93EB01813029F120F047
:102AA000823009F441C05FC00A851B85FA01A0810C
:102AB00088859985A80160E070E0480F591F611D65
:102AC000711D9A01AB01325041095109B0E00E94D9
:102AD0004A3120E137E240E050E00E941331200FFC
:102AE000311F2A873B873FC00C851D85FA01A181D4
:102AF00088859985A80160E070E0480F591F611D25
:102B0000711D9A01AB01325041095109B0E00E9498
:102B10004A3120E137E240E050E00E941331200FBB
:102B2000311F2C873D871FC00E851F85FA01A281AA
:102B300088859985A80160E070E0480F591F611DE4
:102B4000711D9A01AB01325041095109B0E00E9458
:102B50004A3120E137E240E050E00E941331200F7B
:102B6000311F2E873F87DF91CF911F910F910895DD
:102B70000F931F93CF93DF93813039F018F0823099
:102B800039F009C0FB013A9625C0FB013C9622C0F2
:102B9000FB013E961FC010924F25109250251092B7
:102BA00051251092522510925325109254251092BF
:102BB000492510924A2510924B2510924C251092CF
:102BC0004D2510924E2510924625109247251092C1
:102BD0004825CBC090E0DC01AA0FBB1FA15BBA4D1A
:102BE0002D913C91232BD9F460817181DC01AA0FD6
:102BF000BB1FA75ABA4D2D913C916217730740F441
:102C0000DC01AA0FBB1FA15BBA4D6D937C9307C07B
:102C1000DC01AA0FBB1FA15BBA4D2D933C936081D1
:102C20007181FC01EE0FFF1FE75AFA4D20813181BF
:102C30006217730708F077C0FC01EE0FFF1FE15B1E
:102C4000FA4D0190F081E02DDF01AA0FBB1FAA0F02
:102C5000BB1FAA0FBB1FAE1BBF0B8B0120E030E0D8
:102C60000A0F1B1F211D311D689412F836952795F8
:102C7000179507951694D1F7D8010024AA0FBB1F0A
:102C8000001CAA0FBB1F001CAB2FB02DED01C00F05
:102C9000D11FCE17DF0708F43FC0E801CA1BDB0BCA
:102CA000EC17FD07C8F1FC01EE0FFF1FE75BFA4DC3
:102CB0000190F081E02D309761F4FC01EE0FFF1FD1
:102CC000E75BFA4D60837183FC01EA5BFA4D108289
:102CD00023C0E617F707A8F0DC01AA5BBA4D6C9198
:102CE0006F5F6C936134C0F0DC01AA0FBB1FA75B60
:102CF000BA4D3197ED93FC93FC01EA5BFA4D1082DB
:102D00000BC0FC01EE0FFF1FE75BFA4D6083718380
:102D1000FC01EA5BFA4D1082FC01EE0FFF1FE15B44
:102D2000FA4D00831183FC01EE0FFF1FE75BFA4DA4
:102D3000208131812115310551F0FC01EE0FFF1F7B
:102D4000ED5EF84D420F531F408351830EC0880F34
:102D5000991FFC01ED5EF84DDC01A15BBA4D8D9130
:102D60009C91480F591F40835183DF91CF911F9150
:102D70000F910895EF92FF920F931F93CF93DF93DC
:102D80008C01EB012091592530915A25232BC9F450
:102D900080915B2590915C25892B99F480915D252C
:102DA00090915E25892B69F480911620803849F432
:102DB00087E692E20E94003360E070E081E090E0FC
:102DC000CED080911620882309F47FC0823048F14C
:102DD0008A859B852091592530915A2528173907D6
:102DE00020F48093592590935A258C859D852091B8
:102DF0005B2530915C252817390720F480935B25EB
:102E000090935C258E859F8520915D2530915E2570
:102E10002817390708F053C080935D2590935E25ED
:102E20004EC0CDE5D5E289818F9388818F930BE5E4
:102E300015E2F80181818F9380818F930F2EF9E540
:102E4000EF2EF5E2FF2EF02DF70181818F93808127
:102E50008F938BEA92E29F938F930E94EF326FEFF2
:102E600070E081E090E07BD080911420909115205B
:102E7000880F991FF70140815181480F591F4083E6
:102E80005183F80120813181280F391F208331833C
:102E900068817981860F971F8883998340931327D0
:102EA00050931427209315273093162780931727C4
:102EB000909318278DB79EB708968DBF9EBF8091BF
:102EC000162081508093162043C08A859B858138C7
:102ED0009B4B50F48C859D8581389B4B28F48E85C7
:102EE0009F8581389B4B28F087EE92E20E94003349
:102EF0002FC0CE014BDD882359F14FE050E2BE01D7
:102F000080E0C6DD4FE050E2BE0181E0C1DD4FE070
:102F100050E2BE0182E0BCDD4091142050911520AA
:102F2000BE0180E025DE4091142050911520BE01A5
:102F300081E01EDE4091142050911520BE0182E0F8
:102F400017DE4091122050911320BE01C8017DD19F
:102F5000DF91CF911F910F91FF90EF900895089509
:102F6000EF920F931F93CF93DF931F92CDB7DEB7EE
:102F7000262F4983EE24E3948E010F5F1F4F48EE06
:102F80006AE580E894E05AD480E090E00F90DF9109
:102F9000CF911F910F91EF900895EF920F931F9390
:102FA000CF93DF931F92CDB7DEB7262FEE24E394A5
:102FB0008E010F5F1F4F48EE6AE580E894E0F8D37A
:102FC000898190E00F90DF91CF911F910F91EF9049
:102FD0000895EF920F931F938901E42E262F48EE58
:102FE0006AE580E894E02AD490E01F910F91EF9079
:102FF00008952FEF89EF90E0215080409040E1F755
:1030000000C000000895EF92FF920F931F93CF939B
:10301000DF93CDB7DEB7C25AD109CDBFDEBF42E1E3
:10302000E7E2F0E2DE01119601900D924A95E1F798
:1030300042E1E9E3F0E2DE01539601900D924A95F8
:10304000E1F742E1EBE4F0E2DE01959601900D92AA
:103050004A95E1F742E1EDE5F0E2DE01D796019015
:103060000D924A95E1F742E1EFE6F0E2DE01A75B5F
:10307000BF4F01900D924A95E1F742E1E1E8F0E29D
:10308000DE01A55ABF4F01900D924A95E1F742E14A
:10309000EDE5F0E2DE01A359BF4F01900D924A9594
:1030A000E1F742E1EFE6F0E2DE01A158BF4F019007
:1030B0000D924A95E1F742E1E1E8F0E2DE01AF5618
:1030C000BF4F01900D924A95E1F7613099F54DA1FE
:1030D0005EA14817590760F0DE01979661E070E045
:1030E000E62FAB01ED90FD90E816F906D8F403C089
:1030F00040E050E0E0E0440F551F21E030E02C0FAD
:103100003D1F420F531FDA0152962D913C91539768
:10311000DC010E943B31DA014D915C918A01081B70
:10312000190B7DC0E1E0E60F6F5F7F4F69307105DD
:10313000B9F675C06230B9F56D964EAD5FAD6D975D
:103140004817590768F0DE01A35ABF4F61E070E0ED
:10315000E62FAB01ED90FD90E816F906E0F403C010
:1031600040E050E0E0E0440F551FA9E4B0E0AC0FB0
:10317000BD1FA40FB51F2D913C91DC010E943B3176
:10318000DE01A40FB51FD7964D915C91D8978A01A7
:10319000081B190B44C0E1E0E60F6F5F7F4F6930F9
:1031A0007105B1F63CC0633009F042C0CF56DF4F25
:1031B00048815981C159D0404817590768F0DE014C
:1031C000AD56BF4F61E070E0E62FAB01ED90FD9092
:1031D000E816F906E8F403C040E050E0E0E0440FF0
:1031E000551FAFE7B0E0AC0FBD1FA40FB51F2D9169
:1031F0003C91DC010E943B31ADE6B0E0AC0FBD1F5D
:10320000A40FB51F4D915C918A01081B190B07C0D3
:10321000E1E0E60F6F5F7F4F69307105A9F60B3F64
:10322000110510F4E93011F40AEF10E0C80102C0F2
:103230008FEF9FEFCE55DF4FCDBFDEBFDF91CF9138
:103240001F910F91FF90EF9008953F924F925F92E0
:103250006F927F928F929F92AF92BF92CF92DF92A6
:10326000EF92FF920F931F93CF93DF93CDB7DEB70B
:10327000AE97CDBFDEBF7B014A01DB0112962D91D7
:103280003C911397ADECBCEC0E943B316C01D694A1
:10329000C794D694C794D694C79484E1E3E9F0E246
:1032A000DE01119601900D928A95E1F78AE0E7EA36
:1032B000F0E2DE01559601900D928A95E1F788E0E3
:1032C000E1EBF0E2DE015F9601900D928A95E1F765
:1032D00088E0E9EBF0E2DE01979601900D928A9585
:1032E000E1F7F70182859385209113273091142708
:1032F000821B930B12F480E090E061E09C01829EBF
:10330000C001839E900D929E900D11247CDE8C0155
:10331000D7011C968D919C911D9720911527309176
:103320001627821B930B12F480E090E061E0FC0111
:103330008E9EC0018F9E900D9E9E900D112463DE87
:103340004C019801D8010E943B312B013C01F8EE61
:103350004F0EF0E85F1E611C711C9401D4010E94A5
:103360003B31A3019201261B370B480B590B1AF472
:1033700020E030E0A901CA01B9012CE330E040E0CF
:1033800050E00E9413312E3464E0360710F02DE433
:1033900034E0013F110520F481EF88169104C8F153
:1033A0008091172081111EC0809173259091742502
:1033B000809371259093722560916F25709170258F
:1033C000F601E61BF70BF397E231F14068F46B5B13
:1033D000362E3C18A0906D25B0906E25A81AB90A1B
:1033E000E1E003C0E0E001C0E0E081E0809317206D
:1033F00080917125909172258732924018F02DE4CA
:1034000034E002C020E030E0C0926B25D0926C2501
:1034100013C080911720813041F420936D253093A3
:103420006E25C0926F25D0927025109217202093A0
:10343000732530937425E0E08901A1E7B0EE0E9486
:103440003B319C010024220F331F001C220F331F2D
:10345000001C232F302D8FE090E0821B930B22F471
:10346000D70153961C920BC0803191052CF08FE050
:10347000D70153968C9303C0D70153968C93E130B8
:1034800009F051C0B7E9AB16B10414F1FE017F9603
:10349000A2E6B5E2CE01879621912D93E817F907B0
:1034A000D9F788E080936A25BF92AF921F923F922E
:1034B0008DEF92E29F938F9388E093E29F938F9397
:1034C0000E94EF3282E0F701828BCDBFDEBF2EC0BB
:1034D0003AE6A3163FEFB3064CF5FE01B796A2E617
:1034E000B5E2CE018F9621912D93E817F907D9F710
:1034F00088E080936A25B194A194B108BF92AF92FD
:103500001F923F9280E393E29F938F9388E093E230
:103510009F938F930E94EF3281E0D70152968C9354
:10352000CDBFDEBF03C0D70152961C9289819A811C
:1035300008171907A8F0FE01339621E081919191B7
:103540000817190720F02F5F2A30C1F76EC080914D
:103550006125281306C0293021F0211106C001C0C1
:1035600020E0C0926B25D0926C2520936125E091DC
:103570006A25EE23E1F080915F25BC2DB81BB732A0
:1035800008F458C0C0925F25D0926025E150E093C6
:103590006A25E770F0E0EE59FA4D608170E081E055
:1035A00090E0DDDCC0926B25D0926C2543C0809109
:1035B0006B2590916C25F601E81BF90BCF018A3839
:1035C0009240C0F1C0925F25D0926025FE01E20FCB
:1035D000F11D85899FEF90936225909363258093D9
:1035E0006425809365259093662590936725809345
:1035F00068258093692580E180936A252F931F9227
:103600008CE393E29F938F9382E493E29F938F9353
:103610000E94EF3283E0D70152968C930F900F9067
:103620000F900F900F900F9005C080916125281387
:1036300098CF9BCFAE96CDBFDEBFDF91CF911F91CC
:103640000F91FF90EF90DF90CF90BF90AF909F9041
:103650008F907F906F905F904F903F900895E0E43F
:10366000F6E080EB818380E1858380ED8093C00864
:103670000895E0ECF8E080818F7B8083E0E4F6E061
:1036800080EB828388E1848B858B868B878B089582
:10369000E0ECF8E0838382818823ECF7E0ECF8E04B
:1036A00083810895E0E8F4E0128289E0858388E070
:1036B000818381E084830895FC01668384E6489FCA
:1036C000A00111244115510509F18481982F9874A6
:1036D000983411F466830AC0982F9075903521F4C0
:1036E00087E0838384E00895807C71F48AE68A957C
:1036F000F1F700C0415051094115510531F706C09D
:1037000087E0838383E0089581E00895848185FDC7
:10371000F7CF83E00895FC01478384E6689FB001FA
:103720001124848186FD0FC06115710561F08AE660
:103730008A95F1F700C061507109848186FD03C04C
:1037400061157105A1F7848186FF06C09481929569
:10375000917081E08927089580E00895FC018481BB
:103760008C708C3019F184E6689FB001112484813B
:1037700088237CF06115710561F0AAE6AA95F1F73E
:1037800000C061507109848188231CF061157105A6
:10379000A1F78781DA018C93222321F087E08383CC
:1037A00081E0089582E0838381E0089580E00895B8
:1037B000BF92CF92DF92EF92FF920F931F93CF931E
:1037C000DF93EC01D62EF42EC22E660F75DF81300A
:1037D00041F54C2D6F2DCE019EDF882321F16D2DFB
:1037E000660F61604F2DCE0167DF8130B1F4BB24DD
:1037F000BA94BE0C0FC068018FEFC81AD80A21E036
:10380000B11020E0A8016F2DCE01A8DFBA94882363
:1038100021F086018FEFB812EECF87E08B838E2DDB
:1038200003C08E2D01C086E0DF91CF911F910F91D3
:10383000FF90EF90DF90CF90BF900895CF92DF92EE
:10384000EF92FF920F931F93CF93DF93EC01F42E2F
:10385000D22E660F31DF8130E1F44D2D6F2DCE0178
:103860005ADF8823C1F0EA94C02ED12E0BC0F60196
:1038700041916F016F2DCE014EDF9FEF9E0D88238A
:1038800021F0E92EFFEFEF12F2CF87E08B838E2D30
:1038900003C08E2D01C086E0DF91CF911F910F9163
:1038A000FF90EF90DF90CF9008950F931F93CF93E9
:1038B000DF9342305105C0F0EB01FC019A01099100
:1038C0001991019311932250310922303105B8F733
:1038D0009A01225031092E7F2E5F3F4F820F931F96
:1038E000620F731F417055274115510549F0DB01E7
:1038F000FC01840F951F2D912193E817F907D9F743
:10390000DF91CF911F910F9108954115510539F025
:10391000FC01840F951F6193E817F907E1F70895FB
:103920000F931F93DC01FB01628D738D80E090E0AB
:103930002C91233059F40489158920E030E0980156
:1039400011270027602B712B822B932B1F910F9136
:103950000895CF93DF93EC01A881B981109729F1E5
:103960004C91413258F04A3349F1FD0131969F01A3
:103970009191913228F09A33D1F704C0942F9D0190
:103980009A3379F4CD0101962817390789F4842FE9
:1039900090E0C0978230910570F41296A883B983A5
:1039A0000FC08091752590E00BC08FEF9FEF08C08E
:1039B0008FEF9FEF05C08FEF9FEF02C09D01E2CF19
:1039C000DF91CF9108958F929F92AF92BF92CF9245
:1039D000DF92EF92FF920F931F93CF93DF93EC014F
:1039E0008C81882309F444C0CEA4DFA4E8A8F9A8F8
:1039F0005E0182E3A80EB11C01E010E0A701960170
:103A0000B50189810E946B2D811134C01C828AA16D
:103A10009BA1ACA1BDA1B701A601481B590B6A0B24
:103A20007B0B8A8D9B8DAC8DBD8D481759076A071E
:103A30007B0710F58B80912C82E088169104F0F0C2
:103A40008A8D9B8DAC8DBD8DC80ED91EEA1EFB1EC6
:103A500001E010E0A7019601B50189810E946B2D5C
:103A600081E0881A910881E08816910449F708C01E
:103A700080E007C081E005C080E003C080E001C0B5
:103A800080E0DF91CF911F910F91FF90EF90DF9039
:103A9000CF90BF90AF909F908F900895BF92CF929C
:103AA000DF92EF92FF920F931F93CF93DF93EC017E
:103AB0006A017B018EA59FA5A8A9B9A984179507BE
:103AC000A607B707E1F0CE017EDFB82E811118C03E
:103AD00001E010E0A7019601BE016E5C7F4F898175
:103AE0000E94172D882331F0BB24B394CC24CA94B0
:103AF000DC2C7601CEA6DFA6E8AAF9AA01C0B12C7B
:103B00008B2DDF91CF911F910F91FF90EF90DF9060
:103B1000CF90BF9008950F931F93CF93DF93EC0145
:103B20001C820FEF1FEF98010EA71FA728AB39AB20
:103B3000B5DF811123C0FE01E05DFD4F80819181E1
:103B400085359A4AE9F4E85CF1404081518162810F
:103B500073817727463451446445710599F0CC57F9
:103B6000DF4F488159816A817B81772781E0463424
:103B700051446445710539F480E005C083E003C019
:103B800082E001C080E0DF91CF911F910F910895F5
:103B90000097C9F0DC01ED91FC9111973097A9F0E5
:103BA00020812223A1F02681378112968D919C914C
:103BB00013972817390769F481810E94102D80FF1F
:103BC0000AC083E0089589E0089589E0089589E0B6
:103BD000089589E0089580E008952F923F924F92D2
:103BE0005F926F927F928F929F92AF92BF92CF928D
:103BF000DF92EF92FF920F931F93CF93DF93CDB796
:103C0000DEB76D97CDBFDEBF6C01CB01B42ED60100
:103C10001D921C929EDE7C0199230CF42BC2FC01A8
:103C2000EE0FFF1FE858FA4D0081118101151105B3
:103C300009F422C2F60100831183D8018C918823F4
:103C400069F011968C910E94102D80FD07C0BB2059
:103C500009F414C282FD14C280E05DC2F801108232
:103C6000E1828E2D0E94532C80FD0CC2BB2011F0EE
:103C700082FD0AC240E050E0BA01C8014CDF813049
:103C800009F03FC0F801EC50FE4F7E0121E1E20E49
:103C9000F11C9E012F5F3F4FAF01DA018C91882309
:103CA00039F014968D919D910D90BC91A02D03C07B
:103CB00080E090E0DC01F90181939193A193B193AD
:103CC0009F01405F5F4FEE15FF0539F79E012F5FA3
:103CD0003F4F6901D6014D905D906D907D906D01D3
:103CE000411451046104710439F0B301A201C80107
:103CF00012DF811102C008C082E0CE14DF0451F748
:103D000003C0412C512C3201833009F4BFC1811111
:103D1000BFC1F80185AD96AD8115924009F0BAC1D9
:103D2000F801E85BFF4FC080D180E12CF12CC11479
:103D3000D104E104F10429F43E96C080D180E280F0
:103D4000F380D8015A96CD92DD92ED92FC925D9768
:103D5000F801EE5BFF4FA081F801A3838FEF8A0F7C
:103D6000823008F099C1F7ADF98B2F2FF80122832B
:103D7000222309F493C1822F90E09C012150310944
:103D800082239323892B09F08BC1ED5BFF4F2080A9
:103D90003180F80120863186C1018F709927892BE7
:103DA00009F080C1EB5BFF4F80809180A12CB12C8A
:103DB00081149104A104B10429F43D96808091807E
:103DC000A280B380F801E05CFF4F0190F081E02D0C
:103DD000309709F469C1B0E0A70196010E944A3109
:103DE0006A8F7B8F8C8F9D8F9F0140E050E02E8BE0
:103DF0003F8B488F598FC101929582958F7089278B
:103E00009F708927280F391F411D511DDA01C901F3
:103E10002A8D3B8D4C8D5D8D280F391F4A1F5B1FEE
:103E20002A8B3B8B4C8B5D8B82169306A406B506C2
:103E300008F43CC1C501B401621B730B840B950BE4
:103E4000E9892E2F30E040E050E00E941331DA0182
:103E5000C901211531054105510509F429C1263F44
:103E6000FFE03F074105510518F461E0698B02C08E
:103E7000E2E0E98B863F9F4FA105B10508F020C124
:103E800049015A0162E0860E911CA11CB11CD801A7
:103E900056968D929D92AD92BC925997F801468E9E
:103EA000578E60A271A28E899F89A88DB98D840DCD
:103EB000951DA61DB71D82A393A3A4A3B5A34A89EC
:103EC0005B896C897D89440D551D661D771D42A750
:103ED00053A764A775A7F989F330C1F4232809F023
:103EE000E9C0F801E25AFF4F80819181A281B3813C
:103EF000F80186A397A3A0A7B1A7880C991CAA1CB8
:103F0000BB1C880C991CAA1CBB1C2DC0232809F4BF
:103F1000D3C02A8D3B8D4C8D5D8D820F931FA41FC6
:103F2000B51FF80186A397A3A0A7B1A7F989F2301E
:103F300029F4880C991CAA1CBB1C15C0A3E0B0E096
:103F4000A50194010E944A31DC01CB01B695A795E9
:103F50009795879521E082229924AA24BB24880E74
:103F6000991EAA1EBB1E3FEF830E31E0931EA11CBB
:103F7000B11C072E79E0B694A794979487947A950C
:103F8000D1F7702DC814D904EA04FB0408F496C0D4
:103F90008FEF9FEFDC01F80186879787A08BB18BAD
:103FA00082879387A487B58780E88583F989F33072
:103FB00009F048C0F801EE59FF4F808191810197C7
:103FC00009F040C0B301A2014F5F5F4F6F4F7F4FB9
:103FD000C80164DD811136C0D80115961C92F80124
:103FE000E05DFD4F8081918185359A4A59F5F80150
:103FF00082A993A9A4A9B5A982359245A146B14445
:1040000009F5F801EA5EFD4F80819181A281B381BB
:1040100082379247A144B146A9F4349680819181B8
:10402000A281B381F80186879787A08BB18BE25E6E
:10403000FD4F80819181A281B381F80182879387AE
:10404000A487B587E989D801EC9380917625909172
:1040500077250196809376259093772516968D93F4
:104060009C93179752961D921D921D921C925597E4
:1040700080E051C08BE04FC08CE04DC080E04BC071
:104080008AE049C083E047C08AE045C081E043C080
:104090008DE041C08DE03FC08DE03DC08DE03BC074
:1040A0008DE039C08DE037C08DE035C08DE033C084
:1040B0008DE031C08DE02FC08DE02DC08DE02BC094
:1040C00049015A01B2E08B0E911CA11CB11CF801F0
:1040D000868A978AA08EB18E468E578E60A271A274
:1040E0008E899F89A88DB98D840D951DA61DB71D3C
:1040F00082A393A3A4A3B5A38A899B89AC89BD8914
:10410000840D951DA61DB71D82A793A7A4A7B5A7CB
:10411000F3E0F98BE3CE6D96CDBFDEBFDF91CF919B
:104120001F910F91FF90EF90DF90CF90BF90AF90D5
:104130009F908F907F906F905F904F903F902F90C7
:104140000895EF92FF920F931F93CF93DF93EC01AB
:104150003ADC982F81115BC08881833009F04DC013
:104160008D81813009F049C040E052E060E070E0AC
:104170007E0182E3E80EF11CC701C7DB85E59AEA00
:10418000FE01E05DFD4F8083918382E592E5A1E62B
:10419000B1E48AAB9BABACABBDAB82E792E7A1E4E9
:1041A000B1E67A9780839183A283B3838E859F85BE
:1041B000A889B989349680839183A283B3838A8541
:1041C0009B85AC85BD85349680839183A283B38320
:1041D0008E8D9F8DA8A1B9A19C01AD012F5F3F4F8E
:1041E0004F4F5F4F2EA73FA748AB59AB01E010E000
:1041F000B70189810E946B2D1D8240E050E060E094
:1042000089810E94DB2D91E0811101C090E0892F0E
:10421000DF91CF911F910F91FF90EF900895CF9272
:10422000DF92EF92FF92FC019A01AB01225031091B
:1042300041095109C688D788E08CF18C82E0C81A00
:10424000D108E108F1082C153D054E055F0568F41D
:10425000A281B0E00E944A31C2A4D3A4E4A4F5A490
:104260006C0D7D1D8E1D9F1D03C060E070E0CB01B5
:10427000FF90EF90DF90CF900895AF92BF92CF92D2
:10428000DF92EF92FF920F931F93CF93DF93EC0196
:104290006A017B01423051056105710508F4AAC02D
:1042A0004E895F89688D798DC416D506E606F706B6
:1042B00008F0A5C08881823009F44BC0833009F42E
:1042C0006AC0813009F0A0C08601169507950C0DD3
:1042D0001D1DC801892F992786954AA15BA16CA154
:1042E0007DA1480F591F611D711DCE01D7DB8111C2
:1042F00090C058018FEFA81AB80A1170FE01E00FA4
:10430000F11F12A9C501892F992786954AA15BA1A2
:104310006CA17DA1480F591F611D711DCE01BEDB2F
:1043200081117BC081E0B822CA0DDB1D8AA9612FF3
:1043300070E0782BC0FE09C0729562956F70672798
:104340007F70672780E090E073C07F7080E090E02E
:104350006FC077276F2D5E2D4D2D0AA11BA12CA1BB
:104360003DA1400F511F621F731FCE0197DB8111CA
:1043700058C0CC0CDD1CEE1CFF1CE894C0F881E09A
:10438000D822EE24FF24FE01EC0DFD1D62A973A9C5
:1043900080E090E04DC04AA15BA16CA17DA1970196
:1043A0008601689416F83695279517950795169403
:1043B000D1F7400F511F621F731FCE016FDB8111B8
:1043C00034C0CC0CDD1CEE1CFF1CCC0CDD1CEE1C28
:1043D000FF1C8CEFC82281E0D822EE24FF24FE01CE
:1043E000EC0DFD1D82A993A9A4A9B5A9BC01CD011D
:1043F0009F701EC061E070E080E090E019C061E055
:1044000070E080E090E014C061E070E080E090E057
:104410000FC06FEF7FEFCB010BC06FEF7FEFCB01D2
:1044200007C06FEF7FEFCB0103C06FEF7FEFCB01D2
:10443000DF91CF911F910F91FF90EF90DF90CF9080
:10444000BF90AF900895AF92BF92CF92DF92EF925C
:10445000FF920F931F93CF93DF93EC018B016C833B
:104460007D83CE80DF80E884F98481E0C816D104A2
:10447000E104F10409F48AC0E881F9818689978909
:10448000A08DB18DC816D906EA06FB0608F080C0DB
:10449000C114D104E104F104C1F48081833041F4FA
:1044A00086A197A1A0A5B1A50097A105B10559F4D2
:1044B000808591850817190708F06CC066A177A15F
:1044C00080A591A535C06C017D01A28080E1A89EE8
:1044D000500111240A151B0530F1B701A60188818E
:1044E0009981CBDE6B017C018FEFC816D806E806F8
:1044F000F80609F451C082E0C816D104E104F104C1
:1045000008F44CC0E881F98186899789A08DB18D26
:10451000C816D906EA06FB0608F042C00A191B09AC
:104520000A151B05D0F6B701A6018881998177DEAF
:10453000CA86DB86EC86FD866115710581059105CD
:1045400089F19801329522952F7023273F702327F8
:10455000DC01CB01820F931FA11DB11D8E879F87A8
:10456000A88BB98B0F701127C801880F991F8295EE
:104570009295907F9827807F9827C29628813981CD
:10458000820F931F8A8B9B8B80E00DC082E00BC053
:1045900082E009C082E007C081E005C082E003C07C
:1045A00082E001C082E0DF91CF911F910F91FF90D7
:1045B000EF90DF90CF90BF90AF9008954F925F92B1
:1045C0006F927F928F929F92AF92BF92CF92DF9223
:1045D000EF92FF920F931F93CF93DF93EC016A0149
:1045E0007B0128013901423051056105710508F44C
:1045F000D7C08E899F89A88DB98D481759076A073A
:104600007B0708F0CFC08881823009F469C083300D
:1046100009F48BC0813009F0C7C05A01B694A79441
:10462000A40EB51EC501892F992786954AA15BA1C5
:104630006CA17DA1480F591F611D711DCE012EDA9D
:104640008111B3C085010F5F1F4FC50191704601F5
:10465000570151E085229924AA24BB24C0FE0BC037
:10466000FE01E80FF91F42A94F7050E1459E9001ED
:104670001124242B01C0242DFE01E80FF91F22ABC9
:1046800081E08C834AA15BA16CA17DA1C801892F27
:1046900099278695480F591F611D711DCE01FED9BE
:1046A000811183C0117089288A288B2849F0689469
:1046B00013F876946794579447941694D1F709C0E9
:1046C000FE01E00FF11F22A9207F952D9F70422E41
:1046D000492AFE01E00FF11F42AA91E09C8365C0C8
:1046E000452F562F672F77278AA19BA1ACA1BDA18B
:1046F000480F591F6A1F7B1FCE01D0D9811155C0A9
:10470000CC0CDD1CEE1CFF1CE894C0F891E0D92213
:10471000EE24FF2422E3C20ED11CFE01EC0DFD1D90
:104720004082518291E09C8340C08AA19BA1ACA1B0
:10473000BDA1689416F87695679557954795169498
:10474000D1F7480F591F6A1F7B1FCE01A7D98111CE
:104750002CC0CC0CDD1CEE1CFF1CCC0CDD1CEE1C9C
:10476000FF1C5CEFC52251E0D522EE24FF2492E32A
:10477000C90ED11CFE01EC0DFD1D408151816281ED
:104780007381442755276627707F442A552A662A55
:10479000772A408251826282738291E09C8305C0B5
:1047A00082E003C082E001C082E0DF91CF911F91DF
:1047B0000F91FF90EF90DF90CF90BF90AF909F90C0
:1047C0008F907F906F905F904F9008954F925F927F
:1047D0006F927F928F929F92AF92BF92CF92DF9211
:1047E000EF92FF920F931F93CF93DF93EC012A0177
:1047F0003B01411551056105710599F48A849B843B
:10480000AC84BD8481149104A104B10429F18E8982
:104810009F89A88DB98D88169906AA06BB0608F54A
:1048200024C02BDD623071058105910508F496C026
:104830006F3F2FEF72078207920709F494C0CE886A
:10484000DF88E88CF98C6C157D058E059F0508F4D2
:104850008EC05301420109C0812C912C54018394D4
:1048600004C0812C912C54018394750164018FEF55
:10487000C81AD80AE80AF80A8E899F89A88DB98DC6
:10488000C816D906EA06FB0660F022E082169104FB
:10489000A104B10408F46FC0C12CD12C7601689436
:1048A000C1F8B701A601CE01E8DC611571058105EB
:1048B000910599F06F3F2FEF72078207920709F475
:1048C0005FC0613071058105910509F45DC0C814B0
:1048D000D904EA04FB0459F65BC08C2C9D2CAE2C49
:1048E000BF2C0FEF1FEF2FEF3FE0B701A601CE0166
:1048F00065DE81112CC0411451046104710451F032
:104900000C2D1D2D2E2D3F2DB301A201CE0156DE03
:1049100081111DC08A869B86AC86BD868E859F854B
:10492000A889B9898F3F2FEF9207A207B207A9F193
:104930000197A109B1098E879F87A88BB98B8D81BB
:1049400081608D834C2D3D2D2E2D9F2D2FC08130CC
:1049500049F54FEF3FEF2FEF9FEF28C041E030E0E8
:1049600020E090E023C0462F372F282F1FC0462F6E
:10497000372F282F1BC040E030E020E090E016C029
:10498000462F372F282F12C0462F372F282F0EC023
:1049900040E030E020E090E009C04C2D3D2D2E2D70
:1049A0009F2D04C041E030E020E090E0642F732FA1
:1049B000822FDF91CF911F910F91FF90EF90DF90A9
:1049C000CF90BF90AF909F908F907F906F905F90AF
:1049D0004F9008957F928F929F92AF92BF92CF9205
:1049E000DF92EF92FF920F931F93CF93DF93EC012F
:1049F0007B010C811D810F5F1F4F0115110509F40B
:104A0000E4C08E859F85A889B9890097A105B10565
:104A100009F4DDC068012FE0C222DD24C114D104F5
:104A200009F0BCC00196A11DB11D8E879F87A88B80
:104A3000B98B4A855B856C857D854115510561057E
:104A4000710549F4E881F981808591850817190776
:104A500008F0BFC0A3C0E881F981828190E001978E
:104A60009801329522952F7023273F7023278223A8
:104A70009323892B09F092C0CF01FFDB4B015C012E
:104A800082E088169104A104B10408F4A4C0EFEFF9
:104A90008E169E06AE06BE0609F49FC0E881F98117
:104AA00086899789A08DB18D88169906AA06BB06BE
:104AB00008F467C0EF2809F492C04A855B856C85CD
:104AC0007D85CF0183DE4B015C0161157105810598
:104AD000910509F486C0613071058105910509F4DD
:104AE00082C06F3F2FEF72078207920709F47DC0E3
:104AF000888199810E94E31C811179C08881998104
:104B000040E052E060E070E0C2960E94851CE880C0
:104B1000F980B501A401C70182DBF70166A777A779
:104B200080AB91ABE12CF12C7724739417C0748285
:104B3000888199810E94E31C81115BC0E881F98121
:104B400086A597A5A0A9B1A90196A11DB11D86A70B
:104B500097A7A0ABB1ABFFEFEF1AFF0AE881F9818D
:104B6000828190E0E816F90610F386A597A5A0A922
:104B7000B1A98E199F09A109B10986A797A7A0AB72
:104B8000B1AB8A869B86AC86BD86B501A4018881BF
:104B9000998145DB6E877F87888B998B0C831D837A
:104BA000CC0CDD1CCC0CDD1CCC0CDD1CCC0CDD1CC1
:104BB000CC0CDD1C22E3C20ED11C88819981C80E69
:104BC000D91ECA8ADB8A80E015C084E013C084E065
:104BD00011C084E00FC082E00DC081E00BC084E012
:104BE00009C087E007C082E005C081E003C081E022
:104BF00001C081E0DF91CF911F910F91FF90EF9065
:104C0000DF90CF90BF90AF909F908F907F9008954E
:104C10006F927F928F92AF92BF92CF92DF92EF927C
:104C2000FF920F931F93CF93DF93EC018B01FB0156
:104C300080818F3211F08C3539F40F5F1F4F1E8247
:104C40001F82188619860AC0E881F98182899389B2
:104C5000A489B5898E839F83A887B987F80180814D
:104C6000803278F00F2EFEE2DF2EF02D0F2EF5E0D1
:104C70008F2EF02D0F2EF7E6AF2EF3E2BF2EF02D84
:104C800007C060E070E0CE01DEDB1A8A1B8A4CC1EF
:104C9000F8018F0181918F32E1F38C35D1F3EC88EB
:104CA000FD884BE050E060E270E0C7010E94851C87
:104CB000F80180818E3241F020E030E060E070E069
:104CC00088E090E0C12C1FC0F701D082F80121815B
:104CD0002E3251F4F701D182F80122812E3209F4EB
:104CE0000BC183E090E002C082E090E02F3209F433
:104CF000E7C02C3509F4E4C0213208F0FDC0E4C05F
:104D0000F7018387FBC0AB014F5F5F4FF801E60FF0
:104D1000F71FB081B13208F4EAC0BF3209F4E2C033
:104D2000BC3509F4DFC0BE3209F4D2C028173907F8
:104D300008F0BEC008C0CC0CCC0CBA0128E030E0B2
:104D40008BE090E0E0CFBB231CF4FC2DF360CF2E72
:104D5000EFE7EB0FEF3120F0E0E2EB0FED3110F574
:104D60006E5F7F4FF801E40FF51FA08140EC4A0F02
:104D70004F3328F040E84A0F4D3708F0BDC0AC0172
:104D8000415051092417350708F0B6C0F701E20F6A
:104D9000F31FB083F9013196EE0DFF1D2E5F3F4FDB
:104DA000A083B1CF6B2E712C62E26616710409F4F8
:104DB000A3C0F5016191662309F48EC070E0661608
:104DC0007706C1F799C0EC2DE260CE2E08C06FE9DE
:104DD0006B0F6A3120F4FC2DF160CF2EB052F70139
:104DE000E20FF31FB0832F5F3F4FBA018CCF232B0D
:104DF00009F482C0F7012081253E09F480820897DA
:104E000019F4C52ECC0CCC0C8C2D8370813009F498
:104E100040618C2D8C70843009F44860F701438721
:104E20006DC04E855F8568897989888199810E94E6
:104E30004E1D81116AC06A897B89FB01908199238B
:104E400009F46AC0938593FD0FC04C895D89DA012E
:104E50009B01255F3F4F04C0E217F30709F460C0D0
:104E6000F1909D91F916C1F360E070E0CE01B2DDE2
:104E70008823B9F24AC095FF0AC01E821F82188695
:104E800019861A8A1B8A92FF03CF80E04DC092FFD9
:104E900011C084E049C0FB01838584FF0DC0888177
:104EA00099810E94901C6E837F8388879987F0CEBA
:104EB00086E03AC085E038C085E036C086E034C080
:104EC000080F191F80E21CCF080F191F84E218CFAA
:104ED000089709F430CFF2CF6FEB6B0F6A3108F40B
:104EE00072CF75CF040F151F5C2D40E080CF040FEB
:104EF000151F5C2D44E07BCF86E016C060E070E0BB
:104F0000CE01A1DA882309F48CCFEC89FD89938541
:104F1000843009F4B0CF08C0EC89FD899385ABCF0C
:104F2000FA01938592FFB7CFDF91CF911F910F9137
:104F3000FF90EF90DF90CF90BF90AF908F907F90D9
:104F40006F900895EF92FF920F931F93CF93DF938B
:104F5000EC017B0160E070E076DA811121C000E0B5
:104F600010E04E855F8568897989888199810E94E2
:104F70004E1D811115C0EA89FB899081953E11F083
:104F8000911106C00F5F1F4F0E151F0519F40BC0BE
:104F900000E010E061E070E0CE011CDD882309F341
:104FA000843009F487E0DF91CF911F910F91FF903A
:104FB000EF9008951F93CF93DF93EC0161E070E0D1
:104FC000C1DF182F81111FC04E855F8568897989DF
:104FD000888199810E944E1D182F811114C040E2D2
:104FE00050E060E070E08A899B890E94851C6C8992
:104FF0007D894BE050E08A899B890E94551CE8819D
:10500000F98181E08483812FDF91CF911F910895F1
:105010008F929F92AF92BF92CF92DF92EF92FF92C8
:105020000F931F93CF93DF93EC014A015B01423052
:1050300051056105710508F44BC04E895F89688D83
:10504000798D84169506A606B70608F043C0B5010B
:10505000A401CE0112D96B017C0161157105810596
:105060009105D1F191E0C916D104E104F104B1F147
:105070008FEFC816D806E806F80691F100E010E0B8
:105080009801B501A401CE0199DA81112AC04E859B
:105090005F85688979894F3F9FEF590769077907CD
:1050A00059F04F5F5F4F6F4F7F4F4E875F87688B21
:1050B000798B9D8191609D834E895F89688D798D03
:1050C000C416D506E606F70660F446015701BFCFC1
:1050D00082E007C082E005C080E003C082E001C03A
:1050E00081E0DF91CF911F910F91FF90EF90DF90C2
:1050F000CF90BF90AF909F908F9008951F93CF93C4
:10510000DF93CDB7DEB72697CDBFDEBF8B839C8301
:105110006D837E83142F69837A83CE0101960E946A
:10512000A91C992334F1FC01EE0FFF1FE858FA4D3A
:105130000190F081E02D309709F01082EB81FC8125
:105140003097E9F010822B813C81FC01EE0FFF1FAC
:10515000E858FA4D20833183232B69F0113069F42C
:1051600040E0BE016B5F7F4FCE0103960E94ED1DB4
:105170000EC08BE00CC080E00AC080E008C0FC01DB
:10518000EE0FFF1FE858FA4D1082118280E026963C
:10519000CDBFDEBFDF91CF911F9108954F925F92F7
:1051A0006F927F92BF92CF92DF92EF92FF920F9316
:1051B0001F93CF93DF93CDB7DEB7A897CDBFDEBFE8
:1051C0008C016BA37CA3F42E009709F4D2C0DC0100
:1051D0001D921C924E71BE016D5D7F4FCE010196F6
:1051E0000E94ED1D8111D9C0BF2DBF71BB2ECE0114
:1051F00047968D8B9E8B6BA17CA1469709DDCB8852
:10520000DC888111BEC0C114D10409F0B4C0B8C09B
:10521000882371F0843009F0C0C0CE010196CADE47
:10522000EB2DE860BE2ECB88DC88882349F0B5C022
:10523000D6011B968C91817109F0A8C0F2FCA8C020
:10524000B3FE55C080E090E0AFE4B5E4F601868798
:105250009787A08BB18B1386148E158E168E178EA2
:10526000E980FA80B601C7010E94901C2B013C0125
:10527000F601128E138E148A158A81E0D7011496D6
:105280008C931497411451046104710481F19E962A
:105290008D919D910D90BC91A02D8DA39EA3AFA348
:1052A000B8A7B301A201C701B3DE811176C089811D
:1052B0009A81B301A2014150510961097109FC01B0
:1052C00042875387648775874DA15EA16FA178A53A
:1052D0000E944E1D0AC0D6011B968C9184FD5AC0B7
:1052E000F1FE05C080FD58C002C0811156C0B3FE5A
:1052F00003C0BB2DB062BB2EE980FA80F70186A502
:1053000097A5A0A9B1A9F801828F938FA48FB58F1B
:10531000C68ED78EB4821582B601C7010E94901C3A
:10532000D8011E966D937D938D939C935197F601B2
:10533000448D558D668D778D1A964D935D936D9343
:105340007C931D97F8011682178210861186569657
:105350001D921D921D921C925997ED92FC921197ED
:10536000F7018681978112968D939C93139780E025
:1053700014C089E012C08F2D8C7109F059CFABCFCA
:1053800086E09F2D9C7109F043CFAFCF87E005C029
:1053900088E003C084E001C087E0A896CDBFDEBFEF
:1053A000DF91CF911F910F91FF90EF90DF90CF9001
:1053B000BF907F906F905F904F9008952F923F9293
:1053C0004F925F926F927F928F929F92AF92BF9215
:1053D000CF92DF92EF92FF920F931F93CF93DF93C1
:1053E000EC015B017A016901F901108211820E94CE
:1053F000C81D81110DC18D8181110AC18C8180FF71
:1054000002C18A859B85AC85BD854E815F8168859B
:105410007985841B950BA60BB70BA70160E070E0A4
:1054200084179507A607B70708F47C01E114F10477
:1054300009F4EBC08E819F81A885B985AC01BD01BF
:10544000517066277727452B462B472B09F097C0CD
:10545000E881F98112811150AC01BD01032E39E0C0
:1054600076956795579547953A95D1F7302D142342
:1054700029F5892B8A2B8B2B29F46E857F858889CA
:10548000998907C04A895B896C897D89CF010E940F
:105490003D21623071058105910518F482E08D830C
:1054A000B7C06F3FFFEF7F078F079F0719F481E0B9
:1054B0008D83AEC06A8B7B8B8C8B9D8B28803980D3
:1054C0004A895B896C897D89C1010E940F21611520
:1054D00071058105910519F482E08D8399C02B0136
:1054E0003C01410E511C611C711C4701892C9924FF
:1054F00086948114910409F43EC0F1014281242F65
:1055000030E0C401810F911D2817390718F44901B3
:10551000811A91088401A3019201B501F1018181F1
:1055200086D2882319F081E08D8372C0E881F981E9
:1055300084818823E1F086A597A5A0A9B1A9841943
:105540009509A609B709A40160E070E084179507E2
:10555000A607B70760F4BF016E5C7F4F982F8827BE
:10556000990F40E052E08A0D9B1D0E94551C982C1B
:105570008824990C2EC04E8A5F8A688E798E8E811F
:105580009F81917020E032E0281B390B47012E15D6
:105590003F0508F449014E895F89688D798D8881BE
:1055A00099810E944E1D882319F081E08D8330C0BF
:1055B0008E819F81A885B9859170AA27BB27C29645
:1055C00028813981B901680F791FA401C5010E94A2
:1055D000551CA80CB91C8E819F81A885B985880DA2
:1055E000991DA11DB11D8E839F83A887B987F601E0
:1055F00080819181880D991D80839183E818F90835
:1056000009F018CF04C087E003C080E001C080E04B
:10561000DF91CF911F910F91FF90EF90DF90CF908E
:10562000BF90AF909F908F907F906F905F904F90C2
:105630003F902F900895CF93DF93EC010E94C81DF7
:10564000811137C09C8195FF34C04A8D5B8D6C8D74
:105650007D8D888199810E944E1D81112AC0EE8D19
:10566000FF8D8385806283874A855B856C857D8518
:10567000448F558F668F778F4E855F8568897989CE
:10568000428F538F648B758B40E050E06FE475E47C
:10569000468B578B608F718F128A138A8C818F7D16
:1056A0008C83E881F98181E08483888199810E94DB
:1056B000A120DF91CF910895CF93DF93EC01BBDF61
:1056C000811107C0CE010E94C81D811102C018823D
:1056D0001982DF91CF9108950C94481B089580E1C1
:1056E000E0E4F6E085838FEFF7CF089580E1E0E412
:1056F000F6E086838FEFF0DF82E380937D258FEFE6
:10570000EBDF8F3F41F080917D258111F8CFE7DFFE
:1057100080E090E0089581E090E00895FF920F937B
:105720001F93CF93DF93C82FD42F152F062FF72E5B
:1057300088234CF440E050E0BA0187E3EFDF823089
:1057400008F037C0CF77CC3019F1C9DFCFDF892B14
:10575000E9F08C2F8064C0DF8F2DBEDF802FBCDF8F
:10576000812FBADF8D2FB8DFCC2301F1C830D9F0FB
:1057700081E0B2DFCC3011F48FEFAEDFCAE08FEF03
:10578000ABDF8823B4F4C150D1F713C08FEF11C041
:105790008CE4A2DF8F2DA0DF802F9EDF812F9CDF86
:1057A0008D2F9ADFE5CF87E897DFE8CF85E994DF93
:1057B000E5CFDF91CF911F910F91FF900895EF9268
:1057C000FF920F931F93CF93DF93E82EF92E8B0157
:1057D00024E120937E258FEF7FDF8F3F29F42091F6
:1057E0007E252111F8CF19C08E3FD1F4CE2DDF2DAB
:1057F0008FEF0E94481B88838FEF0E94481B89838C
:105800000250110922960115110591F78FEF64DFFF
:105810008FEF62DF81E090E005C080E090E002C0A1
:1058200080E090E0DF91CF911F910F91FF90EF907A
:1058300008950F931F93CF93DF938C01C62F92E3AC
:1058400090937D258FEF48DF8F3F29F090917D2544
:105850009111F8CF1EC08C2F3FDFCD3FE9F0E8015A
:105860001E5F88810E94481B89810E94481B2296E6
:10587000C017D107B1F78FEF2FDF8FEF2DDF8FEF3D
:105880002BDF282F2F7181E090E0253039F080E068
:1058900005C080E090E002C081E090E0DF91CF9110
:1058A0001F910F910895EF92FF920F931F93CF9343
:1058B000DF9300D000D0CDB7DEB781119CC00E942D
:1058C000391B8091182081FF03C0809118209EC051
:1058D0000E942F1B82ED8093C0081AE08FEFFCDE40
:1058E0001150E1F740E050E0BA0180E017DF81306D
:1058F00009F088C084E680937E254AEA51E060E0A2
:1059000070E088E00BDF813009F03FC07E0185E068
:10591000E80EF11C8E010F5F1F4F8FEFDDDEF801E7
:1059200081938F01EE15FF05C1F78B81813009F05E
:1059300069C08C818A3A09F065C080917E258823F0
:1059400041F040E050E060E070E489EAE7DE811178
:10595000F4CF80917E25882309F454C040E050E0C4
:10596000BA018AE3DBDE81114DC08E010F5F1F4F4C
:105970008FEFB2DEF80181938F01EE16FF06C1F7BB
:10598000898186FD3AC084E039C040E050E0BA0128
:1059900089EAC4DE823018F402E019EA02C001E0AC
:1059A00011E090917E25992339F040E050E0BA0152
:1059B000812FB4DE8111F5CF80917E25882311F1EE
:1059C00040E052E060E070E080E1A8DE81111AC0A2
:1059D00000937C2584DE002349F0809118208E7F7F
:1059E0008093182080ED8093C00802C00E94391B6C
:1059F000809118200BC081E009C08CE080937C2549
:105A00006EDEEBCF10927C256ADEF0CF2496CDBF00
:105A1000DEBFDF91CF911F910F91FF90EF9008951E
:105A2000811103C080911820089581E00895FF92AC
:105A30000F931F93CF93DF93EB01811141C00115A9
:105A4000110509F43FC08091182080FD3DC0809170
:105A50007C2583FD09C0012E19E0220F331F441F4E
:105A6000551F1A95D1F7102D0230110528F00F2E71
:105A7000F2E1FF2EF02D04C00F2EF1E1FF2EF02DEC
:105A8000BA01A9018F2D4ADE811114C060E072E0D5
:105A9000CE0195DE892B31F0DE5F01501109011531
:105AA0001105A1F782E1F81205C040E050E0BA010B
:105AB0008CE034DE14DE81E0012B39F480E005C097
:105AC00084E003C084E001C083E0DF91CF911F91A7
:105AD0000F91FF900895CF92DF92EF92FF920F9374
