S01400006D61747269785F636C6F636B2E7372656310
S11300007BC3000097C3000095C3000093C30000A6
S113001091C300008FC300008DC300008BC3000098
S113002089C3000087C30000FCC6000083C300002E
S113003081C300007FC300000C9476097BC30000D9
S113004079C3000077C3000075C3000073C30000C8
S11300500C94120A6FC300006DC300006BC3000050
S113006069C3000067C3000065C3000063C30000E8
S113007061C300005FC300005DC300005BC30000F8
S113008059C3000057C3000020C6000053C300003A
S113009051C300004FC300004DC300004BC3000018
S11300A049C3000047C3000045C3000043C3000028
S11300B041C300003FC300003DC300003BC3000038
S11300C039C3000037C3000035C3000033C3000048
S11300D031C300002FC300002DC300002BC3000058
S11300E029C3000027C3000025C3000023C3000068
S11300F021C300001FC300001DC300001BC3000078
S113010019C3000017C30000B7C5000013C30000E3
S113011011C300000FC300000DC300000BC3000097
S113012009C3000007C3000005C3000003C30000A7
S113013001C30000FFC20000FDC20000FBC20000BA
S1130140F9C20000F7C20000F5C20000F3C20000CB
S1130150F1C20000EFC20000EDC20000EBC20000DB
S1130160FDC20000E7C20000E5C20000E3C20000D7
S1130170E1C20000DFC20000DDC20000DBC20000FB
S1130180D9C20000D7C20000D5C20000D3C200000B
S1130190D1C20000CFC20000CDC20000CBC200001B
S11301A0C9C20000C7C20000C5C20000C3C200002B
S11301B0C1C20000BFC20000BDC20000BBC200003B
S11301C0B9C20000B7C20000B5C20000B3C200004B
S11301D0B1C20000AFC20000ADC20000ABC200005B
S11301E0A9C20000A7C20000A5C20000A3C200006B
S11301F0A1C200009FC200009DC2000000000000D8
S1130200003E5B4F5B3E3E6B4F6B3E1C3E7C3E1C98
S1130210183C7E3C181C577D571C1C5E7F5E1C00DE
S1130220183C1800FFE7C3E7FF0018241800FFE795
S1130230DBE7FF30483A060E2629792926407F0558
S11302400507407F05253F5A3CE73C5A7F3E1C1C6E
S113025008081C1C3E7F14227F22145F5F005F5F2E
S113026006097F017F006689956A6060606060941A
S1130270A2FFA29408047E040810207E201008081F
S11302802A1C08081C2A08081E101010100C1E0C2A
S11302901E0C30383E3830060E3E0E0600000000BC
S11302A00000005F00000007000700147F147F14A3
S11302B0242A7F2A122313086462364956205000E8
S11302C008070300001C2241000041221C002A1CD4
S11302D07F1C2A08083E08080080703000080808BF
S11302E00808000060600020100804023E514945DF
S11302F03E00427F400072494949462141494D33FD
S11303001814127F1027454545393C4A4949314163
S1130310211109073649494936464949291E000031
S11303201400000040340000000814224114141486
S11303301414004122140802015909063E415D5972
S11303404E7C1211127C7F494949363E414141227B
S11303507F4141413E7F494949417F090909013EA5
S1130360414151737F0808087F00417F41002040CC
S1130370413F017F081422417F404040407F021CDE
S1130380027F7F0408107F3E4141413E7F090909F5
S1130390063E4151215E7F091929462649494932C1
S11303A003017F01033F4040403F1F2040201F3F87
S11303B04038403F6314081463030478040361590C
S11303C0494D43007F41414102040810200041414E
S11303D0417F0402010204404040404000030708FA
S11303E00020545478407F284444383844444428F6
S11303F0384444287F385454541800087E0902189D
S1130400A4A49C787F0804047800447D4000204024
S1130410403D007F1028440000417F40007C047868
S113042004787C080404783844444438FC182424B0
S11304301818242418FC7C08040408485454542430
S113044004043F44243C4040207C1C2040201C3CAD
S11304504030403C44281028444C9090907C4464A4
S1130460544C440008364100000077000000413637
S1130470080002010204023C2623263C1EA1A161BD
S1130480123A4040207A38545455592155557941EF
S11304902154547841215554784020545579400CC6
S11304A01E527212395555555939545454593955A7
S11304B05454580000457C410002457D42000145EA
S11304C07C40F0292429F0F0282528F07C54554557
S11304D0002054547C547C0A097F493249494932EA
S11304E03248484832324A4848303A4141217A3AFF
S11304F042402078009DA0A07D39444444393D40C9
S113050040403D3C24FF2424487E4943662B2FFC75
S11305102F2BFF0929F620C0887E09032054547923
S1130520410000447D413048484A32384040227AF4
S1130530007A0A0A727D0D19317D2629292F282671
S11305402929292630484D40203808080808080879
S11305500808382F10C8ACBA2F102834FA00007BD2
S1130560000008142A142222142A1408AA00550090
S1130570AAAA55AA55AA000000FF00101010FF00F7
S1130580141414FF001010FF00FF1010F010F014EA
S11305901414FC001414F700FF0000FF00FF1414EF
S11305A0F404FC141417101F10101F101F1414143B
S11305B01F00101010F0000000001F101010101F7A
S11305C010101010F010000000FF10101010101088
S11305D0101010FF10000000FF140000FF00FF00C7
S11305E0001F10170000FC04F4141417101714143F
S11305F0F404F40000FF00F714141414141414F792
S113060000F7141414171410101F101F141414F4EA
S1130610141010F010F000001F101F0000001F1431
S1130620000000FC140000F010F01010FF10FF1484
S11306301414FF141010101F00000000F010FFFF2E
S1130640FFFFFFF0F0F0F0F0FFFFFF0000000000FC
S1130650FFFF0F0F0F0F0F38444438447C2A2A3E03
S1130660147E02020606027E027E0263554941633D
S11306703844443C04407E201E2006027E02029937
S1130680A5E7A5991C2A492A1C4C7201724C304AD0
S11306904D4D303048784830BC625A463D3E494959
S11306A049007E0101017E2A2A2A2A2A44445F4401
S11306B04440514A444040444A51400000FF010331
S11306C0E080FF000008086B6B08361236243606FB
S11306D00F090F0600001818000000101000304029
S11306E0FF0101001F01011E00191D1712003C3CEF
S11306F03C3C00000000000011241FBECFEFCDBF22
S1130700DFE2DEBF16E2A0E0B0E2E6E3FBE100E0F8
S11307100BBF02C007900D92A632B107D9F727E2AA
S1130720A6E2B6E201C01D92AC3AB207E1F74ED69A
S11307300C94990D65CCE0E5F0E0808182608083C3
S1130740818181FFFDCF88ED84BF81E080934000EB
S1130750089580E2E0E6F6E0868308951F920F9202
S11307600FB60F9211240BB60F922F933F934F9312
S11307705F936F937F938F939F93AF93BF93EF9305
S1130780FF934091A0094A3009F066C064EB75E21A
S113079086E296E2D1D6892B21F081E08093592715
S11307A044C067EB75E286E296E2C6D6892B19F05F
S11307B0109259273AC06DEB75E286E296E2BCD6F8
S11307C0892B21F083E0809359272FC065EC75E2D3
S11307D086E296E2B1D6892B21F085E080935927F1
S11307E024C06CEC75E286E296E2A6D6892B61F011
S11307F062E270E086E296E285D643E150E0BC0115
S113080084E197E28AD611C060ED75E286E296E251
S113081093D6892B51F081E08093F02642E350E097
S113082066E276E287E297E278D66BE770E086E2EA
S113083096E268D6892B21F081E08093F1261BC0D3
S11308401092EE261092EF2688ECE6E2F6E2DF0143
S11308501D928A95E9F70FC08091EE269091EF26BC
S11308609C012F5F3F4F2093EE263093EF26FC012F
S1130870EA5DF94D4083FF91EF91BF91AF919F9154
S11308808F917F916F915F914F913F912F910F9035
S11308900BBE0F900FBE0F901F9018959C018031D6
S11308A091050CF069C0603171050CF065C08FE0F2
S11308B090E0861B970B68E170E0EED588309105D7
S11308C034F08031910534F467E870E005C067E0E6
S11308D070E002C067E071E087709078992324F497
S11308E00197886F9F6F0196FB01E81BF90BCF01FD
S11308F0283031051CF4220F331F04C0220F331F8C
S11309002F503109220F331F220F331F220F331FA1
S1130910280F391F4423C1F0F901F695E795F695A0
S1130920E795F695E795EE50F94D2770332781E06A
S113093090E0AC0102C0440F551F2A95E2F79A01DA
S11309408081282B20830895F901F695E795F69583
S1130950E795F695E795EE50F94D2770332781E03A
S113096090E0AC0102C0440F551F2A95E2F79A01AA
S1130970209580812823208308958F929F92AF929F
S1130980BF92CF92DF92EF92FF920F931F93CF9378
S1130990DF93982EC82FD0E05E01A40EB11CCA15B7
S11309A0DB05E4F4C62ED12C7601E20EF11C862E72
S11309B00FC0402FCE0172DF1F5F612F70E06E15F4
S11309C07F05BCF39394C92DD0E0CA15DB0534F43C
S11309D0B601CE14DF04B4F7182DEBCFDF91CF911D
S11309E01F910F91FF90EF90DF90CF90BF90AF9049
S11309F09F908F900895CF93DF9328E0E0E8F6E08E
S1130A0021836623C1F074E041E050E0A8E07683DE
S1130A102FEF260FEA0102C0CC0FDD1F2A95E2F763
S1130A209E0128233923232B11F0A58301C0A6831B
S1130A307583615061F788E0E0E8F6E08683DF9132
S1130A40CF9108950F931F93CF93DF9381E0E0E854
S1130A50F6E0868363E085E090E0CDDF67E080E048
S1130A6090E0C9DFC3EFD6E203E117E2FE0131975C
S1130A70808190E0982F8827288160E1822BBBDF5A
S1130A802296C017D10791F781E0E0E8F6E085836C
S1130A90DF91CF911F910F910895E2EFF6E282E189
S1130AA097E21192E817F907E1F7CCCF08951F9365
S1130AB0CF93DF9390E09460C0E8D6E011E01E830A
S1130AC06CE0880F991F97DF1D83DF91CF911F91F1
S1130AD00895CF93C82FE0E8F6E091E091839583E1
S1130AE094E09183958388E0818381E0E0DF83E073
S1130AF0DEDF88E0DCDF84E1DADF88E1D8DF8C2F19
S1130B00D6DF81EAD4DFCF910895803108F08FE0F9
S1130B10806ACDCF08952F923F924F925F926F9249
S1130B207F928F929F92AF92BF92CF92DF92EF9279
S1130B30FF920F931F93CF93DF9300D01F92CDB7F3
S1130B40DEB7222E402E50E05A01AA0CBB1CAA0C80
S1130B50BB1C4A0D5B1D9A0124503E4F5901C82EFF
S1130B60D92E382E360135E0630E711C802F880F84
S1130B70880F880F801B4B0196E0890E911C7B0126
S1130B80E1E0EE1AF108860F8983F50114918A8257
S1130B909B82598010FF11C0F1E04F1208C0DD2084
S1130BA064F0422D6A817B81C60178DE06C0022D85
S1130BB0242D442D652D832DE0DE16952A813B815D
S1130BC0215031092A833B8354182E153F0511F710
S1130BD03FEFA31AB30A8FEFC81AD80A340CC6140D
S1130BE0D70499F62396CDBFDEBFDF91CF911F9135
S1130BF00F91FF90EF90DF90CF90BF90AF909F90B8
S1130C008F907F906F905F904F903F902F900895BA
S1130C10E0E0F6E020EE2283A0E2B6E091E0129656
S1130C209C93129782E0858B868B878B50968C934E
S1130C30509722871A969C931A9783E08187199676
S1130C408C930895E0E0F6E0808585FF0DC08085F3
S1130C5086FF0CC0808588235CF4E0E2F6E08085A2
S1130C6080FD08C084E0089581E0089582E008953D
S1130C7083E0089580E008951F920F920FB60F92BB
S1130C8011240BB60F922F933F934F935F936F935F
S1130C907F938F939F93AF93BF93EF93FF93D2DF91
S1130CA080935A27FF91EF91BF91AF919F918F91BC
S1130CB07F916F915F914F913F912F910F900BBE58
S1130CC00F900FBE0F901F9018951F920F920FB6A2
S1130CD00F9211240BB60F922F933F934F935F9370
S1130CE06F937F938F939F93AF93BF93EF93FF93F0
S1130CF0A9DF80935A27FF91EF91BF91AF919F9104
S1130D008F917F916F915F914F913F912F910F90B0
S1130D100BBE0F900FBE0F901F90189588ED84BFE7
S1130D208BE0E0E4F0E08383E0E0F4E0818180FDA7
S1130D30FDCFE0E0F4E080ED97E08287938782E0E6
S1130D408283108611861486158681E08083089537
S1130D50EF92FF920F931F93CF93DF9300D0CDB701
S1130D60DEB7E82E162F1F926F9325ED35E23F93E1
S1130D702F939E012F5F3F4F3F932F9324D40F90C7
S1130D800F900F900F900F900F901A3020F48981DC
S1130D9090E399838A83F12C00E010E028E030E0AE
S1130DA040E150E0B70180E090E0E7DD498150E0A8
S1130DB001E010E021E030E0B70182E090E0ABDE3A
S1130DC04A8150E021E030E0B70189E090E0A3DE01
S1130DD039DE0F900F90DF91CF911F910F91FF900B
S1130DE0EF9008950F931F93CF93DF93F89480931C
S1130DF05B2760935C27CDE5D7E2488320935E2789
S1130E0030935F27009361271093622780E0A0DF6F
S1130E10688189E09DDF7894DF91CF911F910F91D4
S1130E2008951F920F920FB60F9211240BB60F92D2
S1130E302F933F934F935F936F937F938F939F93DE
S1130E40AF93BF93CF93EF93FF9380915B278F5F13
S1130E508C3319F080935B275DC010925B27ECE51F
S1130E60F7E260816F5F60836C3309F04DC01092CC
S1130E705C2780910420882319F060E080E068DF1B
S1130E80EDE5F7E260816F5F60836831A1F5E0E62C
S1130E90F7E2C081AEE5B7E24D915C9111974F5FE7
S1130EA05F4F4D935C939A01A3E9B4E208D3481BC6
S1130EB0590B56954795840F951F9695879596954A
S1130EC087958C0F8083E1E6F7E22FE4829F212D42
S1130ED0112422952F7080819181820F911D80832E
S1130EE0918310925D2780910420882351F060E063
S1130EF089E02EDF06C080910420882311F089E068
S1130F0027DF10925C2706C080910420882311F00B
S1130F1080E01EDFFF91EF91CF91BF91AF919F9140
S1130F208F917F916F915F914F913F912F910F908E
S1130F300BBE0F900FBE0F901F901895DF92EF928B
S1130F40FF920F931F93CF93DF93EC01D62E60E2B1
S1130F50CDD08C01992334F160E3CE01C7D0813028
S1130F60910581F19923C4F739C060E2CE01BED066
S1130F708017910751F199238CF18C01EDCF780101
S1130F804D2D68E1CE0195D09C01009769F4DD20D8
S1130F9069F060E2CE01AAD08E159F0551F41123A9
S1130FA0C4F70AC0912F1AC0932F18C080E090E0B4
S1130FB015C080E090E012C0802F912F0FC0822FC7
S1130FC0932F0CC0D110D1CFDACF78014D2D68E129
S1130FD0CE016FD09C010097E1F2F1CFDF91CF9168
S1130FE01F910F91FF90EF90DF90089560E0A6CFDE
S1130FF00895CF93DF93EC0160E2CE0177D0892B83
S113100019F0CE01F3DFF8CF6BE0CE0197DF60E299
S1131010CE016CD0892BD9F360E2CE0167D0019761
S113102059F780E090E0DF91CF9108950F931F93DB
S1131030CF93DF93EC0140E068E03BD08C01CE011C
S1131040D8DF080F191F40E068E0CE0132D0080F46
S1131050191F40E064E0CE012CD0080F191F40E0B6
S113106065E0CE0126D0080F191F40E066E0CE01EE
S113107020D0080F191F40E063E0CE011AD0080FFA
S1131080191F4FEF61E2CE0114D0080F191F41E080
S113109068E1CE010ED0080F191F44D047E167E084
S11310A0CE0107D0800F911FDF91CF911F910F9137
S11310B00895EF920F931F93CF93DF931F92CDB7B1
S11310C0DEB7262F4983EE24E3948E010F5F1F4F72
S11310D048EE6AE580E894E0D7D080E090E00F9095
S11310E0DF91CF911F910F91EF900895EF920F939D
S11310F01F93CF93DF931F92CDB7DEB7262FEE2435
S1131100E3948E010F5F1F4F48EE6AE580E894E098
S113111079D0898190E00F90DF91CF911F910F9149
S1131120EF9008952FEF89EF90E021508040904098
S1131130E1F700C000000895E0E8F4E0128289E0DD
S1131140858388E0818381E084830895E0E8F4E086
S11311508181877F81830895FC01668384E6489FAB
S1131160A00111244115510509F18481982F987427
S1131170983411F466830AC0982F9075903521F441
S113118087E0838384E00895807C71F48AE68A95FD
S1131190F1F700C0415051094115510531F706C01E
S11311A087E0838383E0089581E00895848185FD49
S11311B0F7CF83E00895FC016783848186FFFDCF28
S11311C0848186FF06C094819295917081E089277D
S11311D0089580E00895FC0184818C708C3081F046
S11311E084818823ECF78781DB018C93442321F0ED
S11311F087E0838381E0089582E0838381E008951A
S113120080E00895CF92DF92EF92FF920F931F93A5
S1131210CF93DF93EC01C62ED42EF22E660F9CDF03
S1131220813031F56F2DCE01C6DF882319F16C2D85
S1131230660F61604D2DCE018FDF8130A9F4FF244C
S1131240FA94FE0C0EC068018FEFC81AD80A41E068
S1131250F11040E0B801CE01BEDFFA94882321F0FA
S113126086018FEFF812EFCF87E08B838E2D03C0BA
S11312708E2D01C086E0DF91CF911F910F91FF90D9
S1131280EF90DF90CF900895CF92DF92EF920F937B
S11312901F93CF93DF93EC01D22E660F5DDF813075
S11312A0D1F46D2DCE0187DF8823B9F0EA94C02EE6
S11312B0D12E0AC0F60161916F01CE017CDF9FEF50
S11312C09E0D882321F0E92EFFEFEF12F3CF87E084
S11312D08B838E2D03C08E2D01C086E0DF91CF91CC
S11312E01F910F91EF90DF90CF9008951F920F926E
S11312F00FB60F9211240BB60F922F933F934F9377
S11313005F938F939F93AF93BF93EF93FF93E0917A
S1131310A427F091A527309709F447C04681578147
S11313202281338180859185DC01A20FB31F8081E6
S113133091818130910569F018F0029799F01DC0F0
S11313404115510591F18C91415051092F5F3F4F47
S11313501DC04230510548F18C91425051092E5F15
S11313603F4F14C04230510500F111968C918058C2
S1131370425051092E5F3F4F09C044305105A8F037
S113138011968C91445051092C5F3F4F46835783EB
S113139042855385415051092423352322833383C5
S11313A090E0E0E2F3E0808F918FFF91EF91BF91A5
S11313B0AF919F918F915F914F913F912F910F909A
S11313C00BBE0F900FBE0F901F901895B4D984E2F6
S11313D080DB80E09ADB61DBBCD93BD085E090E226
S11313E08093A6279093A7278093A8279093A92753
S11313F08DEF95E2BBD087E0E0EAF0E0828380E8FD
S113140094E09ADE8AE590E011DEA0DE01DC86DC61
S11314100FED17E020E030E040E060E08EE1E2DC38
S11314207894FFCF1F920F920FB60F9211248F93CF
S11314309F938091122790911327019680931227EE
S1131440909313279F918F910F900FBE0F901F9031
S11314501895E0E6F6E088E0818384E08283E0EAA0
S1131460F9E080E283838EE2868388E9878383E0E0
S1131470858388E184830895E0EAF9E0918195FF0A
S1131480FDCF8093A0090895E0EAF9E081818823E3
S1131490ECF78091A009089597FB072E16F40094A9
S11314A006D077FD08D01AD007FC05D03EF49095FD
S11314B081959F4F0895709561957F4F0895A29FE0
S11314C0B001B39FC001A39F700D811D1124911D14
S11314D0B29F700D811D1124911D0895AA1BBB1B81
S11314E051E107C0AA1FBB1FA617B70710F0A61B20
S11314F0B70B881F991F5A95A9F780959095BC0141
S1131500CD010895FC018191861721F08823D9F734
S1131510992708953197CF010895FB01DC014150CB
S1131520504048F001900D920020C9F701C01D926F
S113153041505040E0F70895FB0151915523A9F023
S1131540BF01DC014D9145174111E1F759F4CD017B
S11315500190002049F04D9140154111C9F3FB0160
S11315604111EFCF81E090E0019708950F931F930D
S1131570CF93DF93E091A827F091A927238121FF3E
S11315801BC0EC0100E010E089916091A8277091E4
S1131590A927DB011896ED91FC911997882331F066
S11315A00995892B89F30FEF1FEFEECF8AE0099598
S11315B0892B11F4C80102C08FEF9FEFDF91CF9107
S11315C01F910F9108950F931F93CF93DF93CDB77E
S11315D0DEB72E97CDBFDEBF0D891E8986E08C83D2
S11315E009831A838FEF9FE78D839E83AE01475E45
S11315F05F4F6F89788DCE0101960DD0EF81F8850C
S1131600E00FF11F10822E96CDBFDEBFDF91CF9188
S11316101F910F9108952F923F924F925F926F9274
S11316207F928F929F92AF92BF92CF92DF92EF926E
S1131630FF920F931F93CF93DF93CDB7DEB72C9711
S1131640CDBFDEBF7C016B018A01FC0116821782CB
S1131650838181FFB0C1CE0101964C01F7019381D2
S1131660F60193FD859193FF81916F01882309F41D
S11316709EC1853239F493FD859193FF81916F0169
S1131680853221F4B70190E0C4D1E8CF512C312C3C
S113169020E02032A0F48B3269F030F4803259F02B
S11316A0833269F420612CC08D3239F0803339F4EF
S11316B0216026C02260246023C0286021C027FD49
S11316C027C030ED380F3A3078F426FF06C0FAE030
S11316D05F9E300D1124532E13C08AE0389E300DC6
S11316E01124332E20620CC08E3221F426FD5FC1FA
S11316F0206406C08C3611F4206802C0883641F498
S1131700F60193FD859193FF81916F018111C1CF02
S1131710982F9F7D9554933028F40C5F1F4FFFE35F
S1131720F9830DC0833631F0833771F0833509F0C6
S113173057C021C0F801808189830E5F1F4F442464
S11317404394512C540114C03801F2E06F0E711C03
S1131750F801A080B18026FF03C0652D70E002C0AF
S11317606FEF7FEFC5012C8749D12C0183012C85B4
S11317702F77222E16C03801F2E06F0E711CF8018B
S1131780A080B18026FF03C0652D70E002C06FEF1A
S11317907FEFC5012C8727D12C012C852068222EB0
S11317A0830123FC19C0832D90E048165906A0F448
S11317B0B70180E290E02DD13A94F5CFF50127FCF2
S11317C0859127FE81915F01B70190E022D131100C
S11317D03A94F1E04F1A51084114510479F7DEC0EC
S11317E0843611F0893631F5F80127FF07C060818E
S11317F07181828193810C5F1F4F08C06081718168
S1131800882777FD8095982F0E5F1F4F2F76B22E75
S113181097FF09C090958095709561957F4F8F4F84
S11318209F4F2068B22E2AE030E0A40124D1A82ED4
S1131830A81843C0853729F42F7EB22E2AE030E061
S113184025C0F22FF97FBF2E8F36C1F018F48835EA
S113185079F0ADC0803719F0883721F0A8C02F2F58
S11318602061B22EB4FE0DC08B2D8460B82E09C049
S113187024FF0AC09F2F9660B92E06C028E030E0EE
S113188005C020E130E002C020E132E0F801B7FEFB
S113189007C060817181828193810C5F1F4F06C0F4
S11318A06081718180E090E00E5F1F4FA401E3D05E
S11318B0A82EA818FB2DFF77BF2EB6FE0BC02B2D2C
S11318C02E7FA51450F4B4FE0AC0B2FC08C02B2D20
S11318D02E7E05C07A2C2B2D03C07A2C01C0752CCA
S11318E024FF0DC0FE01EA0DF11D8081803311F447
S11318F0297E09C022FF06C07394739404C0822F0A
S1131900867809F0739423FD12C020FF06C05A2C78
S1131910731418F4530C5718732C731460F4B70130
S113192080E290E02C8775D073942C85F6CF7314E5
S113193010F4371801C0312C24FF11C0B70180E323
S113194090E02C8766D02C8522FF16C021FF03C0AF
S113195088E590E002C088E790E0B7010CC0822FD0
S1131960867851F021FD02C080E201C08BE227FDA0
S11319708DE2B70190E04DD0A51430F4B70180E3B7
S113198090E047D05A94F8CFAA94F401EA0DF11DDF
S11319908081B70190E03DD0A110F6CF332009F447
S11319A05DCEB70180E290E034D03A94F7CFF701EE
S11319B08681978102C08FEF9FEF2C96CDBFDEBF4B
S11319C0DF91CF911F910F91FF90EF90DF90CF9017
S11319D0BF90AF909F908F907F906F905F904F904B
S11319E03F902F900895FC010590615070400110C4
S11319F0D8F7809590958E0F9F1F0895FC01615034
S1131A00704001900110D8F7809590958E0F9F1F1C
S1131A1008950F931F93CF93DF93182F092FEB0192
S1131A208B8181FD03C08FEF9FEF20C082FF10C028
S1131A304E815F812C813D81421753077CF4E881FC
S1131A40F9819F012F5F3F4F28833983108306C09C
S1131A50E885F985812F0995892B29F72E813F8106
S1131A602F5F3F4F2E833F83812F902FDF91CF91A4
S1131A701F910F910895FA01AA27283051F12031BE
S1131A8081F1E8946F936E7F6E5F7F4F8F4F9F4F0E
S1131A90AF4FB1E03ED0B4E03CD0670F781F891F50
S1131AA09A1FA11D680F791F8A1F911DA11D6A0F1E
S1131AB0711D811D911DA11D20D009F468943F91D1
S1131AC02AE0269F11243019305D3193DEF6CF01D0
S1131AD00895462F4770405D4193B3E00FD0C9F796
S1131AE0F6CF462F4F70405D4A3318F0495D31FD03
S1131AF04052419302D0A9F7EACFB4E0A695979556
S1131B00879577956795BA95C9F70097610571052B
S1131B1008959B01AC010A2E069457954795379575
S1131B202795BA95C9F7620F731F841F951FA01DCF
S1091B300895F894FFCFB4
S1131B36010000000100000002000000003C0A440D
S1131B460A000041542B43495053454E443D302C22
S1131B560041542B5253540041542B4349504D4F8A
S1131B6644453D300041542B4349504D55583D3072
S1131B760041542B43574D4F44453D310041542BAE
S1131B8643574A41503D220041542B43574A415042
S1131B963F0041542B43495053544152543D22541F
S1131BA64350222C2200222C38300041542B434926
S1131BB65053454E443D0047455420002048545454
S1131BC6502F312E300D0A0041542B434950434CBB
S1131BD64F53450041542B5253540D0041542B434B
S1131BE6574D4F44453D330041323641343131354A
S1131BF6363800496E74656E6F5F36380041542B73
S1131C0643494653520041542B4349504D55583D80
S1131C16310041542B4349505345525645523D31A8
S1131C262C383838380054454C4E4554204F4E0015
S1131C3641542B4349505345525645523D312C3855
S1131C46300057656C636F6D6520746F207468652A
S1131C56204C4544204D617472697820436C6F634F
S1131C666B2074656C6E657420696E74657266614A
S1131C7663650D0A005479706520226D616E222019
S1131C86746F207669657720616C6C206176616972
S1131C966C61626C6520636F6D6D616E64730D0AB1
S1131CA63E006C6564006F6E005475726E696E67F3
S1131CB6206F6E204C4544730D0A3E006F66660025
S1131CC65475726E696E67206F66204C4544730DB9
S1131CD60A3E00646F776E0044696D6D696E672015
S1131CE6646F776E204C4544730D0A3E0075700090
S1131CF644696D6D696E67207570204C4544730D9B
S1131D060A3E00436F6D6D616E64206E6F742066CB
S1131D166F756E64200D0A3E00676574007061730A
S1131D2673776F7264007373696400736574007407
S1131D36696D65004461746520666F726D61742017
S1131D462D205B68683A6D6D3A73733A79797979BF
S1131D565D0D0A3E0057726F6E672074696D6520CB
S1131D66666F726D6174210D0A3E0057726F6E675D
S1131D762074696D6520666F726D61742E2E2E66F1
S1131D8661696C656420617420686F757273210DD6
S1131D960A3E0057726F6E672074696D6520666F20
S1131DA6726D61742E2E2E6661696C656420617491
S1131DB6206D696E75746573210D0A3E0057726F46
S1131DC66E672074696D6520666F726D61742E2E60
S1131DD62E6661696C6564206174207365636F6E39
S1131DE66473210D0A3E0057726F6E672074696D25
S1131DF66520666F726D61742E2E2E6661696C6540
S1131E0664206174207965617273210D0A3E005461
S1131E16696D652077617320737563636573736693
S1131E26756C6C7920736574210D0A3E0057726FC8
S1131E366E672074696D6520666F726D6174206FBC
S1131E46722074696D656F7574210D0A3E00456EC6
S1131E5674657220535349442C206D6178203332C3
S1131E6620636861726163746572730D0A3E005380
S1131E766F6D657468696E672077656E7420777216
S1131E866F6E67210D0A3E005353494420736574EF
S1131E960D0A3E004E6F7420612076616C696420E1
S1131EA6636F6D6D616E640D0A3E00776966690045
S1131EB65475726E696E67206F6666207769666907
S1131EC62E205573652042544E3120746F2074754C
S1131ED6726E206974206F6E20616761696E2E0DC3
S1131EE60A00436F6D6D616E64206E6F7420666FB9
S1131EF6756E64200D0A006D616E002D2D2D2D2D3D
S1131F062D2D2D2D2D2D2D2D2D2D2D2D2D2D2D2DF7
S1131F162D2D2D2D2D2D2D2D2D2D2D2D2D2D0D0A2A
S1131F26006C6564206F6E202D205475726E7320CC
S1131F3674686520656E74697265204C4544206139
S1131F4672726179206F6E2E0D0A006C6564206FC3
S1131F566666202D205475726E732074686520653C
S1131F666E74697265204C454420617272617920F1
S1131F766F66662E0D0A007365742074696D65209C
S1131F862D2053657473207468652074696D65200B
S1131F96616E642064617465206F662074686520D0
S1131FA6636C6F636B2E20466F726D6174205B6881
S1131FB6683A6D6D3A73733A797979795D0D0A00E9
S1131FC67365742073736964202D205365747320BC
S1131FD6746865205353494420666F72207468659B
S1131FE6205769466920636F6E6E656374696F6E08
S1131FF6200D0A007365742070617373776F7264C1
S1132006202D205365747320746865205041535302
S1132016574F524420666F7220746865205769468C
S11320266920636F6E6E656374696F6E2E200D0A88
S1132036006765742074696D65202D2053686F7779
S1132046207468652074696D6520616E642064611E
S11320567465206F662074686520636C6F636B2EED
S1132066200D0A006765742073736964202D20535C
S1132076686F7720746865205353494420666F72ED
S113208620746865205769466920636F6E6E6563C0
S113209674696F6E200D0A0067657420706173732E
S11320A6776F7264202D2053686F772074686520DB
S11320B650415353574F524420666F7220746865DB
S11320C6205769466920636F6E6E656374696F6E27
S11320D62E200D0A0041542B434950434C4F53457F
S11320E63D300D004F4B004552524F5200434F4E68
S11320F64E45435400434C4F534544003139320056
S11321062B4950440025640054696D653A00636F99
S11321166C64332E776176002A2A2A2A2057415680
S113212620504C41594552202A2A2A2A004C45441B
S1132136204D415452495820436C6F636B202D2027
S113214642793A2045726C656E6420486573746EF4
S109215665730D0A000090
S9030000FC
