S01400006D61747269785F636C6F636B2E7372656310
S11300007BC6000098C6000096C6000094C6000097
S113001092C6000090C600008EC600008CC6000088
S11300208AC6000088C600000C94880C84C60000B0
S113003082C6000080C600000C947B167CC60000BB
S11300407AC6000078C6000076C6000074C60000B8
S11300500C94411770C600006EC600006CC6000008
S11300606AC6000068C6000066C6000064C60000D8
S113007062C6000060C600005EC600005CC60000E8
S11300805AC6000058C600000C94880B54C60000E1
S113009052C6000050C600004EC600004CC6000008
S11300A04AC6000048C6000046C6000044C6000018
S11300B042C6000040C600003EC600003CC6000028
S11300C03AC6000038C6000036C6000034C6000038
S11300D032C6000030C600002EC600002CC6000048
S11300E02AC6000028C6000026C6000024C6000058
S11300F022C6000020C600001EC600001CC6000068
S11301001AC6000018C600000C945F0B0C94B10BC7
S113011012C6000010C600000EC600000CC6000087
S11301200AC6000008C6000006C6000004C6000097
S113013002C6000000C60000FEC50000FCC50000A9
S1130140FAC50000F8C50000F6C50000F4C50000BB
S1130150F2C50000F0C50000EEC50000ECC50000CB
S1130160FEC50000E8C50000E6C50000E4C50000C7
S1130170E2C50000E0C50000DEC50000DCC50000EB
S1130180DAC50000D8C50000D6C50000D4C50000FB
S1130190D2C50000D0C50000CEC50000CCC500000B
S11301A0CAC50000C8C50000C6C50000C4C500001B
S11301B0C2C50000C0C50000BEC50000BCC500002B
S11301C0BAC50000B8C50000B6C50000B4C500003B
S11301D0B2C50000B0C50000AEC50000ACC500004B
S11301E0AAC50000A8C50000A6C50000A4C500005B
S11301F0A2C50000A0C500009EC5000000000000CC
S113020000002050705020002070507020000050DA
S1130210707020000020707020002070702070002A
S1130220202070207000000020000000F0F0D0F0CA
S1130230F0F0007050700000F080A080F0F000300A
S113024010606000205020702000203020206000CA
S113025020305010200020705070200040607060EA
S1130260400010307030100020702070200050507A
S11302705000500070D0D0505000306050306000BA
S1130280000000007000207020702070207020207A
S113029020002020207020000020F02000000040DA
S11302A0F04000000000407000000050705000005A
S11302B0002070700000007070200000000000003A
S11302C0000020202000200050500000000050704A
S11302D050705000203060306020401020401000EA
S11302E0205030507000604000000000204040402A
S11302F0200040202020400050207020500000208A
S11303007020000000000000604000007000000049
S113031000000000200010102040400020505050E9
S113032020002060202070006010204070006010C9
S113033020106000105070101000704060106000B9
S113034020406050200070103020200020502050A9
S11303502000205030102000000020002000000069
S11303602000604010204020100000007000700049
S113037040201020400060102000200070505040A9
S11303807000205070505000605060506000304049
S11303904040300060505050600070406040700039
S11303A07040604040003040505030005050705019
S11303B05000702020207000101010502000505069
S11303C060505000404040407000507070505000E9
S11303D06050505050007050505070006050604059
S11303E04000205050703000605060505000304049
S11303F07010600070202020200050505050700079
S113040050505050200050507070500050502050A8
S11304105000505020202000701020407000604098
S11304204040600040402010100060202020600008
S11304302050000000000000000000F060200000D8
S11304400000000030507000404060506000000028
S11304503040300010103050300000007060300028
S11304601020702020000000705010704040605038
S11304705000200020202000200020202060404048
S11304805060500020202020200000007070500098
S11304900000605050000000205020000000605018
S11304A06040000030503010000060404000000008
S11304B03020600000207020300000005050700098
S11304C000005050200000005070700000005020C8
S11304D050000000505020400000602030003020C8
S11304E06020300020202020200060203020600088
S11304F050A0000000000020507000003040407008
S113050020405000505030001020706030002050C7
S11305103050700050003050700040203050700057
S113052020003050700000704070206020507060D7
S11305303000500070603000402070603000500087
S113054020202000205000202000402000202000F7
S113055050205070500020205070500010207060C7
S113056070000000307060003060706070002050D7
S11305702050200050002050200040202050200017
S113058020500050700040205050700050005050D7
S113059020405020505020005000505070002070D7
S11305A040702000102070207000507020702000D7
S11305B00060605050003020302060001020305027
S11305C070001020002020001020705070001020B7
S11305D00050700070007050500070005070500057
S11305E03050700070002050200070002000204027
S11305F0300000704040000000E020200000405027
S11306002050300040502070100020002020200096
S11306100050A050000000A050A000004010401066
S1130620401050A050A050A0B0E0B0E0B0E02020B6
S1130630202020202020E020202020E020E0202076
S11306405050D05050500000F050505000E020E086
S1130650202050D010D0505050505050505000F0E6
S113066010D0505050D010F000005050F000000056
S113067020E020E000000000E020202020203000C6
S113068000002020F00000000000F02020202020A6
S1130690302020200000F00000002020F020202046
S11306A02030203020205050505050505050407036
S11306B0000000704050505050D000F0000000F096
S11306C000D0505050504050505000F000F0000006
S11306D050D000D0505020F000F000005050F000F6
S11306E0000000F000F020200000F0505050505066
S11306F07000000020302030000000302030202026
S11307000000705050505050D050505020F000F025
S113071020202020E0000000000030202020F0F005
S1130720F0F0F0F0000000F0F0F0C0C0C0C0C0C0B5
S1130730303030303030F0F0F000000000007060F5
S11307407000205060506040705040404000705035
S11307505050500070402040700000003050200085
S11307600000505070400010602020007020502085
S11307707000205070502000002050505000304035
S11307802050200000007050700020705070200035
S113079030407040300020505050500070007000C5
S11307A07000207020007000601060007000304005
S11307B03000700000102020202020202020400045
S11307C02000700020000050A050A0002050200005
S11307D000000020702000000000200000003020F5
S11307E02060200070505000000060204060000035
S11307F00000606000000000000000000000000035
S1130800003E5B4F5B3E3E6B4F6B3E1C3E7C3E1C92
S1130810183C7E3C181C577D571C1C5E7F5E1C00D8
S1130820183C1800FFE7C3E7FF0018241800FFE78F
S1130830DBE7FF30483A060E2629792926407F0552
S11308400507407F05253F5A3CE73C5A7F3E1C1C68
S113085008081C1C3E7F14227F22145F5F005F5F28
S113086006097F017F006689956A60606060609414
S1130870A2FFA29408047E040810207E2010080819
S11308802A1C08081C2A08081E101010100C1E0C24
S11308901E0C30383E3830060E3E0E0600000000B6
S11308A00000005F00000007000700147F147F149D
S11308B0242A7F2A122313086462364956205000E2
S11308C008070300001C2241000041221C002A1CCE
S11308D07F1C2A08083E08080080703000080808B9
S11308E00808000060600020100804023E514945D9
S11308F03E00427F400072494949462141494D33F7
S11309001814127F1027454545393C4A494931415D
S1130910211109073649494936464949291E00002B
S11309201400000040340000000814224114141480
S11309301414004122140802015909063E415D596C
S11309404E7C1211127C7F494949363E4141412275
S11309507F4141413E7F494949417F090909013E9F
S1130960414151737F0808087F00417F41002040C6
S1130970413F017F081422417F404040407F021CD8
S1130980027F7F0408107F3E4141413E7F090909EF
S1130990063E4151215E7F091929462649494932BB
S11309A003017F01033F4040403F1F2040201F3F81
S11309B04038403F63140814630304780403615906
S11309C0494D43007F414141020408102000414148
S11309D0417F0402010204404040404000030708F4
S11309E00020545478407F284444383844444428F0
S11309F0384444287F385454541800087E09021897
S1130A00A4A49C787F0804047800447D400020401E
S1130A10403D007F1028440000417F40007C047862
S1130A2004787C080404783844444438FC182424AA
S1130A301818242418FC7C0804040848545454242A
S1130A4004043F44243C4040207C1C2040201C3CA7
S1130A504030403C44281028444C9090907C44649E
S1130A60544C440008364100000077000000413631
S1130A70080002010204023C2623263C1EA1A161B7
S1130A80123A4040207A38545455592155557941E9
S1130A902154547841215554784020545579400CC0
S1130AA01E527212395555555939545454593955A1
S1130AB05454580000457C410002457D42000145E4
S1130AC07C40F0292429F0F0282528F07C54554551
S1130AD0002054547C547C0A097F493249494932E4
S1130AE03248484832324A4848303A4141217A3AF9
S1130AF042402078009DA0A07D39444444393D40C3
S1130B0040403D3C24FF2424487E4943662B2FFC6F
S1130B102F2BFF0929F620C0887E0903205454791D
S1130B20410000447D413048484A32384040227AEE
S1130B30007A0A0A727D0D19317D2629292F28266B
S1130B402929292630484D40203808080808080873
S1130B500808382F10C8ACBA2F102834FA00007BCC
S1130B60000008142A142222142A1408AA0055008A
S1130B70AAAA55AA55AA000000FF00101010FF00F1
S1130B80141414FF001010FF00FF1010F010F014E4
S1130B901414FC001414F700FF0000FF00FF1414E9
S1130BA0F404FC141417101F10101F101F14141435
S1130BB01F00101010F0000000001F101010101F74
S1130BC010101010F010000000FF10101010101082
S1130BD0101010FF10000000FF140000FF00FF00C1
S1130BE0001F10170000FC04F41414171017141439
S1130BF0F404F40000FF00F714141414141414F78C
S1130C0000F7141414171410101F101F141414F4E4
S1130C10141010F010F000001F101F0000001F142B
S1130C20000000FC140000F010F01010FF10FF147E
S1130C301414FF141010101F00000000F010FFFF28
S1130C40FFFFFFF0F0F0F0F0FFFFFF0000000000F6
S1130C50FFFF0F0F0F0F0F38444438447C2A2A3EFD
S1130C60147E02020606027E027E02635549416337
S1130C703844443C04407E201E2006027E02029931
S1130C80A5E7A5991C2A492A1C4C7201724C304ACA
S1130C904D4D303048784830BC625A463D3E494953
S1130CA049007E0101017E2A2A2A2A2A44445F44FB
S1130CB04440514A444040444A51400000FF01032B
S1130CC0E080FF000008086B6B08361236243606F5
S1130CD00F090F0600001818000000101000304023
S1130CE0FF0101001F01011E00191D1712003C3CE9
S1130CF03C3C00000000000011241FBECFEFCDBF1C
S1130D00DFE2DEBF18E2A0E0B0E2ECEFF6E300E0E1
S1130D100BBF02C007900D92A431B107D9F729E2A5
S1130D20A4E1B8E201C01D92AF3CB207E1F70E9412
S1130D30EB160C947C1B64C9E0E5F0E080818260D2
S1130D408083818181FFFDCF88ED84BF81E0809322
S1130D504000089580E2E0E6F6E0868308951F925D
S1130D600F920FB60F9211240BB60F922F933F934D
S1130D704F935F936F937F938F939F93AF93BF939F
S1130D80EF93FF934091A0094A3009F070C067E5E2
S1130D9076E284E198E20E946E18892B21F081E0CA
S1130DA0809376294CC06AE576E284E198E20E9459
S1130DB06E18892B19F01092762941C060E676E20C
S1130DC084E198E20E946E18892B21F083E08093DD
S1130DD0762935C068E676E284E198E20E946E18CE
S1130DE0892B21F085E08093762929C06FE676E28D
S1130DF084E198E20E946E18892B71F062E270E03F
S1130E0084E198E20E94541843E150E0BC0181E37C
S1130E1099E20E945F1813C063E776E284E198E2E6
S1130E200E946E18892B59F081E08093DE2842E3FA
S1130E3050E064E178E284E499E20E945F186BE791
S1130E4070E084E198E20E945418892B21F081E03B
S1130E508093DF281BC01092DC281092DD2888ECD8
S1130E60E4E1F8E2DF011D928A95E9F70FC0809171
S1130E70DC289091DD289C012F5F3F4F2093DC28D4
S1130E803093DD28FC01EC5EF74D4083FF91EF9138
S1130E90BF91AF919F918F917F916F915F914F918E
S1130EA03F912F910F900BBE0F900FBE0F901F908C
S1130EB018959C01803191050CF06AC06031710570
S1130EC00CF066C08FE090E0861B970B68E170E041
S1130ED00E94F2178830910534F08031910534F482
S1130EE067E870E005C067E070E002C067E071E0A9
S1130EF087709078992324F40197886F9F6F0196E7
S1130F00FB01E81BF90BCF01283031051CF4220F3B
S1130F10331F04C0220F331F2F503109220F331FF8
S1130F20220F331F220F331F280F391F4423C1F010
S1130F30F901F695E795F695E795F695E795E0526C
S1130F40F74D2770332781E090E0AC0102C0440FD5
S1130F50551F2A95E2F79A018081282B2083089552
S1130F60F901F695E795F695E795F695E795E0523C
S1130F70F74D2770332781E090E0AC0102C0440FA5
S1130F80551F2A95E2F79A01209580812823208312
S1130F9008958F929F92AF92BF92CF92DF92EF9279
S1130FA0FF920F931F93CF93DF93982EC82FD0E017
S1130FB05E01A40EB11CCA15DB05E4F4C62ED12CC7
S1130FC07601E20EF11C862E0FC0402FCE0171DF98
S1130FD01F5F612F70E06E157F05BCF39394C92DDC
S1130FE0D0E0CA15DB0534F4B601CE14DF04B4F73F
S1130FF0182DEBCFDF91CF911F910F91FF90EF90C0
S1131000DF90CF90BF90AF909F908F900895CF9333
S1131010DF9328E0E0E8F6E021836623C1F074E082
S113102041E050E0A8E076832FEF260FEA0102C0EA
S1131030CC0FDD1F2A95E2F79E0128233923232BA9
S113104011F0A58301C0A6837583615061F788E020
S1131050E0E8F6E08683DF91CF9108950F931F9324
S1131060CF93DF9381E0E0E8F6E0868363E085E0F8
S113107090E0CDDF67E080E090E0C9DFC1EED8E228
S113108001E019E2FE013197808190E0982F8827D2
S1131090288160E1822BBBDF2296C017D10791F72C
S11310A081E0E0E8F6E08583DF91CF911F910F9115
S11310B00895E0EEF8E280E099E22FEF2193E8173B
S11310C0F907E1F7CBCF0895E0EEF8E280E099E28A
S11310D01192E817F907E1F7C1CF08951F93CF9351
S11310E0DF9390E09460C0E8D6E011E01E836CE0EA
S11310F0880F991F8CDF1D83DF91CF911F91089575
S1131100CF93C82FE0E8F6E091E09183958394E0D3
S11311109183958388E0818381E0E0DF83E0DEDFF3
S113112088E0DCDF84E1DADF88E1D8DF8C2FD6DFEA
S113113081EAD4DFCF910895803108F08FE0806A8E
S1131140CDCF08952F923F924F925F926F927F92EC
S11311508F929F92AF92BF92CF92DF92EF92FF92C3
S11311600F931F93CF93DF9300D01F92CDB7DEB7B9
S1131170222E402E50E05A01AA0CBB1CAA0CBB1C08
S11311804A0D5B1D9A012450384F5901C82ED92E9F
S1131190382E360135E0630E711C802F880F880FBE
S11311A0880F801B4B0196E0890E911C7B01E1E0C6
S11311B0EE1AF108860F8983F50114918A829B82C5
S11311C0598010FF11C0F1E04F1208C0DD2064F017
S11311D0422D6A817B81C6016CDE06C0022D242D5E
S11311E0442D652D832DD5DE16952A813B81215012
S11311F031092A833B8354182E153F0511F73FEF1D
S1131200A31AB30A8FEFC81AD80A340CC614D70429
S113121099F62396CDBFDEBFDF91CF911F910F9139
S1131220FF90EF90DF90CF90BF90AF909F908F9002
S11312307F906F905F904F903F902F9008952F92E2
S11312403F924F925F926F927F928F929F92AF9252
S1131250BF92CF92DF92EF92FF920F931F93CF939F
S1131260DF93CDB7DEB72597CDBFDEBF222E402E4C
S113127050E03A01660C771C460D571D440F551F6C
S1131280362E202F220F220F220F201BC12CD12CEF
S1131290FA01E450FE4F3F014C01F5E08F0E911C22
S11312A07C0133E0E31AF108280F2983CB0103966C
S11312B08A839B83F301EC0DFD1D14918C829D8226
S11312C05980AA80BB80AC18BD0810FF12C091E001
S11312D0491209C0EC81FD81FF235CF0422DB50168
S11312E0CF01E7DD06C0022D242D442D632D852D6D
S11312F050DE16958C819D8101978C839D835418B3
S11313008E159F0511F79FEFC91AD90A3418E6E024
S1131310CE16D10479F62596CDBFDEBFDF91CF91ED
S11313201F910F91FF90EF90DF90CF90BF90AF90FF
S11313309F908F907F906F905F904F903F902F90F1
S11313400895CF93DF9332E020E0CEEED8E2A1EE11
S1131350B8E202C02E5F3E5FE22F2E3019F44C91AA
S11313604883F8CF2E3129F48091F1288093FE2808
S113137009C0FF27E7FDF095E052F74D4281408315
S11313803F3144F393E081E0AFEEB8E202C08E5FF8
S11313909E5FE82F8F3011F41C92F9CF8F3119F42E
S11313A01092FF2809C0FF27E7FDF095E052F74DA2
S11313B02281208390325CF351DE2FEF89EF90E09D
S11313C0215080409040E1F700C00000DF91CF91B0
S11313D008958F929F92AF92BF92CF92DF92EF9235
S11313E0FF920F931F93CF93DF93CDB7DEB7A097F0
S11313F0CDBFDEBF20E2CE010196DC01E22F1D92BB
S1131400EA95E9F730E2E0EEF8E2DC0101900D92B2
S11314103A95E1F7E0EEF8E2DF011D922A95E9F74B
S11314208E010F5E1F4F5C014E01B1E28B0E911CC9
S11314300F2EFFEECF2EF8E2DF2EF02D0F2EFFEF52
S1131440EF2EF8E2FF2EF02DF80170978081F6015F
S11314508083D8018C91F701808373DF0E5F1F4F67
S11314600815190589F78E010E5E1F4FFFE1AF0EB7
S1131470B11C0F2EFFEECF2EF8E2DF2EF02D0F2E33
S1131480FFEFEF2EF8E2FF2EF02DF8017097808128
S1131490D6018C93F8018081D7018C9352DF0E5FC3
S11314A01F4F0A151B0589F7A096CDBFDEBFDF913C
S11314B0CF911F910F91FF90EF90DF90CF90BF904D
S11314C0AF909F908F900895CF93CFE13ADFC150B2
S11314D0E9F7CF910895CF93DF93EFEFF8E24DE171
S11314E021EF38E2CEEFD8E209C0425032974F3FA5
S11314F029F48091EE288093E1280CC04F3021F428
S11315005881D9015C93F1CFDF0112975C9150832C
S113151014165CF3EEEFF8E22CE1C0EFD8E207C05A
S1131520225032972E3F19F41092E0280AC02E3030
S113153011F41882F5CFDF0112973C9130832223F6
S11315407CF78CDDBFEF29EF80E0B1502040804074
S1131550E1F700C00000DF91CF9108958F929F9230
S1131560AF92BF92CF92DF92EF92FF920F931F93AD
S1131570CF93DF93CDB7DEB7A097CDBFDEBF20E218
S1131580CE010196DC01E22F1D92EA95E9F730E2E3
S1131590E0EEF8E2DC0101900D923A95E1F7E0EE1D
S11315A0F8E2DF011D922A95E9F78E01005E1F4FD4
S11315B05C014E01B0E18B0E911C6F010F2EF0EF18
S11315C0EF2EF8E2FF2EF02DF80170978081F601DE
S11315D08083D8018C91F70180837DDF025011094B
S11315E00815190589F78E01015E1F4FFEE0AF0E45
S11315F0B11C0F2EF0EECF2EF8E2DF2EF02D0F2EC1
S1131600F0EFEF2EF8E2FF2EF02DF80170978081B5
S1131610D6018C93F8018081D7018C935CDF025052
S113162011090A151B0589F7A096CDBFDEBFDF910E
S1131630CF911F910F91FF90EF90DF90CF90BF90CB
S1131640AF909F908F900895CF93CFE144DFC15026
S1131650E9F7CF910895E0E0F6E020EE2283A0E2DE
S1131660B6E091E012969C93129782E0858B868B6C
S1131670878B50968C93509722871A969C931A972F
S113168083E0818719968C930895E0E0F6E08085E5
S113169085FF0DC0808586FF0CC0808588235CF49F
S11316A0E0E2F6E0808580FD08C084E0089581E0F2
S11316B0089582E0089583E0089580E008951F92DC
S11316C00F920FB60F9211240BB60F922F933F93E4
S11316D04F935F936F937F938F939F93AF93BF9336
S11316E0EF93FF93D2DF80937729FF91EF91BF911E
S11316F0AF919F918F917F916F915F914F913F91A6
S11317002F910F900BBE0F900FBE0F901F90189546
S11317101F920F920FB60F9211240BB60F922F93B4
S11317203F934F935F936F937F938F939F93AF9365
S1131730BF93EF93FF93A9DF80937729FF91EF91F4
S1131740BF91AF919F918F917F916F915F914F91D5
S11317503F912F910F900BBE0F900FBE0F901F90D3
S113176018951F920F920FB60F9211240BB60F9279
S11317702F933F934F935F936F937F938F939F9395
S1131780AF93BF93EF93FF9394DCFF91EF91BF91DD
S1131790AF919F918F917F916F915F914F913F9105
S11317A02F910F900BBE0F900FBE0F901F901895A6
S11317B088ED84BF8BE0E0E4F0E08383E0E0F4E0D4
S11317C0818180FDFDCFE0E0F4E088EB9BE082873F
S11317D0938782E08283108611861486158681E0C1
S11317E080830895109204200895EF92FF920F933E
S11317F01F93CF93DF9300D0CDB7DEB7E82E162F1B
S11318001F926F9328E736E23F932F939E012F5F39
S11318103F4F3F932F930E94C6180F900F900F9045
S11318200F900F900F901A3020F4898190E39983E0
S11318308A83F12C00E010E028E030E040E150E041
S1131840B70180E090E0A5DB498150E001E010E0C1
S113185021E030E0B70182E090E074DC4A8150E09E
S113186021E030E0B70189E090E06CDC0F900F904C
S1131870DF91CF911F910F91FF90EF900895CF9337
S1131880DF9322DC1092782910927929CAE7D9E2F1
S1131890188210927B2910927C2910927D29109233
S11318A07E2910927F2960E080E09FDF688189E0D3
S11318B09CDFD4DBDF91CF9108956091792980E09A
S11318C094DF60917A2989E090DF81E0809304209D
S11318D008950F931F93CF93DF9380937829C9E7DB
S11318E0D9E2688340937A2920937B2930937C2919
S11318F000937E2910937F29642F89E076DF688125
S113190080E073DFABDBDF91CF911F910F910895DE
S11319101F920F920FB60F9211240BB60F922F93B2
S11319203F934F935F936F937F938F939F93AF9363
S1131930BF93CF93EF93FF93809178298F5F8C337C
S113194019F08093782962C010927829E9E7F9E2C6
S113195060816F5F60836C3309F051C01092792904
S113196080910420882321F060E080E03EDF76DB74
S1131970EAE7F9E260816F5F60836831B1F5EDE712
S1131980F9E2C081ABE7B9E24D915C9111974F5FE9
S11319905F4F4D935C939A01A3E9B4E20E94271828
S11319A0481B590B56954795840F951F9695879517
S11319B0969587958C0F8083EEE7F9E22FE4829F5A
S11319C0212D112422952F7080819181820F911DE8
S11319D08083918310927A2980910420882361F076
S11319E060E089E002DF3ADB07C0809104208823AD
S11319F019F089E0FADE32DB1092792907C0809170
S1131A000420882319F080E0F0DE28DBFF91EF91B9
S1131A10CF91BF91AF919F918F917F916F915F9182
S1131A204F913F912F910F900BBE0F900FBE0F90CF
S1131A301F901895DF92EF92FF920F931F93CF930D
S1131A40DF93EC01D62E60E241D58C01992334F169
S1131A5060E3CE013BD58130910581F19923C4F730
S1131A6039C060E2CE0132D58017910751F1992334
S1131A708CF18C01EDCF78014D2D68E1CE0109D5B3
S1131A809C01009769F4DD2069F060E2CE011ED567
S1131A908E159F0551F41123C4F70AC0912F1AC063
S1131AA0932F18C080E090E015C080E090E012C051
S1131AB0802F912F0FC0822F932F0CC0D110D1CF24
S1131AC0DACF78014D2D68E1CE01E3D49C01009773
S1131AD0E1F2F1CFDF91CF911F910F91FF90EF9041
S1131AE0DF900895CF92DF92EF920F931F93CF93DD
S1131AF0DF9300D0CDB7DEB76C0181E896E20E9497
S1131B0099186894EE24E1F88E010F5F1F4F26E2C6
S1131B1042E36AE580E894E00E9404168A8190E03A
S1131B20982F88272981822BF6018287938728E2C0
S1131B3042E36AE580E894E00E9404168A8190E01A
S1131B40982F88272981822BF601848795872AE29A
S1131B5042E36AE580E894E00E9404168A8190E0FA
S1131B60982F88272981822BF6018687978724E27C
S1131B7042E36AE580E894E00E9404168A8190E0DA
S1131B80982F88272981822BF6018087918722E26A
S1131B9042E36AE580E894E00E9404168A8190E0BA
S1131BA0982F88272981822BF6018683978382E9DF
S1131BB096E20E94991880E00F900F90DF91CF91E8
S1131BC01F910F91EF90DF90CF90089560E032CF96
S1131BD008956FE02FCF0895CF92DF92EF92FF9296
S1131BE00F931F93CF93DF9300D0CDB7DEB78C0153
S1131BF0D62EC42E60E3C80169D48130910579F0F2
S1131C009923C4F71EC060E2C80160D48E159F05F5
S1131C10D1F318161906ACF480E090E012C060E22B
S1131C20C80154D47C01C9828D2D8F7180568A835A
S1131C309E012F5F3F4F42E067E1C80163D40097E4
S1131C4011F30F900F90DF91CF911F910F91FF909F
S1131C50EF90DF90CF900895CF93DF93EC0160E293
S1131C60CE0134D4892B19F0CE01B0DFF8CF6BE06C
S1131C70CE01E0DE60E2CE0129D4892BD9F360E203
S1131C80CE0124D4019759F780E090E0DF91CF9101
S1131C9008950F931F93CF93DF93EC0140E068E026
S1131CA0F8D38C01CE01D8DF080F191F40E068E09B
S1131CB0CE01EFD3080F191F40E064E0CE01E9D351
S1131CC0080F191F40E065E0CE01E3D3080F191F88
S1131CD040E066E0CE01DDD3080F191F40E063E069
S1131CE0CE01D7D3080F191F4FEF61E2CE01D1D334
S1131CF0080F191F41E068E1CE01CBD3080F191F6B
S1131D0011D447E167E0CE01C4D3800F911FDF9166
S1131D10CF911F910F9108950F931F93CF93DF934A
S1131D20EC0140E068E0B5D38C0140E06AE0CE010C
S1131D30B0D3080F191F40E069E0CE01AAD3080F01
S1131D40191FCE01A6DF080F191F45E56FE0CE016C
S1131D50A0D3080F191F40E060E1CE019AD3080F09
S1131D60191F47E761E0CE0137DF080F191F41E073
S1131D7063E0CE018ED3080F191F4DE164E0CE015C
S1131D8088D3080F191F40E065E0CE0182D3080F05
S1131D90191F40E066E0CE017CD3080F191F43E011
S1131DA067E0CE0119DF080F191F43E068E0CE0198
S1131DB013DF080F191F43E069E0CE010DDF080FA0
S1131DC0191F43E06EE0CE0107DF080F191F40E042
S1131DD06BE0CE0101DF080F191F40E06EE1CE0178
S1131DE0FBDE080F191F40E061E1CE01F5DE080FAC
S1131DF0191F41E262E0CE01EFDE080F191F44E033
S1131E0063E0CE01E9DE080F191F40E76AE0CE0166
S1131E10E3DE080F191F40E76DE1CE01DDDE080F98
S1131E20191F40E760E1CE01D7DE080F191F44E017
S1131E306CE0CE01D1DE080F191F40E26FE1CE0144
S1131E40CBDE080F191F40E262E1CE01C5DE080FA8
S1131E50191F44E968E0CE011CD3080F191F48E09C
S1131E606AE0CE0116D3080F191F48E069E0CE01DD
S1131E7010D3080F191FCE01ACDE800F911FDF9124
S1131E80CF911F910F9108952FEF81EE94E021508F
S1131E9080409040E1F700C000008AE590E0F9DE60
S1131EA02FEF81EE94E0215080409040E1F700C094
S1131EB000008AE590E030DF2FEF81EE94E02150BE
S1131EC080409040E1F700C000000895CF92DF9277
S1131ED0EF92FF920F931F9340910F295091102975
S1131EE06091112970911229452B462B472B71F4CF
S1131EF0FC014085518560E070E040930F295093C8
S1131F001029609311297093122907C0FC012085C0
S1131F10318521383B4B08F053C0FC014085518585
S1131F2060E070E080910F2990911029A09111290F
S1131F30B09112298C019D01369527951795079527
S1131F4068017901C80ED91EEA1EFB1E4C155D05F9
S1131F506E057F0558F56C017D01C01AD10AE20AAD
S1131F60F30AC416D506E606F70600F58C019D01B2
S1131F70000F111F221F331F800F911FA21FB31FB9
S1131F80480F591F6A1F7B1F76956795579547958C
S1131F90769567955795479540930F295093102947
S1131FA0609311297093122981E00BC040930F298B
S1131FB050931029609311297093122980E001C075
S1131FC080E01F910F91FF90EF90DF90CF900895E4
S1131FD00F931F93CF93DF93EB01813021F120F016
S1131FE0823009F43FC05BC00A851B85FA01A081D9
S1131FF088859985A80160E070E0480F591F611D2C
S1132000711D9A01AB01325041095109B0E00E949F
S1132010361820E137E240E050E0F7D7200F311FB7
S11320202A873B873CC00C851D85FA01A1818885E0
S11320309985A80160E070E0480F591F611D711D6A
S11320409A01AB01325041095109B0E00E9436189F
S113205020E137E240E050E0D8D7200F311F2C8731
S11320603D871DC00E851F85FA01A281888599854B
S1132070A80160E070E0480F591F611D711D9A01AD
S1132080AB01325041095109B0E0F0D720E137E209
S113209040E050E0BAD7200F311F2E873F87DF91F1
S11320A0CF911F910F9108950F931F93CF93DF93B7
S11320B0813039F018F0823039F009C0FB013A96CA
S11320C025C0FB013C9622C0FB013E961FC0109226
S11320D0092910920A2910920B2910920C291092A6
S11320E00D2910920E29109203291092042910929E
S11320F00529109206291092072910920829109296
S113210000291092012910920229CBC090E0DC0131
S1132110AA0FBB1FA75FB64D2D913C91232BD9F479
S113212060817181DC01AA0FBB1FAD5EB64D2D919C
S11321303C916217730740F4DC01AA0FBB1FA75F31
S1132140B64D6D937C9307C0DC01AA0FBB1FA75F3C
S1132150B64D2D933C9360817181FC01EE0FFF1FFE
S1132160ED5EF64D208131816217730708F077C068
S1132170FC01EE0FFF1FE75FF64D0190F081E02DAB
S1132180DF01AA0FBB1FAA0FBB1FAA0FBB1FAE1BE9
S1132190BF0B8B0120E030E00A0F1B1F211D311DF6
S11321A0689412F836952795179507951694D1F7E4
S11321B0D8010024AA0FBB1F001CAA0FBB1F001CC0
S11321C0AB2FB02DED01C00FD11FCE17DF0708F4E0
S11321D03FC0E801CA1BDB0BEC17FD07C8F1FC018B
S11321E0EE0FFF1FED5FF64D0190F081E02D30976B
S11321F061F4FC01EE0FFF1FED5FF64D6083718308
S1132200FC01E050F74D108223C0E617F707A8F051
S1132210DC01A050B74D6C916F5F6C936134C0F0DA
S1132220DC01AA0FBB1FAD5FB64D3197ED93FC9354
S1132230FC01E050F74D10820BC0FC01EE0FFF1FB4
S1132240ED5FF64D60837183FC01E050F74D108221
S1132250FC01EE0FFF1FE75FF64D00831183FC01C5
S1132260EE0FFF1FED5FF64D208131812115310501
S113227051F0FC01EE0FFF1FE058F64D420F531FC3
S1132280408351830EC0880F991FFC01E058F64D1E
S1132290DC01A75FB64D8D919C91480F591F408377
S11322A05183DF91CF911F910F910895EF92FF9287
S11322B00F931F93CF93DF938C01EB01209113298C
S11322C030911429232BC1F480911529909116295A
S11322D0892B91F48091172990911829892B61F405
S11322E080910C20803841F482EA96E222D760E0A3
S11322F070E081E090E0CCD080910C20882309F438
S11323007EC0823048F18A859B85209113293091C3
S113231014292817390720F480931329909314293A
S11323208C859D8520911529309116292817390708
S113233020F480931529909316298E859F852091EA
S11323401729309118292817390708F052C08093AB
S11323501729909318294DC0C7E1D9E289818F9339
S113236088818F9305E119E2F80181818F9380813F
S11323708F930F2EF3E1EF2EF9E2FF2EF02DF701EC
S113238081818F9380818F9386EE96E29F938F93C2
S1132390BFD66FEF70E081E090E07AD080910A20A0
S11323A090910B20880F991FF70140815181480FAC
S11323B0591F40835183F80120813181280F391F2F
S11323C02083318368817981860F971F888399835D
S11323D04093802950938129209382293093832923
S11323E080938429909385298DB79EB708968DBFD5
S11323F09EBF80910C20815080930C2042C08A851E
S11324009B8581389B4B50F48C859D8581389B4BF3
S113241028F48E859F8581389B4B20F082E297E2D9
S113242088D62FC0CE0152DD882359F145E050E211
S1132430BE0180E0CDDD45E050E2BE0181E0C8DDB3
S113244045E050E2BE0182E0C3DD40910A20509194
S11324500B20BE0180E028DE40910A2050910B2021
S1132460BE0181E021DE40910A2050910B20BE0183
S113247082E01ADE4091082050910920BE01C80173
S11324807AD1DF91CF911F910F91FF90EF90089532
S11324900895EF920F931F93CF93DF931F92CDB7BD
S11324A0DEB7262F4983EE24E3948E010F5F1F4F7E
S11324B048EE6AE580E894E0ECD380E090E00F9089
S11324C0DF91CF911F910F91EF900895EF920F93A9
S11324D01F93CF93DF931F92CDB7DEB7262FEE2441
S11324E0E3948E010F5F1F4F48EE6AE580E894E0A5
S11324F08BD3898190E00F90DF91CF911F910F9141
S1132500EF900895EF920F931F938901E42E262FE5
S113251048EE6AE580E894E0BCD390E01F910F9107
S1132520EF9008952FEF89EF90E021508040904084
S1132530E1F700C000000895EF92FF920F931F93FC
S1132540CF93DF93CDB7DEB7C25AD109CDBFDEBF7B
S113255042E1ECE1F0E2DE01119601900D924A9520
S1132560E1F742E1EEE2F0E2DE01539601900D92D2
S11325704A95E1F742E1E0E4F0E2DE01959601904C
S11325800D924A95E1F742E1E2E5F0E2DE01D796E9
S113259001900D924A95E1F742E1E4E6F0E2DE01B2
S11325A0A75BBF4F01900D924A95E1F742E1E6E740
S11325B0F0E2DE01A55ABF4F01900D924A95E1F772
S11325C042E1E2E5F0E2DE01A359BF4F01900D9232
S11325D04A95E1F742E1E4E6F0E2DE01A158BF4F9B
S11325E001900D924A95E1F742E1E6E7F0E2DE015F
S11325F0AF56BF4F01900D924A95E1F7613091F5C6
S11326004DA15EA14817590760F0DE01979661E07D
S113261070E0E62FAB01ED90FD90E816F906D0F4DA
S113262003C040E050E0E0E0440F551F21E030E0FB
S11326302C0F3D1F420F531FDA0152962D913C91EE
S11326405397DC0104D5DA014D915C918A01081B92
S1132650190B7BC0E1E0E60F6F5F7F4F69307105B6
S1132660C1F673C06230B1F56D964EAD5FAD6D9736
S11326704817590768F0DE01A35ABF4F61E070E0C4
S1132680E62FAB01ED90FD90E816F906D8F403C0EF
S113269040E050E0E0E0440F551FA9E4B0E0AC0F87
S11326A0BD1FA40FB51F2D913C91DC01D0D4DE01D8
S11326B0A40FB51FD7964D915C91D8978A01081B3A
S11326C0190B43C0E1E0E60F6F5F7F4F693071057E
S11326D0B9F63BC0633009F041C0CF56DF4F4881A3
S11326E05981C159D0404817590768F0DE01AD56E9
S11326F0BF4F61E070E0E62FAB01ED90FD90E8166E
S1132700F906E0F403C040E050E0E0E0440F551F58
S1132710AFE7B0E0AC0FBD1FA40FB51F2D913C91E6
S1132720DC0195D4ADE6B0E0AC0FBD1FA40FB51F1E
S11327304D915C918A01081B190B07C0E1E0E60F7B
S11327406F5F7F4F69307105B1F60B3F110510F4CF
S1132750E93011F40AEF10E0C80102C08FEF9FEFD7
S1132760CE55DF4FCDBFDEBFDF91CF911F910F91CB
S1132770FF90EF9008953F924F925F926F927F92F5
S11327808F929F92AF92BF92CF92DF92EF92FF927D
S11327900F931F93CF93DF93CDB7DEB7AE97CDBF23
S11327A0DEBF7B015A01FB0122813381ADECBCEC1D
S11327B04ED48C0116950795169507951695079591
S11327C084E1E8E8F0E2DE01119601900D928A9529
S11327D0E1F78AE0ECE9F0E2DE01559601900D9212
S11327E08A95E1F788E0E6EAF0E2DE015F9601907F
S11327F00D928A95E1F788E0EEEAF0E2DE01979621
S113280001900D928A95E1F7F701828593852091D5
S1132810802930918129821B930B12F480E090E08F
S113282061E09C01A29EC001A39E900DB29E900DFA
S1132830112482DE6C01F70184859585209182291B
S113284030918329821B930B12F480E090E061E0C5
S11328509C01A29EC001A39E900DB29E900D1124D6
S11328606BDE5C019601D601F2D32B013C0138EEFC
S1132870430E30E8531E611C711C9501D501E7D34A
S1132880461A570A680A790A1AF4412C512C320163
S1132890C301B2012CE330E040E050E0B6D329019B
S11328A03A014EE4441644E0540630F00F2EFDE4A1
S11328B04F2EF4E05F2EF02D51EFC516D10428F40D
S11328C061EFA616B10408F441C080910D20811176
S11328D01FC080912D2990912E2980932B299093AC
S11328E02C292091292930912A29A801421B530B14
S11328F0435351094631524068F4275B322E301A53
S11329008090272990902829881A990A21E003C0E9
S113291020E001C020E081E080930D2080912B29EC
S113292090912C298732924038F00F2EFDE44F2EDF
S1132930F4E05F2EF02D02C0412C512C0093252988
S113294010932629213009F062C013C080910D2014
S1132950813041F440922729509228290093292953
S113296010932A2910920D2040922D2950922E293D
S11329704EC027E9821691040CF1FE017F96ACE16A
S1132980B9E2CE01879621912D93E817F907D9F77B
S113299088E0809324299F928F921F923F9288E32C
S11329A097E29F938F9383E497E29F938F93B0D39F
S11329B081E0F701828BCDBFDEBF2BC03AE68316E0
S11329C03FEF930634F5FE01B796ACE1B9E2CE01D0
S11329D08F9621912D93E817F907D9F788E0809312
S11329E024299194819491089F928F921F923F92EF
S11329F08BE697E29F938F9383E497E29F938F9361
S1132A0087D382E0F701828BCDBFDEBF02C0F7011E
S1132A10128A89819A8148165906A8F0FE013396D4
S1132A2021E0819191914816590620F02F5F2A30B8
S1132A30C1F75DC080911B29281306C0293021F0FD
S1132A40211106C001C020E00093252910932629F6
S1132A5020931B2980912429882381F080911929AE
S1132A60F02FF81BF73208F447C00093192910938C
S1132A701A2900932529109326293EC080912529DF
S1132A8090912629A801481B590BCA018A38924003
S1132A9098F10093192910931A29FE01E20FF11DF0
S1132AA085899FEF90931C2990931D2980931E295B
S1132AB080931F2990932029909321298093222980
S1132AC08093232980E1809324292F931F9287E701
S1132AD097E29F938F938DE797E29F938F9318D3F9
S1132AE00F900F900F900F900F900F9005C0809152
S1132AF01B292813A9CFACCFAE96CDBFDEBFDF9183
S1132B00CF911F910F91FF90EF90DF90CF90BF90E6
S1132B10AF909F908F907F906F905F904F903F9079
S1132B200895E0E8F4E0128289E0858388E08183F7
S1132B3081E084830895FC01668384E6489FA001B4
S1132B4011244115510509F18481982F9874983402
S1132B5011F466830AC0982F9075903521F487E0AC
S1132B60838384E00895807C71F48AE68A95F1F782
S1132B7000C0415051094115510531F706C087E0A5
S1132B80838383E0089581E00895848185FDF7CFF0
S1132B9083E00895FC016783848186FFFDCF8481EF
S1132BA086FF06C094819295917081E089270895EB
S1132BB080E00895FC0184818C708C3019F184E6E6
S1132BC0689FB0011124848188237CF0611571050C
S1132BD061F0AAE6AA95F1F700C0615071098481F9
S1132BE088231CF061157105A1F78781DA018C93A4
S1132BF0222321F087E0838381E0089582E08383A8
S1132C0081E0089580E00895BF92CF92DF92EF9221
S1132C10FF920F931F93CF93DF93EC01D62EF42EE4
S1132C20C22E660F88DF813039F56C2DCE01B2DFFC
S1132C30882321F16D2D660F61604F2DCE017BDF5E
S1132C408130B1F4BB24BA94BE0C0FC068018FEF7D
S1132C50C81AD80A21E0B11020E0A8016F2DCE01D6
S1132C60A9DFBA94882321F086018FEFB812EECF42
S1132C7087E08B838E2D03C08E2D01C086E0DF910B
S1132C80CF911F910F91FF90EF90DF90CF90BF9065
S1132C900895CF92DF92EF920F931F93CF93DF9318
S1132CA0EC01D22E660F47DF8130D1F46D2DCE01B9
S1132CB071DF8823B9F0EA94C02ED12E0AC0F60140
S1132CC061916F01CE0166DF9FEF9E0D882321F095
S1132CD0E92EFFEFEF12F3CF87E08B838E2D03C035
S1132CE08E2D01C086E0DF91CF911F910F91EF905F
S1132CF0DF90CF9008951F920F920FB60F92112478
S1132D000BB60F922F933F934F935F938F939F93A1
S1132D10AF93BF93EF93FF93E091C729F091C82934
S1132D20309709F447C046815781228133818085D9
S1132D309185DC01A20FB31F8081918181309105BF
S1132D4069F018F0029799F01DC04115510591F1F1
S1132D508C91415051092F5F3F4F1DC042305105A6
S1132D6048F18C91425051092E5F3F4F14C04230BC
S1132D70510500F111968C918058425051092E5FF3
S1132D803F4F09C044305105A8F011968C9144502E
S1132D9051092C5F3F4F46835783428553854150E9
S1132DA05109242335232283338390E0E0E2F3E0C6
S1132DB0808F918FFF91EF91BF91AF919F918F91F0
S1132DC05F914F913F912F910F900BBE0F900FBECB
S1132DD00F901F901895CF93DF93CDB7DEB763970D
S1132DE0CDBFDEBF0E949C0684E20E94800880E082
S1132DF00E949C080E9464080E94AA06D0D08EE01B
S1132E0090E28093C9299093CA298093CB29909307
S1132E10CC2980EC97E28DD187E0E0EAF0E0828370
S1132E2080E894E07EDE30D80E942B0B0E94D80B01
S1132E300E943F0C0FED17E021E030E04CE064E12C
S1132E4084E10E94690CE0E4F8E081E0808390E88A
S1132E5096A39CE097A38683789480912F299091E0
S1132E6030298B839C83CE0101960E94720DBE0192
S1132E706F5F7F4F8AE590E019DACE01019618D092
S1132E80ECCF1F920F920FB60F9211248F939F9342
S1132E9080912F2990913029019680932F29909326
S1132EA030299F918F910F900FBE0F901F9018950E
S1132EB00F93CF93DF93EC018A89882309F46BC0C5
S1132EC088EE97E236D10E94F20B8A89813051F55F
S1132ED00E94240B01E021E030E04DE467E070E063
S1132EE081E090E00E941F0921E030E045E467E0C2
S1132EF070E085E090E00E941F0921E030E04EE49C
S1132F0067E070E089E090E00E941F0921E030E072
S1132F1045E567E070E08DE090E00E941F090E94A3
S1132F20AE0A34C0823049F40E94640A0E946408E4
S1132F300E945D0C0E94E90929C00E94640A01E014
S1132F4021E030E049E467E070E081E090E00E9435
S1132F501F0921E030E04EE467E070E085E090E096
S1132F600E941F0921E030E046E467E070E089E058
S1132F7090E00E941F0921E030E04FE467E070E038
S1132F808DE090E00E941F090E94E90910927729C0
S1132F908EEF97E2CED0DF91CF910F910895E0E6C6
S1132FA0F6E088E0818384E08283E0EAF9E080E26D
S1132FB083838EE2868388E9878383E0858388E13F
S1132FC084830895E0EAF9E0918195FFFDCF809331
S1132FD0A0090895E0EAF9E081818823ECF7809163
S1132FE0A009089597FB072E16F4009406D077FDE8
S1132FF008D046D007FC05D03EF4909581959F4FAC
S11330000895709561957F4F0895A1E21A2EAA1B29
S1133010BB1BFD010DC0AA1FBB1FEE1FFF1FA21784
S1133020B307E407F50720F0A21BB30BE40BF50B81
S1133030661F771F881F991F1A9469F7609570950A
S1133040809590959B01AC01BD01CF010895A29F8D
S1133050B001B39FC001A39F700D811D1124911D68
S1133060B29F700D811D1124911D0895F0DFA59F5D
S1133070900DB49F900DA49F800D911D112408956F
S1133080AA1BBB1B51E107C0AA1FBB1FA617B7078A
S113309010F0A61BB70B881F991F5A95A9F78095A6
S11330A09095BC01CD010895FC018191861721F012
S11330B08823D9F7992708953197CF010895FB0103
S11330C0DC014150504048F001900D920020C9F7B6
S11330D001C01D9241505040E0F70895FB01519109
S11330E05523A9F0BF01DC014D9145174111E1F7CA
S11330F059F4CD010190002049F04D914015411142
S1133100C9F3FB014111EFCF81E090E001970895ED
S1133110CF93DF93CDB7DEB7FE0135966191719100
S1133120AF018091CB299091CC2958D0DF91CF91D8
S113313008950F931F93CF93DF93E091CB29F091E0
S1133140CC29238121FF1BC0EC0100E010E0899110
S11331506091CB297091CC29DB011896ED91FC91FB
S11331601997882331F00995892B89F30FEF1FEF05
S1133170EECF8AE00995892B11F4C80102C08FEFC4
S11331809FEFDF91CF911F910F9108950F931F939C
S1133190CF93DF93CDB7DEB72E97CDBFDEBF0D89BA
S11331A01E8986E08C8309831A838FEF9FE78D83C2
S11331B09E83AE01475E5F4F6F89788DCE01019685
S11331C00DD0EF81F885E00FF11F10822E96CDBF50
S11331D0DEBFDF91CF911F910F9108952F923F92FF
S11331E04F925F926F927F928F929F92AF92BF9213
S11331F0CF92DF92EF92FF920F931F93CF93DF93BF
S1133200CDB7DEB72C97CDBFDEBF7C016B018A0141
S1133210FC0116821782838181FFB0C1CE01019621
S11332204C01F7019381F60193FD859193FF819100
S11332306F01882309F49EC1853239F493FD859189
S113324093FF81916F01853221F4B70190E0C4D1DD
S1133250E8CF512C312C20E02032A0F48B3269F0DD
S113326030F4803259F0833269F420612CC08D32FD
S113327039F0803339F4216026C02260246023C0F1
S1133280286021C027FD27C030ED380F3A3078F48C
S113329026FF06C0FAE05F9E300D1124532E13C0A2
S11332A08AE0389E300D1124332E20620CC08E32F9
S11332B021F426FD5FC1206406C08C3611F4206819
S11332C002C0883641F4F60193FD859193FF819104
S11332D06F018111C1CF982F9F7D9554933028F4AD
S11332E00C5F1F4FFFE3F9830DC0833631F0833742
S11332F071F0833509F057C021C0F80180818983BA
S11333000E5F1F4F44244394512C540114C03801C0
S1133310F2E06F0E711CF801A080B18026FF03C09B
S1133320652D70E002C06FEF7FEFC5012C8749D196
S11333302C0183012C852F77222E16C03801F2E050
S11333406F0E711CF801A080B18026FF03C0652DAB
S113335070E002C06FEF7FEFC5012C8727D12C01ED
S11333602C852068222E830123FC19C0832D90E034
S113337048165906A0F4B70180E290E02DD13A94A2
S1133380F5CFF50127FC859127FE81915F01B701F7
S113339090E022D131103A94F1E04F1A51084114CF
S11333A0510479F7DEC0843611F0893631F5F8011D
S11333B027FF07C060817181828193810C5F1F4F59
S11333C008C060817181882777FD8095982F0E5FF2
S11333D01F4F2F76B22E97FF09C090958095709558
S11333E061957F4F8F4F9F4F2068B22E2AE030E0C7
S11333F0A40124D1A82EA81843C0853729F42F7E10
S1133400B22E2AE030E025C0F22FF97FBF2E8F368E
S1133410C1F018F4883579F0ADC0803719F08837D9
S113342021F0A8C02F2F2061B22EB4FE0DC08B2D29
S11334308460B82E09C024FF0AC09F2F9660B92E5D
S113344006C028E030E005C020E130E002C020E101
S113345032E0F801B7FE07C06081718182819381F7
S11334600C5F1F4F06C06081718180E090E00E5FA9
S11334701F4FA401E3D0A82EA818FB2DFF77BF2E61
S1133480B6FE0BC02B2D2E7FA51450F4B4FE0AC03B
S1133490B2FC08C02B2D2E7E05C07A2C2B2D03C028
S11334A07A2C01C0752C24FF0DC0FE01EA0DF11D1C
S11334B08081803311F4297E09C022FF06C07394F1
S11334C0739404C0822F867809F0739423FD12C08C
S11334D020FF06C05A2C731418F4530C5718732C7D
S11334E0731460F4B70180E290E02C8775D0739474
S11334F02C85F6CF731410F4371801C0312C24FF37
S113350011C0B70180E390E02C8766D02C8522FFA0
S113351016C021FF03C088E590E002C088E790E070
S1133520B7010CC0822F867851F021FD02C080E2E1
S113353001C08BE227FD8DE2B70190E04DD0A514C8
S113354030F4B70180E390E047D05A94F8CFAA94BE
S1133550F401EA0DF11D8081B70190E03DD0A11086
S1133560F6CF332009F45DCEB70180E290E034D089
S11335703A94F7CFF7018681978102C08FEF9FEFCE
S11335802C96CDBFDEBFDF91CF911F910F91FF909D
S1133590EF90DF90CF90BF90AF909F908F907F90EF
S11335A06F905F904F903F902F900895FC0105908D
S11335B0615070400110D8F7809590958E0F9F1F31
S11335C00895FC016150704001900110D8F7809576
S11335D090958E0F9F1F08950F931F93CF93DF93A2
S11335E0182F092FEB018B8181FD03C08FEF9FEF13
S11335F020C082FF10C04E815F812C813D81421723
S113360053077CF4E881F9819F012F5F3F4F2883A2
S11336103983108306C0E885F985812F0995892BA4
S113362029F72E813F812F5F3F4F2E833F83812FC8
S1133630902FDF91CF911F910F910895FA01AA273E
S1133640283051F1203181F1E8946F936E7F6E5FE1
S11336507F4F8F4F9F4FAF4FB1E03ED0B4E03CD08F
S1133660670F781F891F9A1FA11D680F791F8A1F72
S1133670911DA11D6A0F711D811D911DA11D20D0D9
S113368009F468943F912AE0269F11243019305D93
S11336903193DEF6CF010895462F4770405D419384
S11336A0B3E00FD0C9F7F6CF462F4F70405D4A33D1
S11336B018F0495D31FD4052419302D0A9F7EACF99
S11336C0B4E0A6959795879577956795BA95C9F7C8
S11336D000976105710508959B01AC010A2E0694BB
S11336E05795479537952795BA95C9F7620F731F74
S10F36F0841F951FA01D0895F894FFCFBF
S11336FC010000000111231D0300320080010000B1
S113370C000200000000E217EA1700001D00480048
S113371C37004B005F008300B100EE002C011D004C
S113372CAD006600ED00AD01BF04C40B0627666650
S113373C5D4D8F3E8725B61AC60B82064202FA00EF
S113374C7D001B00270033004B0060008400B10097
S113375CEC002B011B0027005F002A011A02C9058B
S113376C350EC12CE87960453A39411EA915C409B6
S113377C7205ED01CF00660001009F00100181016C
S113378CF2016302D40245034C044E04FFFEFDFB1C
S113379CF7EFDFBF7FFFFFFEF8E1871F7FFFFF7F9F
S11337AC1F87E1F8FEFF41542B43495053454E44C7
S11337BC3D302C0041542B5253540041542B43495B
S11337CC504D4F44453D300041542B4349504D55C9
S11337DC583D300041542B43574D4F44453D310027
S11337EC41542B43574A41503D220041542B4357DB
S11337FC4A41503F0041542B434950535441525475
S113380C3D22544350222C2200222C3830004154A7
S113381C2B43495053454E443D004745542000200A
S113382C485454502F312E300D0A0041542B434927
S113383C50434C4F53450041542B5253540D0041AB
S113384C542B43574D4F44453D330041323641349C
S113385C313135363800496E74656E6F5F36380019
S113386C41542B43494653520041542B4349504D28
S113387C55583D310041542B4349505345525645FC
S113388C523D312C383838380054454C4E45542070
S113389C4F4E0041542B4349505345525645523DCB
S11338AC312C38300057656C636F6D6520746F2054
S11338BC746865204C4544204D61747269782043CA
S11338CC6C6F636B2074656C6E657420696E7465C3
S11338DC72666163650D0A005479706520226D610E
S11338EC6E2220746F207669657720616C6C206180
S11338FC7661696C61626C6520636F6D6D616E6479
S113390C730D0A3E006C6564006F6E005475726E24
S113391C696E67206F6E204C4544730D0A3E006F30
S113392C6666005475726E696E67206F66204C452E
S113393C44730D0A3E00646F776E0044696D6D69C3
S113394C6E6720646F776E204C4544730D0A3E00FD
S113395C75700044696D6D696E67207570204C45F7
S113396C44730D0A3E00436F6D6D616E64206E6F7F
S113397C7420666F756E64200D0A3E0067657400D2
S113398C70617373776F7264007373696400736529
S113399C740074696D65004461746520666F726DA2
S11339AC6174202D205B68683A6D6D3A73733A79B3
S11339BC7979795D0D0A3E0057726F6E67207469D0
S11339CC6D6520666F726D6174210D0A3E0057722D
S11339DC6F6E672074696D6520666F726D61742EED
S11339EC2E2E6661696C656420617420686F757233
S11339FC73210D0A3E0057726F6E672074696D65F2
S1133A0C20666F726D61742E2E2E6661696C65640E
S1133A1C206174206D696E75746573210D0A3E0006
S1133A2C57726F6E672074696D6520666F726D6175
S1133A3C742E2E2E6661696C656420617420736526
S1133A4C636F6E6473210D0A3E0057726F6E6720AC
S1133A5C74696D6520666F726D61742E2E2E6661AD
S1133A6C696C6564206174207965617273210D0A37
S1133A7C3E0054696D6520776173207375636365CB
S1133A8C737366756C6C7920736574210D0A3E0032
S1133A9C57726F6E672074696D6520666F726D6105
S1133AAC74206F722074696D656F7574210D0A3EF4
S1133ABC00456E74657220535349442C206D617813
S1133ACC20333220636861726163746572730D0A0A
S1133ADC3E00536F6D657468696E672077656E740C
S1133AEC2077726F6E67210D0A3E005353494420B0
S1133AFC7365740D0A3E004E6F7420612076616C00
S1133B0C696420636F6D6D616E640D0A3E007769A4
S1133B1C6669005475726E696E67206F66662077ED
S1133B2C6966692E205573652042544E3120746F9A
S1133B3C207475726E206974206F6E2061676169E0
S1133B4C6E2E0D0A00436F6D6D616E64206E6F7482
S1133B5C20666F756E64200D0A006D616E002D2D4C
S1133B6C2D2D2D2D2D2D2D2D2D2D2D2D2D2D2D2D75
S1133B7C2D2D2D2D2D2D2D2D2D2D2D2D2D2D2D2D65
S1133B8C2D0D0A006C6564206F6E202D2054757207
S1133B9C6E732074686520656E74697265204C457B
S1133BAC44206172726179206F6E2E0D0A006C656F
S1133BBC64206F6666202D205475726E73207468B1
S1133BCC6520656E74697265204C4544206172727F
S1133BDC6179206F66662E0D0A0073657420746912
S1133BEC6D65202D20536574732074686520746989
S1133BFC6D6520616E642064617465206F66207449
S1133C0C686520636C6F636B2E20466F726D6174F4
S1133C1C205B68683A6D6D3A73733A797979795D9A
S1133C2C0D0A007365742073736964202D20536529
S1133C3C747320746865205353494420666F722052
S1133C4C746865205769466920636F6E6E6563748A
S1133C5C696F6E200D0A007365742070617373773D
S1133C6C6F7264202D205365747320746865205022
S1133C7C415353574F524420666F72207468652029
S1133C8C5769466920636F6E6E656374696F6E2E37
S1133C9C200D0A006765742074696D65202D20530E
S1133CAC686F77207468652074696D6520616E6433
S1133CBC2064617465206F662074686520636C6F82
S1133CCC636B2E200D0A006765742073736964207E
S1133CDC2D2053686F772074686520535349442012
S1133CEC666F7220746865205769466920636F6E2D
S1133CFC6E656374696F6E200D0A006765742070BD
S1133D0C617373776F7264202D2053686F772074FE
S1133D1C68652050415353574F524420666F7220AC
S1133D2C746865205769466920636F6E6E656374A9
S1133D3C696F6E2E200D0A0041542B434950434C9D
S1133D4C4F53453D300D004F4B004552524F5200DE
S1133D5C434F4E4E45435400434C4F53454400315E
S1133D6C3932002B4950440025640054696D653A7E
S1133D7C00656E746572206765745F646174612894
S1133D8C29006C656674206765745F6461746128CE
S1133D9C2900436F6D707574696E67204261736599
S1133DAC6C696E652E204D616B6520737572652090
S1133DBC6E6F7468696E6720697320696E2074680D
S1133DCC6520766963696E697479206F66207468FE
S1133DDC652045564200496E697469616C204261E4
S1133DEC73656C696E652043616C63756C61746595
S1133DFC642C20505331203D2025642C2050533208
S1133E0C203D2025642C20505333203D2025642054
S1133E1C0A0053616D706C65732061726520536187
S1133E2C74757261746564004C4546545F5357490C
S1133E3C504500202020202020202020202020203D
S1133E4C202020202020202020202020202020255D
S1133E5C733A2025642C2025640A0052494748549F
S1133E6C5F5357495045005041555345002020207D
S1133E7C2020202020202020202020202020202032
S1133E8C20202020202020202025733A2025640A7D
S1133E9C00636F6C64332E776176002A2A2A2A20F9
S1133EAC57415620504C41594552202A2A2A2A005F
S1133EBC4C4544204D415452495820436C6F636B1C
S1133ECC202D2042793A2045726C656E6420486539
S1133EDC73746E65730D0A00656E74657220737469
S1133EEC6174655F6D616368696E652829006C6532
S1133EFC66742073746174655F6D616368696E6563
S1073F0C282900005C
S9030000FC
