:1000000069C700009DC700009BC7000099C700009A
:1000100097C7000095C700000C94730991C70000B2
:100020008FC700008DC700000C94771389C70000AC
:1000300087C7000085C700000C94BD3981C7000048
:100040000C94704A0C9496390C94CA1F0C94984ADC
:100050000C94531775C7000073C7000071C70000E8
:100060006FC700006DC700006BC7000069C70000C4
:1000700067C7000065C7000063C7000061C70000D4
:100080005FC700005DC700000C94131259C7000041
:1000900057C7000055C7000053C7000051C70000F4
:1000A0004FC700004DC700004BC7000049C7000004
:1000B00047C7000045C7000043C7000041C7000014
:1000C0003FC700003DC700003BC7000039C7000024
:1000D00037C7000035C7000033C7000031C7000034
:1000E0002FC700002DC700002BC7000029C7000044
:1000F00027C7000025C7000023C7000021C7000054
:100100001FC700001DC700000C94DC110C944A129C
:1001100017C7000015C7000013C7000011C7000073
:100120000FC700000DC700000BC7000009C7000083
:1001300007C7000005C7000003C7000001C7000093
:10014000FFC60000FDC60000FBC60000F9C60000A7
:10015000F7C60000F5C60000F3C60000F1C60000B7
:100160000C94F30CEDC60000EBC60000E9C60000DD
:10017000E7C60000E5C60000E3C60000E1C60000D7
:10018000DFC60000DDC60000DBC60000D9C60000E7
:10019000D7C60000D5C60000D3C60000D1C60000F7
:1001A000CFC60000CDC60000CBC60000C9C6000007
:1001B000C7C60000C5C60000C3C60000C1C6000017
:1001C000BFC60000BDC60000BBC60000B9C6000027
:1001D000B7C60000B5C60000B3C60000B1C6000037
:1001E000AFC60000ADC60000ABC60000A9C6000047
:1001F000A7C60000A5C60000A3C600006C4866485C
:1002000069485D486348574860485A48F648DD48A1
:10021000E5489948D7488E48D348954844495149BC
:100220004F494D494B4947494949364B384B364B65
:100230003F4B364B3F4B364B364B3F4B364B3F4B92
:10024000364B07634236B79BD8A71A39685618AEA3
:10025000BAAB558C1D3CB7CC5763BD6DEDFD753EFB
:10026000F6177231BF000000803F08000000BE9208
:100270002449123EABAAAA2ABECDCCCC4C3E0000EB
:100280000080BEABAAAAAA3E00000000BF0000008A
:10029000803F0000000000084178D3BB4387D113A2
:1002A0003D190E3CC3BD4282AD2B3E68EC8276BE4A
:1002B000D98FE1A93E4C80EFFFBE01C4FF7F3F0014
:1002C00000000000000000000000205070502000DE
:1002D000207050702000005070702000002070705E
:1002E000200020707020700020207020700000001E
:1002F00020000000F0F0D0F0F0F00070507000002E
:10030000F080A080F0F0003010606000205020707D
:10031000200020302020600020305010200020706D
:10032000507020004060706040001030703010004D
:1003300020702070200050505000500070D0D050DD
:1003400050003060503060000000000070002070ED
:10035000207020702070202020002020207020009D
:100360000020F02000000040F0400000000040703D
:1003700000000050705000000020707000000070FD
:10038000702000000000000000002020200020005D
:10039000505000000000507050705000203060300D
:1003A000602040102040100020503050700060400D
:1003B000000000002040404020004020202040005D
:1003C000502070205000002070200000000000002D
:1003D00060400000700000000000000020001010CD
:1003E000204040002050505020002060202070000D
:1003F00060102040700060102010600010507010DD
:1004000010007040601060002040605020007010AC
:10041000302020002050205020002050301020009C
:10042000000020002000000020006040102040203C
:10043000100000007000700040201020400060108C
:10044000200020007050504070002050705050002C
:10045000605060506000304040403000605050506C
:10046000600070406040700070406040400030406C
:1004700050503000505070505000702020207000BC
:10048000101010502000505060505000404040402C
:1004900070005070705050006050505050007050BC
:1004A000505070006050604040002050507030004C
:1004B000605060505000304070106000702020206C
:1004C000200050505050700050505050200050505C
:1004D000707050005050205050005050202020008C
:1004E000701020407000604040406000404020108C
:1004F000100060202020600020500000000000005C
:10050000000000F06020000000000000305070008B
:10051000404060506000000030403000101030500B
:1005200030000000706030001020702020000000BB
:10053000705010704040605050002000202020007B
:1005400020002020206040405060500020202020CB
:10055000200000007070500000006050500000004B
:1005600020502000000060506040000030503010EB
:10057000000060404000000030206000002070203B
:10058000300000005050700000005050200000006B
:10059000507070000000502050000000505020406B
:1005A000000060203000302060203000202020201B
:1005B000200060203020600050A0000000000020DB
:1005C00050700000304040702040500050503000CB
:1005D00010207060300020503050700050003050BB
:1005E00070004020305070002000305070000070CB
:1005F000407020602050706030005000706030000B
:10060000402070603000500020202000205000204A
:10061000200040200020200050205070500020205A
:10062000507050001020706070000000307060004A
:10063000306070607000205020502000500020502A
:10064000200040202050200020500050700040200A
:10065000505070005000505020405020505020000A
:10066000500050507000207040702000102070200A
:1006700070005070207020000060605050003020EA
:10068000302060001020305070001020002020002A
:1006900010207050700010200050700070007050DA
:1006A00050007000507050003050700070002050AA
:1006B000200070002000204030000070404000000A
:1006C00000E02020000040502050300040502070BA
:1006D00010002000202020000050A050000000A0AA
:1006E00050A0000040104010401050A050A050A05A
:1006F000B0E0B0E0B0E02020202020202020E0204A
:10070000202020E020E020205050D0505050000009
:10071000F050505000E020E0202050D010D0505039
:1007200050505050505000F010D0505050D010F059
:1007300000005050F000000020E020E00000000029
:10074000E02020202020300000002020F0000000C9
:100750000000F02020202020302020200000F00089
:1007600000002020F0202020203020302020505079
:100770005050505050504070000000704050505049
:1007800050D000F0000000F000D0505050504050C9
:10079000505000F000F0000050D000D0505020F039
:1007A00000F000005050F000000000F000F02020A9
:1007B0000000F050505050507000000020302030A9
:1007C0000000003020302020000070505050505069
:1007D000D050505020F000F020202020E0000000F9
:1007E000000030202020F0F0F0F0F0F0000000F0E9
:1007F000F0F0C0C0C0C0C0C0303030303030F0F099
:10080000F0000000000070607000205060506040F8
:100810007050404040007050505050007040204098
:100820007000000030502000000050507040001058
:100830006020200070205020700020507050200058
:1008400000205050500030402050200000007050D8
:1008500070002070507020003040704030002050F8
:100860005050500070007000700020702000700028
:1008700060106000700030403000700000102020D8
:100880002020202020204000200070002000005068
:10089000A050A00020502000000000207020000088
:1008A0000000200000003020206020007050500028
:1008B0000000602040600000000060600000000058
:1008C0000000000000000000003E5B4F5B3E3E6BFE
:1008D0004F6B3E1C3E7C3E1C183C7E3C181C577DDA
:1008E000571C1C5E7F5E1C00183C1800FFE7C3E726
:1008F000FF0018241800FFE7DBE7FF30483A060E38
:100900002629792926407F050507407F05253F5A7E
:100910003CE73C5A7F3E1C1C08081C1C3E7F1422EE
:100920007F22145F5F005F5F06097F017F00668999
:10093000956A606060606094A2FFA29408047E04DF
:100940000810207E201008082A1C08081C2A080805
:100950001E101010100C1E0C1E0C30383E383006C5
:100960000E3E0E06000000000000005F00000007C1
:10097000000700147F147F14242A7F2A12231308EF
:10098000646236495620500008070300001C2241CB
:10099000000041221C002A1C7F1C2A08083E08086F
:1009A000008070300008080808080000606000201F
:1009B000100804023E5149453E00427F4000724902
:1009C0004949462141494D331814127F10274545A6
:1009D00045393C4A494931010171090736494949BC
:1009E00036464949291E000014000000403400002A
:1009F0000008142241141414141400412214080293
:100A0000015909063E415D594E7C1211127C7F4905
:100A10004949363E414141227F4141413E7F49495A
:100A200049417F090909013E414151737F08080886
:100A30007F00417F41002040413F017F0814224157
:100A40007F404040407F021C027F7F0408107F3EB1
:100A50004141413E7F090909063E4151215E7F091E
:100A6000192946264949493203017F01033F404085
:100A7000403F1F2040201F3F4038403F6314081470
:100A80006303047804036159494D43007F414141A8
:100A90000204081020004141417F04020102044089
:100AA00040404040000307080020545478407F280D
:100AB0004444383844444428384444287F38545403
:100AC000541800087E090218A4A49C787F08040426
:100AD0007800447D40002040403D007F10284400C5
:100AE00000417F40007C047804787C080404783856
:100AF00044444438FC1824241818242418FC7C0886
:100B0000040408485454542404043F44243C404002
:100B1000207C1C2040201C3C4030403C44281028B5
:100B2000444C9090907C4464544C440008364100FE
:100B30000000770000004136080002010204023C78
:100B40002623263C1EA1A161123A4040207A385447
:100B500054555921555579412154547841215554C2
:100B6000784020545579400C1E5272123955555513
:100B700059395454545939555454580000457C41FE
:100B80000002457D420001457C40F0292429F0F017
:100B9000282528F07C545545002054547C547C0A68
:100BA000097F4932494949323248484832324A4835
:100BB00048303A4141217A3A42402078009DA0A035
:100BC0007D39444444393D4040403D3C24FF242489
:100BD000487E4943662B2FFC2F2BFF0929F620C0A6
:100BE000887E090320545479410000447D413048F7
:100BF000484A32384040227A007A0A0A727D0D193A
:100C0000317D2629292F28262929292630484D409B
:100C100020380808080808080808382F10C8ACBA97
:100C20002F102834FA00007B000008142A14222216
:100C3000142A1408AA005500AAAA55AA55AA000009
:100C400000FF00101010FF00141414FF001010FF1C
:100C500000FF1010F010F0141414FC001414F7002E
:100C6000FF0000FF00FF1414F404FC141417101FFD
:100C700010101F101F1414141F00101010F000008B
:100C800000001F101010101F10101010F0100000A6
:100C900000FF101010101010101010FF10000000B6
:100CA000FF140000FF00FF00001F10170000FC04ED
:100CB000F414141710171414F404F40000FF00F7D0
:100CC00014141414141414F700F714141417141033
:100CD000101F101F141414F4141010F010F0000062
:100CE0001F101F0000001F14000000FC140000F083
:100CF00010F01010FF10FF141414FF141010101F28
:100D000000000000F010FFFFFFFFFFF0F0F0F0F038
:100D1000FFFFFF0000000000FFFF0F0F0F0F0F3855
:100D2000444438447C2A2A3E147E02020606027E8F
:100D3000027E0263554941633844443C04407E20AE
:100D40001E2006027E020299A5E7A5991C2A492ABF
:100D50001C4C7201724C304A4D4D3030487848304E
:100D6000BC625A463D3E494949007E0101017E2A46
:100D70002A2A2A2A44445F444440514A4440404479
:100D80004A51400000FF0103E080FF000008086BAB
:100D90006B083612362436060F090F0600001818A5
:100DA0000000001010003040FF0101001F01011E73
:100DB00000191D1712003C3C3C3C000000000018CC
:100DC000183C42A5186E616E00696E660000407A9C
:100DD00010F35A00A0724E18090010A5D4E80000C4
:100DE000E87648170000E40B54020000CA9A3B0062
:100DF0000000E1F505000080969800000040420FD9
:100E0000000000A08601000000102700000000E89C
:100E100003000000006400000000000A0000000061
:100E2000000100000000002C76D888DC674F082302
:100E3000DFC1DFAE59E1B1B796E5E3E453C63AE668
:100E400051997696E8E6C28426EB898C9B62ED4048
:100E50007C6FFCEFBC9C9F40F2BAA56FA5F4900597
:100E60005A2AF75C936B6CF9676DC11BFCE0E40DCB
:100E700047FEF520E6B500D0ED902E0300943577BF
:100E8000050080841E080000204E0A000000C80CE7
:100E9000333333330F986E12831141EF8D21148950
:100EA0003BE65516CFFEE6DB18D1844B381BF77CAA
:100EB0001D901DA4BBE424203284725E228100C9EF
:100EC000F124ECA1E53D276364696E6F707375785A
:100ED000585B0000EEEDFCE2E370FF27E252F34DB9
:100EE0002FEF3FE22C7FE217F30758F48EED9DEAD7
:100EF000AEEBBFEE81939193A193B193E217F30709
:100F0000C8F311241FBECFEFCDBFDFE2DEBF1AE270
:100F1000A0E0B0E2E6EBF4EB00E00BBF02C007900C
:100F20000D92AA30B107D9F72CE2AAE0BAE201C0CB
:100F30001D92AE3DB207E1F70E94F31F0C94595A7F
:100F40005FC8809171008D7F8093710082E08093F3
:100F5000CA01E0E2F0E0E4911092CA01E0930C02D1
:100F60008093CA01E1E2F0E0E4911092CA01E093BB
:100F70000D0281E080932002109221021092010262
:100F800096E09093040290E1909302021092030283
:100F90008093060210922202809300028FEF9CE75A
:100FA0000197F1F700C0000020910A2A30910B2A26
:100FB00040E151E08091200280688093200280917E
:100FC000230280FFFCCF5093230280912402909152
:100FD0002502820F931F415011F09C01EBCF20910D
:100FE00000022E7F2093000224E0959587952A9594
:100FF000E1F780930A2A90930B2A1092180210921C
:10100000190281E0809320021092210210920302C3
:101010001092220210922A021092320210923A0288
:10102000809100028160809300029FEF29EF80E0B1
:10103000915020408040E1F700C000000895E0E0BA
:10104000F2E080818E7F8083E0E7F0E08181826042
:1010500081830895E0E0F6E082E08183868308954D
:10106000E0E0F6E082E0818385830895CF93DF930B
:1010700000D000D0CDB7DEB7EDDF49E160E070E031
:10108000CB0151E020912002206820932002209182
:10109000230220FFFCCF50932302209124023091A1
:1010A0002502620F731F811D911D415059F76983FD
:1010B0007A838B839C83D4DF69817A818B819C8145
:1010C00029E130E040E050E00E94E552C901249659
:1010D000CDBFDEBFDF91CF910895CF93DF9331DF96
:1010E000C5DFEC01ACDFBE0180E090E00E94E74C80
:1010F00023E333E343E050E40E94754D20E030EFFA
:101100004FE755E40E944E4C20E030E040E052E4CE
:101110000E94754D20E030E040E251E40E944E4CC8
:1011200023EC35EF48EA5EE30E94E94BDF91CF9173
:101130000895D3DF20E030E048EC52E40E94754D82
:101140000E94BB4C693582E0780768F5603482E024
:10115000780758F5673282E0780748F56E3082E00C
:10116000780738F5653F81E0780728F56C3D81E028
:10117000780718F5633C81E0780708F56A3A81E062
:101180007807F8F4603A81E07807E8F4613981E0A3
:101190007807D8F4683781E07807C8F46F35714074
:1011A000C0F085E0089583E608958FE508958AE507
:1011B000089580E5089586E408958CE3089582E318
:1011C000089588E208958EE1089584E108958AE003
:1011D000089580E0089580E180935500809150004B
:1011E0008061809350008091510084FFFCCF88ED96
:1011F00084BF80914000887F846080934000089580
:10120000E0E6F6E082E0818385830895E0E6F6E09B
:1012100082E0818386830895909172009B7F9093F2
:101220007200882389F08CE080932106809120034E
:101230008C60809320038091220388608093220336
:101240008091210380640FC084E080932106809107
:101250002003846080932003809122038860809320
:101260002203809121038093210382E08093CA01AD
:10127000E2E3F0E0E4911092CA01E0932903809345
:10128000CA01E3E3F0E0E4911092CA01E09328037D
:101290008093CA01E6E3F0E0E4911092CA01E09382
:1012A0002B038093CA01E7E3F0E0E4911092CA01B6
:1012B000E0932A0380912003816080932003A0CFD4
:1012C000E0E2F6E08CE0828388E1828B838BE0E2CF
:1012D000F3E080818E7F808399DFE0E7F0E0828118
:1012E0008460828308951F920F920FB60F9211248B
:1012F0008F938091110185FF08C080911101806258
:10130000809311011092312C08C0809111018061ED
:101310008093110181E08093312C81E08093322C05
:101320008F910F900FBE0F901F9018954BEA50E0D1
:1013300060E070E082E29BE20E94885981E00895BB
:101340000F931F93CF93DF93CDB7DEB7CB5AD1095D
:10135000CDBFDEBF8E010F5F1F4F8BEAF8011192E8
:101360008A95E9F74BEA50E060E070E0C8010E941E
:101370007D59898181508E3F50F48BEAF801A2E2B9
:10138000BBE201900D928A95E1F781E001C080E017
:10139000C555DF4FCDBFDEBFDF91CF911F910F91BC
:1013A0000895CF93DF93EB0129E02093CD2C0E9489
:1013B000BC1F80E090E08C179D0744F4EFE3FFE151
:1013C0003197F1F700C000000196F5CFDF91CF9182
:1013D0000895E0E6F6E080E3818385832FEF83ECD8
:1013E00099E0215080409040E1F700C0000008954E
:1013F000E0E6F6E080E281838683089560ED77E0A1
:1014000082EE90E2CEDF8091CD2C8130D9F4109223
:10141000D72A64E670E089EE90E2C3DF8091CD2C9C
:10142000813081F464E670E086EF90E2BADF80916B
:10143000CD2C813039F464E670E082E091E2B1DFD6
:101440008091CD2C0895CF92DF92EF92FF920F936F
:101450001F93CF93DF93CDB7DEB7C456D109CDBF6D
:10146000DEBF6C017B018E010F5F1F4F84E6F80128
:1014700011928A95E9F764E271E2C8010E947855F9
:10148000B601C8010E9462556FE371E2C8010E9473
:101490006255B701C8010E94625561E471E2C8015A
:1014A0000E94625564E670E0C8017BDF8EE291E045
:1014B0002091CD2C213091F0FFEF23EC39E0F15059
:1014C00020403040E1F700C000000197009741F054
:1014D0002091CD2C2111ECCF80E003C081E001C030
:1014E00083E0CC59DF4FCDBFDEBFDF91CF911F919D
:1014F0000F91FF90EF90DF90CF9008958F929F9281
:10150000BF92CF92DF92EF92FF920F931F93CF93F0
:10151000DF93CDB7DEB7C659D109CDBFDEBF4C01D1
:101520007B016A01B22E8E010F5F1F4F86E9D80141
:101530001D928A95E9F76FE271E2C8010E94785521
:10154000B401C8010E94625563E471E2C8010E94BF
:1015500062556AEF70E0C80124DF8091CD2C8130A4
:1015600009F09DC0F70101900020E9F7EE19FF098D
:101570004AE0812C912CB401CF0148960E94BE55BF
:1015800068E471E2C8010E947855B401C8010E9464
:10159000625566ED75E2C8010E94625564E670E02E
:1015A000C801FFDE64E571E2C8010E947855F801C8
:1015B00001900020E9F73197E01BF10BE639F105C6
:1015C00010F080E06CC0B701C8010E94625569E567
:1015D00071E2C8010E94625564E670E0C801E1DE74
:1015E00000E010E08091CD2C813019F164E670E0CC
:1015F00081EF93E2D6DE0F5F1F4F0032110511F429
:1016000083E04DC08091CD2C8111ECCF12C0BFEF93
:10161000E3ECF9E0B150E040F040E1F700C0000039
:101620000F31110568F70F5F1F4F8091CD2C882374
:1016300021F08091CD2C863051F78091D62A8823D5
:1016400009F4BFCF6DE770E08CE09AE20E949955F3
:101650008C010B501A424B2D50E04017510708F4F3
:10166000B0CF60E070E0C6010E945B55A8016CE05D
:101670007AE2C6010E947F5588ECECE0FAE2DF01D5
:101680001D928A95E9F71092D62A1092D42A1092C8
:10169000D52A62E370E085E691E283DE81E0CA56F6
:1016A000DF4FCDBFDEBFDF91CF911F910F91FF9034
:1016B000EF90DF90CF90BF909F908F900895CF9341
:1016C000DF93C82FD62F60ED77E082EE90E269DEDF
:1016D0008091CD2C813009F05EC01092D72A64E64B
:1016E00070E089EE90E25DDE8091CD2C813009F0D2
:1016F00052C0CC2341F064E670E0D1110CC082E00E
:1017000091E24FDE1DC0DD2309F444C064E670E0C1
:1017100081E791E202C08DE791E243DE64E670E08A
:1017200087EC91E23EDE8091CD2C8130A1F564E61C
:1017300070E089E891E235DE8091CD2C813059F559
:101740008091CD2C813039F5CC2329F06FE87BE2F4
:1017500088EA9BE278DE64E670E080EA91E221DECE
:101760008091CD2C8130B9F460E087E99CE20E9441
:101770006F2364E670E089EA91E213DE8091CD2C5C
:10178000813049F464E670E085EB91E20ADE8091F5
:10179000CD2C01C080E0DF91CF910895AF92BF9230
:1017A000CF92DF92EF92FF920F931F93CF93DF932D
:1017B000CDB7DEB76E97CDBFDEBF8091CD2C873021
:1017C00009F05BC0109106204AE0BE01665E7F4FC3
:1017D0008BE891E00E94BE55113319F468EE71E276
:1017E0000CC0123319F466EF71E207C0133319F419
:1017F00064E072E202C062E172E2CE0101960E94F0
:101800007855BE01665E7F4FCE0101960E946255FB
:1018100064E670E0CE010196C4DD83E390E02091A0
:101820000C2A2E3369F00197009751F02FEF33EC1B
:1018300049E0215030404040E1F700C00000EFCFC8
:1018400080E292E29F938F938CEA93E29F938F932F
:101850000E9413568FEF93ECA9E081509040A04076
:10186000E1F700C0000064E670E082EF93E299DDEA
:101870000F900F900F900F9002C0883011F081E010
:10188000A4C00FE110E00150110901151105B9F3D1
:10189000BFEFE3ECF9E0B150E040F040E1F700C009
:1018A00000006EEF73E28CE09AE20E94A455892B4F
:1018B00051F389E1E8EAFBE2DF01282F1D922A9526
:1018C000E9F7EFE8FBE2DF011D928A95E9F7ECE02A
:1018D000FAE2DF010D900020E9F7FD0131979F0149
:1018E0002C503A42690100E010E0A12C84E1B82EAE
:1018F000CE0101967C010C151D0508F03FC0F801D2
:10190000E45FF54D80818D33B1F5A394D701EB2DC4
:101910001D92EA95E9F7F7010F5F1F4FD801A45F09
:10192000B54D8C91863221F4F1E0AF1213C005C0A1
:101930000C151D05C9F38193EFCFF701019000202D
:10194000E9F73197EE19FF097997A8F4B70188EA0A
:101950009BE20FC022E0A2120EC0F701019000200E
:10196000E9F73197EE19FF09799728F4B7018FE865
:101970009BE20E9478550F5F1F4FBDCF39DD3FEFCF
:1019800047EA81E6315040408040E1F700C0000066
:1019900020DD34DD8093CD2C813031F00E94234155
:1019A00060E08AE094E20EC06FE87BE288EA9BE2A6
:1019B0004ADD8093CD2C813089F70E94234160E07D
:1019C0008CE194E20E946F2383E06E96CDBFDEBF70
:1019D000DF91CF911F910F91FF90EF90DF90CF900B
:1019E000BF90AF9008951F920F920FB60F921124DF
:1019F0000BB60F922F933F934F935F936F937F9309
:101A00008F939F93AF93BF93EF93FF934091A00960
:101A10004A3009F084C06CE274E28CE09AE20E94E1
:101A2000A455892B41F46FE274E28CE09AE20E94A3
:101A3000A455892B11F081E014C065E374E28CE0B9
:101A40009AE20E94A455892B19F01092CD2C4FC018
:101A50006BE374E28CE09AE20E94A455892B21F09A
:101A600084E08093CD2C43C063E474E28CE09AE27E
:101A70000E94A455892B11F086E0F3CF6AE474E24A
:101A80008CE09AE20E94A455892B31F08091112AB2
:101A90008093062087E0E5CF6EE474E28CE09AE262
:101AA0000E94A455892B11F088E0DBCF63E574E236
:101AB0008CE09AE20E94A455892B71F062E270E0FA
:101AC0008CE09AE20E946D5543E150E0BC0187E949
:101AD0009CE20E947F550BC067E574E28CE09AE2BD
:101AE0000E94A455892B19F081E08093D72A6BE7D7
:101AF00070E08CE09AE20E946D55892B21F081E024
:101B00008093D62A26C01092D42A1092D52A88EC27
:101B1000ECE0FAE2DF011D928A95E9F71AC08091A4
:101B2000D42A9091D52A9C012F5F3F4F2093D42A2D
:101B30003093D52AFC01E45FF54D40838091D42A8F
:101B40009091D52A883C910521F41092D42A1092C4
:101B5000D52AFF91EF91BF91AF919F918F917F9186
:101B60006F915F914F913F912F910F900BBE0F900E
:101B70000FBE0F901F901895FC0123E0F695E79596
:101B80002A95E1F7E355F34D8770992721E030E07E
:101B900001C0220F8A95EAF78081822B8083089505
:101BA000FC0133E0F695E7953A95E1F7E355F34DFF
:101BB0008770992721E030E001C0220F8A95EAF76B
:101BC00020958081282320830895EDEAFCE28FEFA1
:101BD00081939CE2ED3CF907D9F70C942221EDEAC0
:101BE000FCE211928CE2ED3CF807D9F70C9422212B
:101BF000EDEAFCE211928CE2ED3CF807D9F708958A
:101C000074E041E050E0E8E06623C1F0709386069E
:101C10002FEF260FDA0102C0AA0FBB1F2A95E2F7A9
:101C20009D0128233923232B19F0E093850602C058
:101C3000E0938606709385066150E6CF0895CF93B2
:101C4000DF9381E08093860663E085E090E0D8DF53
:101C500067E080E090E0D4DFCEEADCE2FE0131977D
:101C6000808190E0982F8827288160E1822BC8DF4F
:101C700022968CE2CE3CD80789F781E080938506D6
:101C8000DF91CF9108951F93CF93DF9390E09460FD
:101C9000C0E8D6E011E01E836CE0880F991FB0DF2A
:101CA0001D83DF91CF911F910895CF93C82FE0E856
:101CB000F6E08DE0818385E0858381E0E4DF83E0E9
:101CC000E2DF88E0E0DF84E1DEDF88E1DCDF8C2F2B
:101CD000DADF81EACF91D7CF82E0D5DF80E0D3DFB2
:101CE000E0E8F6E08FE0828388E1808B818B828B55
:101CF000838B089587FD80E080310CF08FE0806A4F
:101D0000C2CF0E9422212FEF89EF90E02150804026
:101D10009040E1F700C00000EFEAFCE280E08E3086
:101D200029F49091AE2C9093BB2C0BC08E3129F4EA
:101D30009091BE2C9093CB2C04C09081DF01129720
:101D40009C938E5F3296803251F7E0EBFCE281E0AB
:101D50008F3019F41092BC2C09C08F3119F41092F5
:101D6000CC2C04C09081DF0112979C938E5F329639
:101D7000813271F708950E9422212FEF89EF90E0C0
:101D8000215080409040E1F700C00000ECECFCE204
:101D90008FE1DF011297813029F49091BB2C909351
:101DA000AE2C09C0813129F49091CB2C9093BE2C9C
:101DB00002C09C9190838250FD018F3F51F7EBEC64
:101DC000FCE28EE1DF011297811103C01092AD2C6D
:101DD00007C0803119F41092BD2C02C09C919083F1
:101DE0008250FD018E3F71F70895ADEABCE2EDEB44
:101DF000FCE28C9190E0982F88272081822B880F1D
:101E0000991F9D9381932CE2EC3CF20791F70E947D
:101E100022218FEF99EF20E0815090402040E1F7A0
:101E200000C000000895ADEABCE2EDEBFCE28C914D
:101E300090E0982F88272081822B969587959D93F7
:101E400081932CE2EC3CF20791F70E9422218FEF64
:101E500099EF20E0815090402040E1F700C0000061
:101E60000895EF92FF920F931F93CF93DF93CDB717
:101E7000DEB7A097CDBFDEBF80E2DE011196FD0187
:101E8000982F11929A95E9F7EDEAFCE2982F0190CC
:101E90000D929A95E1F7EDEAFCE2DF011D928A9539
:101EA000E9F78E01005E1F4F7E01B0E1EB0EF11CE1
:101EB000F801709780818093AD2CF8018081809328
:101EC000BD2C59DF025011090E151F0589F78E012F
:101ED000015E1F4F6EE1F62EF801709780818093AE
:101EE000AD2CD8018C918093BD2CB0E1FB1203C0C6
:101EF0000E94222101C03FDFFA94FA940250110996
:101F0000EEE0FE12E9CFA096CDBFDEBFDF91CF910C
:101F10001F910F91FF90EF900895EF92FF920F9312
:101F20001F93CF93DF93CDB7DEB7A097CDBFDEBFB2
:101F300080E2DE011196FD01982F11929A95E9F742
:101F4000EDEAFCE2982F01900D929A95E1F7EDEA07
:101F5000FCE2DF011D928A95E9F78E010F5E1F4FAB
:101F60007E01B1E2EB0EF11CF80170978081809345
:101F7000BC2CF80180818093CC2CC3DE0E5F1F4FF8
:101F80000E151F0589F78E010E5E1F4FFF24F39477
:101F9000F801709780818093BC2CD8018C9180933C
:101FA000CC2CBFE0FB1203C00E94222101C0A9DE9D
:101FB000F394F3940E5F1F4FE1E1FE12E9CFA09678
:101FC000CDBFDEBFDF91CF911F910F91FF90EF90BA
:101FD00008954F925F927F928F929F92AF92BF929D
:101FE000CF92DF92EF92FF920F931F93CF93DF93E5
:101FF000CDB7DEB7A097CDBFDEBF80E2DE01119680
:10200000FD01982F11929A95E9F7EDEAFCE2982FDD
:1020100001900D929A95E1F7EDEAFCE2DF011D9245
:102020008A95E9F700E010E070E8E72EF12CEFE088
:10203000AE2EB12CF7E0CF2ED12CA701002E02C07E
:10204000559547950A94E2F7980128503109D70130
:1020500002C0B595A7952A95E2F79D01EDEBFCE24C
:10206000CE0141962C01702EB501601B710B46010B
:10207000801A910AB7E0B71570F0C2014097DC01F1
:102080008C9190E084239523082C02C09595879528
:102090000A94E2F70BC0D2018C9190E08223932343
:1020A000062E02C0959587950A94E2F79081982BA9
:1020B00090833196BFEF4B1A5B0A8CE2EC3CF80739
:1020C000C9F69FE0791611F090DE02C00E9422212D
:1020D0000F5F1F4F0031110509F0AFCFA096CDBFA4
:1020E000DEBFDF91CF911F910F91FF90EF90DF90B6
:1020F000CF90BF90AF909F908F907F905F904F90C8
:1021000008956F927F928F929F92AF92BF92CF92DB
:10211000DF92EF92FF920F931F93CF93DF93CDB790
:10212000DEB7A097CDBFDEBF80E2DE011196FD01D4
:10213000982F11929A95E9F7EDEAFCE2982F019019
:102140000D929A95E1F7EDEAFCE2DF011D928A9586
:10215000E9F70FE010E0AFE0AA2EB12CEE24E394F3
:10216000F12C87E0C82ED12CA501401B510BD701C3
:1021700002C0AA0FBB1F4A95E2F7AD01902E96014F
:10218000201B310BF70102C0EE0FFF1F2A95E2F76B
:102190009F01EDEAFCE2CE0141963C01802EB801A0
:1021A00068507109B7E0B8155CF4D3018C9190E0E8
:1021B00084239523062E01C0880F0A94EAF70CC0E9
:1021C000C3014097DC018C9190E082239323092C7A
:1021D00001C0880F0A94EAF79081982B908331967A
:1021E000BFEF6B1A7B0A8CE2EC3BF807D9F688202C
:1021F00011F019DE02C00E9422210150110908F0DD
:10220000B3CFA096CDBFDEBFDF91CF911F910F91CD
:10221000FF90EF90DF90CF90BF90AF909F908F9006
:102220007F906F900895EF92FF920F931F93CF933B
:10223000DF938B01EC017C01E60EF71ECE15DF0566
:10224000C1F05FDDFE018991869586958695809324
:10225000BC2C80818295880F807E8093CC2C2FEFC0
:1022600080E792E0215080409040E1F700C00000FC
:10227000E5CF0C33110538F016950795169507959F
:10228000C0E0D0E010C0CEE1D0E03BDD2FEF80E732
:1022900092E0215080409040E1F700C0000021977B
:1022A000209799F70EC02DDD2FEF80E792E02150A7
:1022B00080409040E1F700C000002196C017D10790
:1022C00091F7DF91CF911F910F91FF90EF900895BB
:1022D00090EE9093020691E090932206909115065D
:1022E0009A6190931506909116069A61909316063E
:1022F000909117069A6190931706909130069A6113
:1023000090933006882399F080910A06806E80931E
:102310000A0680912A06816080932A068091090628
:1023200083608093090680912906836012C08091A2
:102330000A068F7180930A0680912A068E7F809309
:102340002A06809109068C7F8093090680912906D0
:102350008C7F809329060895E0E0F6E084E0828394
:1023600082898260828B83858460838781858C608B
:1023700081870895E0E0F6E084E0828382898D7FA2
:10238000828B83858B7F83878185837F8187089577
:102390008091080685FB882780F991E08927909134
:1023A000080696FF82609091080697FF83E090915F
:1023B000280690FF846008951F920F920FB60F9227
:1023C00011240BB60F922F933F934F935F936F930C
:1023D0007F938F939F93AF93BF93EF93FF93D8DF38
:1023E0008093AA2C8091AA2C1F928F938BE594E264
:1023F0009F938F930E9413560F900F900F900F9002
:10240000FF91EF91BF91AF919F918F917F916F91CC
:102410005F914F913F912F910F900BBE0F900FBE88
:102420000F901F9018951F920F920FB60F921124C4
:102430000BB60F922F933F934F935F936F937F93BE
:102440008F939F93AF93BF93EF93FF93A1DF8093FD
:10245000AA2C8091AA2C1F928F938BE594E29F93D4
:102460008F930E9413560F900F900F900F90FF9133
:10247000EF91BF91AF919F918F917F916F915F91FC
:102480004F913F912F910F900BBE0F900FBE0F9069
:102490001F9018951F920F920FB60F9211240BB632
:1024A0000F92EF920F931F932F933F934F935F934E
:1024B0006F937F938F939F93AF93BF93EF93FF930C
:1024C000CF93DF9300D0CDB7DEB7EE24E3948E0137
:1024D0000F5F1F4F21E242E350E06AE580E894E09D
:1024E0000E94F31E89818093AC2C8DE694E20E94B9
:1024F00024560F900F90DF91CF91FF91EF91BF91F4
:10250000AF919F918F917F916F915F914F913F918B
:102510002F911F910F91EF900F900BBE0F900FBE58
:102520000F901F901895E0E7F0E080818B61808329
:1025300083818760838384818760848385818560CC
:10254000858383818867838384818863848385818D
:1025500080658583818183608183828184608283B9
:102560000895809170008F7B8093700082E080934B
:10257000AB2C88ED84BF8BE08093430080910104F5
:1025800080FDFCCF80E897E080930A0490930B04D1
:1025900082E08093020410920804109209041092C1
:1025A0000C0410920D0487E08093000408958C338E
:1025B000910530F425E0880F991F2A95E1F702C0B4
:1025C00080E897E08093080490930904089510929E
:1025D000072008956F927F928F929F92AF92BF9241
:1025E000CF92DF92EF92FF920F931F93CF93DF93DF
:1025F00000D0CDB7DEB7782E662E70E080E090E098
:102600008E010F5F1F4F78013AE0832E912CA12C91
:10261000B12C67012FEFC21AD20AA50194010E94C2
:10262000E552605DF7016083B901CA01611571056A
:102630008105910511F07601ECCFC01AD10AC601CF
:102640000197D801AC0DBD1DF8019F01201B310B76
:102650002817390734F420813E9131932C93019748
:10266000F4CFF9E0F61520F0898190E399838A830D
:1026700000E0711004C028E040E160E003C029E000
:1026800040E167E080E00E949B21E72CF12C01E013
:1026900021E030E04981B70182E090E00E949E2273
:1026A00021E030E04A81B70189E090E00E949E225B
:1026B0000F900F90DF91CF911F910F91FF90EF90AE
:1026C000DF90CF90BF90AF909F908F907F906F9052
:1026D00008951092232B6091C52B80E07BDF6091E1
:1026E000C62B89E077DF81E08093072008951F9251
:1026F0000F920FB60F9211240BB60F922F933F93A8
:102700004F935F936F937F938F939F93AF93BF93F9
:10271000CF93EF93FF9380912E2B90912F2BA0912D
:10272000302BB091312B0196A11DB11D80932E2B22
:1027300090932F2BA093302BB093312B6091C52B0E
:102740006F5F6093C52B6C3308F467C01092C52B84
:1027500080910720882329F060E080E03BDF0E9421
:1027600022216091C62B6F5F6093C62B683108F4FD
:1027700049C08091C82B91E0980F9093C82B873067
:1027800068F081E08093C82B9091C92B21E0290F3C
:102790002093C92B953310F08093C92BC091C72B80
:1027A00081E08C0F8093C72B6091CB2B7091CC2B49
:1027B0008091CA2B0E942B4BC817E0F081E08093D8
:1027C000C72B9091CA2B21E0290F2093CA2B9C3054
:1027D00088F08093CA2B4091CB2B5091CC2B4F5F2C
:1027E0005F4F4093CB2B5093CC2B61E00E94434B27
:1027F0008093C92B1092C62B80910720882351F01B
:1028000060E004C080910720882321F089E0E2DEA7
:102810000E9422211092C52B08C080910720882396
:1028200021F080E0D7DE0E9422218091AB2C813004
:1028300071F49091C62B8091C22B981308C090918F
:10284000C52B8091C12B981302C01092AB2CFF9125
:10285000EF91CF91BF91AF919F918F917F916F91A8
:102860005F914F913F912F910F900BBE0F900FBE34
:102870000F901F901895FF920F931F93CF93DF93A4
:102880008C01F62E60E20DD6EC0197FD21C060E3CD
:10289000C80107D68130910519F097FFF8CF20C005
:1028A000FF2031F060E2C801FCD58C179D0791F440
:1028B0004F2D68E1C801D7D5009791F4FF2071F042
:1028C00060E2C801EED58C179D0741F4D7FFF8CF21
:1028D000CE0106C097FD04C0EC01D9CF80E090E0A6
:1028E000DF91CF911F910F91FF900895CF92DF92CA
:1028F000EF920F931F93CF93DF9300D0CDB7DEB746
:102900006C018091D82A9091D92AF6018283938311
:1029100082E0E82E8E010F5F1F4F26E242E350E077
:102920006AE580E894E00E94F31E8A8190E0982F87
:1029300088272981822BF6018287938728E242E348
:1029400050E06AE580E894E00E94F31E8A8190E0FE
:10295000982F88272981822BF601848795872AE280
:1029600042E350E06AE580E894E00E94F31E8A8129
:1029700090E0982F88272981822BF60186879787F8
:1029800024E242E350E06AE580E894E00E94F31E0E
:102990008A8190E0982F88272981822BF6018087F1
:1029A000918722E242E350E06AE580E894E00E94E9
:1029B000F31E8A8190E0982F88272981822BF601C7
:1029C0008683978380E00F900F90DF91CF911F91C6
:1029D0000F91EF90DF90CF90089560E04CCF6DE0C5
:1029E0004ACF6FE048CFCF92DF92EF92FF920F93E2
:1029F0001F93CF93DF9300D0CDB7DEB78C01D62ED7
:102A0000C42E60E3C8014DD58130910519F097FFC0
:102A1000F8CF1DC060E2C80144D57C01C9826D2D8C
:102A20006F7160566A839E012F5F3F4F42E067E1FE
:102A3000C80154D5009759F460E2C80132D58E150B
:102A40009F05D1F31816190614F480E090E00F905A
:102A50000F90DF91CF911F910F91FF90EF90DF903A
:102A6000CF900895CF93DF93EC0160E2CE0119D5AA
:102A7000892B19F0CE01B1DFF8CF6BE0CE01FBDE80
:102A800060E2CE010ED5892BD9F360E2CE0109D5E3
:102A9000019759F780E090E0DF91CF9108950F936F
:102AA0001F93CF93DF938C0140E068E0DCD4EC010E
:102AB000C801D8DFC80FD91F40E068E0C801D3D4EF
:102AC000C80FD91F40E064E0C801CDD4C80FD91F9A
:102AD00040E065E0C801C7D4C80FD91F40E066E0F8
:102AE000C801C1D4C80FD91F40E063E0C801BBD4FE
:102AF000C80FD91F4FEF61E2C801B5D4C80FD91F65
:102B000041E068E1C801AFD4C80FD91FF8D447E14C
:102B100067E0C801A8D48C0F9D1FDF91CF911F9152
:102B20000F9108950F931F93CF93DF938C0140E093
:102B300068E099D4EC0140E06AE0C80194D4C80F81
:102B4000D91F40E069E0C8018ED4C80FD91FC80161
:102B5000A6DFC80FD91F43E06FE0C80184D4C80FB7
:102B6000D91F41E061E0C8013EDFC80FD91F43E033
:102B700063E0C80178D4C80FD91F44E064E0C801FD
:102B800072D4C80FD91F40E365E0C8016CD4C80FE8
:102B9000D91F43E067E0C80126DFC80FD91F43E013
:102BA0006EE0C80120DFC80FD91F40E06BE0C8010C
:102BB0001ADFC80FD91F41E062E0C80114DFC80F57
:102BC000D91F40E76AE0C8010EDFC80FD91F44E0F3
:102BD0006CE0C80108DFC80FD91F48E661E1C801F1
:102BE00042D4C80FD91F41E062E1C8013CD4C80FEC
:102BF000D91F40EA68E0C80136D4C80FD91F48E0A1
:102C00006AE0C80130D4C80FD91FC801E8DE8C0FB4
:102C10009D1FDF91CF911F910F9108958AE590E05C
:102C20003EDF2FEF81EE94E0215080409040E1F7AD
:102C300000C000008AE590E075DF8ECB0F931F93F4
:102C4000CF93DF938C0140E068E00DD4EC0140E0CD
:102C50006AE0C80108D4C80FD91F40E069E0C80184
:102C600002D4C80FD91FC8011ADFC80FD91F4FEFF0
:102C70006FE0C801F8D3C80FD91F40E060E1C80178
:102C8000F2D3C80FD91F47E761E0C801ACDEC80F17
:102C9000D91F41E063E0C801E6D3C80FD91F4DE159
:102CA00064E0C801E0D3C80FD91F40E065E0C80167
:102CB000DAD3C80FD91F40E066E0C801D4D3C80FEB
:102CC000D91F43E067E0C8018EDEC80FD91F43E07B
:102CD00068E0C80188DEC80FD91F43E069E0C80179
:102CE00082DEC80FD91F43E06EE0C8017CDEC80F4A
:102CF000D91F40E06BE0C80176DEC80FD91F40E065
:102D00006EE1C80170DEC80FD91F40E061E1C80163
:102D10006ADEC80FD91F41E262E0C80164DEC80F55
:102D2000D91F44E063E0C8015EDEC80FD91F40E749
:102D30006AE0C80158DEC80FD91F40E76DE1C8013D
:102D400052DEC80FD91F40E760E1C8014CDEC80F52
:102D5000D91F44E06CE0C80146DEC80FD91F40E22D
:102D60006FE1C80140DEC80FD91F40E262E1C8012F
:102D70003ADEC80FD91F44E968E0C80174D3C80F10
:102D8000D91F48E06AE0C8016ED3C80FD91F48E0D8
:102D900069E0C80168D3C80FD91FC80122DE8C0FB3
:102DA0009D1FDF91CF911F910F910895E0E7F0E013
:102DB00083818D7F8383E0E4F8E081E0808390E885
:102DC00096A39CE097A386838AE590E068DE2FEFC8
:102DD00081EE94E0215080409040E1F700C0000077
:102DE0008AE590E02BCFEF92FF920F931F93CF9342
:102DF000DF93EC01DBDF80E88093082060E080EA6D
:102E000094E20E946F2375ECE72E74E2F72E01E046
:102E100024E044E066E086E00E949B2100E022E09E
:102E200042E067E087E00E949B210E942221CE01C0
:102E30005DDD8B858F938A858F93FF92EF920E9441
:102E400013568A859B850F900F900F900F908134B9
:102E500026E09207E0F68093262B9093272B8FEFA6
:102E600097EA21E6815090402040E1F700C0000041
:102E700001E810E0015011090115110569F0809178
:102E8000D82A9091D92A8A839B83CE012FDDBE0157
:102E90008AE590E0C8D1EECFDF91CF911F910F91DD
:102EA000FF90EF9008951F920F920FB60F9211248A
:102EB0008F939F938091D82A9091D92A01968093DD
:102EC000D82A9093D92A9F918F910F900FBE0F907F
:102ED0001F9018958F929F92AF92BF92CF92DF92E0
:102EE000EF92FF924091E92A5091EA2A6091EB2AF1
:102EF0007091EC2AFC01C084D184452B462B472BD2
:102F000061F4C601A0E0B0E08093E92A9093EA2A38
:102F1000A093EB2AB093EC2A06C0F1E8CF16FBEBA6
:102F2000DF0608F047C0E12CF12C2091E92A30910E
:102F3000EA2A4091EB2A5091EC2ADA01C901B695B0
:102F4000A795979587954C015D01820E931EA41E4F
:102F5000B51EC814D904EA04FB0420F549015A013E
:102F6000881A990AAA0ABB0A8C149D04AE04BF04ED
:102F7000C8F4A3E0B0E00E941C536C0D7D1D8E1DB3
:102F80009F1D22E096958795779567952A95D1F7AD
:102F90006093E92A7093EA2A8093EB2A9093EC2AB3
:102FA00081E009C0C092E92AD092EA2AE092EB2A95
:102FB000F092EC2A80E0FF90EF90DF90CF90BF90EE
:102FC000AF909F908F9008950F931F93CF93DF93AF
:102FD000EB01FA018130F1F100F1823009F056C0C5
:102FE0000E851F85A28188859985980140E050E073
:102FF000280F391F411D511D325041095109B0E0C0
:103000000E941C5320E137E240E050E00E94E5526C
:10301000200F311F2E873F8739C00A851B85A0816D
:1030200088859985980140E050E0280F391F411D9F
:10303000511D325041095109B0E00E941C5320E15A
:1030400037E240E050E00E94E552200F311F2A870E
:103050003B871CC00C851D85A181888599859801B9
:1030600040E050E0280F391F411D511D32504109E9
:103070005109B0E00E941C5320E137E240E050E0EB
:103080000E94E552200F311F2C873D87DF91CF91A1
:103090001F910F910895CF92DF92EF92FF920F93BD
:1030A0001F93CF93DF93813049F028F0823049F4A9
:1030B000625F7F4F25C0665F7F4F22C0645F7F4F96
:1030C0001FC01092E32A1092E42A1092E52A10926F
:1030D000E62A1092E72A1092E82A1092DD2A10922E
:1030E000DE2A1092DF2A1092E02A1092E12A109232
:1030F000E22A1092DA2A1092DB2A1092DC2A8AC085
:10310000C82ED12CF601EE0FFF1FEF01CD51D54D8A
:1031100088819981DB016D917C91892B71F4CF01BC
:103120008351954DDC018D919C916817790718F4B6
:103130006883798302C088839983EF01C351D54D99
:10314000888199816817790708F04DC0EF01CD514A
:10315000D54D0990D881C02D27E02C9FC0012D9F0F
:10316000900D11248B0120E030E0080F191F211D64
:10317000311DA3E03695279517950795AA95D1F7A8
:10318000C801B6E096958795BA95E1F77C01E00E07
:10319000F11EEC16FD0610F1D801A81BB90BCA17D9
:1031A000DB07E0F0EF01C352D54DE880F980D6018E
:1031B000A652B54DE114F10471F0E616F70658F089
:1031C0008C918F5F8C93813448F081E0E81AF1088C
:1031D000E882F98202C0688379831C92DF01AD51D5
:1031E000B54D0D931C93DF01A352B54D8D919C916C
:1031F000DF01A253B34D009729F0480F591F4D939B
:103200005C9308C0ED51F54D80819181840F951F2D
:103210008D939C93DF91CF911F910F91FF90EF9031
:10322000DF90CF900895EF92FF920F931F93CF936B
:10323000DF937C01EB018091ED2A9091EE2A892B9E
:10324000A1F48091EF2A9091F02A892B71F480915A
:10325000F12A9091F22A892B41F480911020803834
:1032600021F48CED94E20E94245680911020882352
:1032700009F48AC0823048F18A859B852091ED2A25
:103280003091EE2A2817390720F48093ED2A909385
:10329000EE2A8C859D852091EF2A3091F02A2817FF
:1032A000390720F48093EF2A9093F02A8E859F852A
:1032B0002091F12A3091F22A2817390708F05EC0D0
:1032C0008093F12A9093F22A59C08091F22A8F9329
:1032D0008091F12A8F938091F02A8F938091EF2A29
:1032E0008F938091EE2A8F938091ED2A8F9387E2BE
:1032F00095E29F938F930E94135660910E207091D8
:103300000F20660F771F4091ED2A5091EE2A460F4D
:10331000571F4093ED2A5093EE2A2091EF2A3091C7
:10332000F02A260F371F2093EF2A3093F02A80913E
:10333000F12A9091F22A860F971F8093F12A909399
:10334000F22A4093CE2C5093CF2C2093D02C309344
:10335000D12C8093D22C9093D32C4093282B509334
:10336000292B20932A2B30932B2B80932C2B90935B
:103370002D2B8DB79EB708968DBF9EBF80911020D4
:1033800081508093102067C08A859B8581389B4B34
:1033900050F48C859D8581389B4B28F48E859F85C4
:1033A00081389B4B50F08AE695E2DF91CF911F91D7
:1033B0000F91FF90EF900C942456CE018BDD882363
:1033C00009F449C00A851B8588859985980140E0E4
:1033D00050E0280F391F411D511D3250410951093C
:1033E000A0910920B0E00E941C5320E137E240E0A8
:1033F00050E00E94E552200F311F2A873B8749E0A9
:1034000050E2BE0181E0E0DD49E050E2BE0182E031
:10341000DBDD40910E2050910F20BE0180E03BDEAD
:1034200040910E2050910F20BE0181E034DE40918A
:103430000E2050910F20BE0182E02DDE40910C2025
:1034400050910D20BE01C701DF91CF911F910F91C7
:10345000FF90EF9010C2DF91CF911F910F91FF90DD
:10346000EF9008950895EF920F931F93CF93DF93FA
:103470001F92CDB7DEB7262F4983EE24E3948E0149
:103480000F5F1F4F48EE53E06AE580E894E0FCD4FC
:1034900080E090E00F90DF91CF911F910F91EF901E
:1034A0000895EF920F931F93CF93DF931F92CDB7A1
:1034B000DEB7262FEE24E3948E010F5F1F4F48EEF8
:1034C00053E06AE580E894E08ED4898190E00F9023
:1034D000DF91CF911F910F91EF900895EF920F938D
:1034E0001F938901E42E262F48EE53E06AE580E819
:1034F00094E0CAD490E01F910F91EF9008952FEFC0
:1035000089EF90E0215080409040E1F700C000003A
:103510000895FF920F931F93CF93DF93CDB7DEB73C
:10352000C25AD109CDBFDEBF42E1E5E2F0E2DE01E1
:10353000AF56BF4F01900D924A95E1F742E1E7E3A4
:10354000F0E2DE01A158BF4F01900D924A95E1F7DC
:1035500042E1E9E4F0E2DE01A359BF4F01900D9290
:103560004A95E1F742E1EBE5F0E2DE01A55ABF4FF3
:1035700001900D924A95E1F742E1EDE6F0E2DE01BD
:10358000A75BBF4F01900D924A95E1F742E1EFE74B
:10359000F0E2DE01D79601900D924A95E1F742E103
:1035A000EBE5F0E2DE01959601900D924A95E1F788
:1035B00042E1EDE6F0E2DE01539601900D924A956C
:1035C000E1F742E1EFE7F0E2DE01119601900D92A2
:1035D0004A95E1F7613019F5FE01E359FF4F40E0EC
:1035E00050E0F42E619171916817790790F4440FBF
:1035F000551FEFE7F0E0EC0FFD1FE40FF51F2081F2
:103600003181DC010E940D538B019C01E1E9F0E066
:1036100023C04F5F5F4F4930510519F751C06230E9
:1036200041F5FE01F79640E050E0F42E6191719172
:1036300068177907C0F4440F551FE9E4F0E0EC0F78
:10364000FD1FE40FF51F20813181DC010E940D5325
:103650008B019C01EBE5F0E0EC0FFD1FE40FF51F83
:103660008081918124C04F5F5F4F49305105E9F659
:1036700027C0633089F5FE01319640E050E0F42E1A
:103680006191719168177907B0F4FA01EE0FFF1F8D
:1036900021E030E02C0F3D1FE20FF31F2289338918
:1036A000DC010E940D538B019C0184A195A18C012A
:1036B000021B130B07C04F5F5F4F49305105F9F6EE
:1036C00089E0F82E0B3F110518F489E0F81202C0CA
:1036D0000AEF10E0C80102C08FEF9FEFCE55DF4F19
:1036E000CDBFDEBFDF91CF911F910F91FF90089565
:1036F000613081F4BC0180E090E00E94E74C2EEA4A
:1037000037E441E65FEB0E94D84D20EC36E748E015
:1037100058E411C0623091F4BC0180E090E00E9456
:10372000E74C23EC35EF48E65FEB0E94D84D20E8EC
:1037300033E248E158E40E94754D03C060E070E058
:10374000CB010E94B64CCB0108950F931F93CF93EA
:10375000DF93EB0161E08A859B85CADF8C0162E023
:103760008C859D85C5DF9C011A8AC801820F931F35
:10377000803E91400CF074C0009FC001019F900DED
:10378000900D1124229FA001239F500D500D112454
:10379000841B950B68E770E00E94D25280910D2B3C
:1037A00081112CC080910C2B811134C080910B2B86
:1037B00081113CC06031710544F087E895E20E94B8
:1037C000245681E080930D2B0AC0613F7F4F74F433
:1037D00084E995E20E94245681E080930C2B8A8133
:1037E0009B818093092B90930A2B40C082EA95E23B
:1037F0000E94245681E080930B2BF1CF613F7F4FD5
:10380000ACF481EB95E20E94245682E08A8B109200
:103810000D2B2CC0603171054CF08FEB95E20E94AE
:10382000245681E08A8B10920C2B20C08A819B81C8
:103830002091092B30910A2B821B930B813D9740DD
:10384000A8F080910B2B882339F08CEC95E20E9434
:10385000245683E08A8B04C088ED95E20E942456AA
:1038600010920D2B10920C2B10920B2BDF91CF91FD
:103870001F910F9108952F923F924F925F927F92E6
:103880008F929F92AF92BF92CF92DF92EF92FF9270
:103890000F931F93CF93DF93CDB7DEB7AE97CDBF16
:1038A000DEBF7B015A01DB0112968D919C9113972B
:1038B0006AE070E00E94BE528B0184E1E1E9F0E22F
:1038C000DE01119601900D928A95E1F78AE0E5EA12
:1038D000F0E2DE01559601900D928A95E1F788E0BD
:1038E000EFEAF0E2DE01979601900D928A95E1F7FA
:1038F00088E0E7EBF0E2DE015F9601900D928A9599
:10390000E1F7F701828593852091CE2C3091CF2C61
:10391000821B930B97FF02C080E090E061E09C0166
:10392000A29EC001A39E900DB29E900D1124F1DDC8
:103930004C01D7011C968D919C911D972091D02C04
:103940003091D12C821B930B97FF02C080E090E056
:1039500061E0FC01EA9DC001EB9D900DFA9D900D88
:103960001124D7DD5C019401D4010E940D531B0189
:103970002C01F8EE2F0EF0E83F1E411C511C950162
:10398000D5010E940D53261A370A480A590A57FCD6
:1039900003C0A201910103C020E030E0A901CA01E7
:1039A000B9012CE330E040E050E00E94E5522E34B3
:1039B00064E0360710F02DE434E08091112091EF9F
:1039C0008916910420F4A1EFAA16B104B0F188235E
:1039D00011F0E0E01EC06091072B7091082B6093FE
:1039E000052B7093062BE091032BF091042BC8015B
:1039F0008E1B9F0BC3978231914058F7F5E47F2EC1
:103A00007E0E701AC090012BD090022BC61AD70AD6
:103A1000E1E081E0809311208091052B9091062BAD
:103A20008732924018F02DE434E002C020E030E00C
:103A30000093FF2A1093002B11C0813041F4209392
:103A4000012B3093022B0093032B1093042B109225
:103A500011202093072B3093082BE0E05901C90176
:103A600069E470E00E94BE524FE050E0461B570BE5
:103A7000D70157FF03C053961C9202C053964C9334
:103A8000E13009F063C0B7E9CB16D10454F11092CC
:103A9000FE2A20E0822F90E0FC01EA50F54DA7E2DB
:103AA000B0E0AC0FBD1FA80FB91F8C91808381E0DF
:103AB000820F883010F4282FEDCF8093FE2ADF92FA
:103AC000CF921F927F9283EE95E29F938F938EEE1B
:103AD00095E29F938F930E94135682E0F701828BA9
:103AE00032C03AE6C3163FEFD3069CF51092FE2A89
:103AF00020E0822F90E0FC01EA50F54DAFE1B0E00C
:103B0000AC0FBD1FA80FB91F8C91808381E0820F7D
:103B1000883010F4282FEDCF8093FE2AD194C194E1
:103B2000D108DF92CF921F927F9286E196E29F9317
:103B30008F938EEE95E29F938F930E94135681E0B0
:103B4000D70152968C93CDBFDEBF03C0D7015296EA
:103B50001C92FE01319620E081919191A816B90640
:103B600018F02F5F2A30C1F78091F52A281304C07E
:103B7000293011F0211104C00093FF2A1093002B6B
:103B80002093F52AE091FE2AEE23E1F08091F32ABA
:103B9000B02FB81BB73208F464C00093F32A109317
:103BA000F42AE150E093FE2AE770F0E0EA50F54D88
:103BB000608170E081E090E055DC0093FF2A109373
:103BC000002B4FC08091FF2A9091002BF801E81B39
:103BD000F90BCF018A38924008F443C00093F32ACE
:103BE0001093F42A1092FE2AE0E06FEF30E0CE014D
:103BF0004596820F931FAE2FB0E0AA50B54D6C933F
:103C0000A1E0AE0FB0E0AA50B54D6C93DC015C9121
:103C1000A2E0AE0FB0E0AA50B54D5C9344E04E0F69
:103C2000ED5FF0E0EA50F54D5083483010F4E42F9A
:103C3000E2CF80E18093FE2A2F931F9282E296E2E8
:103C40009F938F9388E296E29F938F930E941356DF
:103C500083E0F701828B0F900F900F900F900F90E1
:103C60000F90AE96CDBFDEBFDF91CF911F910F9128
:103C7000FF90EF90DF90CF90BF90AF909F908F908C
:103C80007F905F904F903F902F900895E0E7F0E095
:103C90008381877F8383E0E4F6E080EB818380E4A7
:103CA000828380E1858380ED8093C008089510921F
:103CB000C008E0E4F6E080EB828388E1848B858BAA
:103CC000868B878BE0E7F0E08381886083830895AB
:103CD0008093C30880E090E02091C20827FD05C0D2
:103CE00001970097C9F780E008958091C30808956F
:103CF000E0E7F0E083818F7B8383E0E8F4E01282E9
:103D000089E0858388E0818381E084830895FC01D4
:103D1000668324E6249FC001259F900D11240097FF
:103D2000B9F02481322F3874383411F466830AC014
:103D3000322F3075303521F487E0838384E0089595
:103D4000207C61F42AE62A95F1F700C00197E7CFBD
:103D5000848185FF05C087E0838302C081E00895E8
:103D600083E00895FC01478324E6269FC001279F36
:103D7000900D1124248126FD08C0009731F02AE619
:103D80002A95F1F700C00197F5CF848186FF06C020
:103D900084818295817091E08927089580E008955B
:103DA000FC0184818C708C30E1F034E6369FC001D8
:103DB000379F900D1124348137FD08C0009731F0F2
:103DC0003AE63A95F1F700C00197F5CF8781DA011D
:103DD0008C93222311F087E001C082E0838381E08D
:103DE000089580E008958F929F92AF92BF92CF92F4
:103DF000DF92EF92FF920F931F93CF93DF931F9267
:103E0000CDB7DEB74C01F62E6A01660F29837FDF3E
:103E10002981813041F5422FB601C401A3DF8823F7
:103E200021F16F2D660F6160A601C40170DF813042
:103E300021F087E0F401838316C0FF24FA94FE0C7E
:103E40008FEFF816B1F35801FFEFAF1ABF0A21E068
:103E5000F11020E0A801B601C401A2DFFA94882382
:103E600041F38501EDCF8E2D01C086E00F90DF91EB
:103E7000CF911F910F91FF90EF90DF90CF90BF9067
:103E8000AF909F908F9008958F929F92AF92BF9224
:103E9000CF92DF92EF920F931F93CF93DF931F92F6
:103EA000CDB7DEB74C015A01660F298330DF298177
:103EB0008130E1F4422FB501C40154DF8823C1F001
:103EC00068011FEF1E0D1F3F61F0F60141916F0168
:103ED000B501C40147DF9FEF910F882311F0192F1F
:103EE000F2CF87E0F4018383812F03C08E2D01C0C0
:103EF00086E00F90DF91CF911F910F91EF90DF90AF
:103F0000CF90BF90AF909F908F900895E0E7F0E042
:103F100084818F7E8483E0E6F6E088E0818384E01C
:103F20008283E0EAF9E080E283838EE2868388E997
:103F3000878383E0858388E184830895E0EAF9E05C
:103F40001482E0E6F6E08CE0828388E1828B838B4A
:103F5000E0E7F0E084818061848308959091A10975
:103F600095FFFCCF8093A00908958091A10987FF58
:103F7000FCCF8091A0090895CF93DF93EC01899144
:103F8000882311F0EBDFFBCF8DE0E8DF8AE0DF91E3
:103F9000CF91E4CF1F920F920FB60F9211248F93FF
:103FA0009F9380910E2B90910F2B019759F48FEFD7
:103FB0009FE0809338039093390310920E2B109258
:103FC0000F2B0AC0109238031092390381E090E061
:103FD00080930E2B90930F2B9F918F910F900FBE7C
:103FE0000F901F901895CF93DF93CDB7DEB76497EE
:103FF000CDBFDEBF0E94EB080E9493120BD10E943E
:10400000F80955DE9BDF80E00E946811809148002E
:104010008660809348000E94C8118093AA2C0E9459
:10402000A009882321F08091AA2C813011F40E94EC
:10403000C4446CDF82E190E28093D82C9093D92C19
:104040008093DA2C9093DB2C8CE496E20E94245629
:1040500087E08093A200789480E894E049DE0E9493
:104060000E1680E0F1D00E946913ECD00E94B112CC
:104070000E949609FF24F39482E0E82EDD24D39475
:104080008091AC2C843009F042C01092232B0E9406
:10409000BA118AE0D9D086E796E20E9424560E949F
:1040A000D61600E010E0CE0101960E94761441E0A1
:1040B00050E0BE016F5F7F4F8AE590E046DBCE01A6
:1040C00001960E940A498B859C858034964020F099
:1040D00080E090E08C01E7CFC801019609351B41D3
:1040E000C8F30E94960983E996E20E9424568091C3
:1040F000232B882321F0C0D40E9469139DD4809182
:10410000252BA2D00E94AC110E940E1627C08091D0
:10411000AC2C823029F489EB96E20E9424561EC012
:104120008091AA2C843091F4FF2011F09FD401C01B
:104130007CD08FEF97EA21E6815090402040E1F754
:1041400000C000001092AA2CFD2408C08091AB2C66
:10415000811104C0E092AB2C0E9432451092AC2C2D
:1041600080914800816080934800889589CF8F9224
:104170009F92AF92BF92EF92FF920F931F93CF93B4
:10418000DF9397FD03C0C0E0D0E00BC09095809511
:10419000709561957F4F8F4F9F4F2DE220B9C1E001
:1041A000D0E07E012AE0822E912CA12CB12C870137
:1041B0000F5F1F4FA50194010E94E552605DF7015A
:1041C0006083B901CA01611571058105910511F07E
:1041D0007801EDCFD801AC1BBD0BCD010197AC0F21
:1041E000BD1FFE019F012C1B3D0B2817390734F41E
:1041F00020813E9131932C930197F4CFC801DF9138
:10420000CF911F910F91FF90EF90BF90AF909F9033
:104210008F90089584E20E94550E8FE00E947A0EDE
:104220000E94EF0D83E00C94430E83E00E94430E46
:104230000E9469130C9481100C94E50D0C94EF0D01
:104240000C94F80D0C941F0E1F93CF93DF93C82F7F
:10425000D0912320D817C8F4DF5F11E0180FD117D1
:1042600071F08D2F0E947A0E2FEF86E791E021509A
:1042700080409040E1F700C00000DF5FF0CFC093C6
:104280002320DF91CF911F9108958D17C0F7D15052
:104290001FEF180FD11799F38D2F0E947A0E2FEF71
:1042A00086E791E0215080409040E1F700C0000097
:1042B000D150F0CF81E0C8DF8FE0C6DF81E0C4DFFE
:1042C0008FE0C2CF9C0180319105A4F5603171056A
:1042D0008CF58FE090E0861B970B68E170E00E9400
:1042E000D2528830910534F08031910534F467E87A
:1042F00070E005C067E070E002C067E071E08770C1
:104300009927681B790B283031051CF4220F331FC5
:1043100004C0220F331F2F503109C90133E0880F29
:10432000991F3A95E1F7860F971F41110C94BC0D28
:104330000C94D00D0895AF92BF92CF92DF92EF927E
:10434000FF920F931F93CF93DF93A62E182FC42FA6
:10435000D0E0C80FD11DE22EF12CE60EF11CC12ECB
:10436000D12CCC16DD066CF4BA2C6B2D70E06E15DA
:104370007F052CF4402FC601A5DFB394F6CF1F5F55
:10438000EECFDF91CF911F910F91FF90EF90DF90D3
:10439000CF90BF90AF9008950F9301E021E041E0EE
:1043A0006091222080912120C6DF9091222080916F
:1043B0002120973020F0893051F491500DC0963073
:1043C00041F4873030F081508093212017C099301C
:1043D00030F4863099F49F5F909322200FC099307B
:1043E00069F4893058F48F5F80932120893031F44B
:1043F0008091202091E089278093202000E021E017
:1044000041E0609122208091212095DF0F910C9452
:104410001F0E2F923F924F925F926F927F928F92D8
:104420009F92AF92BF92CF92DF92EF92FF920F9343
:104430001F93CF93DF9300D000D0CDB7DEB76A01D2
:10444000302FF12C44244394512CA62EB12C282E2D
:10445000312CF316B1F18F2D8770320102C0660C3A
:10446000771C8A95E2F71B821C828F2D8695869594
:1044700086954601829F800C911C112485010F0DA9
:10448000111D9B819217D8F4EB81FC81E80DF91D79
:10449000E491F0E0E621F721EF2B59F04E2DB80121
:1044A0008B819C81820D931D29833A830BDF3A8196
:1044B00029818B819C8101968B839C83E2CFF3942D
:1044C000C8CF2496CDBFDEBFDF91CF911F910F9152
:1044D000FF90EF90DF90CF90BF90AF909F908F9024
:1044E0007F906F905F904F903F902F90089525E0C0
:1044F000629FB0011124480F591F80E090E06C5377
:10450000774FFB01E80FF91FE491E2952E2F2373FB
:10451000A4E02A9F90011124EC7CE695E695E22B1D
:104520002E2F2575220FEA7AE695E22BDA01ED931C
:10453000AD0101968530910521F708952F923F92A4
:104540004F925F926F927F928F929F92AF92BF92A3
:10455000CF92DF92EF92FF920F931F93CF93DF934F
:10456000CDB7DEB72597CDBFDEBF8983322E102FA2
:104570009C015C0185E0A80EB11CE62F97E0099F25
:10458000E00D1124EA832C833D83512C54ECE52E5D
:1045900058E0F52EE21AF30AF5E04F9FE00CF11C0B
:1045A00011244B0186E0880E911C3B0191E0691AB1
:1045B0007108EC81FD81EE0DFF1D4490E981E50D50
:1045C000EB836401212C40FE11C0113041F48C8139
:1045D0009D8197FD0BC0432DB60174DE07C0032DEE
:1045E000212F412F6A81620D8B81A5DE469491E0D7
:1045F000C91AD108211AC614D70429F7EC81FD8104
:104600003196EC83FD83510EEA15FB0591F6259654
:10461000CDBFDEBFDF91CF911F910F91FF90EF9043
:10462000DF90CF90BF90AF909F908F907F906F90D2
:104630005F904F903F902F900895AF92BF92CF928E
:10464000DF92EF92FF920F931F93CF93DF93CDB73B
:10465000DEB72597CDBFDEBF26E0629FB0011124F3
:104660008E010F5F1F4F20E030E06C537D4F0396AB
:10467000480F591FE5E0EE2EF12CFB01E20FF31F6E
:10468000849182958F70F80181938F01FA01B82E81
:1046900080E090E06701C21AD30AAB2DA1700C2C08
:1046A00001C0AA0F0A94EAF7A290AA2AA082B6949F
:1046B00001968330910589F72F5F3F4F25303105F3
:1046C000E1F62596CDBFDEBFDF91CF911F910F910F
:1046D000FF90EF90DF90CF90BF90AF9008959F92A2
:1046E000AF92BF92CF92DF92EF92FF920F931F9300
:1046F000CF93DF938C01962E662371F0FC0101901D
:104700000020E9F73197E81BF90B86E08E9FE00166
:104710008F9FD00D11240BC0EC0109900020E9F708
:104720002197C81BD90BCC0FDD1FCC0FDD1F61E01B
:1047300070E0CE010E9426537C01A12CB12CC12C2B
:10474000D12CF80161918F01662379F0A70199209E
:1047500019F0C601CCDE02C0C5016FDF86E0C80ECD
:10476000D11CE4E0AE0EB11CECCFBE01C7010E942B
:104770001311C701DF91CF911F910F91FF90EF901F
:10478000DF90CF90BF90AF909F900C94D8532F9212
:104790003F924F925F926F927F928F929F92AF92D1
:1047A000BF92CF92DF92EF92FF920F931F93CF931E
:1047B000DF93CDB7DEB72897CDBFDEBF5B0129837E
:1047C000102F26E0429F60011124E82F37E0039F5D
:1047D000E00D1124EA83212C1F82188696012C53A8
:1047E0003D4F6901FC013796EC83FD832C01F1E01C
:1047F0004F1A51083B0123E0620E711CEF81F885CE
:10480000EC0DFD1D5491322D3A0D3B83EC80FD8063
:10481000312C43018F819885881A990A50FF16C060
:10482000113059F492E0E916F10484F04981B401A1
:10483000C70102975E8346DD08C00981212F412F01
:104840006B818A81830D5E8376DD5E815695E1E022
:10485000EE1AF108311AE414F50401F72F813885B6
:104860002F5F3F4F2F833887211A2630310531F6CD
:104870002896CDBFDEBFDF91CF911F910F91FF90A2
:10488000EF90DF90CF90BF90AF909F908F907F90F0
:104890006F905F904F903F902F9008950F93CF931C
:1048A000DF93EC0101E021E030E0488167E070E057
:1048B00081E090E06CDF21E030E0498167E070E06A
:1048C00085E090E064DF21E030E04A8167E070E05D
:1048D00089E090E05CDF21E030E04B8167E070E050
:1048E0008DE090E054DFDF91CF910F9108950F9309
:1048F000CF93DF93EC0101E021E030E0488167E0F5
:1049000070E083E090E043DF21E030E0498167E040
:1049100070E087E090E03BDF21E030E04A8167E033
:1049200070E08BE090E033DFDF91CF910F9108953D
:104930008091102B8130E9F1A8F1823009F448C050
:10494000833009F065C082E290E00E94BC0D83E3F1
:1049500090E00E94BC0D84E490E00E94BC0D84E5D0
:1049600090E00E94BC0D85E690E00E94BC0D85E7BA
:1049700090E00E94BC0D8DE090E00E94BC0D8DE1A6
:1049800090E00E94BC0D8CE290E00E94BC0D8CE394
:1049900090E00E94BC0D8BE490E00E94BC0D8AE583
:1049A00090E034C083EF90E00E94BC0D8BE890E073
:1049B0002DC085EE90E00E94BC0D86EF90E00E9435
:1049C000BC0D8EE890E00E94BC0D8DE990E01EC009
:1049D00087EC90E00E94BC0D80E590E00E94BC0D49
:1049E00081E690E00E94BC0D81E790E00E94BC0D42
:1049F00089E090E00E94BC0D89E190E00E94BC0D2E
:104A000088E290E00E94BC0D8FEB90E00E94BC0D0C
:104A10008091102B91E0980F9093102B843021F40B
:104A20001092102B0C94EF0D0C941F0E0C94310F60
:104A30000C948D0F0C94E90F0C948110CF93CFE15F
:104A40000E94BB0EC150E1F7CF910895CF93CFE103
:104A50000E94810EC150E1F7CF910895CF93CFE12D
:104A60000E94F50EC150E1F7CF910895F7DF82E083
:104A70000E94430E0C946C0ECF93CFE10E94130F53
:104A8000C150E1F7CF9108956091C12B6B3320F4B1
:104A90006F5F6093C12B04C081E08093C12B61E004
:104AA00085E00E94EA120C941F0E6091C12B6623D0
:104AB00021F061506093C12B04C08AE38093C12B25
:104AC0006AE385E00E94EA120C941F0E6091C22BEB
:104AD000673120F46F5F6093C22B04C081E0809344
:104AE000C22B61E085E00E94EA120C941F0E6091D7
:104AF000C22B662321F061506093C22B04C086E173
:104B00008093C22B66E185E00E94EA120C941F0E8E
:104B10006091C62B673120F46F5F6093C62B03C092
:104B20001092C62B60E085E00E94EA120C941F0EE2
:104B30006091C62B662321F061506093C62B04C0A0
:104B400087E18093C62B67E185E00E94EA120C940E
:104B50001F0E6091C52B6B3320F46F5F6093C52BE4
:104B600003C01092C52B60E085E00E94EA120C940D
:104B70001F0E6091C52B662321F061506093C52BF9
:104B800004C08BE38093C52B6BE385E00E94EA129F
:104B90000C941F0ECF93C091C72B6091CB2B7091BB
:104BA000CC2B8091CA2B0E942B4BC81730F46091FC
:104BB000C72B6F5F6093C72B04C081E08093C72B26
:104BC00061E085E00E94EA12CF910C941F0E609183
:104BD000C72B623020F061506093C72B0BC06091EF
:104BE000CB2B7091CC2B8091CA2B0E942B4B8093A6
:104BF000C72B682F85E00E94EA120C941F0E80914B
:104C0000CA2B8C3010F48F5F01C081E08093CA2BD7
:104C10000E94CF4A6CDE0C941F0E8091CA2B82300A
:104C200010F0815001C08CE08093CA2B0E94CF4AC3
:104C30005EDE0C941F0EEBECFBE2608171816F5F16
:104C40007F4F6083718380E090E091DA80E090E0B4
:104C500025DE0C941F0EEBECFBE26081718161504C
:104C600071096083718380E090E081DA80E090E0F8
:104C700015DE0C941F0ECF93DF93DB01FC019A012C
:104C80002230310538F0CD91DD91C193D19322507E
:104C90003109F6CFDA01AE7FFB01EA0FFB1FA80F47
:104CA000B91F417055274E0F5F1FE417F50719F024
:104CB00081918D93FACFDF91CF910895480F591FBD
:104CC0008417950721F0FC016193CF01F9CF089576
:104CD000DC012D913C91119721153105B9F0F901B5
:104CE000AF0181918132A8F08A33D1F7F901819126
:104CF0004E175F0759F490ED980F923038F490E01A
:104D0000C0972E5F3F4F2D933C9308958FEF9FEFF9
:104D100008958091112B90E008950097C9F0DC016F
:104D2000ED91FC911197309799F02081222381F029
:104D30002681378112968D919C91139728173907F8
:104D400039F481810E94543780FD02C080E00895CB
:104D500089E008954F925F926F927F92AF92BF92D7
:104D6000CF92DF92EF92FF920F931F93CF93DF9337
:104D7000EC018C81882309F445C04EA45FA468A887
:104D800079A86E0182E3C80ED11C01E010E0A301F6
:104D90009201B60189810E94A637811131C01C821F
:104DA0008AA19BA1ACA1BDA1B301A201481B590BD3
:104DB0006A0B7B0B8A8D9B8DAC8DBD8D4817590777
:104DC0006A077B07F8F4AB80B12CE12CF12CC5010C
:104DD0008E199F090297B0F08A8D9B8DAC8DBD8D89
:104DE000480E591E6A1E7B1E01E010E0A3019201CD
:104DF000B60189810E94A6378FEFE81AF80AE7CF3B
:104E000081E001C080E0DF91CF911F910F91FF9071
:104E1000EF90DF90CF90BF90AF907F906F905F90BA
:104E20004F900895EF92FF920F931F93CF93DF93CC
:104E3000EC0190DF982F811159C08881833009F0EF
:104E40004BC08D81813009F047C040E052E060E006
:104E500070E07E0182E3E80EF11CC7012FDF85E5DB
:104E60009AEAFE01E05DFD4F8083918382E592E541
:104E7000A1E6B1E48AAB9BABACABBDAB82E792E7FA
:104E8000A1E4B1E67A9780839183A283B3838E8570
:104E90009F85A889B989349680839183A283B3833F
:104EA0008A859B85AC85BD85349680839183A2835A
:104EB000B3832E8D3F8D48A159A12F5F3F4F4F4F98
:104EC0005F4F2EA73FA748AB59AB01E010E0B701F9
:104ED00089810E94A6371D8240E050E060E0898110
:104EE0000E941A3891E0811101C090E0892FDF9172
:104EF000CF911F910F91FF90EF900895BF92CF92A5
:104F0000DF92EF92FF920F931F93CF93DF93EC0109
:104F10006A017B018EA59FA5A8A9B9A948175907C1
:104F20006A077B07E1F0CE0115DFB82E811118C0AA
:104F300001E010E0A7019601BE016E5C7F4F898100
:104F40000E945B37882331F0BB24B394CC24CA94ED
:104F5000DC2C7601CEA6DFA6E8AAF9AA01C0B12C06
:104F60008B2DDF91CF911F910F91FF90EF90DF90EC
:104F7000CF90BF9008950F931F93CF93DF93EC01D1
:104F80001C820FEF1FEF98010EA71FA728AB39ABAC
:104F9000B5DF811122C0FE01E05DFD4F808191816E
:104FA00085359A4AE1F4E85CF140408151816281A3
:104FB00073817727463451446445710591F0CC578D
:104FC000DF4F488159816A817B81772781E04634B0
:104FD00051446445710531F404C083E003C082E0AC
:104FE00001C080E0DF91CF911F910F9108952F9222
:104FF0003F924F925F926F927F928F929F92AF9269
:10500000BF92CF92DF92EF92FF920F931F93CF93B5
:10501000DF93CDB7DEB76D97CDBFDEBF6C01CB019F
:10502000B42ED6011D921C9253DE7C0197FD23C243
:10503000FC01EE0FFF1FEC5EF44D008111810115A4
:10504000110509F41AC2F60100831183D8018C916D
:10505000882361F011968C910E94543780FD06C020
:10506000BB2009F40CC282FD0EC209C2F8011082F5
:10507000E1828E2D0E946E3680FD03C2BB2011F0AE
:1050800082FD01C240E050E0BA01C80174DF813006
:1050900009F03FC0FE01319620E030E0C801820FE8
:1050A000931FDC01AC50BE4F4C91442339F0149651
:1050B0008D919D910D90BC91A02D03C080E090E05A
:1050C000DC0181939193A193B193205F3F4F2034F2
:1050D000310521F76E01F1E1CF0ED11C9E012F5F4A
:1050E0003F4F7901D7014D905D906D907D907D018E
:1050F000411451046104710439F0B301A201C801E3
:105100003ADF811102C00FC082E0EC14FD0451F7B8
:1051100003C0412C512C3201833009F4B6C18823DD
:1051200011F08DE0B3C1F80185AD96AD81159240C7
:10513000C1F7F801E85BFF4FC080D180E12CF12C72
:10514000C114D104E104F10429F43E96C080D18059
:10515000E280F380D8015A96CD92DD92ED92FC92D6
:105160005D97F801EE5BFF4FA081F801A3838FEFFD
:105170008A0F8230B0F6F7ADF98B2F2FF80122831A
:10518000222379F230E0C901019782239323892BEE
:1051900041F6F801ED5BFF4F20803180F801208659
:1051A0003186C1018F709927892B09F0BACFEB5B4B
:1051B000FF4F80809180A12CB12C81149104A10417
:1051C000B10429F43D9680809180A280B380F801DB
:1051D000E05CFF4F0190F081E02D309709F4A1CF02
:1051E000B0E0A70196010E941C536E8B7F8B888FC5
:1051F000998F9F0140E050E02A8F3B8F4C8F5D8F4D
:10520000C10164E0969587956A95E1F7280F391FEB
:10521000411D511D8E899F89A88DB98D280F391F79
:105220004A1F5B1F2A8B3B8B4C8B5D8B8216930630
:10523000A406B50608F475CFC501B401621B730B53
:10524000840B950BE9892E2F30E040E050E00E945E
:10525000E552211531054105510509F462CF263F7C
:10526000FFE03F074105510548F0263F8FEF380723
:105270004105510530F492E0998B05C0A1E0A98B5E
:1052800002C0B3E0B98B49015A01E2E08E0E911CD5
:10529000A11CB11CD80156968D929D92AD92BC92E4
:1052A0005997F801468E578E60A271A28A8D9B8D08
:1052B000AC8DBD8D840D951DA61DB71D82A393A336
:1052C000A4A3B5A34A895B896C897D89440D551DCA
:1052D000661D771D42A753A764A775A7F989F33008
:1052E000C9F4232809F01DCFF801E25AFF4F80814D
:1052F0009181A281B381F80186A397A3A0A7B1A74A
:10530000C501B40152E0660F771F881F991F5A9597
:10531000D1F72DC0232809F404CF2E893F89488D69
:10532000598D820F931FA41FB51FF80186A397A361
:10533000A0A7B1A7F989F23039F4C501B401660F0D
:10534000771F881F991F13C0A3E0B0E0A501940147
:105350000E941C53969587957795679521E0822248
:105360009924AA24BB24680D791D8A1D9B1DDC018C
:10537000CB0181509E4FAF4FBF4F29E0B695A79507
:10538000979587952A95D1F7C816D906EA06FB06A0
:1053900008F4C7CE8FEF9FEFDC01F801868797876F
:1053A000A08BB18B82879387A487B58780E885839C
:1053B000F989F33009F048C0F801EE59FF4F8081B8
:1053C0009181019709F040C0B301A2014F5F5F4F87
:1053D0006F4F7F4FC80192DD811136C0D8011596FD
:1053E0001C92F801E05DFD4F8081918185359A4ADC
:1053F00059F5F80182A993A9A4A9B5A982359245C6
:10540000A146B14409F5F801EA5EFD4F8081918122
:10541000A281B38182379247A144B146A9F4349660
:1054200080819181A281B381F80186879787A08BC3
:10543000B18BE25EFD4F80819181A281B381F80141
:1054400082879387A487B587E989D801EC938091F7
:10545000122B9091132B01968093122B9093132B68
:1054600016968D939C93179752961D921D921D929E
:105470001C92559704C08BE009C08CE007C080E007
:1054800005C083E003C08AE001C081E06D96CDBF16
:10549000DEBFDF91CF911F910F91FF90EF90DF90D2
:1054A000CF90BF90AF909F908F907F906F905F90C4
:1054B0004F903F902F9008950F931F93FC014250FF
:1054C00051096109710906891789208D318D0250B2
:1054D000110921093109401751076207730778F450
:1054E000A281B0E09A01AB010E941C5302A513A552
:1054F00024A535A5600F711F821F931F03C060E0B4
:1055000070E0CB011F910F910895AF92BF92CF929F
:10551000DF92EF92FF920F931F93CF93DF93EC01F3
:105520006A017B01423051056105710508F4A2C092
:105530008E899F89A88DB98D481759076A077B07FF
:1055400008F098C08881823009F449C0833009F49A
:1055500068C0813009F08EC05A01B694A794A40E99
:10556000B51EC501892F992786954AA15BA16CA11B
:105570007DA1480F591F611D711DCE01BFDC88231D
:1055800021F06FEF7FEFCB0179C085010F5F1F4FD7
:10559000F501F170EC0FFD1FB2A8C801892F992702
:1055A00086954AA15BA16CA17DA1480F591F611D81
:1055B000711DCE01A3DC8111E4CFF801F170EC0F75
:1055C000FD1F82A96B2D70E0782BC0FE06C0C4E0E1
:1055D00076956795CA95E1F721C07F701FC0452F6A
:1055E000562F672F77278AA19BA1ACA1BDA1480F99
:1055F000591F6A1F7B1FCE0181DC8111C2CFCC0CE9
:10560000DD1CEE1CFF1CE894C0F881E0D822EE24DB
:10561000FF24FE01EC0DFD1D62A973A980E090E05E
:105620002DC0F7E07695679557954795FA95D1F790
:105630008AA19BA1ACA1BDA1480F591F6A1F7B1F66
:10564000CE015CDC81119DCFE2E0CC0CDD1CEE1CB8
:10565000FF1CEA95D1F78CEFC82281E0D822EE2416
:10566000FF24FE01EC0DFD1D62A973A984A995A973
:105670009F7004C061E070E080E090E0DF91CF9126
:105680001F910F91FF90EF90DF90CF90BF90AF9060
:105690000895AF92BF92CF92DF92EF92FF920F9355
:1056A0001F93CF93DF93EC018B016C837D83CE80BE
:1056B000DF80E884F98481E0C816D104E104F104B4
:1056C00011F482E080C0E881F98186899789A08DF4
:1056D000B18DC816D906EA06FB0698F7C114D104A5
:1056E000E104F104B9F48081833041F486A197A1EB
:1056F000A0A5B1A50097A105B10551F480859185BC
:1057000008171907F0F666A177A180A591A52FC00B
:105710006C017D01A28080E1A89E50011124888146
:105720009981B701A6010A151B0500F1EEDE6B0198
:105730007C018FEFC816D806E806F80609F442C0C7
:1057400082E0C816D104E104F10408F4BACFE8817C
:10575000F98186899789A08DB18DC816D906EA0688
:10576000FB0608F0AECF0A191B09D9CFA5DECA8601
:10577000DB86EC86FD86611571058105910509F4CE
:10578000A0CF980154E0369527955A95E1F7DC01B2
:10579000CB01820F931FA11DB11D8E879F87A88B00
:1057A000B98B0F70112765E0000F111F6A95E1F7A3
:1057B0000E5C1F4F88819981800F911F8A8B9B8B74
:1057C00080E001C081E0DF91CF911F910F91FF90A8
:1057D000EF90DF90CF90BF90AF9008954F925F927F
:1057E0006F927F928F929F92AF92BF92CF92DF92F1
:1057F000EF92FF920F931F93CF93DF93EC016A0117
:105800007B0128013901423051056105710508F419
:10581000C5C08E899F89A88DB98D481759076A0719
:105820007B0708F0BBC08881823009F45FC08330F9
:1058300009F47DC0813009F0B1C05A01B694A79433
:10584000A40EB51EC501892F992786954AA15BA193
:105850006CA17DA1480F591F611D711DCE014EDB4A
:1058600081119DC085010F5F1F4FF501F170EC0F95
:10587000FD1F4601570181E088229924AA24BB24F8
:10588000C0FE08C022A92F7030E1439EC001112440
:10589000282B01C0242D22AB81E08C834AA15BA17F
:1058A0006CA17DA1C801892F99278695480F591FA2
:1058B000611D711DCE0122DB811171C0F801F170F3
:1058C000EC0FFD1F89288A288B2849F0B4E07694D4
:1058D000679457944794BA95D1F7942D05C092A92F
:1058E000907F252D2F70922B92AB55C0452F562FB0
:1058F000672F77278AA19BA1ACA1BDA1480F591F93
:105900006A1F7B1FCE01FADA811149C0CC0CDD1C65
:10591000EE1CFF1CE894C0F891E0D922EE24FF248D
:10592000F601F296EC0FFD1F4082518234C0E7E091
:105930007695679557954795EA95D1F78AA19BA1EA
:10594000ACA1BDA1480F591F6A1F7B1FCE01D6DA3B
:10595000811125C072E0CC0CDD1CEE1CFF1C7A9579
:10596000D1F73CEFC32231E0D322EE24FF24F6012D
:10597000F296EC0FFD1F40815181628173814427B3
:1059800055276627707F4429552966297729408342
:1059900051836283738391E09C8301C082E0DF9135
:1059A000CF911F910F91FF90EF90DF90CF90BF901C
:1059B000AF909F908F907F906F905F904F900895E1
:1059C0004F925F926F927F928F929F92AF92BF920F
:1059D000CF92DF92EF92FF920F931F93CF93DF93BB
:1059E000EC012A013B01411551056105710599F44E
:1059F0008A849B84AC84BD8481149104A104B10485
:105A000049F14E895F89688D798D84169506A606C1
:105A1000B70600F523C079DD623071058105910577
:105A200008F492C06F3F2FEF72078207920729F4A4
:105A30004FEF3FEF2FEF9FEF8CC0CE88DF88E88CD1
:105A4000F98C6C157D058E059F0508F47FC0530108
:105A5000420104C0812C912C54018394750164018E
:105A60008FEFC81AD80AE80AF80A4E895F89688D4C
:105A7000798DC416D506E606F70680F022E0821678
:105A80009104A104B10428F440E030E020E090E06B
:105A900060C052E0C52ED12CE12CF12CB701A6013B
:105AA000CE0133DD611571058105910599F06F3FD8
:105AB0002FEF72078207920709F4BACF61307105A0
:105AC0008105910509F440C0C814D904EA04FB0417
:105AD00039F6DACF0FEF1FEF2FEF3FE0B701A60146
