:100000007BC3000098C3000096C3000094C30000A7
:1000100092C3000090C300008EC300008CC3000098
:100020008AC3000088C300000C94090D84C300003B
:1000300082C3000080C300000C944D107CC30000FC
:100040007AC3000078C3000076C3000074C30000C8
:100050000C941C1170C300006EC300006CC3000040
:100060006AC3000068C3000066C3000064C30000E8
:1000700062C3000060C300005EC300005CC30000F8
:100080005AC3000058C300000C94050C54C3000070
:1000900052C3000050C300004EC300004CC3000018
:1000A0004AC3000048C3000046C3000044C3000028
:1000B00042C3000040C300003EC300003CC3000038
:1000C0003AC3000038C3000036C3000034C3000048
:1000D00032C3000030C300002EC300002CC3000058
:1000E0002AC3000028C3000026C3000024C3000068
:1000F00022C3000020C300001EC300001CC3000078
:100100001AC3000018C300000C94B40B14C3000001
:1001100012C3000010C300000EC300000CC3000097
:100120000AC3000008C3000006C3000004C30000A7
:1001300002C3000000C30000FEC20000FCC20000B9
:10014000FAC20000F8C20000F6C20000F4C20000CB
:10015000F2C20000F0C20000EEC20000ECC20000DB
:10016000FFC20000E8C20000E6C20000E4C20000D6
:10017000E2C20000E0C20000DEC20000DCC20000FB
:10018000DAC20000D8C20000D6C20000D4C200000B
:10019000D2C20000D0C20000CEC20000CCC200001B
:1001A000CAC20000C8C20000C6C20000C4C200002B
:1001B000C2C20000C0C20000BEC20000BCC200003B
:1001C000BAC20000B8C20000B6C20000B4C200004B
:1001D000B2C20000B0C20000AEC20000ACC200005B
:1001E000AAC20000A8C20000A6C20000A4C200006B
:1001F000A2C20000A0C200009EC2000000000000D9
:10020000003E5B4F5B3E3E6B4F6B3E1C3E7C3E1C9C
:10021000183C7E3C181C577D571C1C5E7F5E1C00E2
:10022000183C1800FFE7C3E7FF0018241800FFE799
:10023000DBE7FF30483A060E2629792926407F055C
:100240000507407F05253F5A3CE73C5A7F3E1C1C72
:1002500008081C1C3E7F14227F22145F5F005F5F32
:1002600006097F017F006689956A6060606060941E
:10027000A2FFA29408047E040810207E2010080823
:100280002A1C08081C2A08081E101010100C1E0C2E
:100290001E0C30383E3830060E3E0E0600000000C0
:1002A0000000005F00000007000700147F147F14A7
:1002B000242A7F2A122313086462364956205000EC
:1002C00008070300001C2241000041221C002A1CD8
:1002D0007F1C2A08083E08080080703000080808C3
:1002E0000808000060600020100804023E514945E3
:1002F0003E00427F400072494949462141494D3301
:100300001814127F1027454545393C4A4949314167
:10031000211109073649494936464949291E000035
:10032000140000004034000000081422411414148A
:100330001414004122140802015909063E415D5976
:100340004E7C1211127C7F494949363E414141227F
:100350007F4141413E7F494949417F090909013EA9
:10036000414151737F0808087F00417F41002040D0
:10037000413F017F081422417F404040407F021CE2
:10038000027F7F0408107F3E4141413E7F090909F9
:10039000063E4151215E7F091929462649494932C5
:1003A00003017F01033F4040403F1F2040201F3F8B
:1003B0004038403F63140814630304780403615910
:1003C000494D43007F414141020408102000414152
:1003D000417F0402010204404040404000030708FE
:1003E0000020545478407F284444383844444428FA
:1003F000384444287F385454541800087E090218A1
:10040000A4A49C787F0804047800447D4000204028
:10041000403D007F1028440000417F40007C04786C
:1004200004787C080404783844444438FC182424B4
:100430001818242418FC7C08040408485454542434
:1004400004043F44243C4040207C1C2040201C3CB1
:100450004030403C44281028444C9090907C4464A8
:10046000544C44000836410000007700000041363B
:10047000080002010204023C2623263C1EA1A161C1
:10048000123A4040207A38545455592155557941F3
:100490002154547841215554784020545579400CCA
:1004A0001E527212395555555939545454593955AB
:1004B0005454580000457C410002457D42000145EE
:1004C0007C40F0292429F0F0282528F07C5455455B
:1004D000002054547C547C0A097F493249494932EE
:1004E0003248484832324A4848303A4141217A3A03
:1004F00042402078009DA0A07D39444444393D40CD
:1005000040403D3C24FF2424487E4943662B2FFC79
:100510002F2BFF0929F620C0887E09032054547927
:10052000410000447D413048484A32384040227AF8
:10053000007A0A0A727D0D19317D2629292F282675
:100540002929292630484D4020380808080808087D
:100550000808382F10C8ACBA2F102834FA00007BD6
:10056000000008142A142222142A1408AA00550094
:10057000AAAA55AA55AA000000FF00101010FF00FB
:10058000141414FF001010FF00FF1010F010F014EE
:100590001414FC001414F700FF0000FF00FF1414F3
:1005A000F404FC141417101F10101F101F1414143F
:1005B0001F00101010F0000000001F101010101F7E
:1005C00010101010F010000000FF1010101010108C
:1005D000101010FF10000000FF140000FF00FF00CB
:1005E000001F10170000FC04F41414171017141443
:1005F000F404F40000FF00F714141414141414F796
:1006000000F7141414171410101F101F141414F4EE
:10061000141010F010F000001F101F0000001F1435
:10062000000000FC140000F010F01010FF10FF1488
:100630001414FF141010101F00000000F010FFFF32
:10064000FFFFFFF0F0F0F0F0FFFFFF000000000000
:10065000FFFF0F0F0F0F0F38444438447C2A2A3E07
:10066000147E02020606027E027E02635549416341
:100670003844443C04407E201E2006027E0202993B
:10068000A5E7A5991C2A492A1C4C7201724C304AD4
:100690004D4D303048784830BC625A463D3E49495D
:1006A00049007E0101017E2A2A2A2A2A44445F4405
:1006B0004440514A444040444A51400000FF010335
:1006C000E080FF000008086B6B08361236243606FF
:1006D0000F090F060000181800000010100030402D
:1006E000FF0101001F01011E00191D1712003C3CF3
:1006F0003C3C00000000000011241FBECFEFCDBF26
:10070000DFE2DEBF15E2A0E0B0E2E6ECFCE200E0F2
:100710000BBF02C007900D92A23DB107D9F727E2A7
:10072000A2EDB5E201C01D92A836B207E1F70E9422
:10073000E2100C94611664CC80915000826080932A
:1007400050008091510081FFFCCF88ED84BF81E093
:1007500080934000089580E2E0E6F6E08683089505
:100760001F920F920FB60F9211240BB60F922F9378
:100770003F934F935F936F937F938F939F93AF9329
:10078000BF93EF93FF934091A0094A3011F18091FC
:100790009A2690919B269C012F5F3F4F20939A268B
:1007A00030939B26FC01EE52FA4D4083FF91EF916E
:1007B000BF91AF919F918F917F916F915F914F9179
:1007C0003F912F910F900BBE0F900FBE0F901F9077
:1007D000189560E675E282ED95E20E946413892B1C
:1007E00079F081E0809315276BE770E082ED95E268
:1007F0000E944A13892B79F081E080939D26D6CF01
:1008000063E675E282ED95E20E946413892B79F02C
:1008100010921527E9CF10929A2610929B2688EC09
:10082000E2EDF5E2DF011D928A95E9F7BFCF69E6B7
:1008300075E282ED95E20E946413892B21F083E03A
:1008400080931527D1CF61E775E282ED95E20E9492
:100850006413892B21F085E080931527C5CF68E7C5
:1008600075E282ED95E20E946413892B71F062E2D9
:1008700070E082ED95E20E944A1343E150E0BC0132
:1008800080ED96E20E945513AFCF6CE775E282EDE2
:1008900095E20E946413892B09F4A6CF81E080932E
:1008A0009C2642E350E062ED75E283EE96E20E9400
:1008B00055139ACF41E0409381064093850624E08A
:1008C000209381062093850638E03093810640937B
:1008D0008606309381062093860630938506209302
:1008E00085062093860630938606209385062093FE
:1008F00086063093860620938506209386063093DD
:1009000086062093850620938606309386062093DC
:1009100085062093860630938606209385062093CD
:1009200086063093860620938506209386063093AC
:1009300086062093850620938606309386062093AC
:10094000850620938606309386062093850620939D
:10095000860630938506209385062093860630937D
:10096000860620938506309386064093850640933D
:100970008606309381062093860630938506209361
:10098000850620938606309386062093850620935D
:10099000860630938606209385062093860630933C
:1009A000860620938506209386063093860620933C
:1009B000850620938606309386062093850620932D
:1009C000860630938606209385062093860630930C
:1009D000860620938506209386063093860620930C
:1009E00085062093860630938506209385062093FE
:1009F00086063093850620938506209386063093DD
:100A0000860620938506309386064093850640939C
:100A100086063093810620938606309385062093C0
:100A200085062093860630938606209385062093BC
:100A3000860630938606209385062093860630939B
:100A4000860620938506209386063093860620939B
:100A5000850620938606309386062093850620938C
:100A6000860630938606209385062093860630936B
:100A7000850620938506209386063093860620936C
:100A8000850620938606309386062093850620935C
:100A9000860630938606209385062093860630933B
:100AA00086062093850630938606409385064093FC
:100AB0008606309381062093860630938506209320
:100AC000850620938606309386062093850620931C
:100AD00086063093860620938506209386063093FB
:100AE00086062093850620938606309386062093FB
:100AF00085062093860630938606209385062093EC
:100B000086063093850620938506209386063093CB
:100B100086062093850620938606309385062093CB
:100B200085062093860630938606209385062093BB
:100B3000860630938606209385062093860630939A
:100B4000860620938506309386064093850640935B
:100B5000860630938106209386063093850620937F
:100B6000850620938606309386062093850620937B
:100B7000860630938606209385062093860630935A
:100B8000860620938506209386063093860620935A
:100B9000850620938606309386062093850620934B
:100BA000860630938506209385062093860630932B
:100BB000850620938506209386063093860620932B
:100BC000850620938606309386062093850620931B
:100BD00086063093860620938506209386063093FA
:100BE000860620938506309386064093850690E01E
:100BF0009460880F991F4093860630938106209356
:100C000086063093850620938506209386063093CA
:100C100086062093850620938606309386062093C9
:100C200085062093860690FDE7C03093860624E073
:100C3000209385062093860628E087FD9EC020939A
:100C4000860624E0209385062093860628E086FD0C
:100C50009EC02093860624E0209385062093860676
:100C600028E085FD9EC02093860624E0209385061B
:100C70002093860628E084FD9EC02093860624E00B
:100C8000209385062093860628E083FD9EC020934E
:100C9000860624E0209385062093860628E082FDC0
:100CA0009EC02093860694E09093850690938606D6
:100CB00081FD9EC088E08093860684E0809385064F
:100CC0008093860698E0909386068093850690939D
:100CD000860621E020938506209386069093810660
:100CE000809386069093850680938506809386067A
:100CF0009093860680938506809386069093860659
:100D0000809385068093860690938506809385065A
:100D10008093860690938606809385068093860648
:100D20009093850680938506809386069093860629
:100D30008093850680938606909386068093850629
:100D40008093860690938606809385068093860618
:100D500090938606809385068093860690938506F9
:100D600080938506809386069093860680938506F9
:100D7000909386062093850608952093850624E0A7
:100D8000209385062093860628E086FF62CF209375
:100D9000850624E0209385062093860628E085FFBB
:100DA00062CF2093850624E0209385062093860653
:100DB00028E084FF62CF2093850624E020938506F7
:100DC0002093860628E083FF62CF2093850624E0E7
:100DD000209385062093860628E082FF62CF209329
:100DE000850694E0909385069093860681FF62CFF6
:100DF00088E08093850661CF3093850624E02093B8
:100E000085062093860628E087FDB7CF18CF80316E
:100E100008F08FE0806A90E09460880F991F21E0CD
:100E20002093860638E03093810624E020938606DE
:100E30003093850620938506209386063093860698
:100E40002093850620938606309386062093850698
:100E50002093860630938506209385062093860688
:100E60003093860620938506209386063093850668
:100E70002093850620938606309386062093850668
:100E80002093860684FD47C03093860624E0209395
:100E900085062093860628E083FD26C020938606DB
:100EA00024E0209385062093860628E082FD26C054
:100EB0002093860694E0909385069093860681FDA4
:100EC00026C088E08093860684E080938506809320
:100ED000860698E090938606809385069093860612
:100EE00081E08093850608952093850624E0209371
:100EF00085062093860628E082FFDACF20938506B8
:100F000094E0909385069093860681FFDACF88E07F
:100F100080938506D9CF3093850624E020938506FB
:100F20002093860628E083FDDFCFB8CF5F926F92D3
:100F30007F928F929F92AF92BF92CF92DF92EF9269
:100F4000FF920F931F93CF93DF93182F562EE82F06
:100F5000F0E07F01E40EF11CEE15FF0594F5C62FBD
:100F6000D0E0BE01620F711D9B01BFE08B2E912C62
:100F700088E1A82EB12CCC24C394D12CC217D3075E
:100F8000D4F4AF01440F551F3A017FE0671A71088E
:100F9000E830F1050CF43A01660C771C660C771CFE
:100FA000660C771C7097ECF0452D4F5F842F90E016
:100FB00082179307D4F31F5FE12FF0E0EE15FF05D2
:100FC000ECF2DF91CF911F910F91FF90EF90DF90A6
:100FD000CF90BF90AF909F908F907F906F905F90D9
:100FE0000895CE01452D002339F069C04F5F842F4D
:100FF00090E082179307FCF680319105BCF7F4016D
:10100000E81BF90BCF01B5010E941413883091053C
:101010000CF459C0803191050CF05EC067E870E0B7
:1010200087709927FB01E81BF90BCF01860D971DEF
:10103000FC01F695E795F695E795F695E795E25666
:10104000F94D87709927B60102C0660F771F8A9500
:10105000E2F7CB018095908189238083C7CFF4018B
:10106000E81BF90BCF01B5010E94141388309105DC
:101070006CF567E070E087709927FB01E81BF90BBE
:10108000CF01860D971DFC01F695E795F695E7953E
:10109000F695E795E256F94D87709927B60102C09B
:1010A000660F771F8A95E2F7CB019081982B90838A
:1010B0004F5F842F90E0821793070CF07CCF803134
:1010C0009105B4F7CCCF67E070E0AACF80319105ED
:1010D00034F467E870E0CFCF67E071E0A1CF67E05C
:1010E00071E0C9CF81E08093860698E090938106F5
:1010F00084E080938606909385068093850680938E
:101100008606909386068093850680938606909344
:10111000850680938506909386069093810680933A
:101120008606909386068093850680938606909324
:101130008606809385068093860690938606809324
:101140008506809386069093860680938506809315
:1011500086069093860680938506809386069093F4
:1011600086068093850680938606909386068093F4
:10117000850690938606EFE9F6E238E024E07CC02D
:1011800030938606209385062093860695FD92C0AF
:1011900030938606209385062093860694FD92C0A0
:1011A00030938606209385062093860693FD92C091
:1011B00030938606209385062093860692FD92C082
:1011C00030938606209385062093860691FD92C073
:1011D00030938606209385062093860690FD92C064
:1011E00030938606209385062093860687FD92C05D
:1011F00030938606209385062093860686FD92C04E
:1012000030938606209385062093860685FD92C03E
:1012100030938606209385062093860684FD92C02F
:1012200030938606209385062093860683FD92C020
:1012300030938606209385062093860682FD92C011
:1012400030938606209385062093860681FD92C002
:1012500030938606209385062093860680FD92C0F3
:10126000309386062093850630938606329686E272
:10127000EF3BF80709F48CC0DF0111978C9190E0E7
:10128000982F88274081842B3093810620938606EF
:1012900097FD7BC0309386062093850620938606B3
:1012A00096FF6ECF309385062093850620938606A1
:1012B00095FF6ECF30938506209385062093860692
:1012C00094FF6ECF30938506209385062093860683
:1012D00093FF6ECF30938506209385062093860674
:1012E00092FF6ECF30938506209385062093860665
:1012F00091FF6ECF30938506209385062093860656
:1013000090FF6ECF30938506209385062093860646
:1013100087FF6ECF3093850620938506209386063F
:1013200086FF6ECF30938506209385062093860630
:1013300085FF6ECF30938506209385062093860621
:1013400084FF6ECF30938506209385062093860612
:1013500083FF6ECF30938506209385062093860603
:1013600082FF6ECF309385062093850620938606F4
:1013700081FF6ECF309385062093850620938606E5
:1013800080FF6ECF309385066DCF3093850684CF76
:1013900081E080938506089580E2EEE9F6E2DF01C0
:1013A0001D928A95E9F79ECE2F923F924F925F92BF
:1013B0006F927F928F929F92AF92BF92CF92DF9265
:1013C000EF92FF920F931F93CF93DF93CDB7DEB7CA
:1013D0006A97CDBFDEBF6B837C832A83602E55E086
:1013E000459F9001112424503E4F2A873B878D83CF
:1013F0009E83880F991F8C879D872D813E812B5F4F
:101400003F4F2D8B3E8B302F330F330F330F301B5D
:10141000360F388B4D814987202F30E02E873F874C
:10142000AB01495F5F4F4F8B588F29E030E0261B9F
:10143000370B298B3A8B0FE0202E312C88E1C82EF8
:10144000D12C44244394512C6982EA85FB85649015
:101450002D813E818C859D85283031050CF00F97BC
:10146000AC01440F551F440F551F440F551F4B8BA4
:101470005C8BF985EF2FF0E0EF83F8877F012E85F5
:101480003F85E20EF31EA988BA880F89188D7888E7
:1014900017C04D815E814031510520F401311105A5
:1014A0000CF4FEC066947FEFA71AB70A0150110929
:1014B0002981721A4B815C810417150709F4BDC09C
:1014C00060FEF0CF3981313021F3EF81F885EE15E0
:1014D000FF0544F7CF01E72DF0E02E853F852E0F65
:1014E0003F1F8984E217F307CCF4AC01440F551F6A
:1014F000BA016F507109883091050CF0AB01440FAF
:10150000551F440F551F440F551F409774F0472D2A
:101510004F5F842F90E082179307D4F38394882D34
:1015200090E08E159F05F4F2BDCF6A81972CCF0114
:10153000498F5A8F662339F06DC09394892D90E0BE
:10154000821793075CF780319105BCF7D101A81B86
:10155000B90BCD01B6010E941413883091050CF42B
:101560005DC0803191050CF062C047E850E08770A3
:101570009927BA01681B790BCB01498D5A8D840FCD
:10158000951FDC01B695A795B695A795B695A79535
:10159000A256B94D87709927B20102C0660F771F16
:1015A0008A95E2F7CB0180959C9198239C93C5CFB7
:1015B000D101A81BB90BCD01B6010E9414138830CC
:1015C00091057CF547E050E087709927BA01681BC8
:1015D000790BCB01498D5A8D840F951FDC01B6958F
:1015E000A795B695A795B695A795A256B94D8770BC
:1015F0009927B20102C0660F771F8A95E2F7CB01E7
:101600009C91982B9C939394892D90E0821793073B
:101610000CF084CF80319105B4F7CACF47E050E099
:10162000A6CF8031910534F447E850E0CDCF47E0B4
:1016300051E09DCF47E051E0C7CFEA85FB85319669
:10164000EA87FB872D813E812F5F3F4F2D833E83AD
:101650004C855D854E5F5F4F4C875D87898529810D
:10166000820F4D815E812D893E894217530711F00B
:101670008987EBCE6A96CDBFDEBFDF91CF911F91F8
:101680000F91FF90EF90DF90CF90BF90AF909F9021
:101690008F907F906F905F904F903F902F90089524
:1016A000C501B601C1D78830910574F0803191052C
:1016B0009CF527E830E08770907897FF0BC0019782
:1016C000886F9F6F019606C027E030E087709078A2
:1016D00097FDF5CFB901681B790BCB01EB89FC892C
:1016E0008E0F9F1F2A81FC01F695E795F695E795E9
:1016F000F695E795E256F94D8770992721110FC0AD
:10170000B20102C0660F771F8A95E2F7CB01809580
:10171000908189238083C6CE27E031E0D7CFA20114
:1017200002C0440F551F8A95E2F7CA019081982B99
:101730009083B8CEE0E0F6E020EE2283A0E2B6E0AF
:1017400091E012969C93129782E0858B868B878B13
:1017500050968C93509722871A969C931A9783E001
:10176000818719968C9308951F920F920FB60F924E
:1017700011240BB60F922F933F934F935F936F9368
:101780007F938F939F93AF93BF93EF93FF9380913A
:10179000080685FF28C08091080686FF1EC080913C
:1017A000080687FD26C08091280390E07DD583E060
:1017B00080931627FF91EF91BF91AF919F918F91E9
:1017C0007F916F915F914F913F912F910F900BBE41
:1017D0000F900FBE0F901F9018958091290390E0F5
:1017E00063D582E0E5CF8091290390E05DD581E06B
:1017F000DFCF8091280680FF02C080E0D9CF8091A2
:10180000280390E051D584E0D3CF1F920F920FB6FA
:101810000F9211240BB60F922F933F934F935F9328
:101820006F937F938F939F93AF93BF93EF93FF93A8
:101830008091080685FF28C08091080686FF1EC09B
:101840008091080687FD26C08091280390E02CD562
:1018500083E080931627FF91EF91BF91AF919F9105
:101860008F917F916F915F914F913F912F910F9049
:101870000BBE0F900FBE0F901F90189580912903FB
:1018800090E012D582E0E5CF8091290390E00CD55D
:1018900081E0DFCF8091280680FF02C080E0D9CFB1
:1018A0008091280390E000D584E0D3CF88ED84BFF9
:1018B0008BE0809343008091010480FDFCCF80E0A9
:1018C00090E880930A0490930B0482E080930204D2
:1018D000109208041092090410920C0410920D0446
:1018E00081E0809300040895EF92FF920F931F937D
:1018F000CF93DF9300D01F92CDB7DEB7F8948093DB
:101900001727609318274093192720931A2730939D
:101910001B2700931D2710931E271F926F9381E8AA
:1019200095E29F938F93CE0101967C01FF928F9356
:101930006B8311D70F900F900F900F900F900F9017
:101940006B816A3020F4898190E399838A8300E077
:1019500010E028E030E040E150E060E070E080E03E
:1019600090E0E4DA498150E001E010E021E030E06D
:1019700060E070E082E090E017DD4A8150E021E015
:1019800030E060E070E089E090E00EDDABDB1091CC
:1019900019271F921F9381E895E29F938F93FF92DF
:1019A000EF92D9D60F900F900F900F900F900F904D
:1019B0001A3020F4898190E399838A8300E010E053
:1019C00028E030E040E150E069E070E080E090E045
:1019D000ADDA498150E001E010E021E030E069E05B
:1019E00070E082E090E0E0DC4A8150E021E030E00D
:1019F00069E070E089E090E0D7DC74DB78942396AE
:101A0000CDBFDEBFDF91CF911F910F91FF90EF907F
:101A100008951F920F920FB60F9211240BB60F92DA
:101A2000BF92CF92DF92EF92FF920F931F932F936B
:101A30003F934F935F936F937F938F939F93AF9356
:101A4000BF93EF93FF93CF93DF9300D0CDB7DEB773
:101A5000809117278F5F8C3301F1809317270F90A8
:101A60000F90DF91CF91FF91EF91BF91AF919F9137
:101A70008F917F916F915F914F913F912F911F9126
:101A80000F91FF90EF90DF90CF90BF900F900BBE23
:101A90000F900FBE0F901F9018951092172710915E
:101AA00018271F5F109318271C33C1F11F921F9333
:101AB00081E895E29F938F93CE0101969F938F9338
:101AC0004AD60F900F900F900F900F900F901A30F2
:101AD00020F4898190E399838A8300E010E028E074
:101AE00030E040E150E060E070E080E090E01EDA3D
:101AF000498150E001E010E021E030E060E070E07A
:101B000082E090E051DC4A8150E021E030E060E08A
:101B100070E089E090E048DCE5DAA1CF1092182768
:101B20001F921F9261E8C62E65E2D62EDF92CF92F9
:101B3000CE0101967C01FF928F930DD6898170E3CF
:101B4000B72EB9828A8300E010E028E030E040E15F
:101B500050E060E070E080E090E0E8D9498150E03A
:101B600001E010E021E030E060E070E082E090E031
:101B70001BDC4A8150E021E030E060E070E089E069
:101B800090E012DCAFDA109119271F5F109319272C
:101B90000F900F900F900F900F900F901831A9F1A8
:101BA0001F921F93DF92CF92FF92EF92D4D50F90A6
:101BB0000F900F900F900F900F901A3018F48981AA
:101BC000B9828A8300E010E028E030E040E150E094
:101BD00069E070E080E090E0A9D9498150E001E03F
:101BE00010E021E030E069E070E082E090E0DCDBD2
:101BF0004A8150E021E030E069E070E089E090E067
:101C0000D3DB70DA109218272ACFE0911C2740917D
:101C10001A2750911B274F5F5F4F40931A2750930D
:101C20001B279A01A3E9B4E212D5281B390B36957C
:101C30002795280F391F3695279536952795E20F5A
:101C4000E0931C278FE4E89FE12D1124E295EF70CB
:101C500080911D2790911E278E0F911D80931D2727
:101C600090931E27109219271F921F92DF92CF92F6
:101C7000FF92EF9270D58981B9828A8300E010E0EB
:101C800028E030E040E150E069E070E080E090E082
:101C90004DD9498150E001E010E021E030E069E0F9
:101CA00070E082E090E080DB4A8150E021E030E0AB
:101CB00069E070E089E090E077DB14DA0F900F9034
:101CC0000F900F900F900F909DCF0F931F93CF9376
:101CD000DF93EC0160E2CE01B2D060E2892B61F5C6
:101CE000CE01ADD08C0197FD16C002C097FD13C088
:101CF00060E3CE01A4D081309105C1F760E2CE014E
:101D00009ED08017910739F197FD05C08C01F0CF67
:101D100060E2CE0194D060E2CE0191D0892BD9F35C
:101D200060E2CE018CD00197A9F680E090E0DF91CF
:101D3000CF911F910F910895CE0181D097FDCACF09
:101D400060E3CE017CD081309105C1F740E068E1CD
:101D5000CE0158D0BFCF4BE068E1CE0153D0892BE4
:101D6000D1F617FDD5CF60E2CE0169D0081719076B
:101D7000D1F360E2CE0163D0892B69F2D1CF0F930A
:101D80001F93CF93DF938C0140E068E03BD0EC01E0
:101D9000C8019BDFC80FD91F40E068E0C80132D0FE
:101DA000C80FD91F40E064E0C8012CD0C80FD91F6C
:101DB00040E065E0C80126D0C80FD91F40E066E0CA
:101DC000C80120D0C80FD91F40E063E0C8011AD075
:101DD000C80FD91F4FEF61E2C80114D0C80FD91F37
:101DE00041E068E1C8010ED0C80FD91F44D047E1D7
:101DF00067E0C80107D08C0F9D1FDF91CF911F9125
:101E00000F910895EF920F931F93CF93DF931F923B
:101E1000CDB7DEB7262F4983EE24E3948E010F5F02
:101E20001F4F48EE6AE580E894E0E3D080E090E060
:101E30000F90DF91CF911F910F91EF900895EF9246
:101E40000F931F93CF93DF931F92CDB7DEB7262F4B
:101E5000EE24E3948E010F5F1F4F48EE6AE580E8A1
:101E600094E023D0898190E00F90DF91CF911F9172
:101E70000F91EF9008952FEF89EF90E0215080406F
:101E80009040E1F700C000000895E0E8F4E012821D
:101E900089E0858388E0818381E084830895E0E898
:101EA000F4E08181877F81830895EF920F931F93E0
:101EB000DC01762F770F16967C93169784E6489F61
:101EC000A00111244115510501F1FA010DC0392F6E
:101ED00030753035F9F0907C29F58AE68A95F1F76E
:101EE00000C03197309789F014969C911497392F40
:101EF0003874383461F716967C9316978AE68A957B
:101F0000F1F700C03197309779F714968C911497B8
:101F100085FF03C087E013968C938E2D1F910F9140
:101F2000EF90089517962C93179714969C911497F9
:101F300096FFFBCF14968C91149786FF25C01496BC
:101F40008C91149784FD20C0660F616016966C9387
:101F500016970FC0892F8075803501F1907C39F577
:101F60008AE68A95F1F700C04150510941155105A3
:101F700081F014969C911497892F8874883451F7B6
:101F800016966C931697ECCF86E01F910F91EF9009
:101F9000089514968C91149785FF04C087E01396DA
:101FA0008C93139787E013968C938E2DB7CF2FEFDA
:101FB0002E0DF80142E037E02F3FA1F314968C91EB
:101FC00014978C708C3071F314969C91149797FF32
:101FD000FBCF17968C9117978193211105C013960B
:101FE0003C9313972150E8CF13964C9313972150AD
:101FF000E3CFEF920F931F93FC01660F668384E695
:10200000489FA00111244115510581F416C0392FB4
:1020100030753035A9F0907CD1F48AE68A95F1F7D5
:1020200000C0415051094115510539F09481392FB3
:102030003874383461F76683F0CF848185FF02C03D
:1020400087E083838E2D1F910F91EF900895278352
:10205000948196FFFDCF848186FF13C0848184FD27
:1020600010C0D8018FEF8E0D8F3F41F09D91978367
:10207000948196FFFDCF948196FD08C097E09383ED
:10208000E2CF86E01F910F91EF90089594812FEF9A
:10209000280F94FDF3CF822FE7CF1F920F920FB638
:1020A0000F9211240BB60F92CF92DF92EF92FF9214
:1020B0002F933F934F935F936F937F938F939F9350
:1020C000AF93BF93EF93FF93E0916027F091612767
:1020D000309709F44DC04681578122813381A08514
:1020E000B185A20FB31F808191818130910581F06C
:1020F00008F455C0029709F05BC042305105C0F1A9
:1021000011966C916058425051092E5F3F4F08C0A4
:102110004230510568F16C91425051092E5F3F4F9A
:1021200046835783828593850197822393238283F5
:10213000938370E080E090E088D126E636E646E2C0
:102140005FE30FD26B017C0160E070E0CB017BD1DB
:1021500023E333E343EB5EE304D29B01AC01C7010D
:10216000B601DCD03FD177276093380370933903F1
:10217000FF91EF91BF91AF919F918F917F916F915F
:102180005F914F913F912F91FF90EF90DF90CF9013
:102190000F900BBE0F900FBE0F901F90189541151A
:1021A000510531F36C91415051092F5F3F4FB8CF2A
:1021B00044305105E8F211966C91445051092C5F5E
:1021C0003F4FAECF0E949C0384E20E945A0480E0FD
:1021D0000E940707E1D80E94AB0345D084E090E25B
:1021E0008093622790936327809364279093652759
:1021F00089EA95E283D287E08093A20080E894E0A8
:1022000044DE8AE590E0BBDD4ADE94DA4FDB0FED79
:1022100017E020E030E040E060E08EE165DB78949C
:1022200080914800866080934800809148008160DA
:10223000809348008895F9CF1F920F920FB60F92A6
:1022400011248F939F938091CE269091CF26019653
:102250008093CE269093CF269F918F910F900FBEA3
:102260000F901F901895E0E6F6E088E0818384E007
:102270008283E0EAF9E080E283838EE2868388E964
:10228000878383E0858388E1848308959091A10901
:1022900095FFFCCF8093A00908958091A10987FF45
:1022A000FCCF8091A0090895982F92959F70292FB7
:1022B00030E02A30310554F520E3290F9091A1092F
:1022C00095FFFCCF2093A0098F70282F30E02A3093
:1022D0003105B4F4805D9091A10995FFFCCF809306
:1022E000A0098091A10985FFFCCF8DE08093A00912
:1022F0008091A10985FFFCCF8AE08093A009089511
:10230000895C9091A10995FFFCCFE9CF27E3290FC4
:102310009091A10995FFFCCFD5CF5058BB27AA2794
:102320000ED0E5C0D6D030F0DBD020F031F49F3FA6
:1023300011F41EF4CBC00EF4E095E7FBC1C0E92F09
:10234000E7D080F3BA17620773078407950718F080
:1023500071F49EF5FFC00EF4E0950B2EBA2FA02D60
:102360000B01B90190010C01CA01A0011124FF2742
:10237000591B99F0593F50F4503E68F11A16F0403D
:10238000A22F232F342F4427585FF3CF469537953C
:102390002795A795F0405395C9F77EF41F16BA0B01
:1023A000620B730B840BBAF09150A1F0FF0FBB1FAF
:1023B000661F771F881FC2F70EC0BA0F621F731FF8
:1023C000841F48F4879577956795B795F7959E3F55
:1023D00008F0B3CF9395880F08F09927EE0F9795E3
:1023E0008795089504D06894B111B5C0089598D028
:1023F00088F09F5790F0B92F9927B751A0F0D1F0EE
:10240000660F771F881F991F1AF0BA95C9F712C077
:10241000B13081F09FD0B1E008959CC0672F782F34
:102420008827B85F39F0B93FCCF3869577956795E3
:10243000B395D9F73EF490958095709561957F4F4F
:102440008F4F9F4F0895E89409C097FB3EF49095F5
:102450008095709561957F4F8F4F9F4F9923A9F07D
:10246000F92F96E9BB279395F6958795779567950C
:10247000B795F111F8CFFAF4BB0F11F460FF1BC050
:102480006F5F7F4F8F4F9F4F16C0882311F096E9E3
:1024900011C0772321F09EE8872F762F05C0662391
:1024A00071F096E8862F70E060E02AF09A95660F4A
:1024B000771F881FDAF7880F9695879597F9089503
:1024C00097F99F6780E870E060E008959FEF80ECE7
:1024D000089500240A94161617061806090608958A
:1024E00000240A9412161306140605060895092EF0
:1024F0000394000C11F4882352F0BB0F40F4BF2B5F
:1025000011F460FF04C06F5F7F4F8F4F9F4F08959E
:1025100057FD9058440F551F59F05F3F71F0479594
:10252000880F97FB991F61F09F3F79F08795089579
:10253000121613061406551FF2CF4695F1DF08C098
:10254000161617061806991FF1CF869571056105B5
:1025500008940895E894BB2766277727CB0197F95D
:1025600008950BD0C4CFB5DF28F0BADF18F095235B
:1025700009F0A6CFABCF1124EECFCADFA0F3959F11
:10258000D1F3950F50E0551F629FF001729FBB275A
:10259000F00DB11D639FAA27F00DB11DAA1F649F06
:1025A0006627B00DA11D661F829F2227B00DA11DB9
:1025B000621F739FB00DA11D621F839FA00D611D3F
:1025C000221F749F3327A00D611D231F849F600D60
:1025D000211D822F762F6A2F11249F5750408AF099
:1025E000E1F088234AF0EE0FFF1FBB1F661F771F25
:1025F000881F91505040A9F79E3F510570F060CF61
:10260000AACF5F3FECF3983EDCF38695779567950C
:10261000B795F795E7959F5FC1F7FE2B880F911D42
:102620009695879597F9089597FB072E16F40094D1
:1026300006D077FD08D01AD007FC05D03EF490955F
:1026400081959F4F0895709561957F4F0895A29F42
:10265000B001B39FC001A39F700D811D1124911D76
:10266000B29F700D811D1124911D0895AA1BBB1BE3
:1026700051E107C0AA1FBB1FA617B70710F0A61B82
:10268000B70B881F991F5A95A9F780959095BC01A3
:10269000CD010895FC018191861721F08823D9F797
:1026A000992708953197CF010895FB01DC0141502E
:1026B000504048F001900D920020C9F701C01D92D2
:1026C00041505040E0F70895FB0151915523A9F086
:1026D000BF01DC014D9145174111E1F759F4CD01DE
:1026E0000190002049F04D9140154111C9F3FB01C3
:1026F0004111EFCF81E090E0019708950F931F9370
:10270000CF93DF93E0916427F0916527238121FF28
:102710001BC0EC0100E010E089916091642770918A
:102720006527DB011896ED91FC911997882331F00C
:102730000995892B89F30FEF1FEFEECF8AE00995FA
:10274000892B11F4C80102C08FEF9FEFDF91CF9169
:102750001F910F9108950F931F93CF93DF93CDB7E0
:10276000DEB72E97CDBFDEBF0D891E8986E08C8334
:1027700009831A838FEF9FE78D839E83AE01475EA7
:102780005F4F6F89788DCE0101960DD0EF81F8856E
:10279000E00FF11F10822E96CDBFDEBFDF91CF91EB
:1027A0001F910F9108952F923F924F925F926F92D7
:1027B0007F928F929F92AF92BF92CF92DF92EF92D1
:1027C000FF920F931F93CF93DF93CDB7DEB72C9774
:1027D000CDBFDEBF7C016B018A01FC01168217822E
:1027E000838181FFB0C1CE0101964C01F701938135
:1027F000F60193FD859193FF81916F01882309F480
:102800009EC1853239F493FD859193FF81916F01CB
:10281000853221F4B70190E0C4D1E8CF512C312C9E
:1028200020E02032A0F48B3269F030F4803259F08D
:10283000833269F420612CC08D3239F0803339F451
:10284000216026C02260246023C0286021C027FDAB
:1028500027C030ED380F3A3078F426FF06C0FAE092
:102860005F9E300D1124532E13C08AE0389E300D28
:102870001124332E20620CC08E3221F426FD5FC15C
:10288000206406C08C3611F4206802C0883641F4FA
:10289000F60193FD859193FF81916F018111C1CF65
:1028A000982F9F7D9554933028F40C5F1F4FFFE3C2
:1028B000F9830DC0833631F0833771F0833509F029
:1028C00057C021C0F801808189830E5F1F4F4424C7
:1028D0004394512C540114C03801F2E06F0E711C66
:1028E000F801A080B18026FF03C0652D70E002C012
:1028F0006FEF7FEFC5012C8749D12C0183012C8517
:102900002F77222E16C03801F2E06F0E711CF801ED
:10291000A080B18026FF03C0652D70E002C06FEF7C
:102920007FEFC5012C8727D12C012C852068222E12
:10293000830123FC19C0832D90E048165906A0F4AA
:10294000B70180E290E02DD13A94F5CFF50127FC54
:10295000859127FE81915F01B70190E022D131106E
:102960003A94F1E04F1A51084114510479F7DEC04E
:10297000843611F0893631F5F80127FF07C06081F0
:102980007181828193810C5F1F4F08C060817181CA
:10299000882777FD8095982F0E5F1F4F2F76B22ED8
:1029A00097FF09C090958095709561957F4F8F4FE7
:1029B0009F4F2068B22E2AE030E0A40124D1A82E37
:1029C000A81843C0853729F42F7EB22E2AE030E0C4
:1029D00025C0F22FF97FBF2E8F36C1F018F488354D
:1029E00079F0ADC0803719F0883721F0A8C02F2FBB
:1029F0002061B22EB4FE0DC08B2D8460B82E09C0AC
:102A000024FF0AC09F2F9660B92E06C028E030E050
:102A100005C020E130E002C020E132E0F801B7FE5D
:102A200007C060817181828193810C5F1F4F06C056
:102A30006081718180E090E00E5F1F4FA401E3D0C0
:102A4000A82EA818FB2DFF77BF2EB6FE0BC02B2D8E
:102A50002E7FA51450F4B4FE0AC0B2FC08C02B2D82
:102A60002E7E05C07A2C2B2D03C07A2C01C0752C2C
:102A700024FF0DC0FE01EA0DF11D8081803311F4A9
:102A8000297E09C022FF06C07394739404C0822F6C
:102A9000867809F0739423FD12C020FF06C05A2CDB
:102AA000731418F4530C5718732C731460F4B70193
:102AB00080E290E02C8775D073942C85F6CF731448
:102AC00010F4371801C0312C24FF11C0B70180E386
:102AD00090E02C8766D02C8522FF16C021FF03C012
:102AE00088E590E002C088E790E0B7010CC0822F33
:102AF000867851F021FD02C080E201C08BE227FD03
:102B00008DE2B70190E04DD0A51430F4B70180E319
:102B100090E047D05A94F8CFAA94F401EA0DF11D41
:102B20008081B70190E03DD0A110F6CF332009F4A9
:102B30005DCEB70180E290E034D03A94F7CFF70150
:102B40008681978102C08FEF9FEF2C96CDBFDEBFAD
:102B5000DF91CF911F910F91FF90EF90DF90CF9079
:102B6000BF90AF909F908F907F906F905F904F90AD
:102B70003F902F900895FC01059061507040011026
:102B8000D8F7809590958E0F9F1F0895FC01615096
:102B9000704001900110D8F7809590958E0F9F1F7F
:102BA00008950F931F93CF93DF93182F092FEB01F5
:102BB0008B8181FD03C08FEF9FEF20C082FF10C08B
:102BC0004E815F812C813D81421753077CF4E8815F
:102BD000F9819F012F5F3F4F28833983108306C0FF
:102BE000E885F985812F0995892B29F72E813F8169
:102BF0002F5F3F4F2E833F83812F902FDF91CF9107
:102C00001F910F910895FA01AA27283051F1203120
:102C100081F1E8946F936E7F6E5F7F4F8F4F9F4F70
:102C2000AF4FB1E03ED0B4E03CD0670F781F891FB2
:102C30009A1FA11D680F791F8A1F911DA11D6A0F80
:102C4000711D811D911DA11D20D009F468943F9133
:102C50002AE0269F11243019305D3193DEF6CF0132
:102C60000895462F4770405D4193B3E00FD0C9F7F8
:102C7000F6CF462F4F70405D4A3318F0495D31FD65
:102C80004052419302D0A9F7EACFB4E0A6959795B8
:102C9000879577956795BA95C9F70097610571058E
:102CA00008959B01AC010A2E0694579547953795D8
:102CB0002795BA95C9F7620F731F841F951FA01D32
:062CC0000895F894FFCF17
:102CC60001000000000000020000000046114D1146
:102CD600000041542B43495053454E443D302C008F
:102CE60041542B5253540041542B4349504D4F44A9
:102CF600453D300041542B4349504D55583D300019
:102D060041542B43574D4F44453D310041542B43CD
:102D1600574A41503D220041542B43574A41503FA8
:102D26000041542B43495053544152543D2254437D
:102D360050222C2200222C38300041542B4349507B
:102D460053454E443D0020485454502F312E300DEB
:102D56000A0041542B434950434C4F5345004154BC
:102D66002B5253540D0041542B43574D4F44453D70
:102D760033004132364134313135363800496E74CC
:102D8600656E6F5F36380041542B434946535200F7
:102D960041542B4349504D55583D310041542B4326
:102DA60049505345525645523D312C383838380033
:102DB60054454C4E4554204F4E0041542B434950E8
:102DC6005345525645523D312C38300057656C6399
:102DD6006F6D6520746F20746865204C4544204DE6
:102DE600617472697820436C6F636B2074656C6ED6
:102DF600657420696E746572666163650D0A0054B8
:102E060079706520226D616E2220746F2076696567
:102E16007720616C6C20617661696C61626C6520FB
:102E2600636F6D6D616E64730D0A3E006C656400C0
:102E36006F6E005475726E696E67206F6E204C451A
:102E460044730D0A3E006F6666005475726E696EB5
:102E560067206F66204C4544730D0A3E00646F7709
:102E66006E0044696D6D696E6720646F776E204CE5
:102E76004544730D0A3E0075700044696D6D696EB8
:102E860067207570204C4544730D0A3E00436F6DF4
:102E96006D616E64206E6F7420666F756E64200DB2
:102EA6000A3E006765740070617373776F72640021
:102EB60073736964007365740074696D65004461B9
:102EC600746520666F726D6174202D205B68683AA8
:102ED6006D6D3A73733A797979795D0D0A3E0057CB
:102EE600726F6E672074696D6520666F726D6174AE
:102EF600210D0A0057726F6E672074696D65206632
:102F06006F726D61742E2E2E6661696C6564206128
:102F16007420686F757273210D0A0057726F6E67A1
:102F26002074696D6520666F726D61742E2E2E6633
:102F360061696C6564206174206D696E7574657372
:102F4600210D0A0057726F6E672074696D652066E1
:102F56006F726D61742E2E2E6661696C65642061D8
:102F660074207365636F6E6473210D0A0057726F68
:102F76006E672074696D6520666F726D61742E2EA2
:102F86002E6661696C65642061742079656172736F
:102F9600210D0A0054696D6520776173207375638E
:102FA6006365737366756C6C7920736574210D0A9D
:102FB6000057726F6E672074696D6520666F726D5B
:102FC6006174206F722074696D656F7574210D0AC6
:102FD600004E6F7420612076616C696420636F6DAA
:102FE6006D616E640D0A0077696669005475726ECC
:102FF600696E67206F666620776966692E2055734D
:10300600652042544E3120746F207475726E2069AB
:1030160074206F6E20616761696E2E0D0A00436F22
:103026006D6D616E64206E6F7420666F756E6420C0
:103036000D0A006D616E002D2D2D2D2D2D2D2D2DA2
:103046002D2D2D2D2D2D2D2D2D2D2D2D2D2D2D2DAA
:103056002D2D2D2D2D2D2D2D2D2D0D0A006C65645C
:10306600206F6E202D205475726E73207468652053
:10307600656E74697265204C45442061727261798F
:10308600206F6E2E0D0A006C6564206F6666202D1B
:10309600205475726E732074686520656E7469724B
:1030A60065204C4544206172726179206F66662EF8
:1030B6000D0A007365742074696D65202D205365B3
:1030C6007473207468652074696D6520616E642070
:1030D60064617465206F662074686520636C6F6335
:1030E6006B2E20466F726D6174205B68683A6D6D59
:1030F6003A73733A797979795D0D0A0073657420AC
:1031060073736964202D2053657473207468652079
:103116005353494420666F72207468652057694688
:103126006920636F6E6E656374696F6E200D0A00A9
:103136007365742070617373776F7264202D2053EA
:10314600657473207468652050415353574F524439
:1031560020666F7220746865205769466920636F20
:103166006E6E656374696F6E2E200D0A0067657456
:103176002074696D65202D2053686F77207468650B
:103186002074696D6520616E642064617465206FCA
:10319600662074686520636C6F636B2E200D0A00D1
:1031A6006765742073736964202D2053686F7720D8
:1031B600746865205353494420666F7220746865AD
:1031C600205769466920636F6E6E656374696F6E1A
:1031D600200D0A006765742070617373776F7264DF
:1031E600202D2053686F7720746865205041535313
:1031F600574F524420666F7220746865205769469F
:103206006920636F6E6E656374696F6E2E200D0A9A
:103216000041542B434950434C4F53453D300D001C
:103226004F4B004552524F5200434F4E4E4543546A
:1032360000434C4F53454400313932002B4950442A
:103246000025640054696D653A00636F6C64332E23
:10325600776176002A2A2A2A2057415620504C4167
:10326600594552202A2A2A2A004C4544204D4154C9
:1032760052495820436C6F636B202D2042793A20C7
:1032860045726C656E6420486573746E65730D0ACD
:02329600000036
:00000001FF
