S01400006D61747269785F636C6F636B2E7372656310
S1130000FDC0000019C1000017C1000015C10000A7
S113001013C1000011C100000FC100000DC1000098
S11300200BC1000009C100007AC7000005C100002F
S113003003C1000001C10000F3C10000FDC00000C5
S1130040FBC00000F9C00000F7C00000F5C00000CC
S113005028C70000F1C00000EFC00000EDC00000A0
S1130060EBC00000E9C00000E7C00000E5C00000EC
S1130070E3C00000E1C00000DFC00000DDC00000FC
S1130080DBC00000D9C00000D7C00000D5C000000C
S1130090D3C00000D1C00000CFC00000CDC000001C
S11300A0CBC00000C9C00000C7C00000C5C000002C
S11300B0C3C00000C1C00000BFC00000BDC000003C
S11300C0BBC00000B9C00000B7C00000B5C000004C
S11300D0B3C00000B1C00000AFC00000ADC000005C
S11300E0ABC00000A9C00000A7C00000A5C000006C
S11300F0A3C00000A1C000009FC000009DC000007C
S11301009BC0000099C00000E3C6000095C0000039
S113011093C0000091C000008FC000008DC000009B
S11301208BC0000089C0000087C0000085C00000AB
S113013083C0000081C000007FC000007DC00000BB
S11301407BC0000079C0000077C0000075C00000CB
S113015073C0000071C000006FC000006DC00000DB
S113016034C1000069C0000067C0000065C0000021
S113017063C0000061C000005FC000005DC00000FB
S11301805BC0000059C0000057C0000055C000000B
S113019053C0000051C000004FC000004DC000001B
S11301A04BC0000049C0000047C0000045C000002B
S11301B043C0000041C000003FC000003DC000003B
S11301C03BC0000039C0000037C0000035C000004B
S11301D033C0000031C000002FC000002DC000005B
S11301E02BC0000029C0000027C0000025C000006B
S11301F023C0000021C000001FC0000011241FBE46
S1130200CFEFCDBFDFE2DEBF11E2A0E0B0E2EEE768
S1130210F5E100E00BBF02C007900D92A832B107D0
S1130220D9F725E2A8E2B1E201C01D92A63DB207CA
S1130230E1F712D60C94BD0AE3CE8091500082609F
S1130240809350008091510081FFFCCF88ED84BFE2
S113025081E0809340000895E0E6F6E080E2818347
S113026085832FEF33E284EF90E0215030408040CB
S11302709040D9F700C00000089510921025109204
S1130280112588EE93E0E8E2F1E2DF019C011D9282
S113029021503040E1F782E190E29F938F938AE10D
S11302A090E29F938F939DD63AEA86EE96E9A1E079
S11302B0315080409040A040D9F7000010921025A2
S11302C01092112588EE93E0E8E2F1E2DF019C014F
S11302D01D9221503040E1F784E990E29F938F937F
S11302E08AE190E29F938F937CD63FEF8FE493EC67
S11302F0315080409040E1F700C00000109210257A
S11303001092112588EE93E0E8E2F1E2DF019C010E
S11303101D9221503040E1F780EA90E29F938F9341
S11303208AE190E29F938F935CD63FEF8FE493EC46
S1130330315080409040E1F700C000001092102539
S11303401092112588EE93E0E8E2F1E2DF019C01CE
S11303501D9221503040E1F78CEA90E29F938F93F5
S11303608AE190E29F938F933CD63FEF8FE493EC26
S1130370315080409040E1F700C0000010921025F9
S11303801092112588EE93E0E8E2F1E2DF019C018E
S11303901D9221503040E1F78EEB90E29F938F93B2
S11303A08AE190E29F938F931CD63FEF8FE493EC06
S11303B0315080409040E1F700C00000ADB7BEB7B7
S11303C05496ADBFBEBF81E008951F920F920FB641
S11303D00F9211240BB60F922F933F938F939F93F9
S11303E0EF93FF9380911025909111259C012F5F2D
S11303F03F4F20931025309311252091A009FC0133
S1130400E85DFE4D2083FF91EF919F918F913F9185
S11304102F910F900BBE0F900FBE0F901F90189549
S11304201F920F920FB60F9211240BB60F922F93B7
S11304303F934F935F936F938F939F93AF93BF9328
S1130440EF93FF93E0919525F09196253097B9F1BC
S11304504681578122813381A085B185A20FB31FC4
S1130460808191818130910579F0D8F1029709F06A
S113047041C04230510518F111966C9160584250B8
S113048051092E5F3F4F08C042305105C0F06C91B6
S1130490425051092E5F3F4F46835783828593858F
S11304A001978223932382839383862F90E0809302
S11304B038039093390380933A0390933B03FF915D
S11304C0EF91BF91AF919F918F916F915F914F91F8
S11304D03F912F910F900BBE0F900FBE0F901F9066
S11304E018954115510559F36C91415051092F5FED
S11304F03F4FD2CF4430510510F311966C914450C4
S113050051092C5F3F4FC8CF41E04093810640938F
S1130510850624E0209381062093850638E03093F5
S11305208106409386063093810620938606309395
S113053085062093850620938606309386062093AD
S1130540850620938606309386062093850620939D
S1130550860630938606209385062093860630937C
S1130560860620938506209386063093860620937C
S1130570850620938606309386062093850620936D
S1130580860630938606209385062093860630934C
S1130590860620938506209386063093860620934C
S11305A0850620938606309385062093850620933E
S11305B086063093860620938506309386064093FC
S11305C085064093860630938106209386063093F1
S11305D0850620938506209386063093860620930D
S11305E085062093860630938606209385062093FD
S11305F086063093860620938506209386063093DC
S113060086062093850620938606309386062093DB
S113061085062093860630938606209385062093CC
S113062086063093860620938506209386063093AB
S113063086062093850620938606309385062093AC
S1130640850620938606309385062093850620939D
S1130650860630938606209385063093860640935B
S11306608506409386063093810620938606309350
S1130670850620938506209386063093860620936C
S1130680850620938606309386062093850620935C
S1130690860630938606209385062093860630933B
S11306A0860620938506209386063093860620933B
S11306B0850620938606309386062093850620932C
S11306C0860630938506209385062093860630930C
S11306D0860620938506209386063093860620930B
S11306E085062093860630938606209385062093FC
S11306F086063093860620938506309386064093BB
S113070085064093860630938106209386063093AF
S113071085062093850620938606309386062093CB
S113072085062093860630938606209385062093BB
S1130730860630938606209385062093860630939A
S1130740860620938506209386063093860620939A
S1130750850620938606309385062093850620938C
S1130760860630938606209385062093860630936A
S1130770850620938506209386063093860620936B
S1130780850620938606309386062093850620935B
S1130790860630938606209385063093860640931A
S11307A0850640938606309381062093860630930F
S11307B0850620938506209386063093860620932B
S11307C0850620938606309386062093850620931B
S11307D086063093860620938506209386063093FA
S11307E086062093850620938606309386062093FA
S11307F085062093860630938506209385062093EC
S113080086063093850620938506209386063093CA
S113081086062093850620938606309386062093C9
S113082085062093860630938606209385062093BA
S11308308606309386062093850630938606409379
S1130840850690E09460880F991F40938606309344
S1130850810620938606309385062093850620938F
S11308608606309386062093850620938606309369
S11308708606209385062093860690FDE7C0309374
S1130880860624E0209385062093860628E087FDCB
S11308909EC02093860624E0209385062093860636
S11308A028E086FD9EC02093860624E020938506DA
S11308B02093860628E085FD9EC02093860624E0CA
S11308C0209385062093860628E084FD9EC020930D
S11308D0860624E0209385062093860628E083FD7F
S11308E09EC02093860624E02093850620938606E6
S11308F028E082FD9EC02093860694E090938506AE
S11309009093860681FD9EC088E08093860684E0ED
S1130910809385068093860698E09093860680935C
S113092085069093860621E020938506209386060B
S1130930909381068093860690938506809385061E
S11309408093860690938606809385068093860618
S113095090938606809385068093860690938506F9
S113096080938506809386069093860680938506F9
S113097080938606909385068093850680938606E9
S113098090938606809385068093860690938606C8
S113099080938506809386069093860680938506C9
S11309A080938606909386068093850680938606B8
S11309B09093850680938506809386069093860699
S11309C08093850690938606209385060895209348
S11309D0850624E0209385062093860628E086FF7A
S11309E062CF2093850624E0209385062093860613
S11309F028E085FF62CF2093850624E020938506B6
S1130A002093860628E084FF62CF2093850624E0A5
S1130A10209385062093860628E083FF62CF2093E7
S1130A20850624E0209385062093860628E082FF2D
S1130A3062CF2093850694E0909385069093860672
S1130A4081FF62CF88E08093850661CF309385066D
S1130A5024E0209385062093860628E087FDB7CFFF
S1130A6018CF803108F08FE0806A90E09460880F9E
S1130A70991F21E02093860638E03093810624E014
S1130A802093860630938506209385062093860658
S1130A903093860620938506209386063093860637
S1130AA02093850620938606309385062093850639
S1130AB02093860630938606209385062093860627
S1130AC03093850620938506209386063093860608
S1130AD0209385062093860684FD47C030938606BE
S1130AE024E0209385062093860628E083FD26C013
S1130AF02093860624E0209385062093860628E02A
S1130B0082FD26C02093860694E0909385069093F8
S1130B10860681FD26C088E08093860684E0809363
S1130B2085068093860698E09093860680938506D2
S1130B309093860681E08093850608952093850628
S1130B4024E0209385062093860628E082FFDACFEE
S1130B502093850694E0909385069093860681FF02
S1130B60DACF88E080938506D9CF3093850624E0D8
S1130B70209385062093860628E083FDDFCFB8CF37
S1130B8081E08093860698E09093810684E08093C8
S1130B9086069093850680938506809386069093B7
S1130BA086068093850680938606909385068093B7
S1130BB0850690938606909381068093860690938B
S1130BC08606809385068093860690938606809396
S1130BD08506809386069093860680938506809387
S1130BE08606909386068093850680938606909366
S1130BF08606809385068093860690938606809366
S1130C008506809386069093860680938506909346
S1130C108606EAE9F5E238E024E07CC030938606F3
S1130C20209385062093860695FD92C03093860610
S1130C30209385062093860694FD92C03093860601
S1130C40209385062093860693FD92C030938606F2
S1130C50209385062093860692FD92C030938606E3
S1130C60209385062093860691FD92C030938606D4
S1130C70209385062093860690FD92C030938606C5
S1130C80209385062093860687FD92C030938606BE
S1130C90209385062093860686FD92C030938606AF
S1130CA0209385062093860685FD92C030938606A0
S1130CB0209385062093860684FD92C03093860691
S1130CC0209385062093860683FD92C03093860682
S1130CD0209385062093860682FD92C03093860673
S1130CE0209385062093860681FD92C03093860664
S1130CF0209385062093860680FD92C03093860655
S1130D002093850630938606329685E2EA3BF807FF
S1130D1009F48CC0DF0111978C9190E0982F8827FB
S1130D204081842B309381062093860697FD7BC0F7
S1130D3030938606209385062093860696FF6ECF11
S1130D4030938506209385062093860695FF6ECF03
S1130D5030938506209385062093860694FF6ECFF4
S1130D6030938506209385062093860693FF6ECFE5
S1130D7030938506209385062093860692FF6ECFD6
S1130D8030938506209385062093860691FF6ECFC7
S1130D9030938506209385062093860690FF6ECFB8
S1130DA030938506209385062093860687FF6ECFB1
S1130DB030938506209385062093860686FF6ECFA2
S1130DC030938506209385062093860685FF6ECF93
S1130DD030938506209385062093860684FF6ECF84
S1130DE030938506209385062093860683FF6ECF75
S1130DF030938506209385062093860682FF6ECF66
S1130E0030938506209385062093860681FF6ECF56
S1130E1030938506209385062093860680FF6ECF47
S1130E20309385066DCF3093850684CF81E080931F
S1130E308506089580E2E9E9F5E2DF011D928A95CD
S1130E40E9F79ECEFC0110821182128213828FEF89
S1130E509FEF848395830895CF93DF93CDB7DEB757
S1130E602697CDBFDEBFE9D984E24EDB80E0F9DD11
S1130E70E1DF98D087E08093A200CE010196E2DF03
S1130E8084E090E28093D0259093D1258093D2255D
S1130E909093D32581E091E2B5D07894DDD9EDD952
S1130EA0FFCF1F920F920FB60F9211248F939F932F
S1130EB08091122590911325019680931225909389
S1130EC013259F918F910F900FBE0F901F9018952F
S1130ED01F920F920FB60F9211240BB60F922F93FD
S1130EE03F934F935F936F937F938F939F93AF93AE
S1130EF0BF93EF93FF939EDFFF91EF91BF91AF916B
S1130F009F918F917F916F915F914F913F912F911D
S1130F100F900BBE0F900FBE0F901F9018951F924D
S1130F200F920FB60F9211240BB60F922F933F938B
S1130F304F938F939F93AF93BF93EF93FF93A9EC3A
S1130F40B5E23C913F5F89E8389F212D1124229519
S1130F5026952770EAECF5E29081920F4CE3249FEA
S1130F60301911243C93ABECB5E2989F812D1124E8
S1130F708295869587702C91280F2C93849F9019C5
S1130F8011249083FF91EF91BF91AF919F918F9125
S1130F904F913F912F910F900BBE0F900FBE0F906A
S1130FA01F901895E0E6F6E088E0818384E0828370
S1130FB0E0EAF9E080E283838FEC868383E0858333
S1130FC088E1848308959091A10995FFFCCF8093D3
S1130FD0A00908958091A10987FFFCCF8091A00901
S1130FE00895CF93DF93CDB7DEB7FE0135966191B7
S1130FF07191AF018091D2259091D32530D0DF91AA
S1131000CF9108950F931F93CF93DF93E091D2254F
S1131010F091D325238121FF1BC0EC0100E010E0F7
S113102089916091D2257091D325DB011896ED91B9
S1131030FC911997882331F00995892B89F30FEFD7
S11310401FEFEECF8AE00995892B11F4C80102C085
S11310508FEF9FEFDF91CF911F910F9108952F9202
S11310603F924F925F926F927F928F929F92AF9234
S1131070BF92CF92DF92EF92FF920F931F93CF9381
S1131080DF93CDB7DEB72C97CDBFDEBF7C016B01FC
S11310908A01FC0116821782838181FFB0C1CE01CF
S11310A001964C01F7019381F60193FD859193FF1D
S11310B081916F01882309F49EC1853239F493FD2F
S11310C0859193FF81916F01853221F4B70190E0FE
S11310D0C4D1E8CF512C312C20E02032A0F48B3243
S11310E069F030F4803259F0833269F420612CC005
S11310F08D3239F0803339F4216026C022602460B7
S113110023C0286021C027FD27C030ED380F3A30B6
S113111078F426FF06C0FAE05F9E300D1124532EAA
S113112013C08AE0389E300D1124332E20620CC087
S11311308E3221F426FD5FC1206406C08C3611F482
S1131140206802C0883641F4F60193FD859193FF2F
S113115081916F018111C1CF982F9F7D9554933058
S113116028F40C5F1F4FFFE3F9830DC0833631F081
S1131170833771F0833509F057C021C0F8018081AD
S113118089830E5F1F4F44244394512C540114C08F
S11311903801F2E06F0E711CF801A080B18026FFC7
S11311A003C0652D70E002C06FEF7FEFC5012C878F
S11311B049D12C0183012C852F77222E16C03801AA
S11311C0F2E06F0E711CF801A080B18026FF03C00D
S11311D0652D70E002C06FEF7FEFC5012C8727D12A
S11311E02C012C852068222E830123FC19C0832D19
S11311F090E048165906A0F4B70180E290E02DD1A2
S11312003A94F5CFF50127FC859127FE81915F0182
S1131210B70190E022D131103A94F1E04F1A51080D
S11312204114510479F7DEC0843611F0893631F562
S1131230F80127FF07C060817181828193810C5F6F
S11312401F4F08C060817181882777FD8095982F92
S11312500E5F1F4F2F76B22E97FF09C09095809591
S1131260709561957F4F8F4F9F4F2068B22E2AE073
S113127030E0A40124D1A82EA81843C0853729F44E
S11312802F7EB22E2AE030E025C0F22FF97FBF2E48
S11312908F36C1F018F4883579F0ADC0803719F075
S11312A0883721F0A8C02F2F2061B22EB4FE0DC0C4
S11312B08B2D8460B82E09C024FF0AC09F2F96602E
S11312C0B92E06C028E030E005C020E130E002C0BD
S11312D020E132E0F801B7FE07C0608171818281AC
S11312E093810C5F1F4F06C06081718180E090E0A4
S11312F00E5F1F4FA401E3D0A82EA818FB2DFF7783
S1131300BF2EB6FE0BC02B2D2E7FA51450F4B4FEB9
S11313100AC0B2FC08C02B2D2E7E05C07A2C2B2DC2
S113132003C07A2C01C0752C24FF0DC0FE01EA0D08
S1131330F11D8081803311F4297E09C022FF06C08B
S11313407394739404C0822F867809F0739423FDF8
S113135012C020FF06C05A2C731418F4530C5718EB
S1131360732C731460F4B70180E290E02C8775D07D
S113137073942C85F6CF731410F4371801C0312CF4
S113138024FF11C0B70180E390E02C8766D02C8540
S113139022FF16C021FF03C088E590E002C088E761
S11313A090E0B7010CC0822F867851F021FD02C075
S11313B080E201C08BE227FD8DE2B70190E04DD0C1
S11313C0A51430F4B70180E390E047D05A94F8CFE5
S11313D0AA94F401EA0DF11D8081B70190E03DD09B
S11313E0A110F6CF332009F45DCEB70180E290E07E
S11313F034D03A94F7CFF7018681978102C08FEFFA
S11314009FEF2C96CDBFDEBFDF91CF911F910F913F
S1131410FF90EF90DF90CF90BF90AF909F908F9010
S11314207F906F905F904F903F902F900895FC01B4
S11314300590615070400110D8F7809590958E0FFB
S11314409F1F0895FC016150704001900110D8F76E
S1131450809590958E0F9F1F08950F931F93CF93A0
S1131460DF93182F092FEB018B8181FD03C08FEFD0
S11314709FEF20C082FF10C04E815F812C813D818F
S1131480421753077CF4E881F9819F012F5F3F4F96
S113149028833983108306C0E885F985812F09954F
S11314A0892B29F72E813F812F5F3F4F2E833F8366
S11314B0812F902FDF91CF911F910F910895FA0101
S11314C0AA27283051F1203181F1E8946F936E7F7F
S11314D06E5F7F4F8F4F9F4FAF4FB1E03ED0B4E070
S11314E03CD0670F781F891F9A1FA11D680F791FB1
S11314F08A1F911DA11D6A0F711D811D911DA11DC2
S113150020D009F468943F912AE0269F11243019D1
S1131510305D3193DEF6CF010895462F4770405D6C
S11315204193B3E00FD0C9F7F6CF462F4F70405D1B
S11315304A3318F0495D31FD4052419302D0A9F776
S1131540EACFB4E0A6959795879577956795BA9570
S1131550C9F700976105710508959B01AC010A2E36
S113156006945795479537952795BA95C9F7620F0D
S1111570731F841F951FA01D0895F894FFCFCC
S113157E010000000000000200000000E307EA077B
S113158E000041542B5253540D0025730D0A004F85
S113159E4B0041542B4349504D4F44453D3000417F
S11315AE542B4349504D55583D300041542B43570D
S11315BE4D4F44453D310041542B43574A41503D14
S11315CE220041542B43574A41503D3F0041542B76
S11315DE43495053544152543D22544350222C22D9
S11315EE00222C38300025640041542B43495053BB
S11315FE454E443D0020485454502F312E30005354
S113160E454E440041542B4349504D55583D3100ED
S113161E41542B43574D4F44453D320041542B43C7
S113162E49505345525645523D312C3830004154A1
S113163E2B43494653523D3F006A6F686E332E77F3
S113164E6176002A2A2A2A2057415620504C4159A5
S113165E4552202A2A2A2A006E657766696C6561CE
S113166E2E74787400497420776F726B73210D0A8F
S113167E004C4544204D415452495820436C6F63ED
S113168E6B202D2042793A2045726C656E64204899
S10B169E6573746E65730000AE
S9030000FC
