:1000000049C7000084C7000082C7000080C7000005
:100010007EC700007CC700000C94540978C700001C
:1000200076C7000074C700000C94AF0F70C70000C3
:100030006EC700006CC700000C942D4968C7000013
:100040000C94E9590C94FB480C94B61B0C941C5A64
:100050000C94D8135CC700005AC7000058C70000B2
:1000600056C7000054C7000052C7000050C7000028
:100070004EC700004CC700004AC7000048C7000038
:1000800046C7000044C700000C94240E40C700007F
:100090003EC700003CC700003AC7000038C7000058
:1000A00036C7000034C7000032C7000030C7000068
:1000B0002EC700002CC700002AC7000028C7000078
:1000C00026C7000024C7000022C7000020C7000088
:1000D0001EC700001CC700001AC7000018C7000098
:1000E00016C7000014C7000012C7000010C70000A8
:1000F0000EC700000CC700000AC7000008C70000B8
:1001000006C7000004C700000C94E20D0C94660EB4
:10011000FEC60000FCC60000FAC60000F8C60000DB
:10012000F6C60000F4C60000F2C60000F0C60000EB
:10013000EEC60000ECC60000EAC60000E8C60000FB
:10014000E6C60000E4C600000C94585BE0C6000060
:10015000DEC60000DCC60000DAC60000D8C600001B
:100160000C945835D4C60000D2C60000D0C600009A
:10017000CEC60000CCC60000CAC60000C8C600003B
:10018000C6C60000C4C60000C2C60000C0C600004B
:10019000BEC60000BCC60000BAC60000B8C600005B
:1001A000B6C60000B4C60000B2C60000B0C600006B
:1001B000AEC60000ACC60000AAC60000A8C600007B
:1001C000A6C60000A4C60000A2C60000A0C600008B
:1001D0009EC600009CC600009AC6000098C600009B
:1001E00096C6000094C6000092C6000090C60000AB
:1001F0008EC600008CC600008AC60000EA2D162EAE
:10020000F42B162E602D082EEA2D732DEA2D912D3C
:10021000EA2D8E2C162EEA2DC32DEA2DEA2D162E50
:100220002A2CEA2DEA2D352D522DD92DF72DEA2D28
:10023000162E162E162E162EEA2DEA2DEA2D1258FF
:100240000C580F5803580958FD5706580058615864
:10025000485850583E58425833583E583A58AF586C
:10026000BC58BA58B858B658B258B458075C095C6C
:10027000075C105C075C105C075C075C105C075C4B
:10028000105C075C0000000000002050705020004F
:10029000207050702000005070702000002070709E
:1002A000200020707020700020207020700000005E
:1002B00020000000F0F0D0F0F0F00070507000006E
:1002C000F080A080F0F000301060600020502070BE
:1002D00020002030202060002030501020002070AE
:1002E000507020004060706040001030703010008E
:1002F00020702070200050505000500070D0D0501E
:10030000500030605030600000000000700020702D
:1003100020702070207020202000202020702000DD
:100320000020F02000000040F0400000000040707D
:10033000000000507050000000207070000000703D
:10034000702000000000000000002020200020009D
:10035000505000000000507050705000203060304D
:10036000602040102040100020503050700060404D
:10037000000000002040404020004020202040009D
:10038000502070205000002070200000000000006D
:10039000604000007000000000000000200010100D
:1003A000204040002050505020002060202070004D
:1003B000601020407000601020106000105070101D
:1003C00010007040601060002040605020007010ED
:1003D00030202000205020502000205030102000DD
:1003E000000020002000000020006040102040207D
:1003F00010000000700070004020102040006010CD
:10040000200020007050504070002050705050006C
:1004100060506050600030404040300060505050AC
:1004200060007040604070007040604040003040AC
:1004300050503000505070505000702020207000FC
:10044000101010502000505060505000404040406C
:1004500070005070705050006050505050007050FC
:10046000505070006050604040002050507030008C
:1004700060506050500030407010600070202020AC
:10048000200050505050700050505050200050509C
:1004900070705000505020505000505020202000CC
:1004A00070102040700060404040600040402010CC
:1004B000100060202020600020500000000000009C
:1004C000000000F0602000000000000030507000CC
:1004D000404060506000000030403000101030504C
:1004E00030000000706030001020702020000000FC
:1004F00070501070404060505000200020202000BC
:10050000200020202060404050605000202020200B
:10051000200000007070500000006050500000008B
:10052000205020000000605060400000305030102B
:10053000000060404000000030206000002070207B
:1005400030000000505070000000505020000000AB
:1005500050707000000050205000000050502040AB
:10056000000060203000302060203000202020205B
:10057000200060203020600050A00000000000201B
:10058000507000003040407020405000505030000B
:1005900010207060300020503050700050003050FB
:1005A000700040203050700020003050700000700B
:1005B000407020602050706030005000706030004B
:1005C000402070603000500020202000205000208B
:1005D000200040200020200050205070500020209B
:1005E000507050001020706070000000307060008B
:1005F000306070607000205020502000500020506B
:10060000200040202050200020500050700040204A
:10061000505070005000505020405020505020004A
:10062000500050507000207040702000102070204A
:10063000700050702070200000606050500030202A
:10064000302060001020305070001020002020006A
:10065000102070507000102000507000700070501A
:1006600050007000507050003050700070002050EA
:10067000200070002000204030000070404000004A
:1006800000E02020000040502050300040502070FA
:1006900010002000202020000050A050000000A0EA
:1006A00050A0000040104010401050A050A050A09A
:1006B000B0E0B0E0B0E02020202020202020E0208A
:1006C000202020E020E020205050D050505000004A
:1006D000F050505000E020E0202050D010D050507A
:1006E00050505050505000F010D0505050D010F09A
:1006F00000005050F000000020E020E0000000006A
:10070000E02020202020300000002020F000000009
:100710000000F02020202020302020200000F000C9
:1007200000002020F02020202030203020205050B9
:100730005050505050504070000000704050505089
:1007400050D000F0000000F000D050505050405009
:10075000505000F000F0000050D000D0505020F079
:1007600000F000005050F000000000F000F02020E9
:100770000000F050505050507000000020302030E9
:1007800000000030203020200000705050505050A9
:10079000D050505020F000F020202020E000000039
:1007A000000030202020F0F0F0F0F0F0000000F029
:1007B000F0F0C0C0C0C0C0C0303030303030F0F0D9
:1007C000F000000000007060700020506050604039
:1007D00070504040400070505050500070402040D9
:1007E0007000000030502000000050507040001099
:1007F0006020200070205020700020507050200099
:100800000020505050003040205020000000705018
:100810007000207050702000304070403000205038
:100820005050500070007000700020702000700068
:100830006010600070003040300070000010202018
:1008400020202020202040002000700020000050A8
:10085000A050A000205020000000002070200000C8
:100860000000200000003020206020007050500068
:100870000000602040600000000060600000000098
:100880000000000000000000003E5B4F5B3E3E6B3E
:100890004F6B3E1C3E7C3E1C183C7E3C181C577D1A
:1008A000571C1C5E7F5E1C00183C1800FFE7C3E766
:1008B000FF0018241800FFE7DBE7FF30483A060E78
:1008C0002629792926407F050507407F05253F5ABF
:1008D0003CE73C5A7F3E1C1C08081C1C3E7F14222F
:1008E0007F22145F5F005F5F06097F017F006689DA
:1008F000956A606060606094A2FFA29408047E0420
:100900000810207E201008082A1C08081C2A080845
:100910001E101010100C1E0C1E0C30383E38300605
:100920000E3E0E06000000000000005F0000000701
:10093000000700147F147F14242A7F2A122313082F
:10094000646236495620500008070300001C22410B
:10095000000041221C002A1C7F1C2A08083E0808AF
:10096000008070300008080808080000606000205F
:10097000100804023E5149453E00427F4000724942
:100980004949462141494D331814127F10274545E6
:1009900045393C4A494931010171090736494949FC
:1009A00036464949291E000014000000403400006A
:1009B00000081422411414141414004122140802D3
:1009C000015909063E415D594E7C1211127C7F4946
:1009D0004949363E414141227F4141413E7F49499B
:1009E00049417F090909013E414151737F080808C7
:1009F0007F00417F41002040413F017F0814224198
:100A00007F404040407F021C027F7F0408107F3EF1
:100A10004141413E7F090909063E4151215E7F095E
:100A2000192946264949493203017F01033F4040C5
:100A3000403F1F2040201F3F4038403F63140814B0
:100A40006303047804036159494D43007F414141E8
:100A50000204081020004141417F040201020440C9
:100A600040404040000307080020545478407F284D
:100A70004444383844444428384444287F38545443
:100A8000541800087E090218A4A49C787F08040466
:100A90007800447D40002040403D007F1028440005
:100AA00000417F40007C047804787C080404783896
:100AB00044444438FC1824241818242418FC7C08C6
:100AC000040408485454542404043F44243C404043
:100AD000207C1C2040201C3C4030403C44281028F6
:100AE000444C9090907C4464544C4400083641003F
:100AF0000000770000004136080002010204023CB9
:100B00002623263C1EA1A161123A4040207A385487
:100B10005455592155557941215454784121555402
:100B2000784020545579400C1E5272123955555553
:100B300059395454545939555454580000457C413E
:100B40000002457D420001457C40F0292429F0F057
:100B5000282528F07C545545002054547C547C0AA8
:100B6000097F4932494949323248484832324A4875
:100B700048303A4141217A3A42402078009DA0A075
:100B80007D39444444393D4040403D3C24FF2424C9
:100B9000487E4943662B2FFC2F2BFF0929F620C0E6
:100BA000887E090320545479410000447D41304837
:100BB000484A32384040227A007A0A0A727D0D197A
:100BC000317D2629292F28262929292630484D40DC
:100BD00020380808080808080808382F10C8ACBAD8
:100BE0002F102834FA00007B000008142A14222257
:100BF000142A1408AA005500AAAA55AA55AA00004A
:100C000000FF00101010FF00141414FF001010FF5C
:100C100000FF1010F010F0141414FC001414F7006E
:100C2000FF0000FF00FF1414F404FC141417101F3D
:100C300010101F101F1414141F00101010F00000CB
:100C400000001F101010101F10101010F0100000E6
:100C500000FF101010101010101010FF10000000F6
:100C6000FF140000FF00FF00001F10170000FC042D
:100C7000F414141710171414F404F40000FF00F710
:100C800014141414141414F700F714141417141073
:100C9000101F101F141414F4141010F010F00000A2
:100CA0001F101F0000001F14000000FC140000F0C3
:100CB00010F01010FF10FF141414FF141010101F68
:100CC00000000000F010FFFFFFFFFFF0F0F0F0F079
:100CD000FFFFFF0000000000FFFF0F0F0F0F0F3896
:100CE000444438447C2A2A3E147E02020606027ED0
:100CF000027E0263554941633844443C04407E20EF
:100D00001E2006027E020299A5E7A5991C2A492AFF
:100D10001C4C7201724C304A4D4D3030487848308E
:100D2000BC625A463D3E494949007E0101017E2A86
:100D30002A2A2A2A44445F444440514A44404044B9
:100D40004A51400000FF0103E080FF000008086BEB
:100D50006B083612362436060F090F0600001818E5
:100D60000000001010003040FF0101001F01011EB3
:100D700000191D1712003C3C3C3C0000000000180C
:100D8000183C42A5186E616E00696E660000407ADC
:100D900010F35A00A0724E18090010A5D4E8000004
:100DA000E87648170000E40B54020000CA9A3B00A2
:100DB0000000E1F505000080969800000040420F19
:100DC000000000A08601000000102700000000E8DD
:100DD00003000000006400000000000A00000000A2
:100DE000000100000000002C76D888DC674F082343
:100DF000DFC1DFAE59E1B1B796E5E3E453C63AE6A9
:100E000051997696E8E6C28426EB898C9B62ED4088
:100E10007C6FFCEFBC9C9F40F2BAA56FA5F49005D7
:100E20005A2AF75C936B6CF9676DC11BFCE0E40D0B
:100E300047FEF520E6B500D0ED902E0300943577FF
:100E4000050080841E080000204E0A000000C80C27
:100E5000333333330F986E12831141EF8D21148990
:100E60003BE65516CFFEE6DB18D1844B381BF77CEA
:100E70001D901DA4BBE424203284725E228100C92F
:100E8000F124ECA1E53D276364696E6F707375789A
:100E9000585B0000E7E5FDE3E370FF27E95AF24CF9
:100EA0002FEF3FE32C7FE217F30758F48EED9DEA16
:100EB000AEEBBFEE81939193A193B193E217F30749
:100EC000C8F311241FBECFEFCDBFDFE3DEBF00E0CC
:100ED0000CBF18BE19BE1ABE1BBE1EE2A0E0B0E2D7
:100EE000E4EFF3ED00E00BBF02C007900D92AC35CC
:100EF000B107D9F71BBE2DE3ACE5BEE201C01D92E0
:100F0000A735B207E1F70E94E41B0C94F86978C892
:100F1000809171008D7F8093710082E08093CA017F
:100F2000E0E2F0E0E4911092CA01E0930C028093B9
:100F3000CA01E1E2F0E0E4911092CA01E0930D02EF
:100F400081E080932002109221021092010296E02B
:100F50009093040290E19093020210920302809316
:100F6000060210922202809300028FEF9CE7019705
:100F7000F1F700C0000020915E2E30915F2E40E11D
:100F800051E08091200280688093200280912302AA
:100F900080FFFCCF50932302809124029091250280
:100FA000820F931F415011F09C01EBCF2091000262
:100FB0002E7F2093000224E0959587952A95E1F7EE
:100FC00080935E2E90935F2E109218021092190259
:100FD00081E080932002109221021092030210926D
:100FE000220210922A021092320210923A0280914A
:100FF00000028160809300029FEF29EF80E0915012
:1010000020408040E1F700C000000895E0E0F2E0F9
:1010100080818E7F8083E0E7F0E081818260818340
:101020000895E0E0F6E082E0818386830895E0E0C1
:10103000F6E082E0818385830895CF93DF9300D02B
:101040001F92CDB7DEB7EDDF49E160E070E0CB0184
:1010500051E0209120022068209320022091230259
:1010600020FFFCCF509323022091240230912502CF
:10107000620F731F811D911D415059F769837A8357
:101080008B839C83D4DF69817A818B819C8129E168
:1010900030E040E050E00E944C62C9012496CDBF90
:1010A000DEBFDF91CF910895CF93DF9331DFC5DFAE
:1010B000EC01ACDFBE0180E090E00E94B35D23E371
:1010C00033E343E050E40E94415E20E030EF4FE71D
:1010D00055E40E941F5D20E030E040E052E40E94B1
:1010E000415E20E030E040E251E40E941F5D23ECCD
:1010F00035EF48EA5EE30E94BA5CDF91CF91089534
:10110000D3DF20E030E048EC52E40E94415E0E94D0
:10111000875D693582E0780768F5603482E078079A
:1011200058F5673282E0780748F56E3082E078073C
:1011300038F5653F81E0780728F56C3D81E0780758
:1011400018F5633C81E0780708F56A3A81E0780792
:10115000F8F4603A81E07807E8F4613981E07807D3
:10116000D8F4683781E07807C8F46F357140C0F073
:1011700085E0089583E608958FE508958AE508954A
:1011800080E5089586E408958CE3089582E3089548
:1011900088E208958EE1089584E108958AE0089533
:1011A00080E008958091500082608093500080918B
:1011B000510081FFFCCF88ED84BF81E08093400027
:1011C0000895E0E6F6E082E0818385830895E0E615
:1011D000F6E082E0818386830895909172009B7F80
:1011E00090937200882389F08CE08093210680918F
:1011F00020038C6080932003809122038860809379
:1012000022038091210380640FC084E08093210633
:101210008091200384608093200380912203886062
:1012200080932203809121038093210382E08093A5
:10123000CA01E2E3F0E0E4911092CA01E0932903CD
:101240008093CA01E3E3F0E0E4911092CA01E093D5
:1012500028038093CA01E6E3F0E0E4911092CA010A
:10126000E0932B038093CA01E7E3F0E0E49110924E
:10127000CA01E0932A0380912003816080932003B8
:10128000A0CFE0E2F6E08CE0828388E1828B838B62
:10129000E0E2F3E080818E7F808399DFE0E7F0E099
:1012A00082818460828308951F920F920FB60F92FD
:1012B000112408B60F9218BE8F938091110185FFFB
:1012C00008C08091110180628093110110928B3BC4
:1012D00008C08091110180618093110181E08093A9
:1012E0008B3B81E080938C3B8F910F9008BE0F90D9
:1012F0000FBE0F901F9018954BEA50E060E070E031
:101300008CE79AE30E94376981E008950F931F9359
:10131000CF93DF93CDB7DEB7CB5AD109CDBFDEBFB8
:101320008E010F5F1F4F8BEAF80111928A95E9F742
:101330004BEA50E060E070E0C8010E942C698981AE
:1013400081508E3F50F48BEAF801ACE7BAE301908C
:101350000D928A95E1F781E001C080E0C555DF4F2D
:10136000CDBFDEBFDF91CF911F910F910895FC019A
:1013700023E0F695E7952A95E1F7EE50F44C877057
:10138000992721E030E001C0220F8A95EAF7808199
:10139000822B80830895FC0133E0F695E7953A951A
:1013A000E1F7EE50F44C8770992721E030E001C05E
:1013B000220F8A95EAF720958081282320830895BB
:1013C000E2EFFBE38FEF81939CE3E231F907D9F77A
:1013D0000C942E1DE2EFFBE311928CE3E231F8074F
:1013E000D9F70C942E1DE2EFFBE311928CE3E2316E
:1013F000F807D9F7089574E041E050E0E8E066238B
:10140000C1F0709386062FEF260FDA0102C0AA0FF3
:10141000BB1F2A95E2F79D0128233923232B19F0BE
:10142000E093850602C0E0938606709385066150BE
:10143000E6CF0895CF93DF9381E08093860663E043
:1014400085E090E0D8DF67E080E090E0D4DFC3EF94
:10145000DBE3FE013197808190E0982F8827288177
:1014600060E1822BC8DF22968CE3C331D80789F76D
:1014700081E080938506DF91CF9108951F93CF93EC
:10148000DF9390E09460C0E8D6E011E01E836CE04A
:10149000880F991FB0DF1D83DF91CF911F910895B1
:1014A000CF93C82FE0E8F6E08DE0818385E0858367
:1014B00081E0E4DF83E0E2DF88E0E0DF84E1DEDF9B
:1014C00088E1DCDF8C2FDADF81EACF91D7CF82E0B1
:1014D000D5DF80E0D3DFE0E8F6E08FE0828388E1CB
:1014E000808B818B828B838B089587FD80E0803198
:1014F0000CF08FE0806AC2CF0E942E1D2FEF89EF83
:1015000090E0215080409040E1F700C00000E4EFFF
:10151000FBE380E08E3029F49091F33B9093003C04
:101520000BC08E3129F49091033C9093103C04C081
:101530009081DF0112979C938E5F3296803251F733
:10154000E5EFFBE381E08F3019F41092013C09C014
:101550008F3119F41092113C04C09081DF01129771
:101560009C938E5F3296813271F708950E942E1DF2
:101570002FEF89EF90E0215080409040E1F700C0CC
:101580000000E1E1FCE38FE1DF011297813029F4F3
:101590009091003C9093F33B09C0813129F49091E4
:1015A000103C9093033C02C09C9190838250FD01BB
:1015B0008F3F51F7E0E1FCE38EE1DF0112978111EB
:1015C00003C01092F23B07C0803119F41092023C24
:1015D00002C09C9190838250FD018E3F71F7089567
:1015E000A2EFBBE3E2E0FCE38C9190E0982F882728
:1015F0002081822B880F991F9D9381932CE3E131E9
:10160000F20791F70E942E1D8FEF99EF20E0815095
:1016100090402040E1F700C000000895A2EFBBE336
:10162000E2E0FCE38C9190E0982F88272081822BC8
:10163000969587959D9381932CE3E131F20791F77D
:101640000E942E1D8FEF99EF20E0815090402040A6
:10165000E1F700C000000895EF92FF920F931F93EF
:10166000CF93DF93CDB7DEB7A097CDBFDEBF80E2CB
:10167000DE011196FD01982F11929A95E9F7E2EF9C
:10168000FBE3982F01900D929A95E1F7E2EFFBE3CF
:10169000DF011D928A95E9F78E01005E1F4F7E01E2
:1016A000B0E1EB0EF11CF801709780818093F23B62
:1016B000F80180818093023C59DF025011090E1518
:1016C0001F0589F78E01015E1F4F6EE1F62EF801AE
:1016D000709780818093F23BD8018C918093023C7B
:1016E000B0E1FB1203C00E942E1D01C03FDFFA943F
:1016F000FA9402501109EEE0FE12E9CFA096CDBF98
:10170000DEBFDF91CF911F910F91FF90EF90089571
:10171000EF92FF920F931F93CF93DF93CDB7DEB776
:10172000A097CDBFDEBF80E2DE011196FD01982FAC
:1017300011929A95E9F7E2EFFBE3982F01900D9251
:101740009A95E1F7E2EFFBE3DF011D928A95E9F755
:101750008E010F5E1F4F7E01B1E2EB0EF11CF8010E
:10176000709780818093013CF80180818093113CC7
:10177000C3DE0E5F1F4F0E151F0589F78E010E5E2B
:101780001F4FFF24F394F801709780818093013CF0
:10179000D8018C918093113CBFE0FB1203C00E94E2
:1017A0002E1D01C0A9DEF394F3940E5F1F4FE1E1FB
:1017B000FE12E9CFA096CDBFDEBFDF91CF911F9182
:1017C0000F91FF90EF9008954F925F927F928F92CA
:1017D0009F92AF92BF92CF92DF92EF92FF920F93C0
:1017E0001F93CF93DF93CDB7DEB7A097CDBFDEBFFA
:1017F00080E2DE011196FD01982F11929A95E9F78A
:10180000E2EFFBE3982F01900D929A95E1F7E2EF5A
:10181000FBE3DF011D928A95E9F700E010E070E834
:10182000E72EF12CEFE0AE2EB12CF7E0CF2ED12C2D
:10183000A701002E02C0559547950A94E2F798013A
:1018400028503109D70102C0B595A7952A95E2F72E
:101850009D01E2E0FCE3CE0141962C01702EB50122
:10186000601B710B4601801A910AB7E0B71570F042
:10187000C2014097DC018C9190E084239523082CD1
:1018800002C0959587950A94E2F70BC0D2018C911E
:1018900090E082239323062E02C0959587950A94A3
:1018A000E2F79081982B90833196BFEF4B1A5B0A39
:1018B0008CE3E131F807C9F69FE0791611F090DE6C
:1018C00002C00E942E1D0F5F1F4F0031110509F04D
:1018D000AFCFA096CDBFDEBFDF91CF911F910F910B
:1018E000FF90EF90DF90CF90BF90AF909F908F9040
:1018F0007F905F904F9008956F927F928F929F920A
:10190000AF92BF92CF92DF92EF92FF920F931F930D
:10191000CF93DF93CDB7DEB7A097CDBFDEBF80E218
:10192000DE011196FD01982F11929A95E9F7E2EFE9
:10193000FBE3982F01900D929A95E1F7E2EFFBE31C
:10194000DF011D928A95E9F70FE010E0AFE0AA2EC3
:10195000B12CEE24E394F12C87E0C82ED12CA50104
:10196000401B510BD70102C0AA0FBB1F4A95E2F7DB
:10197000AD01902E9601201B310BF70102C0EE0F36
:10198000FF1F2A95E2F79F01E2EFFBE3CE014196AC
:101990003C01802EB80168507109B7E0B8155CF4BD
:1019A000D3018C9190E084239523062E01C0880FEB
:1019B0000A94EAF70CC0C3014097DC018C9190E0D7
:1019C00082239323092C01C0880F0A94EAF790819F
:1019D000982B90833196BFEF6B1A7B0A8CE3E13032
:1019E000F807D9F6882011F019DE02C00E942E1DDA
:1019F0000150110908F0B3CFA096CDBFDEBFDF9133
:101A0000CF911F910F91FF90EF90DF90CF90BF90FB
:101A1000AF909F908F907F906F900895EF92FF927C
:101A20000F931F93CF93DF938B01EC017C01E60EA4
:101A3000F71ECE15DF05C1F05FDDFE0189918695A9
:101A4000869586958093013C80818295880F807E63
:101A50008093113C2FEF80E792E02150804090402E
:101A6000E1F700C00000E5CF0C33110538F0169502
:101A7000079516950795C0E0D0E010C0CEE1D0E004
:101A80003BDD2FEF80E792E0215080409040E1F76E
:101A900000C000002197209799F70EC02DDD2FEF91
:101AA00080E792E0215080409040E1F700C00000C4
:101AB0002196C017D10791F7DF91CF911F910F9118
:101AC000FF90EF90089590EE9093020691E090932E
:101AD0002206909115069A6190931506909116062C
:101AE0009A6190931606909117069A619093170643
:101AF000909130069A6190933006882399F08091F6
:101B00000A06806E80930A0680912A06816080937F
:101B10002A06809109068360809309068091290630
:101B2000836012C080910A068F7180930A068091AB
:101B30002A068E7F80932A06809109068C7F8093E7
:101B40000906809129068C7F80932906089590E1EB
:101B500090930106882319F09093060608959093B8
:101B600005060895E0E0F6E084E0828382898260E1
:101B7000828B83858460838781858C6081870895CB
:101B8000E0E0F6E084E0828382898D7F828B83852A
:101B90008B7F83878185837F818708958091080665
:101BA00085FB882780F991E089279091080696FFA8
:101BB00082609091080697FF83E09091280690FF3D
:101BC000846008951F920F920FB60F92112408B6E9
:101BD0000F9218BE09B60F9219BE0BB60F921BBE1C
:101BE0002F933F934F935F936F937F938F939F9325
:101BF000AF93BF93EF93FF93D1DF8093123C80911B
:101C0000123C1F928F9386ED90E29F938F930E94D8
:101C10009A650F900F900F900F90FF91EF91BF91E9
:101C2000AF919F918F917F916F915F914F913F9174
:101C30002F910F900BBE0F9009BE0F9008BE0F9012
:101C40000FBE0F901F9018951F920F920FB60F9214
:101C5000112408B60F9218BE09B60F9219BE0BB622
:101C60000F921BBE2F933F934F935F936F937F937E
:101C70008F939F93AF93BF93EF93FF938FDF8093E7
:101C8000123C8091123C1F928F9386ED90E29F93BD
:101C90008F930E949A650F900F900F900F90FF9175
:101CA000EF91BF91AF919F918F917F916F915F91D4
:101CB0004F913F912F910F900BBE0F9009BE0F9047
:101CC00008BE0F900FBE0F901F9018951F920F9295
:101CD0000FB60F92112408B60F9218BE09B60F92D4
:101CE00019BE0AB60F921ABE0BB60F921BBEEF9228
:101CF0000F931F932F933F934F935F936F937F9314
:101D00008F939F93AF93BF93EF93FF93CF93DF9303
:101D10001F921F92CDB7DEB7EE24E3948E010F5FC2
:101D20001F4F21E242E350E06AE580E894E00E9420
:101D3000CB1A89818093133C8091133C1F928F931F
:101D400088EE90E29F938F930E949A650F900F9078
:101D50000F900F900F900F90DF91CF91FF91EF9127
:101D6000BF91AF919F918F917F916F915F914F91B3
:101D70003F912F911F910F91EF900F900BBE0F90FD
:101D80000ABE0F9009BE0F9008BE0F900FBE0F90B5
:101D90001F901895E0E7F0E080818B61808383815C
:101DA0008760838384818760848385818560858360
:101DB0008381886783838481886384838581806548
:101DC0008583818183608183828184608283089599
:101DD000809170008F7B8093700082E08093F13B54
:101DE00088ED84BF8BE0809343008091010480FDE7
:101DF000FCCF80E897E080930A0490930B0482E084
:101E000080930204109208041092090410920C04AA
:101E100010920D0487E08093000408958C3391059F
:101E200030F425E0880F991F2A95E1F702C080E879
:101E300097E0809308049093090408951092062077
:101E400008956F927F928F929F92AF92BF92CF929E
:101E5000DF92EF92FF920F931F93CF93DF931F9226
:101E60001F92CDB7DEB7782E662E70E080E090E04E
:101E70008E010F5F1F4F78013AE0832E912CA12C29
:101E8000B12C67012FEFC21AD20AA50194010E945A
:101E90004C62605DF7016083B901CA01611571058B
:101EA0008105910511F07601ECCFC01AD10AC60167
:101EB0000197D801AC0DBD1DF8019F01201B310B0E
:101EC0002817390734F420813E9131932C930197E0
:101ED000F4CFF9E0F61520F0898190E399838A83A5
:101EE00000E0711004C028E040E160E003C029E098
:101EF00040E167E080E00E94A71DE72CF12C01E0A3
:101F000021E030E04981B70182E090E00E94AA1E02
:101F100021E030E04A81B70189E090E00E94AA1EEA
:101F20000F900F90DF91CF911F910F91FF90EF9045
:101F3000DF90CF90BF90AF909F908F907F906F90E9
:101F4000089510927D3A60911F3B80E07ADF6091A6
:101F5000203B89E076DF81E08093062008951F9280
:101F60000F920FB60F92112408B60F9218BE09B641
:101F70000F9219BE0BB60F921BBE2F933F934F9338
:101F80005F936F937F938F939F93AF93BF93CF9301
:101F9000EF93FF938091883A9091893AA0918A3A81
:101FA000B0918B3A0196A11DB11D8093883A909310
:101FB000893AA0938A3AB0938B3A60911F3B6F5F46
:101FC00060931F3B6C3308F467C010921F3B8091F5
:101FD0000620882329F060E080E033DF0E942E1D78
:101FE0006091203B6F5F6093203B683108F449C0EB
:101FF0008091223B91E0980F9093223B873068F0CC
:1020000081E08093223B9091233B21E0290F209394
:10201000233B953310F08093233BC091213B81E01B
:102020008C0F8093213B6091253B7091263B8091E2
:10203000243B0E94FC5BC817E0F081E08093213BC9
:102040009091243B21E0290F2093243B9C3088F081
:102050008093243B4091253B5091263B4F5F5F4F3F
:102060004093253B5093263B61E00E94145C809393
:10207000233B1092203B80910620882351F060E0A2
:1020800004C080910620882321F089E0DADE0E94D6
:102090002E1D10921F3B08C080910620882321F03E
:1020A00080E0CFDE0E942E1D8091F13B813071F4E3
:1020B0009091203B80911C3B981308C090911F3B4E
:1020C00080911B3B981302C01092F13BFF91EF915E
:1020D000CF91BF91AF919F918F917F916F915F91C0
:1020E0004F913F912F910F900BBE0F9009BE0F9013
:1020F00008BE0F900FBE0F901F901895FF920F9380
:102100001F93CF93DF938C01F62E60E254D6EC013F
:1021100097FD21C060E3C8014ED68130910519F0CA
:1021200097FFF8CF20C0FF2031F060E2C80143D60E
:102130008C179D0791F44F2D68E1C8011ED60097BA
:1021400091F4FF2071F060E2C80135D68C179D072D
:1021500041F4D7FFF8CFCE0106C097FD04C0EC01D3
:10216000D9CF80E090E0DF91CF911F910F91FF9048
:102170000895CF92DF92EF920F931F93CF93DF9347
:102180001F921F92CDB7DEB76C018091602E9091A7
:10219000612EF6018283938382E0E82E8E010F5F29
:1021A0001F4F26E242E350E06AE580E894E00E9497
:1021B000CB1A8A8190E0982F88272981822BF601FB
:1021C0008287938728E242E350E06AE580E894E062
:1021D0000E94CB1A8A8190E0982F88272981822B30
:1021E000F601848795872AE242E350E06AE580E8B9
:1021F00094E00E94CB1A8A8190E0982F8827298149
:10220000822BF6018687978724E242E350E06AE555
:1022100080E894E00E94CB1A8A8190E0982F88276A
:102220002981822BF6018087918722E242E350E0E8
:102230006AE580E894E00E94CB1A8A8190E0982FAA
:1022400088272981822BF6018683978380E00F906F
:102250000F90DF91CF911F910F91EF90DF90CF9072
:10226000089560E04BCF6FE049CFCF92DF92EF92BD
:10227000FF920F931F93CF93DF931F921F92CDB7BF
:10228000DEB78C01D62EC42E60E3C80194D5813010
:10229000910519F097FFF8CF1DC060E2C8018BD5FA
:1022A0007C01C9826D2D6F7160566A839E012F5F1C
:1022B0003F4F42E067E1C8019BD5009759F460E2C7
:1022C000C80179D58E159F05D1F31816190614F497
:1022D00080E090E00F900F90DF91CF911F910F91D0
:1022E000FF90EF90DF90CF900895CF93DF93EC01B4
:1022F00060E2CE0160D5892B19F0CE01B2DFF8CFB4
:102300006BE0CE01FBDE60E2CE0155D5892BD9F31F
:1023100060E2CE0150D5019759F780E090E0DF915F
:10232000CF9108950F931F93CF93DF938C0140E0DB
:1023300068E023D5EC01C801D8DFC80FD91F40E001
:1023400068E0C8011AD5C80FD91F40E064E0C80191
:1023500014D5C80FD91F40E065E0C8010ED5C80FDD
:10236000D91F40E066E0C80108D5C80FD91F40E07A
:1023700063E0C80102D5C80FD91F4FEF61E2C80161
:10238000FCD4C80FD91F41E068E1C801F6D4C80FDA
:10239000D91F3FD547E167E0C801EFD48C0F9D1FDF
:1023A000DF91CF911F910F9108950F931F93CF93BA
:1023B000DF938C0140E068E0E0D4EC0140E06AE0AB
:1023C000C801DBD4C80FD91F40E069E0C801D5D4EB
:1023D000C80FD91FC801A6DFC80FD91F43E06FE09F
:1023E000C801CBD4C80FD91F41E361E0C8013DDF6C
:1023F000C80FD91F43E063E0C801BFD4C80FD91F7D
:1024000045E064E0C801B9D4C80FD91F43E365E0D3
:10241000C801B3D4C80FD91F43E067E0C80125DF66
:10242000C80FD91F43E06EE0C8011FDFC80FD91FD6
:1024300040E06BE0C80119DFC80FD91F41E062E03E
:10244000C80113DFC80FD91F40E76AE0C8010DDFDC
:10245000C80FD91F44E06CE0C80107DFC80FD91FBF
:1024600040E06EE1C80101DFC80FD91F40E061E123
:10247000C801FBDEC80FD91F40E76DE1C801F5DEDA
:10248000C80FD91F40E760E1C801EFDEC80FD91FB0
:1024900040E26FE1C801E9DEC80FD91F40E262E106
:1024A000C801E3DEC80FD91F48E661E1C80165D461
:1024B000C80FD91F41E062E1C8015FD4C80FD91F1E
:1024C0004EE56BE0C80159D4C80FD91F41E06CE05C
:1024D000C80153D4C80FD91F40ED6DE0C8014DD4D9
:1024E000C80FD91F47E06EE0C80147D4C80FD91FF5
:1024F00040EA68E0C80141D4C80FD91F48E06AE04B
:10250000C8013BD4C80FD91F48E069E0C80135D4E1
:10251000C80FD91FC801A7DE8C0F9D1FDF91CF9177
:102520001F910F9108958AE590E0FCDE2FEF81EE78
:1025300094E0215080409040E1F700C000008AE51F
:1025400090E033DF0FCB0F931F93CF93DF938C017A
:1025500040E068E012D4EC0140E06AE0C8010DD42C
:10256000C80FD91F40E069E0C80107D4C80FD91FC0
:10257000C801D8DEC80FD91F4FEF6FE0C801FDD3E7
:10258000C80FD91F40E060E1C801F7D3C80FD91FB9
:1025900047E761E0C80169DEC80FD91F41E063E089
:1025A000C801EBD3C80FD91F4DE164E0C801E5D3E2
:1025B000C80FD91F40E065E0C801DFD3C80FD91F9D
:1025C00040E066E0C801D9D3C80FD91F43E067E0F7
:1025D000C8014BDEC80FD91F43E068E0C80145DEE3
:1025E000C80FD91F43E069E0C8013FDEC80FD91FFB
:1025F00043E06EE0C80139DEC80FD91F40E06BE050
:10260000C80133DEC80FD91F40E06EE1C8012DDEDE
:10261000C80FD91F40E061E1C80127DEC80FD91FEC
:1026200041E262E0C80121DEC80FD91F44E063E047
:10263000C8011BDEC80FD91F40E76AE0C80115DEDC
:10264000C80FD91F40E76DE1C8010FDEC80FD91FC1
:1026500040E760E1C80109DEC80FD91F44E06CE023
:10266000C80103DEC80FD91F40E26FE1C801FDDDDC
:10267000C80FD91F40E262E1C801F7DDC80FD91FBA
:1026800044E968E0C80179D3C80FD91F48E06AE07F
:10269000C80173D3C80FD91F48E069E0C8016DD3E2
:1026A000C80FD91FC801DFDD8C0F9D1FDF91CF91AF
:1026B0001F910F910895E0E7F0E083818D7F838380
:1026C000E0E4F8E081E0808390E896A39CE097A3A3
:1026D00086838AE590E026DE2FEF81EE94E021509C
:1026E00080409040E1F700C000008AE590E02BCFE9
:1026F000EF92FF920F931F93CF93DF93EC01DBDFF9
:1027000080E88093072060E08AE391E20E947B1FCB
:10271000AFE5EA2EA1E2FA2E01E024E044E066E013
:1027200086E00E94A71D00E022E042E067E087E02B
:102730000E94A71D0E942E1DCE011BDD8B858F934D
:102740008A858F93FF92EF920E949A658A859B8576
:102750000F900F900F900F90893E23E09207E0F6C4
:102760008093803A9093813A8FEF97EA21E68150E7
:1027700090402040E1F700C0000001E810E0015067
:1027800011090115110569F08091602E9091612E5B
:102790008A839B83CE01EDDCBE018AE590E0CDD13A
:1027A000EECFDF91CF911F910F91FF90EF900895A1
:1027B0001F920F920FB60F92112408B60F9218BEF7
:1027C0008F939F938091602E9091612E01968093BC
:1027D000602E9093612E9F918F910F9008BE0F9065
:1027E0000FBE0F901F9018958F929F92AF92BF923D
:1027F000CF92DF92EF92FF924091712E5091722E04
:102800006091732E7091742EFC01C084D184452B8D
:10281000462B472B61F4C601A0E0B0E08093712EF7
:102820009093722EA093732EB093742E06C0F1E88D
:10283000CF16FBEBDF0608F047C0E12CF12C20910E
:10284000712E3091722E4091732E5091742EDA01B8
:10285000C901B695A795979587954C015D01820EA4
:10286000931EA41EB51EC814D904EA04FB0420F567
:1028700049015A01881A990AAA0ABB0A8C149D04B4
:10288000AE04BF04C8F4A3E0B0E00E9483626C0D04
:102890007D1D8E1D9F1D22E09695879577956795E6
:1028A0002A95D1F76093712E7093722E8093732EB8
:1028B0009093742E81E009C0C092712ED092722E36
:1028C000E092732EF092742E80E0FF90EF90DF90F4
:1028D000CF90BF90AF909F908F9008950F931F93CC
:1028E000CF93DF93EB01FA018130F1F100F18230F7
:1028F00009F056C00E851F85A281888599859801AB
:1029000040E050E0280F391F411D511D3250410950
:102910005109B0E00E94836220E137E240E050E0DC
:102920000E944C62200F311F2E873F8739C00A85D5
:102930001B85A08188859985980140E050E0280F8B
:10294000391F411D511D325041095109B0E00E940B
:10295000836220E137E240E050E00E944C62200FA9
:10296000311F2A873B871CC00C851D85A181888566
:102970009985980140E050E0280F391F411D511DF5
:10298000325041095109B0E00E94836220E137E2F0
:1029900040E050E00E944C62200F311F2C873D87A1
:1029A000DF91CF911F910F910895CF92DF92EF9217
:1029B000FF920F931F93CF93DF93813049F028F05C
:1029C000823049F4625F7F4F25C0665F7F4F22C02F
:1029D000645F7F4F1FC010926B2E10926C2E10926E
:1029E0006D2E10926E2E10926F2E1092702E1092ED
:1029F000652E1092662E1092672E1092682E1092FD
:102A0000692E10926A2E1092622E1092632E1092EE
:102A1000642E8AC0C82ED12CF601EE0FFF1FEF01E5
:102A2000C559D14D88819981DB016D917C91892BAC
:102A300071F4CF018B58914DDC018D919C916817F9
:102A4000790718F46883798302C088839983EF013A
:102A5000CB58D14D888199816817790708F04DC00E
:102A6000EF01C559D14D0990D881C02D27E02C9F89
:102A7000C0012D9F900D11248B0120E030E0080F44
:102A8000191F211D311DA3E0369527951795079530
:102A9000AA95D1F7C801B6E096958795BA95E1F762
:102AA0007C01E00EF11EEC16FD0610F1D801A81B0A
:102AB000B90BCA17DB07E0F0EF01CB59D14DE88025
:102AC000F980D601AE59B14DE114F10471F0E6166A
:102AD000F70658F08C918F5F8C93813448F081E039
:102AE000E81AF108E882F98202C0688379831C92AF
:102AF000DF01A559B14D0D931C93DF01AB59B14DC9
:102B00008D919C91DF01AC5EB34C009729F0480F8A
:102B1000591F4D935C9308C0E559F14D8081918117
:102B2000840F951F8D939C93DF91CF911F910F91EF
:102B3000FF90EF90DF90CF900895EF92FF920F9368
:102B40001F93CF93DF937C01EB018091752E9091C1
:102B5000762E892BA1F48091772E9091782E892B57
:102B600071F48091792E90917A2E892B41F4809185
:102B70000F20803821F486E791E20E94AB658091B6
:102B80000F20882309F48AC0823048F18A859B850A
:102B90002091752E3091762E2817390720F48093D6
:102BA000752E9093762E8C859D852091772E309171
:102BB000782E2817390720F48093772E9093782E5B
:102BC0008E859F852091792E30917A2E281739078E
:102BD00008F05EC08093792E90937A2E59C0809130
:102BE0007A2E8F938091792E8F938091782E8F9368
:102BF0008091772E8F938091762E8F938091752E72
:102C00008F9381EC91E29F938F930E949A656091DC
:102C10000D2070910E20660F771F4091752E5091F8
:102C2000762E460F571F4093752E5093762E209187
:102C3000772E3091782E260F371F2093772E3093E2
:102C4000782E8091792E90917A2E860F971F8093FF
:102C5000792E90937A2E4093143C5093153C2093F8
:102C6000163C3093173C8093183C9093193C40934A
:102C7000823A5093833A2093843A3093853A8093F2
:102C8000863A9093873A8DB79EB708968DBF9EBFC0
:102C900080910F20815080930F2067C08A859B858B
:102CA00081389B4B50F48C859D8581389B4B28F453
:102CB0008E859F8581389B4B50F084E092E2DF91B6
:102CC000CF911F910F91FF90EF900C94AB65CE01C7
:102CD0008BDD882309F449C00A851B858885998581
:102CE000980140E050E0280F391F411D511D32501E
:102CF00041095109A0910820B0E00E94836220E1BF
:102D000037E240E050E00E944C62200F311F2A87DA
:102D10003B8748E050E2BE0181E0E0DD48E050E260
:102D2000BE0182E0DBDD40910D2050910E20BE01FE
:102D300080E03BDE40910D2050910E20BE0181E0ED
:102D400034DE40910D2050910E20BE0182E02DDE38
:102D500040910B2050910C20BE01C701DF91CF9113
:102D60001F910F91FF90EF904DC1DF91CF911F9177
:102D70000F91FF90EF9008950895EF920F931F9396
:102D8000CF93DF931F92CDB7DEB7262F4983EE2472
:102D9000E3948E010F5F1F4F48EE53E06AE580E831
:102DA00094E04AD480E090E00F90DF91CF911F91A2
:102DB0000F91EF900895EF920F931F93CF93DF93AE
:102DC0001F92CDB7DEB7262FEE24E3948E010F5F5E
:102DD0001F4F48EE53E06AE580E894E0DCD3898138
:102DE00090E00F90DF91CF911F910F91EF90089598
:102DF000EF920F931F938901E42E262F48EE53E0A4
:102E00006AE580E894E018D490E01F910F91EF906C
:102E100008952FEF89EF90E0215080409040E1F736
:102E200000C000000895FF920F931F93CF93DF938C
:102E3000CDB7DEB7C25AD109CDBFDEBF42E1E4E271
:102E4000F0E2DE01AF56BF4F01900D924A95E1F7D7
:102E500042E1E6E3F0E2DE01A158BF4F01900D929E
:102E60004A95E1F742E1E8E4F0E2DE01A359BF4F01
:102E700001900D924A95E1F742E1EAE5F0E2DE01C8
:102E8000A55ABF4F01900D924A95E1F742E1ECE659
:102E9000F0E2DE01A75BBF4F01900D924A95E1F78A
:102EA00042E1EEE7F0E2DE01D79601900D924A95FD
:102EB000E1F742E1EAE5F0E2DE01959601900D923C
:102EC0004A95E1F742E1ECE6F0E2DE01539601902B
:102ED0000D924A95E1F742E1EEE7F0E2DE0111964C
:102EE00001900D924A95E1F7613019F5FE01E35921
:102EF000FF4F40E050E0F42E61917191681779071F
:102F000090F4440F551FEFE7F0E0EC0FFD1FE40FC6
:102F1000F51F20813181DC010E9474628B019C01CC
:102F2000E1E9F0E023C04F5F5F4F4930510519F7E9
:102F300051C0623041F5FE01F79640E050E0F42EBA
:102F40006191719168177907C0F4440F551FE9E446
:102F5000F0E0EC0FFD1FE40FF51F20813181DC0153
:102F60000E9474628B019C01EBE5F0E0EC0FFD1F09
:102F7000E40FF51F8081918124C04F5F5F4F49307E
:102F80005105E9F627C0633089F5FE01319640E02E
:102F900050E0F42E6191719168177907B0F4FA014D
:102FA000EE0FFF1F21E030E02C0F3D1FE20FF31F5B
:102FB00022893389DC010E9474628B019C0184A107
:102FC00095A18C01021B130B07C04F5F5F4F493067
:102FD0005105F9F689E0F82E0B3F110518F489E048
:102FE000F81202C00AEF10E0C80102C08FEF9FEF95
:102FF000CE55DF4FCDBFDEBFDF91CF911F910F9137
:10300000FF9008952F923F924F925F927F928F92FE
:103010009F92AF92BF92CF92DF92EF92FF920F9367
:103020001F93CF93DF93CDB7DEB7AE97CDBFDEBF93
:103030007B015A01DB0112968D919C9113976AE0F6
:1030400070E00E9425628B0184E1E0E9F0E2DE019C
:10305000119601900D928A95E1F78AE0E4EAF0E298
:10306000DE01559601900D928A95E1F788E0EEEA2F
:10307000F0E2DE01979601900D928A95E1F788E0E3
:10308000E6EBF0E2DE015F9601900D928A95E1F7A2
:10309000F701828593852091143C3091153C821B69
:1030A000930B97FF02C080E090E061E09C01A29E3C
:1030B000C001A39E900DB29E900D1124B4DE4C0170
:1030C000D7011C968D919C911D972091163C3091B3
:1030D000173C821B930B97FF02C080E090E061E0F9
:1030E000FC01EA9DC001EB9D900DFA9D900D11240D
:1030F0009ADE5C019401D4010E9474621B012C01D0
:10310000F8EE2F0EF0E83F1E411C511C9501D50131
:103110000E947462261A370A480A590A57FC03C0EB
:10312000A201910103C020E030E0A901CA01B90168
:103130002CE330E040E050E00E944C622E3464E02A
:10314000360710F02DE434E08091102091EF8916BD
:10315000910420F4A1EFAA16B104B0F1882311F074
:10316000E0E01EC060918F2E7091902E60938D2EA6
:1031700070938E2EE0918B2EF0918C2EC8018E1BB9
:103180009F0BC3978231914058F7F5E47F2E7E0E56
:10319000701AC090892ED0908A2EC61AD70AE1E004
:1031A00081E08093102080918D2E90918E2E873219
:1031B000924018F02DE434E002C020E030E00093AB
:1031C000872E1093882E11C0813041F42093892ED0
:1031D00030938A2E00938B2E10938C2E10921020F9
:1031E00020938F2E3093902EE0E05901C90169E4BD
:1031F00070E00E9425624FE050E0461B570BD7015C
:1032000057FF03C053961C9202C053964C93E13073
:1032100009F063C0B7E9CB16D10454F11092862EA1
:1032200020E0822F90E0FC01E258F14DA7E2B0E0EF
:10323000AC0FBD1FA80FB91F8C91808381E0820F56
:10324000883010F4282FEDCF8093862EDF92CF9216
:103250001F927F928DE792E29F938F9388E892E28C
:103260009F938F930E949A6582E0F701828B32C010
:103270003AE6C3163FEFD3069CF51092862E20E067
:10328000822F90E0FC01E258F14DAFE1B0E0AC0FCD
:10329000BD1FA80FB91F8C91808381E0820F8830F9
:1032A00010F4282FEDCF8093862ED194C194D108AD
:1032B000DF92CF921F927F9280EB92E29F938F9347
:1032C00088E892E29F938F930E949A6581E0D701EC
:1032D00052968C93CDBFDEBF03C0D70152961C928D
:1032E000FE01319620E081919191A816B90618F05F
:1032F0002F5F2A30C1F780917D2E281304C029301A
:1033000011F0211104C00093872E1093882E209372
:103310007D2EE091862EEE23E1F080917B2EB02F62
:10332000B81BB73208F464C000937B2E10937C2E38
:10333000E150E093862EE770F0E0E258F14D6081B5
:1033400070E081E090E018DD0093872E1093882EC6
:103350004FC08091872E9091882EF801E81BF90BC1
:10336000CF018A38924008F443C000937B2E10931B
:103370007C2E1092862EE0E06FEF30E0CE01459675
:10338000820F931FAE2FB0E0A258B14D6C93A1E015
:10339000AE0FB0E0A258B14D6C93DC015C91A2E09D
:1033A000AE0FB0E0A258B14D5C9344E04E0FED5F1C
:1033B000F0E0E258F14D5083483010F4E42FE2CFB2
:1033C00080E18093862E2F931F928CEB92E29F9345
:1033D0008F9382EC92E29F938F930E949A6583E091
:1033E000F701828B0F900F900F900F900F900F901E
:1033F000AE96CDBFDEBFDF91CF911F910F91FF90B1
:10340000EF90DF90CF90BF90AF909F908F907F9084
:103410005F904F903F902F900895E0E7F0E0838118
:10342000877F8383E0E4F6E080EB818388E4828316
:1034300080E1858388E1838B848B858B868B878B6A
:10344000E0E2F6E082E08183868380ED8093C0082D
:1034500008951092C008E0E4F6E088EF828380E1EE
:10346000838B848B858B868B878BE0E2F6E082E012
:1034700081838583E0E7F0E083818860838308951A
:103480008093C30880E090E02091C20827FD05C02A
:1034900001970097C9F780E008958091C3080895C7
:1034A000E0E7F0E083818F7B8383E0E8F4E0128241
:1034B00089E0858388E0818381E084830895FC012D
:1034C000668324E6249FC001259F900D1124009758
:1034D000B9F02481322F3874383411F466830AC06D
:1034E000322F3075303521F487E0838384E00895EE
:1034F000207C61F42AE62A95F1F700C00197E7CF16
:10350000848185FF05C087E0838302C081E0089540
:1035100083E00895FC01478324E6269FC001279F8E
:10352000900D1124248126FD08C0009731F02AE671
:103530002A95F1F700C00197F5CF848186FF06C078
:1035400084818295817091E08927089580E00895B3
:10355000FC0184818C708C30E1F034E6369FC00130
:10356000379F900D1124348137FD08C0009731F04A
:103570003AE63A95F1F700C00197F5CF8781DA0175
:103580008C93222311F087E001C082E0838381E0E5
:10359000089580E008958F929F92AF92BF92CF924C
:1035A000DF92EF92FF920F931F93CF93DF931F92BF
:1035B000CDB7DEB74C01F62E6A01660F29837FDF97
:1035C0002981813041F5422FB601C401A3DF882350
:1035D00021F16F2D660F6160A601C40170DF81309B
:1035E00021F087E0F401838316C0FF24FA94FE0CD7
:1035F0008FEFF816B1F35801FFEFAF1ABF0A21E0C1
:10360000F11020E0A801B601C401A2DFFA948823DA
:1036100041F38501EDCF8E2D01C086E00F90DF9143
:10362000CF911F910F91FF90EF90DF90CF90BF90BF
:10363000AF909F908F9008958F929F92AF92BF927C
:10364000CF92DF92EF920F931F93CF93DF931F924E
:10365000CDB7DEB74C015A01660F298330DF2981CF
:103660008130E1F4422FB501C40154DF8823C1F059
:1036700068011FEF1E0D1F3F61F0F60141916F01C0
:10368000B501C40147DF9FEF910F882311F0192F77
:10369000F2CF87E0F4018383812F03C08E2D01C018
:1036A00086E00F90DF91CF911F910F91EF90DF9007
:1036B000CF90BF90AF909F908F900895E0E7F0E09B
:1036C00084818F7E8483E0E6F6E084E0828388E074
:1036D000818388E1828B838BE0EAF9E090E2938337
:1036E0009EE2968398E9978393E095838483089577
:1036F000E0E7F0E084818F7D8483E0E6F6E080E41B
:10370000828380E8818388E1868B878BE0EBF9E018
:1037100013829EE2968398E9978393E0958384834E
:103720000895E0EAF9E01482E0E6F6E08CE08283B6
:1037300080E1828B838BE0E7F0E084818061848389
:1037400008959091A10995FFFCCF8093A009089559
:103750009091B10995FFFCCF8093B00908958091B5
:10376000B10987FFFCCF8091B00908951F920F9295
:103770000FB60F92112408B60F9218BE8F939F9325
:103780008091912E9091922E019759F48FEF9FE0A6
:1037900080933803909339031092912E1092922EB9
:1037A0000AC0109238031092390381E090E08093B0
:1037B000912E9093922E9F918F910F9008BE0F9013
:1037C0000FBE0F901F901895CF93DF93CDB7DEB744
:1037D0006497CDBFDEBF0E94D2080E94CA0E26D1D8
:1037E00038DE9FDF80E00E94630D80914800866094
:1037F000809348000E94CE0D8093123C0E9486095F
:10380000882321F08091123C813011F40E946A5487
:103810006FDF81E190E28093513D9093523D809320
:10382000533D9093543D86EE92E20E94AB6582E157
:1038300093E20E94AB6542DF8DE293E20E94AB65AA
:1038400086E393E20E94AB6587E08093A2007894C0
:103850008DE293E20E94AB658DE493E20E94AB653A
:103860000E9452528DE293E20E94AB6580E894E0A0
:1038700017DECE0101960E9478130E94931280E019
:10388000EFD00E94A10FEAD00E94E80E0E947C09AE
:10389000FF24F39482E0E82EDD24D3948091133C3E
:1038A000843009F040C010927D3A0E94C00D88E03B
:1038B000D7D08BE693E20E94AB650E945B1300E0D9
:1038C00010E0CE0101960E94B910BE016F5F7F4FDC
:1038D0008AE590E032D9CE0101960E9475588B8519
:1038E0009C85883E934020F080E090E08C01E9CFF9
:1038F000C8010196013E1E42C8F30E947C0988E877
:1039000093E20E94AB6580917D3A882321F0C0D478
:103910000E94A10F9DD480917F3AA2D00E94B20D47
:103920000E94931227C08091133C813029F48EEAC3
:1039300093E20E94AB651EC08091123C843091F4EA
:10394000FF2011F09FD401C07CD08FEF97EA21E6D1
:10395000815090402040E1F700C000001092123CDE
:10396000FD2408C08091F13B811104C0E092F13B3D
:103970000E94D8541092133C80914800816080933B
:10398000480088958BCF8F929F92AF92BF92EF9213
:10399000FF920F931F93CF93DF9397FD03C0C0E077
:1039A000D0E00BC090958095709561957F4F8F4FBB
:1039B0009F4F2DE220B9C1E0D0E07E012AE0822EA7
:1039C000912CA12CB12C87010F5F1F4FA5019401F1
:1039D0000E944C62605DF7016083B901CA01611504
:1039E00071058105910511F07801EDCFD801AC1B6F
:1039F000BD0BCD010197AC0FBD1FFE019F012C1B1C
:103A00003D0B2817390734F420813E9131932C93D4
:103A10000197F4CFC801DF91CF911F910F91FF90D3
:103A2000EF90BF90AF909F908F90089584E20E9496
:103A3000500A8FE00E94750A0E94EA0983E00C9404
:103A40003E0A83E00E943E0A0E94A10F0C947C0C67
:103A50000C94E0090C94EA090C94F3090C941A0AEA
:103A60001F93CF93DF93C82FD0912220D817C8F48B
:103A7000DF5F11E0180FD11771F08D2F0E94750ACA
:103A80002FEF86E791E0215080409040E1F700C0A1
:103A90000000DF5FF0CFC0932220DF91CF911F9114
:103AA00008958D17C0F7D1501FEF180FD11799F354
:103AB0008D2F0E94750A2FEF86E791E021508040FC
:103AC0009040E1F700C00000D150F0CF81E0C8DFA6
:103AD0008FE0C6DF81E0C4DF8FE0C2CF9C01803180
:103AE0009105A4F5603171058CF58FE090E0861B9F
:103AF000970B68E170E00E9439628830910534F0DC
:103B00008031910534F467E870E005C067E070E04B
:103B100002C067E071E087709927681B790B283035
:103B200031051CF4220F331F04C0220F331F2F5006
:103B30003109C90133E0880F991F3A95E1F7860FE3
:103B4000971F41110C94B7090C94CB090895AF92BB
:103B5000BF92CF92DF92EF92FF920F931F93CF937A
:103B6000DF93A62E182FC42FD0E0C80FD11DE22E50
:103B7000F12CE60EF11CC12ED12CCC16DD066CF416
:103B8000BA2C6B2D70E06E157F052CF4402FC6010A
:103B9000A5DFB394F6CF1F5FEECFDF91CF911F91DA
:103BA0000F91FF90EF90DF90CF90BF90AF9008956E
:103BB0000F9301E021E041E06091212080912020DD
:103BC000C6DF9091212080912020973020F089300D
:103BD00051F491500DC0963041F4873030F081504F
:103BE0008093202017C0993030F4863099F49F5F7D
:103BF000909321200FC0993069F4893058F48F5F79
:103C000080932020893031F480911F2091E0892712
:103C100080931F2000E021E041E06091212080910D
:103C2000202095DF0F910C941A0A2F923F924F9209
:103C30005F926F927F928F929F92AF92BF92CF923C
:103C4000DF92EF92FF920F931F93CF93DF9300D0F9
:103C50001F92CDB7DEB76A01302FF12C4424439474
:103C6000512CA62EB12C282E312CF316B1F18F2D0C
:103C70008770320102C0660C771C8A95E2F71B82BE
:103C80001C828F2D8695869586954601829F800C95
:103C9000911C112485010F0D111D9B819217D8F4E1
:103CA000EB81FC81E80DF91DE491F0E0E621F721BC
:103CB000EF2B59F04E2DB8018B819C81820D931D05
:103CC00029833A830BDF3A8129818B819C8101967C
:103CD0008B839C83E2CFF394C8CF2496CDBFDEBF05
:103CE000DF91CF911F910F91FF90EF90DF90CF90D8
:103CF000BF90AF909F908F907F906F905F904F900C
:103D00003F902F90089525E0629FB0011124480F45
:103D1000591F80E090E06C57774FFB01E80FF91FC7
:103D2000E491E2952E2F2373A4E02A9F90011124A1
:103D3000EC7CE695E695E22B2E2F2575220FEA7A8C
:103D4000E695E22BDA01ED93AD0101968530910500
:103D500021F708952F923F924F925F926F927F9238
:103D60008F929F92AF92BF92CF92DF92EF92FF928B
:103D70000F931F93CF93DF93CDB7DEB72597CDBFBA
:103D8000DEBF8983322E102F9C015C0185E0A80ED6
:103D9000B11CE62F97E0099FE00D1124EA832C83E4
:103DA0003D83512C54E8E52E58E0F52EE21AF30A33
:103DB000F5E04F9FE00CF11C11244B0186E0880ECA
:103DC000911C3B0191E0691A7108EC81FD81EE0DB7
:103DD000FF1D4490E981E50DEB836401212C40FE39
:103DE00011C0113041F48C819D8197FD0BC0432D92
:103DF000B60174DE07C0032D212F412F6A81620DA9
:103E00008B81A5DE469491E0C91AD108211AC61407
:103E1000D70429F7EC81FD813196EC83FD83510EA7
:103E2000EA15FB0591F62596CDBFDEBFDF91CF9158
:103E30001F910F91FF90EF90DF90CF90BF90AF90C8
:103E40009F908F907F906F905F904F903F902F90BA
:103E50000895AF92BF92CF92DF92EF92FF920F93AD
:103E60001F93CF93DF93CDB7DEB72597CDBFDEBFCE
:103E700026E0629FB00111248E010F5F1F4F20E0EA
:103E800030E06C577D4F0396480F591FE5E0EE2E4A
:103E9000F12CFB01E20FF31F849182958F70F801E2
:103EA00081938F01FA01B82E80E090E06701C21A79
:103EB000D30AAB2DA1700C2C01C0AA0F0A94EAF70B
:103EC000A290AA2AA082B69401968330910589F720
:103ED0002F5F3F4F25303105E1F62596CDBFDEBF80
:103EE000DF91CF911F910F91FF90EF90DF90CF90D6
:103EF000BF90AF9008959F92AF92BF92CF92DF9202
:103F0000EF92FF920F931F93CF93DF938C01962E26
:103F1000662371F0FC0101900020E9F73197E81B5E
:103F2000F90B86E08E9FE0018F9FD00D11240BC00E
:103F3000EC0109900020E9F72197C81BD90BCC0FA1
:103F4000DD1FCC0FDD1F61E070E0CE010E948D62AD
:103F50007C01A12CB12CC12CD12CF80161918F01D5
:103F6000662379F0A701992019F0C601CCDE02C0C2
:103F7000C5016FDF86E0C80ED11CE4E0AE0EB11CB7
:103F8000ECCFBE01C7010E940E0DC701DF91CF919A
:103F90001F910F91FF90EF90DF90CF90BF90AF9067
:103FA0009F900C943F632F923F924F925F926F923B
:103FB0007F928F929F92AF92BF92CF92DF92EF92B9
:103FC000FF920F931F93CF93DF93CDB7DEB7289760
:103FD000CDBFDEBF5B012983102F26E0429F600129
:103FE0001124E82F37E0039FE00D1124EA83212CF0
:103FF0001F82188696012C573D4F6901FC013796A8
:10400000EC83FD832C01F1E04F1A51083B0123E0C2
:10401000620E711CEF81F885EC0DFD1D5491322D5F
:104020003A0D3B83EC80FD80312C43018F819885D4
:10403000881A990A50FF16C0113059F492E0E91617
:10404000F10484F04981B401C70102975E8346DD23
:1040500008C00981212F412F6B818A81830D5E83E6
:1040600076DD5E815695E1E0EE1AF108311AE4142E
:10407000F50401F72F8138852F5F3F4F2F83388755
:10408000211A2630310531F62896CDBFDEBFDF91EB
:10409000CF911F910F91FF90EF90DF90CF90BF9045
:1040A000AF909F908F907F906F905F904F903F90D8
:1040B0002F9008950F93CF93DF93EC0101E021E05F
:1040C00030E0488167E070E081E090E06CDF21E063
:1040D00030E0498167E070E085E090E064DF21E056
:1040E00030E04A8167E070E089E090E05CDF21E049
:1040F00030E04B8167E070E08DE090E054DFDF91CD
:10410000CF910F9108950F93CF93DF93EC0101E0CE
:1041100021E030E0488167E070E083E090E043DF39
:1041200021E030E0498167E070E087E090E03BDF2C
:1041300021E030E04A8167E070E08BE090E033DF1F
:10414000DF91CF910F9108958091932E8130E9F105
:10415000A8F1823009F448C0833009F065C082E2DA
:1041600090E00E94B70983E390E00E94B70984E4DD
:1041700090E00E94B70984E590E00E94B70985E6C7
:1041800090E00E94B70985E790E00E94B7098DE0B2
:1041900090E00E94B7098DE190E00E94B7098CE29F
:1041A00090E00E94B7098CE390E00E94B7098BE48D
:1041B00090E00E94B7098AE590E034C083EF90E078
:1041C0000E94B7098BE890E02DC085EE90E00E9438
:1041D000B70986EF90E00E94B7098EE890E00E9450
:1041E000B7098DE990E01EC087EC90E00E94B70906
:1041F00080E590E00E94B70981E690E00E94B7094F
:1042000081E790E00E94B70989E090E00E94B70939
:1042100089E190E00E94B70988E290E00E94B70926
:104220008FEB90E00E94B7098091932E91E0980F58
:104230009093932E843021F41092932E0C94EA09DB
:104240000C941A0A0C942C0B0C94880B0C94E40B11
:104250000C947C0CCF93CFE10E94B60AC150E1F7D9
:10426000CF910895CF93CFE10E947C0AC150E1F72E
:10427000CF910895CF93CFE10E94F00AC150E1F7AA
:10428000CF910895F7DF82E00E943E0A0C94670AFE
:10429000CF93CFE10E940E0BC150E1F7CF9108956B
:1042A00060911B3B6B3320F46F5F60931B3B04C03A
:1042B00081E080931B3B61E085E00E94210F0C941C
:1042C0001A0A60911B3B662321F0615060931B3BEF
:1042D00004C08AE380931B3B6AE385E00E94210FC0
:1042E0000C941A0A60911C3B673120F46F5F609355
:1042F0001C3B04C081E080931C3B61E085E00E9490
:10430000210F0C941A0A60911C3B662321F0615026
:1043100060931C3B04C086E180931C3B66E185E012
:104320000E94210F0C941A0A6091203B673120F4FF
:104330006F5F6093203B03C01092203B60E085E0FC
:104340000E94210F0C941A0A6091203B662321F0F1
:1043500061506093203B04C087E18093203B67E17C
:1043600085E00E94210F0C941A0A60911F3B6B3369
:1043700020F46F5F60931F3B03C010921F3B60E00F
:1043800085E00E94210F0C941A0A60911F3B66235E
:1043900021F0615060931F3B04C08BE380931F3B6F
:1043A0006BE385E00E94210F0C941A0ACF93C09111
:1043B000213B6091253B7091263B8091243B0E94DC
:1043C000FC5BC81730F46091213B6F5F6093213B29
:1043D00004C081E08093213B61E085E00E94210FD1
:1043E000CF910C941A0A6091213B623020F0615009
:1043F0006093213B0BC06091253B7091263B8091DF
:10440000243B0E94FC5B8093213B682F85E00E9447
:10441000210F0C941A0A8091243B8C3010F48F5F8A
:1044200001C081E08093243B0E94A05B6CDE0C9471
:104430001A0A8091243B823010F0815001C08CE038
:104440008093243B0E94A05B5EDE0C941A0AE5E296
:10445000FBE3608171816F5F7F4F6083718380E0D8
:1044600090E091DA80E090E025DE0C941A0AE5E213
:10447000FBE360817181615071096083718380E029
:1044800090E081DA80E090E015DE0C941A0ACF9378
:10449000DF93EC0182E1FE0111928A95E9F74883EE
:1044A00059836A837B832C873D878AE08F87232B00
:1044B00081F4CA010E94A7628C879D87892B31F401
:1044C000188219821A821B8281E007C08E85826061
:1044D0008E878E8581608E8780E0DF91CF910895F1
:1044E000CF92DF92EF92FF920F931F93FC01009700
:1044F000C9F10481158126813781C084D184E28489
:10450000F3840C151D052E053F0529F440815181CA
:104510006281738120C00C151D052E053F0538F4FE
:10452000B701A601401B510B620B730B03C040E0A7
:1045300050E0BA01C016D106E206F30660F44081ED
:104540005181628173814C0D5D1D6E1D7F1D401B6D
:10455000510B620B730BCB01BA01615071098109D8
:10456000910903C060E070E0CB011F910F91FF90B3
:10457000EF90DF90CF9008952F923F924F925F92ED
:104580006F927F928F929F92AF92BF92CF92DF9263
:10459000EF92FF920F931F93CF93DF9300D01F9260
:1045A000CDB7DEB71C018B01009729F460E070E005
:1045B00080E090E082C02115310541055105B1F33D
:1045C000FC0180809180A280B38084819581A68146
:1045D000B78188159905AA05BB0520F014821582BC
:1045E00016821782C10129833A834B835C8378DF6B
:1045F0006B017C0129813A814B815C8162177307D1
:104600008407950730F4611571058105910519F44A
:10461000CDCF69017A01F1014481558166817781AD
:10462000D501C401841B950BA60BB70B460157019E
:104630008C159D05AE05BF0510F44C015D01F1011F
:1046400084859585840F951FA401B8010E94C964D3
:10465000F10184819581A681B781880D991DAA1DDC
:10466000BB1D84839583A683B78326013701481831
:1046700059086A087B0869F0B801680D791DA20124
:10468000848595850E94C964F101448255826682C1
:104690007782F101448155816681778180819181A2
:1046A000A281B381481759076A077B0720F014825B
:1046B000158216821782B601C7012496CDBFDEBFD0
:1046C000DF91CF911F910F91FF90EF90DF90CF90EE
:1046D000BF90AF909F908F907F906F905F904F9022
:1046E0003F902F900895CF92DF92EF92FF920F9319
:1046F0001F93FC01009749F1C480D580E680F780C4
:1047000000851185228533850C151D052E053F0575
:1047100038F4D701C601801B910BA20BB30B03C069
:1047200080E090E0DC01C016D106E206F30688F4D2
:1047300060817181828193816C0D7D1D8E1D9F1D15
:10474000601B710B820B930B06C060E070E0CB0125
:1047500002C0BC01CD011F910F91FF90EF90DF903F
:10476000CF9008952F923F924F925F926F927F92D7
:104770008F929F92AF92BF92CF92DF92EF92FF9271
:104780000F931F93CF93DF9300D01F92CDB7DEB767
:104790001C018B01009729F460E070E080E090E05C
:1047A00082C02115310541055105B1F3FC0180801E
:1047B0009180A280B38080859185A285B38588157C
:1047C0009905AA05BB0520F010861186128613866E
:1047D000C10129833A834B835C8385DF6B017C01B4
:1047E00029813A814B815C816217730784079507A1
:1047F00030F4611571058105910519F4CDCF69017A
:104800007A01F10180859185A285B385B501A40166
:10481000481B590B6A0B7B0B460157014C155D0574
:104820006E057F0510F44A015B01F1016485758511
:10483000680F791FA401C8010E94C964F101808535
:104840009185A285B385880D991DAA1DBB1D808702
:104850009187A287B38726013701481859086A084B
:104860007B0869F0C801880D991D64857585A201D2
:104870000E94C964F1014086518662867386F10107
:10488000408551856285738580819181A281B38144
:10489000481759076A077B0720F010861186128691
:1048A0001386B601C7012496CDBFDEBFDF91CF913D
:1048B0001F910F91FF90EF90DF90CF90BF90AF903E
:1048C0009F908F907F906F905F904F903F902F9030
:1048D0000895009749F0FC01148215821682178210
:1048E000108611861286138608957F928F929F926A
:1048F000AF92BF92CF92DF92EF92FF920F931F93EE
:10490000CF93DF93EC01762E009771F1ECDE0885F2
:1049100019852A853B85C12CD12C7601C616D70670
:10492000E806F90609F188809980AA80BB800815FD
:1049300019052A053B0518F000E010E09801EC8508
:10494000FD85E00FF11F4081471104C03C2D2D2D46
:10495000C7010EC00F5F1F4F2F4F3F4F4FEFC41ABD
:10496000D40AE40AF40ADACF3FEF2FEF8FEF9FEF7C
:10497000632F722FDF91CF911F910F91FF90EF90D6
:10498000DF90CF90BF90AF909F908F907F900895D1
:104990002F923F924F925F926F927F928F929F924F
:1049A000AF92BF92CF92DF92EF92FF920F931F933D
:1049B000CF93DF93CDB7DEB76A97CDBFDEBF8D8BC8
:1049C0009E8B1B012F8B388F498F5A8F009709F4CC
:1049D000D3C089DE4F88588C698C7A8C6415750534
:1049E0008605970508F4C8C0AD89BE8918966D90F4
:1049F0007D908D909C901B9769827A828B829C829D
:104A000010E0198A1A8A1B8A1C8A611571058105B2
:104A1000910509F4B1C0AD89BE894D905D906D904E
:104A20007C9049865A866B867C8689809A80AB808A
:104A3000BC8084149504A604B70420F019821A825D
:104A40001B821C82ED89FE89A485B58529813A8166
:104A50002A0F3B1FF9012081F1013081231301C08E
:104A600011E029813A814B815C812F5F3F4F4F4F8D
:104A70005F4F29833A834B835C839B01AC012150B8
:104A80003109410951092D833E834F835887498855
:104A90005A886B887C883FEF431A530A630A730A6B
:104AA000112309F460C0C12CD12C7601C3949B0161
:104AB000AC012C193D094E095F092D833E834F83BC
:104AC00058878F88988CA98CBA8CC814D904EA04AA
:104AD000FB04C0F589809A80AB80BC8009851A856B
:104AE0002B853C8580169106A206B30620F019821C
:104AF0001A821B821C8229813A812A0F3B1FF901ED
:104B00001081F101EC0DFD1DE0811E1749F049886F
:104B10005A886B887C884C0C5D1C6E1C7F1C12C0F4
:104B200009811A812B813C810F5F1F4F2F4F3F4F0F
:104B300009831A832B833C831FEFC11AD10AE10A30
:104B4000F10AB5CF2F89388D498D5A8DC216D306FB
:104B5000E406F50639F4C301B20161507109810917
:104B600091090DC011E0498A5A8A6B8A7C8A6D814D
:104B70007E818F81988549CF6FEF7FEFCB016A9659
:104B8000CDBFDEBFDF91CF911F910F91FF90EF90CE
:104B9000DF90CF90BF90AF909F908F907F906F905D
:104BA0005F904F903F902F900895FB01019000205F
:104BB000E9F73197E61BF70B9F0140E050E0DCCCB2
:104BC0004F925F926F927F928F929F92AF92BF921D
:104BD000CF92DF92EF92FF920F931F93CF93DF93C9
:104BE000CDB7DEB72597CDBFDEBF5C018B01009747
:104BF00009F45DC02A833B834C835D8371DC2B0108
:104C00003C01C50170DD6B017C01611571058105F9
:104C1000910509F44CC0F5016785C50166DE2A815E
:104C20003B814C815D8197FF09C045284628472874
:104C300029F0C216D306E406F506C8F14801C12CD6
:104C4000D12C760129013A01F1E04F1A510861088F
:104C50007108C414D504E604F70488F421E030E0B8
:104C600040E050E0BE016F5F7F4FC5017BDD898171
:104C7000F40181934F01F501978589130BC0C4148A
:104C8000D504E604F70461F08FEFC81AD80AE80AE1
:104C9000F80A06C0FFEFCF1ADF0AEF0AFF0AD9CFE2
:104CA000F801EC0DFD1D1082B601C70104C060E0E3
:104CB00070E080E090E02596CDBFDEBFDF91CF9120
:104CC0001F910F91FF90EF90DF90CF90BF90AF902A
:104CD0009F908F907F906F905F904F900895FF927C
:104CE0000F931F93CF93DF93EB01FC0120812D32B3
:104CF00019F4019611E001C010E0FC0120E030E061
:104D0000A901F12EF81A8F2D8E0F019190ED900FC1
:104D10009A3090F4AAE0B0E00E9483629B01AC015B
:104D2000802F90E0C097AA2797FDA095BA2F280F53
:104D3000391F4A1F5B1FE7CF209709F08883112393
:104D400041F066277727CB01621B730B840B950B11
:104D500002C0CA01B901DF91CF911F910F91FF905D
:104D60000895EF92FF920F931F93CF93DF931F92BB
:104D7000CDB7DEB72CE529838C017801F8012191AC
:104D80008F01222391F02C3221F0223211F02C35A8
:104D900031F461E070E0CE0101960E94433561E09C
:104DA00070E0C7010E944335E8CF0F90DF91CF91AB
:104DB0001F910F91FF90EF9008957F936F935F93F2
:104DC0004F9325ED33E23F932F939F938F930E9450
:104DD000D8658DB79EB708968DBF9EBF0895CF92B8
:104DE000DF92EF92FF920F931F93CF93DF93CDB794
:104DF000DEB76197CDBFDEBF6B017A012FE0FC010A
:104E0000DE01119601900D922A95E1F7188A66E865
:104E100073E2CE0101960E94B9648601C12CD12CA7
:104E20000097A9F0C394BE016F5E7F4F58DFF80171
:104E300061938F018989D80EF4E0CF1641F0D394A5
:104E400066E873E280E090E00E94B964E9CFE11483
:104E5000F10411F0F701D0826196CDBFDEBFDF9182
:104E6000CF911F910F91FF90EF90DF90CF90089519
:104E70000F931F93CF93DF938C01EB014EE050E033
:104E800089ED93E20E94FF64892B09F470C043E12D
:104E900050E0BE0188EE93E20E94FF64892B09F482
:104EA00079C043E150E0BE018CEF93E20E94FF64C1
:104EB000892B09F482C04AE050E0BE0180E194E20F
:104EC0000E94FF64892B09F454C04FE050E0BE01FA
:104ED0008BE194E20E94FF64892B09F45DC04FE0EE
:104EE00050E0BE018BE294E20E94FF64892B09F43A
:104EF00066C04DE050E0BE018BE394E20E94FF6487
:104F0000892B09F46DC042E150E0BE0189E494E2CE
:104F10000E94FF64892B09F476C042E150E0BE0193
:104F20008CE594E20E94FF64892B09F47FC049E07C
:104F300050E0BE018FE694E20E94FF64892B09F4E1
:104F400051C04EE050E0BE0189E794E20E94FF6448
:104F5000892B09F45AC04EE050E0BE0188E894E283
:104F60000E94FF64892B09F072C08EE060C08EE061
:104F700001C08AE0B8016D527F4F90E0029640E098
:104F800050E08C0F9D1F2BDFF801E35DFE4F808109
:104F900081605CC083E101C08FE0B80165527F4F42
:104FA00090E0029640E050E08C0F9D1F18DFF80162
:104FB000E35DFE4F8081826049C083E101C08FE0E4
:104FC000B80169527F4F90E0029640E050E08C0FAC
:104FD0009D1F05DFF801E35DFE4F8081846036C0D0
:104FE0008DE001C089E0B8016B517F4F90E00296DF
:104FF00040E050E08C0F9D1FF2DEF801E35DFE4FB4
:105000008081806123C082E101C08EE0B8016351DC
:105010007F4F90E0029640E050E08C0F9D1FDFDE56
:10502000F801E35DFE4F8081806210C082E1B8012B
:1050300067517F4F90E0029640E050E08C0F9D1F3B
:10504000CEDEF801E35DFE4F808180648083DF91D6
:10505000CF911F910F910895EF92FF920F931F939D
:10506000CF93DF937B018A016CE475E20E94B964FF
:10507000E701F12CE12C009799F0E394582FFC0103
:1050800080E090E0DC016E2F651B219130ED320F46
:105090003A30C8F0422F4F7D4154463038F413C0A7
:1050A0000115110569F1F801F0822AC08993F60E05
:1050B000F6E0EF16A9F3F3946CE475E280E090E07B
:1050C0000E94B964D8CF44E0880F991FAA1FBB1F64
:1050D0004A95D1F73A3070F03FE9320F363010F48C
:1050E000275509C03FEB320F363010F4275303C069
:1050F00020E001C0232F820F911DA11DB11DC3CF40
:10510000DF91CF911F910F91FF90EF900895E0E60E
:10511000F6E081E3818380E3858381E086832FEF5E
:1051200087EA91E6215080409040E1F700C00000FE
:105130000895E0E6F6E081E2818380E2868381E003
:1051400085830895E0E7F0E084818E7F8483E0E04A
:10515000F9E010A211A28DE790E086A397A326E0C4
:10516000208386A797A78781806487838181806851
:1051700081830895E0E0F9E0108287818F7B878347
:1051800081818F778183E0E7F0E08481816084838F
:1051900008950F931F93FC01068517852089318997
:1051A000400F511F621F731F46875787608B718B9B
:1051B0001F910F9108959B0140E050E0BC0188E4ED
:1051C0009AE3DAD9CB01089508950895089580E00F
:1051D00090E00895089580E090E00895EF92FF92A6
:1051E0000F931F93CF93DF938C01EC016A967C01A0
:1051F00083EDE80EF11C88818823D9F0898D8823FE
:10520000C1F08A81811109C0F8014481558166810C
:105210007781452B462B472B61F4198E4C895D898C
:10522000BE01882321F0C8010E94DA5A02C0C801D9
:10523000CDDFA596CE15DF05F1F6DF91CF911F9159
:105240000F91FF90EF9008952F923F924F925F92AF
:105250006F927F928F929F92AF92BF92CF92DF9286
:10526000EF92FF920F931F93CF93DF931F921F92A2
:10527000CDB7DEB78C017B01D42E5901FC018685A8
:105280009785A089B189828B938BA48BB58B2230B3
:10529000310549F4DB018C918D3029F411968C9104
:1052A0008A3009F412C5F80184819581A681B781FD
:1052B000892B8A2B8B2B09F447C0DD2009F444C0CD
:1052C0006CE974E2C7010E94EF64892BE9F167E998
:1052D00074E2C7010E94EF64892BB1F161EA74E2C4
:1052E000C7010E94EF64892B79F169EA74E2C70172
:1052F0000E94EF64892B41F161EB74E2C7010E94C7
:10530000EF64892B09F145E050E06DEB74E2C701D1
:105310000E94FF64892BC1F0D80118966D917C9191
:105320001997FB0101900020E9F7AF0141505109A5
:10533000461B570BC7010E94FF64892B29F0B70158
:105340008AE59AE332DCC1C469EA74E2C7010E94CB
:10535000EF64892B19F4C8010E944F5A63EC74E280
:10536000C7010E94EF64892B19F4C8010E94535AA7
:10537000C80134DF6FEC74E2C7010E94EF64892B2F
:1053800051F4F801E35DFE4F818184608183C8019F
:105390000E945B5A3AC060EE74E2C7010E94EF645B
:1053A000892BC1F4F801E35DFE4F81818B7F877FFC
:1053B000818389E1B597DF011D928A95E9F789EB31
:1053C000EE5EF109DF011D928A95E9F7C8010E949E
:1053D000575A1BC062EF74E2C7010E94EF64892B29
:1053E00051F4F801E35DFE4F818188608183C8013B
:1053F0000E94705A0AC060E075E2C7010E94EF6423
:10540000892B19F4C8010E94A75A67E974E2C70101
:105410000E942765892B29F4BBE0AB16B10448F53F
:1054200068C0F80114821582168217824801FAE1D9
:105430008F0E911C380133ED630E711CD40153960D
:105440008C915397882371F053961C925397129620
:105450008C91B401882321F0C8010E94D65A02C061
:10546000C801B8DEB5E28B0E911C8614970431F7A3
:10547000D3CF4501EAE08E1A91088E0C9F1C4AE0BA
:1054800050E06DE075E2C4010E94BC64892B89F58F
:105490008114910471F1F401829190E0C09725E2AA
:1054A000289FB001299F700D1124665E7F4F600F09
:1054B000711F81E0DB018C938081805311968C9366
:1054C000119712968C91882389F0F8018481958137
:1054D000A681B7810A97A105B10521F4148215822E
:1054E00016821782C8010E94AB5A76C0C8016CDED2
:1054F00073C068E175E2C7010E942765892B09F036
:105500006BC0BAE0AB16B10408F466C04501E9E02F
:105510008E1A91088E0C9F1C49E050E06CE275E2F7
:10552000C4010E94BC64892BA9F58114910491F1F6
:10553000E814F90479F1D4018E91BD0197012F5F30
:105540003F4F82169306E9F490E0C09725E2289F2A
:10555000F001299FF00D11247A96E00FF11F82814E
:1055600090811082128213A212A29923A9F1BF0185
:10557000882321F0C8010E94275B2EC0C80125DEC8
:105580002BC02AE030E040E050E08AE59AE30E9438
:10559000BC2222C0B1E1AB16B104F0F066E375E2C3
:1055A000C5010F978E0D9F1D0E9427650097A1F0E2
:1055B000DC018E9190E0C09725E2289FF001299FA1
:1055C000F00D11247A96E00FF11F1082128213A2BF
:1055D00012A28C918053818345E050E06DEB74E220
:1055E000C7010E94FF64892B09F0EFC04801E1E088
:1055F0008E0E9E1E77247394D4017C92F801E95F8D
:10560000FE4FD082F70185818053F801EA5FFE4F9B
:105610008083680135E2839FC00CD11C1124C60130
:105620004A966C0184E99EE2D60154968D939C9330
:105630005597808111968C93BE016E5F7F4FC70195
:1056400007964DDBF60162877387848795872685E9
:10565000378540895189211531054105510519F4D6
:1056600012A273A201C013A22B013C01420E531ED1
:10567000641E751EF60146865786608A718AF80197
:10568000ED5DFE4F4080518062807380460E571E54
:10569000681E791E40825182628273824A80512C38
:1056A000FFEF4F1A5F0A662457FC6094762C37E0B0
:1056B000430E511C611C711CC701840D951DAE0168
:1056C0004E5F5F4FB6016B5F7F4F89DB8A8190E051
:1056D0000196AA2797FDA095BA2F840D951DA61DAA
:1056E000B71D8E0D9F1DBE016E5F7F4FF8DAD6018C
:1056F00013966D937C931497F70180E090E0DC01A2
:10570000A50160E070E021911C012D013FEF231AFB
:10571000330A430A530A2A3391F4F60182859385AA
:10572000A485B5854219530964097509841795073D
:10573000A607B70760F45101A80EB91E08C0841768
:105740009507A607B70748F7D201C101DCCF35019D
:1057500062187308A301B701620D731DD601549638
:105760008D919C9155970E94C964F601428553859D
:1057700064857585C501A0E0B0E082199309A4098C
:10578000B509481759076A077B0730F40488F5897B
:10579000E02DE40FF51F1082F801EC5FFE4F6082F0
:1057A0007182329760827182F60182859385A48529
:1057B000B585281639064A065B0638F0D4011C92D6
:1057C000268A378A81E0808F818FF80184819581D4
:1057D000A681B781FC013197E132F10508F026C2BC
:1057E000E250FF4F0C946E6247E050E066E475E2D1
:1057F000C7010E94FF64892B71F48FE395E2D80101
:1058000018968D939C931997F70187818053F8011F
:10581000EF5DFE4F80836CE974E2C7010E94EF6484
:10582000892B39F4D80114961D921D921D921C9259
:1058300017976FE375E2C7010E94EF64892B09F0A7
:10584000F5C1F8011482158216821782C8010E94E0
:105850005F5AECC14BE050E06EE475E2C7010E9474
:10586000FF64892B09F0D4C16AE575E2C7010E9483
:105870002765892B09F4CCC1F701CF01219122239F
:1058800009F4C6C12232C9F70196FC0140812E2FCE
:10589000281B30E0411131C0200F311FD901A85F12
:1058A000BE4F1C925F0133E0A30EB11CAE014F5FEF
:1058B0005F4FB801685E7E4FC501CEDBC980D12C39
:1058C00082E0C80ED11CCA0CDB1CBE016F5F7F4F8B
:1058D000C60105DAF801E25EFE4F6083898190E03F
:1058E0000196BE016F5F7F4F8C0D9D1DF8D9F801A9
:1058F000E15EFE4F608371838BC1423241F031968D
:10590000200F311FD901A85FBE4F4C93BFCF5181EB
:105910005C32A9F75281523291F7BECF46E050E097
:1059200062E675E2C7010E94FF64892B09F070C12D
:10593000D701FD018D91882311F08A33D1F730977B
:1059400009F466C16801B9EFCB0ED11CD6018D9167
:105950009C91DC011C928181823219F0CF01019669
:1059600002C0CF010296FC0160814E2F481B50E01F
:10597000611110C0D6018D919C91840F951FDC019F
:105980001C92AF014D5F5F4FDA01F801E550FF4F08
:105990006F011DC0623249F03196D6012D913C91C4
:1059A000240F351FD9016C93DFCF21812C32A1F751
:1059B0002281223289F7DECF623209F44FC011967C
:1059C000F60180819181820F931FFC0160836C91AD
:1059D0002A2F241B30E06111EFCFF60180819181E5
:1059E000820F931FFC0110826D01F2E0CF0ED11CDB
:1059F000BE016F5F7F4FC60172D9F801E250FF4FC1
:105A00006083A980B12C3FEFA31AB30AAC0CBD1C74
:105A1000BE016F5F7F4FC50162D9F801E350FF4FB0
:105A20006083C980D12C8FEFC81AD80ACA0CDB1C3E
:105A3000BE016F5F7F4FC60152D9F801E150FF4FA1
:105A40006083898190E00196BE016F5F7F4F8C0D6E
:105A50009D1D45D9F801F3956083DAC011968C91AC
:105A600011978C3209F0ABCFB8CF47E050E069E630
:105A700075E2C7010E94FF64892B19F4B701C801C0
:105A8000F7D96CE974E2C7010E94EF64892B09F031
:105A9000CDC0F8011482158216821782C8010E94B7
:105AA000895AC4C046E050E061E775E2C7010E9430
:105AB000FF64892B09F0ACC0B701C801D9D9A8C0CF
:105AC0006CE974E2C7010E94EF64892B09F0AEC053
:105AD000F8011482158216821782E950FF4F8081E7
