S01400006D61747269785F636C6F636B2E7372656310
S11300007BC3000098C3000096C3000094C30000A3
S113001092C3000090C300008EC300008CC3000094
S11300208AC3000088C300000C94D60D84C300006A
S113003082C3000080C30000B9C300007CC3000079
S11300407AC3000078C3000076C3000074C30000C4
S11300500C94560C70C300006EC300006CC3000007
S11300606AC3000068C3000066C3000064C30000E4
S113007062C3000060C300005EC300005CC30000F4
S11300805AC3000058C3000056C3000054C3000004
S113009052C3000050C300004EC300004CC3000014
S11300A04AC3000048C3000046C3000044C3000024
S11300B042C3000040C300003EC300003CC3000034
S11300C03AC3000038C3000036C3000034C3000044
S11300D032C3000030C300002EC300002CC3000054
S11300E02AC3000028C3000026C3000024C3000064
S11300F022C3000020C300001EC300001CC3000074
S11301001AC3000018C300000C94760C14C300003A
S113011012C3000010C300000EC300000CC3000093
S11301200AC3000008C3000006C3000004C30000A3
S113013002C3000000C30000FEC20000FCC20000B5
S1130140FAC20000F8C20000F6C20000F4C20000C7
S1130150F2C20000F0C20000EEC20000ECC20000D7
S1130160FAC20000E8C20000E6C20000E4C20000D7
S1130170E2C20000E0C20000DEC20000DCC20000F7
S1130180DAC20000D8C20000D6C20000D4C2000007
S1130190D2C20000D0C20000CEC20000CCC2000017
S11301A0CAC20000C8C20000C6C20000C4C2000027
S11301B0C2C20000C0C20000BEC20000BCC2000037
S11301C0BAC20000B8C20000B6C20000B4C2000047
S11301D0B2C20000B0C20000AEC20000ACC2000057
S11301E0AAC20000A8C20000A6C20000A4C2000067
S11301F0A2C20000A0C200009EC2000000000000D5
S1130200003E5B4F5B3E3E6B4F6B3E1C3E7C3E1C98
S1130210183C7E3C181C577D571C1C5E7F5E1C00DE
S1130220183C1800FFE7C3E7FF0018241800FFE795
S1130230DBE7FF30483A060E2629792926407F0558
S11302400507407F05253F5A3CE73C5A7F3E1C1C6E
S113025008081C1C3E7F14227F22145F5F005F5F2E
S113026006097F017F006689956A6060606060941A
S1130270A2FFA29408047E040810207E201008081F
S11302802A1C08081C2A08081E101010100C1E0C2A
S11302901E0C30383E3830060E3E0E0600000000BC
S11302A00000005F00000007000700147F147F14A3
S11302B0242A7F2A122313086462364956205000E8
S11302C008070300001C2241000041221C002A1CD4
S11302D07F1C2A08083E08080080703000080808BF
S11302E00808000060600020100804023E514945DF
S11302F03E00427F400072494949462141494D33FD
S11303001814127F1027454545393C4A4949314163
S1130310211109073649494936464949291E000031
S11303201400000040340000000814224114141486
S11303301414004122140802015909063E415D5972
S11303404E7C1211127C7F494949363E414141227B
S11303507F4141413E7F494949417F090909013EA5
S1130360414151737F0808087F00417F41002040CC
S1130370413F017F081422417F404040407F021CDE
S1130380027F7F0408107F3E4141413E7F090909F5
S1130390063E4151215E7F091929462649494932C1
S11303A003017F01033F4040403F1F2040201F3F87
S11303B04038403F6314081463030478040361590C
S11303C0494D43007F41414102040810200041414E
S11303D0417F0402010204404040404000030708FA
S11303E00020545478407F284444383844444428F6
S11303F0384444287F385454541800087E0902189D
S1130400A4A49C787F0804047800447D4000204024
S1130410403D007F1028440000417F40007C047868
S113042004787C080404783844444438FC182424B0
S11304301818242418FC7C08040408485454542430
S113044004043F44243C4040207C1C2040201C3CAD
S11304504030403C44281028444C9090907C4464A4
S1130460544C440008364100000077000000413637
S1130470080002010204023C2623263C1EA1A161BD
S1130480123A4040207A38545455592155557941EF
S11304902154547841215554784020545579400CC6
S11304A01E527212395555555939545454593955A7
S11304B05454580000457C410002457D42000145EA
S11304C07C40F0292429F0F0282528F07C54554557
S11304D0002054547C547C0A097F493249494932EA
S11304E03248484832324A4848303A4141217A3AFF
S11304F042402078009DA0A07D39444444393D40C9
S113050040403D3C24FF2424487E4943662B2FFC75
S11305102F2BFF0929F620C0887E09032054547923
S1130520410000447D413048484A32384040227AF4
S1130530007A0A0A727D0D19317D2629292F282671
S11305402929292630484D40203808080808080879
S11305500808382F10C8ACBA2F102834FA00007BD2
S1130560000008142A142222142A1408AA00550090
S1130570AAAA55AA55AA000000FF00101010FF00F7
S1130580141414FF001010FF00FF1010F010F014EA
S11305901414FC001414F700FF0000FF00FF1414EF
S11305A0F404FC141417101F10101F101F1414143B
S11305B01F00101010F0000000001F101010101F7A
S11305C010101010F010000000FF10101010101088
S11305D0101010FF10000000FF140000FF00FF00C7
S11305E0001F10170000FC04F4141417101714143F
S11305F0F404F40000FF00F714141414141414F792
S113060000F7141414171410101F101F141414F4EA
S1130610141010F010F000001F101F0000001F1431
S1130620000000FC140000F010F01010FF10FF1484
S11306301414FF141010101F00000000F010FFFF2E
S1130640FFFFFFF0F0F0F0F0FFFFFF0000000000FC
S1130650FFFF0F0F0F0F0F38444438447C2A2A3E03
S1130660147E02020606027E027E0263554941633D
S11306703844443C04407E201E2006027E02029937
S1130680A5E7A5991C2A492A1C4C7201724C304AD0
S11306904D4D303048784830BC625A463D3E494959
S11306A049007E0101017E2A2A2A2A2A44445F4401
S11306B04440514A444040444A51400000FF010331
S11306C0E080FF000008086B6B08361236243606FB
S11306D00F090F0600001818000000101000304029
S11306E0FF0101001F01011E00191D1712003C3CEF
S11306F03C3C00000000000011241FBECFEFCDBF22
S1130700DFE2DEBF11E2A0E0B0E2E2EBFAE300E0F8
S11307100BBF02C007900D92A637B107D9F726E2A6
S1130720A6E7B1E201C01D92A031B207E1F70E9431
S11307300B0C0C94571D64CC809150008260809304
S113074050008091510081FFFCCF88ED84BF81E08F
S11307508093400008951F920F920FB60F921124B8
S11307600BB60F922F933F938F939F93EF93FF9327
S113077080915E2590915F259C012F5F3F4F2093D0
S11307805E2530935F252091A009FC01EA58FE4DB7
S11307902083FF91EF919F918F913F912F910F9023
S11307A00BBE0F900FBE0F901F9018951F920F92C3
S11307B00FB60F9211240BB60F92CF92DF92EF92E5
S11307C0FF922F933F934F935F936F937F938F93F6
S11307D09F93AF93BF93EF93FF93E091FA25F0912A
S11307E0FB25309709F45FC046815781228133810C
S11307F0A085B185A20FB31F8081918181309105BD
S113080089F008F467C0029709F06DC042305105C1
S113081008F449C011966C916058425051092E5FFA
S11308203F4F08C042305105F0F16C9142505109DC
S11308302E5F3F4F4683578382859385019782239A
S113084093238283938370E080E090E00E941219E6
S11308502AE939E949E15FE30E949E196B017C01B1
S113086060E070E0CB010E9410192DEC3CEC4CECE4
S11308705EE30E949E199B01AC01C701B6010E9470
S11308807B180E94DF187727CB0181509F4F8093FC
S11308903803909339038FEF90E0861B970B809376
S11308A03A0390933B03FF91EF91BF91AF919F91D6
S11308B08F917F916F915F914F913F912F91FF9015
S11308C0EF90DF90CF900F900BBE0F900FBE0F9064
S11308D01F9018954115510531F36C914150510900
S11308E02F5F3F4FA7CF44305105E8F211966C912A
S11308F0445051092C5F3F4F9DCF41E04093810606
S11309004093850624E0209381062093850638E0F1
S113091030938106409386063093810620938606A1
S113092030938506209385062093860630938606A9
S113093020938506209386063093860620938506A9
S11309402093860630938606209385062093860698
S11309503093860620938506209386063093860678
S11309602093850620938606309386062093850679
S11309702093860630938606209385062093860668
S11309803093860620938506209386063093860648
S1130990209385062093860630938506209385064A
S11309A02093860630938606209385063093860628
S11309B040938506409386063093810620938606ED
S11309C03093850620938506209386063093860609
S11309D02093850620938606309386062093850609
S11309E020938606309386062093850620938606F8
S11309F030938606209385062093860630938606D8
S1130A0020938506209386063093860620938506D8
S1130A1020938606309386062093850620938606C7
S1130A2030938606209385062093860630938506A8
S1130A3020938506209386063093850620938506A9
S1130A402093860630938606209385063093860687
S1130A50409385064093860630938106209386064C
S1130A603093850620938506209386063093860668
S1130A702093850620938606309386062093850668
S1130A802093860630938606209385062093860657
S1130A903093860620938506209386063093860637
S1130AA02093850620938606309386062093850638
S1130AB02093860630938506209385062093860628
S1130AC03093860620938506209386063093860607
S1130AD02093850620938606309386062093850608
S1130AE020938606309386062093850630938606E7
S1130AF040938506409386063093810620938606AC
S1130B0030938506209385062093860630938606C7
S1130B1020938506209386063093860620938506C7
S1130B2020938606309386062093850620938606B6
S1130B303093860620938506209386063093860696
S1130B402093850620938606309385062093850698
S1130B502093860630938606209385062093860686
S1130B603093850620938506209386063093860667
S1130B702093850620938606309386062093850667
S1130B802093860630938606209385063093860646
S1130B90409385064093860630938106209386060B
S1130BA03093850620938506209386063093860627
S1130BB02093850620938606309386062093850627
S1130BC02093860630938606209385062093860616
S1130BD030938606209385062093860630938606F6
S1130BE020938506209386063093850620938506F8
S1130BF020938606309385062093850620938606E7
S1130C0030938606209385062093860630938606C5
S1130C1020938506209386063093860620938506C6
S1130C2020938606309386062093850630938606A5
S1130C304093850690E09460880F991F4093860640
S1130C40309381062093860630938506209385068B
S1130C502093860630938606209385062093860685
S1130C6030938606209385062093860690FDE7C080
S1130C703093860624E0209385062093860628E098
S1130C8087FD9EC02093860624E02093850620934A
S1130C90860628E086FD9EC02093860624E02093E5
S1130CA085062093860628E085FD9EC0209386064F
S1130CB024E0209385062093860628E084FD9EC0C8
S1130CC02093860624E0209385062093860628E058
S1130CD083FD9EC02093860624E0209385062093FE
S1130CE0860628E082FD9EC02093860694E09093B9
S1130CF085069093860681FD9EC088E080938606D3
S1130D0084E0809385068093860698E09093860617
S1130D10809385069093860621E020938506209390
S1130D208606909381068093860690938506809329
S1130D308506809386069093860680938506809325
S1130D408606909386068093850680938606909304
S1130D508506809385068093860690938606809305
S1130D6085068093860690938506809385068093F6
S1130D7086069093860680938506809386069093D4
S1130D8086068093850680938606909386068093D4
S1130D9085068093860690938606809385068093C5
S1130DA086069093850680938506809386069093A5
S1130DB0860680938506909386062093850608957B
S1130DC02093850624E0209385062093860628E058
S1130DD086FF62CF2093850624E020938506209326
S1130DE0860628E085FF62CF2093850624E02093C1
S1130DF085062093860628E084FF62CF209385062B
S1130E0024E0209385062093860628E083FF62CFA2
S1130E102093850624E0209385062093860628E007
S1130E2082FF62CF2093850694E090938506909389
S1130E30860681FF62CF88E08093850661CF309378
S1130E40850624E0209385062093860628E087FD06
S1130E50B7CF18CF803108F08FE0806A90E09460BB
S1130E60880F991F21E02093860638E0309381068D
S1130E7024E02093860630938506209385062093EC
S1130E808606309386062093850620938606309343
S1130E908606209385062093860630938506209344
S1130EA08506209386063093860620938506209334
S1130EB08606309385062093850620938606309314
S1130EC08606209385062093860684FD47C03093CA
S1130ED0860624E0209385062093860628E083FD79
S1130EE026C02093860624E0209385062093860658
S1130EF028E082FD26C02093860694E09093850620
S1130F009093860681FD26C088E08093860684E05F
S1130F10809385068093860698E090938606809356
S1130F2085069093860681E0809385060895209334
S1130F30850624E0209385062093860628E082FF18
S1130F40DACF2093850694E09093850690938606E5
S1130F5081FFDACF88E080938506D9CF3093850668
S1130F6024E0209385062093860628E083FDDFCFC6
S1130F70B8CF5F926F927F928F929F92AF92BF92FF
S1130F80CF92DF92EF92FF920F931F93CF93DF9351
S1130F90182F562EE82FF0E07F01E40EF11CEE1519
S1130FA0FF0594F5C62FD0E0BE01620F711D9B01B1
S1130FB0BFE08B2E912C88E1A82EB12CCC24C394B5
S1130FC0D12CC217D307D4F4AF01440F551F3A01F3
S1130FD07FE0671A7108E830F1050CF43A01660CF9
S1130FE0771C660C771C660C771C7097ECF0452D0B
S1130FF04F5F842F90E082179307D4F31F5FE12F94
S1131000F0E0EE15FF05ECF2DF91CF911F910F9107
S1131010FF90EF90DF90CF90BF90AF909F908F9014
S11310207F906F905F900895CE01452D002339F095
S113103069C04F5F842F90E082179307FCF68031DC
S11310409105BCF7F401E81BF90BCF01B5010E942F
S1131050011A883091050CF459C0803191050CF0C7
S11310605EC067E870E087709927FB01E81BF90B05
S1131070CF01860D971DFC01F695E795F695E7954A
S1131080F695E795EC59FA4D87709927B60102C099
S1131090660F771F8A95E2F7CB01809590818923AB
S11310A08083C7CFF401E81BF90BCF01B5010E947F
S11310B0011A883091056CF567E070E08770992714
S11310C0FB01E81BF90BCF01860D971DFC01F6957A
S11310D0E795F695E795F695E795EC59FA4D8770FF
S11310E09927B60102C0660F771F8A95E2F7CB01F4
S11310F09081982B90834F5F842F90E08217930701
S11311000CF07CCF80319105B4F7CCCF67E070E070
S1131110AACF8031910534F467E870E0CFCF67E05F
S113112071E0A1CF67E071E0C9CF81E080938606CA
S113113098E09093810684E08093860690938506D8
S11311408093850680938606909386068093850611
S113115080938606909385068093850690938606F1
S113116090938106809386069093860680938506E5
S113117080938606909386068093850680938606E0
S113118090938606809385068093860690938606C0
S113119080938506809386069093860680938506C1
S11311A080938606909386068093850680938606B0
S11311B0909386068093850690938606E5E6F5E28D
S11311C038E024E07CC03093860620938506209383
S11311D0860695FD92C0309386062093850620935B
S11311E0860694FD92C0309386062093850620934C
S11311F0860693FD92C0309386062093850620933D
S1131200860692FD92C0309386062093850620932D
S1131210860691FD92C0309386062093850620931E
S1131220860690FD92C0309386062093850620930F
S1131230860687FD92C03093860620938506209308
S1131240860686FD92C030938606209385062093F9
S1131250860685FD92C030938606209385062093EA
S1131260860684FD92C030938606209385062093DB
S1131270860683FD92C030938606209385062093CC
S1131280860682FD92C030938606209385062093BD
S1131290860681FD92C030938606209385062093AE
S11312A0860680FD92C0309386062093850630938F
S11312B08606329685E2E538F80709F48CC0DF012A
S11312C011978C9190E0982F88274081842B30933C
S11312D081062093860697FD7BC030938606209373
S11312E085062093860696FF6ECF3093850620935D
S11312F085062093860695FF6ECF3093850620934E
S113130085062093860694FF6ECF3093850620933E
S113131085062093860693FF6ECF3093850620932F
S113132085062093860692FF6ECF30938506209320
S113133085062093860691FF6ECF30938506209311
S113134085062093860690FF6ECF30938506209302
S113135085062093860687FF6ECF309385062093FB
S113136085062093860686FF6ECF309385062093EC
S113137085062093860685FF6ECF309385062093DD
S113138085062093860684FF6ECF309385062093CE
S113139085062093860683FF6ECF309385062093BF
S11313A085062093860682FF6ECF309385062093B0
S11313B085062093860681FF6ECF309385062093A1
S11313C085062093860680FF6ECF309385066DCF09
S11313D03093850684CF81E080938506089580E26A
S11313E0E4E6F5E2DF011D928A95E9F79ECE2F929D
S11313F03F924F925F926F927F928F929F92AF92A1
S1131400BF92CF92DF92EF92FF920F931F93CF93ED
S1131410DF93CDB7DEB76A97CDBFDEBF6B837C8326
S11314202A83602E55E0459F9001112424503E4F9D
S11314302A873B878D839E83880F991F8C879D877E
S11314402D813E812B5F3F4F2D8B3E8B302F330FF1
S1131450330F330F301B360F388B4D814987202FC4
S113146030E02E873F87AB01495F5F4F4F8B588F2A
S113147029E030E0261B370B298B3A8B0FE0202E16
S1131480312C88E1C82ED12C44244394512C6982F8
S1131490EA85FB8564902D813E818C859D8528306D
S11314A031050CF00F97AC01440F551F440F551F25
S11314B0440F551F4B8B5C8BF985EF2FF0E0EF83C6
S11314C0F8877F012E853F85E20EF31EA988BA882E
S11314D00F89188D788817C04D815E814031510580
S11314E020F4013111050CF4FEC066947FEFA71AB5
S11314F0B70A015011092981721A4B815C810417C2
S1131500150709F4BDC060FEF0CF3981313021F3F5
S1131510EF81F885EE15FF0544F7CF01E72DF0E0E4
S11315202E853F852E0F3F1F8984E217F307CCF4E5
S1131530AC01440F551FBA016F50710988309105F1
S11315400CF0AB01440F551F440F551F440F551F9A
S1131550409774F0472D4F5F842F90E082179307D4
S1131560D4F38394882D90E08E159F05F4F2BDCFBB
S11315706A81972CCF01498F5A8F662339F06DC049
S11315809394892D90E0821793075CF7803191053D
S1131590BCF7D101A81BB90BCD01B6010E94011AF9
S11315A0883091050CF45DC0803191050CF062C067
S11315B047E850E087709927BA01681B790BCB0183
S11315C0498D5A8D840F951FDC01B695A795B69564
S11315D0A795B695A795AC59BA4D87709927B201CE
S11315E002C0660F771F8A95E2F7CB0180959C9124
S11315F098239C93C5CFD101A81BB90BCD01B6018B
S11316000E94011A883091057CF547E050E087700C
S11316109927BA01681B790BCB01498D5A8D840F28
S1131620951FDC01B695A795B695A795B695A79590
S1131630AC59BA4D87709927B20102C0660F771F63
S11316408A95E2F7CB019C91982B9C939394892DD6
S113165090E0821793070CF084CF80319105B4F7A2
S1131660CACF47E050E0A6CF8031910534F447E873
S113167050E0CDCF47E051E09DCF47E051E0C7CFE8
S1131680EA85FB853196EA87FB872D813E812F5FB2
S11316903F4F2D833E834C855D854E5F5F4F4C8766
S11316A05D8789852981820F4D815E812D893E89DF
S11316B04217530711F08987EBCE6A96CDBFDEBF80
S11316C0DF91CF911F910F91FF90EF90DF90CF901A
S11316D0BF90AF909F908F907F906F905F904F904E
S11316E03F902F900895C501B6010E94011A8830D9
S11316F0910574F0803191059CF527E830E08770FE
S1131700907897FF0BC00197886F9F6F019606C072
S113171027E030E08770907897FDF5CFB901681B1A
S1131720790BCB01EB89FC898E0F9F1F2A81FC0169
S1131730F695E795F695E795F695E795EC59FA4D04
S11317408770992721110FC0B20102C0660F771F5D
S11317508A95E2F7CB018095908189238083C5CE59
S113176027E031E0D7CFA20102C0440F551F8A956C
S1131770E2F7CA019081982B9083B7CE0F93CF9351
S1131780DF93EC01609362257093632525E030E0DC
S1131790209360253093612580E2E4E6F5E2DF01E1
S11317A01D928A95E9F748814423E9F000910420C9
S11317B02196CB0101C0C90121E030E065E070E071
S11317C016DE00910420209162253091632596E075
S11317D0099F200D311D1124209362253093632528
S11317E049914111E8CFA1DCBFEF29EF80E0B1506E
S11317F020408040E1F700C00000DF91CF910F91BD
S11318000895FC0110821182128213828FEF9FEFE0
S1131810848395830895CF93DF93CDB7DEB768971C
S1131820CDBFDEBF0E949C0384E267D880E012DB58
S1131830D6DD0E945B1887E08093A20080E894E0E4
S11318401FD229D781E08093400890E890936608DE
S11318509CE090936708809346083FD06ED08BD06D
S1131860CE014396CEDF85E090E280930A269093E2
S11318700B2680930C2690930D2687EA90E20E9413
S1131880741A40E062E382E102D178948091942555
S1131890909195258B839C83CE010196F3D2BE0152
S11318A06F5F7F4F8AE590E0FCD6F0CF1F920F92D6
S11318B00FB60F9211248F939F938091942590914A
S11318C09525019680939425909395259F918F91CA
S11318D00F900FBE0F901F90189580EEE0E0F6E099
S11318E0828381E0E0E2F6E0828308951F920F9202
S11318F00FB60F9211240BB60F922F933F934F9371
S11319005F936F937F938F939F93AF93BF93EF9363
S1131910FF9365DDFF91EF91BF91AF919F918F91FF
S11319207F916F915F914F913F912F910F900BBEDB
S11319300F900FBE0F901F90189588ED84BF8BE019
S1131940809343008091010480FDFCCF88EE93E0F6
S113195080930A0490930B0482E080930204109213
S113196008041092090410920C0410920D0481E0F2
S1131970809300040895BF92CF92DF92EF92FF927A
S11319800F931F93CF93DF9300D0CDB7DEB727DD3E
S11319901092FE251092FD251092FC251092FF2531
S11319A01092002610920226109203261F921F9274
S11319B08FECC82E80E2D82EDF92CF92CE01019612
S11319C07C01FF928F930E94A11A898190E3B92E22
S11319D0B9828A8300E010E028E030E040E150E082
S11319E060E070E080E090E0C4DA498150E001E01A
S11319F010E021E030E060E070E082E090E0F7DCAD
S1131A004A8150E021E030E060E070E089E090E05D
S1131A10EEDC8BDB1091FE251F921F93DF92CF9299
S1131A20FF92EF920E94A11ACDBFDEBF1A3018F4C4
S1131A308981B9828A8300E010E028E030E040E147
S1131A4050E069E070E080E090E093DA498150E092
S1131A5001E010E021E030E069E070E082E090E035
S1131A60C6DC4A8150E021E030E069E070E089E0C2
S1131A7090E0BDDC5ADB0F900F90DF91CF911F9166
S1131A800F91FF90EF90DF90CF90BF900895EF9269
S1131A90FF920F931F93CF93DF9300D01F92CDB784
S1131AA0DEB7F8948093FE256093FD254093FC25D2
S1131AB01F926F938FEC90E29F938F93CE010196C8
S1131AC07C01FF928F936B830E94A11A0F900F9059
S1131AD00F900F900F900F906B816A3020F48981E2
S1131AE090E399838A8300E010E028E030E040E14D
S1131AF050E060E070E080E090E03BDA498150E043
S1131B0001E010E021E030E060E070E082E090E08D
S1131B106EDC4A8150E021E030E060E070E089E072
S1131B2090E065DC02DB1091FE251F921F938FEC81
S1131B3090E29F938F93FF92EF920E94A11A0F90CD
S1131B400F900F900F900F900F901A3020F489810E
S1131B5090E399838A8300E010E028E030E040E1DC
S1131B6050E069E070E080E090E003DA498150E001
S1131B7001E010E021E030E069E070E082E090E014
S1131B8036DC4A8150E021E030E069E070E089E031
S1131B9090E02DDCCADA78942396CDBFDEBFDF91C6
S1131BA0CF911F910F91FF90EF9008951F920F9284
S1131BB00FB60F9211242F933F934F935F936F931C
S1131BC07F938F939F93AF93BF93EF938091FC2563
S1131BD08F5F8093FC258C3381F0EF91BF91AF919F
S1131BE09F918F917F916F915F914F913F912F9131
S1131BF00F900FBE0F901F9018951092FC258091A6
S1131C00FD258F5F8093FD258C3339F71092FD25D8
S1131C108091FE258F5F8093FE258831F1F6E09157
S1131C2001264091FF25509100264F5F5F4F40935E
S1131C30FF25509300269A01A3E9B4E20E94361AC4
S1131C40281B390B36952795280F391F369527956C
S1131C5036952795E20FE09301268FE4E89FE12D66
S1131C601124E295EF7080910226909103268E0F45
S1131C70911D80930226909303261092FE25ADCFEA
S1131C80E0E8F4E0128289E0858388E0818381E0E2
S1131C9084830895EF920F931F93DC01762F770FBF
S1131CA016967C93169784E6489FA001112441154B
S1131CB0510501F1FA010DC0392F30753035F9F0B5
S1131CC0907C29F583E08A95F1F7000031973097ED
S1131CD089F014969C911497392F3874383461F72D
S1131CE016967C93169783E08A95F1F70000319756
S1131CF0309779F714968C91149785FF03C087E089
S1131D0013968C938E2D1F910F91EF900895179633
S1131D102C93179714969C91149796FFFBCF1496C7
S1131D208C91149786FF25C014968C91149784FD8A
S1131D3020C0660F616016966C9316970FC0892FAA
S1131D408075803501F1907C39F583E08A95F1F74F
S1131D500000415051094115510581F014969C91A0
S1131D601497892F8874883451F716966C931697B4
S1131D70ECCF86E01F910F91EF90089514968C910B
S1131D80149785FF04C087E013968C93139787E01C
S1131D9013968C938E2DB7CF2FEF2E0DF80142E0C2
S1131DA037E02F3FA1F314968C9114978C708C30EC
S1131DB071F314969C91149797FFFBCF17968C910F
S1131DC017978193211105C013963C9313972150C3
S1131DD0E8CF13964C9313972150E3CFEF920F93D0
S1131DE01F93FC01660F668384E6489FA0011124BB
S1131DF04115510581F416C0392F30753035A9F0DD
S1131E00907CD1F483E08A95F1F7000041505109A8
S1131E104115510539F09481392F3874383461F7FC
S1131E206683F0CF848185FF02C087E083838E2D93
S1131E301F910F91EF9008952783948196FFFDCF12
S1131E40848186FF13C0848184FD10C0D8018FEF84
S1131E508E0D8F3F41F09D919783948196FFFDCF26
S1131E60948196FD08C097E09383E2CF86E01F91AA
S1131E700F91EF90089594812FEF280F94FDF3CFE5
S1131E80822FE7CFCF92DF92EF920F931F93CF93DE
S1131E90DF9300D0CDB7DEB76C0182E0E82E8E016F
S1131EA00F5F1F4F26E248EE6AE580E894E0F2DE19
S1131EB08A8190E0982F88272981822BF6018287D6
S1131EC0938728E248EE6AE580E894E0E3DE8A81BD
S1131ED090E0982F88272981822BF60184879587A3
S1131EE02AE248EE6AE580E894E0D4DE8A8190E054
S1131EF0982F88272981822BF6018687978724E2E9
S1131F0048EE6AE580E894E0C5DE8A8190E0982F87
S1131F1088272981822BF6018087918722E248EE67
S1131F206AE580E894E0B6DE8A8190E0982F8827FD
S1131F302981822BF601868397830F900F90DF917E
S1131F40CF911F910F91EF90DF90CF9008950F9351
S1131F501F93CF93DF93EC0160E2CE0125D760E2BB
S1131F60892B61F5CE0120D78C0197FD16C002C0E4
S1131F7097FD13C060E3CE0117D781309105C1F7F7
S1131F8060E2CE0111D78017910739F197FD05C0A2
S1131F908C01F0CF60E2CE0107D760E2CE0104D716
S1131FA0892BD9F360E2CE01FFD60197A9F680E030
S1131FB090E0DF91CF911F910F910895CE01F4D657
S1131FC097FDCACF60E3CE01EFD681309105C1F70A
S1131FD040E068E1CE01CBD6BFCF4BE068E1CE0153
S1131FE0C6D6892BD1F617FDD5CF60E2CE01DCD65B
S1131FF008171907D1F360E2CE01D6D6892B69F20E
S1132000D1CF0F931F93CF93DF938C0140E068E00F
S1132010AED6EC01C8019BDFC80FD91F40E068E0D1
S1132020C801A5D6C80FD91F40E064E0C8019FD6F7
S1132030C80FD91F40E065E0C80199D6C80FD91F61
S113204040E066E0C80193D6C80FD91F40E063E0C2
S1132050C8018DD6C80FD91F4FEF61E2C80187D6DA
S1132060C80FD91F41E068E1C80181D6C80FD91F44
S1132070C9D647E167E0C8017AD68C0F9D1FDF916E
S1132080CF911F910F910895CF92DF92EF92FF921B
S11320900F931F93CF93DF9300D0CDB7DEB78C019E
S11320A040E068E064D67C0140E06AE0C8015FD6A5
S11320B0E80EF91E40E069E0C80159D6E80EF91EA1
S11320C0C8019FDFE80EF91E4FEF6FE0C8014FD63D
S11320D0E80EF91E40E060E1C80149D6E80EF91E99
S11320E002C097FD22C060E3C8015ED6813091052D
S11320F0C1F760E2C80158D66C0187E7898381EA99
S11321008A839E012F5F3F4F42E067E1C80169D691
S1132110009759F460E2C80147D6C816D906D1F32E
S11321201816190614F480E090E0E80EF91E41E058
S113213063E0C8011CD6E80EF91E4DE164E0C80155
S113214016D6E80EF91E40E065E0C80110D6E80E88
S1132150F91E40E066E0C8010AD6E80EF91E02C086
S113216097FD22C060E3C8011FD681309105C1F7F5
S113217060E2C80119D66C0183E0898387EA8A8307
S11321809E012F5F3F4F42E067E1C8012AD60097C6
S113219059F460E2C80108D6C816D906D1F3181656
S11321A0190614F480E090E0E80EF91E02C097FDD1
S11321B022C060E3C801F8D581309105C1F760E21F
S11321C0C801F2D56C0183E0898388EA8A839E0181
S11321D02F5F3F4F42E067E1C80103D6009759F4EF
S11321E060E2C801E1D5C816D906D1F3181619065C
S11321F014F480E090E0E80EF91E02C097FD24C0BC
S113220060E3C801D1D581309105C1F760E2C8010E
S1132210CBD56C0183E0898389EA8A839E012F5F91
S11322203F4F42E067E1C801DCD5009769F460E202
S1132230C801BAD5C816D906D1F36C011816190607
S113224024F4C12CD12C01C06C01CE0CDF1C02C0C3
S113225097FD22C060E3C801A7D581309105C1F77D
S113226060E2C801A1D57C0183E089838EEA8A8378
S11322709E012F5F3F4F42E067E1C801B2D500974E
S113228059F460E2C80190D5E816F906D1F318169E
S1132290190614F480E090E0C80ED91E02C097FD20
S11322A021C060E3C80180D581309105C1F760E2A7
S11322B0C8017AD57C0119828BEA8A839E012F5F3B
S11322C03F4F42E067E1C8018CD5009759F460E2C2
S11322D0C8016AD5E816F906D1F31816190614F4DC
S11322E080E090E0C80ED91E02C097FD21C060E3D3
S11322F0C8015AD581309105C1F760E2C80154D5AF
S11323007C0119828EEB8A839E012F5F3F4F42E04E
S113231067E1C80166D5009759F460E2C80144D565
S1132320E816F906D1F31816190614F480E090E0C3
S1132330C80ED91E02C097FD21C060E3C80134D580
S113234081309105C1F760E2C8012ED57C01198264
S113235081EB8A839E012F5F3F4F42E067E1C80112
S113236040D5009759F460E2C8011ED5E816F90675
S1132370D1F31816190614F480E090E0C80ED91EA3
S113238002C097FD22C060E3C8010ED581309105DB
S1132390C1F760E2C80108D57C0181E2898382EA41
S11323A08A839E012F5F3F4F42E067E1C80119D540
S11323B0009759F460E2C801F7D4E816F906D1F39E
S11323C01816190614F480E090E0C80ED91E02C055
S11323D097FD22C060E3C801E7D481309105C1F7BD
S11323E060E2C801E1D47C0184E0898383EA8A83C2
S11323F09E012F5F3F4F42E067E1C801F2D400978E
S113240059F460E2C801D0D4E816F906D1F31816DD
S1132410190614F480E090E0C80ED91E02C097FD9E
S113242022C060E3C801C0D481309105C1F760E2E5
S1132430C801BAD47C0180E789838AEA8A839E0131
S11324402F5F3F4F42E067E1C801CBD4009759F4B6
S113245060E2C801A9D4E816F906D1F318161906E2
S113246014F480E090E0C80ED91E02C097FD22C08B
S113247060E3C80199D481309105C1F760E2C801D5
S113248093D47C0180E789838DEB8A839E012F5F3F
S11324903F4F42E067E1C801A4D4009759F460E2D9
S11324A0C80182D4E816F906D1F31816190614F4F3
S11324B080E090E0C80ED91E02C097FD22C060E300
S11324C0C80172D481309105C1F760E2C8016CD4AF
S11324D07C0180E7898380EB8A839E012F5F3F4FD5
S11324E042E067E1C8017DD4009759F460E2C80175
S11324F05BD4E816F906D1F31816190614F480E033
S113250090E0C80ED91E02C097FD22C060E3C80146
S11325104BD481309105C1F760E2C80145D47C01F8
S113252084E089838CEA8A839E012F5F3F4F42E0D7
S113253067E1C80156D4009759F460E2C80134D465
S1132540E816F906D1F31816190614F480E090E0A1
S1132550C80ED91E02C097FD22C060E3C80124D46E
S113256081309105C1F760E2C8011ED47C0180E28C
S113257089838FEB8A839E012F5F3F4F42E067E19F
S1132580C8012FD4009759F460E2C8010DD4E816AD
S1132590F906D1F31816190614F480E090E0C80E79
S11325A0D91E02C097FD22C060E3C801FDD381306B
S11325B09105C1F760E2C801F7D37C0180E2898309
S11325C082EB8A839E012F5F3F4F42E067E1C8019F
S11325D008D4009759F460E2C801E6D3E816F90676
S11325E0D1F31816190614F480E090E0C80ED91E31
S11325F044E968E0C801BBD3C80ED91E48E06AE0CC
S1132600C801B5D3C80ED91E48E069E0C801AFD3EC
S1132610C80ED91E60E2C801C7D37C0197FD2EC045
S113262002C097FD16C060E3C801BED38130910596
S1132630C1F760E2C801B8D38E159F0521F097FD5C
S113264008C07C01F0CF4FE068E1C80190D3009747
S1132650B9F09C01C601820F931F0F900F90DF9178
S1132660CF911F910F91FF90EF90DF90CF9008953D
S113267060E2C80199D3E816F90651F49701EACF4C
S1132680F7FCF6CF60E2C8018FD3E816F906D1F360
S113269020E030E0DFCF8AE590E0B3DC8AE590E02B
S11326A0F3CC2F923F924F925F926F927F928F92D0
S11326B09F92AF92BF92CF92DF92EF92FF920F93CD
S11326C01F93CF93DF938C01EB018091A925909107
S11326D0AA25892B39F48091AB259091AC25892BBF
S11326E009F46FC040911A20442309F440C04230D9
S11326F008F4B9C08A859B852091A9253091AA2523
S11327002817390720F48093A9259093AA258C854E
S11327109D852091AB253091AC252817390720F4ED
S11327208093AB259093AC258E859F852091AD2514
S11327303091AE252817390720F48093AD25909366
S1132740AE25415040931A20DF91CF911F910F91F4
S1132750FF90EF90DF90CF90BF90AF909F908F90BD
S11327607F906F905F904F903F902F900895EA84F0
S1132770FB8491E8E9169BEBF90670F4CC84DD84C4
S1132780E1E8CE16EBEBDE0638F42E843F84F1E864
S11327902F16FBEB3F0650F188E591E2DF91CF91D4
S11327A01F910F91FF90EF90DF90CF90BF90AF906B
S11327B09F908F907F906F905F904F903F902F905D
S11327C093C68091AD259091AE25892B09F08ACFCF
S11327D040911A20403809F087CF88ED90E284D6E2
S11327E060E070E081E090E0C1D27CCF8091A525CB
S11327F09091A625A091A725B091A8250097A105A1
S1132800B10509F484C08884998421E882162BEBED
S1132810920608F099CFA12CB12CAC01BD0176959C
S11328206795579547952A013B01480E591E6A1E24
S11328307B1E84149504A604B70460F42C013D01A6
S1132840441A550A660A770A481459046A047B0430
S113285008F464C08092A5259092A625A092A7258D
S1132860B092A82571CF8091AE258F938091AD252C
S11328708F938091AC258F938091AB258F9380911A
S1132880AA258F938091A9258F938CE191E29F9340
S11328908F9319D66FEF70E081E090E067D280915A
S11328A0182090911920880F991F6091A925709183
S11328B0AA25680F791F6093A9257093AA254091D2
S11328C0AB255091AC25480F591F4093AB2550932D
S11328D0AC252091AD253091AE25280F391F2093CA
S11328E0AD253093AE25609304267093052640935E
S11328F006265093072620930826309309264091F4
S11329001A208DB79EB708968DBF9EBF1ACF8885B3
S11329109985A0E0B0E04C015D017FCFAC01BD0121
S1132920440F551F661F771F480F591F6A1F7B1FCF
S1132930480D591D6A1D7B1D7695679557954795DA
S113294076956795579547954093A5255093A62569
S11329506093A7257093A825970140E050E032507A
S113296041095109280D391D4A1D5B1DA0911320F1
S1132970B0E08BD540E1442E47E2542E612C712CFB
S1132980A301920151D5E20EF31EEA86FB8696015D
S113299040E050E0325041095109280D391D4A1DCB
S11329A05B1DA0911420B0E070D5A30192013CD529
S11329B0C20ED31ECC86DD86910140E050E0325039
S11329C041095109280D391D4A1D5B1DA09115208F
S11329D0B0E05BD5A301920127D5220D331D2E87CC
S11329E03F87409118205091192080919F25909104
S11329F0A025009709F45CC16091A9257091AA25CE
S1132A00E616F70608F0AAC1BC01660F771F660F29
S1132A10771F660F771F681B790B4701A12CB12C18
S1132A20860E971EA11CB11CA3E0B694A79497949C
S1132A308794AA95D1F7B4010024660F771F001C70
S1132A40660F771F001C672F702DFB01E80DF91D21
S1132A50E817F90708F45CC13401661A770A861589
S1132A60970508F455C18091992590919A2500976E
S1132A7009F46DC18E159F0508F469C1609196250E
S1132A806F5F60939625613408F46EC1019780935B
S1132A90992590939A25109296257C0180929F25E2
S1132AA09092A025E114F10409F01DC1840E951E35
S1132AB080920426909205268090A1259090A225CC
S1132AC08114910409F4EBC08091AB259091AC255D
S1132AD0C816D90608F0F9C0C401BC01660F771FF7
S1132AE0660F771F660F771F681B790B4601A12CB1
S1132AF0B12C860E971EA11CB11C63E0B694A7945A
S1132B00979487946A95D1F7B4010024660F771FD0
S1132B10001C660F771F001C672F702DFB01E80D4A
S1132B20F91DE817F90708F4FDC07401E61AF70A5D
S1132B308E159F0508F4F6C080919B2590919C25E5
S1132B40009709F4FDC08C159D0508F4F9C0609147
S1132B5097256F5F60939725613408F403C101974B
S1132B6080939B2590939C25109297256C018092CD
S1132B70A1259092A225C114D10409F0C2C0840EEB
S1132B80951E80920626909207268091A325909107
S1132B90A425009709F49EC06091AD257091AE25DF
S1132BA02617370708F076C0BC01FB01EE0FFF1FA4
S1132BB0EE0FFF1FEE0FFF1FE61BF70BC901A0E08E
S1132BC0B0E08E0F9F1FA11DB11DE3E0B695A79540
S1132BD097958795EA95D1F7FC010024EE0FFF1F26
S1132BE0001CEE0FFF1F001CEF2FF02D7F01E80EDD
S1132BF0F91EE616F70608F490C02C014E1A5F0A77
S1132C006415750508F489C060919D2570919E2511
S1132C106115710571F06217730758F020919825BA
S1132C202F5F20939825213408F49AC09B012150EA
S1132C30310920939D2530939E25109298258093E9
S1132C40A3259093A4252115310509F053C0840FC1
S1132C50951F809308269093092640911620509141
S1132C601720BE01C801DF91CF911F910F91FF90F2
S1132C70EF90DF90CF90BF90AF909F908F907F9018
S1132C806F905F904F903F902F904DC18093A325FC
S1132C909093A42520919D2530919E25D4CF80909A
S1132CA0AB259090AC25C814D90458F4C60115CFAF
S1132CB08090A9259090AA25E814F904C0F5C701CD
S1132CC0A3CE8092A1259092A225C0909B25D0905E
S1132CD09C2551CF8091AD259091AE2528173907B9
S1132CE0A8F6B90162CFE40EF51EE0920426F09234
S1132CF00526E2CE240F351F20930826309309269B
S1132D00ACCFC40ED51EC0920626D09207263DCF66
S1132D10E0909925F0909A25C1CE20919D2530917F
S1132D209E258DCFC0909B25D0909C2520CF80924E
S1132D309F259092A025E0909925F0909A25B2CEF7
S1132D40C0929B25D0929C251092972510CFE0929B
S1132D509925F0929A2510929625A0CE4C01EBCF9E
S1132D609B016DCF6C0103CF7C0198CE0895EF9247
S1132D700F931F93CF93DF931F92CDB7DEB7262F08
S1132D804983EE24E3948E010F5F1F4F48EE6AE5FA
S1132D9080E894E023D880E090E00F90DF91CF9119
S1132DA01F910F91EF900895EF920F931F93CF937C
S1132DB0DF931F92CDB7DEB7262FEE24E3948E0166
S1132DC00F5F1F4F48EE6AE580E894E00E944A0EC8
S1132DD0898190E00F90DF91CF911F910F91EF9037
S1132DE00895EF920F931F938901E42E262F48EE46
S1132DF06AE580E894E00E94EE0E90E01F910F9146
S1132E00EF90089583EC99E00197F1F700C000007A
S1132E100895CF93DF93CDB7DEB7E697CDBFDEBF7E
S1132E2022E1ECE1F0E2DE01959601900D922A9503
S1132E30E1F722E1EEE2F0E2DE01539601900D9219
S1132E402A95E1F722E1E0E4F0E2DE011196019037
S1132E500D922A95E1F729813A812817390798F1CB
S1132E602B813C812817390708F445C02D813E8108
S1132E702817390708F442C02F81388528173907E5
S1132E8008F43FC029853A8528173907E8F12B85CE
S1132E903C8528173907D8F12D853E852817390731
S1132EA0C8F12F85388928173907B8F129893A8953
S1132EB028173907A8F18AEF90E0E696CDBFDEBF68
S1132EC0DF91CF91089520E030E0F901EE0FFF1F6C
S1132ED021E030E02C0F3D1FE20FF31F22893389DC
S1132EE0DC01C4D224A135A1281B390B2B3F3105A9
S1132EF010F7C901E2CF21E030E0E7CF22E030E073
S1132F00E4CF23E030E0E1CF24E030E0DECF25E081
S1132F1030E0DBCF26E030E0D8CF27E030E0D5CF7B
S1132F2028E030E0D2CFAF92BF92CF92DF92EF92FF
S1132F30FF920F931F93CF93DF938B017A01FB01D1
S1132F4022813381ADECBCEC91D25C01B694A794A0
S1132F50B694A794B694A794828593852091042669
S1132F6030910526821B930B97FD99C09C012E9DE1
S1132F70C0012F9D900D3E9D900D11244ADFEC0160
S1132F80F801848595852091062630910726821BB9
S1132F90930B97FD81C09C012E9DC0012F9D900D28
S1132FA03E9D900D112435DF8C019E01DE015ED221
S1132FB06B017C0138EEC30E30E8D31EE11CF11C1A
S1132FC09801D80153D2C61AD70AE80AF90AF7FCBD
S1132FD05EC0B601C7012CE330E040E050E024D2EB
S1132FE02E3484E0380710F02DE434E080911B2067
S1132FF0C13FD10518F4013F110598F18823F1F080
S11330008091B5259091B62521E020931B2087322D
S1133010924020F56FE070E0A092AF25B092B02509
S11330208EE691E2DF91CF911F910F91FF90EF9087
S1133030DF90CF90BF90AF900C94BE0B3091B7252A
S11330402091B8253093B5252093B625832F922F50
S113305021E020931B2087329240E0F26BEE7FEF59
S1133060DBCF8130F9F010921B202093B7253093E9
S1133070B825A9E8B8E8FAD1929582958F70892786
S11330809F7089276FE070E0681B790BC9CF60E0FF
S113309070E080E090E09FCF80E090E07CCF80E023
S11330A090E064CF2093B1253093B225A092B3254C
S11330B0B092B425D8CFE0E6F6E088E0818384E0DE
S11330C08283E0EAF9E080E283838FEC868383E005
S11330D0858388E1848308959091A10995FFFCCFAD
S11330E08093A00908958091A10987FFFCCF809166
S11330F0A00908955058BB27AA270ED0E5C0D6D002
S113310030F0DBD020F031F49F3F11F41EF4CBC03B
S11331100EF4E095E7FBC1C0E92FE7D080F3BA17BE
S1133120620773078407950718F071F49EF5FFC0D2
S11331300EF4E0950B2EBA2FA02D0B01B9019001CE
S11331400C01CA01A0011124FF27591B99F0593F12
S113315050F4503E68F11A16F040A22F232F342F5A
S11331604427585FF3CF469537952795A795F040A8
S11331705395C9F77EF41F16BA0B620B730B840BBD
S1133180BAF09150A1F0FF0FBB1F661F771F881F75
S1133190C2F70EC0BA0F621F731F841F48F48795CD
S11331A077956795B795F7959E3F08F0B3CF9395BC
S11331B0880F08F09927EE0F97958795089504D006
S11331C06894B111B5C0089598D088F09F5790F0D5
S11331D0B92F9927B751A0F0D1F0660F771F881F38
S11331E0991F1AF0BA95C9F712C0B13081F09FD077
S11331F0B1E008959CC0672F782F8827B85F39F015
S1133200B93FCCF3869577956795B395D9F73EF496
S113321090958095709561957F4F8F4F9F4F08953E
S1133220E89409C097FB3EF490958095709561955C
S11332307F4F8F4F9F4F9923A9F0F92F96E9BB2712
S11332409395F695879577956795B795F111F8CF8E
S1133250FAF4BB0F11F460FF1BC06F5F7F4F8F4FF9
S11332609F4F16C0882311F096E911C0772321F0EF
S11332709EE8872F762F05C0662371F096E8862F87
S113328070E060E02AF09A95660F771F881FDAF7DE
S1133290880F9695879597F9089597F99F6780E821
S11332A070E060E008959FEF80EC089500240A9494
S11332B01616170618060906089500240A9412160D
S11332C01306140605060895092E0394000C11F440
S11332D0882352F0BB0F40F4BF2B11F460FF04C0ED
S11332E06F5F7F4F8F4F9F4F089557FD9058440F46
S11332F0551F59F05F3F71F04795880F97FB991F51
S113330061F09F3F79F0879508951216130614060D
S1133310551FF2CF4695F1DF08C01616170618069A
S1133320991FF1CF86957105610508940895E89475
S1133330BB2766277727CB0197F908950BD0C4CF15
S1133340B5DF28F0BADF18F0952309F0A6CFABCF8C
S11333501124EECFCADFA0F3959FD1F3950F50E06F
S1133360551F629FF001729FBB27F00DB11D639F33
S1133370AA27F00DB11DAA1F649F6627B00DA11DD9
S1133380661F829F2227B00DA11D621F739FB00D7F
S1133390A11D621F839FA00D611D221F749F3327EF
S11333A0A00D611D231F849F600D211D822F762F88
S11333B06A2F11249F5750408AF0E1F088234AF085
S11333C0EE0FFF1FBB1F661F771F881F91505040D1
S11333D0A9F79E3F510570F060CFAACF5F3FECF391
S11333E0983EDCF3869577956795B795F795E795BD
S11333F09F5FC1F7FE2B880F911D9695879597F9CE
S1133400089597FB072E16F4009406D077FD08D094
S113341046D007FC05D03EF4909581959F4F0895C2
S1133420709561957F4F0895A1E21A2EAA1BBB1BCC
S1133430FD010DC0AA1FBB1FEE1FFF1FA217B3077C
S1133440E407F50720F0A21BB30BE40BF50B661F92
S1133450771F881F991F1A9469F760957095809556
S113346090959B01AC01BD01CF010895A29FB001CD
S1133470B39FC001A39F700D811D1124911DB29FA4
S1133480700D811D1124911D0895F0DFA59F900DED
S1133490B49F900DA49F800D911D11240895AA1B23
S11334A0BB1B51E107C0AA1FBB1FA617B70710F02B
S11334B0A61BB70B881F991F5A95A9F7809590955D
S11334C0BC01CD010895CF93DF93CDB7DEB7FE01E4
S11334D0359661917191AF0180910C2690910D26E2
S11334E058D0DF91CF9108950F931F93CF93DF931B
S11334F0E0910C26F0910D26238121FF1BC0EC01E5
S113350000E010E0899160910C2670910D26DB019A
S11335101896ED91FC911997882331F00995892B20
S113352089F30FEF1FEFEECF8AE00995892B11F491
S1133530C80102C08FEF9FEFDF91CF911F910F91D0
S113354008950F931F93CF93DF93CDB7DEB72E97D4
S1133550CDBFDEBF0D891E8986E08C8309831A8363
S11335608FEF9FE78D839E83AE01475E5F4F6F8928
S1133570788DCE0101960DD0EF81F885E00FF11F13
S113358010822E96CDBFDEBFDF91CF911F910F9198
S113359008952F923F924F925F926F927F928F92F3
S11335A09F92AF92BF92CF92DF92EF92FF920F93CE
S11335B01F93CF93DF93CDB7DEB72C97CDBFDEBF7C
S11335C07C016B018A01FC0116821782838181FFD1
S11335D0B0C1CE0101964C01F7019381F60193FD30
S11335E0859193FF81916F01882309F49EC18532EF
S11335F039F493FD859193FF81916F01853221F414
S1133600B70190E0C4D1E8CF512C312C20E0203216
S1133610A0F48B3269F030F4803259F0833269F4CB
S113362020612CC08D3239F0803339F4216026C0FA
S11336302260246023C0286021C027FD27C030ED0C
S1133640380F3A3078F426FF06C0FAE05F9E300D5A
S11336501124532E13C08AE0389E300D1124332ECA
S113366020620CC08E3221F426FD5FC1206406C0A6
S11336708C3611F4206802C0883641F4F60193FDBB
S1133680859193FF81916F018111C1CF982F9F7D07
S11336909554933028F40C5F1F4FFFE3F9830DC05A
S11336A0833631F0833771F0833509F057C021C078
S11336B0F801808189830E5F1F4F44244394512C69
S11336C0540114C03801F2E06F0E711CF801A0809F
S11336D0B18026FF03C0652D70E002C06FEF7FEF5D
S11336E0C5012C8749D12C0183012C852F77222EEB
S11336F016C03801F2E06F0E711CF801A080B18091
S113370026FF03C0652D70E002C06FEF7FEFC50197
S11337102C8727D12C012C852068222E830123FCA1
S113372019C0832D90E048165906A0F4B70180E231
S113373090E02DD13A94F5CFF50127FC859127FE31
S113374081915F01B70190E022D131103A94F1E008
S11337504F1A51084114510479F7DEC0843611F030
S1133760893631F5F80127FF07C0608171818281B4
S113377093810C5F1F4F08C060817181882777FD9A
S11337808095982F0E5F1F4F2F76B22E97FF09C09A
S113379090958095709561957F4F8F4F9F4F2068CE
S11337A0B22E2AE030E0A40124D1A82EA81843C0E8
S11337B0853729F42F7EB22E2AE030E025C0F22F7F
S11337C0F97FBF2E8F36C1F018F4883579F0ADC07B
S11337D0803719F0883721F0A8C02F2F2061B22E2E
S11337E0B4FE0DC08B2D8460B82E09C024FF0AC01E
S11337F09F2F9660B92E06C028E030E005C020E176
S113380030E002C020E132E0F801B7FE07C0608179
S11338107181828193810C5F1F4F06C06081718129
S113382080E090E00E5F1F4FA401E3D0A82EA818FB
S1133830FB2DFF77BF2EB6FE0BC02B2D2E7FA514BC
S113384050F4B4FE0AC0B2FC08C02B2D2E7E05C075
S11338507A2C2B2D03C07A2C01C0752C24FF0DC0AB
S1133860FE01EA0DF11D8081803311F4297E09C027
S113387022FF06C07394739404C0822F867809F0E3
S1133880739423FD12C020FF06C05A2C731418F43D
S1133890530C5718732C731460F4B70180E290E052
S11338A02C8775D073942C85F6CF731410F43718C5
S11338B001C0312C24FF11C0B70180E390E02C87B4
S11338C066D02C8522FF16C021FF03C088E590E056
S11338D002C088E790E0B7010CC0822F867851F0CF
S11338E021FD02C080E201C08BE227FD8DE2B70119
S11338F090E04DD0A51430F4B70180E390E047D0B8
S11339005A94F8CFAA94F401EA0DF11D8081B7010D
S113391090E03DD0A110F6CF332009F45DCEB7017D
S113392080E290E034D03A94F7CFF7018681978112
S113393002C08FEF9FEF2C96CDBFDEBFDF91CF91FA
S11339401F910F91FF90EF90DF90CF90BF90AF90B9
S11339509F908F907F906F905F904F903F902F90AB
S11339600895FC010590615070400110D8F78095CE
S113397090958E0F9F1F0895FC0161507040019037
S11339800110D8F7809590958E0F9F1F08950F937F
S11339901F93CF93DF93182F092FEB018B8181FDA8
S11339A003C08FEF9FEF20C082FF10C04E815F8164
S11339B02C813D81421753077CF4E881F9819F01F2
S11339C02F5F3F4F28833983108306C0E885F9852C
S11339D0812F0995892B29F72E813F812F5F3F4F36
S11339E02E833F83812F902FDF91CF911F910F91D1
S11339F00895FA01AA27283051F1203181F1E89481
S1133A006F936E7F6E5F7F4F8F4F9F4FAF4FB1E0CD
S1133A103ED0B4E03CD0670F781F891F9A1FA11DC8
S1133A20680F791F8A1F911DA11D6A0F711D811DC9
S1133A30911DA11D20D009F468943F912AE0269F8E
S1133A4011243019305D3193DEF6CF010895462FED
S1133A504770405D4193B3E00FD0C9F7F6CF462FCE
S1133A604F70405D4A3318F0495D31FD4052419337
S1133A7002D0A9F7EACFB4E0A695979587957795F4
S1133A806795BA95C9F700976105710508959B017B
S1133A90AC010A2E06945795479537952795BA9504
S1133AA0C9F7620F731F841F951FA01D0895F89412
S1053AB0FFCF42
S1133AB2010000000100000002000000006C187305
S1133AC218000011231D0100320080011D0048006E
S1133AD237004B005F008300B100EE002C011D0093
S1133AE2AD006600ED00AD01BF04C40B0627666697
S1133AF25D4D8F3E8725B61AC60B82064202FA0036
S1133B027D001B00270033004B0060008400B100DD
S1133B12EC002B011B0027005F002A011A02C905D1
S1133B22350EC12CE87960453A39411EA915C409FC
S1133B327205ED01CF0066006A6F686E332E7761FD
S1133B4276002A2A2A2A2057415620504C415945A8
S1133B5252202A2A2A2A004C4544204D41545249D3
S1133B625820436C6F636B202D2042793A204572B2
S1133B726C656E6420486573746E65730D0A002566
S1133B82640054696D653A00436F6D707574696EB3
S1133B926720426173656C696E652E204D616B65A9
S1133BA22073757265206E6F7468696E672069731D
S1133BB220696E2074686520766963696E69747918
S1133BC2206F66207468652045564200496E697408
S1133BD269616C20426173656C696E652043616C36
S1133BE263756C617465642C20505331203D20252B
S1133BF2642C20505332203D2025642C2050533312
S1133C02203D202564200A0053616D706C65732089
S1133C1261726520536174757261746564004572E2
S1093C226C656E640000F5
S9030000FC
