S01400006D61747269785F636C6F636B2E7372656310
S113000051C100006EC100006CC100006AC1000053
S113001068C1000066C1000064C1000062C1000044
S113002060C100005EC100000C94A90E5AC100001A
S113003058C1000056C10000E4C3000052C10000D2
S113004050C100004EC100004CC100004AC1000074
S11300500C94F60D46C1000044C1000042C10000EA
S113006040C100003EC100003CC100003AC1000094
S113007038C1000036C1000034C1000032C10000A4
S113008030C100002EC100000C945B0E2AC1000098
S113009028C1000026C1000024C1000022C10000C4
S11300A020C100001EC100001CC100001AC10000D4
S11300B018C1000016C1000014C1000012C10000E4
S11300C010C100000EC100000CC100000AC10000F4
S11300D008C1000006C1000004C1000002C1000004
S11300E000C10000FEC00000FCC00000FAC0000017
S11300F0F8C00000F6C00000F4C00000F2C0000028
S1130100F0C00000EEC000000C940D0EEAC0000028
S1130110E8C00000E6C00000E4C00000E2C0000047
S1130120E0C00000DEC00000DCC00000DAC0000057
S1130130D8C00000D6C00000D4C00000D2C0000067
S1130140D0C00000CEC00000CCC00000CAC0000077
S1130150C8C00000C6C00000C4C00000C2C0000087
S1130160D1C20000BEC00000BCC00000BAC0000084
S1130170B8C00000B6C00000B4C00000B2C00000A7
S1130180B0C00000AEC00000ACC00000AAC00000B7
S1130190A8C00000A6C00000A4C00000A2C00000C7
S11301A0A0C000009EC000009CC000009AC00000D7
S11301B098C0000096C0000094C0000092C00000E7
S11301C090C000008EC000008CC000008AC00000F7
S11301D088C0000086C0000084C0000082C0000007
S11301E080C000007EC000007CC000007AC0000017
S11301F078C0000076C0000074C00000D90B030A68
S1130200030A030A030A030A030A030A030A030A82
S1130210030A030A030AD90B030A030A030A030A9B
S1130220030A030A030A030A030A030A030A030A62
S1130230030A030A030A030A030A030A030A030A52
S1130240030A030A030A030A030A030A030A030A42
S1130250030A030A030A030A030A030A030A030A32
S1130260030A030A030A030A030A030A030A030A22
S1130270D90B030A030A030A030A030AD90B030A64
S1130280030A030AD90B030A030A030A030A030A2B
S1130290030A030AD90B030A030A030AD90B030A44
S11302A0D90BDB0B11241FBECFEFCDBFDFE2DEBFC6
S11302B011E2A0E0B0E2EAE3FCE200E00BBF02C01E
S11302C007900D92AA3BB107D9F729E2AAEBB1E254
S11302D001C01D92A437B207E1F70E94860D0C9469
S11302E01B168ECE80E18093550080915000806172
S11302F0809350008091510084FFFCCF88ED84BF2F
S113030080914000887F8460809340000895E0E6F7
S1130310F6E080E2818385832FEF33E284EF90E07F
S11303202150304080409040D9F700C0000008952B
S113033080E2E0E6F6E08683089586E08093CD22AD
S113034082E190E20E94151124E535E885E491E00C
S11303502150304080409040D9F700C000C00000D8
S11303608091CD22813009F0089586E08093CD22DA
S113037089E190E20E9415112FEF33ED80E32150C3
S113038030408040E1F700C000008091CD228130F0
S113039059F786E08093CD2286E290E20E941511FF
S11303A09FEF23ED30E3915020403040E1F700C04F
S11303B000008091CD228130B9F686E08093CD2271
S11303C082E390E20E9415118FEF93ED20E38150B8
S11303D090402040E1F700C0000081E00895EF92D2
S11303E0FF920F931F93CF93DF93CDB7DEB7C4561D
S11303F0D109CDBFDEBF7B012AE0EEE3F0E28E013E
S11304000F5F1F4FD80101900D922A95E1F7BC01AF
S1130410CE010B960E94E212F80101900020E9F748
S1130420319742E25CE262E270E04083518362838E
S11304307383B701CF0103960E94E212F801019081
S11304400020E9F7319782E290E08083918386E08F
S11304508093CD22C8010E9415112FEF33ED40E3A4
S1130460215030404040E1F700C000002091CD22EF
S11304708EE390E010C02FEF37EA41E62150304080
S11304804040E1F700C000000197009729F1209156
S1130490CD222223F9F0213071F786E08093CD221A
S11304A089E490E20E9415118FEF93ED20E38150CF
S11304B090402040E1F700C000008091CD22CC594B
S11304C0DF4FCDBFDEBFDF91CF911F910F91FF9022
S11304D0EF90089580E0F3CF82E0F1CFAF92BF9226
S11304E0CF92DF92EF92FF920F931F93CF93DF93FC
S11304F0CDB7DEB7C456D109CDBFDEBF6B017A01DB
S113050024E1E3E5F0E28E010F5F1F4FD801019073
S11305100D922A95E1F7BC01CE0144960E94E212A5
S1130520D8010D900020E9F7119785E0E7E6F0E2A5
S113053001900D928A95E1F786E08093CD22C8015F
S11305400E9415112FEF87EA91E6215080409040D8
S1130550E1F700C000008091CD22813079F0CC59C0
S1130560DF4FCDBFDEBFDF91CF911F910F91FF9081
S1130570EF90DF90CF90BF90AF900895F601019077
S11305800020E9F7CF018C199D094AE050E0A12C25
S1130590B12CB50148960E9412138CE0ECE6F0E20F
S11305A0D80101900D928A95E1F7B501CE010C9620
S11305B00E94E212F80101900020E9F731978DE0E2
S11305C090E08083918386E08093CD22C8010E94CD
S11305D01511FFEF23ED80E3F15020408040E1F757
S11305E000C0000007E415E424E530E209831A831F
S11305F02B833C83B601CE0105960E94E212CE0104
S11306000196DC010D900020E9F711972CE0E8E752
S1130610F0E201900D922A95E1F726E02093CD2295
S11306200E9415119FEFE3EDF0E39150E040F0409C
S1130630E1F700C000008091CD2200E010E096E0D8
S1130640D92E18C0D092CD2283E890E20E941511D1
S11306502FEF87EA91E6215080409040E1F700C0F7
S113066000000F5F1F4F0E33110589F18091CD22D9
S1130670882311F0813031F7EFEFF7EA21E6E150FA
S1130680F0402040E1F700C000000D331105F8F4FC
S11306908091CD220F5F1F4F882311F0853061F7C1
S11306A080918422811115C086E08093CD2284E854
S11306B090E20E941511FFEF27EA81E6F1502040F5
S11306C08040E1F700C000008091CD2248CF82E055
S11306D046CF0AEB11E2F80101900020E9F7AF01DF
S11306E04A5C5142B801C7010E94E9121092842267
S11306F0109282221092832288ECF80111928A953A
S1130700E9F7D2CF1F920F920FB60F9211240BB6B6
S11307100F922F933F934F935F936F937F938F9396
S11307209F93AF93BF93EF93FF934091A0094A30F7
S113073011F180918222909183229C012F5F3F4F7F
S11307402093822230938322FC01E654FE4D4083A1
S1130750FF91EF91BF91AF919F918F917F916F9195
S11307605F914F913F912F910F900BBE0F900FBE51
S11307700F901F90189568E970E28AEB91E20E944D
S1130780F812892B79F081E08093CD226BE770E039
S11307908AEB91E20E94D712892B79F081E0809351
S11307A08422D6CF6AEB70E28AEB91E20E94F812BF
S11307B0892B79F01092CD22E9CF109282221092E7
S11307C0832288ECEAEBF1E2DF011D928A95E9F7D6
S11307D0BFCF6EEF70E28AEB91E20E94F812892B90
S11307E021F083E08093CD22D1CF66E071E28AEBE1
S11307F091E20E94F812892B49F285E08093CD2280
S1130800C5CF1F920F920FB60F9211240BB60F9201
S1130810CF92DF92EF92FF922F933F934F935F9388
S11308206F937F938F939F93AF93BF93EF93FF93B4
S1130830E0910F23F0911023309709F461C04681B1
S1130840578122813381A085B185A20FB31F808196
S113085091818130910589F008F469C0029709F00B
S11308606FC04230510508F44BC011966C9160582A
S1130870425051092E5F3F4F09C04230510508F4E0
S11308803FC06C91425051092E5F3F4F46835783BE
S1130890828593850197822393238283938370E0D7
S11308A080E090E00E94CA112AE939E949E15FE356
S11308B00E9456126B017C0160E070E0CB010E9443
S11308C0C8112DEC3CEC4CEC5EE30E9456129B01EB
S11308D0AC01C701B6010E9433110E94971177271A
S11308E08091852290918622860F971F96958795F1
S11308F08093380390933903609385227093862202
S1130900FF91EF91BF91AF919F918F917F916F91E3
S11309105F914F913F912F91FF90EF90DF90CF9097
S11309200F900BBE0F900FBE0F901F90189541159E
S1130930510531F36C91415051092F5F3F4FA6CFC0
S113094044305105E8F211966C91445051092C5FE2
S11309503F4F9CCF41E0409381064093850624E0BD
S1130960209381062093850638E0309381064093D6
S1130970860630938106209386063093850620935D
S11309808506209386063093860620938506209359
S11309908606309386062093850620938606309338
S11309A08606209385062093860630938606209338
S11309B08506209386063093860620938506209329
S11309C08606309386062093850620938606309308
S11309D08606209385062093860630938606209308
S11309E085062093860630938606209385062093F9
S11309F086063093850620938506209386063093D9
S1130A008606209385063093860640938506409398
S1130A1086063093810620938606309385062093BC
S1130A2085062093860630938606209385062093B8
S1130A308606309386062093850620938606309397
S1130A408606209385062093860630938606209397
S1130A508506209386063093860620938506209388
S1130A608606309386062093850620938606309367
S1130A708606209385062093860630938606209367
S1130A808506209386063093850620938506209359
S1130A908606309385062093850620938606309338
S1130AA086062093850630938606409385064093F8
S1130AB0860630938106209386063093850620931C
S1130AC08506209386063093860620938506209318
S1130AD086063093860620938506209386063093F7
S1130AE086062093850620938606309386062093F7
S1130AF085062093860630938606209385062093E8
S1130B0086063093860620938506209386063093C6
S1130B1085062093850620938606309386062093C7
S1130B2085062093860630938606209385062093B7
S1130B308606309386062093850620938606309396
S1130B408606209385063093860640938506409357
S1130B50860630938106209386063093850620937B
S1130B608506209386063093860620938506209377
S1130B708606309386062093850620938606309356
S1130B808606209385062093860630938606209356
S1130B908506209386063093860620938506209347
S1130BA08606309385062093850620938606309327
S1130BB08606209385062093860630938506209327
S1130BC08506209386063093860620938506209317
S1130BD086063093860620938506209386063093F6
S1130BE086062093850630938606409385064093B7
S1130BF086063093810620938606309385062093DB
S1130C0085062093860630938606209385062093D6
S1130C1086063093860620938506209386063093B5
S1130C2086062093850620938606309386062093B5
S1130C3085062093860630938606209385062093A6
S1130C408606309385062093850620938606309386
S1130C508506209385062093860630938606209386
S1130C608506209386063093860620938506209376
S1130C708606309386062093850620938606309355
S1130C80860620938506309386064093850690E079
S1130C909460880F991F40938606309381062093B1
S1130CA08606309385062093850620938606309326
S1130CB08606209385062093860630938606209325
S1130CC085062093860690FDE7C03093860624E0CF
S1130CD0209385062093860628E087FD9EC02093F6
S1130CE0860624E0209385062093860628E086FD68
S1130CF09EC02093860624E02093850620938606D2
S1130D0028E085FD9EC02093860624E02093850676
S1130D102093860628E084FD9EC02093860624E066
S1130D20209385062093860628E083FD9EC02093A9
S1130D30860624E0209385062093860628E082FD1B
S1130D409EC02093860694E0909385069093860631
S1130D5081FD9EC088E08093860684E080938506AA
S1130D608093860698E090938606809385069093F8
S1130D70860621E0209385062093860690938106BB
S1130D8080938606909385068093850680938606D5
S1130D9090938606809385068093860690938606B4
S1130DA080938506809386069093850680938506B6
S1130DB080938606909386068093850680938606A4
S1130DC09093850680938506809386069093860685
S1130DD08093850680938606909386068093850685
S1130DE08093860690938606809385068093860674
S1130DF09093860680938506809386069093850655
S1130E008093850680938606909386068093850654
S1130E10909386062093850608952093850624E002
S1130E20209385062093860628E086FF62CF2093D0
S1130E30850624E0209385062093860628E085FF16
S1130E4062CF2093850624E02093850620938606AE
S1130E5028E084FF62CF2093850624E02093850652
S1130E602093860628E083FF62CF2093850624E042
S1130E70209385062093860628E082FF62CF209384
S1130E80850694E0909385069093860681FF62CF51
S1130E9088E08093850661CF3093850624E0209313
S1130EA085062093860628E087FDB7CF18CF8031CA
S1130EB008F08FE0806A90E09460880F991F21E029
S1130EC02093860638E03093810624E0209386063A
S1130ED030938506209385062093860630938606F4
S1130EE020938506209386063093860620938506F4
S1130EF020938606309385062093850620938606E4
S1130F0030938606209385062093860630938506C3
S1130F1020938506209386063093860620938506C3
S1130F202093860684FD47C03093860624E02093F0
S1130F3085062093860628E083FD26C02093860636
S1130F4024E0209385062093860628E082FD26C0AF
S1130F502093860694E0909385069093860681FDFF
S1130F6026C088E08093860684E08093850680937B
S1130F70860698E09093860680938506909386066D
S1130F8081E08093850608952093850624E02093CC
S1130F9085062093860628E082FFDACF2093850613
S1130FA094E0909385069093860681FFDACF88E0DB
S1130FB080938506D9CF3093850624E02093850657
S1130FC02093860628E083FDDFCFB8CF81E08093AD
S1130FD0860698E09093810684E080938606909339
S1130FE08506809385068093860690938606809373
S1130FF08506809386069093850680938506909354
S11310008606909381068093860690938606809345
S11310108506809386069093860680938506809342
S11310208606909386068093850680938606909321
S11310308606809385068093860690938606809321
S11310408506809386069093860680938506809312
S11310508606909386068093850690938606E8E834
S1131060F2E238E024E07CC03093860620938506C3
S11310702093860695FD92C03093860620938506BC
S11310802093860694FD92C03093860620938506AD
S11310902093860693FD92C030938606209385069E
S11310A02093860692FD92C030938606209385068F
S11310B02093860691FD92C0309386062093850680
S11310C02093860690FD92C0309386062093850671
S11310D02093860687FD92C030938606209385066A
S11310E02093860686FD92C030938606209385065B
S11310F02093860685FD92C030938606209385064C
S11311002093860684FD92C030938606209385063C
S11311102093860683FD92C030938606209385062D
S11311202093860682FD92C030938606209385061E
S11311302093860681FD92C030938606209385060F
S11311402093860680FD92C0309386062093850600
S113115030938606329682E2E83AF80709F48CC0A6
S1131160DF0111978C9190E0982F88274081842B80
S1131170309381062093860697FD7BC030938606C4
S1131180209385062093860696FF6ECF30938506BE
S1131190209385062093860695FF6ECF30938506AF
S11311A0209385062093860694FF6ECF30938506A0
S11311B0209385062093860693FF6ECF3093850691
S11311C0209385062093860692FF6ECF3093850682
S11311D0209385062093860691FF6ECF3093850673
S11311E0209385062093860690FF6ECF3093850664
S11311F0209385062093860687FF6ECF309385065D
S1131200209385062093860686FF6ECF309385064D
S1131210209385062093860685FF6ECF309385063E
S1131220209385062093860684FF6ECF309385062F
S1131230209385062093860683FF6ECF3093850620
S1131240209385062093860682FF6ECF3093850611
S1131250209385062093860681FF6ECF3093850602
S1131260209385062093860680FF6ECF30938506F3
S11312706DCF3093850684CF81E0809385060895F1
S113128080E2E7E8F2E2DF011D928A95E9F79ECE5B
S11312902F923F924F925F926F927F928F92AF9272
S11312A0BF92CF92DF92EF92FF920F931F93CF934F
S11312B0DF93CDB7DEB72897CDBFDEBF8D839E8386
S11312C02F8338873801DC018D919C918417950711
S11312D008F0D6C3FB01E80FF91F1081E12CF12CB3
S11312E0112309F4E4C0AA24AA94BA2CE3E08E2EB4
S11312F025C01D3509F493C008F08BC01A3309F0DA
S11313004DC1AD81BE811296ED91FC911397319739
S11313101496ED93FC931597FC013196EB83FC83B3
S1131320CF018D939C938417950708F0C0C0FB01EF
S1131330E80FF91F1081112309F4B9C01C3209F414
S1131340DDC0B8F61D3009F4A5C008F4A3C21032FC
S113135009F422C2123209F08BC1FC013196EB83ED
S1131360FC83DF01ED81FE81A083B183A417B5075F
S1131370E8F40B811C8109C01196ED81FE81A083E4
S1131380B183A417B50790F48D01060F171FF80158
S11313901081112359F0123209F4E4C21C3561F7AB
S11313A08D010F5F1F4F04171507D0F0AD81BE816B
S11313B08D939C938DEF2896CDBFDEBFDF91CF91A7
S11313C01F910F91FF90EF90DF90CF90BF90AF905F
S11313D08F907F906F905F904F903F902F900895E3
S11313E0ED81FE81008311836B01C00ED11EF601D5
S11313F02080312C6101F2E2CF1AD10824E5C21613
S1131400D10408F4D2C1ED81FE81808391838EEFF3
S1131410D2CF1B3709F4C5C01D3709F029C12F816C
S11314203885232B09F444C21D3709F496C2B2E06F
S1131430DB2EED81FE8122813381F9013197F7FDA5
S113144026C08901000F111F000F111F000F111F6B
S1131450021B130B075011092F813885020F131F2C
S1131460D80111964D905C9012974520409451F00C
S1131470D80113964D905C901497BFEF4B165B0602
S113148009F424C2319707501109F7FFE9CF3196C7
S113149009F4E8C2FC013196EB83FC83CF01AD81F2
S11314A0BE818D939C938417950708F440CFED81FA
S11314B0FE8142815381CA01019797FD1DC0FA0143
S11314C0EE0FFF1FEE0FFF1FEE0FFF1FE41BF50BC8
S11314D02F813885E20FF31F3697208131812F3F0A
S11314E03F4F31F0228133812F3F3F4F09F4A1C296
S11314F00197379797FFF1CF8E2D5DCF2F813885D8
S1131500232B09F4D5C1ED81FE8124813581F901B4
S1131510EE0FFF1FEE0FFF1FEE0FFF1FE21BF30B7B
S11315202F813885E20FF31FE081E150E23008F4A7
S1131530BFC1ED81FE8102811381D8011197B7FDEE
S1131540AEC1F801EE0FFF1FEE0FFF1FEE0FFF1FDE
S1131550E01BF10B37972F813885E20FF31F04C08E
S113156011973797B7FD18C1108111501230C0F789
S1131570C180D280CD20C09499F3C380D480CD2083
S1131580C09471F7ED81FE81A483B5838C010F5F54
S11315901F4F0B831C83C801DF01C3CE1B3509F029
S11315A067C03FEFE31AF30AAF81B885AB2B09F4A8
S11315B071CFAD81BE8112962D903C901397261465
S11315C0370408F081C1F10131961296ED93FC9332
S11315D01397D101AA0FBB1FAA0FBB1FAA0FBB1FD2
S11315E0A219B309EF81F885AE0FBF1F1396AD9210
S11315F0BC9214971196AD92BC92129715961D92B7
S11316001C921697109709F45FC1ED81FE81C48086
S1131610D580FFEFCF16DF06B1F02601440C551C30
S1131620440C551C440C551C4C185D082F813885FE
S1131630420E531EF201C580D680FFEFCF1ADF0A97
S1131640F201C582D6821B3709F48AC112E01C93C9
S113165011968D939C931297AD81BE8114962D9211
S11316603C921597FC013196EB83FC83CF0159CE54
S11316708417950708F0F4C1112309F4F1C19C0102
S11316802F5F3F4F260F371FDC0117C0193020F0A2
S11316901B30E0F01D30D1F010521F3508F076C039
S11316A01196ED81FE81A083B183A417B50770F470
S11316B0F90111919F01112349F0103239F030F3EF
S11316C01A3321F008F058C01C3231F72F813885C5
S11316D0232B09F4B0C1ED81FE810281138106152B
S11316E0170508F0EDC098012F5F3F4F2283338325
S11316F0F801EE0FFF1FEE0FFF1FEE0FFF1FE01BA1
S1131700F10B2F813885E20FF31FA382B482A182EB
S1131710B28215821682309709F4D2C01082818376
S11317209283A383B483CD010197ED81FE818083ED
S11317309183FFEFEF1AFF0AED81FE818481958189
S11317408F3FFFEF9F0791F0FC01EE0FFF1FEE0F9D
S1131750FF1FEE0FFF1FE81BF90B2F813885E20FE7
S1131760F31F85819681019685839683AB83BC8321
S1131770CD01AD81BE81D5CD1D3509F4A7CF1D376F
S113178009F4A4CF10521F3508F48ACFAD81BE816D
S11317908D939C938EEF0FCE9C012F5F3F4F2B8335
S11317A03C83C901AD81BE81BCCDF601E250FF4F3F
S11317B0E0C6D801E1CD8D010E5F1F4FED81FE81A2
S11317C0008311830417150708F061C06B01C00E74
S11317D0D11EF601D080DD2009F459C010ED1D0D95
S11317E01A3028F01D2D1F7D1154163078F68D0106
S11317F00D5F1F4FED81FE810083118304171507D0
S113180008F045C06B01C00ED11EF601D080DD206A
S1131810F1F110ED1D0D1A3030F01D2D1F7D115406
S1131820163008F0B3CF8D010C5F1F4FED81FE81A0
S1131830008311830417150750F56B01C00ED11EE8
S1131840F601D080DD2019F110ED1D0D1A3030F0B5
S11318501D2D1F7D1154163008F098CF8D010B5F9C
S11318601F4FED81FE81008311830417150778F45F
S11318706B01C00ED11EF601D080DD2041F010EDC9
S11318801D0D1A3008F0C9C08D010A5F1F4FD80121
S1131890119772CDE7EFE10FE23008F0E9CE8C0149
S11318A00F5F1F4F0B831C83C801AD81BE8139CDEF
S11318B0DC011196AB83BC83CD01AD81BE8131CDFA
S11318C0AD81BE818D939C938FEF75CDD801CC9063
S11318D0DC10C8C0AD81BE8114964D925C92159700
S11318E09C012F5F3F4F2B833C83D80113962D938C
S11318F03C931497F7FD23C0CF01880F991F880FDD
S1131900991F880F991F8E1B9F0B2F813885820F7B
S1131910931FDC0111960D911C9112970F3F1F4FDD
S113192041F0DC0113960D911C9114970F3F1F4F4A
S113193059F031970797EF3FBFEFFB0751F78B81C2
S11319409C81AD81BE81EDCCAD81BE811496ED93B9
S1131950FC9315978B819C81E4CCDD24D39469CDD1
S113196011E075CE2F813885232B09F47DC0ED81DC
S1131970FE81C280D380C614D70408F0A1CF8601AB
S11319800F5F1F4F028313838601000F111F000F87
S1131990111F000F111F0C191D092F813885020F0B
S11319A0131FF801A382B482A182B2821582168227
S11319B0012B09F485CF80822B813C8121833283E2
S11319C0A383B4833FEFE31AF30AAD81BE81149677
S11319D08D919C9115978F3FBFEF9B07A9F1FC0157
S11319E0EE0FFF1FEE0FFF1FEE0FFF1FE81BF90B9B
S11319F02F813885E20FF31F8581968101968583B7
S1131A009683AD81BE810D90BC91A02D1196AB83C0
S1131A10BC83CD01AD81BE8184CC1D2D1F7D1154AD
S1131A20163008F431CFAD81BE818D939C938EEF37
S1131A30C2CC8DEFC0CC3FEFE31AF30AAB83BC8377
S1131A40CD01AD81BE816DCCED81FE810190F0812F
S1131A50E02D3196EB83FC83CF01AD81BE8161CC57
S1131A60DC0134CE8EEFA7CCEFEFEE1AFE0A8D0127
S1131A700F5F1F4F0B831C83C801AD81BE8151CC06
S1131A80E12CF12C14CDFC011082118212821382FC
S1131A908FEF9FEF848395830895CF92DF92EF9227
S1131AA0FF920F931F93CF93DF93CDB7DEB7CDB6DD
S1131AB0DEB6FC0127E0429FE00DF11D11242181D7
S1131AC0328103811481021B130BC80101964DB7A7
S1131AD05EB7481B590B4DBF5EBF8DB79EB70196CD
S1131AE07C01620F731FA80159D5F701E00FF11FA4
S1131AF01082C701D5D5CDBEDEBEDF91CF911F9137
S1131B000F91FF90EF90DF90CF900895CF93DF93E4
S1131B10CDB7DEB7CA58D340CDBFDEBF0E94720135
S1131B2084E20E94AA0480E0C2D9AADB5DD387E0E4
S1131B308093A20080E894E075D18AE590E0CED24B
S1131B40CE018B579C4F9FDF84E090E280936E29F7
S1131B5090936F2980937029909371298CE291E27C
S1131B609FD578940E9487010E949D018130E1F7FE
S1131B706BE970E286EA90E20E94EF018130C1F7DE
S1131B807E0183E4E81A8DEFF80AA70164E571E2A7
S1131B908CE991E20E946E020E9498018FEA91E220
S1131BA07FD5C7017DD5F70101900020E9F7AF018A
S1131BB0415051094E195F0904E610E09E012F5F60
S1131BC03F4FB701CE018B579C4F62DB43E0B70117
S1131BD0CE01019662DF44E0B701CE0101965DDFDC
S1131BE045E0B701CE01019658DFFFCF1F920F9257
S1131BF00FB60F9211248F939F938091B7229091E7
S1131C00B82201968093B7229093B8229F918F9126
S1131C100F900FBE0F901F9018951F920F920FB642
S1131C200F9211240BB60F922F933F934F935F9310
S1131C306F937F938F939F93AF93BF93EF93FF9390
S1131C408091080685FF2DC08091080686FD23C07B
S1131C5082E080934329809143291F928F938EEDD4
S1131C6090E29F938F930BD50F900F900F900F904E
S1131C70FF91EF91BF91AF919F918F917F916F9160
S1131C805F914F913F912F910F900BBE0F900FBE1C
S1131C900F901F9018958091080687FD04C083E07B
S1131CA0D8CF81E0D6CF8091280680FD02C084E0A1
S1131CB0D0CF80E0CECF1F920F920FB60F92112497
S1131CC00BB60F922F933F934F935F936F937F9332
S1131CD08F939F93AF93BF93EF93FF9380910806E5
S1131CE085FF2DC08091080686FD23C082E0809385
S1131CF04329809143291F928F938EED90E29F9305
S1131D008F93BDD40F900F900F900F90FF91EF9190
S1131D10BF91AF919F918F917F916F915F914F91FF
S1131D203F912F910F900BBE0F900FBE0F901F90FD
S1131D3018958091080687FD04C083E0D8CF81E020
S1131D40D6CF8091280680FD02C084E0D0CF80E009
S1131D50CECF1F920F920FB60F9211242F933F9361
S1131D604F935F936F937F938F939F93AF93BF939F
S1131D70EF93809166298F5F809366298C3381F07D
S1131D80EF91BF91AF919F918F917F916F915F91EF
S1131D904F913F912F910F900FBE0F901F90189568
S1131DA010926629809167298F5F809367298C330D
S1131DB039F710926729809168298F5F8093682989
S1131DC08831F1F6E0916B294091692950916A2993
S1131DD04F5F5F4F4093692950936A299A01A3E9A1
S1131DE0B4E2CDD3281B390B36952795280F391F1C
S1131DF03695279536952795E20FE0936B298FE466
S1131E00E89FE12D1124E295EF7080916C29909167
S1131E106D298E0F911D80936C2990936D291092DA
S1131E206829AECFE0E8F4E0128289E0858388E097
S1131E30818381E084830895EF920F931F93DC01E3
S1131E40762F770F16967C93169784E6489FA00109
S1131E5011244115510501F1FA010DC0392F3075D6
S1131E603035F9F0907C29F58AE68A95F1F700C0BF
S1131E703197309789F014969C911497392F3874C0
S1131E80383461F716967C9316978AE68A95F1F7AB
S1131E9000C03197309779F714968C91149785FF89
S1131EA003C087E013968C938E2D1F910F91EF90B2
S1131EB0089517962C93179714969C91149796FF50
S1131EC0FBCF14968C91149786FF25C014968C91A1
S1131ED0149784FD20C0660F616016966C93169764
S1131EE00FC0892F8075803501F1907C39F58AE621
S1131EF08A95F1F700C0415051094115510581F00F
S1131F0014969C911497892F8874883451F71696E7
S1131F106C931697ECCF86E01F910F91EF90089584
S1131F2014968C91149785FF04C087E013968C93C4
S1131F30139787E013968C938E2DB7CF2FEF2E0D2A
S1131F40F80142E037E02F3FA1F314968C911497E7
S1131F508C708C3071F314969C91149797FFFBCF7F
S1131F6017968C9117978193211105C013963C9372
S1131F7013972150E8CF13964C9313972150E3CF36
S1131F80EF920F931F93FC01660F668384E6489FCC
S1131F90A00111244115510581F416C0392F307563
S1131FA03035A9F0907CD1F48AE68A95F1F700C027
S1131FB0415051094115510539F09481392F387434
S1131FC0383461F76683F0CF848185FF02C087E0EF
S1131FD083838E2D1F910F91EF9008952783948111
S1131FE096FFFDCF848186FF13C0848184FD10C0D9
S1131FF0D8018FEF8E0D8F3F41F09D91978394818F
S113200096FFFDCF948196FD08C097E09383E2CFBD
S113201086E01F910F91EF90089594812FEF280F80
S113202094FDF3CF822FE7CF0F931F93CF93DF93CA
S1132030EC0160E2CE01B2D060E2892B61F5CE0101
S1132040ADD08C0197FD16C002C097FD13C060E3AC
S1132050CE01A4D081309105C1F760E2CE019ED0BB
S11320608017910739F197FD05C08C01F0CF60E22C
S1132070CE0194D060E2CE0191D0892BD9F360E2F5
S1132080CE018CD00197A9F680E090E0DF91CF914A
S11320901F910F910895CE0181D097FDCACF60E3BF
S11320A0CE017CD081309105C1F740E068E1CE01DA
S11320B058D0BFCF4BE068E1CE0153D0892BD1F685
S11320C017FDD5CF60E2CE0169D008171907D1F307
S11320D060E2CE0163D0892B69F2D1CF0F931F93B5
S11320E0CF93DF938C0140E068E03BD0EC01C80162
S11320F09BDFC80FD91F40E068E0C80132D0C80F89
S1132100D91F40E064E0C8012CD0C80FD91F40E0BB
S113211065E0C80126D0C80FD91F40E066E0C801B9
S113212020D0C80FD91F40E063E0C8011AD0C80FFF
S1132130D91F4FEF61E2C80114D0C80FD91F41E085
S113214068E1C8010ED0C80FD91F44D047E167E049
S1132150C80107D08C0F9D1FDF91CF911F910F9164
S11321600895EF920F931F93CF93DF931F92CDB7F0
S1132170DEB7262F4983EE24E3948E010F5F1F4FB1
S113218048EE6AE580E894E0FBDE80E090E00F90A2
S1132190DF91CF911F910F91EF900895EF920F93DC
S11321A01F93CF93DF931F92CDB7DEB7262FEE2474
S11321B0E3948E010F5F1F4F48EE6AE580E894E0D8
S11321C03BDE898190E00F90DF91CF911F910F91B9
S11321D0EF9008952FEF89EF90E0215080409040D8
S11321E0E1F700C000000895E0E6F6E088E08183AE
S11321F084E08283E0EAF9E080E283838EE28683EE
S113220088E9878383E0858388E1848308959091B6
S1132210A10995FFFCCF8093A00908958091A1099D
S113222087FFFCCF8091A0090895FC01208122231F
S113223051F031968091A10985FFFCCF2093A0092C
S113224021912111F7CF8091A10985FFFCCF8DE069
S11322508093A0098091A10985FFFCCF8AE0809337
S1132260A00908955058BB27AA270ED0E5C0D6D0A0
S113227030F0DBD020F031F49F3F11F41EF4CBC0DA
S11322800EF4E095E7FBC1C0E92FE7D080F3BA175D
S1132290620773078407950718F071F49EF5FFC071
S11322A00EF4E0950B2EBA2FA02D0B01B90190016D
S11322B00C01CA01A0011124FF27591B99F0593FB1
S11322C050F4503E68F11A16F040A22F232F342FF9
S11322D04427585FF3CF469537952795A795F04047
S11322E05395C9F77EF41F16BA0B620B730B840B5C
S11322F0BAF09150A1F0FF0FBB1F661F771F881F14
S1132300C2F70EC0BA0F621F731F841F48F487956B
S113231077956795B795F7959E3F08F0B3CF93955A
S1132320880F08F09927EE0F97958795089504D0A4
S11323306894B111B5C0089598D088F09F5790F073
S1132340B92F9927B751A0F0D1F0660F771F881FD6
S1132350991F1AF0BA95C9F712C0B13081F09FD015
S1132360B1E008959CC0672F782F8827B85F39F0B3
S1132370B93FCCF3869577956795B395D9F73EF435
S113238090958095709561957F4F8F4F9F4F0895DD
S1132390E89409C097FB3EF49095809570956195FB
S11323A07F4F8F4F9F4F9923A9F0F92F96E9BB27B1
S11323B09395F695879577956795B795F111F8CF2D
S11323C0FAF4BB0F11F460FF1BC06F5F7F4F8F4F98
S11323D09F4F16C0882311F096E911C0772321F08E
S11323E09EE8872F762F05C0662371F096E8862F26
S11323F070E060E02AF09A95660F771F881FDAF77D
S1132400880F9695879597F9089597F99F6780E8BF
S113241070E060E008959FEF80EC089500240A9432
S11324201616170618060906089500240A941216AB
S11324301306140605060895092E0394000C11F4DE
S1132440882352F0BB0F40F4BF2B11F460FF04C08B
S11324506F5F7F4F8F4F9F4F089557FD9058440FE4
S1132460551F59F05F3F71F04795880F97FB991FEF
S113247061F09F3F79F087950895121613061406AC
S1132480551FF2CF4695F1DF08C016161706180639
S1132490991FF1CF86957105610508940895E89414
S11324A0BB2766277727CB0197F908950BD0C4CFB4
S11324B0B5DF28F0BADF18F0952309F0A6CFABCF2B
S11324C01124EECFCADFA0F3959FD1F3950F50E00E
S11324D0551F629FF001729FBB27F00DB11D639FD2
S11324E0AA27F00DB11DAA1F649F6627B00DA11D78
S11324F0661F829F2227B00DA11D621F739FB00D1E
S1132500A11D621F839FA00D611D221F749F33278D
S1132510A00D611D231F849F600D211D822F762F26
S11325206A2F11249F5750408AF0E1F088234AF023
S1132530EE0FFF1FBB1F661F771F881F915050406F
S1132540A9F79E3F510570F060CFAACF5F3FECF32F
S1132550983EDCF3869577956795B795F795E7955B
S11325609F5FC1F7FE2B880F911D9695879597F96C
S11325700895EE0FFF1F0590F491E02D0994A29F9A
S1132580B001B39FC001A39F700D811D1124911D43
S1132590B29F700D811D1124911D0895FB01DC0172
S11325A002C001900D9241505040D8F70895FC01AB
S11325B08191861721F08823D9F7992708953197B7
S11325C0CF010895FB01DC0101900D920020E1F799
S11325D00895FB01DC014150504048F001900D92F8
S11325E00020C9F701C01D9241505040E0F7089502
S11325F0FB0151915523A9F0BF01DC014D91451711
S11326004111E1F759F4CD010190002049F04D91B9
S113261040154111C9F3FB014111EFCF81E090E076
S1132620019708954532510518F4423008F004C06A
S1132630FB011082CB010895BB274A3031F4992362
S113264022F4BDE2909581959F4F01C0BB27FB0109
S11326505527AA27880F991FAA1FA41710F0A41B97
S113266083955051B9F7A05DAA3308F0A95DA193F1
S1132670009779F7B111B1931192CB013CC2CF937A
S1132680DF93CDB7DEB7FE01359661917191AF014D
S1132690809170299091712930D0DF91CF91089564
S11326A00F931F93CF93DF93E0917029F0917129D9
S11326B0238121FF1BC0EC0100E010E089916091AF
S11326C0702970917129DB011896ED91FC9119978D
S11326D0882331F00995892B89F30FEF1FEFEECF93
S11326E08AE00995892B11F4C80102C08FEF9FEF8E
S11326F0DF91CF911F910F9108952F923F924F92A6
S11327005F926F927F928F929F92AF92BF92CF927D
S1132710DF92EF92FF920F931F93CF93DF93CDB786
S1132720DEB72C97CDBFDEBF7C016B018A01FC01B3
S113273016821782838181FFB0C1CE0101964C01BC
S1132740F7019381F60193FD859193FF81916F01C8
S1132750882309F49EC1853239F493FD859193FF52
S113276081916F01853221F4B70190E0D4D1E8CF93
S1132770512C312C20E02032A0F48B3269F030F45B
S1132780803259F0833269F420612CC08D3239F0E3
S1132790803339F4216026C02260246023C028607D
S11327A021C027FD27C030ED380F3A3078F426FFDA
S11327B006C0FAE05F9E300D1124532E13C08AE048
S11327C0389E300D1124332E20620CC08E3221F439
S11327D026FD5FC1206406C08C3611F4206802C057
S11327E0883641F4F60193FD859193FF81916F0141
S11327F08111C1CF982F9F7D9554933028F40C5F9D
S11328001F4FFFE3F9830DC0833631F0833771F036
S1132810833509F057C021C0F801808189830E5F98
S11328201F4F44244394512C540114C03801F2E046
S11328306F0E711CF801A080B18026FF03C0652DC6
S113284070E002C06FEF7FEFC5012C8749D12C01E6
S113285083012C852F77222E16C03801F2E06F0EEB
S1132860711CF801A080B18026FF03C0652D70E0C3
S113287002C06FEF7FEFC5012C8727D12C012C8577
S11328802068222E830123FC19C0832D90E0481672
S11328905906A0F4B70180E290E03DD13A94F5CF17
S11328A0F50127FC859127FE81915F01B70190E036
S11328B032D131103A94F1E04F1A510841145104C5
S11328C079F7DEC0843611F0893631F5F80127FF37
S11328D007C060817181828193810C5F1F4F08C0A2
S11328E060817181882777FD8095982F0E5F1F4F37
S11328F02F76B22E97FF09C09095809570956195BB
S11329007F4F8F4F9F4F2068B22E2AE030E0A40102
S113291034D1A82EA81843C0853729F42F7EB22EAF
S11329202AE030E025C0F22FF97FBF2E8F36C1F0A8
S113293018F4883579F0ADC0803719F0883721F064
S1132940A8C02F2F2061B22EB4FE0DC08B2D846041
S1132950B82E09C024FF0AC09F2F9660B92E06C066
S113296028E030E005C020E130E002C020E132E0A0
S1132970F801B7FE07C060817181828193810C5F89
S11329801F4F06C06081718180E090E00E5F1F4F91
S1132990A401F3D0A82EA818FB2DFF77BF2EB6FEF6
S11329A00BC02B2D2E7FA51450F4B4FE0AC0B2FC2C
S11329B008C02B2D2E7E05C07A2C2B2D03C07A2C1B
S11329C001C0752C24FF0DC0FE01EA0DF11D8081AC
S11329D0803311F4297E09C022FF06C073947394D6
S11329E004C0822F867809F0739423FD12C020FF5F
S11329F006C05A2C731418F4530C5718732C731400
S1132A0060F4B70180E290E02C8785D073942C8524
S1132A10F6CF731410F4371801C0312C24FF11C001
S1132A20B70180E390E02C8776D02C8522FF16C076
S1132A3021FF03C088E590E002C088E790E0B70179
S1132A400CC0822F867851F021FD02C080E201C0C3
S1132A508BE227FD8DE2B70190E05DD0A51430F440
S1132A60B70180E390E057D05A94F8CFAA94F401C8
S1132A70EA0DF11D8081B70190E04DD0A110F6CF91
S1132A80332009F45DCEB70180E290E044D03A945B
S1132A90F7CFF7018681978102C08FEF9FEF2C96C5
S1132AA0CDBFDEBFDF91CF911F910F91FF90EF90CB
S1132AB0DF90CF90BF90AF909F908F907F906F905A
S1132AC05F904F903F902F900895FC0105906150C6
S1132AD070400110D8F7809590958E0F9F1F089530
S1132AE0FC016150704001900110D8F780959095D9
S1132AF08E0F9F1F0895DC01FC01672F71917723CE
S1132B00E1F7329704C07C916D9370836291AE17A4
S1132B10BF07C8F308950F931F93CF93DF93182F24
S1132B20092FEB018B8181FD03C08FEF9FEF20C044
S1132B3082FF10C04E815F812C813D814217530773
S1132B407CF4E881F9819F012F5F3F4F288339830B
S1132B50108306C0E885F985812F0995892B29F70B
S1132B602E813F812F5F3F4F2E833F83812F902FF4
S1132B70DF91CF911F910F910895FA01AA27283070
S1132B8051F1203181F1E8946F936E7F6E5F7F4F36
S1132B908F4F9F4FAF4FB1E03ED0B4E03CD0670FB2
S1132BA0781F891F9A1FA11D680F791F8A1F911D05
S1132BB0A11D6A0F711D811D911DA11D20D009F455
S1132BC068943F912AE0269F11243019305D319397
S1132BD0DEF6CF010895462F4770405D4193B3E080
S1132BE00FD0C9F7F6CF462F4F70405D4A3318F027
S1132BF0495D31FD4052419302D0A9F7EACFB4E0D8
S1132C00A6959795879577956795BA95C9F700978F
S1132C106105710508959B01AC010A2E0694579530
S1132C20479537952795BA95C9F7620F731F841F87
S10D2C30951FA01D0895F894FFCF2E
S1132C3A01000000000000020000000007110E114C
S1132C4A000041542B5253540041542B4349504DD4
S1132C5A4F44453D300041542B4349504D55583D4E
S1132C6A300041542B43574D4F44453D31004154A4
S1132C7A2B43574A41503D220041542B43574A4162
S1132C8A503F0041542B43495053544152543D221E
S1132C9A544350222C2200222C38300041542B4316
S1132CAA495053454E443D0020485454502F312E28
S1132CBA300D0A0041542B434950434C4F534500AD
S1132CCA41542B5253540D004F4B00413236413478
S1132CDA313135363800496E74656E6F5F363800A7
S1132CEA41542B43494653520D004552524F520008
S1132CFA41542B4349504D55583D310041542B43BF
S1132D0A49505345525645523D312C3830002564BA
S1132D1A0041542B43495053454E443D302C004105
S1132D2A542B434950434C4F53453D300D00434FB8
S1132D3A4E4E45435400434C4F534544006A6F6812
S1132D4A6E332E776176002A2A2A2A205741562082
S1132D5A504C41594552202A2A2A2A004C454420DB
S1132D6A4D415452495820436C6F636B202D2042C5
S1132D7A793A2045726C656E6420486573746E6591
S1132D8A730D0A00687474703A2F2F6170692E7477
S1132D9A68696E67737065616B2E636F6D2F636804
S1132DAA616E6E656C732F32333634332F66656504
S1132DBA642E6A736F6E3F6B65793D4234384245BF
S1132DCA42494E53584B524A52494E006170692E39
S1132DDA7468696E67737065616B2E636F6D004703
S10D2DEA4F5420444154413A0000C4
S9030000FC
