:1000000043C7000077C7000075C7000073C7000032
:1000100071C700006FC700000C94C9086BC70000CF
:1000200069C7000067C700000C943A1463C700005A
:1000300061C700005FC700000C94C63D5BC70000AD
:100040000C94FC520C949F3D0C94FB1F53C7000072
:100050000C941E184FC700004DC700004BC700008E
:1000600049C7000047C7000045C7000043C700005C
:1000700041C700003FC700003DC700003BC700006C
:1000800039C7000037C700000C94FA1233C70000CC
:1000900031C700002FC700002DC700002BC700008C
:1000A00029C7000027C7000025C7000023C700009C
:1000B00021C700001FC700001DC700001BC70000AC
:1000C00019C7000017C7000015C7000013C70000BC
:1000D00011C700000FC700000DC700000BC70000CC
:1000E00009C7000007C7000005C7000003C70000DC
:1000F00001C70000FFC60000FDC60000FBC60000EF
:10010000F9C60000F7C600000C94C3120C9431131A
:10011000F1C60000EFC60000EDC60000EBC600000F
:10012000E9C60000E7C60000E5C60000E3C600001F
:10013000E1C60000DFC60000DDC60000DBC600002F
:10014000D9C60000D7C60000D5C60000D3C600003F
:10015000D1C60000CFC60000CDC60000CBC600004F
:100160000C940F0DC7C60000C5C60000C3C6000032
:10017000C1C60000BFC60000BDC60000BBC600006F
:10018000B9C60000B7C60000B5C60000B3C600007F
:10019000B1C60000AFC60000ADC60000ABC600008F
:1001A000A9C60000A7C60000A5C60000A3C600009F
:1001B000A1C600009FC600009DC600009BC60000AF
:1001C00099C6000097C6000095C6000093C60000BF
:1001D00091C600008FC600008DC600008BC60000CF
:1001E00089C6000087C6000085C6000083C60000DF
:1001F00081C600007FC600007DC60000023C093CAD
:100200005C3D7A3C5C3D5C3D5C3D543D5C3D5C3D11
:100210005C3D5C3D5C3D5C3D5C3D5C3D5C3D5C3D16
:100220005C3D5C3D5C3D5C3D5C3D5C3D5C3D5C3D06
:100230005C3D5C3D5C3D5C3D5C3D5C3D5C3D5C3DF6
:100240005C3D5C3D5C3D5C3D5C3D5C3D5C3D5C3DE6
:100250005C3D5C3D5C3D5C3D5C3D5C3D5C3D5C3DD6
:10026000063D0C3D1D3D2E3D423D78437243724399
:1002700072437243724372437243724372437243D6
:1002800072437243784372437243724372437243C0
:1002900072437243724372437243724372437243B6
:1002A00072437243724372437243724372437243A6
:1002B0007243724372437243724372437243724396
:1002C0007243724372437243724372437243724386
:1002D0007243724372437243724372437243784370
:1002E0007243724372437243724378437243724360
:1002F0007243784372437243724372437243724350
:100300007243784372437243724378437243784333
:100310002C438B518151865172517C5168517751D8
:100320006D51F151E651EE51B751E051AC51DC51F4
:10033000B3514D525F525C52595256525052535221
:100340002D53455330533353365339533C533F5356
:1003500051537553545357535A535D53605363531A
:10036000665369536C536F53B653B853B653BF5368
:10037000B653BF53B653B653BF53B653BF53B6531A
:1003800000000000000020507050200020705070CD
:10039000200000507070200000207070200020703D
:1003A00070207000202070207000000020000000ED
:1003B000F0F0D0F0F0F0007050700000F080A080FD
:1003C000F0F00030106060002050207020002030DD
:1003D000202060002030501020002070507020003D
:1003E000406070604000103070301000207020704D
:1003F000200050505000500070D0D050500030605D
:1004000050306000000000007000207020702070EC
:100410002070202020002020207020000020F020CC
:1004200000000040F040000000004070000000505C
:1004300070500000002070700000007070200000FC
:10044000000000000000202020002000505000008C
:10045000000050705070500020306030602040101C
:10046000204010002050305070006040000000001C
:10047000204040402000402020204000502070209C
:1004800050000020702000000000000060400000CC
:10049000700000000000000020001010204040000C
:1004A000205050502000206020207000601020401C
:1004B000700060102010600010507010100070402C
:1004C000601060002040605020007010302020003C
:1004D000205020502000205030102000000020002C
:1004E000200000002000604010204020100000008C
:1004F000700070004020102040006010200020009C
:10050000705050407000205070505000605060504B
:1005100060003040404030006050505060007040FB
:1005200060407000704060404000304050503000EB
:10053000505070505000702020207000101010504B
:1005400020005050605050004040404070005070BB
:10055000705050006050505050007050505070001B
:10056000605060404000205050703000605060503B
:10057000500030407010600070202020200050504B
:10058000505070005050505020005050707050002B
:10059000505020505000505020202000701020401B
:1005A000700060404040600040402010100060201B
:1005B000202060002050000000000000000000F03B
:1005C000602000000000000030507000404060508B
:1005D000600000003040300010103050300000004B
:1005E00070603000102070202000000070501070EB
:1005F000404060505000200020202000200020209B
:10060000206040405060500020202020200000004A
:10061000707050000000605050000000205020001A
:10062000000060506040000030503010000060401A
:1006300040000000302060000020702030000000EA
:1006400050507000000050502000000050707000AA
:10065000000050205000000050502040000060205A
:10066000300030206020300020202020200060203A
:100670003020600050A000000000002050700000FA
:1006800030404070204050005050300010207060CA
:10069000300020503050700050003050700040202A
:1006A00030507000200030507000007040702060AA
:1006B000205070603000500070603000402070604A
:1006C000300050002020200020500020200040203A
:1006D000002020005020507050002020507050000A
:1006E000102070607000000030706000306070603A
:1006F000700020502050200050002050200040204A
:1007000020502000205000507000402050507000B9
:100710005000505020405020505020005000505069
:100720007000207040702000102070207000507009
:1007300020702000006060505000302030206000A9
:100740001020305070001020002020001020705029
:100750007000102000507000700070505000700049
:100760005070500030507000700020502000700019
:1007700020002040300000704040000000E02020B9
:1007800000004050205030004050207010002000E9
:10079000202020000050A050000000A050A0000029
:1007A00040104010401050A050A050A0B0E0B0E069
:1007B000B0E02020202020202020E020202020E069
:1007C00020E020205050D05050500000F0505050A9
:1007D00000E020E0202050D010D050505050505019
:1007E000505000F010D0505050D010F00000505039
:1007F000F000000020E020E000000000E0202020C9
:100800002020300000002020F00000000000F02038
:1008100020202020302020200000F0000000202098
:10082000F0202020203020302020505050505050B8
:1008300050504070000000704050505050D000F0B8
:10084000000000F000D0505050504050505000F088
:1008500000F0000050D000D0505020F000F0000018
:100860005050F000000000F000F020200000F05098
:1008700050505050700000002030203000000030F8
:10088000203020200000705050505050D050505018
:1008900020F000F020202020E000000000003020A8
:1008A0002020F0F0F0F0F0F0000000F0F0F0C0C018
:1008B000C0C0C0C0303030303030F0F0F000000048
:1008C00000007060700020506050604070504040E8
:1008D00040007050505050007040204070000000A8
:1008E0003050200000005050704000106020200068
:1008F0007020502070002050705020000020505078
:1009000050003040205020000000705070002070D7
:100910005070200030407040300020505050500047
:100920007000700070002070200070006010600087
:100930007000304030007000001020202020202067
:10094000202040002000700020000050A050A00097
:100950002050200000000020702000000000200037
:100960000000302020602000705050000000602007
:100970004060000000006060000000000000000017
:1009800000000000003E5B4F5B3E3E6B4F6B3E1C29
:100990003E7C3E1C183C7E3C181C577D571C1C5E40
:1009A0007F5E1C00183C1800FFE7C3E7FF00182417
:1009B0001800FFE7DBE7FF30483A060E26297929C1
:1009C00026407F050507407F05253F5A3CE73C5AF6
:1009D0007F3E1C1C08081C1C3E7F14227F22145FD3
:1009E0005F005F5F06097F017F006689956A60602E
:1009F00060606094A2FFA29408047E040810207E28
:100A0000201008082A1C08081C2A08081E101010AC
:100A1000100C1E0C1E0C30383E3830060E3E0E06F2
:100A2000000000000000005F000000070007001445
:100A30007F147F14242A7F2A122313086462364904
:100A40005620500008070300001C224100004122EC
:100A50001C002A1C7F1C2A08083E080800807030F1
:100A60000008080808080000606000201008040260
:100A70003E5149453E00427F400072494949462166
:100A800041494D331814127F1027454545393C4ADA
:100A900049493101017109073649494936464949F1
:100AA000291E000014000000403400000008142239
:100AB00041141414141400412214080201590906A7
:100AC0003E415D594E7C1211127C7F494949363EA8
:100AD000414141227F4141413E7F494949417F098E
:100AE0000909013E414151737F0808087F00417F99
:100AF00041002040413F017F081422417F40404097
:100B0000407F021C027F7F0408107F3E4141413E2E
:100B10007F090909063E4151215E7F0919294626B0
:100B20004949493203017F01033F4040403F1F20B4
:100B300040201F3F4038403F63140814630304788B
:100B400004036159494D43007F41414102040810AB
:100B500020004141417F04020102044040404040E6
:100B6000000307080020545478407F284444383854
:100B700044444428384444287F38545454180008C6
:100B80007E090218A4A49C787F0804047800447DA0
:100B900040002040403D007F1028440000417F403D
:100BA000007C047804787C08040478384444443891
:100BB000FC1824241818242418FC7C080404084871
:100BC0005454542404043F44243C4040207C1C20C2
:100BD00040201C3C4030403C44281028444C90901D
:100BE000907C4464544C4400083641000000770077
:100BF00000004136080002010204023C2623263C84
:100C00001EA1A161123A4040207A3854545559210E
:100C100055557941215454784121555478402054F8
:100C20005579400C1E527212395555555939545444
:100C3000545939555454580000457C410002457DB3
:100C4000420001457C40F0292429F0F0282528F0B5
:100C50007C545545002054547C547C0A097F493209
:100C6000494949323248484832324A4848303A4184
:100C700041217A3A42402078009DA0A07D39444429
:100C800044393D4040403D3C24FF2424487E4943B4
:100C9000662B2FFC2F2BFF0929F620C0887E090325
:100CA00020545479410000447D413048484A32384C
:100CB0004040227A007A0A0A727D0D19317D262978
:100CC000292F28262929292630484D402038080870
:100CD000080808080808382F10C8ACBA2F102834A4
:100CE000FA00007B000008142A142222142A140897
:100CF000AA005500AAAA55AA55AA000000FF001094
:100D00001010FF00141414FF001010FF00FF10104B
:100D1000F010F0141414FC001414F700FF0000FF8E
:100D200000FF1414F404FC141417101F10101F10EB
:100D30001F1414141F00101010F0000000001F10EA
:100D40001010101F10101010F010000000FF1010F5
:100D500010101010101010FF10000000FF14000001
:100D6000FF00FF00001F10170000FC04F41414170C
:100D700010171414F404F40000FF00F714141414F2
:100D8000141414F700F7141414171410101F101F64
:100D9000141414F4141010F010F000001F101F00B1
:100DA00000001F14000000FC140000F010F01010F0
:100DB000FF10FF141414FF141010101F0000000087
:100DC000F010FFFFFFFFFFF0F0F0F0F0FFFFFF007B
:100DD00000000000FFFF0F0F0F0F0F38444438448E
:100DE0007C2A2A3E147E02020606027E027E0263EE
:100DF000554941633844443C04407E201E2006028D
:100E00007E020299A5E7A5991C2A492A1C4C720169
:100E1000724C304A4D4D303048784830BC625A46AA
:100E20003D3E494949007E0101017E2A2A2A2A2A9B
:100E300044445F444440514A444040444A51400085
:100E400000FF0103E080FF000008086B6B0836120A
:100E5000362436060F090F0600001818000000108F
:100E600010003040FF0101001F01011E00191D1775
:100E700012003C3C3C3C00000000006364696E6F63
:100E800070737578585B0000E2E2FCE2E370FF27C4
:100E9000EE5DF34D2FEF3FE22C7FE217F30758F49E
:100EA0008EED9DEAAEEBBFEE81939193A193B1934A
:100EB000E217F307C8F311241FBECFEFCDBFDFE267
:100EC000DEBF19E2A0E0B0E2EEE9FCEB00E00BBF10
:100ED00002C007900D92A832B107D9F72CE2A8E220
:100EE000B9E201C01D92A232B207E1F70E942C20A4
:100EF0000C944D5E85C8E0E7F0E081818D7F8183B1
:100F0000E0E0F2E086E3848783E0858781E080A3E8
:100F100011A2118296E0948390E1928313828683DA
:100F200012A280830895E0E7F0E0818182608183EE
:100F3000E0E0F2E080818E7F80830895E0E0F6E0DB
:100F40008181826081838681826086830895E0E06A
:100F5000F6E0818182608183858182608583089546
:100F6000CF93DF93EBDF2AE0C0E0D0E0E0E0F2E0F7
:100F700031E080A1806880A383A180FFFDCF33A3EF
:100F800084A195A1C80FD91F215099F7E0DF9E01D8
:100F9000ADECBCEC0E944756969587959695879543
:100FA00096958795DF91CF910895CF92DF92EF923A
:100FB000FF92A1DFD5DFBC0180E090E00E94565592
:100FC00023E333E343ED50E40E94EE546B017C01D4
:100FD000AADF20E030E046E154E4C701B6010E94F8
:100FE000E45518160CF460C020E030EC4FE054E4F7
:100FF000C701B6010E94E45518160CF457C020E052
:1010000030E849E054E4C701B6010E94E4551816DF
:101010000CF44EC020E030E443E054E4C701B601D4
:101020000E94E45518160CF445C020E030E04AEF69
:1010300053E4C701B6010E94E45518160CF43CC0F5
:1010400020E030E84DEE53E4C701B6010E94E455BC
:101050001816A4F120E030E041EE53E4C701B601D8
:101060000E94E455181664F120E030E844ED53E4A2
:10107000C701B6010E94E455181624F120E030E8BB
:101080004FEC53E4C701B6010E94E4551816E4F092
:1010900020E030E048EC53E4C701B6010E94E4557B
:1010A0001816A4F484E113C083E611C08FE50FC0C5
:1010B0008AE50DC080E50BC086E409C08CE307C05B
:1010C00082E305C088E203C08EE101C080E0FF90AA
:1010D000EF90DF90CF900895E0E5F0E080818260AE
:1010E0008083818181FFFDCF88ED84BF81E0809383
:1010F00040000895E0E6F6E0818182608183858189
:10110000826085830895E0E6F6E0818182608183D4
:101110008681826086830895882389F0E0E2F6E084
:1011200081818C608183E0E2F3E080818C60808348
:101130008281886082838181806481830FC0E0E244
:10114000F6E0818184608183E0E2F3E08081846065
:10115000808382818860828381818183E0E2F3E001
:1011600087E081878BE180878CE0828783E18387BA
:10117000808181608083BECF0895E0E2F6E08281C5
:101180008C608283E0E2F3E080818E7F8083BBCF3E
:1011900008951F920F920FB60F9211240BB60F9263
:1011A0008F93EF93FF93E0E0F1E0818985FF06C024
:1011B00081898062818B1092762B08C0E0E0F1E09B
:1011C00081898061818B81E08093762B81E080939F
:1011D000772BFF91EF918F910F900BBE0F900FBE69
:1011E0000F901F901895E0ECF1E087858823ECF3D1
:1011F0000895F9DFE0ECF1E0878581FF10C086E318
:101200008287EF93FF930F932F93EBECF1E008EDC0
:1012100021E004BF20832F910F91FF91EF9108955A
:101220001F93CF93DF93182FD62FC42FE2DFE0EC6C
:10123000F1E083E3828720E2129FC0011124DF7175
:101240008D2B8083892F8F7181831282C48385E3E4
:101250008287EF93FF930F932F93EBECF1E008ED70
:1012600021E004BF20832F910F91FF91EF91DF9137
:10127000CF911F910895B7DF80E3E0ECF1E0828722
:10128000EF93FF930F932F93EBECF1E008ED21E048
:1012900004BF20832F910F91FF91EF910895AF929A
:1012A000BF92CF92DF92EF92FF920F931F93CF9353
:1012B000DF93CDB7DEB7CD5AD109CDBFDEBF99DF01
:1012C000E0ECF1E08485877F84878DEAE5E6FAE249
:1012D0009E012F5F3F4FD90101900D928A95E1F752
:1012E0006901A12C7901E094F09417C0F8014191B3
:1012F0008F016B2D8A2D94DF9701200F311F2D3A1E
:10130000310520F4B394F0E2BF12F0CF80E2C80EB2
:10131000D11CA394E6E0AE1619F08601B12CE6CFFD
:1013200081E0C355DF4FCDBFDEBFDF91CF911F916D
:101330000F91FF90EF90DF90CF90BF90AF90089506
:10134000E0E6F6E080E2818385832FEF83ED90E392
:10135000215080409040E1F700C00000089580E2F5
:10136000E0E6F6E08683089580E1E0E6F6E0858336
:101370002FEF83ED90E3215080409040E1F700C0D3
:10138000000080E186832FEF83ED90E321508040C1
:101390009040E1F700C00000089589E08093112C8F
:1013A00086ED90E20E94E91F2AEA36EE86E991E096
:1013B0002150304080409040D9F700008091112C9E
:1013C0008130D1F589E08093112C8DED90E20E945F
:1013D000E91F2FEF37EA81E6215030408040E1F7E6
:1013E00000C000008091112C813031F589E080939C
:1013F000112C8AEE90E20E94E91F9FEF29E638E166
:10140000915020403040E1F700C000008091112C45
:10141000813091F489E08093112C86EF90E20E9454
:10142000E91F8FEF99E628E1815090402040E1F7D5
:1014300000C000008091112C0895EF92FF920F934D
:101440001F93CF93DF93CDB7DEB7C456D109CDBF7D
:10145000DEBF7B012BE0E8E1F1E28E010F5F1F4F61
:10146000D80101900D922A95E1F7BC01C8010E94B4
:10147000CD57F80101900020E9F7319742E25CE294
:1014800062E270E04083518362837383B701C801D5
:101490000E94CD57F80101900020E9F7319782E2D0
:1014A00090E08083918389E08093112CC8010E9491
:1014B000E91F2FEF49E688E1215040408040E1F7E5
:1014C00000C000002EE231E012C09FEF43EC89E043
:1014D000915040408040E1F700C0000021503109A8
:1014E0002115310549F08091112C882331F080912C
:1014F000112C813051F701C083E0CC59DF4FCDBFB3
:10150000DEBFDF91CF911F910F91FF90EF90089573
:101510000F931F93CF93DF93CDB7DEB7C659D10991
:10152000CDBFDEBF24E1E3E2F1E28E010F5F1F4F8A
:10153000D80101900D922A95E1F7BC01C8010E94E3
:10154000CD57D8010D900020E9F7119785E0E7E32A
:10155000F1E201900D928A95E1F789E08093112CD8
:10156000C8010E94E91F2FEF89E698E121508040D1
:101570009040E1F700C000008091112CCA56DF4F67
:10158000CDBFDEBFDF91CF911F910F910895CF9313
:10159000DF93C82FD62FE8DE99E09093112C8DEDC4
:1015A00090E20E94E91F2FEF89E698E121508040E8
:1015B0009040E1F700C000009091112C913009F0AB
:1015C00076C0CC23B1F089E08093112C86EF90E2B5
:1015D0000E94E91F2FEF89E698E12150804090405A
:1015E000E1F700C000008091112C813009F062C049
:1015F00019C0DD2309F45DC089E08093112C8CE3D0
:1016000091E20E94E91F2FEF89E698E12150804086
:101610009040E1F700C000008091112C813009F06A
:1016200049C005C066ED7AE28FEE9AE206DF89E0F6
:101630008093112C88E491E20E94E91F2FEF89E644
:1016400098E1215080409040E1F700C00000809177
:10165000112C813079F560E08CED9BE20E94B32380
:1016600089E08093112C81E591E20E94E91F2FEF20
:1016700089E698E1215080409040E1F700C00000E9
:101680008091112C8130B1F489E08093112C8DE58B
:1016900091E20E94E91F2FEF89E698E121508040F6
:1016A0009040E1F700C000008091112C03C0892F09
:1016B00001C080E0DF91CF910895AF92BF92CF92A9
:1016C000DF92EF92FF920F931F93CF93DF93CDB7EB
:1016D000DEB7E797CDBFDEBF8091112C873009F0D0
:1016E0009FC0109106204AE0BE016D5C7F4F87EBE2
:1016F00091E00E941358103351F48EE0EFE6F1E2CE
:10170000DE01119601900D928A95E1F709C08EE0F5
:10171000EDE7F1E2DE01119601900D928A95E1F775
:10172000BE016D5C7F4F8E010F5F1F4FC8010E948D
:10173000CD57F80101900020E9F731978DE090E056
:101740008083918389E08093112CC8010E94E91F56
:101750002FEF33EC49E0215030404040E1F700C02A
:101760000000809128298E3399F082E390E0E8E22E
:10177000F9E2AFEFB3EC29E0A150B0402040E1F72F
:1017800000C0000020812E3319F00197009789F7DF
:101790008BE891E29F938F9383E493E29F938F93DF
:1017A0000E9436583FEF43EC89E031504040804082
:1017B000E1F700C000009FEFA7EAB1E69150A0401A
:1017C000B040E1F700C00000809106200F900F901C
:1017D0000F900F90803391F489E08093112C89E869
:1017E00093E20E94E91FEFEFF3EC29E0E150F040B3
:1017F0002040E1F700C0000081E003C189E0809350
:10180000112C88E993E20E94E91F3FEF43EC89E045
:10181000315040408040E1F700C0000081E0F1C05D
:10182000883009F0EBC00EE110E09FEFA3ECB9E0C7
:101830009150A040B040E1F700C0000067EA73E2B9
:1018400088E299E20E94F957892B09F4D0C089E116
:10185000EFEEFAE2DF01282F1D922A95E9F7E6ED77
:10186000FAE2DF011D928A95E9F7E8E2F9E20190D8
:101870000020E9F731979F0128523942790109F494
:1018800060C000E010E0B12C0F2EF4E1AF2EF02D7F
:10189000CE0101966C01F801E85DF64D80818D3333
:1018A00009F049C0B394D601EA2D1D92EA95E9F7F3
:1018B000C8010196FC01E85DF64D2081263291F0C9
:1018C0008E159F0589F0D601F801E65DF64D8C0175
:1018D0002D930F5F1F4F2191263239F00E151F05F2
:1018E000B9F703C08C0101C08C01F1E0BF120FC039
:1018F000F60101900020E9F73197EC19FD0979977D
:10190000D0F4B6018FEE9AE20E94E35714C022E0B1
:10191000B21211C0DE011196FD0101900020E9F71D
:101920003197EA1BFB0B799760F4BD0186ED9AE2D3
:101930000E94E35706C00F5F1F4F0E151F0508F4E6
:10194000AACF80910620803389F489E08093112CFE
:1019500089E893E20E94E91F3FEF43EC89E03150B0
:1019600040408040E1F700C0000010C089E0809353
:10197000112C88E993E20E94E91F9FEFA3ECB9E0E4
:101980009150A040B040E1F700C0000080E2E0E6E6
:10199000F6E08683EFEFF7EA21E6E150F0402040E1
:1019A000E1F700C00000CCDCF8DC8093112C813022
:1019B00039F060E083EB93E20E94B32383E021C01F
:1019C00066ED7AE28FEE9AE238DD8093112C813059
:1019D00039F060E083EB93E20E94B32383E011C00F
:1019E00060E085EC93E20E94B32383E00AC00150DB
:1019F00011090115110509F018CF02C081E001C0DD
:101A000081E0E796CDBFDEBFDF91CF911F910F91AF
:101A1000FF90EF90DF90CF90BF90AF9008951F920E
:101A20000F920FB60F9211240BB60F922F933F9384
:101A30004F935F936F937F938F939F93AF93BF93D6
:101A4000EF93FF934091A0094A3009F088C065EDFB
:101A500073E288E299E20E94F957892B41F468ED1C
:101A600073E288E299E20E94F957892B21F081E024
:101A70008093112C5CC06AE876E288E299E20E94C9
:101A8000F957892B41F46EED73E288E299E20E94E6
:101A9000F957892B19F01092112C49C063EE73E2AB
:101AA00088E299E20E94F957892B21F084E0809323
:101AB000112C3DC06BEE73E288E299E20E94F95767
:101AC000892B21F086E08093112C31C062EF73E204
:101AD00088E299E20E94F957892B41F080912D29E3
:101AE0008093062087E08093112C21C066EF73E27B
:101AF00088E299E20E94F957892B21F088E08093CF
:101B0000112C15C06BEF73E288E299E20E94F9573D
:101B1000892B69F062E270E088E299E20E94D8576E
:101B200043E150E0BC018CED9BE20E94EA576BE779
:101B300070E088E299E20E94D857892B21F081E079
:101B40008093242A26C01092222A1092232A8AEFF8
:101B5000E8E2F9E2DF011D928A95E9F71AC0809167
:101B6000222A9091232A9C012F5F3F4F2093222A03
:101B70003093232AFC01E85DF64D40838091222AB0
:101B80009091232A8A3F910521F41092222A1092E3
:101B9000232AFF91EF91BF91AF919F918F917F91F8
:101BA0006F915F914F913F912F910F900BBE0F90CE
:101BB0000FBE0F901F901895FC01F695E795F695CE
:101BC000E795F695E795EF50F44D8770992721E05A
:101BD00030E0A90102C0440F551F8A95E2F7CA01FF
:101BE0009081892B80830895FC01F695E795F69501
:101BF000E795F695E795EF50F44D8770992721E02A
:101C000030E0A90102C0440F551F8A95E2F7CA01CE
:101C100080959081892380830895E1EFFBE281E143
:101C20009CE21192E817F907E1F70C94232108953B
:101C3000CF93DF9328E0E0E8F6E021836623C1F04C
:101C400074E041E050E0A8E076832FEF260FEA0130
:101C500002C0CC0FDD1F2A95E2F79E01282339230D
:101C6000232B11F0A58301C0A6837583615061F712
:101C700088E0E0E8F6E08683DF91CF9108950F9346
:101C80001F93CF93DF9381E0E0E8F6E0868363E083
:101C900085E090E0CDDF67E080E090E0C9DFC2EF53
:101CA000DBE202E11CE2FE013197808190E0982F97
:101CB0008827288160E1822BBBDF2296C017D107DD
:101CC00091F781E0E0E8F6E08583DF91CF911F9105
:101CD0000F9108951F93CF93DF9390E09460C0E835
:101CE000D6E011E01E836CE0880F991FA1DF1D83F1
:101CF000DF91CF911F910895CF93C82FE0E8F6E0D0
:101D000091E09183958394E09183958388E081832A
:101D100081E0E0DF83E0DEDF88E0DCDF84E1DADF42
:101D200088E1D8DF8C2FD6DF81EAD4DFCF91089508
:101D300088230CF480E080310CF08FE0806ACACFF9
:101D40000895CF93DF930E9423212FEF89EF90E036
:101D5000215080409040E1F700C0000032E020E0D8
:101D6000CFEFDBE2A2EFBBE202C02E5F3E5FE22FCD
:101D70002E3019F44C914883F8CF2E3129F48091FC
:101D8000022C80930F2C09C0FF27E7FDF095EF5040
:101D9000F44D428140833F3144F393E081E0A0E081
:101DA000BCE202C08E5F9E5FE82F8F3011F41C9260
:101DB000F9CF8F3119F41092102C09C0FF27E7FDDD
:101DC000F095EF50F44D2281208390325CF3DF9147
:101DD000CF910895CF93DF930E9423212FEF89EFB6
:101DE00090E0215080409040E1F700C00000E0E129
:101DF000FCE24DE122E03CE2CFE0DCE209C04250EF
:101E000032974F3F29F48091FF2B8093F22B0CC027
:101E10004F3021F45881D9015C93F1CFDF01129743
:101E20005C91508314165CF3EFE0FCE22CE1C1E01E
:101E3000DCE207C0225032972E3F19F41092F12BAA
:101E40000AC02E3011F41882F5CFDF0112973C91B1
:101E5000308322237CF7DF91CF910895A1EFBBE27D
:101E6000E1E0FCE220E13CE28C9190E0982F8827B1
:101E70004081842B880F991F9D938193E217F3076C
:101E800099F70E9423212FEF89EF90E021508040A5
:101E90009040E1F700C000000895A1EFBBE2E1E04F
:101EA000FCE220E13CE28C9190E0982F8827408171
:101EB000842B969587959D938193E217F30799F765
:101EC0000E9423212FEF89EF90E021508040904025
:101ED000E1F700C0000008958F929F92AF92BF92E9
:101EE000CF92DF92EF92FF920F931F93CF93DF93E6
:101EF000CDB7DEB7A097CDBFDEBF20E2CE01019601
:101F0000DC01E22F1D92EA95E9F730E2E1EFFBE216
:101F1000DC0101900D923A95E1F7E1EFFBE2DF0180
:101F20001D922A95E9F78E01005E1F4F5C014E015C
:101F3000B0E18B0E911C6F010F2EF1E0EF2EFCE251
:101F4000FF2EF02DF80170978081F6018083D80173
:101F50008C91F70180833EDF0250110908151905A5
:101F600089F713C00E94232129C034DFF80170973C
:101F70008081D6018C93F8018081D7018C93025027
:101F800011090A151B0589F7EDCF8F858093F12B79
:101F90008F8D8093012C8E01035E1F4FBEE0AB0E30
:101FA000B11C0F2EF1EFCF2EFBE2DF2EF02D0F2E06
:101FB000F1E0EF2EFCE2FF2EF02DD7CFA096CDBFA3
:101FC000DEBFDF91CF911F910F91FF90EF90DF90D7
:101FD000CF90BF90AF909F908F9008958F929F92D7
:101FE000AF92BF92CF92DF92EF92FF920F931F9327
:101FF000CF93DF93CDB7DEB7A097CDBFDEBF20E292
:10200000CE010196DC01E22F1D92EA95E9F730E25C
:10201000E1EFFBE2DC0101900D923A95E1F7E1EF8F
:10202000FBE2DF011D922A95E9F78E010F5E1F4F3B
:102030005C014E01B1E28B0E911C0F2EF0E0CF2E11
:10204000FCE2DF2EF02D0F2EF0E1EF2EFCE2FF2E52
:10205000F02D77DEF80170978081F6018083D8013A
:102060008C91F70180830E5F1F4F0815190589F7C2
:102070008E010E5E1F4FF1E2AF0EB11C0F2EF0E08D
:10208000CF2EFCE2DF2EF02D0F2EF0E1EF2EFCE242
:10209000FF2EF02D56DEF80170978081D6018C93CB
:1020A000F8018081D7018C930E5F1F4F0A151B0525
:1020B00089F7A096CDBFDEBFDF91CF911F910F9121
:1020C000FF90EF90DF90CF90BF90AF909F908F9058
:1020D00008952F923F924F925F926F927F928F92CC
:1020E0009F92AF92BF92CF92DF92EF92FF920F93A7
:1020F0001F93CF93DF93CDB7DEB7A297CDBFDEBFDF
:1021000080E2DE011196FD01982F11929A95E9F770
:1021100090E2E1EFFBE201900D929A95E1F7E1EF99
:10212000FBE2DF011D928A95E9F7E12CF12C68941E
:10213000882487F8912C0F2EF1E02F2EFCE23F2E01
:10214000F02D00E11CE20F2EFFE06F2E712CF02D20
:102150000F2EF7E04F2E512CF02D3AC0322F2830A1
:1021600090F489A19AA14097DC018C9190E086239C
:1021700097230A2C02C0959587950A94E2F79081DF
:10218000892B80830FC0A9A1BAA18C9190E08423F0
:1021900095230C2C02C0959587950A94E2F79081BF
:1021A000892B8083319689A19AA1019689A39AA34C
:1021B000E017F10799F63F3010F450DE02C00E949C
:1021C00023219FEFE91AF90AA0E1EA16F104F1F0E0
:1021D000B4010E2C02C0759567950A94E2F7A70129
:1021E00048505109F40102C0F595E7954A95E2F788
:1021F000AF01F101CE01419689A39AA32E2D63016F
:10220000CE18DF085201AE18BF08A8CFA296CDBFE6
:10221000DEBFDF91CF911F910F91FF90EF90DF9084
:10222000CF90BF90AF909F908F907F906F905F9076
:102230004F903F902F9008952F923F924F925F9230
:102240006F927F928F929F92BF92CF92EF92FF9266
:102250000F931F93CF93DF93CDB7DEB7A497CDBF76
:10226000DEBF80E2DE011196FD01982F11929A9552
:10227000E9F790E2E1EFFBE201900D929A95E1F728
:10228000E1EFFBE2DF011D928A95E9F70F2EFFE0F7
:10229000EF2EF12CF02D0F2EFFE06F2E712CF02D74
:1022A00088248394912C0F2EF7E04F2E512CF02D83
:1022B0001F0100E01CE237C0C22E283084F0ABA121
:1022C000BCA18C9190E08623972309A002C0880FBF
:1022D000991F0A94E2F79081892B808311C08BA10A
:1022E0009CA14097DC018C9190E0842395230B2CDA
:1022F00002C0880F991F0A94E2F79081892B80838E
:1023000031968BA19CA101968BA39CA3E017F107AA
:1023100099F61C1414F4C1DD02C00E94232191E03F
:10232000E91AF10800F1B3016E197F09F40102C046
:10233000EE0FFF1F6A95E2F7BF01BE2CA2014E19F6
:102340005F09C40102C0880F991F4A95E2F7AC01EA
:10235000F101DE015196ABA3BCA32E2DC701089756
:1023600089A39AA3A9CFA496CDBFDEBFDF91CF9159
:102370001F910F91FF90EF90CF90BF909F908F9003
:102380007F906F905F904F903F902F900895AF9205
:10239000BF92CF92DF92EF92FF920F931F93CF9352
:1023A000DF935B016115710591F1EC016C01C60EC3
:1023B000D71E0F2EF0E0EF2EFCE2FF2EF02D00E1F5
:1023C0001CE2BFDCFE018991869586958695D70132
:1023D0008C9380818295880F807EF8018083FFEF47
:1023E0002DEE82E0F15020408040E1F700C0000077
:1023F000CC15DD0531F79CE3A916B10440F0B69485
:10240000A794B694A794A114B10489F420C0CEE196
:10241000D0E097DCAFEFBDEEE2E0A150B040E0408D
:10242000E1F700C000002197209799F710C0C0E0A5
:10243000D0E087DCFFEF2DEE82E0F15020408040BD
:10244000E1F700C000002196CA15DB0591F7DF9186
:10245000CF911F910F91FF90EF90DF90CF90BF90A1
:10246000AF900895E0E0F6E09281906E9283E0E212
:10247000F6E0928191609283882341F1E0E0F6E0FA
:1024800085898A61858B86898A61868B87898A613D
:10249000878BA0E2B6E050968C9150978A61509657
:1024A0008C9350978285806E82871A968C911A97AA
:1024B00081601A968C931A9781858360818719961B
:1024C0008C911997836019968C930895E0E0F6E05B
:1024D00085898D7F858B86898D7F868B87898D7F8A
:1024E000878BA0E2B6E050968C9150978D7F5096E6
:1024F0008C93509782858F7182871A968C911A9748
:102500008E7F1A968C931A9781858C7F8187199676
:102510008C9119978C7F19968C930895E0E0F6E0E2
:1025200082818460828382898260828B83858460D9
:10253000838781858C6081870895E0E0F6E0828161
:102540008B7F828382898D7F828B83858B7F83873C
:102550008185837F81870895E0E0F6E0808585FBB3
:10256000882780F991E08927908596FF8260E0E0D6
:10257000F6E0908599230CF083E0E0E2F6E09085A8
:1025800090FF846008951F920F920FB60F9211244E
:102590000BB60F922F933F934F935F936F937F935D
:1025A0008F939F93AF93BF93EF93FF93D5DF809368
:1025B000EF2B8091EF2B1F928F938FEF93E29F93DE
:1025C0008F930E9436580F900F900F900F90FF91AD
:1025D000EF91BF91AF919F918F917F916F915F919B
:1025E0004F913F912F910F900BBE0F900FBE0F9008
:1025F0001F9018951F920F920FB60F9211240BB6D1
:102600000F922F933F934F935F936F937F938F938B
:102610009F93AF93BF93EF93FF939EDF8093EF2B36
:102620008091EF2B1F928F938FEF93E29F938F9365
:102630000E9436580F900F900F900F90FF91EF91DE
:10264000BF91AF919F918F917F916F915F914F91CA
:102650003F912F910F900BBE0F900FBE0F901F90C8
:1026600018951F920F920FB60F9211240BB60F926E
:10267000EF92FF920F931F932F933F934F935F938C
:102680006F937F938F939F93AF93BF93EF93FF933A
:10269000CF93DF9300D0CDB7DEB7EE24E394F12CD7
:1026A0008E010F5F1F4F21E230E042E350E06AE508
:1026B00070E080E894E00E94491F89818093F02BAC
:1026C00082E094E20E9447580F900F90DF91CF91E3
:1026D000FF91EF91BF91AF919F918F917F916F91FA
:1026E0005F914F913F912F911F910F91FF90EF902C
:1026F0000F900BBE0F900FBE0F901F90189588ED96
:1027000084BF8BE0E0E4F0E08383E0E0F4E08181EB
:1027100080FDFDCFE0E0F4E080E897E082879387DA
:1027200082E08283108611861486158687E0808376
:1027300008951092072008956F927F928F929F9232
:10274000AF92BF92CF92DF92EF92FF920F931F93BF
:10275000CF93DF9300D0CDB7DEB7782E662E70E032
:1027600080E090E08E010F5F1F4F0F2EFAE08F2E5A
:10277000912CA12CB12CF02D78012FEFE21AF20A46
:102780006701A50194010E941F56605DF8016083F6
:10279000622F732F842F952F611571058105910587
:1027A00011F08701E9CFCE010196C81AD90AC601F6
:1027B000019718161906A4F4A1E0B0E0AC0FBD1FF4
:1027C000AC0DBD1DFE01319620E030E040815E91F0
:1027D00051934C932F5F3F4F019728173907B4F35C
:1027E000F9E0F61520F0898190E399838A837110CE
:1027F00008C000E028E040E160E080E00E943B2269
:1028000007C000E029E040E167E080E00E943B2251
:10281000E72CF12C01E021E030E04981B70182E0B2
:1028200090E00E94E72221E030E04A81B70189E090
:1028300090E00E94E7220F900F90DF91CF911F91BF
:102840000F91FF90EF90DF90CF90BF90AF909F904F
:102850008F907F906F9008951092082B6091852A39
:1028600080E06ADF6091862A89E066DF81E08093FC
:10287000072008951F920F920FB60F9211240BB6E6
:102880000F922F933F934F935F936F937F938F9309
:102890009F93AF93BF93CF93EF93FF93E7E6FAE253
:1028A00080819181A281B3810196A11DB11D808398
:1028B0009183A283B383E5E8FAE260816F5F60836E
:1028C0006C3308F461C01092852A80910720882318
:1028D00029F060E080E030DF0E942321E6E8FAE2A0
:1028E00060816F5F6083683108F443C08091882AFB
:1028F000873020F48F5F8093882A08C081E080931E
:10290000882AE9E8FAE280818F5F8083E7E8FAE2CB
:10291000C08181E08C0F808360918B2A70918C2A1A
:1029200080918A2A0E94AB53C817B8F081E0809347
:10293000872A80918A2A8C3020F48F5F80938A2A9C
:102940000CC081E080938A2A8093892AEBE8FAE21E
:10295000808191810196808391831092862A809153
:102960000720882371F060E089E0E6DE0E942321E1
:1029700008C080910720882321F089E0DDDE0E94D5
:1029800023211092852A08C080910720882321F0F6
:1029900080E0D2DE0E942321FF91EF91CF91BF9181
:1029A000AF919F918F917F916F915F914F913F91E7
:1029B0002F910F900BBE0F900FBE0F901F90189588
:1029C000DF92EF92FF920F931F93CF93DF93EC016F
:1029D000D62E60E253D68C01992334F160E3CE0108
:1029E0004DD68130910581F19923C4F739C060E259
:1029F000CE0144D68017910751F199238CF18C01B7
:102A0000EDCF78014D2D68E1CE011BD69C010097DA
:102A100069F4DD2069F060E2CE0130D68E159F05A5
:102A200051F41123C4F70AC0912F1AC0932F18C074
:102A300080E090E015C080E090E012C0802F912FE0
:102A40000FC0822F932F0CC0D110D1CFDACF7801D5
:102A50004D2D68E1CE01F5D59C010097E1F2F1CF53
:102A6000DF91CF911F910F91FF90EF90DF9008952C
:102A7000CF92DF92EF920F931F93CF93DF9300D00B
:102A8000CDB7DEB76C018091252A9091262AF601F8
:102A9000828393836894EE24E1F88E010F5F1F4FC9
:102AA00026E242E36AE580E894E00E94491F8A81B9
:102AB00090E0982F88272981822BF60182879387BF
:102AC00028E242E36AE580E894E00E94491F8A8197
:102AD00090E0982F88272981822BF601848795879B
:102AE0002AE242E36AE580E894E00E94491F8A8175
:102AF00090E0982F88272981822BF6018687978777
:102B000024E242E36AE580E894E00E94491F8A815A
:102B100090E0982F88272981822BF6018087918762
:102B200022E242E36AE580E894E00E94491F8A813C
:102B300090E0982F88272981822BF601868397833E
:102B400080E00F900F90DF91CF911F910F91EF9048
:102B5000DF90CF90089560E033CF08956DE030CFDF
:102B600008956FE02DCF0895CF92DF92EF92FF92FC
:102B70000F931F93CF93DF9300D0CDB7DEB78C01B7
:102B8000D62EC42E60E3C80179D58130910579F045
:102B90009923C4F71EC060E2C80170D58E159F0549
:102BA000D1F318161906ACF480E090E012C060E290
:102BB000C80164D57C01C9828D2D8F7180568A83AE
:102BC0009E012F5F3F4F42E067E1C80173D5009738
:102BD00011F30F900F90DF91CF911F910F91FF9004
:102BE000EF90DF90CF900895CF93DF93EC0160E2F8
:102BF000CE0144D5892B19F0CE01ADDFF8CF6BE0C3
:102C0000CE01DEDE60E2CE0139D5892BD9F360E258
:102C1000CE0134D5019759F780E090E0DF91CF9154
:102C200008950F931F93CF93DF93EC0140E068E08A
:102C300008D58C01CE01D8DF080F191F40E068E0ED
:102C4000CE01FFD4080F191F40E064E0CE01F9D493
:102C5000080F191F40E065E0CE01F3D4080F191FDB
:102C600040E066E0CE01EDD4080F191F40E063E0BC
:102C7000CE01E7D4080F191F4FEF61E2CE01E1D476
:102C8000080F191F41E068E1CE01DBD4080F191FBE
:102C900021D547E167E0CE01D4D4800F911FDF91A9
:102CA000CF911F910F9108950F931F93CF93DF93AF
:102CB000EC0140E068E0C5D48C0140E06AE0CE0160
:102CC000C0D4080F191F40E069E0CE01BAD4080F44
:102CD000191FCE01A6DF080F191F4FE06FE0CE01CC
:102CE000B0D4080F191F41E061E0CE013DDF080FAD
:102CF000191F43E063E0CE01A4D4080F191F44E07C
:102D000064E0CE019ED4080F191F40E365E0CE01B8
:102D100098D4080F191F43E067E0CE0125DF080FA4
:102D2000191F43E06EE0CE011FDF080F191F40E0BE
:102D30006BE0CE0119DF080F191F41E062E0CE0100
:102D400013DF080F191F40E76AE0CE010DDF080FFF
:102D5000191F44E06CE0CE0107DF080F191F40E4A3
:102D600061E1CE016ED4080F191F46E062E1CE0189
:102D700068D4080F191F49EB68E0CE0162D4080F30
:102D8000191F48E06AE0CE015CD4080F191FCE017C
:102D9000E5DE800F911FDF91CF911F910F91089574
:102DA0008AE590E03EDF2FEF81EE94E021508040F5
:102DB0009040E1F700C000008AE590E075DFAECBFF
:102DC00008950F931F93CF93DF93EC0140E068E0E9
:102DD00038D48C0140E06AE0CE0133D4080F191FCB
:102DE00040E069E0CE012DD4080F191FCE0119DF94
:102DF000080F191F4FEF6FE0CE0123D4080F191FE2
:102E000040E060E1CE011DD4080F191F47E761E0E3
:102E1000CE01AADE080F191F41E063E0CE0111D4F4
:102E2000080F191F4DE164E0CE010BD4080F191FE4
:102E300040E065E0CE0105D4080F191F40E066E0D0
:102E4000CE01FFD3080F191F43E067E0CE018CDEEF
:102E5000080F191F43E068E0CE0186DE080F191F36
:102E600043E069E0CE0180DE080F191F43E06EE009
:102E7000CE017ADE080F191F40E06BE0CE0174DE50
:102E8000080F191F40E06EE1CE016EDE080F191F1A
:102E900040E061E1CE0168DE080F191F41E262E007
:102EA000CE0162DE080F191F44E063E0CE015CDE54
:102EB000080F191F40E76AE0CE0156DE080F191F00
:102EC00040E76DE1CE0150DE080F191F40E760E1D9
:102ED000CE014ADE080F191F44E06CE0CE0144DE4B
:102EE000080F191F40E26FE1CE013EDE080F191FE7
:102EF00040E262E1CE0138DE080F191F44E968E0C4
:102F0000CE019FD3080F191F48E06AE0CE0199D384
:102F1000080F191F48E069E0CE0193D3080F191F6D
:102F2000CE011FDE800F911FDF91CF911F910F9176
:102F30000895E0E4F8E081E0808390E896A39CE0C7
:102F400097A386838AE590E06CDE2FEF81EE94E014
:102F5000215080409040E1F700C000008AE590E0F9
:102F600030CF0895EF92FF920F931F93CF93DF938B
:102F7000EC01DFDF80E88093082060E08BE194E2E1
:102F80000E94B3230F2EF0E4EF2EF4E2FF2EF02D7B
:102F900001E025E04AE06AE08AE00E949F212AE001
:102FA0004AE06AE085E00E949F212AE045E065E072
:102FB00085E00E949F2125E04AE065E085E00E94CF
:102FC0009F210E942321CE0153DD8B858F938A851B
:102FD0008F93FF92EF920E9436588A859B850F90BF
:102FE0000F900F900F90813426E0920788F680931F
:102FF000D42A9093D52A8FEF97EA21E6815090400A
:103000002040E1F700C0000000E810E08091252A90
:103010009091262A8A839B83CE012ADDBE018AE510
:1030200090E017D2015011090115110579F7DF91D0
:10303000CF911F910F91FF90EF9008951F920F92E3
:103040000FB60F9211248F939F938091252A909110
:10305000262A01968093252A9093262A9F918F9164
:103060000F900FBE0F901F901895CF92DF92EF92A6
:10307000FF920F931F934091362A5091372A609107
:10308000382A7091392A452B462B472B71F4FC01C5
:103090004085518560E070E04093362A5093372A8E
:1030A0006093382A7093392A07C0FC012085318546
:1030B00021383B4B08F053C0FC014085518560E04E
:1030C00070E08091362A9091372AA091382AB091E9
:1030D000392A8C019D01369527951795079568012A
:1030E0007901C80ED91EEA1EFB1E4C155D056E0542
:1030F0007F0558F56C017D01C01AD10AE20AF30A76
:10310000C416D506E606F70600F58C019D01000FF2
:10311000111F221F331F800F911FA21FB31F480FC3
:10312000591F6A1F7B1F769567955795479576952A
:103130006795579547954093362A5093372A609361
:10314000382A7093392A81E00BC04093362A509375
:10315000372A6093382A7093392A80E001C080E0D2
:103160001F910F91FF90EF90DF90CF9008950F93F4
:103170001F93CF93DF93EB01813029F120F0823050
:1031800009F441C05FC00A851B85FA01A0818885CA
:103190009985A80160E070E0480F591F611D711DFD
:1031A0009A01AB01325041095109B0E00E945656D4
:1031B00020E137E240E050E00E941F56200F311F0F
:1031C0002A873B873FC00C851D85FA01A181888530
:1031D0009985A80160E070E0480F591F611D711DBD
:1031E0009A01AB01325041095109B0E00E94565694
:1031F00020E137E240E050E00E941F56200F311FCF
:103200002C873D871FC00E851F85FA01A281888506
:103210009985A80160E070E0480F591F611D711D7C
:103220009A01AB01325041095109B0E00E94565653
:1032300020E137E240E050E00E941F56200F311F8E
:103240002E873F87DF91CF911F910F9108950F93A4
:103250001F93CF93DF93813039F018F0823039F02B
:1032600009C0FB013A9625C0FB013C9622C0FB0138
:103270003E961FC01092302A1092312A1092322AA4
:103280001092332A1092342A1092352A10922A2A48
:1032900010922B2A10922C2A10922D2A10922E2A4C
:1032A00010922F2A1092272A1092282A1092292A47
:1032B000CBC090E0DC01AA0FBB1FA05DB54D2D91E6
:1032C0003C91232BD9F460817181DC01AA0FBB1FD3
:1032D000A65CB54D2D913C916217730740F4DC015B
:1032E000AA0FBB1FA05DB54D6D937C9307C0DC0199
:1032F000AA0FBB1FA05DB54D2D933C9360817181DA
:10330000FC01EE0FFF1FE65CF54D20813181621755
:10331000730708F077C0FC01EE0FFF1FE05DF54D6D
:103320000190F081E02DDF01AA0FBB1FAA0FBB1F88
:10333000AA0FBB1FAE1BBF0B8B0120E030E00A0FB2
:103340001B1F211D311D689412F83695279517957E
:1033500007951694D1F7D8010024AA0FBB1F001CB3
:10336000AA0FBB1F001CAB2FB02DED01C00FD11F4A
:10337000CE17DF0708F43FC0E801CA1BDB0BEC17D0
:10338000FD07C8F1FC01EE0FFF1FE65DF54D019052
:10339000F081E02D309761F4FC01EE0FFF1FE65D38
:1033A000F54D60837183FC01E95DF54D108223C00A
:1033B000E617F707A8F0DC01A95DB54D6C916F5FCA
:1033C0006C936134C0F0DC01AA0FBB1FA65DB54D44
:1033D0003197ED93FC93FC01E95DF54D10820BC034
:1033E000FC01EE0FFF1FE65DF54D60837183FC016C
:1033F000E95DF54D1082FC01EE0FFF1FE05DF54D1C
:1034000000831183FC01EE0FFF1FE65DF54D208167
:1034100031812115310551F0FC01EE0FFF1FEE5EE9
:10342000F34D420F531F408351830EC0880F991FE5
:10343000FC01EE5EF34DDC01A05DB54D8D919C91DC
:10344000480F591F40835183DF91CF911F910F91F6
:103450000895EF92FF920F931F93CF93DF938C0108
:10346000EB0120913A2A30913B2A232BA1F4809141
:103470003C2A90913D2A892B71F480913E2A9091AB
:103480003F2A892B41F480911020803821F487E570
:1034900094E20E94475880911020882309F486C046
:1034A000823048F18A859B8520913A2A30913B2AC7
:1034B0002817390720F480933A2A90933B2A8C8569
:1034C0009D8520913C2A30913D2A2817390720F408
:1034D00080933C2A90933D2A8E859F8520913E2A99
:1034E00030913F2A2817390708F05AC080933E2AA6
:1034F00090933F2A55C0CEE3DAE289818F93888189
:103500008F930CE31AE2F80181818F9380818F936E
:103510000F2EFAE3EF2EFAE2FF2EF02DF701818154
:103520008F9380818F9382EA94E29F938F930E947E
:10353000365880910E2090910F20880F991FF70127
:1035400040815181480F591F40835183F8012081E8
:103550003181280F391F2083318368817981860F5B
:10356000971F888399834093122C5093132C209398
:10357000142C3093152C8093162C9093172C409379
:103580000C2B50930D2B20930E2B30930F2B8093ED
:10359000102B9093112B8DB79EB708968DBF9EBFB1
:1035A0008091102081508093102043C08A859B8594
:1035B00081389B4B50F48C859D8581389B4B28F43A
:1035C0008E859F8581389B4B28F085EE94E20E9482
:1035D00047582FC0CE0149DD882359F149E050E218
:1035E000BE0180E0C4DD49E050E2BE0181E0BFDD04
:1035F00049E050E2BE0182E0BADD40910E205091D8
:103600000F20BE0180E023DE40910E2050910F205C
:10361000BE0181E01CDE40910E2050910F20BE01C2
:1036200082E015DE40910C2050910D20BE01C801B2
:103630007DD1DF91CF911F910F91FF90EF90089571
:103640000895EF920F931F93CF93DF931F92CDB7FF
:10365000DEB7262F4983EE24E3948E010F5F1F4FC0
:1036600048EE6AE580E894E05AD480E090E00F905C
:10367000DF91CF911F910F91EF900895EF920F93EB
:103680001F93CF93DF931F92CDB7DEB7262FEE2483
:10369000E3948E010F5F1F4F48EE6AE580E894E0E7
:1036A000F8D3898190E00F90DF91CF911F910F9116
:1036B000EF900895EF920F931F938901E42E262F28
:1036C00048EE6AE580E894E02AD490E01F910F91DB
:1036D000EF9008952FEF89EF90E0215080409040C7
:1036E000E1F700C000000895EF92FF920F931F933F
:1036F000CF93DF93CDB7DEB7C25AD109CDBFDEBFBE
:1037000042E1E4E2F0E2DE01119601900D924A9569
:10371000E1F742E1E6E3F0E2DE01539601900D921B
:103720004A95E1F742E1E8E4F0E2DE019596019086
:103730000D924A95E1F742E1EAE5F0E2DE01D79623
:1037400001900D924A95E1F742E1ECE6F0E2DE01EC
:10375000A75BBF4F01900D924A95E1F742E1EEE77A
:10376000F0E2DE01A55ABF4F01900D924A95E1F7B4
:1037700042E1EAE5F0E2DE01A359BF4F01900D926C
:103780004A95E1F742E1ECE6F0E2DE01A158BF4FD5
:1037900001900D924A95E1F742E1EEE7F0E2DE0199
:1037A000AF56BF4F01900D924A95E1F7613099F500
:1037B0004DA15EA14817590760F0DE01979661E0C0
:1037C00070E0E62FAB01ED90FD90E816F906D8F415
:1037D00003C040E050E0E0E0440F551F21E030E03E
:1037E0002C0F3D1F420F531FDA0152962D913C9131
:1037F0005397DC010E944756DA014D915C918A0192
:10380000081B190B7DC0E1E0E60F6F5F7F4F693049
:103810007105B9F675C06230B9F56D964EAD5FAD04
:103820006D974817590768F0DE01A35ABF4F61E052
:1038300070E0E62FAB01ED90FD90E816F906E0F49C
:1038400003C040E050E0E0E0440F551FA9E4B0E0C1
:10385000AC0FBD1FA40FB51F2D913C91DC010E9440
:103860004756DE01A40FB51FD7964D915C91D897AE
:103870008A01081B190B44C0E1E0E60F6F5F7F4F20
:1038800069307105B1F63CC0633009F042C0CF56D3
:10389000DF4F48815981C159D0404817590768F016
:1038A000DE01AD56BF4F61E070E0E62FAB01ED9059
:1038B000FD90E816F906E8F403C040E050E0E0E0CF
:1038C000440F551FAFE7B0E0AC0FBD1FA40FB51FED
:1038D0002D913C91DC010E944756ADE6B0E0AC0F63
:1038E000BD1FA40FB51F4D915C918A01081B190BD8
:1038F00007C0E1E0E60F6F5F7F4F69307105A9F601
:103900000B3F110510F4E93011F40AEF10E0C80183
:1039100002C08FEF9FEFCE55DF4FCDBFDEBFDF91EF
:10392000CF911F910F91FF90EF9008953F924F928A
:103930005F926F927F928F929F92AF92BF92CF923F
:10394000DF92EF92FF920F931F93CF93DF93CDB748
:10395000DEB7AE97CDBFDEBF7B014A01DB01129619
:103960002D913C911397ADECBCEC0E9447566C0135
:10397000D694C794D694C794D694C79484E1E0E9CA
:10398000F0E2DE01119601900D928A95E1F78AE04E
:10399000E4EAF0E2DE01559601900D928A95E1F796
:1039A00088E0EEEAF0E2DE015F9601900D928A95E2
:1039B000E1F788E0E6EBF0E2DE01979601900D92E8
:1039C0008A95E1F7F701828593852091122C309139
:1039D000132C821B930B12F480E090E061E09C01B9
:1039E000829EC001839E900D929E900D11247CDEDC
:1039F0008C01D7011C968D919C911D972091142CC0
:103A00003091152C821B930B12F480E090E061E062
:103A1000FC018E9EC0018F9E900D9E9E900D1124E4
:103A200063DE4C019801D8010E9447562B013C01EE
:103A3000F8EE4F0EF0E85F1E611C711C9401D4017A
:103A40000E944756A3019201261B370B480B590BC6
:103A50001AF420E030E0A901CA01B9012CE330E0FA
:103A600040E050E00E941F562E3464E0360710F00C
:103A70002DE434E0013F110520F481EF8816910414
:103A8000C8F18091112081111EC08091542A90911B
:103A9000552A8093522A9093532A6091502A70910C
:103AA000512AF601E61BF70BF397E231F14068F477
:103AB0006B5B362E3C18A0904E2AB0904F2AA81A65
:103AC000B90AE1E003C0E0E001C0E0E081E08093FA
:103AD00011208091522A9091532A8732924018F0F7
:103AE0002DE434E002C020E030E0C0924C2AD092B5
:103AF0004D2A13C080911120813041F420934E2A29
:103B000030934F2AC092502AD092512A10921120FD
:103B10002093542A3093552AE0E08901A1E7B0EEC2
:103B20000E9447569C010024220F331F001C220FC5
:103B3000331F001C232F302D8FE090E0821B930B4E
:103B400022F4D70153961C920BC0803191052CF0C2
:103B50008FE0D70153968C9303C0D70153968C9373
:103B6000E13009F051C0B7E9AB16B10414F1FE0120
:103B70007F96A3E4BAE2CE01879621912D93E817B0
:103B8000F907D9F788E080934B2ABF92AF921F9232
:103B90003F9282E095E29F938F938DE095E29F9311
:103BA0008F930E94365882E0F701828BCDBFDEBF33
:103BB0002EC03AE6A3163FEFB3064CF5FE01B796CA
:103BC000A3E4BAE2CE018F9621912D93E817F9076D
:103BD000D9F788E080934B2AB194A194B108BF92A1
:103BE000AF921F923F9285E395E29F938F938DE072
:103BF00095E29F938F930E94365881E0D7015296A9
:103C00008C93CDBFDEBF03C0D70152961C92898131
:103C10009A8108171907A8F0FE01339621E08191D7
:103C200091910817190720F02F5F2A30C1F76EC055
:103C30008091422A281306C0293021F0211106C0A4
:103C400001C020E0C0924C2AD0924D2A2093422AF3
:103C5000E0914B2AEE23E1F08091402ABC2DB81B65
:103C6000B73208F458C0C092402AD092412AE1509D
:103C7000E0934B2AE770F0E0ED5BF54D608170E07A
:103C800081E090E0DDDCC0924C2AD0924D2A43C006
:103C900080914C2A90914D2AF601E81BF90BCF0137
:103CA0008A389240C0F1C092402AD092412AFE0147
:103CB000E20FF11D85899FEF9093432A9093442A48
:103CC0008093452A8093462A9093472A9093482AC6
:103CD0008093492A80934A2A80E180934B2A2F932C
:103CE0001F9281E495E29F938F9387E495E29F93DF
:103CF0008F930E94365883E0D70152968C930F9091
:103D00000F900F900F900F900F9005C08091422A56
:103D1000281398CF9BCFAE96CDBFDEBFDF91CF915A
:103D20001F910F91FF90EF90DF90CF90BF90AF90D9
:103D30009F908F907F906F905F904F903F900895ED
:103D4000E0E4F6E080EB818380E1858380ED809381
:103D5000C0080895E0ECF8E080818F7B8083E0E488
:103D6000F6E080EB828388E1848B858B868B878B62
:103D70000895E0ECF8E0838382818823ECF7E0EC9F
:103D8000F8E083810895E0E8F4E0128289E0858319
:103D900088E0818381E084830895FC01668384E662
:103DA000489FA00111244115510509F18481982FE4
:103DB0009874983411F466830AC0982F90759035E2
:103DC00021F487E0838384E00895807C71F48AE69F
:103DD0008A95F1F700C0415051094115510531F75D
:103DE00006C087E0838383E0089581E0089584819D
:103DF00085FDF7CF83E00895FC01478384E6689F43
:103E0000B0011124848186FD0FC06115710561F038
:103E10008AE68A95F1F700C061507109848186FDB8
:103E200003C061157105A1F7848186FF06C09481E6
:103E30009295917081E08927089580E00895FC01B2
:103E400084818C708C3019F184E6689FB001112454
:103E5000848188237CF06115710561F0AAE6AA953A
:103E6000F1F700C061507109848188231CF061154D
:103E70007105A1F78781DA018C93222321F087E075
:103E8000838381E0089582E0838381E0089580E068
:103E90000895BF92CF92DF92EF92FF920F931F93FC
:103EA000CF93DF93EC01D62EF42EC22E660F75DF72
:103EB000813041F54C2D6F2DCE019EDF882321F1FD
:103EC0006D2D660F61604F2DCE0167DF8130B1F43B
:103ED000BB24BA94BE0C0FC068018FEFC81AD80A71
:103EE00021E0B11020E0A8016F2DCE01A8DFBA9427
:103EF000882321F086018FEFB812EECF87E08B8305
:103F00008E2D03C08E2D01C086E0DF91CF911F91D1
:103F10000F91FF90EF90DF90CF90BF900895CF92D8
:103F2000DF92EF92FF920F931F93CF93DF93EC01F9
:103F3000F42ED22E660F31DF8130E1F44D2D6F2D3E
:103F4000CE015ADF8823C1F0EA94C02ED12E0BC0D7
:103F5000F60141916F016F2DCE014EDF9FEF9E0D57
:103F6000882321F0E92EFFEFEF12F2CF87E08B8359
:103F70008E2D03C08E2D01C086E0DF91CF911F9161
:103F80000F91FF90EF90DF90CF900895E0E6F6E07C
:103F900088E0818384E08283E0EAF9E080E2838341
:103FA0008EE2868388E9878383E0858388E1848342
:103FB0000895E0EAF9E0918195FFFDCF8093A00993
:103FC0000895E0EAF9E081818823ECF78091A00967
:103FD0000895CF93DF93EC018881882329F02196FF
:103FE000E8DF89918111FCCF8DE0E3DF8AE0E1DF3A
:103FF000DF91CF9108951F920F920FB60F92112467
:104000000BB60F928F939F93EF93FF938091562A55
:104010009091572A019759F48FEF9FE0E0E2F3E087
:10402000808F918F1092562A1092572A0AC0E0E290
:10403000F3E0108E118E81E090E08093562A9093E9
:10404000572AFF91EF919F918F910F900BBE0F9088
:104050000FBE0F901F901895CF93DF93CDB7DEB7AB
:104060006497CDBFDEBF0E946C08D6D00E94A70720
:104070000E94AF090E94F74989DF82E190E28093B4
:104080001C2C90931D2C80931E2C90931F2C8BE640
:1040900095E20E94475887E0E0EAF0E0828381E001
:1040A0000E94321280E894E06EDEE8E4F0E0808165
:1040B000866080837894CE0101960E94B2170E9498
:1040C000D0160E942C14BFD00E947F130E944F096B
:1040D00099249394882483940F2EF8E0CF2EFBE24A
:1040E000DF2EF02D0F2EF3EDAF2EFAE2BF2EF02DC6
:1040F0000F2EF8E4EF2EF12CF02D9091F02B943050
:1041000009F050C080E00E9432120E949D128FE0A0
:104110009DD08EE895E20E944758F60110820E94D9
:104120009917FFEF23ED80E3F15020408040E1F745
:1041300000C0000000E010E0CE0101960E9438159A
:10414000BE016F5F7F4F8AE590E083D9CE01019673
:104150000E9405522B853C852034364038F40939BD
:10416000EAE31E0730F40F5F1F4FE6CF00E010E0D8
:10417000E3CF8BEA95E20E944758F60180818823BD
:1041800021F041D40E942C141ED4F50180815ED010
:10419000882D0E9432120E948E120E94D016109218
:1041A000F02B34C09091F02B923029F481ED95E200
:1041B0000E9447582BC08091EF2B853049F423D4BF
:1041C000CE0101960E94B2170E942C14FCD31EC08F
:1041D0008091EF2B8430D1F4992059F00FD4FFEF68
:1041E00027EA81E6F15020408040E1F700C000005E
:1041F0000AC01ED09FEFE7EAF1E69150E040F040A0
:10420000E1F700C000001092EF2B9824F701908195
:1042100091609083889571CF84E20E947C0E80E04B
:104220000E94980E0E940D0E83E00C946A0E089571
:1042300083E00E946A0E0E942C140C941C110895B5
:104240000C940D0E08950C943F0E0895CF93DF93B8
:10425000D82FC091582AC81780F48C2F0E94980E2E
:104260002FEF86E791E0215080409040E1F700C0B9
:104270000000CF5FCD1788F311C08C1778F48C2F16
:104280000E94980E2FEF86E791E0215080409040E9
:10429000E1F700C00000C150DC1788F3D093582A22
:1042A000DF91CF91089581E0D1DF8FE0CFDF81E012
:1042B000CDDF8FE0CBCF08959C0180319105F4F5DF
:1042C00060317105DCF58FE090E0861B970B68E1AB
:1042D00070E00E940C568830910534F080319105D1
:1042E00034F467E870E005C067E070E002C067E0A2
:1042F00071E087709078992324F40197886F9F6FFD
:104300000196FB01E81BF90BCF01283031051CF4A5
:10431000220F331F04C0220F331F2F503109220FE9
:10432000331F220F331F220F331F820F931F44238B
:1043300019F00C94DC0D08950C94F40D08957F92FF
:104340008F929F92AF92BF92CF92DF92EF92FF92A5
:104350000F931F93CF93DF93182F962E842E822FC7
:10436000992787FD9095861B910967FD9395AC0170
:10437000992324F444275527481B590B682D772788
:1043800067FD7095611B710917FD7395CB0199232A
:1043900024F488279927861B970B61E030E0841767
:1043A00095070CF060E0E62EF32EE114F10431F0F5
:1043B000882D822E282F812F192D982E811634F4C6
:1043C000892D922E282F812F182D882EA82CBB24C2
:1043D000A7FCB094A11AB10817FDB394822F9927B6
:1043E00087FD90958919910997FC93956C01992304
:1043F00024F4CC24DD24C81AD90AE501D695C79542
:1044000092161CF47724739402C077247A94811650
:1044100024F1E114F10459F0402F612F772767FD53
:104420007095892D992787FD909546DF0AC0402F0A
:10443000692D772767FD7095812F992787FD9095C6
:104440003BDF9E012C193D09E901DD231CF4970C8B
:10445000CA0DDB1D1F5F8116E4F6DF91CF911F911E
:104460000F91FF90EF90DF90CF90BF90AF909F9013
:104470008F907F9008958F929F92AF92BF92CF922C
:10448000DF92EF92FF920F931F93CF93DF93982EBB
:10449000C82FD0E05E01A40EB11CCA15DB05E4F400
:1044A000C62ED12C7601E20EF11C862E0FC0402FB5
:1044B000CE0102DF1F5F612F70E06E157F05BCF338
:1044C0009394C92DD0E0CA15DB0534F4B601CE149F
:1044D000DF04B4F7182DEBCFDF91CF911F910F912F
:1044E000FF90EF90DF90CF90BF90AF909F908F9014
:1044F00008950F9301E021E041E060912220809136
:104500002120B9DF80912220873040F09091212036
:10451000993021F481508093222025C0863041F4C7
:1045200090912120973030F09150909321201BC022
:10453000893040F490912120963021F48F5F809350
:10454000222011C0893079F480912120893058F4DB
:104550008F5F80932120893031F49091202081E079
:1045600089278093202000E021E041E06091222013
:104570008091212080DF0E943F0E0F91089570E00E
:104580009B01220F331F220F331F620F731FFB018A
:10459000E058F64FDA01A80FB91FCB018B57964FA1
:1045A00034913295432F4373440F440F232F2C7CB7
:1045B00026952695242B322F3575330F2A7A26958A
:1045C000232B2D933196E817F90751F708952F9271
:1045D0003F924F925F926F927F928F929F92AF9293
:1045E000BF92CF92DF92EF92FF920F931F93CF93E0
:1045F000DF9300D01F92CDB7DEB7222E402E50E0C1
:104600005A01AA0CBB1CAA0CBB1C4A0D5B1D9A01CB
:104610002058364F5901C82ED92E382E360135E094
:10462000630E711C802F880F880F880F801B4B0131
:1046300096E0890E911C7B01E1E0EE1AF108860FED
:104640008983F50114918A829B82598010FF11C0E1
:10465000F1E04F1208C0DD2064F0422D6A817B81B9
:10466000C6012ADE06C0022D242D442D652D832D82
:1046700002DF16952A813B81215031092A833B8331
:1046800054182E153F0511F73FEFA31AB30A8FEF09
:10469000C81AD80A340CC614D70499F62396CDBF8D
:1046A000DEBFDF91CF911F910F91FF90EF90DF90D0
:1046B000CF90BF90AF909F908F907F906F905F90C2
:1046C0004F903F902F900895CF92DF92EF92FF92FC
:1046D0000F931F93CF93DF93CDB7DEB72597CDBF51
:1046E000DEBF70E0FB01EE0FFF1F6E0F7F1FFB01AF
:1046F000EE0FFF1FE058FC4F9E012F5F3F4F6901F7
:1047000065E070E00396480F591F849182958F7081
:10471000D6018D936D01DA0123E030E0082F01709E
:1047200010E07801062E02C0EE0CFF1C0A94E2F79E
:104730009E91E92AEC928695215031092115310587
:1047400069F761507109319661157105F1F6259689
:10475000CDBFDEBFDF91CF911F910F91FF90EF9002
:10476000DF90CF9008959F92AF92BF92CF92DF9249
:10477000EF92FF920F931F93CF93DF93EC01962E4E
:10478000662381F0FC0101900020E9F73197E81BD6
:10479000F90B5F01AA0CBB1CEA0DFB1D5F01AA0C03
:1047A000BB1C0CC0FC0101900020E9F73197E81B0D
:1047B000F90B5F01AA0CBB1CAA0CBB1C61E070E0EA
:1047C000C5010E9474566C017E0100E010E0C0E05B
:1047D000D0E00CC0992021F0A601CE01D0DE03C0AC
:1047E000A601C80171DF26960C5F1F4FF70161918A
:1047F0007F016111EFCFB501C6010E94C711C6014B
:104800000E942657DF91CF911F910F91FF90EF905B
:10481000DF90CF90BF90AF909F9008952F923F92DE
:104820004F925F926F927F928F929F92AF92BF92C0
:10483000CF92DF92EF92FF920F931F93CF93DF936C
:10484000CDB7DEB72597CDBFDEBF222E402E50E07C
:104850003A01660C771C460D571D440F551F362E26
:10486000202F220F220F220F201BC12CD12CFA0146
:10487000E058FC4F3F014C01F5E08F0E911C7C018C
:1048800033E0E31AF108280F2983CB0103968A83CA
:104890009B83F301EC0DFD1D14918C829D82598048
:1048A000AA80BB80AC18BD0810FF12C091E049126D
:1048B00009C0EC81FD81FF235CF0422DB501CF01E1
:1048C000FBDC06C0022D242D442D632D852DD3DD68
:1048D00016958C819D8101978C839D8354188E152C
:1048E0009F0511F79FEFC91AD90A3418E6E0CE16D2
:1048F000D10479F62596CDBFDEBFDF91CF911F9110
:104900000F91FF90EF90DF90CF90BF90AF909F906E
:104910008F907F906F905F904F903F902F90089571
:104920000F93CF93DF93EC0101E021E030E0488169
:1049300067E070E081E090E071DF21E030E04981E4
:1049400067E070E085E090E069DF21E030E04A81D7
:1049500067E070E089E090E061DF21E030E04B81CA
:1049600067E070E08DE090E059DFDF91CF910F912B
:1049700008950F93CF93DF93EC0101E021E030E045
:10498000488167E070E083E090E048DF21E030E0BC
:10499000498167E070E087E090E040DF21E030E0AF
:1049A0004A8167E070E08BE090E038DFDF91CF91E3
:1049B0000F9108950C946C0F08950C94EE0F0895C8
:1049C0000C94691008950C941C110895CF93CFE1B5
:1049D0000E94EA0EC150E1F7CF910895CF93CFE145
:1049E0000E94A10EC150E1F7CF910895CF93CFE17E
:1049F0000E942E0FC150E1F7CF910895F7DF82E0BA
:104A00000C946A0E0895CF93CFE10E944D0FC150D0
:104A1000E1F7CF9108956091092B6B3338F46F5F04
:104A20006093092B85E00E949C1307C081E080936E
:104A3000092B61E085E00E949C130C943F0E0895C1
:104A40006091092B662339F061506093092B85E052
:104A50000E949C1307C08AE38093092B6AE385E0D8
:104A60000E949C130C943F0E089560910A2B6731AD
:104A700038F46F5F60930A2B85E00E949C1307C097
:104A800081E080930A2B61E085E00E949C130C94E6
:104A90003F0E089560910A2B662339F061506093B0
:104AA0000A2B85E00E949C1307C086E180930A2BA5
:104AB00066E185E00E949C130C943F0E089560917E
:104AC000862A673138F46F5F6093862A85E00E94FA
:104AD0009C1306C01092862A60E085E00E949C1319
:104AE0000C943F0E08956091862A662339F0615038
:104AF0006093862A85E00E949C1307C087E180931B
:104B0000862A67E185E00E949C130C943F0E08956D
:104B10006091852A6B3338F46F5F6093852A85E056
:104B20000E949C1306C01092852A60E085E00E94D6
:104B30009C130C943F0E08956091852A662339F0EA
:104B400061506093852A85E00E949C1307C08BE327
:104B50008093852A6BE385E00E949C130C943F0EA2
:104B600008956091842A6B3338F46F5F6093842AD0
:104B700085E00E949C1306C01092842A60E085E0C4
:104B80000E949C130C943F0E08956091842A662322
:104B900039F061506093842A85E00E949C1307C01D
:104BA0008BE38093842A6BE385E00E949C130C9432
:104BB0003F0E08958091882A883040F491E0980F44
:104BC0009093882A0E942453D4DE06C081E080930B
:104BD000882A0E942453CDDE0C943F0E08958091C4
:104BE000882A823040F09FEF980F9093882A0E9485
:104BF0002453BFDE06C087E08093882A0E94245396
:104C0000B8DE0C943F0E089580918A2A8D3040F4CE
:104C100091E0980F90938A2A0E944853AADE06C01A
:104C200081E080938A2A0E944853A3DE0C943F0EB1
:104C3000089580918A2A823040F09FEF980F9093D8
:104C40008A2A0E94485395DE06C08CE080938A2A07
:104C50000E9448538EDE0C943F0E08958F929F92CF
:104C6000AF92BF92EF92FF920F931F93CF93DF9378
:104C7000EBE8FAE260817181CB0101968083918338
:104C800080E090E0C0E0D0E00F2EFAE08F2E912C73
:104C9000A12CB12CF02D8E010F5F1F4FA5019401A7
:104CA0000E941F56605D6883622F732F842F952F9B
:104CB000611571058105910511F0E801ECCFF8014E
:104CC00031971E161F0654F4A0E0B0E08C9190813D
:104CD0009D9380833197AE17BF07C4F380E090E0C7
:104CE0001FDE0E943F0EDF91CF911F910F91FF9029
:104CF000EF90BF90AF909F908F9008958F929F926A
:104D0000AF92BF92EF92FF920F931F93CF93DF93D7
:104D1000EBE8FAE260817181CB0101978083918396
:104D200080E090E0C0E0D0E00F2EFAE08F2E912CD2
:104D3000A12CB12CF02D8E010F5F1F4FA501940106
:104D40000E941F56605D6883622F732F842F952FFA
:104D5000611571058105910511F0E801ECCFF801AD
:104D600031971E161F0654F4A0E0B0E08C9190819C
:104D70009D9380833197AE17BF07C4F380E090E026
:104D8000CFDD0E943F0EDF91CF911F910F91FF90D9
:104D9000EF90BF90AF909F908F9008950F931F93C7
:104DA000CF93DF9342305105C0F0EB01FC019A0133
:104DB0000991199101931193225031092230310543
:104DC000B8F79A01225031092E7F2E5F3F4F820F94
:104DD000931F620F731F417055274115510549F00C
:104DE000DB01FC01840F951F2D912193E817F90732
:104DF000D9F7DF91CF911F910F910895411551057A
:104E000039F0FC01840F951F6193E817F907E1F76A
:104E100008950F931F93DC01FB01628D738D80E079
:104E200090E02C91233059F40489158920E030E07A
:104E3000980111270027602B712B822B932B1F9138
:104E40000F910895CF93DF93EC01A881B98110975A
:104E500029F14C91413258F04A3349F1FD01319624
:104E60009F019191913228F09A33D1F704C0942F89
:104E70009D019A3379F4CD0101962817390789F4F9
:104E8000842F90E0C0978230910570F41296A88329
:104E9000B9830FC08091592A90E00BC08FEF9FEF2C
:104EA00008C08FEF9FEF05C08FEF9FEF02C09D01FD
:104EB000E2CFDF91CF9108958F929F92AF92BF92F0
:104EC000CF92DF92EF92FF920F931F93CF93DF93D6
:104ED000EC018C81882309F444C0CEA4DFA4E8A8A7
:104EE000F9A85E0182E3A80EB11C01E010E0A70161
:104EF0009601B50189810E94753B811134C01C82E5
:104F00008AA19BA1ACA1BDA1B701A601481B590B69
:104F10006A0B7B0B8A8D9B8DAC8DBD8D4817590715
:104F20006A077B0710F58B80912C82E0881691042C
:104F3000F0F08A8D9B8DAC8DBD8DC80ED91EEA1EFA
:104F4000FB1E01E010E0A7019601B50189810E94D6
:104F5000753B81E0881A910881E08816910449F731
:104F600008C080E007C081E005C080E003C080E0A9
:104F700001C080E0DF91CF911F910F91FF90EF90E2
:104F8000DF90CF90BF90AF909F908F900895BF9289
:104F9000CF92DF92EF92FF920F931F93CF93DF9305
:104FA000EC016A017B018EA59FA5A8A9B9A9841768
:104FB0009507A607B707E1F0CE017EDFB82E811175
:104FC00018C001E010E0A7019601BE016E5C7F4FA2
:104FD00089810E94213B882331F0BB24B394CC24E7
:104FE000CA94DC2C7601CEA6DFA6E8AAF9AA01C0F5
:104FF000B12C8B2DDF91CF911F910F91FF90EF90EE
:10500000DF90CF90BF9008950F931F93CF93DF93BE
:10501000EC011C820FEF1FEF98010EA71FA728AB12
:1050200039ABB5DF811123C0FE01E05DFD4F80810A
:10503000918185359A4AE9F4E85CF14040815181DB
:10504000628173817727463451446445710599F034
:10505000CC57DF4F488159816A817B81772781E076
:10506000463451446445710539F480E005C083E05D
:1050700003C082E001C080E0DF91CF911F910F91CA
:1050800008950097C9F0DC01ED91FC9111973097DC
:10509000A9F020812223A1F02681378112968D91DB
:1050A0009C9113972817390769F481810E941A3B54
:1050B00080FD0AC080E0089589E0089589E00895A0
:1050C00089E0089589E0089589E008952F923F923C
:1050D0004F925F926F927F928F929F92AF92BF9208
:1050E000CF92DF92EF92FF920F931F93CF93DF93B4
:1050F000CDB7DEB76D97CDBFDEBF6C01CB01B42E4F
:10510000D6011D921C929EDE7C0199230CF42BC2C9
:10511000FC01EE0FFF1FE45AF54D008111810115CE
:10512000110509F422C2F60100831183D8018C9184
:10513000882369F011968C910E941A3B80FD07C06C
:10514000BB2009F414C282FD14C280E05DC2F801E4
:105150001082E1828E2D0E943E3A80FD0CC2BB205F
:1051600011F082FD0AC240E050E0BA01C8014CDFF4
:10517000813009F03FC0F801EC50FE4F7E0121E183
:10518000E20EF11C9E012F5F3F4FAF01DA018C91BF
:10519000882339F014968D919D910D90BC91A02D8E
:1051A00003C080E090E0DC01F90181939193A19329
:1051B000B1939F01405F5F4FEE15FF0539F79E01E8
:1051C0002F5F3F4F6901D6014D905D906D907D90AE
:1051D0006D01411451046104710439F0B301A2015D
:1051E000C80112DF811102C00DC082E0CE14DF04BD
:1051F00051F703C0412C512C3201833009F4BFC157
:105200008111BFC1F80185AD96AD8115924009F0BD
:10521000BAC1F801E85BFF4FC080D180E12CF12CCE
:10522000C114D104E104F10429F43E96C080D18078
:10523000E280F380D8015A96CD92DD92ED92FC92F5
:105240005D97F801EE5BFF4FA081F801A3838FEF1C
:105250008A0F823008F099C1F7ADF98B2F2FF80132
:105260002283222309F493C1822F90E09C012150D4
:10527000310982239323892B09F08BC1ED5BFF4F0A
:1052800020803180F80120863186C1018F709927F6
:10529000892B09F080C1EB5BFF4F80809180A12CAE
:1052A000B12C81149104A104B10429F43D968080AD
:1052B0009180A280B380F801E05CFF4F0190F08103
:1052C000E02D309709F469C1B0E0A70196010E9472
:1052D00056566A8F7B8F8C8F9D8F9F0140E050E0E8
:1052E0002E8B3F8B488F598FC101929582958F707D
:1052F00089279F708927280F391F411D511DDA0109
:10530000C9012A8D3B8D4C8D5D8D280F391F4A1F99
:105310005B1F2A8B3B8B4C8B5D8B82169306A406FE
:10532000B50608F43CC1C501B401621B730B840BC4
:10533000950BE9892E2F30E040E050E00E941F5687
:10534000DA01C901211531054105510509F429C1C9
:10535000263FFFE03F074105510518F461E0698BE6
:1053600002C0E2E0E98B863F9F4FA105B10508F03E
:1053700020C149015A0162E0860E911CA11CB11C9A
:10538000D80156968D929D92AD92BC925997F80194
:10539000468E578E60A271A28E899F89A88DB98D85
:1053A000840D951DA61DB71D82A393A3A4A3B5A329
:1053B0004A895B896C897D89440D551D661D771D61
:1053C00042A753A764A775A7F989F330C1F423282E
:1053D00009F0E9C0F801E25AFF4F80819181A28172
:1053E000B381F80186A397A3A0A7B1A7880C991C45
:1053F000AA1CBB1C880C991CAA1CBB1C2DC02328F2
:1054000009F4D3C02A8D3B8D4C8D5D8D820F931F87
:10541000A41FB51FF80186A397A3A0A7B1A7F98978
:10542000F23029F4880C991CAA1CBB1C15C0A3E0FF
:10543000B0E0A50194010E945656DC01CB01B6955F
:10544000A7959795879521E082229924AA24BB24C9
:10545000880E991EAA1EBB1E3FEF830E31E0931EDD
:10546000A11CB11C072E79E0B694A7949794879459
:105470007A95D1F7702DC814D904EA04FB0408F416
:1054800096C08FEF9FEFDC01F80186879787A08B8E
:10549000B18B82879387A487B58780E88583F98954
:1054A000F33009F048C0F801EE59FF4F8081918137
:1054B000019709F040C0B301A2014F5F5F4F6F4FEA
:1054C0007F4FC80164DD811136C0D80115961C924A
:1054D000F801E05DFD4F8081918185359A4A59F54B
:1054E000F80182A993A9A4A9B5A982359245A1463C
:1054F000B14409F5F801EA5EFD4F80819181A281F6
:10550000B38182379247A144B146A9F43496808191
:105510009181A281B381F80186879787A08BB18B97
:10552000E25EFD4F80819181A281B381F801828783
:105530009387A487B587E989D801EC9380915A2A8B
:1055400090915B2A019680935A2A90935B2A169633
:105550008D939C93179752961D921D921D921C92AB
:10556000559780E051C08BE04FC08CE04DC080E08B
:105570004BC08AE049C083E047C08AE045C081E073
:1055800043C08DE041C08DE03FC08DE03DC08DE067
:105590003BC08DE039C08DE037C08DE035C08DE077
:1055A00033C08DE031C08DE02FC08DE02DC08DE087
:1055B0002BC049015A01B2E08B0E911CA11CB11CF9
:1055C000F801868A978AA08EB18E468E578E60A289
:1055D00071A28E899F89A88DB98D840D951DA61DF8
:1055E000B71D82A393A3A4A3B5A38A899B89AC8981
:1055F000BD89840D951DA61DB71D82A793A7A4A7DD
:10560000B5A7F3E0F98BE3CE6D96CDBFDEBFDF919A
:10561000CF911F910F91FF90EF90DF90CF90BF90AF
:10562000AF909F908F907F906F905F904F903F9042
:105630002F900895EF92FF920F931F93CF93DF93D4
:10564000EC013ADC982F81115BC08881833009F02E
:105650004DC08D81813009F049C040E052E060E0EA
:1056600070E07E0182E3E80EF11CC701C7DB85E52F
:105670009AEAFE01E05DFD4F8083918382E592E529
:10568000A1E6B1E48AAB9BABACABBDAB82E792E7E2
:10569000A1E4B1E67A9780839183A283B3838E8558
:1056A0009F85A889B989349680839183A283B38327
:1056B0008A859B85AC85BD85349680839183A28342
:1056C000B3838E8D9F8DA8A1B9A19C01AD012F5FE1
:1056D0003F4F4F4F5F4F2EA73FA748AB59AB01E05D
:1056E00010E0B70189810E94753B1D8240E050E0C7
:1056F00060E089810E94E53B91E0811101C090E06A
:10570000892FDF91CF911F910F91FF90EF90089516
:10571000CF92DF92EF92FF92FC019A01AB012250EF
:10572000310941095109C688D788E08CF18C82E0A3
:10573000C81AD108E108F1082C153D054E055F0592
:1057400068F4A281B0E00E945656C2A4D3A4E4A497
:10575000F5A46C0D7D1D8E1D9F1D03C060E070E0E3
:10576000CB01FF90EF90DF90CF900895AF92BF9262
:10577000CF92DF92EF92FF920F931F93CF93DF931D
:10578000EC016A017B01423051056105710508F4A5
:10579000AAC04E895F89688D798DC416D506E60644
:1057A000F70608F0A5C08881823009F44BC0833029
:1057B00009F46AC0813009F0A0C0860116950795EA
:1057C0000C0D1D1DC801892F992786954AA15BA143
:1057D0006CA17DA1480F591F611D711DCE01D7DB42
:1057E000811190C058018FEFA81AB80A1170FE01FC
:1057F000E00FF11F12A9C501892F992786954AA1AB
:105800005BA16CA17DA1480F591F611D711DCE01C7
:10581000BEDB81117BC081E0B822CA0DDB1D8AA9E5
:10582000612F70E0782BC0FE09C0729562956F7091
:1058300067277F70672780E090E073C07F7080E00B
:1058400090E06FC077276F2D5E2D4D2D0AA11BA113
:105850002CA13DA1400F511F621F731FCE0197DB8A
:10586000811158C0CC0CDD1CEE1CFF1CE894C0F864
:1058700081E0D822EE24FF24FE01EC0DFD1D62A97B
:1058800073A980E090E04DC04AA15BA16CA17DA10D
:1058900097018601689416F8369527951795079510
:1058A0001694D1F7400F511F621F731FCE016FDB9B
:1058B000811134C0CC0CDD1CEE1CFF1CCC0CDD1C9B
:1058C000EE1CFF1C8CEFC82281E0D822EE24FF24BE
:1058D000FE01EC0DFD1D82A993A9A4A9B5A9BC01E7
:1058E000CD019F701EC061E070E080E090E019C0C3
:1058F00061E070E080E090E014C061E070E080E082
:1059000090E00FC06FEF7FEFCB010BC06FEF7FEF29
:10591000CB0107C06FEF7FEFCB0103C06FEF7FEFCD
:10592000CB01DF91CF911F910F91FF90EF90DF900E
:10593000CF90BF90AF900895AF92BF92CF92DF9279
:10594000EF92FF920F931F93CF93DF93EC018B01A4
:105950006C837D83CE80DF80E884F98481E0C81683
:10596000D104E104F10409F48AC0E881F98186894F
:105970009789A08DB18DC816D906EA06FB0608F0F6
:1059800080C0C114D104E104F104C1F480818330EA
:1059900041F486A197A1A0A5B1A50097A105B105E5
:1059A00059F4808591850817190708F06CC066A125
:1059B00077A180A591A535C06C017D01A28080E111
:1059C000A89E500111240A151B0530F1B701A6014C
:1059D00088819981CBDE6B017C018FEFC816D806D8
:1059E000E806F80609F451C082E0C816D104E104C3
:1059F000F10408F44CC0E881F98186899789A08D6B
:105A0000B18DC816D906EA06FB0608F042C00A198D
:105A10001B090A151B05D0F6B701A60188819981DB
:105A200077DECA86DB86EC86FD8661157105810509
:105A3000910589F19801329522952F7023273F70A7
:105A40002327DC01CB01820F931FA11DB11D8E877F
:105A50009F87A88BB98B0F701127C801880F991FDA
:105A600082959295907F9827807F9827C29628816B
:105A70003981820F931F8A8B9B8B80E00DC082E05F
:105A80000BC082E009C082E007C081E005C082E06F
:105A900003C082E001C082E0DF91CF911F910F919E
:105AA000FF90EF90DF90CF90BF90AF9008954F920E
:105AB0005F926F927F928F929F92AF92BF92CF929E
:105AC000DF92EF92FF920F931F93CF93DF93EC013E
:105AD0006A017B01280139014230510561057105D8
