:10000000A7C60000DBC60000D9C60000D7C60000A6
:10001000D5C60000D3C600000C944D08CFC6000022
:10002000CDC60000CBC600000C94FD12C7C6000070
:10003000C5C60000C3C600000C94823ABFC60000CB
:100040000C94004C0C945B3A0C94761E0C94284C47
:100050000C94D216B3C60000B1C60000AFC60000B3
:10006000ADC60000ABC60000A9C60000A7C60000D0
:10007000A5C60000A3C60000A1C600009FC60000E0
:100080009DC600009BC600000C94AC1197C60000F2
:1000900095C6000093C6000091C600008FC6000000
:1000A0008DC600008BC6000089C6000087C6000010
:1000B00085C6000083C6000081C600007FC6000020
:1000C0007DC600007BC6000079C6000077C6000030
:1000D00075C6000073C6000071C600006FC6000040
:1000E0006DC600006BC6000069C6000067C6000050
:1000F00065C6000063C6000061C600005FC6000060
:100100005DC600005BC600000C9475110C94E311F1
:1001100055C6000053C6000051C600004FC600007F
:100120004DC600004BC6000049C6000047C600008F
:1001300045C6000043C6000041C600003FC600009F
:100140003DC600003BC6000039C6000037C60000AF
:1001500035C6000033C6000031C600002FC60000BF
:100160000C94840C2BC6000029C6000027C6000092
:1001700025C6000023C6000021C600001FC60000DF
:100180001DC600001BC6000019C6000017C60000EF
:1001900015C6000013C6000011C600000FC60000FF
:1001A0000DC600000BC6000009C6000007C600000F
:1001B00005C6000003C6000001C60000FFC5000020
:1001C000FDC50000FBC50000F9C50000F7C5000033
:1001D000F5C50000F3C50000F1C50000EFC5000043
:1001E000EDC50000EBC50000E9C50000E7C5000053
:1001F000E5C50000E3C50000E1C500006C4A664AA1
:10020000694A5D4A634A574A604A5A4AE84ACF4AAD
:10021000D74A984AC94A8D4AC54A944A3E4B4B4BE5
:10022000494B474B454B414B434BC64CC84CC64CC6
:10023000CF4CC64CCF4CC64CC64CCF4CC64CCF4C0A
:10024000C64C0000000000002050705020002070BC
:10025000507020000050707020000020707020004E
:10026000207070207000202070207000000020009E
:100270000000F0F0D0F0F0F0007050700000F0805E
:10028000A080F0F00030106060002050207020004E
:10029000203020206000203050102000207050704E
:1002A00020004060706040001030703010002070FE
:1002B0002070200050505000500070D0D05050009E
:1002C000306050306000000000007000207020702E
:1002D000207020702020200020202070200000208E
:1002E000F02000000040F0400000000040700000DE
:1002F00000507050000000207070000000707020EE
:1003000000000000000000002020200020005050CD
:1003100000000000507050705000203060306020AD
:10032000401020401000205030507000604000000D
:10033000000020404040200040202020400050206D
:10034000702050000020702000000000000060407D
:10035000000070000000000000002000101020408D
:10036000400020505050200020602020700060107D
:1003700020407000601020106000105070101000BD
:1003800070406010600020406050200070103020ED
:10039000200020502050200020503010200000006D
:1003A00020002000000020006040102040201000AD
:1003B00000007000700040201020400060102000FD
:1003C000200070505040700020507050500060501D
:1003D000605060003040404030006050505060003D
:1003E00070406040700070406040400030405050AD
:1003F00030005050705050007020202070001010BD
:10040000105020005050605050004040404070005C
:10041000507070505000605050505000705050500C
:1004200070006050604040002050507030006050BC
:10043000605050003040701060007020202020007C
:10044000505050507000505050502000505070701C
:10045000500050502050500050502020200070106C
:10046000204070006040404060004040201010007C
:1004700060202020600020500000000000000000EC
:1004800000F060200000000000003050700040408C
:1004900060506000000030403000101030503000DC
:1004A00000007060300010207020200000007050AC
:1004B000107040406050500020002020200020009C
:1004C000202020604040506050002020202020004C
:1004D000000070705000000060505000000020507C
:1004E00020000000605060400000305030100000DC
:1004F000604040000000302060000020702030008C
:10050000000050507000000050502000000050705B
:1005100070000000502050000000505020400000AB
:10052000602030003020602030002020202020007B
:1005300060203020600050A00000000000205070BB
:1005400000003040407020405000505030001020DB
:1005500070603000205030507000500030507000FB
:10056000402030507000200030507000007040700B
:1005700020602050706030005000706030004020DB
:10058000706030005000202020002050002020000B
:10059000402000202000502050705000202050703B
:1005A00050001020706070000000307060003060FB
:1005B000706070002050205020005000205020001B
:1005C000402020502000205000507000402050500B
:1005D00070005000505020405020505020005000DB
:1005E000505070002070407020001020702070006B
:1005F000507020702000006060505000302030208B
:1006000060001020305070001020002020001020CA
:10061000705070001020005070007000705050003A
:10062000700050705000305070007000205020005A
:10063000700020002040300000704040000000E0CA
:10064000202000004050205030004050207010000A
:100650002000202020000050A050000000A050A04A
:10066000000040104010401050A050A050A0B0E03A
:10067000B0E0B0E02020202020202020E02020201A
:1006800020E020E020205050D05050500000F0508A
:10069000505000E020E0202050D010D0505050505A
:1006A0005050505000F010D0505050D010F000007A
:1006B0005050F000000020E020E000000000E020AA
:1006C00020202020300000002020F000000000004A
:1006D000F02020202020302020200000F00000000A
:1006E0002020F0202020203020302020505050505A
:1006F000505050504070000000704050505050D04A
:1007000000F0000000F000D05050505040505050C9
:1007100000F000F0000050D000D0505020F000F069
:1007200000005050F000000000F000F02020000019
:10073000F050505050507000000020302030000029
:100740000030203020200000705050505050D050C9
:10075000505020F000F020202020E0000000000099
:1007600030202020F0F0F0F0F0F0000000F0F0F089
:10077000C0C0C0C0C0C0303030303030F0F0F00009
:1007800000000000706070002050605060407050A9
:100790004040400070505050500070402040700069
:1007A00000003050200000005050704000106020C9
:1007B0002000702050207000205070502000002039
:1007C0005050500030402050200000007050700009
:1007D0002070507020003040704030002050505049
:1007E00050007000700070002070200070006010D9
:1007F0006000700030403000700000102020202089
:100800002020202040002000700020000050A05038
:10081000A0002050200000000020702000000000F8
:1008200020000000302020602000705050000000A8
:1008300060204060000000006060000000000000D8
:10084000000000000000003E5B4F5B3E3E6B4F6BC4
:100850003E1C3E7C3E1C183C7E3C181C577D571CA1
:100860001C5E7F5E1C00183C1800FFE7C3E7FF001A
:1008700018241800FFE7DBE7FF30483A060E262968
:10088000792926407F050507407F05253F5A3CE72B
:100890003C5A7F3E1C1C08081C1C3E7F14227F22F1
:1008A000145F5F005F5F06097F017F006689956ABC
:1008B000606060606094A2FFA29408047E04081047
:1008C000207E201008082A1C08081C2A08081E1070
:1008D0001010100C1E0C1E0C30383E3830060E3E28
:1008E0000E06000000000000005F00000007000787
:1008F00000147F147F14242A7F2A122313086462B1
:1009000036495620500008070300001C2241000011
:1009100041221C002A1C7F1C2A08083E080800806F
:100920007030000808080808000060600020100807
:1009300004023E5149453E00427F40007249494908
:10094000462141494D331814127F1027454545393A
:100950003C4A49493101017109073649494936463E
:100960004949291E0000140000004034000000081E
:1009700014224114141414140041221408020159C1
:1009800009063E415D594E7C1211127C7F4949494E
:10099000363E414141227F4141413E7F49494941E3
:1009A0007F090909013E414151737F0808087F0012
:1009B000417F41002040413F017F081422417F4098
:1009C0004040407F021C027F7F0408107F3E41416F
:1009D000413E7F090909063E4151215E7F091929DF
:1009E00046264949493203017F01033F4040403FC9
:1009F0001F2040201F3F4038403F6314081463030A
:100A0000047804036159494D43007F414141020488
:100A1000081020004141417F04020102044040408F
:100A20004040000307080020545478407F28444485
:100A3000383844444428384444287F38545454189F
:100A400000087E090218A4A49C787F08040478009A
:100A5000447D40002040403D007F1028440000417C
:100A60007F40007C047804787C080404783844448F
:100A70004438FC1824241818242418FC7C08040486
:100A800008485454542404043F44243C4040207CEF
:100A90001C2040201C3C4030403C44281028444C42
:100AA0009090907C4464544C44000836410000000F
:100AB000770000004136080002010204023C2623B0
:100AC000263C1EA1A161123A4040207A3854545568
:100AD0005921555579412154547841215554784034
:100AE00020545579400C1E527212395555555939BA
:100AF0005454545939555454580000457C4100020F
:100B0000457D420001457C40F0292429F0F028254C
:100B100028F07C545545002054547C547C0A097FAD
:100B20004932494949323248484832324A484830C5
:100B30003A4141217A3A42402078009DA0A07D3977
:100B4000444444393D4040403D3C24FF2424487EF9
:100B50004943662B2FFC2F2BFF0929F620C0887EE6
:100B6000090320545479410000447D413048484AEB
:100B700032384040227A007A0A0A727D0D19317D9E
:100B80002629292F28262929292630484D40203872
:100B90000808080808080808382F10C8ACBA2F1031
:100BA0002834FA00007B000008142A142222142A98
:100BB0001408AA005500AAAA55AA55AA000000FFC9
:100BC00000101010FF00141414FF001010FF00FF9D
:100BD0001010F010F0141414FC001414F700FF00AF
:100BE00000FF00FF1414F404FC141417101F10105D
:100BF0001F101F1414141F00101010F0000000002C
:100C00001F101010101F10101010F010000000FF27
:100C1000101010101010101010FF10000000FF1422
:100C20000000FF00FF00001F10170000FC04F41478
:100C3000141710171414F404F40000FF00F7141430
:100C40001414141414F700F7141414171410101FAC
:100C5000101F141414F4141010F010F000001F10E2
:100C60001F0000001F14000000FC140000F010F032
:100C70001010FF10FF141414FF141010101F0000A8
:100C80000000F010FFFFFFFFFFF0F0F0F0F0FFFFBB
:100C9000FF0000000000FFFF0F0F0F0F0F3844444C
:100CA00038447C2A2A3E147E02020606027E027E18
:100CB0000263554941633844443C04407E201E2071
:100CC00006027E020299A5E7A5991C2A492A1C4C16
:100CD0007201724C304A4D4D303048784830BC6219
:100CE0005A463D3E494949007E0101017E2A2A2A91
:100CF0002A2A44445F444440514A444040444A51B3
:100D0000400000FF0103E080FF000008086B6B0853
:100D10003612362436060F090F0600001818000098
:100D2000001010003040FF0101001F01011E0019DA
:100D30001D1712003C3C3C3C000000000018183C11
:100D400042A5186364696E6F70737578585B000014
:100D5000EEE7FCE2E370FF27E258F34D2FEF3FE2AE
:100D60002C7FE217F30758F48EED9DEAAEEBBFEE51
:100D700081939193A193B193E217F307C8F31124E0
:100D80001FBECFEFCDBFDFE2DEBF19E2A0E0B0E2D1
:100D9000E4E6FDEA00E00BBF02C007900D92A23826
:100DA000B107D9F72CE2A2E8B9E201C01D92AE3733
:100DB000B207E1F70E949F1E0C94B05621C9E0E7EC
:100DC000F0E081818D7F8183E0E0F2E086E384873B
:100DD00083E0858781E080A311A2118296E094834D
:100DE00090E192831382868312A280830895E0E0CB
:100DF000F2E080818E7F8083E0E7F0E08181826095
:100E000081830895E0E0F6E082E08183868308959F
:100E1000E0E0F6E082E0818385830895CF93DF935D
:100E2000F1DF2AE0C0E0D0E031E08091200280686C
:100E3000809320028091230280FFFCCF3093230215
:100E40008091240290912502C80FD91F215069F783
:100E5000DFDFCE016AE070E00E94974ECB01DF91A8
:100E6000CF910895CF92DF92EF92FF92A8DFD6DF65
:100E7000BC0180E090E00E94E14D23E333E343EDC9
:100E800050E40E94794D6B017C01B1DF20E030E03D
:100E900046E154E4C701B6010E946F4E18160CF4E7
:100EA00078C020E030EC4FE054E4C701B6010E9466
:100EB0006F4E18160CF46FC020E030E849E054E49F
:100EC000C701B6010E946F4E18160CF466C020E0F0
:100ED00030E443E054E4C701B6010E946F4E181697
:100EE0000CF45DC020E030E04AEF53E4C701B601E6
:100EF0000E946F4E18160CF454C020E030E84DEEFE
:100F000053E4C701B6010E946F4E18160CF44BC093
:100F100020E030E041EE53E4C701B6010E946F4E7D
:100F200018160CF442C020E030E844ED53E4C70149
:100F3000B6010E946F4E1816D4F120E030E84FEC55
:100F400053E4C701B6010E946F4E181694F120E0D9
:100F500030E048EC53E4C701B6010E946F4E18160A
:100F600054F120E030E84BEB53E4C701B6010E9496
:100F70006F4E181614F48AE01FC020E030E04FEAEC
:100F800053E4C701B6010E946F4E1816A4F380E027
:100F900013C083E611C08FE50FC08AE50DC080E560
:100FA0000BC086E409C08CE307C082E305C088E279
:100FB00003C08EE101C084E1FF90EF90DF90CF90FD
:100FC000089580E180935500809150008061809366
:100FD00050008091510084FFFCCF88ED84BF809148
:100FE0004000887F8460809340000895E0E6F6E04A
:100FF00082E0818385830895E0E6F6E082E08183E4
:1010000086830895909172009B7F9093720088234D
:1010100089F08CE080932106809120038C6080937E
:101020002003809122038860809322038091210312
:1010300080640FC084E08093210680912003846047
:101040008093200380912203886080932203809103
:1010500021038093210387E0809329038BE1809310
:1010600028038CE080932A0383E180932B038091F3
:101070002003816080932003B9CF8CE0E0E2F6E0AA
:101080008283E0E2F3E080818E7F8083B5DFE0E75A
:10109000F0E082818460828308951F920F920FB6E0
:1010A0000F9211248F938091110185FF08C08091C8
:1010B00011018062809311011092D22B08C080919F
:1010C000110180618093110181E08093D22B81E036
:1010D0008093D32B8F910F900FBE0F901F90189578
:1010E0008091CF0187FDFCCF0895FADF8091CF0179
:1010F00081FF11C086E38093CA01EF93FF930F93A2
:101100002F93EBECF1E008ED21E004BF20832F9159
:101110000F91FF91EF910895CF93DF9300D01F922D
:10112000CDB7DEB74B836A838983DFDFE0ECF1E084
:1011300093E39287898120E2829FC00111246A8112
:101140006F71862B8083918312824B81448385E368
:101150008287EF93FF930F932F93EBECF1E008ED71
:1011600021E004BF20832F910F91FF91EF912396EF
:10117000CDBFDEBFDF91CF9108959F92AF92BF9216
:10118000CF92DF92EF92FF920F931F93CF93DF9353
:10119000CDB7DEB7CD5AD109CDBFDEBFA6DF809176
:1011A000CC01877F8093CC018DEAE1ECFAE29E01CD
:1011B0002F5F3F4F6901D90101900D928A95E1F7A8
:1011C0007901912C5701AC18BD0800E010E0F7013F
:1011D000E00FF11F4081602F892D9EDF98012A0DBD
:1011E0003B1D2D3A310528F40F5F1F4F00321105CA
:1011F00071F730E2E30EF11C939486E09812E2CF8F
:1012000081E0C355DF4FCDBFDEBFDF91CF911F918E
:101210000F91FF90EF90DF90CF90BF90AF909F9095
:1012200008958F929F92AF92BF92CF92DF92EF92EA
:10123000FF920F931F93CF93DF938C0177FD04C030
:10124000CB01BA01E8010EC06A017B01662777274E
:10125000CB016C197D098E099F09E80121962DE2C9
:10126000F80120836E012AE0822E912CA12CB12C52
:101270007601FFEFEF1AFF0AA50194010E94BE4E0E
:10128000605DF6016083B901CA01611571058105D0
:10129000910511F06701ECCFD701AC1BBD0BCD015F
:1012A0000197AC0FBD1FFE019F012C1B3D0B2817A2
:1012B000390734F420813E9131932C930197F4CF78
:1012C000C701801B910BDF91CF911F910F91FF9070
:1012D000EF90DF90CF90BF90AF909F908F90089548
:1012E000CF93DF93EB0129E020936D2C0E94681EC1
:1012F00080E090E08C179D0744F4EFE3FFE1319725
:10130000F1F700C000000196F5CFDF91CF9108956D
:10131000E0E6F6E080E3818385832FEF83EC99E0BC
:10132000215080409040E1F700C000000895E0E6C1
:10133000F6E080E281838683089560ED77E082EEB7
:1013400090E2CEDF80916D2C8130D9F410927F2A0B
:1013500064E670E089EE90E2C3DF80916D2C81300D
:1013600081F464E670E086EF90E2BADF80916D2C44
:10137000813039F464E670E082E091E2B1DF80917F
:101380006D2C0895EF92FF920F931F93CF93DF93ED
:10139000CDB7DEB7C456D109CDBFDEBF7C018B010E
:1013A00064E271E2CE0101960E946E50B701CE0157
:1013B00001960E9458506FE371E2CE0101960E949F
:1013C0005850B801CE0101960E94585061E471E274
:1013D000CE0101960E94585064E670E0CE0101965D
:1013E0007FDF8EE291E020916D2C213091F02FEF84
:1013F00033EC49E0215030404040E1F700C00000AC
:101400000197009741F020916D2C2111ECCF80E0E5
:1014100003C081E001C083E0CC59DF4FCDBFDEBF08
:10142000DF91CF911F910F91FF90EF9008958F92D0
:101430009F92BF92CF92DF92EF92FF920F931F93F2
:10144000CF93DF93CDB7DEB7C456D109CDBFDEBF92
:101450004C017B016A01B22E6FE271E28E010F5FD7
:101460001F4FC8010E946E50B401C8010E9458501D
:1014700063E471E2C8010E94585064E670E0C8015C
:101480002FDF80916D2C813009F09FC0F701019012
:101490000020E9F7EE19FF097896AF0160E070E0EF
:1014A000812C912CC401BDDE68E471E2C8010E9468
:1014B0006E50B401C8010E94585064E571E2C80141
:1014C0000E94585064E670E0C8010ADF66E571E2E8
:1014D000C8010E946E50F80101900020E9F7319791
:1014E000E01BF10BE436F10510F080E06EC0B701AF
:1014F000C8010E9458506BE571E2C8010E94585023
:1015000064E670E0C801ECDE00E010E080916D2C34
:10151000813029F164E670E082EF93E2E1DE0F5F53
:101520001F4F0E3221E0120711F483E04EC080916C
:101530006D2C8111EBCF13C08FEF93ECA9E081509C
:101540009040A040E1F700C000000D32B1E01B0761
:1015500060F70F5F1F4F80916D2C882321F08091E1
:101560006D2C863049F780917E2A882309F4BDCFFF
:101570006DE770E082E899E20E9484508C01015886
:1015800019424B2D50E04017510708F4AECF60E0F0
:1015900070E0C6010E945150A80162E879E2C601DC
:1015A0000E9475508AEFE2E8F9E2DF011D928A9508
:1015B000E9F710927E2A10927C2A10927D2A62E32B
:1015C00070E087E691E28CDE81E0CC59DF4FCDBF41
:1015D000DEBFDF91CF911F910F91FF90EF90DF90D1
:1015E000CF90BF909F908F900895CF93DF93C82F97
:1015F000D62F60ED77E082EE90E272DE80916D2C66
:10160000813009F05EC010927F2A64E670E089EEB6
:1016100090E266DE80916D2C813009F052C0CC23BF
:1016200041F064E670E0D1110CC082E091E258DE36
:101630001DC0DD2309F444C064E670E083E791E255
:1016400002C08FE791E24CDE64E670E089EC91E243
:1016500047DE80916D2C8130A1F564E670E08BE867
:1016600091E23EDE80916D2C813059F580916D2C98
:10167000813039F5CC2329F062E37BE28BE49BE2F5
:1016800081DE64E670E082EA91E22ADE80916D2CD0
:101690008130B9F460E088E39CE20E94A32264E612
:1016A00070E08BEA91E21CDE80916D2C813049F470
:1016B00064E670E087EB91E213DE80916D2C01C04F
:1016C00080E0DF91CF910895AF92BF92CF92DF92E9
:1016D000EF92FF920F931F93CF93DF93CDB7DEB7B7
:1016E0006E97CDBFDEBF80916D2C873009F05AC058
:1016F000109106204AE851E060E070E0CE014A9681
:1017000090DD113319F46AEE71E20CC0123319F452
:1017100068EF71E207C0133319F466E072E202C0A9
:1017200064E172E2CE0101960E946E50BE01665ED7
:101730007F4FCE0101960E94585064E670E0CE01C2
:101740000196CEDD83E390E0209182292E3369F06B
:101750000197009751F02FEF33EC49E021503040D2
:101760004040E1F700C00000EFCF82E292E29F9399
:101770008F938DEA93E29F938F930E94A9508FEFEE
:1017800093ECA9E081509040A040E1F700C0000038
:1017900064E670E083EF93E2A3DD0F900F900F906B
:1017A0000F9002C0883011F081E0A0C00FE110E07E
:1017B0000150110901151105B9F3BFEFE3ECF9E090
:1017C000B150E040F040E1F700C000006FEF73E27D
:1017D00082E899E20E948F50892B51F389E1EBE472
:1017E000FBE2DF01282F1D922A95E9F7E2E3FBE2F5
:1017F000DF011D928A95E9F7E2E8F9E2DF010D9039
:101800000020E9F7FD0131979F0122583942690113
:1018100000E010E0A12C34E1B32ECE0101967C0152
:101820000C151D0508F03FC0F801EE57F64D8081FC
:101830008D33B1F5A394D701EB2D1D92EA95E9F70D
:10184000F7010F5F1F4FD801AE57B64D8C9186320E
:1018500021F4F1E0AF1213C005C00C151D05C9F34A
:101860008193EFCFF70101900020E9F73197EE194E
:10187000FF097997A8F4B7018BE49BE20FC022E03F
:10188000A2120EC0F70101900020E9F73197EE197E
:10189000FF09799728F4B70182E39BE20E946E501A
:1018A0000F5F1F4FBDCF43DD3FEF47EA81E6315069
:1018B00040408040E1F700C000002ADD3EDD80931B
:1018C0006D2C813021F060E08BE094E20CC062E38B
:1018D0007BE28BE49BE256DD80936D2C813099F79F
:1018E00060E08DE194E20E94A32283E06E96CDBF7A
:1018F000DEBFDF91CF911F910F91FF90EF90DF90AE
:10190000CF90BF90AF9008951F920F920FB60F9295
:1019100011240BB60F922F933F934F935F936F93C6
:101920007F938F939F93AF93BF93EF93FF934091D8
:10193000A0094A3009F084C06DE274E282E899E2BD
:101940000E948F50892B41F460E374E282E899E2AF
:101950000E948F50892B11F081E014C066E374E27D
:1019600082E899E20E948F50892B19F010926D2C19
:101970004FC06CE374E282E899E20E948F50892B99
:1019800021F084E080936D2C43C064E474E282E82B
:1019900099E20E948F50892B11F086E0F3CF6BE41F
:1019A00074E282E899E20E948F50892B31F0809195
:1019B00087298093062087E0E5CF6FE474E282E810
:1019C00099E20E948F50892B11F088E0DBCF64E50B
:1019D00074E282E899E20E948F50892B71F062E2F2
:1019E00070E082E899E20E94635043E150E0BC015C
:1019F00088E39CE20E9475500BC068E574E282E8BF
:101A000099E20E948F50892B19F081E080937F2A00
:101A10006BE770E082E899E20E946350892B21F025
:101A200081E080937E2A26C010927C2A10927D2A23
:101A30008AEFE2E8F9E2DF011D928A95E9F71AC020
:101A400080917C2A90917D2A9C012F5F3F4F2093AB
:101A50007C2A30937D2AFC01EE57F64D408380911D
:101A60007C2A90917D2A8A3F910521F410927C2A4C
:101A700010927D2AFF91EF91BF91AF919F918F912D
:101A80007F916F915F914F913F912F910F900BBE7E
:101A90000F900FBE0F901F901895FC0123E0F69554
:101AA000E7952A95E1F7E35BF34D8770992721E0ED
:101AB00030E001C0220F8A95EAF78081822B808373
:101AC0000895FC0133E0F695E7953A95E1F7E35B7D
:101AD000F34D8770992721E030E001C0220F8A95ED
:101AE000EAF720958081282320830895EDE4FCE225
:101AF00011928CE2ED36F807D9F70C94D21FEDE481
:101B0000FCE211928CE2ED36F807D9F7089528E04F
:101B10002093810674E041E050E0E8E06623C1F0E4
:101B2000709386062FEF260FDA0102C0AA0FBB1FA3
:101B30002A95E2F79D0128233923232B19F0E093FE
:101B4000850602C0E0938606709385066150E6CF55
:101B500088E0809386060895CF93DF9381E0809399
:101B6000860663E085E090E0D2DF67E080E090E009
:101B7000CEDFCEE4DCE2FE013197808190E0982F49
:101B80008827288160E1822BC2DF22968CE2CE3644
:101B9000D80789F781E080938506DF91CF9108957A
:101BA0001F93CF93DF9390E09460C0E8D6E011E0FC
:101BB0001E836CE0880F991FAADF1D83DF91CF91F0
:101BC0001F910895CF93C82FE0E8F6E08DE0818360
:101BD00085E0858381E0E4DF83E0E2DF88E0E0DF29
:101BE00084E1DEDF88E1DCDF8C2FDADF81EACF9170
:101BF000D7CF87FD80E080310CF08FE0806AD0CFB6
:101C00000E94D21F2FEF89EF90E02150804090403A
:101C1000E1F700C00000EFE4FCE280E08E3029F440
:101C200090914E2C90935B2C0BC08E3129F49091A7
:101C30005E2C90936B2C04C09081DF0112979C93D3
:101C40008E5F3296803251F7E0E5FCE281E08F3022
:101C500019F410925C2C09C08F3119F410926C2C7D
:101C600004C09081DF0112979C938E5F329681327F
:101C700071F708950E94D21F2FEF89EF90E0215055
:101C800080409040E1F700C00000ECE6FCE28FE10C
:101C9000DF011297813029F490915B2C90934E2CA8
:101CA00009C0813129F490916B2C90935E2C02C075
:101CB0009C9190838250FD018F3F51F7EBE6FCE24F
:101CC0008EE1DF011297811103C010924D2C07C0E5
:101CD000803119F410925D2C02C09C919083825047
:101CE000FD018E3F71F70895ADE4BCE2EDE5FCE245
:101CF0008C9190E0982F88272081822B880F991F44
:101D00009D9381932CE2EC36F20791F70E94D21F4B
:101D10008FEF99EF20E0815090402040E1F700C024
:101D200000000895ADE4BCE2EDE5FCE28C9190E0AA
:101D3000982F88272081822B969587959D93819354
:101D40002CE2EC36F20791F70E94D21F8FEF99EF49
:101D500020E0815090402040E1F700C0000008954D
:101D6000EF92FF920F931F93CF93DF93CDB7DEB720
:101D7000A097CDBFDEBF80E2DE011196FD01982F56
:101D800011929A95E9F7EDE4FCE2982F01900D92FB
:101D90009A95E1F7EDE4FCE2DF011D928A95E9F7FF
:101DA0008E01005E1F4F7E01B0E1EB0EF11CF801C9
:101DB0007097808180934D2CF801808180935D2CF9
:101DC00059DF025011090E151F0589F78E01015EBA
:101DD0001F4F6EE1F62EF8017097808180934D2C95
:101DE000D8018C9180935D2CB0E1FB1203C00E945E
:101DF000D21F01C03FDFFA94FA9402501109EEE0BD
:101E0000FE12E9CFA096CDBFDEBFDF91CF911F912B
:101E10000F91FF90EF900895EF92FF920F931F9311
:101E2000CF93DF93CDB7DEB7A097CDBFDEBF80E203
:101E3000DE011196FD01982F11929A95E9F7EDE4D4
:101E4000FCE2982F01900D929A95E1F7EDE4FCE207
:101E5000DF011D928A95E9F78E010F5E1F4F7E010B
:101E6000B1E2EB0EF11CF8017097808180935C2C3D
:101E7000F801808180936C2CC3DE0E5F1F4F0E151E
:101E80001F0589F78E010E5E1F4FFF24F394F801A2
:101E90007097808180935C2CD8018C9180936C2CFE
:101EA000BFE0FB1203C00E94D21F01C0A9DEF39461
:101EB000F3940E5F1F4FE1E1FE12E9CFA096CDBF74
:101EC000DEBFDF91CF911F910F91FF90EF900895AA
:101ED0004F925F927F928F929F92AF92BF92CF92DA
:101EE000DF92EF92FF920F931F93CF93DF93CDB7C3
:101EF000DEB7A097CDBFDEBF80E2DE011196FD0107
:101F0000982F11929A95E9F7EDE4FCE2982F019051
:101F10000D929A95E1F7EDE4FCE2DF011D928A95BE
:101F2000E9F700E010E070E8E72EF12CEFE0AE2ECC
:101F3000B12CF7E0CF2ED12CA701002E02C0559571
:101F400047950A94E2F7980128503109D70102C059
:101F5000B595A7952A95E2F79D01EDE5FCE2CE0146
:101F600041962C01702EB501601B710B4601801A41
:101F7000910AB7E0B71570F0C2014097DC018C916F
:101F800090E084239523082C02C0959587950A94A8
:101F9000E2F70BC0D2018C9190E082239323062EAE
:101FA00002C0959587950A94E2F79081982B9083CB
:101FB0003196BFEF4B1A5B0A8CE2EC36F807C9F694
:101FC0009FE0791611F090DE02C00E94D21F0F5FD1
:101FD0001F4F0031110509F0AFCFA096CDBFDEBF76
:101FE000DF91CF911F910F91FF90EF90DF90CF90F5
:101FF000BF90AF909F908F907F905F904F9008958B
:102000006F927F928F929F92AF92BF92CF92DF9208
:10201000EF92FF920F931F93CF93DF93CDB7DEB76D
:10202000A097CDBFDEBF80E2DE011196FD01982FA3
:1020300011929A95E9F7EDE4FCE2982F01900D9248
:102040009A95E1F7EDE4FCE2DF011D928A95E9F74C
:102050000FE010E0AFE0AA2EB12CEE24E394F12CB7
:1020600087E0C82ED12CA501401B510BD70102C01F
:10207000AA0FBB1F4A95E2F7AD01902E9601201BD7
:10208000310BF70102C0EE0FFF1F2A95E2F79F0107
:10209000EDE4FCE2CE0141963C01802EB80168508F
:1020A0007109B7E0B8155CF4D3018C9190E08423FA
:1020B0009523062E01C0880F0A94EAF70CC0C301CD
:1020C0004097DC018C9190E082239323092C01C07E
:1020D000880F0A94EAF79081982B90833196BFEF8E
:1020E0006B1A7B0A8CE2EC35F807D9F6882011F0E0
:1020F00019DE02C00E94D21F0150110908F0B3CFAF
:10210000A096CDBFDEBFDF91CF911F910F91FF90C1
:10211000EF90DF90CF90BF90AF909F908F907F9087
:102120006F900895EF92FF920F931F93CF93DF93D9
:102130008B01EC017C01E60EF71ECE15DF05C1F028
:102140005FDDFE01899186958695869580935C2C4E
:1021500080818295880F807E80936C2C2FEF80E7A2
:1021600092E0215080409040E1F700C00000E5CFB0
:102170000C33110538F01695079516950795C0E0B4
:10218000D0E010C0CEE1D0E03BDD2FEF80E792E061
:10219000215080409040E1F700C000002197209737
:1021A00099F70EC02DDD2FEF80E792E0215080409F
:1021B0009040E1F700C000002196C017D10791F7C9
:1021C000DF91CF911F910F91FF90EF900895909123
:1021D0000206906E90930206909122069160909371
:1021E0002206882339F1809115068A6180931506AD
:1021F000809116068A6180931606809117068A617F
:1022000080931706809130068A6180933006809112
:102210000A06806E80930A0680912A068160809368
:102220002A06809109068360809309068091290619
:10223000836026C0809115068D7F8093150680915E
:1022400016068D7F80931606809117068D7F8093EA
:102250001706809130068D7F8093300680910A06A4
:102260008F7180930A0680912A068E7F80932A06BA
:10227000809109068C7F80930906809129068C7FC6
:10228000809329060895E0E0F6E0828184608283ED
:1022900082898260828B83858460838781858C605C
:1022A00081870895E0E0F6E082818B7F82838289D6
:1022B0008D7F828B83858B7F83878185837F8187D9
:1022C00008958091080685FB882780F991E0892789
:1022D0009091080696FF82609091080697FF83E030
:1022E0009091280690FF846008951F920F920FB678
:1022F0000F9211240BB60F922F933F934F935F933E
:102300006F937F938F939F93AF93BF93EF93FF93BD
:10231000D8DF80934B2C80914B2C1F928F938CE5B0
:1023200094E29F938F930E94A9500F900F900F906B
:102330000F90FF91EF91BF91AF919F918F917F91FE
:102340006F915F914F913F912F910F900BBE0F9026
:102350000FBE0F901F9018951F920F920FB60F92FD
:1023600011240BB60F922F933F934F935F936F936C
:102370007F938F939F93AF93BF93EF93FF93A1DFCF
:1023800080934B2C80914B2C1F928F938CE594E281
:102390009F938F930E94A9500F900F900F900F90D2
:1023A000FF91EF91BF91AF919F918F917F916F912D
:1023B0005F914F913F912F910F900BBE0F900FBEE9
:1023C0000F901F9018951F920F920FB60F92112425
:1023D0000BB60F92EF920F931F932F933F934F9350
:1023E0005F936F937F938F939F93AF93BF93EF937D
:1023F000FF93CF93DF9300D0CDB7DEB7EE24E39405
:102400008E010F5F1F4F21E242E350E06AE580E852
:1024100094E00E94AF1D898180934C2C8EE694E25B
:102420000E94BA500F900F90DF91CF91FF91EF91E2
:10243000BF91AF919F918F917F916F915F914F91DC
:102440003F912F911F910F91EF900F900BBE0F9026
:102450000FBE0F901F901895E0E7F0E080818B6130
:10246000808383818760838384818760848385817F
:10247000856085838381886783838481886384837F
:102480008581806585838181836081838281846089
:1024900082830895809170008F7B8093700088ED17
:1024A00084BF8BE0809343008091010480FDFCCFCA
:1024B00080E897E080930A0490930B0482E0809375
:1024C0000204109208041092090410920C04109255
:1024D0000D0487E08093000408951092072008956A
:1024E0006F927F928F929F92AF92BF92CF92DF9224
:1024F000EF92FF920F931F93CF93DF9300D0CDB74E
:10250000DEB7782E662E70E080E090E08E010F5FDF
:102510001F4F78012AE0822E912CA12CB12C67014B
:102520002FEFC21AD20AA50194010E94BE4E605D2F
:10253000F7016083B901CA01611571058105910533
:1025400011F07601ECCFC01AD10AC6010197D8016B
:10255000AC0DBD1DF8019F01201B310B2817390759
:1025600034F420813E9131932C930197F4CFF9E01C
:10257000F61520F0898190E399838A8300E0711039
:1025800004C028E040E160E003C029E040E167E0EA
:1025900080E00E94CF20E72CF12C01E021E030E028
:1025A0004981B70182E090E00E94D22121E030E031
:1025B0004A81B70189E090E00E94D2210F900F90EC
:1025C000DF91CF911F910F91FF90EF90DF90CF900F
:1025D000BF90AF909F908F907F906F9008951092D2
:1025E000642B6091E12A80E07BDF6091E22A89E040
:1025F00077DF81E08093072008951F920F920FB636
:102600000F9211240BB60F922F933F934F935F932A
:102610006F937F938F939F93AF93BF93CF93EF93DA
:10262000FF938091C32A9091C42AA091C52AB091AA
:10263000C62A0196A11DB11D8093C32A9093C42A76
:10264000A093C52AB093C62A6091E12A6F5F609378
:10265000E12A6C3308F467C01092E12A80910720C8
:10266000882329F060E080E03BDF0E94D21F609168
:10267000E22A6F5F6093E22A683108F449C08091D2
:10268000E42A91E0980F9093E42A873068F081E083
:102690008093E42A9091E52A21E0290F2093E52AEE
:1026A000953310F08093E52AC091E32A81E08C0FE6
:1026B0008093E32A6091E72A7091E82A8091E62AC4
:1026C0000E94BB4CC817E0F081E08093E32A909110
:1026D000E62A21E0290F2093E62A9C3088F0809397
:1026E000E62A4091E72A5091E82A4F5F5F4F4093D6
:1026F000E72A5093E82A61E00E94D34C8093E52AB0
:102700001092E22A80910720882351F060E004C0F3
:1027100080910720882321F089E0E2DE0E94D21F09
:102720001092E12A08C080910720882321F080E0E0
:10273000D7DE0E94D21FFF91EF91CF91BF91AF9151
:102740009F918F917F916F915F914F913F912F91C9
:102750000F900BBE0F900FBE0F901F901895FF9219
:102760000F931F93CF93DF938C01F62E60E218D660
:10277000EC0197FD21C060E3C80112D681309105BC
:1027800019F097FFF8CF20C0FF2031F060E2C801B8
:1027900007D68C179D0791F44F2D68E1C801E2D54B
:1027A000009791F4FF2071F060E2C801F9D58C1711
:1027B0009D0741F4D7FFF8CFCE0106C097FD04C0B6
:1027C000EC01D9CF80E090E0DF91CF911F910F9184
:1027D000FF900895CF92DF92EF920F931F93CF93C4
:1027E000DF9300D0CDB7DEB76C018091802A909145
:1027F000812AF6018283938382E0E82E8E010F5FA7
:102800001F4F26E242E350E06AE580E894E00E9430
:10281000AF1D8A8190E0982F88272981822BF601AD
:102820008287938728E242E350E06AE580E894E0FB
:102830000E94AF1D8A8190E0982F88272981822BE2
:10284000F601848795872AE242E350E06AE580E852
:1028500094E00E94AF1D8A8190E0982F88272981FB
:10286000822BF6018687978724E242E350E06AE5EF
:1028700080E894E00E94AF1D8A8190E0982F88271D
:102880002981822BF6018087918722E242E350E082
:102890006AE580E894E00E94AF1D8A8190E0982F5D
:1028A00088272981822BF6018683978380E00F9009
:1028B0000F90DF91CF911F910F91EF90DF90CF900C
:1028C000089560E04CCF6DE04ACF6FE048CFCF92E3
:1028D000DF92EF92FF920F931F93CF93DF9300D07D
:1028E000CDB7DEB78C01D62EC42E60E3C80158D513
:1028F0008130910519F097FFF8CF1DC060E2C80143
:102900004FD57C01C9826D2D6F7160566A839E011F
:102910002F5F3F4F42E067E1C8015FD5009759F450
:1029200060E2C8013DD58E159F05D1F31816190632
:1029300014F480E090E00F900F90DF91CF911F9101
:102940000F91FF90EF90DF90CF900895CF93DF939A
:10295000EC0160E2CE0124D5892B19F0CE01B1DF64
:10296000F8CF6BE0CE01FBDE60E2CE0119D5892BFA
:10297000D9F360E2CE0114D5019759F780E090E0D9
:10298000DF91CF9108950F931F93CF93DF938C0125
:1029900040E068E0E7D4EC01C801D8DFC80FD91FD8
:1029A00040E068E0C801DED4C80FD91F40E064E011
:1029B000C801D8D4C80FD91F40E065E0C801D2D4FF
:1029C000C80FD91F40E066E0C801CCD4C80FD91F9A
:1029D00040E063E0C801C6D4C80FD91F4FEF61E2E1
:1029E000C801C0D4C80FD91F41E068E1C801BAD4FA
:1029F000C80FD91F03D547E167E0C801B3D48C0FD6
:102A00009D1FDF91CF911F910F9108950F931F93F9
:102A1000CF93DF938C0140E068E0A4D4EC0140E068
:102A20006AE0C8019FD4C80FD91F40E069E0C8011F
:102A300099D4C80FD91FC801A6DFC80FD91F42E01B
:102A40006FE0C8018FD4C80FD91F41E061E0C80111
:102A50003EDFC80FD91F43E063E0C80183D4C80F2D
:102A6000D91F44E064E0C8017DD4C80FD91F40E3FA
:102A700065E0C80177D4C80FD91F43E067E0C801FB
:102A800026DFC80FD91F43E06EE0C80120DFC80F62
:102A9000D91F40E06BE0C8011ADFC80FD91F41E021
:102AA00062E0C80114DFC80FD91F40E76AE0C8011F
:102AB0000EDFC80FD91F44E06CE0C80108DFC80F63
:102AC000D91F48E161E1C8014DD4C80FD91F41E0C9
:102AD00062E1C80147D4C80FD91F4FED68E0C801B3
:102AE00041D4C80FD91F48E06AE0C8013BD4C80FE1
:102AF000D91FC801E8DE8C0F9D1FDF91CF911F9178
:102B00000F9108958AE590E03EDF2FEF81EE94E08B
:102B1000215080409040E1F700C000008AE590E03D
:102B200075DFB1CB0F931F93CF93DF938C0140E000
:102B300068E018D4EC0140E06AE0C80113D4C80F83
:102B4000D91F40E069E0C8010DD4C80FD91FC801E2
:102B50001ADFC80FD91F4FEF6FE0C80103D4C80FA9
:102B6000D91F40E060E1C801FDD3C80FD91F47E776
:102B700061E0C801ACDEC80FD91F41E063E0C801C5
:102B8000F1D3C80FD91F4DE164E0C801EBD3C80FE2
:102B9000D91F40E065E0C801E5D3C80FD91F40E068
:102BA00066E0C801DFD3C80FD91F43E067E0C80162
:102BB0008EDEC80FD91F43E068E0C80188DEC80F69
:102BC000D91F43E069E0C80182DEC80FD91F43E086
:102BD0006EE0C8017CDEC80FD91F40E06BE0C80181
:102BE00076DEC80FD91F40E06EE1C80170DEC80F65
:102BF000D91F40E061E1C8016ADEC80FD91F41E278
:102C000062E0C80164DEC80FD91F44E063E0C80178
:102C10005EDEC80FD91F40E76AE0C80158DEC80F62
:102C2000D91F40E76DE1C80152DEC80FD91F40E748
:102C300060E1C8014CDEC80FD91F44E06CE0C80158
:102C400046DEC80FD91F40E26FE1C80140DEC80F61
:102C5000D91F40E262E1C8013ADEC80FD91F44E93A
:102C600068E0C8017FD3C80FD91F48E06AE0C801F7
:102C700079D3C80FD91F48E069E0C80173D3C80FE2
:102C8000D91FC80122DE8C0F9D1FDF91CF911F91AC
:102C90000F910895E0E7F0E083818D7F8383E0E486
:102CA000F8E081E0808390E896A39CE097A3868378
:102CB0008AE590E068DE2FEF81EE94E021508040BD
:102CC0009040E1F700C000008AE590E02BCFEF9242
:102CD000FF920F931F93CF93DF93EC01DBDF80E82C
:102CE0008093082060E081EA94E20E94A32276ECBF
:102CF000E72E74E2F72E01E025E04AE06AE08AE080
:102D00000E9442202AE04AE06AE085E00E944220D8
:102D10002AE045E065E085E00E94422025E04AE0A7
:102D200065E085E00E9442200E94D21FCE0152DD64
:102D30008B858F938A858F93FF92EF920E94A95083
:102D40008A859B850F900F900F900F90813426E01D
:102D5000920788F68093302B9093312B8FEF97EA70
:102D600021E6815090402040E1F700C0000001E8DA
:102D700010E0015011090115110569F08091802AB8
:102D80009091812A8A839B83CE0124DDBE018AE54E
:102D900090E0C8D1EECFDF91CF911F910F91FF90BE
:102DA000EF9008951F920F920FB60F9211248F93F8
:102DB0009F938091802A9091812A01968093802A06
:102DC0009093812A9F918F910F900FBE0F901F902B
:102DD00018958F929F92AF92BF92CF92DF92EF920F
:102DE000FF924091912A5091922A6091932A70917A
:102DF000942AFC01C084D184452B462B472B61F4D7
:102E0000C601A0E0B0E08093912A9093922AA0930B
:102E1000932AB093942A06C0F1E8CF16FBEBDF06A5
:102E200008F047C0E12CF12C2091912A3091922A90
:102E30004091932A5091942ADA01C901B695A79539
:102E4000979587954C015D01820E931EA41EB51EB9
:102E5000C814D904EA04FB0420F549015A01881A70
:102E6000990AAA0ABB0A8C149D04AE04BF04C8F4D4
:102E7000A3E0B0E00E94F54E6C0D7D1D8E1D9F1DE0
:102E800022E096958795779567952A95D1F7609377
:102E9000912A7093922A8093932A9093942A81E0A6
:102EA00009C0C092912AD092922AE092932AF0927D
:102EB000942A80E0FF90EF90DF90CF90BF90AF908A
:102EC0009F908F9008950F931F93CF93DF93EB0103
:102ED000FA018130F1F100F1823009F056C00E851F
:102EE0001F85A28188859985980140E050E0280FD0
:102EF000391F411D511D325041095109B0E00E9456
:102F0000F54E20E137E240E050E00E94BE4E200F37
:102F1000311F2E873F8739C00A851B85A081888590
:102F20009985980140E050E0280F391F411D511D3F
:102F3000325041095109B0E00E94F54E20E137E2DC
:102F400040E050E00E94BE4E200F311F2A873B8791
:102F50001CC00C851D85A18188859985980140E05C
:102F600050E0280F391F411D511D325041095109B0
:102F7000B0E00E94F54E20E137E240E050E00E94D0
:102F8000BE4E200F311F2C873D87DF91CF911F91BF
:102F90000F910895CF92DF92EF92FF920F931F93BC
:102FA000CF93DF93813049F028F0823049F4625F9B
:102FB0007F4F25C0665F7F4F22C0645F7F4F1FC079
:102FC00010928B2A10928C2A10928D2A10928E2A9F
:102FD00010928F2A1092902A1092852A1092862A97
:102FE0001092872A1092882A1092892A10928A2A8F
:102FF0001092822A1092832A1092842A8AC0C82EA4
:10300000D12CF601EE0FFF1FEF01C557D54D88817A
:103010009981DB016D917C91892B71F4CF018B56E5
:10302000954DDC018D919C916817790718F46883A0
:10303000798302C088839983EF01CB56D54D88816F
:1030400099816817790708F04DC0EF01C557D54D34
:103050000990D881C02D27E02C9FC0012D9F900D95
:1030600011248B0120E030E0080F191F211D311DB4
:10307000A3E03695279517950795AA95D1F7C8012E
:10308000B6E096958795BA95E1F77C01E00EF11EC2
:10309000EC16FD0610F1D801A81BB90BCA17DB0707
:1030A000E0F0EF01CB57D54DE880F980D601AE575F
:1030B000B54DE114F10471F0E616F70658F08C9165
:1030C0008F5F8C93813448F081E0E81AF108E88240
:1030D000F98202C0688379831C92DF01A557B54D40
:1030E0000D931C93DF01AB57B54D8D919C91DF0182
:1030F000A259B34D009729F0480F591F4D935C9387
:1031000008C0E557F54D80819181840F951F8D93FF
:103110009C93DF91CF911F910F91FF90EF90DF90E3
:10312000CF900895EF92FF920F931F93CF93DF9369
:103130007C01EB018091952A9091962A892BA1F42C
:103140008091972A9091982A892B71F48091992ADD
:1031500090919A2A892B41F480911020803821F493
:103160008DED94E20E94BA5080911020882309F4DA
:103170008AC0823048F18A859B852091952A3091BA
:10318000962A2817390720F48093952A9093962A37
:103190008C859D852091972A3091982A2817390788
:1031A00020F48093972A9093982A8E859F8520916A
:1031B000992A30919A2A2817390708F05EC080931F
:1031C000992A90939A2A59C080919A2A8F93809134
:1031D000992A8F938091982A8F938091972A8F9321
:1031E0008091962A8F938091952A8F9388E295E219
:1031F0009F938F930E94A95060910E2070910F2091
:10320000660F771F4091952A5091962A460F571FB7
:103210004093952A5093962A2091972A3091982A84
:10322000260F371F2093972A3093982A8091992A46
:1032300090919A2A860F971F8093992A90939A2AA1
:1032400040936E2C50936F2C2093702C3093712CE4
:103250008093722C9093732C4093682B5093692B1E
:1032600020936A2B30936B2B80936C2B90936D2B58
:103270008DB79EB708968DBF9EBF8091102081505C
:103280008093102067C08A859B8581389B4B50F4C2
:103290008C859D8581389B4B28F48E859F85813850
:1032A0009B4B50F08BE695E2DF91CF911F910F91F0
:1032B000FF90EF900C94BA50CE018BDD882309F477
:1032C00049C00A851B8588859985980140E050E0B2
:1032D000280F391F411D511D325041095109A0913C
:1032E0000920B0E00E94F54E20E137E240E050E0D6
:1032F0000E94BE4E200F311F2A873B8749E050E2D3
:10330000BE0181E0E0DD49E050E2BE0182E0DBDDAC
:1033100040910E2050910F20BE0180E03BDE409195
:103320000E2050910F20BE0181E034DE40910E202E
:1033300050910F20BE0182E02DDE40910C20509173
:103340000D20BE01C701DF91CF911F910F91FF901A
:10335000EF904DC1DF91CF911F910F91FF90EF90B2
:1033600008950895EF920F931F93CF93DF931F92C9
:10337000CDB7DEB7262F4983EE24E3948E010F5F8D
:103380001F4F48EE53E06AE580E894E039D480E0CE
:1033900090E00F90DF91CF911F910F91EF900895E2
:1033A000EF920F931F93CF93DF931F92CDB7DEB7AA
:1033B000262FEE24E3948E010F5F1F4F48EE53E05B
:1033C0006AE580E894E0CBD3898190E00F90DF91AB
:1033D000CF911F910F91EF900895EF920F931F934C
:1033E0008901E42E262F48EE53E06AE580E894E058
:1033F00007D490E01F910F91EF9008952FEF89EF80
:1034000090E0215080409040E1F700C00000089516
:10341000FF920F931F93CF93DF93CDB7DEB7C25ABE
:10342000D109CDBFDEBF42E1E5E2F0E2DE01AF56F9
:10343000BF4F01900D924A95E1F742E1E7E3F0E2D8
:10344000DE01A158BF4F01900D924A95E1F742E18C
:10345000E9E4F0E2DE01A359BF4F01900D924A95D5
:10346000E1F742E1EBE5F0E2DE01A55ABF4F019042
:103470000D924A95E1F742E1EDE6F0E2DE01A75B4D
:10348000BF4F01900D924A95E1F742E1EFE7F0E27C
:10349000DE01D79601900D924A95E1F742E1EBE506
:1034A000F0E2DE01959601900D924A95E1F742E136
:1034B000EDE6F0E2DE01539601900D924A95E1F7B8
:1034C00042E1EFE7F0E2DE01119601900D924A959C
:1034D000E1F7613019F5FE01E359FF4F40E050E09C
:1034E000F42E619171916817790790F4440F551F7C
:1034F000EFE7F0E0EC0FFD1FE40FF51F20813181B5
:10350000DC010E94E64E8B019C01E1E9F0E023C062
:103510004F5F5F4F4930510519F751C0623041F597
:10352000FE01F79640E050E0F42E6191719168172A
:103530007907C0F4440F551FE9E4F0E0EC0FFD1FDC
:10354000E40FF51F20813181DC010E94E64E8B01E2
:103550009C01EBE5F0E0EC0FFD1FE40FF51F80810F
:10356000918124C04F5F5F4F49305105E9F627C074
:10357000633089F5FE01319640E050E0F42E619110
:10358000719168177907B0F4FA01EE0FFF1F21E07F
:1035900030E02C0F3D1FE20FF31F22893389DC013D
:1035A0000E94E64E8B019C0184A195A18C01021B17
:1035B000130B07C04F5F5F4F49305105F9F689E0A3
:1035C000F82E0B3F110518F489E0F81202C00AEF3B
:1035D00010E0C80102C08FEF9FEFCE55DF4FCDBF87
:1035E000DEBFDF91CF911F910F91FF9008952F9231
:1035F0003F924F925F927F928F929F92AF92BF9233
:10360000CF92DF92EF92FF920F931F93CF93DF93AE
:10361000CDB7DEB7AE97CDBFDEBF7B015A01DB0170
:1036200012968D919C9113976AE070E00E94974EDC
:103630008B0184E1E1E9F0E2DE01119601900D9247
:103640008A95E1F78AE0E5EAF0E2DE01559601901D
:103650000D928A95E1F788E0EFEAF0E2DE019796B5
:1036600001900D928A95E1F788E0E7EBF0E2DE0148
:103670005F9601900D928A95E1F7F7018285938517
:1036800020916E2C30916F2C821B930B97FF02C000
:1036900080E090E061E09C01A29EC001A39E900D9D
:1036A000B29E900D1124B4DE4C01D7011C968D9171
:1036B0009C911D972091702C3091712C821B930B43
:1036C00097FF02C080E090E061E0FC01EA9DC0014C
:1036D000EB9D900DFA9D900D11249ADE5C019401F2
:1036E000D4010E94E64E1B012C01F8EE2F0EF0E8EB
:1036F0003F1E411C511C9501D5010E94E64E261A21
:10370000370A480A590A57FC03C0A201910103C0B5
:1037100020E030E0A901CA01B9012CE330E040E02B
:1037200050E00E94BE4E2E3464E0360710F02DE4C7
:1037300034E08091112091EF8916910420F4A1EFDB
:10374000AA16B104B0F1882311F0E0E01EC0609128
:10375000AF2A7091B02A6093AD2A7093AE2AE0919F
:10376000AB2AF091AC2AC8018E1B9F0BC397823104
:10377000914058F7F5E47F2E7E0E701AC090A92A6A
:10378000D090AA2AC61AD70AE1E081E080931120DE
:103790008091AD2A9091AE2A8732924018F02DE4A4
:1037A00034E002C020E030E00093A72A1093A82A5A
:1037B00011C0813041F42093A92A3093AA2A0093A2
:1037C000AB2A1093AC2A109211202093AF2A309389
:1037D000B02AE0E05901C90169E470E00E94974E07
:1037E0004FE050E0461B570BD70157FF03C05396DD
:1037F0001C9202C053964C93E13009F063C0B7E9C4
:10380000CB16D10454F11092A62A20E0822F90E02A
:10381000FC01E256F54DA7E2B0E0AC0FBD1FA80FCA
:10382000B91F8C91808381E0820F883010F4282F9B
:10383000EDCF8093A62ADF92CF921F927F9288E8E5
:1038400095E29F938F9383E995E29F938F930E94D4
:10385000A95082E0F701828B32C03AE6C3163FEFEF
:10386000D3069CF51092A62A20E0822F90E0FC015E
:10387000E256F54DAFE1B0E0AC0FBD1FA80FB91F88
:103880008C91808381E0820F883010F4282FEDCF57
:103890008093A62AD194C194D108DF92CF921F922F
:1038A0007F928BEB95E29F938F9383E995E29F93B1
:1038B0008F930E94A95081E0D70152968C93CDBF7F
:1038C000DEBF03C0D70152961C92FE01319620E064
:1038D00081919191A816B90618F02F5F2A30C1F78F
:1038E00080919D2A281304C0293011F0211104C0B1
:1038F0000093A72A1093A82A20939D2AE091A62A34
:10390000EE23E1F080919B2AB02FB81BB73208F468
:1039100064C000939B2A10939C2AE150E093A62A4E
:10392000E770F0E0E256F54D608170E081E090E0F4
:1039300018DD0093A72A1093A82A4FC08091A72AC8
:103940009091A82AF801E81BF90BCF018A38924020
:1039500008F443C000939B2A10939C2A1092A62A35
:10396000E0E06FEF30E0CE014596820F931FAE2F5F
:10397000B0E0A256B54D6C93A1E0AE0FB0E0A256F8
:10398000B54D6C93DC015C91A2E0AE0FB0E0A256A5
:10399000B54D5C9344E04E0FED5FF0E0E256F54D1F
:1039A0005083483010F4E42FE2CF80E18093A62AC0
:1039B0002F931F9287EC95E29F938F938DEC95E266
:1039C0009F938F930E94A95083E0F701828B0F9001
:1039D0000F900F900F900F900F90AE96CDBFDEBF5F
:1039E000DF91CF911F910F91FF90EF90DF90CF90DB
:1039F000BF90AF909F908F907F905F904F903F903F
:103A00002F900895E0E7F0E08381877F8383E0E4EF
:103A1000F6E080EB818380E4828380E1858380ED22
:103A20008093C00808951092C008E0E4F6E080EBAF
:103A3000828388E1848B858B868B878BE0E7F0E03F
:103A400083818860838308958093C30880E090E039
:103A50002091C20827FD05C001970097C9F780E0B3
:103A600008958091C3080895E0E7F0E083818F7B9B
:103A70008383E0E8F4E0128289E0858388E0818333
:103A800081E084830895FC01668324E6249FC001BD
:103A9000259F900D11240097B9F02481322F38749E
:103AA000383411F466830AC0322F3075303521F472
:103AB00087E0838384E00895207C61F42AE62A95D8
:103AC000F1F700C00197E7CF848185FF05C087E04B
:103AD000838302C081E0089583E00895FC01478359
:103AE00024E6269FC001279F900D1124248126FDE6
:103AF00008C0009731F02AE62A95F1F700C0019737
:103B0000F5CF848186FF06C084818295817091E023
:103B10008927089580E00895FC0184818C708C30A1
:103B2000E1F034E6369FC001379F900D11243481B7
:103B300037FD08C0009731F03AE63A95F1F700C03A
:103B40000197F5CF8781DA018C93222311F087E06A
:103B500001C082E0838381E0089580E008958F9220
:103B60009F92AF92BF92CF92DF92EF92FF920F930C
:103B70001F93CF93DF931F92CDB7DEB74C01F62E84
:103B80006A01660F29837FDF2981813041F5422F49
:103B9000B601C401A3DF882321F16F2D660F616098
:103BA000A601C40170DF813021F087E0F401838336
:103BB00016C0FF24FA94FE0C8FEFF816B1F35801EB
:103BC000FFEFAF1ABF0A21E0F11020E0A801B60113
:103BD000C401A2DFFA94882341F38501EDCF8E2D35
:103BE00001C086E00F90DF91CF911F910F91FF9060
:103BF000EF90DF90CF90BF90AF909F908F900895FF
:103C00008F929F92AF92BF92CF92DF92EF920F93DB
:103C10001F93CF93DF931F92CDB7DEB74C015A01AC
:103C2000660F298330DF29818130E1F4422FB5010D
:103C3000C40154DF8823C1F068011FEF1E0D1F3F30
:103C400061F0F60141916F01B501C40147DF9FEFBB
:103C5000910F882311F0192FF2CF87E0F4018383AD
:103C6000812F03C08E2D01C086E00F90DF91CF9190
:103C70001F910F91EF90DF90CF90BF90AF909F90EA
:103C80008F900895E0E7F0E084818F7E8483E0E602
:103C9000F6E088E0818384E08283E0EAF9E080E274
:103CA00083838EE2868388E9878383E0858388E146
:103CB000848308959091A10995FFFCCF8093A0097A
:103CC00008958091A10987FFFCCF8091A0090895F4
:103CD000CF93DF93EC018991882311F0EBDFFBCFC9
:103CE0008DE0E8DF8AE0DF91CF91E4CF1F920F9261
:103CF0000FB60F9211248F939F938091B12A9091C8
:103D0000B22A019759F48FEF9FE080933803909384
:103D100039031092B12A1092B22A0AC010923803C5
:103D20001092390381E090E08093B12A9093B22AF7
:103D30009F918F910F900FBE0F901F901895CF936A
:103D4000DF93CDB7DEB76497CDBFDEBF0E942C12E4
:103D50000E94E10711D10E94970965DE0E94864505
:103D600091DF82E190E28093782C9093792C80937C
:103D70007A2C90937B2C81EF95E20E94BA5087E0D9
:103D80008093A20081E00E94E71080E894E06CDE5E
:103D9000809148008660809348007894CE01019617
:103DA0000E9467160E94821580E0FED00E94EF12EA
:103DB000F9D00E944A120E94BD08FF24F394EE2419
:103DC000E39480914C2C843009F04FC01092642B06
:103DD00080E00E94E7100E9452118FE0E5D084E15C
:103DE00096E20E94BA500E944A162FEF83ED90E3AC
:103DF000215080409040E1F700C0000000E010E05A
:103E0000CE0101960E94EA13BE016F5F7F4F8AE5E3
:103E100090E088D9CE0101960E94FC4A8B859C8552
:103E20008034964020F080E090E08C01E9CFC8011A
:103E3000019609351B41C8F30E94BD0881E396E253
:103E40000E94BA508091642B882321F048D50E94AB
:103E5000EF1227D580912F2BA7D081E00E94E71089
:103E60000E9443110E9482152BC080914C2C8230FD
:103E700029F487E596E20E94BA5022C080914B2C2B
:103E8000853049F42CD5CE0101960E9467160E9418
:103E9000EF1207D515C080914B2C843089F4FF2098
:103EA00011F019D501C073D08FEF97EA21E6815048
:103EB00090402040E1F700C0000010924B2CFE24FF
:103EC00010924C2C80914800816080934800889526
:103ED00078CF8F929F92AF92BF92EF92FF920F9303
:103EE0001F93CF93DF9397FD03C0C0E0D0E00BC0DA
:103EF00090958095709561957F4F8F4F9F4F2DE2E4
:103F000020B9C1E0D0E07E012AE0822E912CA12CC4
:103F1000B12C87010F5F1F4FA50194010E94BE4E77
:103F2000605DF7016083B901CA0161157105810502
:103F3000910511F07801EDCFD801AC1BBD0BCD017F
:103F40000197AC0FBD1FFE019F012C1B3D0B2817D5
:103F5000390734F420813E9131932C930197F4CFAB
:103F6000C801DF91CF911F910F91FF90EF90BF900B
:103F7000AF909F908F90089584E20E94E20D8FE0B1
:103F80000E94F90D0E94760D83E00C94D00D83E021
:103F90000E94D00D0E94EF120C9400100C94760D2C
:103FA0000C947F0D0C94AC0DCF93DF93D82FC09160
:103FB0002320C817A0F48C2F0E94F90D2FEF86E75D
:103FC00091E0215080409040E1F700C00000CF5FB9
:103FD000CD13F1CFD0932320DF91CF9108958C178B
:103FE000C8F78C2F0E94F90D2FEF86E791E0215042
:103FF00080409040E1F700C00000C150CD13F1CFE8
:10400000E9CF81E0D1DF8FE0CFDF81E0CDDF8FE04E
:10401000CBCF9C0180319105A4F5603171058CF501
:104020008FE090E0861B970B68E170E00E94AB4E3A
:104030008830910534F08031910534F467E870E000
:1040400005C067E070E002C067E071E08770992703
:10405000681B790B283031051CF4220F331F04C074
:10406000220F331F2F503109C90133E0880F991FE8
:104070003A95E1F7860F971F41110C944D0D0C9462
:10408000610D08957F928F929F92AF92BF92CF92CF
:10409000DF92EF92FF920F931F93CF93DF93182F2E
:1040A000962E842EA22FBB27A7FDB095A61BB10983
:1040B00067FDB395B7FF03C0B195A195B109E82D90
:1040C000FF27E7FDF095E11BF10917FDF395F7FFD9
:1040D00003C0F195E195F109AA24A394B12CEA1744
:1040E000FB0714F0A12CB12CA114B10431F0882DE0
:1040F000822E282F812F192D982E811634F4892D88
:10410000922E282F812F182D882EC82CDD24C7FC35
:10411000D094C11AD10817FDD394C22FDD27C7FD53
:10412000D095C919D10997FCD395D7FF03C0D19574
:10413000C195D1097601F694E79492161CF4772480
:10414000739419C077247A9416C0892D992787FD16
:104150009095212F332727FD3095402FA114B104CE
:1041600069F0B90156DFEC1AFD0AF7FE03C0970C9F
:10417000EC0CFD1C1F5F811644F703C0BC01C90194
:10418000F1CFDF91CF911F910F91FF90EF90DF90D2
:10419000CF90BF90AF909F908F907F900895AF92F7
:1041A000BF92CF92DF92EF92FF920F931F93CF9324
:1041B000DF93A62E182FC42FD0E0C80FD11DE22EFA
:1041C000F12CE60EF11CC12ED12CCC16DD066CF4C0
:1041D000BA2C6B2D70E06E157F052CF4402FC601B4
:1041E00018DFB394F6CF1F5FEECFDF91CF911F9111
:1041F0000F91FF90EF90DF90CF90BF90AF90089518
:104200000F9301E021E041E0609122208091212084
:10421000C6DF9091222080912120973020F08930B4
:1042200051F491500DC0963041F4873030F08150F8
:104230008093212017C0993030F4863099F49F5F25
:10424000909322200FC0993069F4893058F48F5F21
:1042500080932120893031F48091202091E08927BA
:104260008093202000E021E041E0609122208091B5
:10427000212095DF0F910C94AC0D2F923F924F921D
:104280005F926F927F928F929F92AF92BF92CF92E6
:10429000DF92EF92FF920F931F93CF93DF9300D0A3
:1042A00000D0CDB7DEB76A01302FF12C44244394FF
:1042B000512CA62EB12C282E312CF316B1F18F2DB6
:1042C0008770320102C0660C771C8A95E2F71B8268
:1042D0001C828F2D8695869586954601829F800C3F
:1042E000911C112485010F0D111D9B819217D8F48B
:1042F000EB81FC81E80DF91DE491F0E0E621F72166
:10430000EF2B59F04E2DB8018B819C81820D931DAE
:1043100029833A837EDE3A8129818B819C810196B3
:104320008B839C83E2CFF394C8CF2496CDBFDEBFAE
:10433000DF91CF911F910F91FF90EF90DF90CF9081
:10434000BF90AF909F908F907F906F905F904F90B5
:104350003F902F90089525E0629FB0011124480FEF
:10436000591F80E090E06E5B774FFB01E80FF91F6B
:10437000E491E2952E2F2373A4E02A9F900111244B
:10438000EC7CE695E695E22B2E2F2575220FEA7A36
:10439000E695E22BDA01ED93AD01019685309105AA
:1043A00021F708952F923F924F925F926F927F92E2
:1043B0008F929F92AF92BF92CF92DF92EF92FF9235
:1043C0000F931F93CF93DF93CDB7DEB72597CDBF64
:1043D000DEBF8983322E102F9C015C0185E0A80E80
:1043E000B11CE62F97E0099FE00D1124EA832C838E
:1043F0003D83512C52E4E52E58E0F52EE21AF30AE3
:10440000F5E04F9FE00CF11C11244B0186E0880E73
:10441000911C3B0191E0691A7108EC81FD81EE0D60
:10442000FF1D4490E981E50DEB836401212C40FEE2
:1044300011C0113041F48C819D8197FD0BC0432D3B
:10444000B601E7DD07C0032D212F412F6A81620DE0
:104450008B81A5DE469491E0C91AD108211AC614B1
:10446000D70429F7EC81FD813196EC83FD83510E51
:10447000EA15FB0591F62596CDBFDEBFDF91CF9102
:104480001F910F91FF90EF90DF90CF90BF90AF9072
:104490009F908F907F906F905F904F903F902F9064
:1044A0000895AF92BF92CF92DF92EF92FF920F9357
:1044B0001F93CF93DF93CDB7DEB72597CDBFDEBF78
:1044C00026E0629FB00111248E010F5F1F4F20E094
:1044D00030E06E5B7D4F0396480F591FE5E0EE2EEE
:1044E000F12CFB01E20FF31F849182958F70F8018C
:1044F00081938F01FA01B82E80E090E06701C21A23
:10450000D30AAB2DA1700C2C01C0AA0F0A94EAF7B4
:10451000A290AA2AA082B69401968330910589F7C9
:104520002F5F3F4F25303105E1F62596CDBFDEBF29
:10453000DF91CF911F910F91FF90EF90DF90CF907F
:10454000BF90AF9008959F92AF92BF92CF92DF92AB
:10455000EF92FF920F931F93CF93DF938C01962ED0
:10456000662371F0FC0101900020E9F73197E81B08
:10457000F90B86E08E9FE0018F9FD00D11240BC0B8
:10458000EC0109900020E9F72197C81BD90BCC0F4B
:10459000DD1FCC0FDD1F61E070E0CE010E94FF4EF9
:1045A0007C01A12CB12CC12CD12CF80161918F017F
:1045B000662379F0A701992019F0C601CCDE02C06C
:1045C000C5016FDF86E0C80ED11CE4E0AE0EB11C61
:1045D000ECCFBE01C7010E949210C701DF91CF91BD
:1045E0001F910F91FF90EF90DF90CF90BF90AF9011
:1045F0009F900C94B14F2F923F924F925F926F9287
:104600007F928F929F92AF92BF92CF92DF92EF9262
:10461000FF920F931F93CF93DF93CDB7DEB7289709
:10462000CDBFDEBF5B012983102F26E0429F6001D2
:104630001124E82F37E0039FE00D1124EA83212C99
:104640001F82188696012E5B3D4F6901FC0137964B
:10465000EC83FD832C01F1E04F1A51083B0123E06C
:10466000620E711CEF81F885EC0DFD1D5491322D09
:104670003A0D3B83EC80FD80312C43018F8198857E
:10468000881A990A50FF16C0113059F492E0E916C1
:10469000F10484F04981B401C70102975E83B9DC5B
:1046A00008C00981212F412F6B818A81830D5E8390
:1046B00076DD5E815695E1E0EE1AF108311AE414D8
:1046C000F50401F72F8138852F5F3F4F2F833887FF
:1046D000211A2630310531F62896CDBFDEBFDF9195
:1046E000CF911F910F91FF90EF90DF90CF90BF90EF
:1046F000AF909F908F907F906F905F904F903F9082
:104700002F9008950F93CF93DF93EC0101E021E008
:1047100030E0488167E070E081E090E06CDF21E00C
:1047200030E0498167E070E085E090E064DF21E0FF
:1047300030E04A8167E070E089E090E05CDF21E0F2
:1047400030E04B8167E070E08DE090E054DFDF9176
:10475000CF910F9108950F93CF93DF93EC0101E078
:1047600021E030E0488167E070E083E090E043DFE3
:1047700021E030E0498167E070E087E090E03BDFD6
:1047800021E030E04A8167E070E08BE090E033DFC9
:10479000DF91CF910F9108958091B32A8130E9F193
:1047A000A8F1823009F448C0833009F065C080E286
:1047B00090E00E944D0D81E390E00E944D0D82E457
:1047C00090E00E944D0D82E590E00E944D0D83E641
:1047D00090E00E944D0D83E790E00E944D0D8BE02C
:1047E00090E00E944D0D8BE190E00E944D0D8AE219
:1047F00090E00E944D0D8AE390E00E944D0D89E407
:1048000090E00E944D0D88E590E034C081EF90E08B
:104810000E944D0D89E890E02DC083EE90E00E944B
:104820004D0D84EF90E00E944D0D8CE890E00E94C9
:104830004D0D8BE990E01EC085EC90E00E944D0D7F
:1048400086ED90E00E944D0D87EE90E00E944D0DA8
:1048500087EF90E00E944D0D8FE890E00E944D0D93
:104860008FE990E00E944D0D8EEA90E00E944D0D80
:104870008DEB90E00E944D0D0E94AC0D8091B32A0B
:104880008F5F8093B32A843009F086CF1092B32AC9
:104890000E94760D81CF0C94B00E0C940C0F0C94EA
:1048A000680F0C940010CF93CFE10E943A0EC150D4
:1048B000E1F7CF910895CF93CFE10E94000EC15050
:1048C000E1F7CF910895CF93CFE10E94740EC150CC
:1048D000E1F7CF910895F7DF82E00C94D00DCF93EC
:1048E000CFE10E94920EC150E1F7CF9108956091FF
:1048F000652B6B3320F46F5F6093652B04C081E000
:104900008093652B61E085E00E9470120C94AC0DE1
:104910006091652B662321F061506093652B04C084
:104920008AE38093652B6AE385E00E9470120C9401
:10493000AC0D6091662B673120F46F5F6093662B3E
:1049400004C081E08093662B61E085E00E947012D4
:104950000C94AC0D6091662B662321F0615060933E
:10496000662B04C086E18093662B66E185E00E9499
:1049700070120C94AC0D6091E22A673120F46F5FE5
:104980006093E22A03C01092E22A60E085E00E9470
:1049900070120C94AC0D6091E22A662321F06150F4
:1049A0006093E22A04C087E18093E22A67E185E010
:1049B0000E9470120C94AC0D6091E12A6B3320F4CC
:1049C0006F5F6093E12A03C01092E12A60E085E006
:1049D0000E9470120C94AC0D6091E12A662321F0C4
:1049E00061506093E12A04C08BE38093E12A6BE37A
:1049F00085E00E9470120C94AC0DCF93C091E32A15
:104A00006091E72A7091E82A8091E62A0E94BB4CC7
:104A1000C81730F46091E32A6F5F6093E32A04C003
:104A200081E08093E32A61E085E00E947012CF91DB
:104A30000C94AC0D6091E32A623020F061506093D9
:104A4000E32A0BC06091E72A7091E82A8091E62A58
:104A50000E94BB4C8093E32A682F85E00E9470126D
:104A60000C94AC0D8091E62A8C3010F48F5F01C05D
:104A700081E08093E62A0E945F4C6DDE0C94AC0DC1
:104A80008091E62A823010F0815001C08CE0809342
:104A9000E62A0E945F4C5FDE0C94AC0DE7EEFAE272
:104AA000608171816F5F7F4F6083718380E090E0F0
:104AB00010DA80E090E026DE0C94AC0DE7EEFAE22E
:104AC00060817181615071096083718380E090E041
:104AD00000DA80E090E016DE0C94AC0DCF93DF930B
:104AE000DB01FC019A012230310538F0CD91DD91D6
:104AF000C193D19322503109F6CFDA01AE7FFB0189
:104B0000EA0FFB1FA80FB91F417055274E0F5F1FFB
:104B1000E417F50719F081918D93FACFDF91CF91CA
:104B20000895480F591F8417950721F0FC016193E0
:104B3000CF01F9CF0895DC012D913C9111972115FA
:104B40003105B9F0F901AF0181918132A8F08A33C2
:104B5000D1F7F90181914E175F0759F490ED980F45
:104B6000923038F490E0C0972E5F3F4F2D933C93E6
:104B700008958FEF9FEF08958091B42A90E00895F3
:104B80000097C9F0DC01ED91FC911197309799F0F5
:104B90002081222381F02681378112968D919C916C
:104BA00013972817390739F481810E94193880FD3D
:104BB00002C080E0089589E008954F925F926F925D
:104BC0007F92AF92BF92CF92DF92EF92FF920F93BC
:104BD0001F93CF93DF93EC018C81882309F445C0A8
:104BE0004EA45FA468A879A86E0182E3C80ED11C08
:104BF00001E010E0A3019201B60189810E946B38A7
:104C0000811131C01C828AA19BA1ACA1BDA1B301BD
:104C1000A201481B590B6A0B7B0B8A8D9B8DAC8DB7
:104C2000BD8D481759076A077B07F8F4AB80B12C94
:104C3000E12CF12CC5018E199F090297B0F08A8DE5
:104C40009B8DAC8DBD8D480E591E6A1E7B1E01E0EA
:104C500010E0A3019201B60189810E946B388FEFA9
:104C6000E81AF80AE7CF81E001C080E0DF91CF9138
:104C70001F910F91FF90EF90DF90CF90BF90AF907A
:104C80007F906F905F904F900895EF92FF920F93F7
:104C90001F93CF93DF93EC0190DF982F811159C0C0
:104CA0008881833009F04BC08D81813009F047C085
:104CB00040E052E060E070E07E0182E3E80EF11C2B
:104CC000C7012FDF85E59AEAFE01E05DFD4F808395
:104CD000918382E592E5A1E6B1E48AAB9BABACABF4
:104CE000BDAB82E792E7A1E4B1E67A978083918336
:104CF000A283B3838E859F85A889B98934968083E2
:104D00009183A283B3838A859B85AC85BD853496C8
:104D100080839183A283B3832E8D3F8D48A159A1B7
:104D20002F5F3F4F4F4F5F4F2EA73FA748AB59AB69
:104D300001E010E0B70189810E946B381D8240E0DC
:104D400050E060E089810E94DF3891E0811101C06C
:104D500090E0892FDF91CF911F910F91FF90EF90FD
:104D60000895BF92CF92DF92EF92FF920F931F931D
:104D7000CF93DF93EC016A017B018EA59FA5A8A9C3
:104D8000B9A9481759076A077B07E1F0CE0115DF7B
:104D9000B82E811118C001E010E0A7019601BE01F4
:104DA0006E5C7F4F89810E942038882331F0BB24BC
:104DB000B394CC24CA94DC2C7601CEA6DFA6E8AA54
:104DC000F9AA01C0B12C8B2DDF91CF911F910F91CA
:104DD000FF90EF90DF90CF90BF9008950F931F93B7
:104DE000CF93DF93EC011C820FEF1FEF98010EA70A
:104DF0001FA728AB39ABB5DF811122C0FE01E05DF2
:104E0000FD4F8081918185359A4AE1F4E85CF1405B
:104E100040815181628173817727463451446445D2
:104E2000710591F0CC57DF4F488159816A817B81B0
:104E3000772781E0463451446445710531F404C05C
:104E400083E003C082E001C080E0DF91CF911F9139
:104E50000F9108952F923F924F925F926F927F929F
:104E60008F929F92AF92BF92CF92DF92EF92FF927A
:104E70000F931F93CF93DF93CDB7DEB76D97CDBF61
:104E8000DEBF6C01CB01B42ED6011D921C9253DE05
:104E90007C0197FD23C2FC01EE0FFF1FE954F54D85
:104EA000008111810115110509F41AC2F601008370
:104EB0001183D8018C91882361F011968C910E9406
:104EC000193880FD06C0BB2009F40CC282FD0EC259
:104ED00009C2F8011082E1828E2D0E94333780FDD5
:104EE00003C2BB2011F082FD01C240E050E0BA01D4
:104EF000C80174DF813009F03FC0FE01319620E027
:104F000030E0C801820F931FDC01AC50BE4F4C91C2
:104F1000442339F014968D919D910D90BC91A02D54
:104F200003C080E090E0DC0181939193A193B19361
:104F3000205F3F4F2034310521F76E01F1E1CF0EA4
:104F4000D11C9E012F5F3F4F7901D7014D905D909D
:104F50006D907D907D01411451046104710439F01C
:104F6000B301A201C8013ADF811102C00FC082E083
:104F7000EC14FD0451F703C0412C512C3201833055
:104F800009F4B6C1882311F08DE0B3C1F80185ADF5
:104F900096AD81159240C1F7F801E85BFF4FC080E4
:104FA000D180E12CF12CC114D104E104F10429F4E5
:104FB0003E96C080D180E280F380D8015A96CD928F
:104FC000DD92ED92FC925D97F801EE5BFF4FA081C0
:104FD000F801A3838FEF8A0F8230B0F6F7ADF98B1B
:104FE0002F2FF8012283222379F230E0C9010197A3
:104FF00082239323892B41F6F801ED5BFF4F20803C
:105000003180F80120863186C1018F709927892B64
:1050100009F0BACFEB5BFF4F80809180A12CB12CBF
:1050200081149104A104B10429F43D9680809180FB
:10503000A280B380F801E05CFF4F0190F081E02D89
:10504000309709F4A1CFB0E0A70196010E94F54E78
:105050006E8B7F8B888F998F9F0140E050E02A8F65
:105060003B8F4C8F5D8FC10164E0969587956A9563
:10507000E1F7280F391F411D511D8E899F89A88D89
:10508000B98D280F391F4A1F5B1F2A8B3B8B4C8B16
:105090005D8B82169306A406B50608F475CFC5018C
:1050A000B401621B730B840B950BE9892E2F30E042
:1050B00040E050E00E94BE4E2115310541055105EA
:1050C00009F462CF263FFFE03F074105510548F054
:1050D000263F8FEF38074105510530F492E0998B58
:1050E00005C0A1E0A98B02C0B3E0B98B49015A0108
:1050F000E2E08E0E911CA11CB11CD80156968D9237
:105100009D92AD92BC925997F801468E578E60A23F
:1051100071A28A8D9B8DAC8DBD8D840D951DA61DB4
:10512000B71D82A393A3A4A3B5A34A895B896C8905
:105130007D89440D551D661D771D42A753A764A7A1
:1051400075A7F989F330C9F4232809F01DCFF801B8
:10515000E25AFF4F80819181A281B381F80186A339
:1051600097A3A0A7B1A7C501B40152E0660F771FAE
:10517000881F991F5A95D1F72DC0232809F404CF11
:105180002E893F89488D598D820F931FA41FB51F0B
:10519000F80186A397A3A0A7B1A7F989F23039F443
:1051A000C501B401660F771F881F991F13C0A3E0C4
:1051B000B0E0A50194010E94F54E969587957795EC
:1051C000679521E082229924AA24BB24680D791DC9
:1051D0008A1D9B1DDC01CB0181509E4FAF4FBF4FFD
:1051E00029E0B695A795979587952A95D1F7C81682
:1051F000D906EA06FB0608F4C7CE8FEF9FEFDC0165
:10520000F80186879787A08BB18B82879387A487C5
:10521000B58780E88583F989F33009F048C0F80143
:10522000EE59FF4F80819181019709F040C0B30191
:10523000A2014F5F5F4F6F4F7F4FC80192DD811119
:1052400036C0D80115961C92F801E05DFD4F8081B3
:10525000918185359A4A59F5F80182A993A9A4A9A3
:10526000B5A982359245A146B14409F5F801EA5E37
:10527000FD4F80819181A281B38182379247A14401
:10528000B146A9F4349680819181A281B381F8015D
:1052900086879787A08BB18BE25EFD4F80819181DD
:1052A000A281B381F80182879387A487B587E989B2
:1052B000D801EC938091B52A9091B62A01968093FB
:1052C000B52A9093B62A16968D939C93179752966B
:1052D0001D921D921D921C92559704C08BE009C02F
:1052E0008CE007C080E005C083E003C08AE001C015
:1052F00081E06D96CDBFDEBFDF91CF911F910F9101
:10530000FF90EF90DF90CF90BF90AF909F908F90E5
:105310007F906F905F904F903F902F9008950F93E4
:105320001F93FC01425051096109710906891789CF
:10533000208D318D02501109210931094017510783
:105340006207730778F4A281B0E09A01AB010E9472
:10535000F54E02A513A524A535A5600F711F821F68
:10536000931F03C060E070E0CB011F910F9108957F
:10537000AF92BF92CF92DF92EF92FF920F931F9363
:10538000CF93DF93EC016A017B0142305105610547
:10539000710508F4A2C08E899F89A88DB98D481720
:1053A00059076A077B0708F098C08881823009F4A2
:1053B00049C0833009F468C0813009F08EC05A01B9
:1053C000B694A794A40EB51EC501892F992786957A
:1053D0004AA15BA16CA17DA1480F591F611D711DE0
:1053E000CE01BFDC882321F06FEF7FEFCB0179C0C6
:1053F00085010F5F1F4FF501F170EC0FFD1FB2A883
:10540000C801892F992786954AA15BA16CA17DA12E
:10541000480F591F611D711DCE01A3DC8111E4CF1E
:10542000F801F170EC0FFD1F82A96B2D70E0782B55
:10543000C0FE06C0C4E076956795CA95E1F721C025
:105440007F701FC0452F562F672F77278AA19BA1FA
:10545000ACA1BDA1480F591F6A1F7B1FCE0181DC83
:105460008111C2CFCC0CDD1CEE1CFF1CE894C0F8EF
:1054700081E0D822EE24FF24FE01EC0DFD1D62A97F
:1054800073A980E090E02DC0F7E076956795579579
:105490004795FA95D1F78AA19BA1ACA1BDA1480F70
:1054A000591F6A1F7B1FCE015CDC81119DCFE2E09A
:1054B000CC0CDD1CEE1CFF1CEA95D1F78CEFC8224A
:1054C00081E0D822EE24FF24FE01EC0DFD1D62A92F
:1054D00073A984A995A99F7004C061E070E080E081
:1054E00090E0DF91CF911F910F91FF90EF90DF90AF
:1054F000CF90BF90AF900895AF92BF92CF92DF92BE
:10550000EF92FF920F931F93CF93DF93EC018B01E8
:105510006C837D83CE80DF80E884F98481E0C816C7
:10552000D104E104F10411F482E080C0E881F98142
:1055300086899789A08DB18DC816D906EA06FB0623
:1055400098F7C114D104E104F104B9F480818330E7
:1055500041F486A197A1A0A5B1A50097A105B10529
:1055600051F48085918508171907F0F666A177A197
:1055700080A591A52FC06C017D01A28080E1A89E2D
:105580005001112488819981B701A6010A151B05D4
:1055900000F1EEDE6B017C018FEFC816D806E8063D
:1055A000F80609F442C082E0C816D104E104F1040F
:1055B00008F4BACFE881F98186899789A08DB18DE9
:1055C000C816D906EA06FB0608F0AECF0A191B0971
:1055D000D9CFA5DECA86DB86EC86FD86611571050E
:1055E0008105910509F4A0CF980154E036952795DF
:1055F0005A95E1F7DC01CB01820F931FA11DB11D6C
:105600008E879F87A88BB98B0F70112765E0000FDD
:10561000111F6A95E1F70E5C1F4F88819981800FF9
:10562000911F8A8B9B8B80E001C081E0DF91CF913D
:105630001F910F91FF90EF90DF90CF90BF90AF90B0
:1056400008954F925F926F927F928F929F92AF9246
:10565000BF92CF92DF92EF92FF920F931F93CF935F
:10566000DF93EC016A017B012801390142305105C9
:105670006105710508F4C5C08E899F89A88DB98D13
:10568000481759076A077B0708F0BBC0888182303A
:1056900009F45FC0833009F47DC0813009F0B1C0E6
:1056A0005A01B694A794A40EB51EC501892F992757
:1056B00086954AA15BA16CA17DA1480F591F611D70
:1056C000711DCE014EDB81119DC085010F5F1F4F03
:1056D000F501F170EC0FFD1F4601570181E08822B2
:1056E0009924AA24BB24C0FE08C022A92F7030E14F
:1056F000439EC0011124282B01C0242D22AB81E040
:105700008C834AA15BA16CA17DA1C801892F992737
:105710008695480F591F611D711DCE0122DB811135
:1057200071C0F801F170EC0FFD1F89288A288B28C1
:1057300049F0B4E07694679457944794BA95D1F7BA
:10574000942D05C092A9907F252D2F70922B92AB9E
:1057500055C0452F562F672F77278AA19BA1ACA153
:10576000BDA1480F591F6A1F7B1FCE01FADA8111B4
:1057700049C0CC0CDD1CEE1CFF1CE894C0F891E085
:10578000D922EE24FF24F601F296EC0FFD1F408291
:10579000518234C0E7E07695679557954795EA952D
:1057A000D1F78AA19BA1ACA1BDA1480F591F6A1FC7
:1057B0007B1FCE01D6DA811125C072E0CC0CDD1C36
:1057C000EE1CFF1C7A95D1F73CEFC32231E0D322C7
:1057D000EE24FF24F601F296EC0FFD1F408151816B
:1057E00062817381442755276627707F4429552994
:1057F00066297729408351836283738391E09C8378
:1058000001C082E0DF91CF911F910F91FF90EF9047
:10581000DF90CF90BF90AF909F908F907F906F90D0
:105820005F904F9008954F925F926F927F928F9208
:105830009F92AF92BF92CF92DF92EF92FF920F931F
:105840001F93CF93DF93EC012A013B0141155105D2
:105850006105710599F48A849B84AC84BD848114AC
:105860009104A104B10449F14E895F89688D798D55
:1058700084169506A606B70600F523C079DD6230CA
:1058800071058105910508F492C06F3F2FEF7207F3
:105890008207920729F44FEF3FEF2FEF9FEF8CC065
:1058A000CE88DF88E88CF98C6C157D058E059F0508
:1058B00008F47FC05301420104C0812C912C540193
:1058C0008394750164018FEFC81AD80AE80AF80AB0
:1058D0004E895F89688D798DC416D506E606F70670
:1058E00080F022E082169104A104B10428F440E083
:1058F00030E020E090E060C052E0C52ED12CE12CD9
:10590000F12CB701A601CE0133DD611571058105CA
:10591000910599F06F3F2FEF72078207920709F404
:10592000BACF613071058105910509F440C0C814F2
:10593000D904EA04FB0439F6DACF0FEF1FEF2FEF9B
:105940003FE0B701A601CE017CDE81112DC04114DC
:10595000510461047104D1F4CA86DB86EC86FD86AD
:105960004E855F85688979894F3F8FEF58076807B3
:105970007807A9F041505109610971094E875F8785
:10598000688B798B8D8181608D8309C09701860139
:10599000B301A201CE0155DE8823F1F205C04C2DE2
:1059A0003D2D2E2D9F2D08C0813009F474CF41E08C
:1059B0009FCF462F372F282F642F732F822FDF91F1
:1059C000CF911F910F91FF90EF90DF90CF90BF90FC
:1059D000AF909F908F907F906F905F904F900895C1
:1059E0007F928F929F92AF92BF92CF92DF92EF926F
:1059F000FF920F931F93CF93DF93EC016B010C8108
:105A00001D810F5F1F4F0115110511F484E0D8C0EF
:105A10008E859F85A889B9890097A105B105B1F345
:105A200078012FE0E222FF24E114F10409F0B5C06F
:105A30000196A11DB11D8E879F87A88BB98B4A85C2
:105A40005B856C857D8588819981FC0141155105B7
:105A50006105710531F48085918508171907B0F645
:105A60009CC0228130E021503109F801A4E0F69574
:105A7000E795AA95E1F72E233F23232B09F08DC04C
:105A800077DC4B015C01623071058105910510F4F2
:105A900082E096C06F3F2FEF72078207920711F4E2
:105AA00081E08EC088819981FC0146895789608D8B
:105AB000718D84169506A606B70608F461C0CD2838
:105AC00009F4A4CF4A855B856C857D85ACDE4B01EE
:105AD0005C01611571058105910509F470C06130A3
