:1000000031C400006CC400006AC4000068C4000071
:1000100066C4000064C4000072C4000060C4000034
:100020005EC400005CC400000C943C0D58C4000089
:1000300056C4000054C400000C94853950C400001C
:100040000C94933A0C9453390C94E9130C94C63ADB
:100050000C94C91144C4000042C4000040C4000014
:100060003EC400003CC400003AC4000038C4000094
:1000700036C4000034C4000032C4000030C40000A4
:100080002EC400002CC400000C94890B28C400006E
:1000900026C4000024C4000022C4000020C40000C4
:1000A0001EC400001CC400001AC4000018C40000D4
:1000B00016C4000014C4000012C4000010C40000E4
:1000C0000EC400000CC400000AC4000008C40000F4
:1000D00006C4000004C4000002C4000000C4000004
:1000E000FEC30000FCC30000FAC30000F8C3000018
:1000F000F6C30000F4C30000F2C30000F0C3000028
:10010000EEC30000ECC300000C94350B0C94DD0B27
:10011000E6C30000E4C30000E2C30000E0C3000047
:10012000DEC30000DCC30000DAC30000D8C3000057
:10013000D6C30000D4C30000D2C30000D0C3000067
:10014000CEC30000CCC300000C94963CC8C3000092
:10015000C6C30000C4C30000C2C30000C0C3000087
:100160000C94F738BCC30000BAC30000B8C3000049
:10017000B6C30000B4C30000B2C30000B0C30000A7
:10018000AEC30000ACC30000AAC30000A8C30000B7
:10019000A6C30000A4C30000A2C30000A0C30000C7
:1001A0009EC300009CC300009AC3000098C30000D7
:1001B00096C3000094C3000092C3000090C30000E7
:1001C0008EC300008CC300008AC3000088C30000F7
:1001D00086C3000084C3000082C3000080C3000007
:1001E0007EC300007CC300007AC3000078C3000017
:1001F00076C3000074C3000072C300004825D22AF1
:100200009C2A5625862ACC257D2A5F2A7D2A2D2ADE
:100210007D2A7E2856257D2A6B287D2A7D2A562513
:100220001D2B7D2A7D2A002BF12A372557287D2A70
:100230005625562556255625482548254825432B1D
:10024000A92D462DF62CE22C932C3A2C5A2D0E3D3E
:10025000DD3C0E3DDB3C0E3DDB3C0E3D0E3DDB3C14
:100260000E3DDB3C0E3D00000000003E5B4F5B3E60
:100270003E6B4F6B3E1C3E7C3E1C183C7E3C181C6B
:10028000577D571C1C5E7F5E1C00183C1800FFE762
:10029000C3E7FF0018241800FFE7DBE7FF30483A08
:1002A000060E2629792926407F050507407F05256A
:1002B0003F5A3CE73C5A7F3E1C1C08081C1C3E7FF2
:1002C00014227F22145F5F005F5F06097F017F00B9
:1002D0006689956A606060606094A2FFA2940804D9
:1002E0007E040810207E201008082A1C08081C2AFA
:1002F00008081E101010100C1E0C1E0C30383E3852
:1003000030060E3E0E06000000000000005F0000F8
:100310000007000700147F147F14242A7F2A122369
:100320001308646236495620500008070300001C79
:100330002241000041221C002A1C7F1C2A08083E82
:100340000808008070300008080808080000606095
:100350000020100804023E5149453E00427F400003
:1003600072494949462141494D331814127F1027DB
:10037000454545393C4A494931010171090736492A
:10038000494936464949291E0000140000004034FE
:100390000000000814224114141414140041221403
:1003A0000802015909063E415D594E7C1211127C2A
:1003B0007F494949363E414141227F4141413E7F8B
:1003C000494949417F090909013E414151737F086B
:1003D00008087F00417F41002040413F017F081411
:1003E00022417F404040407F021C027F7F04081072
:1003F0007F3E4141413E7F090909063E4151215E50
:100400007F09192946264949493203017F01033FE3
:100410004040403F1F2040201F3F4038403F631472
:1004200008146303047804036159494D43007F4174
:1004300041410204081020004141417F04020102B1
:1004400004404040404000030708002054547840D6
:100450007F284444383844444428384444287F386A
:100460005454541800087E090218A4A49C787F08EC
:1004700004047800447D40002040403D007F102867
:10048000440000417F40007C047804787C08040428
:10049000783844444438FC1824241818242418FCC0
:1004A0007C08040408485454542404043F44243C65
:1004B0004040207C1C2040201C3C4030403C4428D4
:1004C0001028444C9090907C4464544C440008366E
:1004D00041000000770000004136080002010204DC
:1004E000023C2623263C1EA1A161123A4040207AFC
:1004F0003854545559215555794121545478412146
:100500005554784020545579400C1E52721239557A
:100510005555593954545459395554545800004577
:100520007C410002457D420001457C40F0292429A0
:10053000F0F0282528F07C545545002054547C5474
:100540007C0A097F493249494932324848483232A7
:100550004A4848303A4141217A3A42402078009D49
:10056000A0A07D39444444393D4040403D3C24FFF7
:100570002424487E4943662B2FFC2F2BFF0929F6A4
:1005800020C0887E090320545479410000447D41F5
:100590003048484A32384040227A007A0A0A727D4E
:1005A0000D19317D2629292F282629292926304869
:1005B0004D4020380808080808080808382F10C8D7
:1005C000ACBA2F102834FA00007B000008142A145B
:1005D0002222142A1408AA005500AAAA55AA55AA2C
:1005E000000000FF00101010FF00141414FF001092
:1005F00010FF00FF1010F010F0141414FC0014147D
:10060000F700FF0000FF00FF1414F404FC1414179B
:10061000101F10101F101F1414141F00101010F0C2
:10062000000000001F101010101F10101010F0100C
:10063000000000FF101010101010101010FF10001C
:100640000000FF140000FF00FF00001F1017000053
:10065000FC04F414141710171414F404F40000FF2D
:1006600000F714141414141414F700F714141417C6
:100670001410101F101F141414F4141010F010F0A4
:1006800000001F101F0000001F14000000FC1400D9
:1006900000F010F01010FF10FF141414FF141010CD
:1006A000101F00000000F010FFFFFFFFFFF0F0F050
:1006B000F0F0FFFFFF0000000000FFFF0F0F0F0F23
:1006C0000F38444438447C2A2A3E147E020206062F
:1006D000027E027E0263554941633844443C044033
:1006E0007E201E2006027E020299A5E7A5991C2AFB
:1006F000492A1C4C7201724C304A4D4D30304878BA
:100700004830BC625A463D3E494949007E010101DC
:100710007E2A2A2A2A2A44445F444440514A4440BB
:1007200040444A51400000FF0103E080FF00000800
:10073000086B6B083612362436060F090F060000C8
:1007400018180000001010003040FF0101001F01C8
:10075000011E00191D1712003C3C3C3C000000002B
:10076000006E616E00696E660000407A10F35A00F8
:10077000A0724E18090010A5D4E80000E8764817CA
:100780000000E40B54020000CA9A3B000000E1F5AF
:1007900005000080969800000040420F000000A075
:1007A0008601000000102700000000E803000000A0
:1007B000006400000000000A0000000000010000CA
:1007C0000000002C76D888DC674F0823DFC1DFAE3D
:1007D00059E1B1B796E5E3E453C63AE65199769606
:1007E000E8E6C28426EB898C9B62ED407C6FFCEFCF
:1007F000BC9C9F40F2BAA56FA5F490055A2AF75CFD
:10080000936B6CF9676DC11BFCE0E40D47FEF520AE
:10081000E6B500D0ED902E03009435770500808476
:100820001E080000204E0A000000C80C333333338A
:100830000F986E12831141EF8D2114893BE65516F6
:10084000CFFEE6DB18D1844B381BF77C1D901DA42E
:10085000BBE424203284725E228100C9F124ECA121
:10086000E53D2700E0E9F7E3E370FF27E057F84CA8
:100870002FEF3FE32C7FE217F30758F48EED9DEA4C
:10088000AEEBBFEE81939193A193B193E217F3077F
:10089000C8F311241FBECFEFCDBFDFE3DEBF00E002
:1008A0000CBF18BE19BE1ABE1BBE1CE2A0E0B0E20F
:1008B000E8E1FCE800E00BBF02C007900D92AA340B
:1008C000B107D9F71BBE27E3AAE4BCE201C01D9221
:1008D000A039B207E1F70E942C140C940A4690CB81
:1008E000809150008260809350008091510081FF80
:1008F000FCCF88ED84BF81E08093400008951F9273
:100900000F920FB60F92112408B60F9218BE8F9354
:100910008091110185FD13C0809111018061809348
:10092000110181E08093CA3581E08093CB358F91AE
:100930000F9008BE0F900FBE0F901F9018958091DA
:1009400011018062809311011092CA35EDCF0F938F
:100950001F93CF93DF93CDB7DEB7CB5AD109CDBF6D
:10096000DEBF8E010F5F1F4F8BEAF80111928A954F
:10097000E9F74BEA50E060E070E0C8010E94D3451F
:10098000898181508E3F90F48BEAF801ABEBB4E3A0
:1009900001900D928A95E1F781E0C555DF4FCDBFFB
:1009A000DEBFDF91CF911F910F91089580E0F5CFC9
:1009B0009DE09093810695E09093850641E04093F9
:1009C000860624E02093860638E03093850620933F
:1009D000850620938606309386062093850620930D
:1009E00086063093860620938506209386063093EC
:1009F00086062093850620938606309386062093EC
:100A000085062093860630938606209385062093DC
:100A100086063093860620938506209386063093BB
:100A200086062093850620938606309386062093BB
:100A300085062093860630938606209385062093AC
:100A4000860630938506209385062093860630938C
:100A5000860620938506409385064093860620935C
:100A6000860630938506209385062093860630936C
:100A7000860620938506209386063093860620936B
:100A8000850620938606309386062093850620935C
:100A9000860630938606209385062093860630933B
:100AA000860620938506209386063093860620933B
:100AB000850620938606309386062093850620932C
:100AC000860630938606209385062093860630930B
:100AD000850620938506209386063093850620930D
:100AE00085062093860630938606209385064093DC
:100AF00085064093860620938606309385062093CC
:100B000085062093860630938606209385062093DB
:100B100086063093860620938506209386063093BA
:100B200086062093850620938606309386062093BA
:100B300085062093860630938606209385062093AB
:100B4000860630938606209385062093860630938A
:100B5000850620938506209386063093860620938B
:100B6000850620938606309386062093850620937B
:100B7000860630938606209385062093860630935A
:100B8000860620938506409385064093860620932B
:100B9000860630938506209385062093860630933B
:100BA000860620938506209386063093860620933A
:100BB000850620938606309386062093850620932B
:100BC000860630938606209385062093860630930A
:100BD000860620938506209386063093850620930B
:100BE00085062093860630938606209385062093FB
:100BF00086063093850620938506209386063093DB
:100C000086062093850620938606309386062093D9
:100C100085062093860630938606209385064093AA
:100C2000850640938606209386063093850620939A
:100C300085062093860630938606209385062093AA
:100C40008606309386062093850620938606309389
:100C50008606209385062093860630938606209389
:100C6000850620938606309386062093850620937A
:100C7000860630938506209385062093860630935A
:100C8000850620938506209386063093860620935A
:100C9000850620938606309386062093850620934A
:100CA0008606309386062093850620938606309329
:100CB0008606209385064093850690E09460880F11
:100CC000991F4093860620938606309385062093CD
:100CD000850620938606309386062093850620930A
:100CE000860630938606209385062093860690FD1F
:100CF000E1C03093860624E0209385062093860683
:100D000028E087FD98C02093860624E0209385067E
:100D10002093860628E086FD98C02093860624E06E
:100D2000209385062093860628E085FD98C02093B1
:100D3000860624E0209385062093860628E084FD1D
:100D400098C02093860624E020938506209386068B
:100D500028E083FD98C02093860624E02093850632
:100D60002093860628E082FD98C02093860694E0B2
:100D7000909385069093860681FD98C088E08093C5
:100D8000860684E0809385068093860698E090939B
:100D900086068093850621E02093850620938606AB
:100DA00080938606909385068093850680938606B9
:100DB0009093860680938506809386069093860698
:100DC000809385068093860690938506809385069A
:100DD0008093860690938606809385068093860688
:100DE0009093850680938506809386069093860669
:100DF0008093850680938606909386068093850669
:100E00008093860690938606809385068093860657
:100E10009093860680938506809386069093850638
:100E20008093850680938606909386068093850638
:100E30002093850608952093850624E02093850657
:100E40002093860628E086FF68CF2093850624E05D
:100E5000209385062093860628E085FF68CF20939F
:100E6000850624E0209385062093860628E084FFEB
:100E700068CF2093850624E020938506209386067C
:100E800028E083FF68CF2093850624E02093850621
:100E90002093860628E082FF68CF2093850694E0A1
:100EA000909385069093860681FF68CF88E08093B3
:100EB000850667CF3093850624E02093850620932E
:100EC000860628E087FDB7CF1ECFE0E8F6E021E0F8
:100ED000268384E0868398E0958385838683968342
:100EE000858386839683858386839683858386839D
:100EF000968385838683968385838683968385837D
:100F0000868396838583868396838583868395836C
:100F100085838683968385838683968385832583CD
:100F200026838683958385838683968385838683BC
:100F3000968385838683968385838683968385833C
:100F4000868396838583868396838583868396832B
:100F5000858386839683858386839683858386832C
:100F60009683858386839683858325838FE082831A
:100F700088E1808B818B828B838B089587FDC3C032
:100F800080310CF08FE0806A90E09460880F991FA8
:100F900021E02093860624E02093860638E03093F3
:100FA0008506209385062093860630938606209337
:100FB0008506209386063093860620938506209327
:100FC000860690FD95C03093860624E02093850622
:100FD0002093860628E087FD4CC02093860624E0F7
:100FE000209385062093860628E086FD4CC020933A
:100FF000860624E0209385062093860628E085FD5A
:101000004CC02093860624E0209385062093860614
:1010100028E084FD4CC02093860624E020938506BA
:101020002093860628E083FD4CC02093860624E0AA
:10103000209385062093860628E082FD4CC02093ED
:10104000860694E0909385069093860681FD4CC0B9
:1010500088E08093860684E08093850680938606E8
:1010600098E0909386068093850681E080938506BC
:1010700008952093850624E0209385062093860614
:1010800028E086FFB4CF2093850624E020938506D0
:101090002093860628E085FFB4CF2093850624E0C0
:1010A000209385062093860628E084FFB4CF209302
:1010B000850624E0209385062093860628E083FF9A
:1010C000B4CF2093850624E02093850620938606DE
:1010D00028E082FFB4CF2093850694E090938506A4
:1010E0009093860681FFB4CF88E080938506B3CFC6
:1010F0003093850624E0209385062093860628E019
:1011000087FDB7CF6ACF80E03BCFFC01F695E7952E
:10111000F695E795F695E795EF5CF94C877099277A
:1011200021E030E001C0220F8A95EAF78081822B0E
:1011300080830895FC01F695E795F695E795F69579
:10114000E795EF5CF94C8770992721E030E001C00A
:10115000220F8A95EAF7209580812823208308951D
:1011600080E2E1E3F6E3DF011D928A95E9F70C9452
:10117000981481E08093860684E08093860698E048
:1011800090938506809385068093860690938606C5
:1011900080938506809386069093850680938506C6
:1011A00080938606909386068093850680938606B4
:1011B0009093860680938506809386069093860694
:1011C0008093850680938606909386068093850695
:1011D0008093860690938606809385068093860684
:1011E0009093860680938506809386069093860664
:1011F00080938506E2E3F6E324E038E07AC030939A
:101200008606209385062093860695FD8EC0309332
:101210008606209385062093860694FD8EC0309323
:101220008606209385062093860693FD8EC0309314
:101230008606209385062093860692FD8EC0309305
:101240008606209385062093860691FD8EC03093F6
:101250008606209385062093860690FD8EC03093E7
:101260008606209385062093860687FD8EC03093E0
:101270008606209385062093860686FD8EC03093D1
:101280008606209385062093860685FD8EC03093C2
:101290008606209385062093860684FD8EC03093B3
:1012A0008606209385062093860683FD8EC03093A4
:1012B0008606209385062093860682FD8EC0309395
:1012C0008606209385062093860681FD8EC0309386
:1012D0008606209385062093860680FD8EC0309377
:1012E000860620938506329686E3E235F80709F4F0
:1012F0008EC0DF0111978C9190E0982F8827408154
:10130000842B2093860697FD86C030938606209313
:1013100085062093860696FF72CF3093850620932C
:1013200085062093860695FF72CF3093850620931D
:1013300085062093860694FF72CF3093850620930E
:1013400085062093860693FF72CF309385062093FF
:1013500085062093860692FF72CF309385062093F0
:1013600085062093860691FF72CF309385062093E1
:1013700085062093860690FF72CF309385062093D2
:1013800085062093860687FF72CF309385062093CB
:1013900085062093860686FF72CF309385062093BC
:1013A00085062093860685FF72CF309385062093AD
:1013B00085062093860684FF72CF3093850620939E
:1013C00085062093860683FF72CF3093850620938F
:1013D00085062093860682FF72CF30938506209380
:1013E00085062093860681FF72CF30938506209371
:1013F00085062093860680FF72CF30938506209362
:101400008506329686E3E235F80709F072CF81E06F
:101410008093850608953093850679CF90E0946097
:10142000880F991F21E02093860624E020938606EA
:1014300038E0309385062093850620938606309306
:101440008606209385062093860630938606209391
:1014500085062093860690FD95C03093860624E08D
:10146000209385062093860628E087FD4CC02093B4
:10147000860624E0209385062093860628E086FDD4
:101480004CC02093860624E0209385062093860690
:1014900028E085FD4CC02093860624E02093850635
:1014A0002093860628E084FD4CC02093860624E025
:1014B000209385062093860628E083FD4CC0209368
:1014C000860624E0209385062093860628E082FD88
:1014D0004CC02093860694E09093850690938606F0
:1014E00081FD4CC088E08093860684E08093850669
:1014F0008093860698E0909386068093850681E027
:101500008093850608952093850624E02093850620
:101510002093860628E086FFB4CF2093850624E03A
:10152000209385062093860628E085FFB4CF20937C
:10153000850624E0209385062093860628E084FF14
:10154000B4CF2093850624E0209385062093860659
:1015500028E083FFB4CF2093850624E020938506FE
:101560002093860628E082FFB4CF2093850694E07E
:10157000909385069093860681FFB4CF88E0809390
:101580008506B3CF3093850624E02093850620930B
:10159000860628E087FDB7CF6ACF90EE90930206CB
:1015A00091E090932206909115069A61909315060A
:1015B000909116069A6190931606909117069A617B
:1015C00090931706909130069A619093300681119E
:1015D00015C080910A068F7180930A0680912A06B1
:1015E0008E7F80932A06809109068C7F809309065E
:1015F000809129068C7F80932906089580910A06A0
:10160000806E80930A0680912A06816080932A0664
:101610008091090683608093090680912906836082
:10162000809329060895E0E0F6E084E082838289D1
:101630008260828B83858460838781858C608187CB
:1016400008958091080685FB882780F991E0892715
:101650009091080696FF82609091080697FF83E0BC
:101660009091280690FF846008951F920F920FB604
:101670000F92112408B60F9218BE09B60F9219BE28
:101680000BB60F921BBE2F933F934F935F936F93B5
:101690007F938F939F93AF93BF93EF93FF9380912B
:1016A000080685FB882780F991E089279091080634
:1016B00096FF82609091080697FF83E0909128063C
:1016C00090FF846080935136809151361F928F93A2
:1016D00081E390E29F938F930E9437450F900F9084
:1016E0000F900F90FF91EF91BF91AF919F918F91CC
:1016F0007F916F915F914F913F912F910F900BBE12
:101700000F9009BE0F9008BE0F900FBE0F901F9054
:1017100018951F920F920FB60F92112408B60F92D0
:1017200018BE09B60F9219BE0BB60F921BBE2F93AF
:101730003F934F935F936F937F938F939F93AF9359
:10174000BF93EF93FF938091080685FB882780F96C
:1017500091E089279091080696FF82609091080693
:1017600097FF83E09091280690FF84608093513624
:10177000809151361F928F9381E390E29F938F93D4
:101780000E9437450F900F900F900F90FF91EF91AF
:10179000BF91AF919F918F917F916F915F914F9189
:1017A0003F912F910F900BBE0F9009BE0F9008BE76
:1017B0000F900FBE0F901F9018951F920F920FB6AB
:1017C0000F92112408B60F9218BE09B60F9219BED7
:1017D0000AB60F921ABE0BB60F921BBEEF920F9372
:1017E0001F932F933F934F935F936F937F938F93A9
:1017F0009F93AF93BF93EF93FF93CF93DF931F928A
:101800001F92CDB7DEB7EE24E3948E010F5F1F4F1A
:1018100021E242E350E06AE580E894E06CD68981F9
:1018200080935236809152361F928F9383E490E2D8
:101830009F938F930E9437450F900F900F900F90BA
:101840000F900F90DF91CF91FF91EF91BF91AF91EA
:101850009F918F917F916F915F914F913F912F91C8
:101860001F910F91EF900F900BBE0F900ABE0F903B
:1018700009BE0F9008BE0F900FBE0F901F901895D5
:101880007F928F929F92AF92BF92CF92DF92EF9210
:10189000FF920F931F93CF93DF931F921F92CDB7A9
:1018A000DEB7782E682F70E080E090E09E012F5F19
:1018B0003F4F690189012AE0822E912CA12CB12C85
:1018C00001C0870178013FEFE31AF30AA5019401F3
:1018D0000E941E42605DF8016083B901CA01611572
:1018E00071058105910569F7EC18FD08C70101979D
:1018F0001816190684F4D601AE0DBF1DF60120E0BE
:1019000030E040815E9151934C932F5F3F4F0197A0
:1019100028173907B4F3F9E0F71568F1198180E366
:10192000F82E00E028E040E160E080E00E94AF1582
:1019300001E021E030E04F2D60E070E082E090E0D7
:101940000E94601621E030E0412F60E070E089E005
:1019500090E00E9460160F900F90DF91CF911F9141
:101960000F91FF90EF90DF90CF90BF90AF909F903E
:101970008F907F900895F9801A81D3CF7F928F92B4
:101980009F92AF92BF92CF92DF92EF92FF920F930E
:101990001F93CF93DF931F921F92CDB7DEB7782EA0
:1019A000682F70E080E090E09E012F5F3F4F69015B
:1019B00089014AE0842E912CA12CB12C01C0870111
:1019C00078013FEFE31AF30AA50194010E941E4239
:1019D000605DF8016083B901CA0161157105810577
:1019E000910569F7EC18FD08C7010197181619064B
:1019F00084F4D601AE0DBF1DF60120E030E0408139
:101A00005E9151934C932F5F3F4F019728173907F1
:101A1000B4F3F9E0F71568F1198130E3F32E00E033
:101A200029E040E167E080E00E94AF1501E021E09D
:101A300030E04F2D69E070E082E090E00E94601697
:101A400021E030E0412F69E070E089E090E00E9401
:101A500060160F900F90DF91CF911F910F91FF9023
:101A6000EF90DF90CF90BF90AF909F908F907F903E
:101A70000895F9801A81D3CF1F920F920FB60F925B
:101A8000112408B60F9218BE09B60F9219BE0BB6F4
:101A90000F921BBE2F933F934F935F936F937F9350
:101AA0008F939F93AF93BF93CF93EF93FF938091C7
:101AB000C7349091C834A091C934B091CA3401960A
:101AC000A11DB11D8093C7349093C834A093C9342D
:101AD000B093CA3480915E358F5F80935E358C33CE
:101AE00008F463C010925E358091062081117DC09C
:101AF00080915F358F5F80935F35883108F46EC0C9
:101B00008091613591E0980F90936135873068F04E
:101B100091E0909361358091623521E0280F209308
:101B20006235853310F090936235C091603581E065
:101B30008C0F80936035609164357091653580912C
:101B400063350E94CF3CC81760F091E090936035F8
:101B50008091633521E0280F209363358C3008F0A5
:101B600053C010925F3580910620811149C01092B8
:101B70005E3580913036813011F1FF91EF91CF9138
:101B8000BF91AF919F918F917F916F915F914F9195
:101B90003F912F910F900BBE0F9009BE0F9008BE82
:101BA0000F900FBE0F901F901895909106209923CB
:101BB00001F366DEBDD6809130368130F1F690912A
:101BC0005F3580915B359813D8CF90915E358091C9
:101BD0005A359813D2CF10923036CFCF909106203D
:101BE000992329F2CBDEA4D6C2CF80E049DEA0D66D
:101BF00080915F358F5F80935F35883178F380CF38
:101C000080E0BCDE95D6B3CF9093633540916435C8
:101C1000509165354F5F5F4F409364355093653504
:101C200061E081E00E94663D809362359ACF0F9318
:101C30001F93CF93DF93EC0160E2CE01E4D360E227
:101C4000892B61F5CE01DFD38C0197FD16C002C050
:101C500097FD13C060E3CE01D6D381309105C1F763
:101C600060E2CE01D0D38017910739F197FD05C00E
:101C70008C01F0CF60E2CE01C6D360E2CE01C3D3C7
:101C8000892BD9F360E2CE01BED30197A9F680E09B
:101C900090E0DF91CF911F910F910895CE01B3D3C2
:101CA00097FDCACF60E3CE01AED381309105C1F775
:101CB00040E068E1CE0189D3BFCF4BE068E1CE01BF
:101CC00084D3892BD1F617FDD5CF60E2CE019BD30B
:101CD00008171907D1F360E2CE0195D3892B69F279
:101CE000D1CF0F931F93CF93DF938C0140E068E037
:101CF0006CD3EC01C8019BDFC80FD91F40E068E03E
:101D0000C80163D3C80FD91F40E064E0C8015DD3A8
:101D1000C80FD91F40E065E0C80157D3C80FD91FCD
:101D200040E066E0C80151D3C80FD91F40E063E02E
:101D3000C8014BD3C80FD91F4FEF61E2C80145D38B
:101D4000C80FD91F41E068E1C8013FD3C80FD91FB0
:101D500099D347E167E0C80138D38C0F9D1FDF910D
:101D6000CF911F910F9108959F92AF92BF92CF9202
:101D7000DF92EF92FF920F931F93CF93DF931F9207
:101D80001F92CDB7DEB78C01962E40E068E01DD3E0
:101D90006C0140E06AE0C80118D3C80ED91E40E0CB
:101DA00069E0C80112D3C80ED91EC8019ADFC80E57
:101DB000D91E43E06FE0C80108D3C80ED91E02C087
:101DC00097FD87C260E3C8011ED381309105C1F73A
:101DD00060E2C80118D35C0181E3898381EA8A83C8
:101DE0009E012F5F3F4F790142E067E1C80128D390
:101DF000009759F460E2C80106D3A816B906D1F3DA
:101E00001816190614F480E090E0C80ED91E43E0BD
:101E100063E0C801DAD2C80ED91E91105FC245E056
:101E200064E0C801D2D2C80ED91E43E365E0C80100
:101E3000CCD2C80ED91E02C097FD20C060E3C801F5
:101E4000E2D281309105C1F760E2C801DCD25C01C9
:101E500083E0898387EA8A83970142E067E1C801CA
:101E6000EFD2009759F460E2C801CDD2A816B906A6
:101E7000D1F31816190614F480E090E0C80ED91EAC
:101E800002C097FD20C060E3C801BDD2813091053A
:101E9000C1F760E2C801B7D25C0183E089838EEAB2
:101EA0008A83970142E067E1C801CAD2009759F4DA
:101EB00060E2C801A8D2A816B906D1F3181619060F
:101EC00014F480E090E0C80ED91E02C097FD21C036
:101ED00060E3C80198D281309105C1F760E2C80182
:101EE00092D25C0119828BEA8A83970142E067E112
:101EF000C801A6D2009769F460E2C80184D2A8168E
:101F0000B906D1F35C011816190624F4A12CB12CE2
:101F100001C05C01AC0CBD1C02C097FD20C060E399
:101F2000C80171D281309105C1F760E2C8016BD25E
:101F30006C0181E0898382EA8A83970142E067E14C
:101F4000C8017ED2009759F460E2C8015CD2C8167D
:101F5000D906D1F31816190614F480E090E0A80E03
:101F6000B91E02C097FD20C060E3C8014CD2813089
:101F70009105C1F760E2C80146D26C0180E7898310
:101F80008AEA8A83970142E067E1C80159D2009743
:101F900059F460E2C80137D2C816D906D1F3181631
:101FA000190614F480E090E0A80EB91E02C097FD57
:101FB00020C060E3C80127D281309105C1F760E2FB
:101FC000C80121D26C0184E089838CEA8A8397015D
:101FD00042E067E1C80134D2009759F460E2C801D9
:101FE00012D2C816D906D1F31816190614F480E0D7
:101FF00090E0A80EB91E02C097FD1FC060E3C801A3
:1020000002D281309105C1F760E2C801FCD16C01B8
:1020100019828EEB8A83970142E067E1C80110D2F2
:10202000009759F460E2C801EED1C816D906D1F381
:102030001816190614F480E090E0A80EB91E02C02C
:1020400097FD1FC060E3C801DED181309105C1F763
:1020500060E2C801D8D16C01198281EB8A839701B3
:1020600042E067E1C801ECD1009759F460E2C80191
:10207000CAD1C816D906D1F31816190614F480E08F
:1020800090E0A80EB91E02C097FD20C060E3C80111
:10209000BAD181309105C1F760E2C801B4D16C01B9
:1020A00080E789838DEB8A83970142E067E1C8016D
:1020B000C7D1009759F460E2C801A5D1C816D90666
:1020C000D1F31816190614F480E090E0A80EB91E9A
:1020D00002C097FD22C060E3C80195D1813091050F
:1020E000C1F760E2C8018FD16C0180E7898380EB82
:1020F0008A83970142E067E1C801A2D1009769F4A1
:1021000060E2C80180D1C816D906D1F36C01181657
:10211000190624F4C12CD12C01C06C01CA0CDB1CA3
:1021200002C097FD20C060E3C8016DD181309105E8
:10213000C1F760E2C80167D15C0180E289838FEB5F
:102140008A83970142E067E1C8017AD1009759F488
:1021500060E2C80158D1A816B906D1F318161906BD
:1021600014F480E090E0C80ED91E02C097FD20C094
:1021700060E3C80148D181309105C1F760E2C80130
:1021800042D15C0180E2898382EB8A83970142E03D
:1021900067E1C80155D1009759F460E2C80133D115
:1021A000A816B906D1F31816190614F480E090E0C9
:1021B000C80ED91E48E661E1C80107D1C80ED91E74
:1021C00041E062E1C80101D1C80ED91E4CE26BE0CA
:1021D000C801FBD0C80ED91E41E06CE0C801F5D0A3
:1021E000C80ED91E970142E06BE0C8013AD18A813E
:1021F00090E0982F88272981822B9F938F9380E8E6
:1022000090E29F938F930E94374540ED6DE0C801A7
:10221000DCD0C80ED91E47E06EE0C801D6D0C80E8B
:10222000D91E970142E06DE0C8011BD18A8190E080
:10223000982F88272981822B9F938F9389E990E299
:102240009F938F930E94374540EA68E0C801BDD054
:10225000C80ED91E48E06AE0C801B7D0C80ED91E22
:1022600048E069E0C801B1D0C80ED91E60E2C801DB
:10227000CAD07C01CDBFDEBF97FD43C002C097FD31
:1022800016C060E3C801BFD081309105C1F760E29C
:10229000C801B9D08E159F0521F097FD08C07C01BB
:1022A000F0CF4FE068E1C80190D0009761F19C0148
:1022B000C601820F931F0F900F90DF91CF911F9156
:1022C0000F91FF90EF90DF90CF90BF90AF909F90D5
:1022D00008959E012F5F3F4F790197CD46E064E05E
:1022E000C80173D0C80ED91E46E365E0C8016DD0A1
:1022F000C80ED91EA3CD60E2C80185D0E816F90644
:1023000051F49701D5CFF7FCF6CF60E2C8017BD03E
:10231000E816F906D1F320E030E0CACF8AE590E074
:10232000E0DC2FEF81EE94E0215080409040E1F717
:1023300000C0000060E08AE590E016DD74D960E03E
:102340008AE590E060D09F938F9383EB90E29F9318
:102350008F930E94374561E08AE590E054D09F93C7
:102360008F9381EC90E29F938F930E94374562E0B8
:102370008AE590E048D09F938F938EEC90E29F93F4
:102380008F930E9437458DB79EB70C968DBF9EBF29
:1023900008951F920F920FB60F92112408B60F9254
:1023A00018BE8F939F9380914C2C90914D2C019649
:1023B00080934C2C90934D2C9F918F910F9008BE41
:1023C0000F900FBE0F901F901895EF920F931F93D1
:1023D000CF93DF931F92CDB7DEB7262F4983EE242C
:1023E000E3948E010F5F1F4F48EE53E06AE580E8EB
:1023F00094E01FD180E090E00F90DF91CF911F918A
:102400000F91EF900895EF920F931F93CF93DF9367
:102410001F92CDB7DEB7262FEE24E3948E010F5F17
:102420001F4F48EE53E06AE580E894E064D089816C
:1024300090E00F90DF91CF911F910F91EF90089551
:10244000EF920F931F938901E42E262F48EE53E05D
:102450006AE580E894E0EDD090E01F910F91EF9055
:102460000895EF920F931F938901E42E262F48EED3
:1024700053E06AE580E894E03ED090E01F910F9130
:10248000EF9008952FEF89EF90E021508040904029
:10249000E1F700C0000008951092C008E0E4F6E003
:1024A00088EF828380E1838B848B858B868B878BFF
:1024B000E0E2F6E082E081838583E0E7F0E083817B
:1024C000886083830895E0E7F0E083818F7B8383D6
:1024D000E0E8F4E0128289E0858388E0818381E08E
:1024E00084830895E0E8F4E01182E0E7F0E083817E
:1024F000806483830895EF920F931F93CF93DF93AC
:10250000FC01762F770F768394E6949FD001959FF8
:10251000B00D11241097C1F0AD010FC0392F3075E7
:102520003035A9F0907CE1F48AE68A95F1F700C095
:10253000415051094115510539F09481392F3874B2
:10254000383461F77683F0CF848185FF02C087E05D
:1025500083838E2DDF91CF911F910F91EF9008957E
:102560002783848186FD0EC09D0103C0211531059E
:1025700049F08AE68A95F1F700C02150310994812B
:1025800096FFF4CF848186FF1EC0848184FD1BC02A
:10259000660F616066839D010FC0892F807580354D
:1025A000E1F0907C01F58AE68A95F1F700C02150B0
:1025B00031092115310571F09481892F887488348F
:1025C00061F76683F0CF86E0DF91CF911F910F9185
:1025D000EF900895848185FF02C087E0838387E0C0
:1025E00083838E2DB7CF4FEF4E0DE80162E057E0A9
:1025F0004F3FA9F384818C708C3089F3848187FDEF
:102600000EC09D0103C02115310549F08AE68A9567
:10261000F1F700C021503109948197FFF4CF8781F1
:102620008993411103C053834150E2CF63834150EA
:10263000DFCFEF920F931F93CF93DF93FC01660FD1
:10264000668394E6949FD001959FB00D1124109756
:10265000C1F0AD010FC0392F30753035A9F0907C35
:10266000E1F48AE68A95F1F700C04150510941151D
:10267000510539F09481392F3874383461F7668305
:10268000F0CF848185FF02C087E083838E2DDF91A8
:10269000CF911F910F91EF9008952783848186FD3C
:1026A0000EC09D0103C02115310549F09AE69A95A7
:1026B000F1F700C021503109948196FFF4CF848155
:1026C00086FF21C0848184FD1EC0E8018FEF8E0D3E
:1026D0008F3FB1F099919783948196FD0EC09D0133
:1026E00003C02115310549F09AE69A95F1F700C02B
:1026F00021503109948196FFF4CF948196FD0AC050
:1027000097E09383C4CF86E0DF91CF911F910F9123
:10271000EF90089594812FEF280F94FDF1CF822F31
:10272000D7CFE0E7F0E084818F7E8483E0E6F6E0B7
:1027300084E0828388E0818388E1828B838BE0EA76
:10274000F9E090E293839EE2968398E9978393E081
:10275000958384830895E0E7F0E084818F7D84830E
:10276000E0E6F6E080E4828380E8818388E1868B7E
:10277000878BE0EBF9E013829EE2968398E99783DA
:1027800093E0958384830895E0EAF9E01482E0E61B
:10279000F6E08CE0828380E1828B838BE0E7F0E0DF
:1027A00084818061848308959091A10995FFFCCF75
:1027B0008093A00908959091B10995FFFCCF809373
:1027C000B00908958091B10987FFFCCF8091B009CD
:1027D00008951F920F920FB60F92112408B60F9210
:1027E00018BE8F939F9380914E2C90914F2C019700
:1027F00099F0109238031092390381E090E08093B1
:102800004E2C90934F2C9F918F910F9008BE0F905C
:102810000FBE0F901F9018958FEF9FE080933803A5
:102820009093390310924E2C10924F2CECCF8AE5E6
:1028300090E057DA73DD56DEA7DF78D00E94650797
:1028400080914800866080934800809148008160B4
:10285000809348008895FFCF0E9470045CD01CDEF6
:1028600093DF80E00E94CD0A8091480086608093CB
:1028700048000E94210B809351360E94A7048823B0
:1028800009F441C080915136813009F43CC063DFC6
:1028900087E090E280938A3790938B3780938C37D0
:1028A00090938D3784E491E20E94484580E791E25D
:1028B0000E94484536DF8BE891E20E94484584E952
:1028C00091E20E94484587E08093A20078948BE8CB
:1028D00091E20E9448458BEA91E20E9448450E949D
:1028E000103A813099F089EC91E20E94484580EDE0
:1028F00091E20E94484580E894E0E5DD8BE891E2B2
:102900000E94484594DF0E94253AC1CF8BE891E2AE
:102910000E944845ECCF84E20E94D8048FE00E94D8
:10292000BE070E94B00883E00C940E0A0C94B00815
:102930000C94B9087F928F929F92AF92BF92CF92E0
:10294000DF92EF92FF920F931F93CF93DF939090BC
:10295000172080901620E82CF12CC92DD0E0C7015B
:102960005FE0A52EB12C68E1C62ED12C9C01220F70
:10297000331F89010F501109883091050CF098011F
:102980008901000F111F000F111F000F111F409729
:102990008CF1292D2F5F822F90E0C817D907D4F72B
:1029A0008394882D90E0E816F90604F780911720AB
:1029B00090911620873008F449C0993009F4BAC0C4
:1029C000893008F448C0893009F048C0993008F0CF
:1029D00081C09F5F90931620993009F07BC0809151
:1029E000152091E0892780931520E9E08E2EF9E0EB
:1029F0009F2E36C0792CCE0106C07394872D90E0AF
:102A0000C817D9076CF280319105BCF79501281BD6
:102A1000390BC901B6010E940B42883091056CF454
:102A200027E030E087709927A901481B590BCA019C
:102A3000800F911F0E948508E0CF803191051CF422
:102A400027E830E0EFCF27E031E0ECCF863019F413
:102A5000973008F076C0963009F47AC0892E982E07
:102A6000E82CF12CC92DD0E0C7015FE0A52EB12CD8
:102A700068E1C62ED12C9C01220F331F89010F5013
:102A80001109883091050CF098018901000F111F80
:102A9000000F111F000F111F409704F1292D2F5F08
:102AA000822F90E0C817D907D4F78394882D90E03F
:102AB000E816F90604F7DF91CF911F910F91FF906F
:102AC000EF90DF90CF90BF90AF909F908F907F90CE
:102AD0000C94B908892E79E0972EC2CF792CCE01BB
:102AE00006C07394872D90E0C817D907F4F280319F
:102AF0009105BCF79501281B390BC901B6010E944D
:102B00000B42883091056CF427E030E087709927FC
:102B1000A901481B590BCA01800F911F0E949A08F6
:102B2000E0CF803191051CF427E830E0EFCF27E0BB
:102B300031E0ECCF815080931720982EC9E08C2E85
:102B40008FCF915090931620892EB6E09B2E88CF80
:102B50008F5F80931720A6E08A2E982E81CF4F9208
:102B60005F926F927F928F929F92AF92BF92CF921D
:102B7000DF92EF92FF920F931F93CF93DF93182F63
:102B8000562E90E05C01A40EB11C8A159B057CF5C5
:102B9000E62EF12CE701C20FD11D7FE0672E712CCC
:102BA000E8E18E2E912CEC16FD06DCF49C01220F40
:102BB000331F69014FE0C41AD108883091050CF029
:102BC00096016901CC0CDD1CCC0CDD1CCC0CDD1C91
:102BD0004097F4F0852D8F5F282F30E02C173D07AC
:102BE000D4F31F5F812F90E08A159B05E4F2DF91FB
:102BF000CF911F910F91FF90EF90DF90CF90BF90FA
:102C0000AF909F908F907F906F905F904F900895BE
:102C1000C701452C002339F040C04394842D90E037
:102C20008C179D07F4F680319105BCF79301281BA2
:102C3000390BC901B4010E940B42883091058CF117
:102C400080319105BCF527E830E087709927A9010C
:102C5000481B590BCA018C0D9D1D0E949A08DDCF9F
:102C60009301281B390BC901B4010E940B42883023
:102C70009105D4F427E030E087709927A901481B1B
:102C8000590BCA018C0D9D1D0E9485084394842D0B
:102C900090E08C179D070CF0A4CF80319105B4F71C
:102CA000DFCF27E030E0D1CF8031910534F427E841
:102CB00030E0E2CF27E031E0C8CF27E031E0DCCFE1
:102CC0002F923F924F925F926F927F928F929F923C
:102CD000AF92BF92CF92DF92EF92FF920F931F932A
:102CE000CF93DF93CDB7DEB76D97CDBFDEBF6C83DB
:102CF0007D832B8B0B8355E0459F900111242A592E
:102D00003D4F2B873C878E839F83880F991F8E872B
:102D10009F872E813F812B5F3F4F288F398F302F28
:102D2000330F330F330F301B5C81350F3A8B2E81FD
:102D30002A87402F50E0488B598BCB0107968A8F0A
:102D40009B8F29E030E0261B370B2C8B3D8BFFE05F
:102D5000AF2EB12CA8E16A2E712CEB85FC85249056
:102D60002E813F818E859F85283031050CF00F978D
:102D7000AC01440F551F440F551F440F551F4E8B78
:102D80005F8B3A85232F30E028873987690148898E
:102D90005989C40ED51E2C893D8929833A83EA8C32
:102DA000FB8C4A881CC04E815F814031510528F45C
:102DB00051E1E516F1040CF4E6C0269449815A81EC
:102DC0004F5F5F4F49835A8351E0E51AF1082B8129
:102DD000421A4C815D81E416F50609F4A2C020FE7A
:102DE000ECCF3B813130F9F2488559854C155D05B2
:102DF00024F7042D10E068897989600F711F5A84C7
:102E0000CA012D862B8806171707E4F49C01220FB0
:102E1000331F49015FE0851A9108883091050CF451
:102E20004901880C991C880C991C880C991C4097A6
:102E30008CF0242DAB012F5F822F90E08417950733
:102E4000D4F3BA015394852D90E08C159D05DCF2E6
:102E50002D84B3CF342CC8016C8F7D8F222049F094
:102E60004DC03394832D90E02C8D3D8D82179307B8
:102E70002CF580319105ACF7F501E81BF90BCF017A
:102E8000B3010E940B4288309105E4F18031910535
:102E90000CF041C027E830E087709927A901481B52
:102EA000590BCA01880D991D0E949A083394832DED
:102EB00090E02C8D3D8D82179307DCF2B901C2CFD3
:102EC000A501481B590BCA01B3010E940B4288306F
:102ED0009105DCF427E030E087709927F901E81BC1
:102EE000F90BCF01880D991D0E9485083394832D1D
:102EF00090E02C8D3D8D8217930704F7803191056A
:102F0000ACF7DECF27E030E0C7CF8031910534F455
:102F100027E830E0E1CF27E031E0BECF27E031E025
:102F2000DBCF2B853C852F5F3F4F2B873C874E8126
:102F30005F814F5F5F4F4E835F832E853F852E5F9E
:102F40003F4F2E873F878A853B81830F288D398DA0
:102F50004217530711F08A8700CF6D96CDBFDEBFB1
:102F6000DF91CF911F910F91FF90EF90DF90CF9065
:102F7000BF90AF909F908F907F906F905F904F9099
:102F80003F902F90089589819A81B3010E940B424E
:102F90008830910574F080319105FCF427E830E029
:102FA0008770907897FF0BC00197886F9F6F01968D
:102FB00006C027E030E08770907897FDF5CFF901E3
:102FC000E81BF90BCF012E893F89820F931F3B89A4
:102FD000311106C00E949A08F0CE27E031E0EBCF15
:102FE0000E948508EACE8091502C813009F477C088
:102FF00008F46AC08230E1F1833091F582E290E01A
:103000000E94850883E390E00E94850884E490E0B4
:103010000E94850884E590E00E94850885E690E09E
:103020000E94850885E790E00E9485088DE090E089
:103030000E9485088DE190E00E9485088CE290E076
:103040000E9485088CE390E00E9485088BE490E064
:103050000E9485088AE590E00E9485088091502CA6
:1030600091E0980F9093502C843051F10C94B90852
:1030700087EC90E00E94850880E590E00E9485083A
:1030800081E690E00E94850881E790E00E94850833
:1030900089E090E00E94850889E190E00E9485081F
:1030A00088E290E00E9485088FEB90E00E948508FE
:1030B0008091502C91E0980F9093502C8430B1F671
:1030C0001092502C0C94B00883EF90E00E94850879
:1030D0008BE890E00E9485088091502CC1CF85EE4E
:1030E00090E00E94850886EF90E00E9485088EE8B7
:1030F00090E00E9485088DE990E00E94850880910B
:10310000502CAECFCF93DF93EC0182E1FE01119200
:103110008A95E9F7488359836A837B832C873D87A7
:103120008AE08F87232B39F08E8581608E8780E03F
:10313000DF91CF910895CA010E9469428C879D87D3
:10314000892B19F08E858260F0CF188219821A823D
:103150001B8281E0EDCF4F925F926F927F928F92B0
:103160009F92AF92BF92CF92DF92EF92FF920F9316
:103170001F93CF93DF93EC018B0169017A010097D4
:1031800009F48BC0211531054105510509F485C0AD
:103190004C815D816E817F8188809980AA80BB800F
:1031A000481559056A057B0538F01C821D821E8270
:1031B0001F8240E050E0BA0188859985AA85BB85C9
:1031C000481759076A077B0709F47CC04817590755
:1031D0006A077B0708F088C02C013D01441A550A94
:1031E000660A770A84179507A607B70750F42C01DB
:1031F0003D01480C591C6A1C7B1C441A550A660A7E
:10320000770A81E0481A5108610871084C145D047E
:103210006E047F0440F4411451046104710409F404
:103220003CC073016201D501C401841B950BA60B40
:10323000B70B460157018C159D05AE05BF0510F46F
:103240004C015D018C859D85840F951FA401B801FB
:103250000E9483448C819D81AE81BF81880D991D20
:10326000AA1DBB1D8C839D83AE83BF8326013701BE
:10327000481859086A087B0841F5488159816A81D4
:103280007B8184179507A607B70720F01C821D8253
:103290001E821F82B601C70104C060E070E080E0BA
:1032A00090E0DF91CF911F910F91FF90EF90DF9011
:1032B000CF90BF90AF909F908F907F906F905F90D6
:1032C0004F900895240135019CCFB801680D791DF8
:1032D000A2018C859D850E9483444C825D826E8212
:1032E0007F82D301C201C9CF412C512C32017ACF48
:1032F0004F925F926F927F928F929F92AF92BF9206
:10330000CF92DF92EF92FF920F931F93CF93DF93B1
:10331000EC018B0169017A01009709F47AC021154B
:1033200031054105510509F474C088859985AA8540
:10333000BB85488059806A807B8084159505A605E9
:10334000B70538F0188619861A861B8680E090E04B
:10335000DC018C809D80AE80BF8088159905AA0510
:10336000BB0508F46BC040E050E0BA01881699062E
:10337000AA06BB0650F4B501A401440D551D661DF7
:10338000771D481B590B6A0B7B0B4C155D056E05B1
:103390007F0538F44115510561057105D1F16A01C8
:1033A0007B01481A590A6A0A7B0A460157014C14E4
:1033B0005D046E047F0410F4530142016C857D8529
:1033C000680F791FA401C8010E94834488859985EC
:1033D000AA85BB85880D991DAA1DBB1D8887998765
:1033E000AA87BB8726013701481859086A087B0855
:1033F00061F5488159816A817B8184179507A60709
:10340000B70720F0188619861A861B86B601C701F1
:1034100004C060E070E080E090E0DF91CF911F9108
:103420000F91FF90EF90DF90CF90BF90AF909F9063
:103430008F907F906F905F904F900895B501A40199
:10344000481B590B6A0B7B0B91CFC801880D991D46
:103450006C857D85A2010E948344488659866A86D0
:103460007B86D301C201C5CFCF92DF92EF92FF924C
:103470000F931F93FC010097E1F1C480D580E68093
:10348000F78000851185228533850C151D052E05D5
:103490003F05D8F080E090E0DC01C016D106E206DE
:1034A000F306F0F460817181828193816C0D7D1D42
:1034B0008E1D9F1D601B710B820B930B1F910F9133
:1034C000FF90EF90DF90CF900895D701C601801B49
:1034D000910BA20BB30BC016D106E206F30610F354
:1034E000BC01CD011F910F91FF90EF90DF90CF9025
:1034F000089560E070E0CB011F910F91FF90EF9075
:10350000DF90CF900895009749F0FC011482158256
:1035100016821782108611861286138608952F92BE
:103520003F924F925F926F927F928F929F92AF9253
:10353000BF92CF92DF92EF92FF920F931F93CF93A0
:10354000DF93CDB7DEB76097CDBFDEBFFC01CB0107
:10355000309709F4D6C0C480D580E680F7804084D7
:1035600051846284738449825A826B827C824C14B7
:103570005D046E047F0408F4DDC0812C912C54019D
:1035800049805A806B807C80C414D504E604F7041B
:1035900060F480809180A280B3808C0C9D1CAE1C56
:1035A000BF1C84189508A608B70882169306A406BF
:1035B000B50608F4A6C081149104A104B10409F46D
:1035C000A0C0C080D180E280F38064847584DC0177
:1035D0004D901D0180E01D821E821F821886298762
:1035E0003A874B875C8749815A816B817C812BC0EC
:1035F000FA014F5F5F4F6F4F7F4FE60DF71D9081D0
:10360000941589F1B1E08B1A9108A108B1080D81D8
:103610001E812F8138850F5F1F4F2F4F3F4F09832A
:103620001A832B833C8381112EC081149104A10441
:10363000B10409F466C009811A812B813C810D8394
:103640001E832F8338874C155D056E057F0580F23C
:1036500041E050E060E070E0E0E0F0E0E60DF71DF2
:1036600090819411CFCF11E0811A9108A108B1087F
:103670008D819E81AF81B8850196A11DB11D898381
:103680009A83AB83BC8389859A85AB85BC85823060
:103690009105A105B10508F46BC08C019D0181E085
:1036A00090E0A0E0B0E02D863E8620C04F87588B8A
:1036B000ED85FE855190ED87FE87EF85F889E60D53
:1036C000F71DE081E5113DC04F5F5F4F6F4F7F4FAA
:1036D000E1E08E1A9108A108B1080196A11DB11D63
:1036E00080179107A207B30709F447C04C155D0581
:1036F0006E057F05D8F21F86188A40E050E0BA01B7
:10370000D7CF6FEF7FEFCB016096CDBFDEBFDF91EC
:10371000CF911F910F91FF90EF90DF90CF90BF90CE
:10372000AF909F908F907F906F905F904F903F9061
:103730002F9008954601570184189508A608B708E8
:103740001FCF0D811E812F813885080F191F2A1F59
:103750003B1F09831A832B833C8309851A852B859C
:103760003C8580179107A207B30739F081E05DCF50
:1037700081E090E0A0E0B0E0F0CF69817A818B81B8
:103780009C816150710981099109BECF4F925F926E
:103790006F927F928F929F92AF92BF92CF92DF9261
:1037A000EF92FF920F931F93CF93DF93EC018B0166
:1037B000FB0101900020E9F73197E61BF70B6F0141
:1037C000E12CF12C009709F488C0C114D104E10464
:1037D000F10409F482C04C815D816E817F81888013
:1037E0009980AA80BB80481559056A057B0538F089
:1037F0001C821D821E821F8240E050E0BA01888533
:103800009985AA85BB8584179507A607B70709F48C
:103810007CC0481759076A077B0708F088C02C014D
:103820003D01441A550A660A770A84179507A607C8
:10383000B70750F42C013D01480C591C6A1C7B1C35
:10384000441A550A660A770A81E0481A5108610845
:1038500071084C145D046E047F04D0F1D501C401DD
:10386000841B950BA60BB70B460157018C159D05C4
:10387000AE05BF0510F44C015D018C859D85840F5C
:10388000951FA401B8010E9483448C819D81AE8163
:10389000BF81880D991DAA1DBB1D8C839D83AE839E
:1038A000BF8326013701481859086A087B0881F54B
:1038B000488159816A817B8184179507A607B707DC
:1038C00020F01C821D821E821F82B601C70109C022
:1038D0004114510461047104A9F460E070E080E0D7
:1038E00090E0DF91CF911F910F91FF90EF90DF90CB
:1038F000CF90BF90AF909F908F907F906F905F9090
:103900004F90089573016201A9CF240135019CCF26
:10391000B801680D791DA2018C859D850E948344A4
:103920004C825D826E827F82D301C201C1CF412C65
:10393000512C32017ACF2F923F924F925F926F9229
:103940007F928F929F92AF92BF92CF92DF92EF922F
:10395000FF920F931F93CF93DF93CDB7DEB7679797
:10396000CDBFDEBF1C016A8B7B8B009709F426C29A
:10397000DC0114964D905D906D907C9017974E866B
:103980005F86688A798A18964D905D906D907C90DC
:103990001B974A865B866C867D868E849F84A8886A
:1039A000B98884149504A604B70409F4C2C165015A
:1039B0005401A414B504C604D70408F003C24A187D
:1039C0005B086C087D088E859F85A889B9898A84E3
:1039D0009B84AC84BD8488169906AA06BB0608F0B1
:1039E000ACC124013501D101AD90BD90CD90DC90EA
:1039F0004A0C5B1C6C1C7D1CD301C2010197A10900
:103A0000B1094E845F846888798884199509A6096C
:103A1000B7098A839B83AC83BD83D301C2016A84C7
:103A20007B848C849D8486199709A809B90974013F
:103A300063018E849F84A888B9888C149D04AE0489
:103A4000BF0408F073C1D1016D917D918D919C915E
:103A5000680D791D8A1D9B1D6C197D098E099F09B2
:103A6000611571058105910509F44AC1F1011785B8
:103A70004E845F84688879888A849B84AC84BD8402
:103A800084149504A604B70408F068C173016201A8
:103A9000C818D908EA08FB084E845F8468887988CA
:103AA0008A849B84AC84BD84481459046A047B04D2
:103AB00068F4D101CD90DD90ED90FC90C40CD51C44
:103AC000E61CF71CC818D908EA08FB08C114D10481
:103AD000E104F10409F463C1D1014D905D906D9052
:103AE0007C9013974E825F82688679861C960D9033
:103AF000BC91A02D8A849B84AC84BD84412C512C24
:103B000032016C8B7D8B8E8B9F8B812F89019A016B
:103B10004E815F816885798516C0F401EA0FFB1F2D
:103B200090818917F9F09FEF891A990AA90AB90AB1
:103B3000EFEF4E1A5E0A6E0A7E0A4C145D046E04A4
:103B40007F0409F426C184169506A606B70628F355
:103B5000E0E0F0E0812C912C5401EA0FFB1F9081F2
:103B60008913E1CF6C897D898E899F89A90198018C
:103B700077FC15C1DA01C9010197A109B1098E834A
:103B80009F83A887B987892B8A2B8B2B09F42AC19D
:103B90006A887B886A827B824E855F85688979899D
:103BA0008A859B85AC85BD85812C912C540177C07D
:103BB0008A019B01081B190B2A0B3B0B481759075D
:103BC0006A077B0750F48A019B010C0D1D1D2E1DF9
:103BD0003F1D081B190B2A0B3B0B012B022B032B40
:103BE000E9F126013701481A590A6A0A7B0AE2E01C
:103BF0004E1651046104710408F0BAC0F101048545
:103C00001585B801680F791FA201CE0101960E94A7
:103C10008344D1011896CD92DD92ED92FC921B97D0
:103C20004A9445284628472809F49CC0F801808119
:103C30008983412C512C32014394D10118964D9225
:103C40005D926D927C921B9781E090E0A0E0B0E0E5
:103C50008C159D05AE05BF0508F084C08981AA8139
:103C6000BB818D93AA83BB83F1019785891791F15D
:103C7000FFEF8F1A9F0AAF0ABF0A4E805F806884E9
:103C8000798484149504A604B70420F5F101808595
:103C90009185A285B3854481558166817781F10143
:103CA000C080D180E280F3808C159D05AE05BF05F4
:103CB00038F0108611861286138680E090E0DC01D1
:103CC00084179507A607B70708F472CF00E010E045
:103CD000980174CF4E805F806884798448145904B9
:103CE0006A047B0409F472C00FEF801A900AA00ADC
:103CF000B00AEA89FB89E80DF91D1082C501B401FB
:103D00006796CDBFDEBFDF91CF911F910F91FF90DE
:103D1000EF90DF90CF90BF90AF909F908F907F906B
:103D20006F905F904F903F902F900895BC01CD0110
:103D300097CE4D905D906D907C90D301C20101971C
:103D4000A109B1098A839B83AC83BD8380E090E0A5
:103D5000DC01CA84DB84EC84FD846BCEC12CD12CC5
:103D600076019ACEF101108611861286138676CFDF
:103D7000F10124853585280F391FF9012081298318
:103D80000196A11DB11DF10180879187A287B3879C
:103D90005FCF6C897D898E899F89A90198014A80AE
:103DA0005B806C807D8045284628472809F4E2CE58
:103DB000621773078407950708F0DCCE60E070E0B7
:103DC000CB019ECF412C512C3201FDCDEE81FF81E4
:103DD0006A887B88E60DF71D10826E817F81888559
:103DE00099858ECFE0E0F0E0F3CFEF92FF920F9352
:103DF0001F93CF93DF937B018A016CE873E20E94EB
:103E00007344009709F46EC0E701E6E0FE2EE12C52
:103E1000382FFC0180E090E0DC015E2F531B2191E4
:103E200040ED420F4A30F0F0422F4F7D4154463072
:103E300088F18993E50EFA9449F0E3946CE873E213
:103E400080E090E00E947344009711F7011511057E
:103E500011F0F801E082DF91CF911F910F91FF9057
:103E6000EF900895880F991FAA1FBB1F880F991FF5
:103E7000AA1FBB1F880F991FAA1FBB1F880F991F5E
:103E8000AA1FBB1F50E060E070E0840F951FA61FC3
:103E9000B71FC3CF880F991FAA1FBB1F880F991F79
:103EA000AA1FBB1F880F991FAA1FBB1F880F991F2E
:103EB000AA1FBB1F4FE9420F463030F449EA420FB8
:103EC00050E060E070E0E1CF4FEB420F463030F45D
:103ED00049EC420F50E060E070E0D7CF40E050E0A6
:103EE000BA01D3CFE12CB2CFCF92DF92EF92FF9203
:103EF0000F931F93CF93DF93CDB7DEB76097CDBFFE
:103F0000DEBF8C016B014EE050E08AEE91E20E9430
:103F10009C44892B09F478C043E150E0B60189EF55
:103F200091E20E949C44892B09F0E7C0E5E1F0E0B2
:103F300078012BEDE20EF11CEC0DFD1D8FE0DE0192
:103F4000119601900D928A95E1F7188A68EA72E25B
:103F5000CE0101960E947344009709F44EC0D12C03
:103F6000D394FC0120812D3209F408C2C12C30ED1C
:103F7000320F3A3008F026C2FC01319640E050E0A2
:103F8000BA01DB01CA01880F991FAA1FBB1FAC0130
:103F9000BD01440F551F661F771F440F551F661F35
:103FA000771F480F591F6A1F7B1F822F90E0C09711
:103FB000AA2797FDA095BA2F480F591F6A1F7B1F8C
:103FC000219180ED820F8A30E0F2CC2039F070959B
:103FD0006095509541955F4F6F4F7F4FF70141932B
:103FE0007F01F4E0DF1649F068EA72E280E090E0D9
:103FF0000E947344009709F0B3CFF801E35DFE4FD0
:104000008081826080836DC0E0E1F0E0780183ED23
:10401000E80EF11CEC0DFD1D8FE0DE011196019004
:104020000D928A95E1F7188A68EA72E2CE0101964C
:104030000E947344009709F44EC0D12CD394FC0124
:1040400020812D3209F49FC1C12C30ED320F3A305E
:1040500008F0B4C1FC01319640E050E0BA01DB0148
:10406000CA01880F991FAA1FBB1FAC01BD01440FD5
:10407000551F661F771F440F551F661F771F480F78
:10408000591F6A1F7B1F822F90E0C097AA2797FDB8
:10409000A095BA2F480F591F6A1F7B1F219180EDF1
:1040A000820F8A30E0F2CC2039F0709560955095FF
:1040B00041955F4F6F4F7F4FF70141937F01F4E0D0
:1040C000DF1649F068EA72E280E090E00E947344F3
:1040D000009709F0B3CFF801E35DFE4F8081816066
:1040E00080836096CDBFDEBFDF91CF911F910F918E
:1040F000FF90EF90DF90CF90089543E150E0B6013C
:104100008DE092E20E949C44892B09F06EC0E5E1AB
:10411000F0E0780127EDE20EF11CEC0DFD1D8FE0C3
:10412000DE01119601900D928A95E1F7188A68EAEE
:1041300072E2CE0101960E947344FC01009709F4DB
:104140004DC0D12CD39420812D3209F421C130E00F
:1041500080ED820F8A3008F02DC1319640E050E0AA
:10416000BA01DB01CA01880F991FAA1FBB1FAC014E
:10417000BD01440F551F661F771F440F551F661F53
:10418000771F480F591F6A1F7B1F822F90E0C0972F
:10419000AA2797FDA095BA2F480F591F6A1F7B1FAA
:1041A000219180ED820F8A30E0F2332339F070954F
:1041B0006095509541955F4F6F4F7F4FF701419349
:1041C0007F01F4E0DF1651F068EA72E280E090E0EF
:1041D0000E947344FC01009709F0B4CFF801E35D3D
:1041E000FE4F8081846080837CCF4AE050E0B6013E
:1041F00081E292E20E949C44892B09F4CDC04FE0F9
:1042000050E0B6018CE292E20E949C44892B09F4B2
:10421000C6C04FE050E0B6018CE392E20E949C449D
:10422000892B09F4D3C04DE050E0B6018CE492E252
:104230000E949C44892B09F4CCC042E150E0B601B5
:104240008AE592E20E949C44892B09F439C142E13B
:1042500050E0B6018DE692E20E949C44892B09F45D
:10426000A6C149E050E0B60180E892E20E949C4479
:10427000892B09F49FC14EE050E0B6018AE892E232
:104280000E949C44892B09F498C14EE050E0B6018D
:1042900089E992E20E949C44892B09F022CF80E1B7
:1042A00090E07801E9EEEE0EF11CF601E80FF91F3F
:1042B0008FE0DE01119601900D928A95E1F7188A40
:1042C00068EA72E2CE0101960E947344FC010097F5
:1042D00009F44DC0D12CD39420812D3209F462C051
:1042E00030E080ED820F8A3008F060C0319640E007
:1042F00050E0BA01DB01CA01880F991FAA1FBB1F3A
:10430000AC01BD01440F551F661F771F440F551F99
:10431000661F771F480F591F6A1F7B1F822F90E06F
:10432000C097AA2797FDA095BA2F480F591F6A1F5B
:104330007B1F219180ED820F8A30E0F2332339F028
:1043400070956095509541955F4F6F4F7F4FF70186
:1043500041937F01F4E0DF1651F068EA72E280E0F9
:1043600090E00E947344FC01009709F0B4CFF8017B
:10437000E35DFE4F808180648083B3CE218101960E
:10438000CC24C394F4CD21810196CC24C3945DCE7A
:104390002181319631E0DCCEECE0F0E037CEE1E196
:1043A000F0E0C6CD2181319631E09BCF40E050E076
:1043B000BA01C4CF40E050E0BA01F7CE40E050E08F
:1043C000BA0171CE40E050E0BA01FFCDE1E1F0E08A
:1043D000A0CE8FE090E07801E5EEEE0EF11CF60144
:1043E000E80FF91F8FE0DE01119601900D928A957A
:1043F000E1F7188A68EA72E2CE0101960E947344DE
:10440000FC01009709F44DC0D12CD39420812D32AA
:1044100009F44EC030E080ED820F8A3008F04CC0C5
:10442000319640E050E0BA01DB01CA01880F991FC4
:10443000AA1FBB1FAC01BD01440F551F661F771F8C
:10444000440F551F661F771F480F591F6A1F7B1F98
:10445000822F90E0C097AA2797FDA095BA2F480F0A
:10446000591F6A1F7B1F219180ED820F8A30E0F275
:10447000332339F070956095509541955F4F6F4F9C
:104480007F4FF70141937F01F4E0DF1651F068EAB6
:1044900072E280E090E00E947344FC01009709F012
:1044A000B4CFF801E35DFE4F80818061808319CE37
:1044B0002181319631E0AFCF40E050E0BA01D8CF52
:1044C00084E190E078012DEEE20EF11CF601E80F98
:1044D000F91F8FE0DE01119601900D928A95E1F7A8
:1044E000188A68EA72E2CE0101960E947344FC01C8
:1044F000009709F44DC0D12CD39420812D3209F4BA
:104500004EC030E080ED820F8A3008F04CC031960A
:1045100040E050E0BA01DB01CA01880F991FAA1FD1
:10452000BB1FAC01BD01440F551F661F771F440F11
:10453000551F661F771F480F591F6A1F7B1F822F49
:1045400090E0C097AA2797FDA095BA2F480F591F52
:104550006A1F7B1F219180ED820F8A30E0F23323A6
:1045600039F070956095509541955F4F6F4F7F4F33
:10457000F70141937F01F4E0DF1651F068EA72E23F
:1045800080E090E00E947344FC01009709F0B4CFF2
:10459000F801E35DFE4F808180628083A2CD21819E
:1045A000319631E0AFCF40E050E0BA01D8CF84E19E
:1045B00090E077CE8BE090E00ECF80E190E082CF6C
:1045C000E0E6F6E081E3818380E3858381E0868312
:1045D0002FEF87EA91E6215080409040E1F700C03C
:1045E00000000895E0E6F6E081E2818380E28683C0
:1045F00081E085830895E0E7F0E084818E7F848305
:10460000E0E0F9E010A211A28DE790E086A397A365
:1046100026E0208386A797A787818064878381818E
:10462000806881830895E0E0F9E0108287818F7BC4
:10463000878381818F778183E0E7F0E084818160E7
:10464000848308950F931F93FC01068517852089A5
:104650003189400F511F621F731F46875787608B38
:10466000718B1F910F9108959B0140E050E0BC01B8
:1046700082E994E30E94AB18CB0108950895089550
:10468000089580E090E0089508952F923F924F9210
:104690005F926F927F928F929F92AF92BF92CF92D2
:1046A000DF92EF92FF920F931F93CF93DF93CDB7DB
:1046B000DEB76697CDBFDEBF8C017B01B42E6901EA
:1046C000FC0186859785A089B189828B938BA48B09
:1046D000B58B2230310509F49DC4F80184819581A0
:1046E000A681B781892B8A2B8B2B09F059C166EDE6
:1046F00072E2C7010E948C44892B09F46FC445E023
:1047000050E063EF72E2C7010E949C44892B09F4D8
:1047100051C449E050E069EF72E2C7010E949C4435
:10472000892B09F463C46CEB72E2C7010E948C44CC
:10473000892B09F457C463E073E2C7010E948C44DB
:10474000892B09F444C2D8015A968C915A97882330
:10475000A9F0D3968C91D397882381F05C962C9105
:10476000222309F462C4F80113AA2111F0C746A557
:1047700057A5B801665E7F4FC80182DFD801DF967A
:104780008C918823E9F0F801E85AFF4F8081882353
:10479000B9F098012F5B3F4FD9018C91882309F420
:1047A0004FC41082F9018081F801ED5AFF4F40811A
:1047B0005181B801615C7F4F8111D6C7C80160DFAC
:1047C000F801EC59FF4F80818823E9F098012358C4
:1047D0003F4FD9018C918823B1F0A8014A595F4F0E
:1047E000DA018C91882309F438C4D9011C92DA01CA
:1047F0008C91D801A858BF4F4D915C91BF01811198
:104800009EC7C8013DDFF801E757FF4F808188232D
:10481000E9F098012E553F4FD9018C918823B1F0D2
:10482000A80145575F4FDA018C91882309F422C40F
:10483000D9011C92DA018C91D801A356BF4F4D913A
:104840005C91BF0181118CC7C8011ADFF801E255E4
:10485000FF4F80818823F9F0980129533F4FD901F8
:104860008C918823C1F0A80140555F4FDA018C91EB
:10487000882309F40CC4D9011C92DA018C91D80167
:10488000AE53BF4F4D915C91BF01882309F45BC7C4
:10489000C8010E94183C6FE073E2C7010E948C447B
:1048A000892B09F48AC160E273E2C7010E948C443B
:1048B000892B09F4C4C062E373E2C7010E948C44EF
:1048C000892B09F427C760E473E2C7010E948C4476
:1048D000892B09F430C76AEA72E2C7010E94C44416
:1048E000892B49F1F801148215821682178248013A
:1048F000FDE28F0E911C28012AE1420E511C380165
:1049000033ED630E711CD4018C91882359F01C92F5
:10491000F40171978081B201882309F44BC1C80169
:104920000E94143CB5E28B0E911CE5E24E0E511C28
:104930004614570441F7BBE0CB16D10480F0460182
:10494000FAE08F1A91088E0C9F1C4AE050E06DE44B
:1049500073E2C4010E947644892B09F4B0C668E56D
:1049600073E2C7010E94C444892B09F406C745E0DD
:1049700050E060ED72E2C7010E949C44892B09F46B
:104980002AC1F80184819581A681B781FC01319704
:10499000E232F10508F08AC0E250FF4F0C94404229
:1049A000BB2009F4A4CE6FEA72E2C7010E948C44D6
:1049B000892B09F49CCE6AEA72E2C7010E948C44FA
:1049C000892B09F494CE64EB72E2C7010E948C44F7
:1049D000892B09F48CCE6CEB72E2C7010E948C44E7
:1049E000892B09F484CE64EC72E2C7010E948C44E6
:1049F000892B09F47CCE45E050E060ED72E2C701FE
:104A00000E949C44892B09F472CED80118966D91AE
:104A10007C911997FB0101900020E9F7AF0141500B
:104A20005109461B570BC7010E949C44892B09F46E
:104A30005ECEB70184EA94E30E94C61B86C0F801EB
:104A4000E35DFE4F81818B7F877F818389E1B5970D
:104A5000DF011D928A95E9F789EBEE5EF109DF012E
:104A60001D928A95E9F7C8010E94163B34CF4AE0AF
:104A700050E068EC73E2C7010E949C44892B41F42A
:104A800040E050E0B80161527F4FC7010C96ADD9AC
:104A90006FEA72E2C7010E948C44892B49F5D80164
:104AA00014961D921D921D921C9217976FEA72E246
:104AB000C7010E948C44892BD9F4F801E35DFE4FB5
:104AC000818182608183F80184819581A681B7818B
:104AD0000897A105B10561F084819581A681B78110
:104AE0004D97A105B10521F0148215821682178217
:104AF00064EB72E2C7010E948C44892B39F064ECAC
:104B000072E2C7010E948C44892B59F4F801E35DDD
:104B1000FE4F81818D7F8183F80114821582168278
:104B200017826AEA72E2C7010E948C44892B69F4F9
:104B3000D80114961D921D921D921C921797F80190
:104B4000E35DFE4F81818E7F81836696CDBFDEBFA0
:104B5000DF91CF911F910F91FF90EF90DF90CF9059
:104B6000BF90AF909F908F907F906F905F904F908D
:104B70003F902F90089580E090E0DC01DD2039F037
:104B8000B095A095909581959F4FAF4FBF4FF8017D
:104B9000E15EFE4F808391836FEA72E2C7010E945B
:104BA0008C44892B09F0A4CFF80114821582168257
:104BB00017827CCFC80168DDB5CEF801E35DFE4FFA
:104BC000818184608183C8010E941A3B84CEC80120
:104BD0000E94123BB8CD98012F5F3E4F2D8B3E8B2C
:104BE00081E0D9018C93F801E95FFE4FB082F701B3
:104BF00085818053F801EA5FFE4F8083480125E2FA
:104C0000829F800C911C1124A401465E5F4F4A01D3
:104C100081E59CE2DA0154968D939C9355978081AF
:104C200011968C93F70127812D3209F4EBC5379645
:104C300088E0282E312C98E0492E512C612C712CC3
:104C400060E080ED820F8A3008F0D2C73196462F9F
:104C500080E090E0DC012C013D01440C551C661CF9
:104C6000771CD301C201880F991FAA1FBB1F880F91
:104C7000991FAA1FBB1F840D951DA61DB71D422E8F
:104C8000512C20E3421A5108662457FC6094762C7C
:104C9000840D951DA61DB71D4F5F219130ED320F7C
:104CA0003A30C8F2442E512C3FEF431A530A66247F
:104CB00057FC6094762C47E0440E511C611C711C1B
:104CC0001201662309F4F0C144275527BA01481B95
:104CD000590B6A0B7B0BD4011A964D935D936D9320
:104CE0007C931D971E968D919D910D90BC91A02D4A
:104CF000F4010097A105B10509F016C512A221E043
:104D000023A3840F951FA61FB71FF40186879787DB
:104D1000A08BB18BF801ED5DFE4F80819181A28166
:104D2000B381840F951FA61FB71F80839183A28331
:104D3000B3835401F5E0AF0EB11CF701E20DF31D92
:104D40008FE0DE01119601900D928A95E1F7188AA5
:104D500068EA72E2CE0101960E947344FC0100975A
:104D600009F47AC7950144E0B42EA12C098B1A8B63
:104D7000890120812D3209F49DC4212C80ED820F00
:104D80008A3008F0F5C43196322C80E090E0DC01E6
:104D9000AC01BD01440F551F661F771FDB01CA011F
:104DA000880F991FAA1FBB1F880F991FAA1FBB1F1F
:104DB000840F951FA61FB71F30E020533109A901AA
:104DC000662757FD6095762F840F951FA61FB71F86
:104DD0003394219130ED320F3A30D0F2222039F065
:104DE000B095A095909581959F4FAF4FBF4FF8011B
:104DF00081938F01A30CBA9459F0A39468EA72E2EC
:104E000080E090E00E947344FC01009709F0B1CF6C
:104E100009891A898A2D90E00196AA2797FDA09505
:104E2000BA2F480E591E6A1E7B1EF701E40DF51DB0
:104E300030813D3209F4E2C420E080ED830F8A30F6
:104E400008F0DAC6319680E090E0DC01AC01BD01EB
:104E5000440F551F661F771FDB01CA01880F991F7A
:104E6000AA1FBB1F880F991FAA1FBB1F840F951F66
:104E7000A61FB71F432F50E040535109662757FD27
:104E80006095762F840F951FA61FB71F319140EDB7
:104E9000430F4A30D8F2222339F0B095A09590956F
:104EA00081959F4FAF4FBF4FF40183839483D70108
:104EB0008C918A3309F4A4C6C601A0E0B0E0009743
:104EC000A105B10509F49FC6F7013196412C512C7B
:104ED000320105C0481659066A067B0640F43FEFCA
:104EE000431A530A630A730A21912A3399F7A301DB
:104EF00092012F5F3F4F4F4F5F4F298B3A8B4B8B68
:104F00005C8BA988BA88B5012C013D01421A530A6D
:104F1000640A750AF40182859385A485B585841594
:104F20009505A605B70550F46501C80ED91E2601E2
:104F3000612C712C421A530A640A750ACA18DB08DC
:104F40006E0D7F1DA601D40154968D919C915597AD
:104F50000E948344F40182859385A485B5858415D8
:104F60009505A605B70550F424893589280F391F02
:104F7000D9011C9282859385A485B585F801EC5FE3
:104F8000FE4FC082D1823297C082D18229893A896C
:104F90004B895C89281739074A075B0708F4F1CC6D
:104FA000AD89BE891C92F401A68AB78A81E0808F00
:104FB000818FE7CCD7010D900020E9F7AD0141507A
:104FC00051094E195F09552747505109B7016B5FC9
:104FD0007F4F81E495E30E94AA449BCBC8010E94C5
:104FE000F93A8DCBC8010E940E3BA5CBF701019089
:104FF0000020E9F7AF01415051094E195F095527CB
:105000004B505109B701675F7F4F88E295E30E94DB
:10501000AA4489CBDB018C918D3009F05ECB1196CF
:105020008C918A3009F059CB90CDF801848195811B
:10503000A681B781892B8A2B8B2B09F494CB9ECB2D
:10504000D80114964D915D916D917C911797452BE8
:10505000462B472B09F4A5CBB3CBD80114964D9022
:105060005D906D907C90179745284628472809F455
:10507000BCCBC9CBD80114964D905D906D907C90BF
:10508000179745284628472809F4D2CBDFCBD8010B
:1050900014964D905D906D907C901797452846280A
:1050A000472809F0F8CBE7CBAC01BD0114CE49E0AD
:1050B00050E063ED73E2C7010E949C44892B09F024
:1050C0006BCD40E050E0B8016F507F4FC7010B96A9
:1050D0000E94F51E61CD6CEB72E2C7010E948C4408
:1050E000892B09F0E3CCF80114821582168217820D
:1050F000E35DFE4F818182608183D8CC46E050E041
:105100006AEA73E2C7010E949C44892B09F044CDEE
:10511000F7018081882309F4D9C68A3309F4D6C6F9
:10512000319602C08A3321F09F0181918111FACF1B
:105130002115310509F430CDC80187509F4FDC019E
:10514000ED91FC911082F9014181D901423209F4BB
:1051500096C61196442309F4DFC620E0BD0110C0B5
:1051600031E0320F6F5F7F4FDC01ED91FC91E20F78
:10517000F11D4083FB014081442309F472C5232FB4
:10518000423271F7DB0111963C9111973C3241F7A5
:1051900012963C911297323219F730E0FC0180816F
:1051A0009181820F931FFC011082CD01039613960B
:1051B0003C91332309F4B3C620E0D801A550BF4F7A
:1051C000BC01CD0111C041E0420F6F5F7F4FDC0198
:1051D000ED91FC911197E20FF11D3083FB013081BD
:1051E000332309F448C5242F323269F7DB011196C5
:1051F0004C914C3241F7AC01CB01DA0130E0ED913A
:10520000FC91E20FF31F10824C01B2E08B0E911C57
:10521000FC0122812D3209F429C6F40161E070E01D
:10522000C12C80ED820F8A3008F072C63196BC2CFA
:1052300080E090E0DC01AC01BD01440F551F661F0A
:10524000771FDB01CA01880F991FAA1FBB1F880F98
:10525000991FAA1FBB1F840F951FA61FB71F422FA0
:1052600050E040535109662757FD6095762F840F13
:10527000951FA61FB71FB394219130ED320F3A301E
:10528000D0F26B2D70E06F5F7F4FCC2039F0B0957E
:10529000A095909581959F4FAF4FBF4FF801E25079
:1052A000FF4F8083860E971EF40120812D3209F472
:1052B000D4C5F40161E070E0C12C80ED820F8A302A
:1052C00008F022C63196BC2C80E090E0DC01AC01F5
:1052D000BD01440F551F661F771FDB01CA01880FF0
:1052E000991FAA1FBB1F880F991FAA1FBB1F840FDE
:1052F000951FA61FB71F422F50E040535109662744
:1053000057FD6095762F840F951FA61FB71FB39486
:10531000219130ED320F3A30D0F26B2D70E06F5F9B
:105320007F4FCC2039F0B095A095909581959F4FF7
:10533000AF4FBF4FF801E350FF4F8083860E971E9B
:10534000F40120812D3209F47FC5F40161E070E0A1
:10535000C12C80ED820F8A3008F0D2C53196BC2C6A
:1053600080E090E0DC01AC01BD01440F551F661FD9
:10537000771FDB01CA01880F991FAA1FBB1F880F67
:10538000991FAA1FBB1F840F951FA61FB71F422F6F
:1053900050E040535109662757FD6095762F840FE2
:1053A000951FA61FB71FB394219130ED320F3A30ED
:1053B000D0F26B2D70E06F5F7F4FCC2039F0B0954D
:1053C000A095909581959F4FAF4FBF4FF801E15049
:1053D000FF4F8083F401E60FF71F20812D3209F47F
:1053E0002EC5D12C80ED820F8A3008F085C531960C
:1053F00080E090E0DC01AC01BD01440F551F661F49
:10540000771FDB01CA01880F991FAA1FBB1F880FD6
:10541000991FAA1FBB1F840F951FA61FB71F422FDE
:1054200050E040535109662757FD6095762F840F51
:10543000951FA61FB71F219130ED320F3A30D8F2D9
:10544000DD2039F0B095A095909581959F4FAF4F95
:10545000BF4FF801F39580839FCB6FEA72E2C701DB
:105460000E948C44892B29F4F8011482158216823B
:10547000178264EB72E2C7010E948C44892B09F009
:1054800015CBD80114961D921D921D921C92179750
:10549000F801EE5DFE4F6081B5E26B02B0011124B0
:1054A000F801E60FF71F128E148E15AE14AE665E6D
:1054B0007F4F600F711FC8010E94C63BF7CA6FEA99
:1054C00072E2C7010E948C44892B09F011CB8DE157
:1054D00090E0A0E0B0E0F80184839583A683B783D1
:1054E000E35DFE4F81818160818380EC93E2D8018E
:1054F00018968D939C931997D9CA6CEB72E2C701E9
:105500000E948C44892B09F0D1CA4ECB6FEA72E21B
:10551000C7010E948C44892B09F0EACAD80114966D
:105520001D921D921D921C921797F801E950FF4F92
:10553000808131968083BACA47E050E066E873E222
:10554000C7010E949C44892B71F48FE793E2D80134
:1055500018968D939C931997F70187818053F801D2
:10556000EF5DFE4F80836FEA72E2C7010E948C44B8
:10557000892B39F4D80114961D921D921D921C920C
:1055800017976FE773E2C7010E948C44892B09F0DB
:105590008DCAF8011482158216821782C8010E94F2
:1055A0001E3B84CA47E050E062EA73E2C7010E94F2
:1055B0009C44892B09F435C16FEA72E2C7010E944D
:1055C0008C44892B09F094CAD80114961D921D921F
:1055D0001D921C92179761E57DE2C8010E94693B0C
:1055E00065CA46E050E069EB73E2C7010E949C4443
:1055F000892B09F0D1CAB701C8010E94741FCCCA17
:1056000047E050E061EB73E2C7010E949C44892BA4
:1056100009F42BC16FEA72E2C7010E948C44892B06
:1056200009F066CAD80114961D921D921D921C9213
:105630001797C8010E94473B39CA4BE050E06EE81B
:1056400073E2C7010E949C446C01009709F0A4CA50
:105650006AE973E2C7010E94C444892B09F49CCA19
:10566000D7018C91882309F497CA823209F425C3A3
:10567000F701319603C0823209F420C3DF01819122
:105680008111F9CF89CA6FEA72E2C7010E948C4486
:10569000892B39F4D80114961D921D921D921C92EB
:1056A000179764EB72E2C7010E948C44892B09F0C2
:1056B000FDC97ACA21813196222423945FCB8114BB
:1056C000910409F44CC9D4018E9190E0C09725E271
:1056D000289FF001299FF00D11247A96E00FF11F09
:1056E00081E080838C918053818382818823F1F0D3
:1056F000D80114964D915D916D917C9117974A3028
:1057000051056105710509F472C0BF01C8010E940D
:10571000AB3B2DC9F801E35DFE4F81818860818339
:10572000C8010E942F3BD7C813A2EBCABF01C80112
:105730000E943E231CC9C8010E94653BCCC8C80119
:105740000E94183C60C8C8010E944023A4C846A516
:1057500057A5B801665E7F4FC8010E94183C0EC86D
:10576000C8010E94183C72C8C8010E94183C28C891
:10577000322C80E090E0DC0131CBBAE0CB16D104D2
:1057800008F4F5C84601E9E08E1A91088E0C9F1CBA
:1057900049E050E06CE673E2C4010E947644892B34
:1057A00009F43FC2B1E1CB16D10408F4E0C866E7C2
:1057B00073E2C6010F978E0D9F1D0E94C44400978F
:1057C00009F4D5C8DC018E9190E0C09725E2289FAE
:1057D000F001299FF00D11247A96E00FF11F10823D
:1057E000128213A212A28C9180538183C0C8149696
:1057F0001D921D921D921C92179787CF3181319671
:1058000021E01BCBF7013896D70118962C91A9E01F
:105810002A2E312CB9E04B2E512C612C712C61E0D9
:1058200010CA8091912E853008F0C6CED701179608
:105830008C91883209F43DC387E090E06DEF74E20B
:105840008E0D9F1D0E947344009709F40EC240E024
:10585000DD24D394D40E50E04730510508F058C0F1
:10586000FA01E05EFE4F0C944042B701C8010E946D
:10587000741FD0CE2091912E822E912CDC012C9180
:105880002D3209F410C3B12C40ED420F4A3008F01C
:1058900054C3FC01319680E090E0DC01AC01BD0115
:1058A000440F551F661F771FDB01CA01880F991F20
:1058B000AA1FBB1F880F991FAA1FBB1F840F951F0C
:1058C000A61FB71F422F50E040535109662757FDCE
:1058D0006095762F840F951FA61FB71F219140ED6D
:1058E000420F4A30D8F2BB2039F0B095A095909580
:1058F00081959F4FAF4FBF4FF401EE0FFF1FE29511
:10590000F295F07FFE27E07FFE27EF5AF24D868F5B
:105910006DEF74E280E090E00E947344009709F418
:10592000A4C14D2D95CF2091912E822E912CFC015A
:1059300020812D3209F4B2C2B12C40ED420F4A3021
:1059400008F0F7C2FC01319680E090E0DC01AC0188
:10595000BD01440F551F661F771FDB01CA01880F69
:10596000991FAA1FBB1F880F991FAA1FBB1F840F57
:10597000951FA61FB71F422F50E0405351096627BD
:1059800057FD6095762F840F951FA61FB71F219195
:1059900040ED420F4A30D8F2BB2039F0B095A095C7
:1059A000909581959F4FAF4FBF4FF401EE0FFF1FB2
:1059B000E295F295F07FFE27E07FFE27EF5AF24D49
:1059C000858FA6CF0196FC0101900020E9F7329760
:1059D00010826091912EB0E26B9FB0011124685942
:1059E000724D40E050E00E94F51E92CF2091912E22
:1059F000822E912CDC012C912D3209F449C2B12C5C
:105A000040ED420F4A3008F0A0C2FC01319680E020
:105A100090E0DC01AC01BD01440F551F661F771FEC
:105A2000DB01CA01880F991FAA1FBB1F880F991F8E
:105A3000AA1FBB1F840F951FA61FB71F422F50E040
:105A400040535109662757FD6095762F840F951FA7
:105A5000A61FB71F219140ED420F4A30D8F2BB205C
:105A600039F0B095A095909581959F4FAF4FBF4F5E
:105A7000F401EE0FFF1FE295F295F07FFE27E07F25
:105A8000FE27EF5AF24D858B968B42CFBC016F5F9C
:105A90007F4FFB0101900020E9F73297108280913F
:105AA000912EF0E28F9FC00111248E5A924D0E94D8
:105AB00095442ECF2091912E822E912CFC01208195
:105AC0002D3209F4E0C1B12C40ED420F4A3008F00C
:105AD00038C2FC01319680E090E0DC01AC01BD01F0
