S01400006D61747269785F636C6F636B2E7372656310
S1130000B2C30000CFC30000CDC30000CBC30000C7
S1130010C9C30000C7C30000C5C30000C3C30000B8
S1130020C1C30000BFC300000C944438BBC300002C
S1130030B9C30000B7C300000C948F30B3C30000F1
S1130040B1C30000AFC30000ADC30000ABC30000E8
S1130050A9C30000A7C30000A5C30000A3C30000F8
S1130060A1C300009FC300009DC300009BC3000008
S113007099C3000097C3000095C3000093C3000018
S113008091C300008FC300008DC300008BC3000028
S113009089C3000087C3000085C3000083C3000038
S11300A081C300007FC300007DC300007BC3000048
S11300B079C3000077C3000075C3000073C3000058
S11300C071C300006FC300006DC300006BC3000068
S11300D069C3000067C3000065C3000063C3000078
S11300E061C300005FC300005DC300005BC3000088
S11300F059C3000057C3000055C3000053C3000098
S113010051C300004FC300000C941D384BC30000C2
S113011049C3000047C3000045C3000043C30000B7
S113012041C300003FC300003DC300003BC30000C7
S113013039C3000037C3000035C3000033C30000D7
S113014031C300002FC300002DC300002BC30000E7
S113015029C3000027C3000025C3000023C30000F7
S113016097C500001FC300001DC300001BC300008F
S113017019C3000017C3000015C3000013C3000017
S113018011C300000FC300000DC300000BC3000027
S113019009C3000007C3000005C3000003C3000037
S11301A001C30000FFC20000FDC20000FBC200004A
S11301B0F9C20000F7C20000F5C20000F3C200005B
S11301C0F1C20000EFC20000EDC20000EBC200006B
S11301D0E9C20000E7C20000E5C20000E3C200007B
S11301E0E1C20000DFC20000DDC20000DBC200008B
S11301F0D9C20000D7C20000D5C20000A32F342FFB
S11302009A2EB92F9A2E9A2E9A2EF92E9A2E9A2E2B
S11302109A2E9A2E9A2E9A2E9A2E9A2E9A2E9A2E9A
S11302209A2E9A2E9A2E9A2E9A2E9A2E9A2E9A2E8A
S11302309A2E9A2E9A2E9A2E9A2E9A2E9A2E9A2E7A
S11302409A2E9A2E9A2E9A2E9A2E9A2E9A2E9A2E6A
S11302509A2E9A2E9A2E9A2E9A2E9A2E9A2E9A2E5A
S11302602E2F022FC82EB22EA82E00000000003E12
S11302705B4F5B3E3E6B4F6B3E1C3E7C3E1C183C12
S11302807E3C181C577D571C1C5E7F5E1C00183C6E
S11302901800FFE7C3E7FF0018241800FFE7DBE7B7
S11302A0FF30483A060E2629792926407F0505079E
S11302B0407F05253F5A3CE73C5A7F3E1C1C0808FA
S11302C01C1C3E7F14227F22145F5F005F5F0609BF
S11302D07F017F006689956A606060606094A2FF18
S11302E0A29408047E040810207E201008082A1C0A
S11302F008081C2A08081E101010100C1E0C1E0CD6
S113030030383E3830060E3E0E0600000000000075
S1130310005F00000007000700147F147F14242AE4
S11303207F2A1223130864623649562050000807B6
S11303300300001C2241000041221C002A1C7F1CD7
S11303402A08083E080800807030000808080808D9
S1130350000060600020100804023E5149453E0040
S1130360427F400072494949462141494D3318149E
S1130370127F1027454545393C4A494931412111ED
S113038009073649494936464949291E00001400DF
S11303900000403400000008142241141414141402
S11303A0004122140802015909063E415D594E7C60
S11303B01211127C7F494949363E414141227F4115
S11303C041413E7F494949417F090909013E414173
S11303D051737F0808087F00417F41002040413F5E
S11303E0017F081422417F404040407F021C027F6D
S11303F07F0408107F3E4141413E7F090909063EC2
S11304004151215E7F091929462649494932030190
S11304107F01033F4040403F1F2040201F3F4038A2
S1130420403F631408146303047804036159494D7D
S113043043007F4141410204081020004141417FB3
S11304400402010204404040404000030708002029
S1130450545478407F284444383844444428384429
S113046044287F385454541800087E090218A4A460
S11304709C787F0804047800447D40002040403D7F
S1130480007F1028440000417F40007C04780478F9
S11304907C080404783844444438FC18242418188C
S11304A0242418FC7C0804040848545454240404E8
S11304B03F44243C4040207C1C2040201C3C4030D5
S11304C0403C44281028444C9090907C4464544C04
S11304D0440008364100000077000000413608005F
S11304E002010204023C2623263C1EA1A161123A09
S11304F04040207A38545455592155557941215456
S1130500547841215554784020545579400C1E525A
S113051072123955555559395454545939555454FE
S1130520580000457C410002457D420001457C4065
S1130530F0292429F0F0282528F07C545545002082
S113054054547C547C0A097F49324949493232481F
S1130550484832324A4848303A4141217A3A424086
S11305602078009DA0A07D39444444393D4040405A
S11305703D3C24FF2424487E4943662B2FFC2F2B2B
S1130580FF0929F620C0887E0903205454794100CC
S113059000447D413048484A32384040227A007A4B
S11305A00A0A727D0D19317D2629292F2826292929
S11305B0292630484D40203808080808080808084B
S11305C0382F10C8ACBA2F102834FA00007B000072
S11305D008142A142222142A1408AA005500AAAACC
S11305E055AA55AA000000FF00101010FF001414B3
S11305F014FF001010FF00FF1010F010F01414147A
S1130600FC001414F700FF0000FF00FF1414F404AE
S1130610FC141417101F10101F101F1414141F00A3
S1130620101010F0000000001F101010101F101008
S11306301010F010000000FF101010101010101017
S113064010FF10000000FF140000FF00FF00001F57
S113065010170000FC04F414141710171414F404F5
S1130660F40000FF00F714141414141414F700F722
S1130670141414171410101F101F141414F414104D
S113068010F010F000001F101F0000001F140000E5
S113069000FC140000F010F01010FF10FF141414EC
S11306A0FF141010101F00000000F010FFFFFFFFE8
S11306B0FFF0F0F0F0F0FFFFFF0000000000FFFF8C
S11306C00F0F0F0F0F38444438447C2A2A3E147EFF
S11306D002020606027E027E0263554941633844E3
S11306E0443C04407E201E2006027E020299A5E7B7
S11306F0A5991C2A492A1C4C7201724C304A4D4D52
S1130700303048784830BC625A463D3E4949490039
S11307107E0101017E2A2A2A2A2A44445F44444055
S1130720514A444040444A51400000FF0103E080E4
S1130730FF000008086B6B083612362436060F09D2
S11307400F06000018180000001010003040FF01D0
S113075001001F01011E00191D1712003C3C3C3C06
S113076000000000000011241FBECFEFCDBFDFE268
S1130770DEBF11E2A0E0B0E2E8E7F4E800E00BBF7E
S113078002C007900D92AE3AB107D9F72DE2AEEA56
S1130790B1E201C01D92A938B207E1F70E94A33764
S11307A00C943A422DCC809150008260809350008A
S11307B08091510081FFFCCF88ED84BF81E080935C
S11307C040000895E0E6F6E080E2818385832FEF20
S11307D033E284EF90E02150304080409040D9F7DC
S11307E000C0000008950F931F93CF93DF938B01F4
S11307F0C1E8D6E224E6DE011D922A95E9F7FE015E
S113080001900020E9F79F01215031092158364217
S1130810D901AF57B94D4AE0E8E4F0E201900D92F6
S11308204A95E1F7BC01C9018557994D0E94253FBE
S1130830FE0101900020E9F7319742E25CE262E2B6
S113084070E04083518362837383B801CF010396C0
S11308500E94253FFE0101900020E9F7319782E2D2
S113086090E080839183109296251092972588EECC
S113087093E0EEEAF1E2DF019C011D922150304049
S1130880E1F7DF93CF938BE190E29F938F930E94E4
S1130890463F5AEA86EE96E9A1E0515080409040E6
S11308A0A040D9F70000109296251092972588EE63
S11308B093E0EEEAF1E2DF019C011D922150304009
S11308C0E1F783E590E29F938F938BE190E29F930E
S11308D08F930E94463F3AEA46EE56E981E0315052
S11308E0404050408040D9F7000060E270E28EEA58
S11308F091E20E942C3F21E0ADB7BEB71896ADBF80
S1130900BEBF892B31F0822FDF91CF911F910F91C0
S1130910089520E0822FDF91CF911F910F910895C8
S1130920CF93DF931092962510929725CEEAD1E2C9
S113093088EE93E0DE01FC011D923197E9F783E133
S113094090E29F938F938BE190E29F938F930E9409
S1130950463FFFEF23E234EF80E0F1502040304087
S11309608040D9F700C0000060E270E2CE010E942E
S11309702C3F0F900F900F900F90892B09F4BEC05D
S1130980109296251092972588EE93E0DE01FC01E3
S11309901D923197E9F78CE390E29F938F938BE15B
S11309A090E29F938F930E94463FFFEF23ED30E345
S11309B0F15020403040E1F700C0000066E970E2E9
S11309C081EA90E210DF109296251092972588EE26
S11309D093E0DE019C011D9221503040E1F78BEA47
S11309E090E29F938F938BE190E29F938F930E9469
S11309F0463F3FEF83ED90E3315080409040E1F774
S1130A0000C00000DE010D900020E9F71197AE5AF6
S1130A10B142FE012DB73EB7285F3F4F2DBF3EBF09
S1130A2080E090E021910196A817B9070CF051C01D
S1130A3086E0E5EBF0E2ABEEB5E201900D928A952B
S1130A40E1F7109296251092972588EE93E0DE0147
S1130A50FC011D923197E9F78BEB90E29F938F9302
S1130A608BE190E29F938F930E94463FFFEF23ED2B
S1130A7030E3F15020403040E1F700C00000109214
S1130A8096251092972588EE93E0EEEAF1E2DF01D5
S1130A909C011D9221503040E1F787EC90E29F9336
S1130AA08F938BE190E29F938F930E94463F3FEF99
S1130AB083ED90E3315080409040E1F700C00000A6
S1130AC0ADB7BEB71896ADBFBEBF81E0DF91CF9181
S1130AD008952A3009F0A6CFFC01E255FE4DABEE95
S1130AE0B5E280E090E002C02D93019621912D3073
S1130AF0D9F7FC01E551FA4D1082A3CF80E0DF91D4
S1130B00CF9108950F931F93CF93DF9300D0CDB768
S1130B10DEB78C01BC018FEF95E20E94253FF801FE
S1130B2001900020E9F73197E01BF10BFF93EF935D
S1130B3086E790E29F938F9370E07F9360E06F93DA
S1130B4069837A830E94843F01E816E28DE0E9ED2F
S1130B50F0E2D80101900D928A95E1F769817A81DA
S1130B608EE896E20E94253FF80101900020E9F703
S1130B7031978DE090E080839183109296251092B6
S1130B80972588EE93E0EEEAF1E2DF019C011D92E5
S1130B9021503040E1F71F930F938BE190E29F9334
S1130BA08F930E94463F3FEF8FE493EC3150804097
S1130BB09040E1F700C0000010929625109297250E
S1130BC088EE93E0EEEAF1E2DF019C011D922150F0
S1130BD03040E1F78FEF95E29F938F938BE190E2A2
S1130BE09F938F930E94463F3FEF8FE493EC3150E5
S1130BF080409040E1F700C00000CDBFDEBF0F9001
S1130C000F90DF91CF911F910F9108952091962518
S1130C10309197252F3B310508F408952FEF37EADB
S1130C2041E6215030404040E1F700C000006ADF57
S1130C308AEA96EEA6E9B1E081509040A040B04027
S1130C40D9F70000109296251092972588EE93E02C
S1130C50EEEAF1E2DF019C011D9221503040E1F700
S1130C6087EE90E29F938F938BE190E29F938F9313
S1130C700E94463F3FEF43EC89E0315040408040C2
S1130C80E1F700C000000F900F900F900F900895AF
S1130C901F920F920FB60F9211240BB60F922F933F
S1130CA03F938F939F93EF93FF9380919625909119
S1130CB097259C012F5F3F4F2093962530939725CE
S1130CC02091A009FC01E255FE4D2083FF91EF9194
S1130CD09F918F913F912F910F900BBE0F900FBE5C
S1130CE00F901F9018958F929F92AF92BF92CF92C0
S1130CF0DF92EF92FF920F931F93CF93DF93EC0158
S1130D00CEA4DFA4E8A8F9A85C0102E3A00EB11CFC
S1130D1001E010E0A7019601B50189810E94A52D8B
S1130D20811140C01C828A8D9B8DAC8DBD8D4AA1E2
S1130D305BA16CA17DA197018601041B150B260BF9
S1130D40370B081719072A073B07F0F48B80912CFF
S1130D5012E08116910428F417C08A8D9B8DAC8D06
S1130D60BD8DC80ED91EEA1EFB1E01E010E0A701CE
S1130D709601B50189810E94A52D21E0821A91086E
S1130D8031E08316910449F780E0DF91CF911F9100
S1130D900F91FF90EF90DF90CF90BF90AF909F9016
S1130DA08F90089581E0F1CF4F925F926F927F927E
S1130DB08F929F92AF92BF92CF92DF92EF92FF9267
S1130DC00F931F93CF93DF93EC012A013B01CEA431
S1130DD0DFA4E8A8F9A8C416D506E606F70609F4C0
S1130DE06FC08C815E01811122C082E3A80EB11C08
S1130DF001E010E0A3019201B50189810E94262D32
S1130E00811156C04EA65FA668AA79AADF91CF9138
S1130E101F910F91FF90EF90DF90CF90BF90AF9014
S1130E209F908F907F906F905F904F90089502E312
S1130E30A00EB11C01E010E0A7019601B501898163
S1130E400E94A52D81113AC01C828A8D9B8DAC8D88
S1130E50BD8D4AA15BA16CA17DA197018601041BF4
S1130E60150B260B370B081719072A073B0708F041
S1130E70BFCF8B80912C12E08116910428F4B8CF57
S1130E808A8D9B8DAC8DBD8DC80ED91EEA1EFB1EAE
S1130E9001E010E0A7019601B50189810E94A52D0A
S1130EA021E0821A910831E08316910449F7A0CF1A
S1130EB081E044244A94542C3201A4CF81E0A6CF8B
S1130EC080E0A4CF8F929F92AF92BF92CF92DF9295
S1130ED0EF92FF920F931F93CF93DF93EC018C81DA
S1130EE081111DC08881833009F45FC040E050E067
S1130EF060E089810E94722E91E0882371F0892F2D
S1130F00DF91CF911F910F91FF90EF90DF90CF90E1
S1130F10BF90AF909F908F90089590E0F0CFCEA4B3
S1130F20DFA4E8A8F9A85E0102E3A00EB11C01E069
S1130F3010E0A7019601B50189810E94A52D8111B8
S1130F4080C01C828A8D9B8DAC8DBD8D4AA15BA116
S1130F506CA17DA197018601041B150B260B370B91
S1130F60081719072A073B0708F0BCCF8B80912C80
S1130F7012E08116910428F4B5CF8A8D9B8DAC8D37
S1130F80BD8DC80ED91EEA1EFB1E01E010E0A701AC
S1130F909601B50189810E94A52D21E0821A91084C
S1130FA031E08316910449F79DCF8D81813009F09A
S1130FB09DCF80E092E0BE016E5C7F4FFB018C010F
S1130FC0119201501040E1F785E59AEAFE01E05DD7
S1130FD0FD4F8083918382E592E5A1E6B1E48AAB7B
S1130FE09BABACABBDAB82E792E7A1E4B1E67A97E9
S1130FF080839183A283B3838E859F85A889B989D1
S1131000349680839183A283B3838A859B85AC8540
S1131010BD85349680839183A283B3832E8D3F8DC7
S113102048A159A12F5F3F4F4F4F5F4F2EA73FA7B6
S113103048AB59AB01E010E089810E94A52D1D82C7
S113104055CF91E05CCF2F923F924F925F926F9277
S11310507F928F929F92AF92BF92CF92DF92EF9244
S1131060FF920F931F93CF93DF93CDB7DEB76097B3
S1131070CDBFDEBF8F87988B6A017B014801590180
S1131080DC018C91823009F473C1833009F42AC1E4
S11310908130B9F082E06096CDBFDEBFDF91CF91A1
S11310A01F910F91FF90EF90DF90CF90BF90AF9082
S11310B09F908F907F906F905F904F903F902F9074
S11310C008951A0136942794240E351E92968D9114
S11310D09D910D90BC91A02D9101232F332726952E
S11310E0AC01BD01420F531F611D711D49835A8319
S11310F06B837C83EF85F88946A457A460A871A804
S1131100441555056605770509F4CBC28481811120
S113111087C10F8518890E5C1F4F0D831E8301E064
S113112010E029813A814B815C816D817E81AF859C
S1131130B88911968C910E94262D81110EC10981C6
S11311401A812B813C81AF85B8899E960D931D939E
S11311502D933C93D197FD0182A193A1A4A1B5A1A4
S113116028013901F1013196ED83FE83F1E03F223C
S11311709701860101701127222733270B871C87CB
S11311802D873E87C0FE87C2EF85F889E20DF31DE7
S113119042A94F7010E1819E90011124422B42AB71
S11311A021E0EF85F88924832D813E81232F332785
S11311B026956C017D01C20ED31EE11CF11C098130
S11311C01A812B813C81C016D106E206F30609F48C
S11311D06AC0A9019801DF01F296EF83F88701E064
S11311E010E0BF0111968C910E94A52D8111BEC003
S11311F0EF85F8891482828D938DA48DB58D42A1DB
S113120053A164A175A109811A812B813C81041B1E
S1131210150B260B370B081719072A073B0770F520
S11312202381222E312C12E02116310438F1C98297
S1131230DA82EB82FC82EF80F88406C0EF85F889BD
S1131240828D938DA48DB58D480E591E6A1E7B1E0A
S113125001E010E0A3019201B701AF85B8891196AE
S11312608C910E94A52DB1E02B1A3108E1E02E16D5
S1131270310421F7C980DA80EB80FC8001E010E0C2
S1131280A70196016F817885EF85F88981810E9495
S1131290262D811162C0AF85B8899E96CD92DD92CC
S11312A0ED92FC92D197ED81FE81F1700B851C8546
S11312B02D853E85012B022B032B09F4F5C174E027
S11312C0B694A794979487947A95D1F7882D2F850F
S11312D03889E20FF31FD90182AB81E014968C9315
S11312E080E0D9CE8A019B0147E036952795179572
S11312F007954A95D1F7EF85F88982A193A1A4A116
S1131300B5A1080F191F2A1F3B1F09831A832B83BA
S11313103C8346A457A460A871A8041515052605A6
S1131320370509F48EC18481811128C10F8518897C
S11313300E5C1F4F0D831E8301E010E029813A816A
S11313404B815C816D817E81AF85B88911968C91CA
S11313500E94262D882309F468C18FEF9FEFDC01DA
S1131360EF85F88986A797A7A0ABB1AB81E093CEB0
S113137033272F2D1E2D0D2DEF85F88982A193A1E2
S1131380A4A1B5A1080F191F2A1F3B1F09831A83A3
S11313902B833C8346A457A460A871A804151505A3
S11313A02605370529F18481811191C00F8518899B
S11313B00E5C1F4F0D831E8301E010E029813A81EA
S11313C04B815C816D817E81AF85B88911968C914A
S11313D00E94262D8111C1CF09811A812B813C8164
S11313E0AF85B8899E960D931D932D933C93D19709
S11313F0CC0CDD1CEE1CFF1CE894C0F8B1E0DB2231
S1131400EE24FF24F601F2960F851889E00FF11FF0
S11314108082918281E0D80114968C9380E03BCE47
S1131420F296ED83FE8301E010E0A3019201BF0177
S1131430AF85B88911968C910E94A52D811196CF04
S1131440EF85F8891482828D938DA48DB58D42A188
S113145053A164A175A193018201041B150B260BF2
S1131460370B081719072A073B0708F058CE2381C2
S1131470022F10E00230110508F451CECF82D88635
S1131480E986FA86CD80DE80780106C0EF85F8898A
S1131490828D938DA48DB58D480E591E6A1E7B1EB8
S11314A001E010E0A3019201B601AF85B88911965D
S11314B08C910E94A52DB1E0EB1AF108E1E0EE1643
S11314C0F10421F7CF80D884E984FA8428CEF296F7
S11314D0ED83FE8301E010E0A3019201BF01AF851B
S11314E0B88911968C910E94A52D81113FCFEF856B
S11314F0F8891482828D938DA48DB58D42A153A158
S113150064A175A193018201041B150B260B370BF3
S1131510081719072A073B0708F04ECF2381222E0C
S1131520312C12E02116310408F446CFCF82D8863C
S1131530E986FA86ED80FE8006C0EF85F889828D03
S1131540938DA48DB58D480E591E6A1E7B1E01E035
S113155010E0A3019201B701AF85B88911968C916F
S11315600E94A52DB1E02B1A3108E1E02E163104BA
S113157021F7CF80D884E984FA841ECFF296ED83D4
S1131580FE8301E010E0A3019201BF01AF85B88999
S113159011968C910E94A52D8111E8CEEF85F889D2
S11315A01482828D938DA48DB58D42A153A164A123
S11315B075A193018201041B150B260B370B081729
S11315C019072A073B0708F0B7CE2381222E312CB6
S11315D012E02116310408F4AFCECF82D886E98612
S11315E0FA86ED80FE8006C0EF85F889828D938DA2
S11315F0A48DB58D480E591E6A1E7B1E01E010E0B5
S1131600A3019201B701AF85B88911968C910E940C
S1131610A52DB1E02B1A3108E1E02E16310421F793
S1131620CF80D884E984FA8487CE09811A812B81FA
S11316303C81AF85B8899E960D931D932D933C9361
S1131640D197CC0CDD1CEE1CFF1CCC0CDD1CEE1C5D
S1131650FF1CBCEFCB22B1E0DB22EE24FF24F60119
S1131660F2960F851889E00FF11F80819181A28184
S1131670B38188279927AA27B07F88299929AA297D
S1131680BB2980839183A283B38381E0D80114961C
S11316908C9380E000CD482DEF85F889E20DF31D91
S11316A07ECD2A013B015ECD4F855889E40FF51F9D
S11316B082A9807F992D9F70892BDA010DCE2F92FC
S11316C03F924F925F926F927F928F929F92AF92CE
S11316D0BF92CF92DF92EF92FF920F931F93CF931B
S11316E0DF93CDB7DEB72D97CDBFDEBF8C879D8747
S11316F06A017B01DC018C91823009F404C18330DE
S113170009F4BFC08130D1F061E070E080E090E086
S11317102D96CDBFDEBFDF91CF911F910F91FF902A
S1131720EF90DF90CF90BF90AF909F908F907F907D
S11317306F905F904F903F902F9008951A013694C8
S11317402794240E351E92968D919D910D90BC91F7
S1131750A02D9101232F33272695AC01BD01420F03
S1131760531F611D711D49835A836B837C83EC85F0
S1131770FD8546A457A460A871A8441555056605BF
S1131780770509F421C28481811105C1AC84BD842B
S1131790F2E3AF0EB11C01E010E029813A814B81E4
S11317A05C81B501AC85BD8511968C910E94262D76
S11317B081119CC009811A812B813C81AC85BD8536
S11317C09E960D931D932D933C93D19792964D9095
S11317D05D906D907C909597480159018D01F101C0
S11317E03196ED83FE83F101F170E00FF11F92A9B0
S11317F09B878D819E81892F99278695480E591E36
S1131800611C711C09811A812B813C81401651068F
S113181062067306F9F0AC85BD8514968C91149715
S1131820FD018111D8C1F296E987FA8701E010E041
S1131830A301920169857A85AC85BD8511968C9149
S11318400E94262D811152C0EC85FD8546A657A61F
S113185060AA71AAED81FE81F1700C851D85E00FEF
S1131860F11F82A99B85692F70E0782BC0FE12C2FC
S1131870729562956F7067277F70672780E090E0AC
S113188047CF2A013B0167E07694679457944794C5
S11318906A95D1F7EC85FD8582A193A1A4A1B5A198
S11318A0480E591E6A1E7B1E86A497A4A0A8B1A840
S11318B0481459046A047B0409F470C184818111B9
S11318C00DC10C851D850E5C1F4F09831A8301E031
S11318D010E0A301920169817A81AC85BD851196DE
S11318E08C910E94262D882309F44FC18FEF9FEF1E
S11318F0DC01EC85FD8586A797A7A0ABB1AB6FEFA4
S11319007FEFCB0105CF452E562E672E7724EC852D
S1131910FD8582A193A1A4A1B5A1480E591E6A1EFA
S11319207B1E86A497A4A0A8B1A8481459046A04ED
S11319307B0401F1848181117AC00C851D850E5CC4
S11319401F4F09831A8301E010E0A301920169810A
S11319507A81AC85BD8511968C910E94262D8111CA
S1131960C5CFAC85BD859E964D925D926D927C925D
S1131970D197FD01CC0CDD1CEE1CFF1CE894C0F8D3
S1131980B1E0DB22EE24FF24EC0DFD1D62A973A956
S113199080E090E0BDCE5F01F2E3AF0EB11C01E048
S11319A010E0A3019201B501AC85BD8511968C911F
S11319B00E94A52D8111A3CFEC85FD851482828D13
S11319C0938DA48DB58D42A153A164A175A19301FA
S11319D08201041B150B260B370B081719072A075E
S11319E03B0708F0D8CE8380912C12E08116910435
S11319F038F4D1CEEC85FD85828D938DA48DB58D83
S1131A00480E591E6A1E7B1E01E010E0A3019201DC
S1131A10B501AC85BD8511968C910E94A52DB1E0D0
S1131A208B1A9108E1E08E16910421F7B4CEF29658
S1131A30E983FA8301E010E0A5019401BF01AC85BC
S1131A40BD8511968C910E94A52D811158CFEC85EE
S1131A50FD851482828D938DA48DB58D42A153A1F1
S1131A6064A175A195018401041B150B260B370B8A
S1131A70081719072A073B0708F065CF2381222E90
S1131A80312C12E02116310408F45DCFCD82DE82C0
S1131A90EF82F886E980FA8006C0EC85FD85828DA8
S1131AA0938DA48DB58D880E991EAA1EBB1E01E0D0
S1131AB010E0A5019401B701AC85BD8511968C9108
S1131AC00E94A52DB1E02B1A3108E1E02E16310455
S1131AD021F7CD80DE80EF80F88435CFF296E9835C
S1131AE0FA8301E010E0A5019401BF01AC85BD8536
S1131AF011968C910E94A52D811101CFEC85FD8555
S1131B001482828D938DA48DB58D42A153A164A1BD
S1131B1075A195018401041B150B260B370B0817BF
S1131B2019072A073B0708F0D2CE2381222E312C35
S1131B3012E02116310408F4CACECD82DE82EF828F
S1131B40F886E980FA8006C0EC85FD85828D938D48
S1131B50A48DB58D880E991EAA1EBB1E01E010E04F
S1131B60A5019401B701AC85BD8511968C910E94A5
S1131B70A52DB1E02B1A3108E1E02E16310421F72E
S1131B80CD80DE80EF80F884A2CEAC85BD859E96A4
S1131B904D925D926D927C92D197FD01CC0CDD1C2F
S1131BA0EE1CFF1CCC0CDD1CEE1CFF1CBCEFCB227E
S1131BB0B1E0DB22EE24FF24EC0DFD1D62A973A924
S1131BC084A995A99F70A4CD4A015B012C013D0114
S1131BD00C851D8504CED296A987BA8701E010E052
S1131BE029813A814B815C81BD0181810E94A52DAF
S1131BF0811185CEAC85BD8514961C9214975A9696
S1131C004D915D916D917C915D97FD0182A193A1B0
S1131C10A4A1B5A109811A812B813C81081B190B50
S1131C202A0B3B0B041715072607370708F0FECDD0
S1131C308381282E312C12E02116310408F4F6CDCC
S1131C40C982DA82EB82FC82E984FA84AC85BD85A0
S1131C5008C0AC85BD855A964D915D916D917C917E
S1131C605D97840E951EA61EB71E01E010E0A50127
S1131C709401B70111968C910E94A52DB1E02B1A05
S1131C803108E1E02E16310421F7C980DA80EB80B7
S1131C90FC80CCCD7F7080E090E03ACD8F929F9213
S1131CA0AF92BF92CF92DF92EF92FF920F931F9366
S1131CB0CF93DF938C01EB01DC0114966D937C933D
S1131CC015971696CD90DD90ED90FC901997B1E0A4
S1131CD0CB16D104E104F10461F0DC01ED91FC9137
S1131CE086899789A08DB18DC816D906EA06FB06A8
S1131CF070F082E0DF91CF911F910F91FF90EF90F0
S1131D00DF90CF90BF90AF909F908F900895C114B3
S1131D10D104E104F10409F04AC020812330D9F14F
S1131D2080859185C817D90720F766A177A180A57A
S1131D3091A5D8011A96CD92DD92ED92FC921D9751
S1131D406115710581059105A1F29E0132952295D7
S1131D502F7023273F702327AB01BC01420F531F71
S1131D60611D711D1E964D935D936D937C935197E8
S1131D70CF70DD27CC0FDD1FC295D295D07FDC2735
S1131D80C07FDC27E296CE0FDF1F5296CD93DC9303
S1131D90539780E0AFCF46A157A160A571A5411527
S1131DA051056105710509F4BBCF6A017B01A2806D
S1131DB020E1A29E50011124CA15DB05A8F122E0FE
S1131DC0C216D104E104F10408F493CFC816D9066D
S1131DD0EA06FB0608F08DCF19C0A2E0CA16D104AA
S1131DE0E104F10408F485CFD801ED91FC918689D2
S1131DF09789A08DB18DC816D906EA06FB0608F0AE
S1131E0078CFCA19DB09CA15DB0570F0B701A60142
S1131E10CF0155DC6B017C018FEFC816D806E806AC
S1131E20F806D9F681E066CFA70196012250310960
S1131E30410951090297A109B109281739074A072D
S1131E405B0768F4A281B0E00E94073F82A493A4D8
S1131E50A4A4B5A4680D791D8A1D9B1D6ACFF80141
S1131E60C286D386E486F58644CF2F923F924F9262
S1131E705F926F927F928F929F92AF92BF92CF9216
S1131E80DF92EF92FF920F931F93CF93DF93CDB71F
S1131E90DEB76A97CDBFDEBF5C0149875A876B877F
S1131EA07C87452B462B472B09F0D9C0DC011A96B9
S1131EB00D911D912D913C911D9709831A832B83BC
S1131EC03C83011511052105310509F0FBC0569627
S1131ED08D919D910D90BC91A02D01E010E020E02A
S1131EE030E009831A832B833C83280139011501CF
S1131EF032E3230E311CA98EBA8E4FEF441A540AD2
S1131F00640A740A481659066A067B0608F4F0C087
S1131F1009811A812B813C8102301105210531058B
S1131F2008F4FDC20397A105B10508F4AEC082E030
S1131F30482E512C612C712CA98DBA8D8C91823034
S1131F4009F4E2C0833009F483C1813009F09DC0F3
S1131F50F201F695E795E40DF51DED83FE83929667
S1131F604D915D916D917C919597CF01892F992722
S1131F7086956A017B01C80ED91EE11CF11C9E9650
S1131F808D909D90AD90BC90D197C814D904EA046B
S1131F90FB0409F4BDC214968C911497811161C29B
S1131FA001E010E0A7019601B101E98DFA8D81816C
S1131FB00E94262D811144C0A98DBA8D9E96CD9282
S1131FC0DD92ED92FC92D19792964D915D916D9137
S1131FD07C919597C98ADA8AEB8AFC8A9D010D81E6
S1131FE01E810F5F1F4F0D871E87ED81FE81F170EB
S1131FF0E20FF31F92A99D83C801892F9927869523
S11320004A015B01880E991EA11CB11CC814D90495
S1132010EA04FB0409F419C3D90114968C911497AA
S11320208111B2C201E010E0A5019401B101A98DB2
S1132030BA8D11968C910E94262D882309F4FFC233
S1132040A98CBA8C8FEF9FEFDC01F50186A797A7C7
S1132050A0ABB1AB4FEF3FEF2FEF9FEF1AC0298535
S11320603A854B855C85223031054105510568F080
S113207089019A01FC0186899789A08DB18D081781
S113208019072A073B0708F454C241E030E020E076
S113209090E0642F732F822F6A96CDBFDEBFDF914D
S11320A0CF911F910F91FF90EF90DF90CF90BF9051
S11320B0AF909F908F907F906F905F904F903F90E4
S11320C02F900895FC0186899789A08DB18D0817FA
S11320D019072A073B0708F427C221E030E040E053
S11320E050E029833A834B835C8329013A01FFCE74
S11320F012E0411651046104710438F2A98DBA8DBD
S11321008C91823009F01ECFFD01BB24A72C962CA4
S1132110852C82A193A1A4A1B5A1880E991EAA1E03
S1132120BB1EC6A4D7A4E0A8F1A88C149D04AE04D9
S1132130BF04C9F08481811142C101E010E0A5010E
S11321409401B101A98DBA8D11968C910E94262D0E
S1132150811176CFA98DBA8D9E968D929D92AD9266
S1132160BC92D197FD01D301C201880F991FAA1F08
S1132170BB1F8E7F9170AA27BB27E80FF91F82A986
S113218093A9A0E0B0E00097A105B10509F0AFC0A4
S1132190A98CBA8CF50186899789A08DB18D4816D2
S11321A059066A067B0608F070CF0FEF1FEF2FEF7A
S11321B03FE0B301A201C5010E942308811160C25E
S11321C009851A852B853C850115110521053105E5
S11321D0E1F0023011052105310508F456CFF5016F
S11321E086899789A08DB18D081719072A073B079F
S11321F008F04BCF9301820149855A856B857C8514
S1132200C5010E94230881113BC2D5011A964D9243
S11322105D926D927C921D971E968D919D910D906D
S1132220BC91A02D8F3FEFEF9E07AE07BE0759F07C
S11322300197A109B109F50186879787A08BB18B16
S1132240858181608583442D352D262D972D21CFC1
S11322505301420177E0B694A794979487947A95B2
S1132260D1F7E98DFA8D82A193A1A4A1B5A1880E1D
S1132270991EAA1EBB1EC6A4D7A4E0A8F1A88C145C
S11322809D04AE04BF04C9F08481811146C001E0FD
S113229010E0A5019401B101A98DBA8D11968C911C
S11322A00E94262D8111CCCEA98DBA8D9E968D9239
S11322B09D92AD92BC92D197FD01D301C201880FCA
S11322C0991FAA1FBB1F880F991FAA1FBB1F8C7FB2
S11322D09170AA27BB27E80FF91F82A993A9A4A983
S11322E0B5A9BF700097A105B10509F451CF0197B5
S11322F0A105B10509F4C9CE09811A812B813C815C
S1132300041515052605370509F409C1E98DFA8D6B
S113231086899789A08DB18DF0CD01E010E0A701E9
S11323209601B10181810E94A52D811193CEA98DC1
S1132330BA8D14961C921497FD01828D938DA48DF1
S1132340B58D42A153A164A175A197018601041B17
S1132350150B260B370B081719072A073B0708F03C
S113236096CF2381022F10E00230110508F48FCF9D
S11323708D829E82AF82B886580106C0E98DFA8D9F
S1132380828D938DA48DB58DC80ED91EEA1EFB1EB9
S113239001E010E0A7019601B101A98DBA8D119653
S11323A08C910E94A52DB1E0AB1AB108E1E0AE1604
S11323B0B10421F78D809E80AF80B88468CF01E09E
S11323C010E0A7019601B10181810E94A52D811120
S11323D041CEA98DBA8D14961C921497FD01828D5D
S11323E0938DA48DB58D42A153A164A175A19701CC
S11323F08601041B150B260B370B081719072A0730
S11324003B0708F09ACE2381022F10E00230110519
S113241008F493CE8D829E82AF82B886580106C09E
S1132420E98DFA8D828D938DA48DB58DC80ED91E3C
S1132430EA1EFB1E01E010E0A7019601B101A98D7F
S1132440BA8D11968C910E94A52DB1E0AB1AB108FA
S1132450E1E0AE16B10421F78D809E80AF80B88490
S11324606CCE01E010E0A5019401B10111968C91AC
S11324700E94A52D8111EECDA98DBA8D14961C92C2
S113248014975A964D915D916D917C915D97FD01E4
S113249082A193A1A4A1B5A195018401081B190BE4
S11324A02A0B3B0B041715072607370708F078CDCE
S11324B08381082F10E00230110508F471CDCD8618
S11324C0DE86EF86F88A7801A98DBA8D08C0A98DB9
S11324D0BA8D5A964D915D916D917C915D97840E64
S11324E0951EA61EB71E01E010E0A5019401B101DE
S11324F011968C910E94A52DB1E0EB1AF108E1E050
S1132500EE16F10421F7CD84DE84EF84F88848CDFB
S1132510C98ADA8AEB8AFC8A298D3A8D60CD40E03B
S113252030E020E090E0B5CD49805A806B807C801B
S1132530DECCB901A801C501C2D86230710581059C
S1132540910508F4A2CD6F3F1FEF71078107910732
S113255009F480CDD5015696CD90DD90ED90FC9098
S113256059976C157D058E059F0508F464C0D70145
S1132570C60109851A852B853C8509831A832B831B
S11325803C8328013901B3CC01E010E0A701960196
S1132590B10111968C910E94A52D81115BCDE98D1D
S11325A0FA8D1482428D538D648D758D82A193A111
S11325B0A4A1B5A197018601081B190B2A0B3B0B9B
S11325C0041715072607370708F02CCD8381E82E5A
S11325D0F12C12E0E116F10408F424CDDB01CA0168
S11325E08D8A9E8AAF8AB88E5701C988DA88EB88AB
S11325F0FC8806C0E98DFA8D828D938DA48DB58DEE
S1132600C80ED91EEA1EFB1E01E010E0A7019601C8
S1132610B101A98DBA8D11968C910E94A52DB1E0BE
S1132620AB1AB108E1E0AE16B10421F78D889E889B
S1132630AF88B88CF7CC462F372F282F2ACDE98DB9
S1132640FA8D86A697A6A0AAB1AAED85FE85F1709B
S1132650098D1A8DE00FF11F22A91D81812F90E0B1
S1132660922B40FE09C0929582958F7089279F70A6
S11326708927A0E0B0E036CE9F70A0E0B0E032CE73
S1132680813009F002CDE6CC2F923F924F925F92B7
S11326906F927F928F929F92AF92BF92CF92DF926E
S11326A0EF92FF920F931F93CF93DF93CDB7DEB7D3
S11326B02797CDBFDEBF1C0160E070E0EFDA8983AD
S11326C08823D9F0B981B43009F46EC08981279682
S11326D0CDBFDEBFDF91CF911F910F91FF90EF909F
S11326E0DF90CF90BF90AF909F908F907F906F902E
S11326F05F904F903F902F900895D1010D90BC9121
S1132700A02DAE83BF83F10146845784608871880D
S11327109E96CD90DD90ED90FC90D197C414D50495
S1132720E604F70459F114968C911497811171C041
S1132730AE80BF80F2E3AF0EB11C01E010E0A30154
S11327409201B501AE81BF8111968C910E94262D14
S1132750882361F08FEF9FEFDC01EE81FF8186A774
S113276097A7A0ABB1ABF1E0F983B0CFAE81BF8145
S11327709E964D925D926D927C92D197D101529624
S1132780ED91FC9153978081853E09F49FCF882376
S113279009F49CCF1496ED90FC901597BFEFEB1ABB
S11327A0FB0AE114F10419F4E7E0E9838FCFF101A6
S11327B0468457846088718841145104610471040B
S11327C099F36701FFE0CF22DD24C114D10409F499
S11327D071C0D1010D90BC91A02DAE83BF83F101D6
S11327E0E482F582CC0CDD1CC294D29490EFD92201
S11327F0DC24C922DC24F2E3CF0ED11C0E811F811C
S1132800C00ED11ED1015296CD92DC925397D801BD
S11328107FCF5D01B2E3AB0EB11C01E010E0A70174
S11328209601B501EE81FF8181810E94A52D811160
S11328303EC0AE81BF8114961C921497FD01828D17
S1132840938DA48DB58D42A153A164A175A1970167
S11328508601041B150B260B370B081719072A07CB
S11328603B0708F06ACF8380912C12E08116910413
S113287038F463CFEE81FF81828D938DA48DB58D65
S1132880C80ED91EEA1EFB1E01E010E0A701960146
S1132890B501AE81BF8111968C910E94A52DB1E046
S11328A08B1A9108E1E08E16910421F746CF01E0DE
S11328B009830CCFBFEF4B1A5B0A6B0A7B0AF10149
S11328C046865786608A718A4285538564857585F4
S11328D0411551056105710541F1F1010190F08146
S11328E0E02DEE83FF83828190E00197970132957A
S11328F022952F7023273F70232782239323892B2C
S113290009F06DCF423051056105710558F0EE8133
S1132910FF8186899789A08DB18D481759076A0769
S11329207B0788F0F2E0F983D1CE008111810E8318
S11329301F83D80118968D919C911997E816F90672
S113294008F032CF4CCFCF010E945F0B4B015C01EA
S1132950623071058105910528F36F3F0FEF700711
S11329608007900709F44EC0D1010D90BC91A02DB1
S1132970AE83BF8356968D919D910D90BC91A02DF1
S113298088169906AA06BB0658F5A501940122509B
S1132990310941095109F10182869386A486B586DD
S11329A00297A109B109281739074A075B0768F597
S11329B0EE81FF81A281B0E00E94073F2B013C0120
S11329C082A593A5A4A5B5A5480E591E6A1E7B1E13
S11329D0D1011E964D925D926D927C925197FFCEDD
S11329E0F10142855385648575858E819F813DDA29
S11329F04B015C01611571058105910551F4F7E006
S1132A00F98364CE11E0198361CE412C512C32013B
S1132A10DFCF613071058105910509F483CF6F3FE4
S1132A200FEF70078007900769F3D1018D919C9196
S1132A30FC01248121119BC0FC01F296DF0100E01E
S1132A4012E01D9201501040E1F7D1010D90BC91AC
S1132A50A02DAE83BF839501840102501109210981
S1132A6031090A831B832C833D8356968D919D9156
S1132A700D90BC91A02D0297A109B109081719075F
S1132A802A073B0708F053C0A9019801EE81FF8192
S1132A901281A12FB0E00E94073F42A453A464A472
S1132AA075A4640D751D861D971DE12FAE81BF8130
S1132AB09E966D937D938D939C93D197612C712CED
S1132AC0E11119C03FC09E964D915D916D917C912D
S1132AD0D1974F5F5F4F6F4F7F4FFD0146A757A7B9
S1132AE060AB71ABFFEF6F1A7F0A12968C9190E086
S1132AF06816790628F501E0EE81FF810483D1018F
S1132B000D90BC91A02DAE83BF8314968C91149725
S1132B108823C9F2CD010E947306811173CFF1019C
S1132B200190F081E02DEE83FF83DF01CCCFAE81F5
S1132B30BF811296EC91129760E070E0CB01B8CFA0
S1132B40CB01BA01DC01CB0186199709A109B109AE
S1132B50EE81FF8186A797A7A0ABB1AB8689978941
S1132B60A08DB18D2A813B814C815D8114CF0E945F
S1132B707306811147CFD1018D919C915DCF2F9226
S1132B803F924F925F926F927F928F929F92AF92F9
S1132B90BF92CF92DF92EF92FF920F931F93CF9346
S1132BA0DF93CDB7DEB72F97CDBFDEBF2C016CDD31
S1132BB0982F8823B9F0892F2F96CDBFDEBFDF91E0
S1132BC0CF911F910F91FF90EF90DF90CF90BF9026
S1132BD0AF909F908F907F906F905F904F903F90B9
S1132BE02F900895D2011E966D907D908D909C90AB
S1132BF051976C867D868E869F86AD90BC90F5013C
S1132C00C6A4D7A4E0A8F1A86C147D048E049F0484
S1132C1059F18481150181115DC0B2E32B0E311C81
S1132C2001E010E02C853D854E855F85B101F501FD
S1132C30818199830E94262D9981882351F08FEFF9
S1132C409FEFDC01F50186A797A7A0ABB1AB91E09C
S1132C50B2CF6C847D848E849F84D5019E966D92C0
S1132C607D928D929C92D197D2015296ED91FC91D6
S1132C70539780E2DF011D928A95E9F7F201A48956
S1132C80B589428953892D913C911197FA0120838A
S1132C90318312962D913C9113972283338314969A
S1132CA02D913C9115972483358316962D913C9153
S1132CB017972683378318962D913C91199720876F
S1132CC031871A968C918287D201ED91FC9181E033
S1132CD0848371CFF2E32F0E311C01E010E0A701D1
S1132CE09601B101D50111968C9199830E94A52D6D
S1132CF099818111ACCFF5011482628C738C848C20
S1132D00958C688679868A869B8662A073A084A047
S1132D1095A09701860106191709280939094885DC
S1132D2059856A857B85041715072607370708F038
S1132D3077CF8380912C52E08516910408F470CFEC
S1132D40488559856A857B8507C0D5015A964D917A
S1132D505D916D917C915D97C40ED51EE61EF71EA4
S1132D6001E010E0A7019601B101D50111968C9103
S1132D7099830E94A52DB1E08B1A91089981E1E015
S1132D808E16910411F74CCF2F923F924F925F927F
S1132D906F927F928F929F92AF92BF92CF92DF9267
S1132DA0EF92FF920F931F93CF93DF9300D000D045
S1132DB0CDB7DEB75C0169837A83DB018C918F32F6
S1132DC009F475C28C3509F472C2D501ED91FC91F8
S1132DD082899389A489B589F50186839783A0871D
S1132DE0B187A981BA818C91803208F471C2F5014E
S1132DF0C488D58889819A81DC012C9101962F326F
S1132E00D9F32C35C9F300E2F60100830183028370
S1132E10038304830583068307830087018702876E
S1132E208C918E3209F44CC020E030E080E090E0D8
S1132E3048E050E010E0BC016F5F7F4FFD01E80FF8
S1132E40F91F0081013208F4DCC20F3209F4BAC25E
S1132E500C3509F4B7C20E3209F4E9C22417350758
S1132E6008F043C007FD4EC2EFE7E00FEF3128F052
S1132E70E0E2E00FED3108F04FC002966A0F7B1FCD
S1132E80FB01F08060EC6F0D6F3320F060E86F0D94
S1132E906D3758F5BA01615071092617370728F5BF
S1132EA04901FFEF8F1A9F0AB601620F731FFB01DE
S1132EB000832E5F3F4F8C0C9D1CF401F082BBCF2E
S1132EC0F601808311962C9111972E3209F0A2C23B
S1132ED0218312962C91129783E090E02F32D1F146
S1132EE02C35C1F1213208F40FC286E02496CDBFFF
S1132EF0DEBFDF91CF911F910F91FF90EF90DF9094
S1132F00CF90BF90AF909F908F907F906F905F9085
S1132F104F903F902F900895E02EF12CF2E2EF169F
S1132F20F10419F3E7EFF0E204C090E0E816F906C3
S1132F30E1F281918111F9CF8FEB800F8A3108F092
S1132F4039C21260F601E20FF31F00832F5F3F4F77
S1132F50CB0171CFFD01E80FF91FE983FA8380E209
S1132F60D6011B968C9360E070E0C5010E944E0E62
S1132F708111B8C0F5010190F081E02DEB83FC8351
S1132F80D5011E964D905D906D907C905197C6A48E
S1132F90D7A4E0A8F1A8C414D504E604F70441F1C9
S1132FA084818111E9C02B803C80F2E32F0E311C17
S1132FB001E010E0A3019201B101AB81BC81119643
S1132FC08C910E94262D882359F08FEF9FEFDC010E
S1132FD0EB81FC8186A797A7A0ABB1AB81E086CF3C
S1132FE0AB81BC819E964D925D926D927C92D197FD
S1132FF0F50162897389DB012C91222309F452C102
S11330001B964C911B9743FD63C00488F589E02D02
S113301030E0808190E02817390709F059C01196F3
S11330209C9111978181981353C012969C91129789
S1133030828198134DC013969C91139783819813A2
S113304047C014969C9114978481981341C0159697
S11330509C911597858198133BC016969C91169761
S11330608681981335C017969C911797878198137A
S11330702FC018969C9118978085981329C019968B
S11330809C9119978185981323C01A969C918285E7
S113309098131EC0838582FD39C044FFB9C1DB018A
S11330A05A968D919C915B976C01E12CF12CD50182
S11330B02D913C91D9012C91233009F414C1D501EF
S11330C01696CD92DD92ED92FC9219976F0192CEF5
S11330D0F501E480F580FFEFEF1AFF0AE114F10433
S11330E0B9F484E0D5015496ED91FC9155979385FC
S11330F0843009F0FBCE95FF96C1F5011682178244
S113310010861186128A138A92FF71CE80E0EECE69
S1133110D5011E964D905D906D907C905197411411
S1133120510461047104E9F26701BFE0CB22DD249C
S1133130C114D10409F46CC0F5010190F081E02DB3
S1133140EB83FC83F501E482F582CC0CDD1CC29494
S1133150D29480EFD822DC24C822DC24F2E3CF0E00
S1133160D11C0B811C81C00ED11ED5015296CD926B
S1133170DC925397F8010BCF1F01F2E32F0E311CA1
S113318001E010E0A7019601B101AB81BC81119669
S11331908C910E94A52D811121CFEB81FC81148299
S11331A0828D938DA48DB58D42A153A164A175A187
S11331B097018601041B150B260B370B08171907FB
S11331C02A073B0708F0F4CE8380912C12E0811685
S11331D0910438F4EDCEEB81FC81828D938DA48D26
S11331E0B58DC80ED91EEA1EFB1E01E010E0A70132
S11331F09601B101AB81BC8111968C910E94A52DE1
S1133200B1E08B1A9108E1E08E16910421F7D0CE3B
S1133210FFEF4F1A5F0A6F0A7F0AD5011E964D927F
S11332205D926D927C9251971A964D915D916D913C
S11332307C911D97411551056105710559F4ED9176
S1133240FC91EB83FC8380859185E816F90608F0F0
S113325048CF78CFD5010D90BC91A02DAB83BC8312
S113326012968C9190E001979701329522952F70D8
S113327023273F70232782239323892B09F062CFCE
S1133280423051056105710558F0EB81FC81868956
S11332909789A08DB18D481759076A077B07D8F124
S11332A082E020CF0488F589E02D938524CFE9813D
S11332B0FA813196E983FA83D50116961D921D92FF
S11332C01D921C921997DF018C91803208F08FCDEA
S11332D060E070E0C5010E944E0ED50152961D9229
S11332E01C92539703CEDB0154964D915C915597F4
S11332F060E070E0BA0155274427C42AD52AE62A9B
S1133300F72ADDCE1360B0CD8D01080F191F098394
S11333101A8384E225CECF010E945F0B62307105CF
S11333208105910508F4BCCF6F3FFFEF7F078F073E
S11333309F0709F476C0D5010D90BC91A02DAB83F5
S1133340BC8356964D905D906D907C905997641512
S113335075058605970508F0C4CEF5016287738765
S1133360848795879B01AC01225031094109510999
S1133370F2E04F1A51086108710824153505460515
S1133380570508F04AC0FD01A281B0E00E94073F42
S11333902B013C0182A593A5A4A5B5A5480E591EF1
S11333A06A1E7B1ED5011E964D925D926D927C9293
S11333B05197C8CE8FE9800F8A3108F0C3CD1160D0
S11333C00052C0CDCD01860F971F89839A8380E078
S11333D0232B09F48ACDD6019C91953E11F4E5E0A6
S11333E0EC934830510511F4110F110F912F937084
S11333F0913009F480611C70143009F0B1CD8860FB
S1133400AFCDFD01E60FF71FE983FA8384E0E0CF37
S113341085E06CCD82E090E061CD412C512C3201ED
S1133420C1CF81E05FCE92FFF3CF84E05FCD48301F
S1133430510509F05ACD110F110FCB0128E030E0EE
S11334404BE050E0F8CC2F923F924F925F926F92F4
S11334507F928F929F92AF92BF92CF92DF92EF9220
S1133460FF920F931F93CF93DF93CDB7DEB7A1974E
S1133470CDBFDEBFDC011D921C92DB01ED91FC91FE
S11334803097A1F10081013260F00A3379F1DF0154
S11334901196FD0102C05A3329F19F015191513215
S11334A0D0F70091982510E0F801EE0FFF1FE556C4
S11334B0FA4DA080B180A114B104F1F1DC01AD9208
S11334C0BC92F5018081882341F1818149A30E9446
S11334D01F2D49A180FD21C0442361F182FF2AC030
S11334E08AE005C02A173B0709F463C08BE0A19664
S11334F0CDBFDEBFDF91CF911F910F91FF90EF9071
S1133500DF90CF90BF90AF909F908F907F906F90FF
S11335105F904F903F902F900895D5011C92119683
S11335200C93802F49A30E945E2C49A180FF06C002
S113353083E0DDCF80E0DBCF8CE0D9CF442311F0F2
S113354082FDCECFF501148244244A94542C3201D6
S113355046A657A660AA71AA1501B2E32B0E311C28
S113356001E010E020E030E0A901B10181810E9476
S1133570262D81112BC0D5019E961D921D921D9260
S11335801C92D1972501B0ED4B1ABDEF5B0AF201F5
S11335908081918185359A4A09F46EC182E0C12CFB
S11335A0D12C7601833009F411C28823D9F08DE03F
S11335B09ECF20ED200F223008F098CF10E000536A
S11335C011091196FB01A083B1836ECFD5019E969C
S11335D04D925D926D927C92D19783E0E0CFC12CA5
S11335E0D12C7601D501DD968D919C91DE978115C4
S11335F09240E9F6F501E85BFF4F808191813C013F
S1133600812C912C6D8A7E8A8F8A988E6114710424
S11336108104910449F43E96608071808280938095
S11336206D8A7E8A8F8A988ED5015A966D927D9284
S11336308D929C925D97F501EE5BFF4FA081F501A1
S1133640A3838FEF8A0F823008F0B1CFB0E0A401DA
S113365093010E94073F6D8F7E8F8F8F98A327ADB4
S11336602283222309F4A3CF422F50E0CA010197F9
S113367084239523892B09F09ACFED5BFF4F0081BA
S11336801181D50118960D931C931997C8018F7059
S11336909927892B09F08BCF329660817181CB01F8
S11336A0A0E0B0E00097A105B10529F43D96808122
S11336B09181A281B381F501E05CFF4F408151818A
S11336C04115510509F473CF3A01812C912C698E6F
S11336D07A8E8B8E9C8EA801529542954F70452709
S11336E05F704527640E751E811C911C4D8D5E8D87
S11336F06F8D78A1640E751E861E971E698A7A8A5C
S11337008B8A9C8A86159705A805B90508F44FCFBE
S1133710BC01CD01661977098809990930E040E0B8
S113372050E00E94D03E211531054105510509F4B0
S11337303ECF263F6FE036074105510508F4FFC22E
S1133740263F7FEF37074105510508F0B4C262E018
S1133750362E29013A01F2E04F0E511C611C711CF6
S1133760D50156964D925D926D927C925997F501D2
S1133770C68ED78EE0A2F1A2898D9A8DAB8DBC8DB9
S11337808C0D9D1DAE1DBF1D82A393A3A4A3B5A341
S113379049895A896B897C894C0D5D1D6E1D7F1D7D
S11337A042A753A764A775A7012B09F400CF2D8D59
S11337B03E8D4F8D58A1820F931FA41FB51FF50195
S11337C086A397A3A0A7B1A7F2E03F1609F46CC2A1
S11337D0A3E0B0E0A30192010E94073F969587956C
S11337E07795679521E04222552466247724640D59
S11337F0751D861D971D33243394DC01CB01815044
S11338009E4FAF4FBF4F19E0B695A79597958795F3
S11338101A95D1F76D887E888F88988C68167906FA
S11338208A069B0608F4C3CE8FEF9FEFDC01F501F7
S113383086879787A08BB18B82879387A487B58768
S113384080E88583F3E03F1609F4E1C1D5013C9299
S11338508091992590919A2501968093992590932A
S11338609A2516968D939C931797F501128A138ABD
S1133870148A158A80E03BCE950128593F4F298B45
S11338803A8BF90180819181A281B381BB2786346F
S11338909144A445B10509F4B8C1245E3F4F2D8B72
S11338A03E8BF90180819181A281B381BB2786344B
S11338B09144A445B10509F492CEF501EC50FE4FB4
S11338C08081882309F49DC1349680819181A281ED
S11338D0B38189839A83AB83BC83F501EC5FFD4F8D
S11338E08081882309F489C1349680819181A281E1
S11338F0B3818D839E83AF83B887F501EC5EFD4F62
S11339008081882309F475C1349680819181A281D4
S1133910B38189879A87AB87BC87F501EC5DFD4F3E
S11339208081882309F461C1349680819181A281C8
S1133930B3818D879E87AF87B88BC980DA80EB808F
S1133940FC80C114D104E104F10409F041C0CD802C
S1133950DE80EF80F884C114D104E104F10409F09D
S11339607DC0C984DA84EB84FC84C114D104E104ED
S1133970F10409F053C0CD84DE84EF84F888C114C7
S1133980D104E104F10409F412CEF5011482662491
S11339906A94762C430166A677A680AA91AABFEF03
S11339A0CB16DB06EB06FB0609F4AAC001E010E027
S11339B0A7019601B10181810E94262D882309F473
S11339C098C0F50166A677A680AA91AA81E08FCD5A
S11339D0D50114961C9266246A94762C4301F50151
S11339E066A677A680AA91AAFFEFCF16DF06EF0698
S11339F0FF0609F4AFC001E010E0A7019601B10190
S1133A00D50111968C910E94262D882309F49BC020
S1133A10F50166A677A680AA91AA99CFF50114822A
S1133A2066246A94762C430166A677A680AA91AA96
S1133A30BFEFCB16DB06EB06FB06C9F101E010E095
S1133A40A7019601B10181810E94262D882341F1AD
S1133A50F50166A677A680AA91AA8DCFF5011482F6
S1133A6066246A94762C430166A677A680AA91AA56
S1133A70BFEFCB16DB06EB06FB0609F494C001E0AE
S1133A8010E0A7019601B10181810E94262D8823AF
S1133A9009F482C0F50166A677A680AA91AA61CF2F
S1133AA0D5019E96CD92DD92ED92FC92D197F201D2
S1133AB08081918185359A4A09F05DCFE989FA8937
S1133AC080819181A281B381BB2786349144A4452E
S1133AD0B10509F487CDED89FE8980819181A281A8
S1133AE0B381BB2786349144A445B10509F043CF83
S1133AF079CDD5019E96CD92DD92ED92FC92D1972F
S1133B00D2018D919C9185359A4A09F050CDE9896D
S1133B10FA8980819181A281B381BB278634914443
S1133B20A445B10509F45ECDED89FE8980819181BA
S1133B30A281B381BB2786349144A445B10509F41D
S1133B4051CD8DE0D4CCD5019E96CD92DD92ED92EF
S1133B50FC92D197D2018D919C9185359A4A09F0B6
S1133B60F6CEE989FA8980819181A281B381BB274C
S1133B7086349144A445B10509F434CDED89FE8918
S1133B8080819181A281B381BB2786349144A4456D
S1133B90B10509F0DCCE26CDD5019E96CD92DD92FD
S1133BA0ED92FC92D197F2018081918185359A4AF8
S1133BB009F0D7CEE989FA8980819181A281B38104
S1133BC0BB2786349144A445B10509F40BCDED8996
S1133BD0FE8980819181A281B381BB27863491447F
S1133BE0A445B10509F0BDCEFDCC80E090E0DC0138
S1133BF0A0CE80E090E0DC018CCE80E090E0DC019F
S1133C0078CE80E090E0DC0164CE80E0C8CCF501A1
S1133C10EE59FF4F80819181019709F017CEB701CA
S1133C20A6014F5F5F4F6F4F7F4FC5010E94D406BF
S1133C3081110CCED50115961C92F501E05DFD4F66
S1133C408081918185359A4A09F000CEF50182A9D7
S1133C5093A9A4A9B5A982359245A146B14409F016
S1133C60F5CDF501EA5EFD4F80819181A281B3819A
S1133C7082379247A144B14609F0E8CD3496808159
S1133C809181A281B381F50186879787A08BB18B3F
S1133C90E25EFD4F80819181A281B381F50182872B
S1133CA09387A487B587D2CDC301B201660F771F6E
S1133CB0881F991FA2CD29013A01B2E04B0E511C75
S1133CC0611C711CF501468A578A608E718EC68EFE
S1133CD0D78EE0A2F1A2898D9A8DAB8DBC8D8C0D0F
S1133CE09D1DAE1DBF1D82A393A3A4A3B5A3898963
S1133CF09A89AB89BC898C0D9D1DAE1DBF1D82A701
S1133D0093A7A4A7B5A7012B09F051CCF501E25A5A
S1133D10FF4F80819181A281B381F50186A397A38E
S1133D20A0A7B1A7C301B201660F771F881F991F0F
S1133D30660F771F881F991F43E0342E5ECD33240E
S1133D40339407CDCF93DF9300D000D0CDB7DEB747
S1133D5089839A836B837C83E62FF72F3097A1F1B5
S1133D606081613268F06A3379F19F012F5F3F4FC0
S1133D70F90102C05A3329F1CF0151915132D0F7E0
S1133D808091982590E0880F991FFC01E556FA4D23
S1133D900190F081E02D309709F01082E981FA81D9
S1133DA0309731F11082DC01A556BA4DED93FC93A6
S1133DB0413089F080E02496CDBFDEBFDF91CF9102
S1133DC0089582179307D9F08BE02496CDBFDEBF08
S1133DD0DF91CF91089540E0BE016D5F7F4FCE012A
S1133DE0019631DB2496CDBFDEBFDF91CF910895DC
S1133DF0FC01E556FA4D1082118280E0DCCF80EDA3
S1133E00860F823008F7862F90E0C097BCCF2F92A0
S1133E103F924F925F926F927F928F929F92AF9256
S1133E20BF92CF92DF92EF92FF920F931F93CF93A3
S1133E30DF93CDB7DEB7C454D109CDBFDEBF6C016B
S1133E405B01942E009709F456C0DC011D921C926C
S1133E5061157105C1F1FB010081013268F00A337B
S1133E6091F19B012F5F3F4FF90102C04A3339F1B1
S1133E70CF0141914132D0F70091982510E0F8012B
S1133E80EE0FFF1FE556FA4D2080318021143104D6
S1133E90F1F1292D2E71F22E29823A82D1018C91D1
S1133EA0882359F111968C910E941F2D80FD25C005
S1133EB0FF2009F4BEC182FFBCC18AE005C02817F7
S1133EC0390709F458C08BE0CC5BDF4FCDBFDEBFB0
S1133ED0DF91CF911F910F91FF90EF90DF90CF90E2
S1133EE0BF90AF909F908F907F906F905F904F9016
S1133EF03F902F90089589E0E7CFF101108201836C
S1133F00802F0E945E2C80FF04C083E0DDCF8CE014
S1133F10DBCFFF2011F082FDD0CFD10114961C928B
S1133F20149744244A94542C3201F10146A657A60E
S1133F3060AA71AA7101F2E3EF0EF11C01E010E036
S1133F4020E030E0A901B70111968C910E94262D42
S1133F50882309F470C3F10146A657A660AA71AA82
S1133F6083E0412C512C3201833009F42CC4882382
S1133F7089F08DE0A9CF80ED800F823008F0A3CFC7
S1133F8010E000531109F2E0AF0EB11C78CF412CC0
S1133F90512C3201D101DD968D919C91DE978115D2
S1133FA0924039F7F101E85BFF4F808191817C01F8
S1133FB000E010E0EFA2F8A609A71AA7E114F104A3
S1133FC00105110559F43E96008111812281338146
S1133FD00FA318A729A73AA778018901D1015A96F6
S1133FE0ED92FD920D931C935D97F101EE5BFF4FF3
S1133FF0A081F101A3838FEF8A0F823008F0B9CF3B
S1134000B0E0A80197010E94073F6FAB78AF89AF7A
S11340109AAF27AD2283222309F4ABCF422F50E07D
S1134020CA01019784239523892B09F0A2CFED5B64
S1134030FF4FE080F180EFA6F8AAD1011896ED9227
S1134040FC921997C7018F709927892B09F091CF9A
S1134050329660817181CB01A0E0B0E00097A105A8
S1134060B10529F43D9680819181A281B381F1014A
S1134070E05CFF4F408151814115510509F479CF2E
S11340807A0100E010E0EBAAFCAA0DAB1EAB4FA531
S113409058A9529542954F7045275F704527E40E05
S11340A0F51E011D111D4FA958AD69AD7AADE40E81
S11340B0F51E061F171F8E159F05A007B10708F4EC
S11340C058CFBC01CD016E197F09800B910B30E0F4
S11340D040E050E00E94D03E2115310541055105D4
S11340E009F447CF263F6FE036074105510508F430
S11340F0ABC7263F7FEF37074105510508F05DC781
S113410082E0882ECA01B9016E5F7F4F8F4F9F4FA7
S11341106BA77CA78DA79EA7D10156966D937D931F
S11341208D939C935997F101468E578E60A271A28C
S11341308BA99CA9ADA9BEA9840D951DA61DB71D6B
S113414082A393A3A4A3B5A3B801A701440D551D4D
S1134150661D771D42A753A764A775A7EFA4F8A807
S1134160EF2809F406CFEFA8F8AC09AD1AAD8E0D0F
S11341709F1DA01FB11FF10186A397A3A0A7B1A7FC
S1134180F2E08F1609F410C7A3E0B0E02BA53CA51C
S11341904DA55EA50E94073F9695879577956795EF
S11341A089019A010170112722273327600F711F9B
S11341B0821F931F88248394DC01CB0181509E4F7E
S11341C0AF4FBF4FE9E0B695A79597958795EA95C8
S11341D0D1F7EFA0F8A409A51AA5E816F9060A076D
S11341E01B0708F4C6CE8FEF9FEFDC01F101868731
S11341F09787A08BB18B82879387A487B58780E844
S11342008583F3E08F1609F482C6D1018C928091E4
S1134210992590919A2501968093992590939A25B2
S113422016968D939C931797F101128A138A148A18
S1134230158A092D0F710FA3CE0147968D8B9E8B86
S1134240B50146970E94C4162B883C88882309F43C
S11342506FC1992D9C7109F437CE843009F034CEA6
S1134260CE0101960E94BF15FFA1F860FFA32B8821
S11342703C88811129CEEFA0E3FED9C180E090E013
S1134280AFE4B5E4F10186879787A08BB18B1386E1
S1134290148E158E168E178EE980FA80828D938D7A
S11342A08C0120E030E00FA718AB29AB3AABD70163
S11342B08C91833009F489C2D1015A961D921C92C3
S11342C05B9754961D921C92559781E0F701848365
S11342D0012B022B032B09F44AC126A537A540A9BB
S11342E051A92FAB38AF49AF5AAF0FA518A929A9C7
S11342F03AA9023011052105310548F086899789CC
S1134300A08DB18D081719072A073B0710F082E02A
S1134310DBCD0BA71CA72DA73EA787010E5C1F4F63
S113432023962EAE3FAE239757012596CEAEDFAE31
S11343302597CBA4DCA4EDA4FEA4180127C000E0BB
S113434010E09801B701A601C5010E94230881115C
S1134350BBCDF50186859785A089B1898F3FFFEF95
S11343609F07AF07BF0759F00196A11DB11DF501C5
S113437086879787A08BB18B858181608583F501C2
S113438086899789A08DB18D73016201C816D906FB
S1134390EA06FB0608F0AEC412E0C116D104E1043B
S11343A0F10408F4B4CFD5018C91823009F470C2C1
S11343B0833009F41AC2813009F0A9CFF601F695C9
S11343C0E795EC0DFD1DEBABFCAB92968D919D91A9
S11343D00D90BC91A02D9F01232F332726952C01EE
S11343E03D01420E531E611C711CF50106A517A563
S11343F020A931A90BA71CA72DA73EA7401651063B
S11344006206730609F41EC484818111CCC301E0E1
S113441010E0A3019201B101D50111968C910E9483
S1134420262D811101C3D5019E964D925D926D9208
S11344307C92D19792968D919D910D90BC91A02DD7
S11344404BAE5CAE6DAE7EAEEBA9FCA93196219667
S1134450EEAFFFAF2197EBA9FCA9F170EA0DFB1DAC
S113446002A90BAB21962EAD3FAD2197232F332705
S11344702695AC01BD01420F531F611D711D4BA751
S11344805CA76DA77EA74416550666067706F9F065
S1134490D50114968C9114978111F5C401E010E0B4
S11344A02BA53CA54DA55EA5B101D50111968C9116
S11344B00E94262D8111B8C20BA51CA52DA53EA5D1
S11344C0D5019E960D931D932D933C93D1972196E0
S11344D0EEADFFAD2197F170EA0DFB1D82A99BA9FA
S11344E0492E512C582AC0FEC9C4529442948FE0DC
S11344F04822452458224524612C712C411451042E
S11345006104710409F4F6C3E1E04E165104610438
S1134510710409F4FCCEF50186899789A08DB18DCB
S1134520C816D906EA06FB0608F409CF82E0CCCC0B
S11345302114310409F491C0892D8C7109F456C0F9
S1134540D1011B968C91817109F060C092FE93CECB
S113455088E0BACC0FA918AD29AD3AADD7019E9623
S11345600D931D932D933C93D197E980FA80FFA17D
S1134570F062FFA30F2FF70186A597A5A0A9B1A903
S1134580F601828F938FA48FB58F268E378E048386
S11345901582D1015A968D919C915B97A0E0B0E071
S11345A0F70120812330A1F1F60186879787A08B3C
S11345B0B18BF101848D958DA68DB78DF60182871F
S11345C09387A487B5871682178210861186168A68
S11345D0178A108E118EE082F182D70116968D9182
S11345E09C9117978283938380E06ECCF10183853D
S11345F084FD1BC091FE02C080FD08C0892D887017
S1134600E980FA808111B3CF0FA1B5CF87E05CCCEC
S1134610F1014489558960E070E0BA0155274427C7
S1134620842B952BA62BB72BBFCF84E04DCCE980F0
S1134630FA800FA1A0CFF10116A617A610AA11AAFD
S11346408101005D1D4F0FA318A7D8018D919C9186
S113465085359A4A21F082E084CC86E0FACDF101D6
S1134660E859FF4FEFA7F8AB80819181A281B38114
S1134670BB2786349144A445B10509F4FDC38101E7
S11346800C571F4F0BA71CA7F80180819181A281B1
S1134690B381BB2786349144A445B10509F477CC92
S11346A0F101EC50FE4F8081882309F4E1C3349674
S11346B080819181A281B3818F8B988FA98FBA8FCA
S11346C0F101EC5FFD4F8081882309F4CDC334965A
S11346D080819181A281B3818B8F9C8FAD8FBE8F9E
S11346E0F101EC5EFD4F8081882309F4B9C334964F
S11346F080819181A281B3818F8F98A3A9A3BAA34A
S1134700F101EC5DFD4F8081882309F4A5C3349643
S113471080819181A281B3818BA39CA3ADA3BEA30D
S11347204F88588C698C7A8C41145104610471044B
S113473009F0F6C04B8C5C8C6D8C7E8C411451045A
S11347406104710409F044C14F8C58A069A07AA097
S1134750411451046104710409F00EC14BA05CA022
S11347606DA07EA0411451046104710409F401CCCC
S1134770D10114961C9214970FEF1FEF98019E9687
S11347800D931D932D933C93D197BFEF4B165B066E
S11347906B067B0609F462C201E010E0A3019201FA
S11347A0B701F10181810E94262D882309F44FC2AB
S11347B0EE24EA94FE2C8701D1019E96ED92FD929F
S11347C00D931C93D19781E07FCB84899589A0E0D8
S11347D0B0E0DC0199278827082B192B2A2B3B2BC7
S11347E00FA718AB29AB3AAB67CD97018601A7E0B9
S11347F03695279517950795AA95D1F7F50182A1C6
S113480093A1A4A1B5A1080F191F2A1F3B1F0BA731
S11348101CA72DA73EA746A457A460A871A80415F9
S1134820150526053705E1F08481811176C101E083
S113483010E02BA53CA54DA55EA5B101D5011196AF
S11348408C910E94262D8111EFC00BA51CA52DA5CE
S11348503EA5D5019E960D931D932D933C93D19720
S1134860D701C601880F991FAA1FBB1F880F991F64
S1134870AA1FBB1F8C7F9170AA27BB27F501E80FE5
S1134880F91F42A853A864A875A8BFE07B2236CEBE
S113489033272F2D1E2D0D2DF50182A193A1A4A147
S11348A0B5A1080F191F2A1F3B1F0BA71CA72DA773
S11348B03EA746A457A460A871A8041515052605AB
S11348C03705E1F084818111E1C001E010E02BA5FE
S11348D03CA54DA55EA5B101D50111968C910E9410
S11348E0262D8111A1C00BA51CA52DA53EA5D50182
S11348F09E960D931D932D933C93D197D701C6019A
S1134900880F991FAA1FBB1F8E7F9170AA27BB27F0
S1134910F501E80FF91F42A853A8612C712CEECDC4
S1134920D10114961C9214970FEF1FEF98019E96D5
S11349300D931D932D933C93D197BFEF4B165B06BC
S11349406B067B0609F4B3C101E010E0A3019201F8
S1134950B701D10111968C910E94262D882309F468
S1134960A1C10FEF1FEF9801D1019E960D931D93E6
S11349702D933C93D197DECED10114961C921497BB
S11349800FEF1FEF98019E960D931D932D933C936B
S1134990D197BFEF4B165B066B067B0609F453C039
S11349A001E010E0A3019201B701D10111968C91AD
S11349B00E94262D882309F441C00FEF1FEF9801B0
S11349C0D1019E960D931D932D933C93D197C6CE02
S11349D0D10114961C9214970FEF1FEF98019E9625
S11349E00D931D932D933C93D197BFEF4B165B060C
S11349F06B067B0609F4C7C101E010E0A301920134
S1134A00B701D10111968C910E94262D882309F4B7
S1134A10B5C10FEF1FEF9801D1019E960D931D9321
S1134A202D933C93D19790CE8FEF9FEFDC01F5014E
S1134A3086A797A7A0ABB1AB81E046CAF10146A611
S1134A4057A660AA71AAEFA1F8A580819181853546
S1134A509A4A09F083CEEFA5F8A980819181A281B9
S1134A60B381BB2786349144A445B10509F492CAA5
S1134A70EBA5FCA580819181A281B381BB278634FB
S1134A809144A445B10509F069CE84CA01E010E05F
S1134A90A3019201B10181810E94A52D811193CEC0
S1134AA0D50114961C9214975A968D919D910D9050
S1134AB0BC91A02DF50142A153A164A175A193015C
S1134AC08201041B150B260B370B081719072A073D
S1134AD03B0708F0FACE8380912C12E081169104F2
S1134AE030F4F3CEF501828D938DA48DB58D480EEF
S1134AF0591E6A1E7B1E01E010E0A3019201B10160
S1134B00D50111968C910E94A52DB1E08B1A9108C4
S1134B10E1E08E16910431F7D8CE01E010E0A30154
S1134B209201B10181810E94A52D81114CCED50144
S1134B3014961C9214975A968D919D910D90BC9148
S1134B40A02DF50142A153A164A175A19301820195
S1134B50041B150B260B370B081719072A073B07ED
S1134B6008F065CE8380912C12E08116910430F414
S1134B705ECEF501828D938DA48DB58D480E591EA0
S1134B806A1E7B1E01E010E0A3019201B101D50170
S1134B9011968C91DAD7B1E08B1A9108E1E08E1668
S1134BA0910439F744CE01E010E02BA53CA54DA5B6
S1134BB05EA5B1018181C9D7811105CED5011496B5
S1134BC01C9214975A968D919D910D90BC91A02D95
S1134BD0F50142A153A164A175A10BA51CA52DA5A6
S1134BE03EA5041B150B260B370B081719072A07BC
S1134BF03B0708F00CCC8380912C12E081169104C1
S1134C0030F405CCF501828D938DA48DB58D2BA543
S1134C103CA54DA55EA5280F391F4A1F5B1F2BA776
S1134C203CA74DA75EA701E010E0B101D5011196A4
S1134C308C918BD7B1E08B1A9108E1E08E16910428
S1134C4009F7E5CB4BAE5CAE6DAE7EAEFDCBD101CC
S1134C509E964D925D926D927C92D197AFA1B8A52C
S1134C608D919C9185359A4A09F083C9EFA5F8A9DD
S1134C7080819181A281B381BB2786349144A4456C
S1134C80B10509F487C9EBA5FCA580819181A281B6
S1134C90B381BB2786349144A445B10509F47AC98C
S1134CA08DE012C9F10146A657A660AA71AAEFA128
S1134CB0F8A58081918185359A4A09F03BCDEFA50D
S1134CC0F8A980819181A281B381BB278634914464
S1134CD0A445B10509F45EC9EBA5FCA580819181C9
S1134CE0A281B381BB2786349144A445B10509F060
S1134CF021CD50C923962EAC3FAC23972596CEAC3C
S1134D00DFAC2597E980FA808FA598A9A9A9BAA94B
S1134D100197A109B109F70182879387A487B58711
S1134D2046A457A460A871A80FA918AD29AD3AAD3F
S1134D30041515052605370509F419CCD701149671
S1134D408C91811143C0F701F2964F0101E010E00C
S1134D502FA938AD49AD5AADB401D70111968C9144
S1134D6075D6882309F4F6CB8FEF9FEFDC01F701AA
S1134D7086A797A7A0ABB1AB81E0A6C8F10146A670
S1134D8057A660AA71AAEFA1F8A580819181853503
S1134D909A4A09F0D9CCEFA5F8A980819181A28122
S1134DA0B381BB2786349144A445B10509F4F2C804
S1134DB0EBA5FCA580819181A281B381BB278634B8
S1134DC09144A445B10509F0BFCCE4C84701F2E31E
S1134DD08F0E911C01E010E0A3019201B401D701F0
S1134DE011968C91B2D68111EECCF701148282A176
S1134DF093A1A4A1B5A1B301A201481B590B6A0B4D
S1134E007B0B828D938DA48DB58D481759076A0746
S1134E107B0708F09BCFA380B12CF2E0AF16B1045E
S1134E2030F494CFF701828D938DA48DB58D480E07
S1134E30591E6A1E7B1E01E010E0A3019201B40119
S1134E40D70111968C9181D6B1E0AB1AB108E1E09B
S1134E50AE16B10439F77ACF80E090E0DC015CCC87
S1134E6080E090E0DC0148CC80E090E0DC0134CCD0
S1134E7080E090E0DC0120CC80E073C8AFE05A22EF
S1134E80612C712C3BCB01E010E0A3019201B10134
S1134E9011968C915AD6811196CCF501148282A177
S1134EA093A1A4A1B5A1481A590A6A0A7B0A828D62
S1134EB0938DA48DB58D481659066A067B0608F0B5
S1134EC0EDCA8380912CF2E08F16910408F4E6CAAF
S1134ED04BAC5CAC6DAC7EAC05C0F501828D938DA2
S1134EE0A48DB58D480E591E6A1E7B1E01E010E08C
S1134EF0A3019201B101D50111968C9126D6B1E09E
S1134F008B1A9108E1E08E16910439F7C7CAF101B2
S1134F10EE59FF4F80819181019709F076C9B30161
S1134F20A2014F5F5F4F6F4F7F4FC1010E94D406B4
S1134F3081116BC9D10115961C92F101E05DFD4F01
S1134F408081918185359A4A09F05FC9F10182A96E
S1134F5093A9A4A9B5A982359245A146B14409F003
S1134F6054C9F101EA5EFD4F80819181A281B38130
S1134F7082379247A144B14609F047C934968081EB
S1134F809181A281B381F10186879787A08BB18B30
S1134F90E25EFD4F80819181A281B381F10182871C
S1134FA09387A487B58731C96BA57CA58DA59EA5DC
S1134FB0660F771F881F991FFFC8BA01A9014E5FAA
S1134FC05F4F6F4F7F4FD10156964D935D936D9315
S1134FD07C935997F101468E578E60A271A28BA9DA
S1134FE09CA9ADA9BEA9840D951DA61DB71D82A3BC
S1134FF093A3A4A3B5A3D801C701840D951DA61D31
S1135000B71D82A793A7A4A7B5A7EFA4F8A8EF2874
S113501011F00C94B91FF101E25AFF4F8081918184
S1135020A281B381F10186A397A3A0A7B1A7CB0165
S1135030BA01660F771F881F991F660F771F881F95
S1135040991F13E0812EB8C8882483945BC82F92DB
S11350503F924F925F926F927F928F929F92AF9204
S1135060BF92CF92DF92EF92FF920F931F93CF9351
S1135070DF93CDB7DEB72C97CDBFDEBF1C012B016C
S11350804A0129833A83D9011D921C92009749F061
S1135090DC01ED91FC911197309719F08081811119
S11350A017C089E02C96CDBFDEBFDF91CF911F9151
S11350B00F91FF90EF90DF90CF90BF90AF909F90B3
S11350C08F907F906F905F904F903F902F900895B6
S11350D02681378112968D919C9113972817390751
S11350E001F78181ACD480FF02C083E0DBCFD10122
S11350F015968C918111D6CFF101848180FD02C077
S113510087E0D0CF86819781A085B185428553857C
S113511064857585481B590B6A0B7B0B6401E12C74
S1135120F12C4C155D056E057F0508F44A018114C8
S1135130910409F4BFC03401AC01BD01517066276C
S11351407727F101452B462B472B09F4B5C0068977
S11351501789208D318D0B831C832D833E83008121
S113516011810B871C879C013170E12C52E0F52ED4
S1135170E21AF30A6E147F0408F47301EB85FC85CC
S113518086A497A4A0A8B1A80B811C812D813E817F
S113519080169106A206B306E1F1848181115EC1F5
S11351A0EB85FC85F296EF83F88701E010E02B8114
S11351B03C814D815E816F817885AB85BC8511967C
S11351C08C9144D4882371F0AB84BC848FEF9FEF1F
S11351D0DC01F50186A797A7A0ABB1AB81E0F10193
S11351E0858360CF0B811C812D813E81AB85BC857D
S11351F09E960D931D932D933C93D197F1010190AD
S1135200F081E02DEB87FC87F10186819781A085F1
S1135210B185AC01BD015170662777274E5C5F4FA5
S11352200B851C85400F511F12E0E116F10408F4B0
S113523081C16A019701F2014C015D01D6016D91B2
S11352407D916D01619371932250310922303105B2
S1135250A8F7D501C4019701225031092E7F2E5F92
S11352603F4FF201E20FF31F420F531F97012170CA
S11352703327232B41F0DA018C918083F10186815D
S11352809781A085B1854E0C5F1C8E0D9F1DA11DBD
S1135290B11DF10186839783A087B187E981FA81E3
S11352A0208131812E0D3F1D208331836E187F08AC
S11352B009F042CF80E0F6CE0190F081E02DEB873B
S11352C0FC8792809A94AC01BD0119E076956795AC
S11352D0579547951A95D1F7942209F487C0F1019F
S11352E082899389A489B589EB85FC859C01AD01EC
S11352F0225031094109510986899789A08DB18DC0
S11353000297A109B109281739074A075B0708F072
S113531018C1E281AE2FB0E00E94073FAB85BC8587
S11353209A96CD90DD90ED90FC909D976C0D7D1D2F
S11353308E1D9F1D611571058105910509F401C13B
S11353406B017C01C90CD11CE11CF11C5301AB2C79
S1135350BB24A694A114B10409F46EC0892D90E075
S1135360AC014A0D5B1D2E2F30E02417350718F4CD
S11353705901A81AB90A8501A7019601B201AB85A2
S1135380BC8511968C9162D3811128CFD101ED9106
S1135390FC918481882301F186A597A5A0A9B1A9D0
S11353A08C199D09AE09BF09A50160E070E084175E
S11353B09507A607B70780F4DC01BA2FAA27BB0F0D
S11353C0A40DB51DF296AD015E5F819191918D930F
S11353D09D93A417B507C9F77501FE2CEE24FF0CA5
S11353E0F10186819781A085B1854DCF892B8A2BC8
S11353F08B2B09F085C0D1011E966D917D918D9105
S11354009C915197623071058105910508F48DC016
S11354106F3FFFEF7F078F079F0709F496C0F101E5
S1135420628B738B848B958B008111810B871C8716
S1135430DC01CB01F8015ACFD1015696CD92DD9211
S1135440ED92FC92599716968D919D910D90BC9179
S1135450A02DCB82DC82ED82FE8285CEF296EF8394
S1135460F88701E010E0A5019401BF01AB85BC857C
S113547011968C916AD38111B1CEEB85FC8514828F
S1135480428D538D648D758D82A193A1A4A1B5A184
S113549095018401081B190B2A0B3B0B04171507F4
S11354A02607370708F081CEC380D12C12E0C1163D
S11354B0D10408F47ACEE986FA86EF80F884AB85C5
S11354C0BC8508C0AB85BC855A964D915D916D91A4
S11354D07C915D97840E951EA61EB71E01E010E018
S11354E0A5019401B70111968C912FD3B1E0CB1A89
S11354F0D108E1E0CE16D10429F7E984FA8455CE27
S1135500F1014289538964897589423051056105E5
S1135510710558F0EB85FC8586899789A08DB18D3E
S1135520481759076A077B0740F082E0D1011596B6
S11355308C93B8CD9701F2019CCECF010E945F0BF2
S113554061CF82E0F1018583ADCD81E0D101159673
S11355508C93A8CD2F923F924F925F926F927F923D
S11355608F929F92AF92BF92CF92DF92EF92FF926F
S11355700F931F93CF93DF93EC01009739F0E881E9
S1135580F981309719F08081811114C089E0DF918D
S1135590CF911F910F91FF90EF90DF90CF90BF902C
S11355A0AF909F908F907F906F905F904F903F90BF
S11355B02F900895268137818A819B812817390786
S11355C029F781813CD280FF02C083E0E0CF8C8147
S11355D085FD16C0E881F9813097C1F28081882366
S11355E0A9F2268137818A819B812817390771F6B0
S11355F0818125D280FDE9CF1882198280E0C7CF4E
S11356004A8C5B8C6C8C7D8CA880B980F501C6A417
S1135610D7A4E0A8F1A84C145D046E047F0401F142
S113562084811501F2E32F0E311C811146C001E083
S113563010E0A3019201B101F501818107D2882311
S113564051F08FEF9FEFDC01F50186A797A7A0AB80
S1135650B1AB81E09CCFF50146A657A660AA71AA1A
S1135660EE8DFF8D8385806283878A859B85AC85DB
S1135670BD85848F958FA68FB78F8E859F85A889CA
S1135680B989828F938FA48BB58B80E090E0AFE4CF
S1135690B5E4868B978BA08FB18F128A138A8C8185
S11356A08F7D8C83E881F98181E08483888199816D
S11356B00E94620781116BCF8DCF01E010E0A7013A
S11356C09601B101F501818140D28111C2CFF5016A
S11356D01482828D938DA48DB58D42A153A164A1B2
S11356E075A197018601041B150B260B370B0817B0
S11356F019072A073B0708F09ACF8380912C12E000
S11357008116910430F493CFF501828D938DA48D8D
S1135710B58DC80ED91EEA1EFB1E01E010E0A701DC
S11357209601B101F501818110D2F1E08F1A91083F
S113573001E08016910441F77ACFEF92FF920F9324
S11357401F93CF93DF937C018B0124E12093A12548
S113575004C02091A125222339F08FEF0E94A038A4
S11357608F3FB9F38E3F49F080E090E0DF91CF9115
S11357701F910F91FF90EF900895E7018FEF0E9422
S1135780A03888838FEF0E94A038898302501109C2
S113579022960115110591F78FEF0E94A0388FEF23
S11357A00E94A03881E090E0DF91CF911F910F918A
S11357B0FF90EF900895EF92FF920F931F93CF9372
S11357C0DF93C82F142F052FF62EE72E87FD63C015
S11357D0CC3009F44AC0D0E1D09345068FEF0E9443
S11357E0A038D09346068FEF0E94A03882E38093BE
S11357F0A02504C09091A025992349F18FEF0E9420
S1135800A0388F3FB9F78C2F80640E94A0388E2D6A
S11358100E94A0388F2D0E94A038802F0E94A038AB
S1135820812F0E94A038C1113FC085E90E94A03891
S1135830CAE08FEF0E94A03887FF02C0C150C9F7A9
S1135840DF91CF911F910F91FF90EF90089580E128
S1135850809345068FEF0E94A0388FEFDF91CF91A0
S11358601F910F91FF90EF9008958CE40E94A0384F
S11358708E2D0E94A0388F2D0E94A038802F0E9468
S1135880A038812F0E94A03881E00E94A0388FEFB9
S11358900E94A038CDCF40E050E0BA0187E38BDF0F
S11358A0823070F6CF7794CFC83021F487E80E9415
S11358B0A038BECF81E00E94A038BACFEF92FF9209
S11358C00F931F93CF93DF9300D000D0CDB7DEB7F3
S11358D0882359F081E02496CDBFDEBFDF91CF91BC
S11358E01F910F91FF90EF9008950E94913880913D
S11358F0042081FF03C080910420EDCF0E948738EB
S113590082ED8093C0081AE08FEF0E94A0381150F6
S1135910D9F740E050E0BA0180E04DDF813059F022
S113592010929F2580E1809345068FEF0E94A03856
S11359300E949138E0CF84E68093A1254AEA51E0A1
S113594060E070E088E037DF813009F050C07E010C
S113595085E0E80EF11C8E010F5F1F4F8FEF0E9450
S1135960A038F80181938F01EE15FF05B9F78B81FB
S11359708130B1F68C818A3A99F608C040E050E053
S113598060E070E489EA17DF882321F08091A12583
S11359908111F4CF8091A125882309F4C1CF40E07F
S11359A050E0BA018AE307DF8111BACF8E010F5F9D
S11359B01F4F8FEF0E94A038F80181938F01EE16DC
S11359C0FF06B9F7898186FD38C004E000939F255E
S11359D080E1809345068FEF0E94A03880910420D7
S11359E08E7F8093042080ED8093C00884CF40E0B4
S11359F050E0BA0189EADFDE8230E0F001E011E034
S1135A0007C040E050E0BA01812FD5DE882321F0A1
S1135A109091A1259111F5CF8091A125882309F4B6
S1135A207FCF40E052E060E070E080E1C4DE8111AD
S1135A3077CFCCCF02E019EAEBCF0CE0C7CF8111CE
S1135A4003C080910420089581E00895CF92DF92ED
S1135A50EF92FF920F931F93CF93DF93F62EE72ECF
S1135A60882359F0C4E08C2FDF91CF911F910F91BF
S1135A70FF90EF90DF90CF9008950115110591F3F9
S1135A808091042080FF02C0C3E0EDCF80919F2568
S1135A9083FD07C079E0220F331F441F551F7A95F9
S1135AA0D1F70230110508F447C062E1C62EBA01ED
S1135AB0A9018C2D80DE81113DC084E1D82ED092C5
S1135AC0A12504C09091A125992339F08FEF0E945C
S1135AD0A0388F3FB9F38E3F69F0C1E0012B41F14B
S1135AE082E1C81661F180E1809345068FEF0E9440
S1135AF0A038B9CFCF2DDE2D7E018EEFF81A8FEFAF
S1135B000E94A03888838FEF0E94A0388983229650
S1135B10CE15DF05A1F78FEF0E94A0388FEF0E940A
S1135B20A038FC2EED2E015011090115110539F68E
S1135B30C0E0D6CFC1E0D7CF91E1C92EB8CF40E0C5
S1135B4050E0BA018CE037DECECFAF92BF92CF9255
S1135B50DF92EF92FF920F931F93CF93DF93B62EB2
S1135B60A72E69017A01882369F0C4E08C2FDF91A4
S1135B70CF911F910F91FF90EF90DF90CF90BF9046
S1135B80AF9008950115110581F38091042080FFE1
S1135B9002C0C3E0EBCF8091042082FF02C0C2E0C8
S1135BA0E5CF80919F2583FD07C0F9E0CC0CDD1C77
S1135BB0EE1CFF1CFA95D1F70130110509F457C00A
S1135BC0867009F089C0B701A60189E1F4DD81116D
S1135BD081C0E2E3DE2ED092A02504C08091A025EE
S1135BE0882351F18FEF0E94A0388F3FB9F78CEFD3
S1135BF00E94A038CB2DDA2D7E018EEFF81A888111
S1135C000E94A03889810E94A0382296EC16FD06D5
S1135C10B1F78FEF0E94A0388FEF0E94A0388FEF6A
S1135C200E94A0388F71853039F4BE2CAF2C0150FE
S1135C3011090115110579F682E38093A02505C0A9
S1135C408091A025882309F445C08FEF0E94A038D5
S1135C508F3FB1F78DEF0E94A038C1E0012BC1F155
S1135C6080E1809345068FEF0E94A0387FCFB70173
S1135C70A60188E1A0DD81112DC082E38093A025D7
S1135C8004C08091A025882329F18FEF0E94A038B9
S1135C908F3FB9F78EEF0E94A038CB2DDA2D8E01FD
S1135CA01E5F88810E94A03889810E94A0382296B4
S1135CB0C017D107B1F78FEF0E94A0388FEF0E9471
S1135CC0A0388FEF0E94A0388F71C1E0853041F673
S1135CD0C0E0C6CFC1E0C4CFA80160E070E087E9AE
S1135CE06ADD71CFCF92DF92EF92FF920F931F93F1
